{
	"contracts/MultisigWallet.sol": {
		"MultisigWallet": {
			"abi": [
				{
					"inputs": [
						{
							"internalType": "address[]",
							"name": "_owners",
							"type": "address[]"
						},
						{
							"internalType": "uint256",
							"name": "_threshold",
							"type": "uint256"
						}
					],
					"stateMutability": "nonpayable",
					"type": "constructor"
				},
				{
					"anonymous": false,
					"inputs": [
						{
							"indexed": false,
							"internalType": "bytes32",
							"name": "txHash",
							"type": "bytes32"
						}
					],
					"name": "ExecutionFailure",
					"type": "event"
				},
				{
					"anonymous": false,
					"inputs": [
						{
							"indexed": false,
							"internalType": "bytes32",
							"name": "txHash",
							"type": "bytes32"
						}
					],
					"name": "ExecutionSuccess",
					"type": "event"
				},
				{
					"inputs": [
						{
							"internalType": "bytes32",
							"name": "dataHash",
							"type": "bytes32"
						},
						{
							"internalType": "bytes",
							"name": "signatures",
							"type": "bytes"
						}
					],
					"name": "checkSignatures",
					"outputs": [],
					"stateMutability": "view",
					"type": "function"
				},
				{
					"inputs": [
						{
							"internalType": "address",
							"name": "to",
							"type": "address"
						},
						{
							"internalType": "uint256",
							"name": "value",
							"type": "uint256"
						},
						{
							"internalType": "bytes",
							"name": "data",
							"type": "bytes"
						},
						{
							"internalType": "uint256",
							"name": "_nonce",
							"type": "uint256"
						},
						{
							"internalType": "uint256",
							"name": "chainid",
							"type": "uint256"
						}
					],
					"name": "encodeTransactionData",
					"outputs": [
						{
							"internalType": "bytes32",
							"name": "",
							"type": "bytes32"
						}
					],
					"stateMutability": "pure",
					"type": "function"
				},
				{
					"inputs": [
						{
							"internalType": "address",
							"name": "to",
							"type": "address"
						},
						{
							"internalType": "uint256",
							"name": "value",
							"type": "uint256"
						},
						{
							"internalType": "bytes",
							"name": "data",
							"type": "bytes"
						},
						{
							"internalType": "bytes",
							"name": "signatures",
							"type": "bytes"
						}
					],
					"name": "execTransaction",
					"outputs": [
						{
							"internalType": "bool",
							"name": "success",
							"type": "bool"
						}
					],
					"stateMutability": "payable",
					"type": "function"
				},
				{
					"inputs": [
						{
							"internalType": "address",
							"name": "",
							"type": "address"
						}
					],
					"name": "isOwner",
					"outputs": [
						{
							"internalType": "bool",
							"name": "",
							"type": "bool"
						}
					],
					"stateMutability": "view",
					"type": "function"
				},
				{
					"inputs": [],
					"name": "nonce",
					"outputs": [
						{
							"internalType": "uint256",
							"name": "",
							"type": "uint256"
						}
					],
					"stateMutability": "view",
					"type": "function"
				},
				{
					"inputs": [],
					"name": "ownerCount",
					"outputs": [
						{
							"internalType": "uint256",
							"name": "",
							"type": "uint256"
						}
					],
					"stateMutability": "view",
					"type": "function"
				},
				{
					"inputs": [
						{
							"internalType": "uint256",
							"name": "",
							"type": "uint256"
						}
					],
					"name": "owners",
					"outputs": [
						{
							"internalType": "address",
							"name": "",
							"type": "address"
						}
					],
					"stateMutability": "view",
					"type": "function"
				},
				{
					"inputs": [],
					"name": "threshold",
					"outputs": [
						{
							"internalType": "uint256",
							"name": "",
							"type": "uint256"
						}
					],
					"stateMutability": "view",
					"type": "function"
				},
				{
					"stateMutability": "payable",
					"type": "receive"
				}
			],
			"devdoc": {
				"kind": "dev",
				"methods": {
					"checkSignatures(bytes32,bytes)": {
						"params": {
							"dataHash": "交易数据哈希",
							"signatures": "几个多签签名打包在一起"
						}
					},
					"encodeTransactionData(address,uint256,bytes,uint256,uint256)": {
						"params": {
							"_nonce": "交易的nonce.",
							"chainid": "链id",
							"data": "calldata",
							"to": "目标合约地址",
							"value": "msg.value，支付的以太坊"
						},
						"returns": {
							"_0": "交易哈希bytes."
						}
					},
					"execTransaction(address,uint256,bytes,bytes)": {
						"details": "在收集足够的多签签名后，执行交易",
						"params": {
							"data": "calldata",
							"signatures": "打包的签名，对应的多签地址由小到达，方便检查。 ({bytes32 r}{bytes32 s}{uint8 v}) (第一个多签的签名, 第二个多签的签名 ... )",
							"to": "目标合约地址",
							"value": "msg.value，支付的以太坊"
						}
					}
				},
				"version": 1
			},
			"evm": {
				"assembly": "    /* \"contracts/MultisigWallet.sol\":60:8572  contract MultisigWallet{... */\n  mstore(0x40, 0x80)\n    /* \"contracts/MultisigWallet.sol\":879:987  constructor(address[] memory _owners,uint256 _threshold){... */\n  callvalue\n  dup1\n  iszero\n  tag_1\n  jumpi\n  revert(0x00, 0x00)\ntag_1:\n  pop\n  mload(0x40)\n  sub(codesize, bytecodeSize)\n  dup1\n  bytecodeSize\n  dup4\n  codecopy\n  dup2\n  dup2\n  add\n  0x40\n  mstore\n  dup2\n  add\n  swap1\n  tag_2\n  swap2\n  swap1\n  tag_3\n  jump\t// in\ntag_2:\n    /* \"contracts/MultisigWallet.sol\":946:979  _setupOwners(_owners, _threshold) */\n  tag_6\n    /* \"contracts/MultisigWallet.sol\":959:966  _owners */\n  dup3\n    /* \"contracts/MultisigWallet.sol\":968:978  _threshold */\n  dup3\n    /* \"contracts/MultisigWallet.sol\":946:958  _setupOwners */\n  shl(0x20, tag_7)\n    /* \"contracts/MultisigWallet.sol\":946:979  _setupOwners(_owners, _threshold) */\n  0x20\n  shr\n  jump\t// in\ntag_6:\n    /* \"contracts/MultisigWallet.sol\":879:987  constructor(address[] memory _owners,uint256 _threshold){... */\n  pop\n  pop\n    /* \"contracts/MultisigWallet.sol\":60:8572  contract MultisigWallet{... */\n  jump(tag_8)\n    /* \"contracts/MultisigWallet.sol\":1193:2007  function _setupOwners(address[] memory _owners,uint256 _threshold) internal {... */\ntag_7:\n    /* \"contracts/MultisigWallet.sol\":1341:1342  0 */\n  0x00\n    /* \"contracts/MultisigWallet.sol\":1328:1337  threshold */\n  sload(0x03)\n    /* \"contracts/MultisigWallet.sol\":1328:1342  threshold == 0 */\n  eq\n    /* \"contracts/MultisigWallet.sol\":1320:1353  require(threshold == 0,\"WTF5000\") */\n  tag_10\n  jumpi\n  mload(0x40)\n  0x08c379a000000000000000000000000000000000000000000000000000000000\n  dup2\n  mstore\n  0x04\n  add\n  tag_11\n  swap1\n  tag_12\n  jump\t// in\ntag_11:\n  mload(0x40)\n  dup1\n  swap2\n  sub\n  swap1\n  revert\ntag_10:\n    /* \"contracts/MultisigWallet.sol\":1443:1450  _owners */\n  dup2\n    /* \"contracts/MultisigWallet.sol\":1443:1457  _owners.length */\n  mload\n    /* \"contracts/MultisigWallet.sol\":1429:1439  _threshold */\n  dup2\n    /* \"contracts/MultisigWallet.sol\":1429:1457  _threshold <= _owners.length */\n  gt\n  iszero\n    /* \"contracts/MultisigWallet.sol\":1421:1468  require(_threshold <= _owners.length,\"WTF5001\") */\n  tag_13\n  jumpi\n  mload(0x40)\n  0x08c379a000000000000000000000000000000000000000000000000000000000\n  dup2\n  mstore\n  0x04\n  add\n  tag_14\n  swap1\n  tag_15\n  jump\t// in\ntag_14:\n  mload(0x40)\n  dup1\n  swap2\n  sub\n  swap1\n  revert\ntag_13:\n    /* \"contracts/MultisigWallet.sol\":1541:1542  1 */\n  0x01\n    /* \"contracts/MultisigWallet.sol\":1527:1537  _threshold */\n  dup2\n    /* \"contracts/MultisigWallet.sol\":1527:1542  _threshold >= 1 */\n  lt\n  iszero\n    /* \"contracts/MultisigWallet.sol\":1519:1553  require(_threshold >= 1,\"WTF5002\") */\n  tag_16\n  jumpi\n  mload(0x40)\n  0x08c379a000000000000000000000000000000000000000000000000000000000\n  dup2\n  mstore\n  0x04\n  add\n  tag_17\n  swap1\n  tag_18\n  jump\t// in\ntag_17:\n  mload(0x40)\n  dup1\n  swap2\n  sub\n  swap1\n  revert\ntag_16:\n    /* \"contracts/MultisigWallet.sol\":1570:1576  uint i */\n  0x00\n    /* \"contracts/MultisigWallet.sol\":1578:1579  0 */\n  0x00\n    /* \"contracts/MultisigWallet.sol\":1570:1579  uint i =0 */\n  swap1\n  pop\n    /* \"contracts/MultisigWallet.sol\":1566:1929  for(uint i =0;i<_owners.length; i++){... */\ntag_19:\n    /* \"contracts/MultisigWallet.sol\":1582:1589  _owners */\n  dup3\n    /* \"contracts/MultisigWallet.sol\":1582:1596  _owners.length */\n  mload\n    /* \"contracts/MultisigWallet.sol\":1580:1581  i */\n  dup2\n    /* \"contracts/MultisigWallet.sol\":1580:1596  i<_owners.length */\n  lt\n    /* \"contracts/MultisigWallet.sol\":1566:1929  for(uint i =0;i<_owners.length; i++){... */\n  iszero\n  tag_20\n  jumpi\n    /* \"contracts/MultisigWallet.sol\":1617:1630  address owner */\n  0x00\n    /* \"contracts/MultisigWallet.sol\":1633:1640  _owners */\n  dup4\n    /* \"contracts/MultisigWallet.sol\":1641:1642  i */\n  dup3\n    /* \"contracts/MultisigWallet.sol\":1633:1643  _owners[i] */\n  dup2\n  mload\n  dup2\n  lt\n  tag_22\n  jumpi\n  tag_23\n  tag_24\n  jump\t// in\ntag_23:\ntag_22:\n  0x20\n  mul\n  0x20\n  add\n  add\n  mload\n    /* \"contracts/MultisigWallet.sol\":1617:1643  address owner = _owners[i] */\n  swap1\n  pop\n    /* \"contracts/MultisigWallet.sol\":1791:1792  0 */\n  0x00\n    /* \"contracts/MultisigWallet.sol\":1774:1793  owner != address(0) */\n  0xffffffffffffffffffffffffffffffffffffffff\n  and\n    /* \"contracts/MultisigWallet.sol\":1774:1779  owner */\n  dup2\n    /* \"contracts/MultisigWallet.sol\":1774:1793  owner != address(0) */\n  0xffffffffffffffffffffffffffffffffffffffff\n  and\n  eq\n  iszero\n    /* \"contracts/MultisigWallet.sol\":1774:1817  owner != address(0) && owner!=address(this) */\n  dup1\n  iszero\n  tag_25\n  jumpi\n  pop\n    /* \"contracts/MultisigWallet.sol\":1812:1816  this */\n  address\n    /* \"contracts/MultisigWallet.sol\":1797:1817  owner!=address(this) */\n  0xffffffffffffffffffffffffffffffffffffffff\n  and\n    /* \"contracts/MultisigWallet.sol\":1797:1802  owner */\n  dup2\n    /* \"contracts/MultisigWallet.sol\":1797:1817  owner!=address(this) */\n  0xffffffffffffffffffffffffffffffffffffffff\n  and\n  eq\n  iszero\n    /* \"contracts/MultisigWallet.sol\":1774:1817  owner != address(0) && owner!=address(this) */\ntag_25:\n    /* \"contracts/MultisigWallet.sol\":1774:1836  owner != address(0) && owner!=address(this) && !isOwner[owner] */\n  dup1\n  iszero\n  tag_26\n  jumpi\n  pop\n    /* \"contracts/MultisigWallet.sol\":1822:1829  isOwner */\n  0x01\n    /* \"contracts/MultisigWallet.sol\":1822:1836  isOwner[owner] */\n  0x00\n    /* \"contracts/MultisigWallet.sol\":1830:1835  owner */\n  dup3\n    /* \"contracts/MultisigWallet.sol\":1822:1836  isOwner[owner] */\n  0xffffffffffffffffffffffffffffffffffffffff\n  and\n  0xffffffffffffffffffffffffffffffffffffffff\n  and\n  dup2\n  mstore\n  0x20\n  add\n  swap1\n  dup2\n  mstore\n  0x20\n  add\n  0x00\n  keccak256\n  0x00\n  swap1\n  sload\n  swap1\n  0x0100\n  exp\n  swap1\n  div\n  0xff\n  and\n    /* \"contracts/MultisigWallet.sol\":1821:1836  !isOwner[owner] */\n  iszero\n    /* \"contracts/MultisigWallet.sol\":1774:1836  owner != address(0) && owner!=address(this) && !isOwner[owner] */\ntag_26:\n    /* \"contracts/MultisigWallet.sol\":1766:1848  require(owner != address(0) && owner!=address(this) && !isOwner[owner], \"WTF5003\") */\n  tag_27\n  jumpi\n  mload(0x40)\n  0x08c379a000000000000000000000000000000000000000000000000000000000\n  dup2\n  mstore\n  0x04\n  add\n  tag_28\n  swap1\n  tag_29\n  jump\t// in\ntag_28:\n  mload(0x40)\n  dup1\n  swap2\n  sub\n  swap1\n  revert\ntag_27:\n    /* \"contracts/MultisigWallet.sol\":1863:1869  owners */\n  0x00\n    /* \"contracts/MultisigWallet.sol\":1875:1880  owner */\n  dup2\n    /* \"contracts/MultisigWallet.sol\":1863:1881  owners.push(owner) */\n  swap1\n  dup1\n  0x01\n  dup2\n  sload\n  add\n  dup1\n  dup3\n  sstore\n  dup1\n  swap2\n  pop\n  pop\n  0x01\n  swap1\n  sub\n  swap1\n  0x00\n  mstore\n  keccak256(0x00, 0x20)\n  add\n  0x00\n  swap1\n  swap2\n  swap1\n  swap2\n  swap1\n  swap2\n  0x0100\n  exp\n  dup2\n  sload\n  dup2\n  0xffffffffffffffffffffffffffffffffffffffff\n  mul\n  not\n  and\n  swap1\n  dup4\n  0xffffffffffffffffffffffffffffffffffffffff\n  and\n  mul\n  or\n  swap1\n  sstore\n  pop\n    /* \"contracts/MultisigWallet.sol\":1913:1917  true */\n  0x01\n    /* \"contracts/MultisigWallet.sol\":1896:1903  isOwner */\n  dup1\n    /* \"contracts/MultisigWallet.sol\":1896:1910  isOwner[owner] */\n  0x00\n    /* \"contracts/MultisigWallet.sol\":1904:1909  owner */\n  dup4\n    /* \"contracts/MultisigWallet.sol\":1896:1910  isOwner[owner] */\n  0xffffffffffffffffffffffffffffffffffffffff\n  and\n  0xffffffffffffffffffffffffffffffffffffffff\n  and\n  dup2\n  mstore\n  0x20\n  add\n  swap1\n  dup2\n  mstore\n  0x20\n  add\n  0x00\n  keccak256\n  0x00\n    /* \"contracts/MultisigWallet.sol\":1896:1917  isOwner[owner] = true */\n  0x0100\n  exp\n  dup2\n  sload\n  dup2\n  0xff\n  mul\n  not\n  and\n  swap1\n  dup4\n  iszero\n  iszero\n  mul\n  or\n  swap1\n  sstore\n  pop\n    /* \"contracts/MultisigWallet.sol\":1602:1929  {... */\n  pop\n    /* \"contracts/MultisigWallet.sol\":1598:1601  i++ */\n  dup1\n  dup1\n  0x01\n  add\n  swap2\n  pop\n  pop\n    /* \"contracts/MultisigWallet.sol\":1566:1929  for(uint i =0;i<_owners.length; i++){... */\n  jump(tag_19)\ntag_20:\n  pop\n    /* \"contracts/MultisigWallet.sol\":1952:1959  _owners */\n  dup2\n    /* \"contracts/MultisigWallet.sol\":1952:1966  _owners.length */\n  mload\n    /* \"contracts/MultisigWallet.sol\":1939:1949  ownerCount */\n  0x02\n    /* \"contracts/MultisigWallet.sol\":1939:1966  ownerCount = _owners.length */\n  dup2\n  swap1\n  sstore\n  pop\n    /* \"contracts/MultisigWallet.sol\":1989:1999  _threshold */\n  dup1\n    /* \"contracts/MultisigWallet.sol\":1977:1986  threshold */\n  0x03\n    /* \"contracts/MultisigWallet.sol\":1977:1999  threshold = _threshold */\n  dup2\n  swap1\n  sstore\n  pop\n    /* \"contracts/MultisigWallet.sol\":1193:2007  function _setupOwners(address[] memory _owners,uint256 _threshold) internal {... */\n  pop\n  pop\n  jump\t// out\n    /* \"#utility.yul\":7:82   */\ntag_31:\n    /* \"#utility.yul\":40:46   */\n  0x00\n    /* \"#utility.yul\":73:75   */\n  0x40\n    /* \"#utility.yul\":67:76   */\n  mload\n    /* \"#utility.yul\":57:76   */\n  swap1\n  pop\n    /* \"#utility.yul\":7:82   */\n  swap1\n  jump\t// out\n    /* \"#utility.yul\":88:205   */\ntag_32:\n    /* \"#utility.yul\":197:198   */\n  0x00\n    /* \"#utility.yul\":194:195   */\n  0x00\n    /* \"#utility.yul\":187:199   */\n  revert\n    /* \"#utility.yul\":211:328   */\ntag_33:\n    /* \"#utility.yul\":320:321   */\n  0x00\n    /* \"#utility.yul\":317:318   */\n  0x00\n    /* \"#utility.yul\":310:322   */\n  revert\n    /* \"#utility.yul\":334:451   */\ntag_34:\n    /* \"#utility.yul\":443:444   */\n  0x00\n    /* \"#utility.yul\":440:441   */\n  0x00\n    /* \"#utility.yul\":433:445   */\n  revert\n    /* \"#utility.yul\":457:559   */\ntag_35:\n    /* \"#utility.yul\":498:504   */\n  0x00\n    /* \"#utility.yul\":549:551   */\n  0x1f\n    /* \"#utility.yul\":545:552   */\n  not\n    /* \"#utility.yul\":540:542   */\n  0x1f\n    /* \"#utility.yul\":533:538   */\n  dup4\n    /* \"#utility.yul\":529:543   */\n  add\n    /* \"#utility.yul\":525:553   */\n  and\n    /* \"#utility.yul\":515:553   */\n  swap1\n  pop\n    /* \"#utility.yul\":457:559   */\n  swap2\n  swap1\n  pop\n  jump\t// out\n    /* \"#utility.yul\":565:745   */\ntag_36:\n    /* \"#utility.yul\":613:690   */\n  0x4e487b7100000000000000000000000000000000000000000000000000000000\n    /* \"#utility.yul\":610:611   */\n  0x00\n    /* \"#utility.yul\":603:691   */\n  mstore\n    /* \"#utility.yul\":710:714   */\n  0x41\n    /* \"#utility.yul\":707:708   */\n  0x04\n    /* \"#utility.yul\":700:715   */\n  mstore\n    /* \"#utility.yul\":734:738   */\n  0x24\n    /* \"#utility.yul\":731:732   */\n  0x00\n    /* \"#utility.yul\":724:739   */\n  revert\n    /* \"#utility.yul\":751:1032   */\ntag_37:\n    /* \"#utility.yul\":834:861   */\n  tag_67\n    /* \"#utility.yul\":856:860   */\n  dup3\n    /* \"#utility.yul\":834:861   */\n  tag_35\n  jump\t// in\ntag_67:\n    /* \"#utility.yul\":826:832   */\n  dup2\n    /* \"#utility.yul\":822:862   */\n  add\n    /* \"#utility.yul\":964:970   */\n  dup2\n    /* \"#utility.yul\":952:962   */\n  dup2\n    /* \"#utility.yul\":949:971   */\n  lt\n    /* \"#utility.yul\":928:946   */\n  0xffffffffffffffff\n    /* \"#utility.yul\":916:926   */\n  dup3\n    /* \"#utility.yul\":913:947   */\n  gt\n    /* \"#utility.yul\":910:972   */\n  or\n    /* \"#utility.yul\":907:995   */\n  iszero\n  tag_68\n  jumpi\n    /* \"#utility.yul\":975:993   */\n  tag_69\n  tag_36\n  jump\t// in\ntag_69:\n    /* \"#utility.yul\":907:995   */\ntag_68:\n    /* \"#utility.yul\":1015:1025   */\n  dup1\n    /* \"#utility.yul\":1011:1013   */\n  0x40\n    /* \"#utility.yul\":1004:1026   */\n  mstore\n    /* \"#utility.yul\":794:1032   */\n  pop\n    /* \"#utility.yul\":751:1032   */\n  pop\n  pop\n  jump\t// out\n    /* \"#utility.yul\":1038:1167   */\ntag_38:\n    /* \"#utility.yul\":1072:1078   */\n  0x00\n    /* \"#utility.yul\":1099:1119   */\n  tag_71\n  tag_31\n  jump\t// in\ntag_71:\n    /* \"#utility.yul\":1089:1119   */\n  swap1\n  pop\n    /* \"#utility.yul\":1128:1161   */\n  tag_72\n    /* \"#utility.yul\":1156:1160   */\n  dup3\n    /* \"#utility.yul\":1148:1154   */\n  dup3\n    /* \"#utility.yul\":1128:1161   */\n  tag_37\n  jump\t// in\ntag_72:\n    /* \"#utility.yul\":1038:1167   */\n  swap2\n  swap1\n  pop\n  jump\t// out\n    /* \"#utility.yul\":1173:1484   */\ntag_39:\n    /* \"#utility.yul\":1250:1254   */\n  0x00\n    /* \"#utility.yul\":1340:1358   */\n  0xffffffffffffffff\n    /* \"#utility.yul\":1332:1338   */\n  dup3\n    /* \"#utility.yul\":1329:1359   */\n  gt\n    /* \"#utility.yul\":1326:1382   */\n  iszero\n  tag_74\n  jumpi\n    /* \"#utility.yul\":1362:1380   */\n  tag_75\n  tag_36\n  jump\t// in\ntag_75:\n    /* \"#utility.yul\":1326:1382   */\ntag_74:\n    /* \"#utility.yul\":1412:1416   */\n  0x20\n    /* \"#utility.yul\":1404:1410   */\n  dup3\n    /* \"#utility.yul\":1400:1417   */\n  mul\n    /* \"#utility.yul\":1392:1417   */\n  swap1\n  pop\n    /* \"#utility.yul\":1472:1476   */\n  0x20\n    /* \"#utility.yul\":1466:1470   */\n  dup2\n    /* \"#utility.yul\":1462:1477   */\n  add\n    /* \"#utility.yul\":1454:1477   */\n  swap1\n  pop\n    /* \"#utility.yul\":1173:1484   */\n  swap2\n  swap1\n  pop\n  jump\t// out\n    /* \"#utility.yul\":1490:1607   */\ntag_40:\n    /* \"#utility.yul\":1599:1600   */\n  0x00\n    /* \"#utility.yul\":1596:1597   */\n  0x00\n    /* \"#utility.yul\":1589:1601   */\n  revert\n    /* \"#utility.yul\":1613:1739   */\ntag_41:\n    /* \"#utility.yul\":1650:1657   */\n  0x00\n    /* \"#utility.yul\":1690:1732   */\n  0xffffffffffffffffffffffffffffffffffffffff\n    /* \"#utility.yul\":1683:1688   */\n  dup3\n    /* \"#utility.yul\":1679:1733   */\n  and\n    /* \"#utility.yul\":1668:1733   */\n  swap1\n  pop\n    /* \"#utility.yul\":1613:1739   */\n  swap2\n  swap1\n  pop\n  jump\t// out\n    /* \"#utility.yul\":1745:1841   */\ntag_42:\n    /* \"#utility.yul\":1782:1789   */\n  0x00\n    /* \"#utility.yul\":1811:1835   */\n  tag_79\n    /* \"#utility.yul\":1829:1834   */\n  dup3\n    /* \"#utility.yul\":1811:1835   */\n  tag_41\n  jump\t// in\ntag_79:\n    /* \"#utility.yul\":1800:1835   */\n  swap1\n  pop\n    /* \"#utility.yul\":1745:1841   */\n  swap2\n  swap1\n  pop\n  jump\t// out\n    /* \"#utility.yul\":1847:1969   */\ntag_43:\n    /* \"#utility.yul\":1920:1944   */\n  tag_81\n    /* \"#utility.yul\":1938:1943   */\n  dup2\n    /* \"#utility.yul\":1920:1944   */\n  tag_42\n  jump\t// in\ntag_81:\n    /* \"#utility.yul\":1913:1918   */\n  dup2\n    /* \"#utility.yul\":1910:1945   */\n  eq\n    /* \"#utility.yul\":1900:1963   */\n  tag_82\n  jumpi\n    /* \"#utility.yul\":1959:1960   */\n  0x00\n    /* \"#utility.yul\":1956:1957   */\n  0x00\n    /* \"#utility.yul\":1949:1961   */\n  revert\n    /* \"#utility.yul\":1900:1963   */\ntag_82:\n    /* \"#utility.yul\":1847:1969   */\n  pop\n  jump\t// out\n    /* \"#utility.yul\":1975:2118   */\ntag_44:\n    /* \"#utility.yul\":2032:2037   */\n  0x00\n    /* \"#utility.yul\":2063:2069   */\n  dup2\n    /* \"#utility.yul\":2057:2070   */\n  mload\n    /* \"#utility.yul\":2048:2070   */\n  swap1\n  pop\n    /* \"#utility.yul\":2079:2112   */\n  tag_84\n    /* \"#utility.yul\":2106:2111   */\n  dup2\n    /* \"#utility.yul\":2079:2112   */\n  tag_43\n  jump\t// in\ntag_84:\n    /* \"#utility.yul\":1975:2118   */\n  swap3\n  swap2\n  pop\n  pop\n  jump\t// out\n    /* \"#utility.yul\":2141:2873   */\ntag_45:\n    /* \"#utility.yul\":2248:2253   */\n  0x00\n    /* \"#utility.yul\":2273:2354   */\n  tag_86\n    /* \"#utility.yul\":2289:2353   */\n  tag_87\n    /* \"#utility.yul\":2346:2352   */\n  dup5\n    /* \"#utility.yul\":2289:2353   */\n  tag_39\n  jump\t// in\ntag_87:\n    /* \"#utility.yul\":2273:2354   */\n  tag_38\n  jump\t// in\ntag_86:\n    /* \"#utility.yul\":2264:2354   */\n  swap1\n  pop\n    /* \"#utility.yul\":2374:2379   */\n  dup1\n    /* \"#utility.yul\":2403:2409   */\n  dup4\n    /* \"#utility.yul\":2396:2401   */\n  dup3\n    /* \"#utility.yul\":2389:2410   */\n  mstore\n    /* \"#utility.yul\":2437:2441   */\n  0x20\n    /* \"#utility.yul\":2430:2435   */\n  dup3\n    /* \"#utility.yul\":2426:2442   */\n  add\n    /* \"#utility.yul\":2419:2442   */\n  swap1\n  pop\n    /* \"#utility.yul\":2490:2494   */\n  0x20\n    /* \"#utility.yul\":2482:2488   */\n  dup5\n    /* \"#utility.yul\":2478:2495   */\n  mul\n    /* \"#utility.yul\":2470:2476   */\n  dup4\n    /* \"#utility.yul\":2466:2496   */\n  add\n    /* \"#utility.yul\":2519:2522   */\n  dup6\n    /* \"#utility.yul\":2511:2517   */\n  dup2\n    /* \"#utility.yul\":2508:2523   */\n  gt\n    /* \"#utility.yul\":2505:2627   */\n  iszero\n  tag_88\n  jumpi\n    /* \"#utility.yul\":2538:2617   */\n  tag_89\n  tag_40\n  jump\t// in\ntag_89:\n    /* \"#utility.yul\":2505:2627   */\ntag_88:\n    /* \"#utility.yul\":2653:2659   */\n  dup4\n    /* \"#utility.yul\":2636:2867   */\ntag_90:\n    /* \"#utility.yul\":2670:2676   */\n  dup2\n    /* \"#utility.yul\":2665:2668   */\n  dup2\n    /* \"#utility.yul\":2662:2677   */\n  lt\n    /* \"#utility.yul\":2636:2867   */\n  iszero\n  tag_92\n  jumpi\n    /* \"#utility.yul\":2745:2748   */\n  dup1\n    /* \"#utility.yul\":2774:2822   */\n  tag_93\n    /* \"#utility.yul\":2818:2821   */\n  dup9\n    /* \"#utility.yul\":2806:2816   */\n  dup3\n    /* \"#utility.yul\":2774:2822   */\n  tag_44\n  jump\t// in\ntag_93:\n    /* \"#utility.yul\":2769:2772   */\n  dup5\n    /* \"#utility.yul\":2762:2823   */\n  mstore\n    /* \"#utility.yul\":2852:2856   */\n  0x20\n    /* \"#utility.yul\":2847:2850   */\n  dup5\n    /* \"#utility.yul\":2843:2857   */\n  add\n    /* \"#utility.yul\":2836:2857   */\n  swap4\n  pop\n    /* \"#utility.yul\":2712:2867   */\n  pop\n    /* \"#utility.yul\":2696:2700   */\n  0x20\n    /* \"#utility.yul\":2691:2694   */\n  dup2\n    /* \"#utility.yul\":2687:2701   */\n  add\n    /* \"#utility.yul\":2680:2701   */\n  swap1\n  pop\n    /* \"#utility.yul\":2636:2867   */\n  jump(tag_90)\ntag_92:\n    /* \"#utility.yul\":2640:2661   */\n  pop\n    /* \"#utility.yul\":2254:2873   */\n  pop\n  pop\n    /* \"#utility.yul\":2141:2873   */\n  swap4\n  swap3\n  pop\n  pop\n  pop\n  jump\t// out\n    /* \"#utility.yul\":2896:3281   */\ntag_46:\n    /* \"#utility.yul\":2978:2983   */\n  0x00\n    /* \"#utility.yul\":3027:3030   */\n  dup3\n    /* \"#utility.yul\":3020:3024   */\n  0x1f\n    /* \"#utility.yul\":3012:3018   */\n  dup4\n    /* \"#utility.yul\":3008:3025   */\n  add\n    /* \"#utility.yul\":3004:3031   */\n  slt\n    /* \"#utility.yul\":2994:3116   */\n  tag_95\n  jumpi\n    /* \"#utility.yul\":3035:3114   */\n  tag_96\n  tag_34\n  jump\t// in\ntag_96:\n    /* \"#utility.yul\":2994:3116   */\ntag_95:\n    /* \"#utility.yul\":3145:3151   */\n  dup2\n    /* \"#utility.yul\":3139:3152   */\n  mload\n    /* \"#utility.yul\":3170:3275   */\n  tag_97\n    /* \"#utility.yul\":3271:3274   */\n  dup5\n    /* \"#utility.yul\":3263:3269   */\n  dup3\n    /* \"#utility.yul\":3256:3260   */\n  0x20\n    /* \"#utility.yul\":3248:3254   */\n  dup7\n    /* \"#utility.yul\":3244:3261   */\n  add\n    /* \"#utility.yul\":3170:3275   */\n  tag_45\n  jump\t// in\ntag_97:\n    /* \"#utility.yul\":3161:3275   */\n  swap2\n  pop\n    /* \"#utility.yul\":2984:3281   */\n  pop\n    /* \"#utility.yul\":2896:3281   */\n  swap3\n  swap2\n  pop\n  pop\n  jump\t// out\n    /* \"#utility.yul\":3287:3364   */\ntag_47:\n    /* \"#utility.yul\":3324:3331   */\n  0x00\n    /* \"#utility.yul\":3353:3358   */\n  dup2\n    /* \"#utility.yul\":3342:3358   */\n  swap1\n  pop\n    /* \"#utility.yul\":3287:3364   */\n  swap2\n  swap1\n  pop\n  jump\t// out\n    /* \"#utility.yul\":3370:3492   */\ntag_48:\n    /* \"#utility.yul\":3443:3467   */\n  tag_100\n    /* \"#utility.yul\":3461:3466   */\n  dup2\n    /* \"#utility.yul\":3443:3467   */\n  tag_47\n  jump\t// in\ntag_100:\n    /* \"#utility.yul\":3436:3441   */\n  dup2\n    /* \"#utility.yul\":3433:3468   */\n  eq\n    /* \"#utility.yul\":3423:3486   */\n  tag_101\n  jumpi\n    /* \"#utility.yul\":3482:3483   */\n  0x00\n    /* \"#utility.yul\":3479:3480   */\n  0x00\n    /* \"#utility.yul\":3472:3484   */\n  revert\n    /* \"#utility.yul\":3423:3486   */\ntag_101:\n    /* \"#utility.yul\":3370:3492   */\n  pop\n  jump\t// out\n    /* \"#utility.yul\":3498:3641   */\ntag_49:\n    /* \"#utility.yul\":3555:3560   */\n  0x00\n    /* \"#utility.yul\":3586:3592   */\n  dup2\n    /* \"#utility.yul\":3580:3593   */\n  mload\n    /* \"#utility.yul\":3571:3593   */\n  swap1\n  pop\n    /* \"#utility.yul\":3602:3635   */\n  tag_103\n    /* \"#utility.yul\":3629:3634   */\n  dup2\n    /* \"#utility.yul\":3602:3635   */\n  tag_48\n  jump\t// in\ntag_103:\n    /* \"#utility.yul\":3498:3641   */\n  swap3\n  swap2\n  pop\n  pop\n  jump\t// out\n    /* \"#utility.yul\":3647:4357   */\ntag_3:\n    /* \"#utility.yul\":3751:3757   */\n  0x00\n    /* \"#utility.yul\":3759:3765   */\n  0x00\n    /* \"#utility.yul\":3808:3810   */\n  0x40\n    /* \"#utility.yul\":3796:3805   */\n  dup4\n    /* \"#utility.yul\":3787:3794   */\n  dup6\n    /* \"#utility.yul\":3783:3806   */\n  sub\n    /* \"#utility.yul\":3779:3811   */\n  slt\n    /* \"#utility.yul\":3776:3895   */\n  iszero\n  tag_105\n  jumpi\n    /* \"#utility.yul\":3814:3893   */\n  tag_106\n  tag_32\n  jump\t// in\ntag_106:\n    /* \"#utility.yul\":3776:3895   */\ntag_105:\n    /* \"#utility.yul\":3955:3956   */\n  0x00\n    /* \"#utility.yul\":3944:3953   */\n  dup4\n    /* \"#utility.yul\":3940:3957   */\n  add\n    /* \"#utility.yul\":3934:3958   */\n  mload\n    /* \"#utility.yul\":3985:4003   */\n  0xffffffffffffffff\n    /* \"#utility.yul\":3977:3983   */\n  dup2\n    /* \"#utility.yul\":3974:4004   */\n  gt\n    /* \"#utility.yul\":3971:4088   */\n  iszero\n  tag_107\n  jumpi\n    /* \"#utility.yul\":4007:4086   */\n  tag_108\n  tag_33\n  jump\t// in\ntag_108:\n    /* \"#utility.yul\":3971:4088   */\ntag_107:\n    /* \"#utility.yul\":4112:4201   */\n  tag_109\n    /* \"#utility.yul\":4193:4200   */\n  dup6\n    /* \"#utility.yul\":4184:4190   */\n  dup3\n    /* \"#utility.yul\":4173:4182   */\n  dup7\n    /* \"#utility.yul\":4169:4191   */\n  add\n    /* \"#utility.yul\":4112:4201   */\n  tag_46\n  jump\t// in\ntag_109:\n    /* \"#utility.yul\":4102:4201   */\n  swap3\n  pop\n    /* \"#utility.yul\":3905:4211   */\n  pop\n    /* \"#utility.yul\":4250:4252   */\n  0x20\n    /* \"#utility.yul\":4276:4340   */\n  tag_110\n    /* \"#utility.yul\":4332:4339   */\n  dup6\n    /* \"#utility.yul\":4323:4329   */\n  dup3\n    /* \"#utility.yul\":4312:4321   */\n  dup7\n    /* \"#utility.yul\":4308:4330   */\n  add\n    /* \"#utility.yul\":4276:4340   */\n  tag_49\n  jump\t// in\ntag_110:\n    /* \"#utility.yul\":4266:4340   */\n  swap2\n  pop\n    /* \"#utility.yul\":4221:4350   */\n  pop\n    /* \"#utility.yul\":3647:4357   */\n  swap3\n  pop\n  swap3\n  swap1\n  pop\n  jump\t// out\n    /* \"#utility.yul\":4363:4532   */\ntag_50:\n    /* \"#utility.yul\":4447:4458   */\n  0x00\n    /* \"#utility.yul\":4481:4487   */\n  dup3\n    /* \"#utility.yul\":4476:4479   */\n  dup3\n    /* \"#utility.yul\":4469:4488   */\n  mstore\n    /* \"#utility.yul\":4521:4525   */\n  0x20\n    /* \"#utility.yul\":4516:4519   */\n  dup3\n    /* \"#utility.yul\":4512:4526   */\n  add\n    /* \"#utility.yul\":4497:4526   */\n  swap1\n  pop\n    /* \"#utility.yul\":4363:4532   */\n  swap3\n  swap2\n  pop\n  pop\n  jump\t// out\n    /* \"#utility.yul\":4538:4695   */\ntag_51:\n    /* \"#utility.yul\":4678:4687   */\n  0x5754463530303000000000000000000000000000000000000000000000000000\n    /* \"#utility.yul\":4674:4675   */\n  0x00\n    /* \"#utility.yul\":4666:4672   */\n  dup3\n    /* \"#utility.yul\":4662:4676   */\n  add\n    /* \"#utility.yul\":4655:4688   */\n  mstore\n    /* \"#utility.yul\":4538:4695   */\n  pop\n  jump\t// out\n    /* \"#utility.yul\":4701:5066   */\ntag_52:\n    /* \"#utility.yul\":4843:4846   */\n  0x00\n    /* \"#utility.yul\":4864:4930   */\n  tag_114\n    /* \"#utility.yul\":4928:4929   */\n  0x07\n    /* \"#utility.yul\":4923:4926   */\n  dup4\n    /* \"#utility.yul\":4864:4930   */\n  tag_50\n  jump\t// in\ntag_114:\n    /* \"#utility.yul\":4857:4930   */\n  swap2\n  pop\n    /* \"#utility.yul\":4939:5032   */\n  tag_115\n    /* \"#utility.yul\":5028:5031   */\n  dup3\n    /* \"#utility.yul\":4939:5032   */\n  tag_51\n  jump\t// in\ntag_115:\n    /* \"#utility.yul\":5057:5059   */\n  0x20\n    /* \"#utility.yul\":5052:5055   */\n  dup3\n    /* \"#utility.yul\":5048:5060   */\n  add\n    /* \"#utility.yul\":5041:5060   */\n  swap1\n  pop\n    /* \"#utility.yul\":4701:5066   */\n  swap2\n  swap1\n  pop\n  jump\t// out\n    /* \"#utility.yul\":5072:5491   */\ntag_12:\n    /* \"#utility.yul\":5238:5242   */\n  0x00\n    /* \"#utility.yul\":5276:5278   */\n  0x20\n    /* \"#utility.yul\":5265:5274   */\n  dup3\n    /* \"#utility.yul\":5261:5279   */\n  add\n    /* \"#utility.yul\":5253:5279   */\n  swap1\n  pop\n    /* \"#utility.yul\":5325:5334   */\n  dup2\n    /* \"#utility.yul\":5319:5323   */\n  dup2\n    /* \"#utility.yul\":5315:5335   */\n  sub\n    /* \"#utility.yul\":5311:5312   */\n  0x00\n    /* \"#utility.yul\":5300:5309   */\n  dup4\n    /* \"#utility.yul\":5296:5313   */\n  add\n    /* \"#utility.yul\":5289:5336   */\n  mstore\n    /* \"#utility.yul\":5353:5484   */\n  tag_117\n    /* \"#utility.yul\":5479:5483   */\n  dup2\n    /* \"#utility.yul\":5353:5484   */\n  tag_52\n  jump\t// in\ntag_117:\n    /* \"#utility.yul\":5345:5484   */\n  swap1\n  pop\n    /* \"#utility.yul\":5072:5491   */\n  swap2\n  swap1\n  pop\n  jump\t// out\n    /* \"#utility.yul\":5497:5654   */\ntag_53:\n    /* \"#utility.yul\":5637:5646   */\n  0x5754463530303100000000000000000000000000000000000000000000000000\n    /* \"#utility.yul\":5633:5634   */\n  0x00\n    /* \"#utility.yul\":5625:5631   */\n  dup3\n    /* \"#utility.yul\":5621:5635   */\n  add\n    /* \"#utility.yul\":5614:5647   */\n  mstore\n    /* \"#utility.yul\":5497:5654   */\n  pop\n  jump\t// out\n    /* \"#utility.yul\":5660:6025   */\ntag_54:\n    /* \"#utility.yul\":5802:5805   */\n  0x00\n    /* \"#utility.yul\":5823:5889   */\n  tag_120\n    /* \"#utility.yul\":5887:5888   */\n  0x07\n    /* \"#utility.yul\":5882:5885   */\n  dup4\n    /* \"#utility.yul\":5823:5889   */\n  tag_50\n  jump\t// in\ntag_120:\n    /* \"#utility.yul\":5816:5889   */\n  swap2\n  pop\n    /* \"#utility.yul\":5898:5991   */\n  tag_121\n    /* \"#utility.yul\":5987:5990   */\n  dup3\n    /* \"#utility.yul\":5898:5991   */\n  tag_53\n  jump\t// in\ntag_121:\n    /* \"#utility.yul\":6016:6018   */\n  0x20\n    /* \"#utility.yul\":6011:6014   */\n  dup3\n    /* \"#utility.yul\":6007:6019   */\n  add\n    /* \"#utility.yul\":6000:6019   */\n  swap1\n  pop\n    /* \"#utility.yul\":5660:6025   */\n  swap2\n  swap1\n  pop\n  jump\t// out\n    /* \"#utility.yul\":6031:6450   */\ntag_15:\n    /* \"#utility.yul\":6197:6201   */\n  0x00\n    /* \"#utility.yul\":6235:6237   */\n  0x20\n    /* \"#utility.yul\":6224:6233   */\n  dup3\n    /* \"#utility.yul\":6220:6238   */\n  add\n    /* \"#utility.yul\":6212:6238   */\n  swap1\n  pop\n    /* \"#utility.yul\":6284:6293   */\n  dup2\n    /* \"#utility.yul\":6278:6282   */\n  dup2\n    /* \"#utility.yul\":6274:6294   */\n  sub\n    /* \"#utility.yul\":6270:6271   */\n  0x00\n    /* \"#utility.yul\":6259:6268   */\n  dup4\n    /* \"#utility.yul\":6255:6272   */\n  add\n    /* \"#utility.yul\":6248:6295   */\n  mstore\n    /* \"#utility.yul\":6312:6443   */\n  tag_123\n    /* \"#utility.yul\":6438:6442   */\n  dup2\n    /* \"#utility.yul\":6312:6443   */\n  tag_54\n  jump\t// in\ntag_123:\n    /* \"#utility.yul\":6304:6443   */\n  swap1\n  pop\n    /* \"#utility.yul\":6031:6450   */\n  swap2\n  swap1\n  pop\n  jump\t// out\n    /* \"#utility.yul\":6456:6613   */\ntag_55:\n    /* \"#utility.yul\":6596:6605   */\n  0x5754463530303200000000000000000000000000000000000000000000000000\n    /* \"#utility.yul\":6592:6593   */\n  0x00\n    /* \"#utility.yul\":6584:6590   */\n  dup3\n    /* \"#utility.yul\":6580:6594   */\n  add\n    /* \"#utility.yul\":6573:6606   */\n  mstore\n    /* \"#utility.yul\":6456:6613   */\n  pop\n  jump\t// out\n    /* \"#utility.yul\":6619:6984   */\ntag_56:\n    /* \"#utility.yul\":6761:6764   */\n  0x00\n    /* \"#utility.yul\":6782:6848   */\n  tag_126\n    /* \"#utility.yul\":6846:6847   */\n  0x07\n    /* \"#utility.yul\":6841:6844   */\n  dup4\n    /* \"#utility.yul\":6782:6848   */\n  tag_50\n  jump\t// in\ntag_126:\n    /* \"#utility.yul\":6775:6848   */\n  swap2\n  pop\n    /* \"#utility.yul\":6857:6950   */\n  tag_127\n    /* \"#utility.yul\":6946:6949   */\n  dup3\n    /* \"#utility.yul\":6857:6950   */\n  tag_55\n  jump\t// in\ntag_127:\n    /* \"#utility.yul\":6975:6977   */\n  0x20\n    /* \"#utility.yul\":6970:6973   */\n  dup3\n    /* \"#utility.yul\":6966:6978   */\n  add\n    /* \"#utility.yul\":6959:6978   */\n  swap1\n  pop\n    /* \"#utility.yul\":6619:6984   */\n  swap2\n  swap1\n  pop\n  jump\t// out\n    /* \"#utility.yul\":6990:7409   */\ntag_18:\n    /* \"#utility.yul\":7156:7160   */\n  0x00\n    /* \"#utility.yul\":7194:7196   */\n  0x20\n    /* \"#utility.yul\":7183:7192   */\n  dup3\n    /* \"#utility.yul\":7179:7197   */\n  add\n    /* \"#utility.yul\":7171:7197   */\n  swap1\n  pop\n    /* \"#utility.yul\":7243:7252   */\n  dup2\n    /* \"#utility.yul\":7237:7241   */\n  dup2\n    /* \"#utility.yul\":7233:7253   */\n  sub\n    /* \"#utility.yul\":7229:7230   */\n  0x00\n    /* \"#utility.yul\":7218:7227   */\n  dup4\n    /* \"#utility.yul\":7214:7231   */\n  add\n    /* \"#utility.yul\":7207:7254   */\n  mstore\n    /* \"#utility.yul\":7271:7402   */\n  tag_129\n    /* \"#utility.yul\":7397:7401   */\n  dup2\n    /* \"#utility.yul\":7271:7402   */\n  tag_56\n  jump\t// in\ntag_129:\n    /* \"#utility.yul\":7263:7402   */\n  swap1\n  pop\n    /* \"#utility.yul\":6990:7409   */\n  swap2\n  swap1\n  pop\n  jump\t// out\n    /* \"#utility.yul\":7415:7595   */\ntag_24:\n    /* \"#utility.yul\":7463:7540   */\n  0x4e487b7100000000000000000000000000000000000000000000000000000000\n    /* \"#utility.yul\":7460:7461   */\n  0x00\n    /* \"#utility.yul\":7453:7541   */\n  mstore\n    /* \"#utility.yul\":7560:7564   */\n  0x32\n    /* \"#utility.yul\":7557:7558   */\n  0x04\n    /* \"#utility.yul\":7550:7565   */\n  mstore\n    /* \"#utility.yul\":7584:7588   */\n  0x24\n    /* \"#utility.yul\":7581:7582   */\n  0x00\n    /* \"#utility.yul\":7574:7589   */\n  revert\n    /* \"#utility.yul\":7601:7758   */\ntag_57:\n    /* \"#utility.yul\":7741:7750   */\n  0x5754463530303300000000000000000000000000000000000000000000000000\n    /* \"#utility.yul\":7737:7738   */\n  0x00\n    /* \"#utility.yul\":7729:7735   */\n  dup3\n    /* \"#utility.yul\":7725:7739   */\n  add\n    /* \"#utility.yul\":7718:7751   */\n  mstore\n    /* \"#utility.yul\":7601:7758   */\n  pop\n  jump\t// out\n    /* \"#utility.yul\":7764:8129   */\ntag_58:\n    /* \"#utility.yul\":7906:7909   */\n  0x00\n    /* \"#utility.yul\":7927:7993   */\n  tag_133\n    /* \"#utility.yul\":7991:7992   */\n  0x07\n    /* \"#utility.yul\":7986:7989   */\n  dup4\n    /* \"#utility.yul\":7927:7993   */\n  tag_50\n  jump\t// in\ntag_133:\n    /* \"#utility.yul\":7920:7993   */\n  swap2\n  pop\n    /* \"#utility.yul\":8002:8095   */\n  tag_134\n    /* \"#utility.yul\":8091:8094   */\n  dup3\n    /* \"#utility.yul\":8002:8095   */\n  tag_57\n  jump\t// in\ntag_134:\n    /* \"#utility.yul\":8120:8122   */\n  0x20\n    /* \"#utility.yul\":8115:8118   */\n  dup3\n    /* \"#utility.yul\":8111:8123   */\n  add\n    /* \"#utility.yul\":8104:8123   */\n  swap1\n  pop\n    /* \"#utility.yul\":7764:8129   */\n  swap2\n  swap1\n  pop\n  jump\t// out\n    /* \"#utility.yul\":8135:8554   */\ntag_29:\n    /* \"#utility.yul\":8301:8305   */\n  0x00\n    /* \"#utility.yul\":8339:8341   */\n  0x20\n    /* \"#utility.yul\":8328:8337   */\n  dup3\n    /* \"#utility.yul\":8324:8342   */\n  add\n    /* \"#utility.yul\":8316:8342   */\n  swap1\n  pop\n    /* \"#utility.yul\":8388:8397   */\n  dup2\n    /* \"#utility.yul\":8382:8386   */\n  dup2\n    /* \"#utility.yul\":8378:8398   */\n  sub\n    /* \"#utility.yul\":8374:8375   */\n  0x00\n    /* \"#utility.yul\":8363:8372   */\n  dup4\n    /* \"#utility.yul\":8359:8376   */\n  add\n    /* \"#utility.yul\":8352:8399   */\n  mstore\n    /* \"#utility.yul\":8416:8547   */\n  tag_136\n    /* \"#utility.yul\":8542:8546   */\n  dup2\n    /* \"#utility.yul\":8416:8547   */\n  tag_58\n  jump\t// in\ntag_136:\n    /* \"#utility.yul\":8408:8547   */\n  swap1\n  pop\n    /* \"#utility.yul\":8135:8554   */\n  swap2\n  swap1\n  pop\n  jump\t// out\n    /* \"contracts/MultisigWallet.sol\":60:8572  contract MultisigWallet{... */\ntag_8:\n  dataSize(sub_0)\n  dup1\n  dataOffset(sub_0)\n  0x00\n  codecopy\n  0x00\n  return\nstop\n\nsub_0: assembly {\n        /* \"contracts/MultisigWallet.sol\":60:8572  contract MultisigWallet{... */\n      mstore(0x40, 0x80)\n      jumpi(tag_1, lt(calldatasize, 0x04))\n      shr(0xe0, calldataload(0x00))\n      dup1\n      0xa67dd509\n      gt\n      tag_11\n      jumpi\n      dup1\n      0xa67dd509\n      eq\n      tag_7\n      jumpi\n      dup1\n      0xaffed0e0\n      eq\n      tag_8\n      jumpi\n      dup1\n      0xd01aa318\n      eq\n      tag_9\n      jumpi\n      dup1\n      0xed516d51\n      eq\n      tag_10\n      jumpi\n      jump(tag_2)\n    tag_11:\n      dup1\n      0x025e7c27\n      eq\n      tag_3\n      jumpi\n      dup1\n      0x0db02622\n      eq\n      tag_4\n      jumpi\n      dup1\n      0x2f54bf6e\n      eq\n      tag_5\n      jumpi\n      dup1\n      0x42cde4e8\n      eq\n      tag_6\n      jumpi\n      jump(tag_2)\n    tag_1:\n      jumpi(tag_2, calldatasize)\n      stop\n    tag_2:\n      revert(0x00, 0x00)\n        /* \"contracts/MultisigWallet.sol\":300:323  address[] public owners */\n    tag_3:\n      callvalue\n      dup1\n      iszero\n      tag_14\n      jumpi\n      revert(0x00, 0x00)\n    tag_14:\n      pop\n      tag_15\n      0x04\n      dup1\n      calldatasize\n      sub\n      dup2\n      add\n      swap1\n      tag_16\n      swap2\n      swap1\n      tag_17\n      jump\t// in\n    tag_16:\n      tag_18\n      jump\t// in\n    tag_15:\n      mload(0x40)\n      tag_19\n      swap2\n      swap1\n      tag_20\n      jump\t// in\n    tag_19:\n      mload(0x40)\n      dup1\n      swap2\n      sub\n      swap1\n      return\n        /* \"contracts/MultisigWallet.sol\":442:467  uint256 public ownerCount */\n    tag_4:\n      callvalue\n      dup1\n      iszero\n      tag_21\n      jumpi\n      revert(0x00, 0x00)\n    tag_21:\n      pop\n      tag_22\n      tag_23\n      jump\t// in\n    tag_22:\n      mload(0x40)\n      tag_24\n      swap2\n      swap1\n      tag_25\n      jump\t// in\n    tag_24:\n      mload(0x40)\n      dup1\n      swap2\n      sub\n      swap1\n      return\n        /* \"contracts/MultisigWallet.sol\":353:390  mapping(address=>bool) public isOwner */\n    tag_5:\n      callvalue\n      dup1\n      iszero\n      tag_26\n      jumpi\n      revert(0x00, 0x00)\n    tag_26:\n      pop\n      tag_27\n      0x04\n      dup1\n      calldatasize\n      sub\n      dup2\n      add\n      swap1\n      tag_28\n      swap2\n      swap1\n      tag_29\n      jump\t// in\n    tag_28:\n      tag_30\n      jump\t// in\n    tag_27:\n      mload(0x40)\n      tag_31\n      swap2\n      swap1\n      tag_32\n      jump\t// in\n    tag_31:\n      mload(0x40)\n      dup1\n      swap2\n      sub\n      swap1\n      return\n        /* \"contracts/MultisigWallet.sol\":497:521  uint256 public threshold */\n    tag_6:\n      callvalue\n      dup1\n      iszero\n      tag_33\n      jumpi\n      revert(0x00, 0x00)\n    tag_33:\n      pop\n      tag_34\n      tag_35\n      jump\t// in\n    tag_34:\n      mload(0x40)\n      tag_36\n      swap2\n      swap1\n      tag_25\n      jump\t// in\n    tag_36:\n      mload(0x40)\n      dup1\n      swap2\n      sub\n      swap1\n      return\n        /* \"contracts/MultisigWallet.sol\":3323:4082  function encodeTransactionData(... */\n    tag_7:\n      callvalue\n      dup1\n      iszero\n      tag_37\n      jumpi\n      revert(0x00, 0x00)\n    tag_37:\n      pop\n      tag_38\n      0x04\n      dup1\n      calldatasize\n      sub\n      dup2\n      add\n      swap1\n      tag_39\n      swap2\n      swap1\n      tag_40\n      jump\t// in\n    tag_39:\n      tag_41\n      jump\t// in\n    tag_38:\n      mload(0x40)\n      tag_42\n      swap2\n      swap1\n      tag_43\n      jump\t// in\n    tag_42:\n      mload(0x40)\n      dup1\n      swap2\n      sub\n      swap1\n      return\n        /* \"contracts/MultisigWallet.sol\":594:614  uint256 public nonce */\n    tag_8:\n      callvalue\n      dup1\n      iszero\n      tag_44\n      jumpi\n      revert(0x00, 0x00)\n    tag_44:\n      pop\n      tag_45\n      tag_46\n      jump\t// in\n    tag_45:\n      mload(0x40)\n      tag_47\n      swap2\n      swap1\n      tag_25\n      jump\t// in\n    tag_47:\n      mload(0x40)\n      dup1\n      swap2\n      sub\n      swap1\n      return\n        /* \"contracts/MultisigWallet.sol\":2390:3058  function execTransaction(... */\n    tag_9:\n      tag_48\n      0x04\n      dup1\n      calldatasize\n      sub\n      dup2\n      add\n      swap1\n      tag_49\n      swap2\n      swap1\n      tag_50\n      jump\t// in\n    tag_49:\n      tag_51\n      jump\t// in\n    tag_48:\n      mload(0x40)\n      tag_52\n      swap2\n      swap1\n      tag_32\n      jump\t// in\n    tag_52:\n      mload(0x40)\n      dup1\n      swap2\n      sub\n      swap1\n      return\n        /* \"contracts/MultisigWallet.sol\":4297:6481  function checkSignatures(bytes32 dataHash,bytes memory signatures) public view{... */\n    tag_10:\n      callvalue\n      dup1\n      iszero\n      tag_53\n      jumpi\n      revert(0x00, 0x00)\n    tag_53:\n      pop\n      tag_54\n      0x04\n      dup1\n      calldatasize\n      sub\n      dup2\n      add\n      swap1\n      tag_55\n      swap2\n      swap1\n      tag_56\n      jump\t// in\n    tag_55:\n      tag_57\n      jump\t// in\n    tag_54:\n      stop\n        /* \"contracts/MultisigWallet.sol\":300:323  address[] public owners */\n    tag_18:\n      0x00\n      dup2\n      dup2\n      sload\n      dup2\n      lt\n      tag_58\n      jumpi\n      0x00\n      dup1\n      revert\n    tag_58:\n      swap1\n      0x00\n      mstore\n      keccak256(0x00, 0x20)\n      add\n      0x00\n      swap2\n      pop\n      sload\n      swap1\n      0x0100\n      exp\n      swap1\n      div\n      0xffffffffffffffffffffffffffffffffffffffff\n      and\n      dup2\n      jump\t// out\n        /* \"contracts/MultisigWallet.sol\":442:467  uint256 public ownerCount */\n    tag_23:\n      sload(0x02)\n      dup2\n      jump\t// out\n        /* \"contracts/MultisigWallet.sol\":353:390  mapping(address=>bool) public isOwner */\n    tag_30:\n      mstore(0x20, 0x01)\n      dup1\n      0x00\n      mstore\n      keccak256(0x00, 0x40)\n      0x00\n      swap2\n      pop\n      sload\n      swap1\n      0x0100\n      exp\n      swap1\n      div\n      0xff\n      and\n      dup2\n      jump\t// out\n        /* \"contracts/MultisigWallet.sol\":497:521  uint256 public threshold */\n    tag_35:\n      sload(0x03)\n      dup2\n      jump\t// out\n        /* \"contracts/MultisigWallet.sol\":3323:4082  function encodeTransactionData(... */\n    tag_41:\n        /* \"contracts/MultisigWallet.sol\":3499:3506  bytes32 */\n      0x00\n        /* \"contracts/MultisigWallet.sol\":3786:3804  bytes32 safeTxHash */\n      0x00\n        /* \"contracts/MultisigWallet.sol\":3881:3883  to */\n      dup7\n        /* \"contracts/MultisigWallet.sol\":3906:3911  value */\n      dup7\n        /* \"contracts/MultisigWallet.sol\":3944:3948  data */\n      dup7\n        /* \"contracts/MultisigWallet.sol\":3934:3949  keccak256(data) */\n      dup1\n      mload\n      swap1\n      0x20\n      add\n      keccak256\n        /* \"contracts/MultisigWallet.sol\":3972:3978  _nonce */\n      dup7\n        /* \"contracts/MultisigWallet.sol\":4001:4008  chainid */\n      dup7\n        /* \"contracts/MultisigWallet.sol\":3848:4031  abi.encode(... */\n      add(0x20, mload(0x40))\n      tag_61\n      swap6\n      swap5\n      swap4\n      swap3\n      swap2\n      swap1\n      tag_62\n      jump\t// in\n    tag_61:\n      mload(0x40)\n      0x20\n      dup2\n      dup4\n      sub\n      sub\n      dup2\n      mstore\n      swap1\n      0x40\n      mstore\n        /* \"contracts/MultisigWallet.sol\":3820:4046  keccak256(... */\n      dup1\n      mload\n      swap1\n      0x20\n      add\n      keccak256\n        /* \"contracts/MultisigWallet.sol\":3786:4046  bytes32 safeTxHash =... */\n      swap1\n      pop\n        /* \"contracts/MultisigWallet.sol\":4064:4074  safeTxHash */\n      dup1\n        /* \"contracts/MultisigWallet.sol\":4057:4074  return safeTxHash */\n      swap2\n      pop\n      pop\n        /* \"contracts/MultisigWallet.sol\":3323:4082  function encodeTransactionData(... */\n      swap6\n      swap5\n      pop\n      pop\n      pop\n      pop\n      pop\n      jump\t// out\n        /* \"contracts/MultisigWallet.sol\":594:614  uint256 public nonce */\n    tag_46:\n      sload(0x04)\n      dup2\n      jump\t// out\n        /* \"contracts/MultisigWallet.sol\":2390:3058  function execTransaction(... */\n    tag_51:\n        /* \"contracts/MultisigWallet.sol\":2561:2573  bool success */\n      0x00\n        /* \"contracts/MultisigWallet.sol\":2631:2645  bytes32 txHash */\n      0x00\n        /* \"contracts/MultisigWallet.sol\":2648:2708  encodeTransactionData(to, value, data, nonce, block.chainid) */\n      tag_64\n        /* \"contracts/MultisigWallet.sol\":2670:2672  to */\n      dup7\n        /* \"contracts/MultisigWallet.sol\":2674:2679  value */\n      dup7\n        /* \"contracts/MultisigWallet.sol\":2681:2685  data */\n      dup7\n        /* \"contracts/MultisigWallet.sol\":2687:2692  nonce */\n      sload(0x04)\n        /* \"contracts/MultisigWallet.sol\":2694:2707  block.chainid */\n      chainid\n        /* \"contracts/MultisigWallet.sol\":2648:2669  encodeTransactionData */\n      tag_41\n        /* \"contracts/MultisigWallet.sol\":2648:2708  encodeTransactionData(to, value, data, nonce, block.chainid) */\n      jump\t// in\n    tag_64:\n        /* \"contracts/MultisigWallet.sol\":2631:2708  bytes32 txHash = encodeTransactionData(to, value, data, nonce, block.chainid) */\n      swap1\n      pop\n        /* \"contracts/MultisigWallet.sol\":2719:2724  nonce */\n      0x04\n      0x00\n        /* \"contracts/MultisigWallet.sol\":2719:2726  nonce++ */\n      dup2\n      sload\n      dup1\n      swap3\n      swap2\n      swap1\n      tag_65\n      swap1\n      tag_66\n      jump\t// in\n    tag_65:\n      swap2\n      swap1\n      pop\n      sstore\n      pop\n        /* \"contracts/MultisigWallet.sol\":2751:2786  checkSignatures(txHash, signatures) */\n      tag_67\n        /* \"contracts/MultisigWallet.sol\":2767:2773  txHash */\n      dup2\n        /* \"contracts/MultisigWallet.sol\":2775:2785  signatures */\n      dup5\n        /* \"contracts/MultisigWallet.sol\":2751:2766  checkSignatures */\n      tag_57\n        /* \"contracts/MultisigWallet.sol\":2751:2786  checkSignatures(txHash, signatures) */\n      jump\t// in\n    tag_67:\n        /* \"contracts/MultisigWallet.sol\":2884:2886  to */\n      dup6\n        /* \"contracts/MultisigWallet.sol\":2884:2891  to.call */\n      0xffffffffffffffffffffffffffffffffffffffff\n      and\n        /* \"contracts/MultisigWallet.sol\":2899:2904  value */\n      dup6\n        /* \"contracts/MultisigWallet.sol\":2906:2910  data */\n      dup6\n        /* \"contracts/MultisigWallet.sol\":2884:2911  to.call{value: value}(data) */\n      mload(0x40)\n      tag_68\n      swap2\n      swap1\n      tag_69\n      jump\t// in\n    tag_68:\n      0x00\n      mload(0x40)\n      dup1\n      dup4\n      sub\n      dup2\n      dup6\n      dup8\n      gas\n      call\n      swap3\n      pop\n      pop\n      pop\n      returndatasize\n      dup1\n      0x00\n      dup2\n      eq\n      tag_72\n      jumpi\n      mload(0x40)\n      swap2\n      pop\n      and(add(returndatasize, 0x3f), not(0x1f))\n      dup3\n      add\n      0x40\n      mstore\n      returndatasize\n      dup3\n      mstore\n      returndatasize\n      0x00\n      0x20\n      dup5\n      add\n      returndatacopy\n      jump(tag_71)\n    tag_72:\n      0x60\n      swap2\n      pop\n    tag_71:\n      pop\n        /* \"contracts/MultisigWallet.sol\":2870:2911  (success, ) = to.call{value: value}(data) */\n      pop\n      dup1\n      swap3\n      pop\n      pop\n        /* \"contracts/MultisigWallet.sol\":2930:2937  success */\n      dup2\n        /* \"contracts/MultisigWallet.sol\":2922:2950  require(success , \"WTF5004\") */\n      tag_73\n      jumpi\n      mload(0x40)\n      0x08c379a000000000000000000000000000000000000000000000000000000000\n      dup2\n      mstore\n      0x04\n      add\n      tag_74\n      swap1\n      tag_75\n      jump\t// in\n    tag_74:\n      mload(0x40)\n      dup1\n      swap2\n      sub\n      swap1\n      revert\n    tag_73:\n        /* \"contracts/MultisigWallet.sol\":2966:2973  success */\n      dup2\n        /* \"contracts/MultisigWallet.sol\":2962:3050  if (success) emit ExecutionSuccess(txHash);... */\n      iszero\n      tag_76\n      jumpi\n        /* \"contracts/MultisigWallet.sol\":2980:3004  ExecutionSuccess(txHash) */\n      0xdc29884a71d2bb98d3c53dc09718be05c7bfd142b7773a5c5cf2517629290ac0\n        /* \"contracts/MultisigWallet.sol\":2997:3003  txHash */\n      dup2\n        /* \"contracts/MultisigWallet.sol\":2980:3004  ExecutionSuccess(txHash) */\n      mload(0x40)\n      tag_77\n      swap2\n      swap1\n      tag_43\n      jump\t// in\n    tag_77:\n      mload(0x40)\n      dup1\n      swap2\n      sub\n      swap1\n      log1\n        /* \"contracts/MultisigWallet.sol\":2962:3050  if (success) emit ExecutionSuccess(txHash);... */\n      jump(tag_78)\n    tag_76:\n        /* \"contracts/MultisigWallet.sol\":3026:3050  ExecutionFailure(txHash) */\n      0xdbe42d02a4e07d7eeff2874efe172540c93b297d206f6d691c9782a257323e32\n        /* \"contracts/MultisigWallet.sol\":3043:3049  txHash */\n      dup2\n        /* \"contracts/MultisigWallet.sol\":3026:3050  ExecutionFailure(txHash) */\n      mload(0x40)\n      tag_79\n      swap2\n      swap1\n      tag_43\n      jump\t// in\n    tag_79:\n      mload(0x40)\n      dup1\n      swap2\n      sub\n      swap1\n      log1\n        /* \"contracts/MultisigWallet.sol\":2962:3050  if (success) emit ExecutionSuccess(txHash);... */\n    tag_78:\n        /* \"contracts/MultisigWallet.sol\":2574:3058  {... */\n      pop\n        /* \"contracts/MultisigWallet.sol\":2390:3058  function execTransaction(... */\n      swap5\n      swap4\n      pop\n      pop\n      pop\n      pop\n      jump\t// out\n        /* \"contracts/MultisigWallet.sol\":4297:6481  function checkSignatures(bytes32 dataHash,bytes memory signatures) public view{... */\n    tag_57:\n        /* \"contracts/MultisigWallet.sol\":4422:4440  uint256 _threshold */\n      0x00\n        /* \"contracts/MultisigWallet.sol\":4443:4452  threshold */\n      sload(0x03)\n        /* \"contracts/MultisigWallet.sol\":4422:4452  uint256 _threshold = threshold */\n      swap1\n      pop\n        /* \"contracts/MultisigWallet.sol\":4484:4485  0 */\n      0x00\n        /* \"contracts/MultisigWallet.sol\":4471:4481  _threshold */\n      dup2\n        /* \"contracts/MultisigWallet.sol\":4471:4485  _threshold > 0 */\n      gt\n        /* \"contracts/MultisigWallet.sol\":4463:4497  require(_threshold > 0, \"WTF5005\") */\n      tag_81\n      jumpi\n      mload(0x40)\n      0x08c379a000000000000000000000000000000000000000000000000000000000\n      dup2\n      mstore\n      0x04\n      add\n      tag_82\n      swap1\n      tag_83\n      jump\t// in\n    tag_82:\n      mload(0x40)\n      dup1\n      swap2\n      sub\n      swap1\n      revert\n    tag_81:\n        /* \"contracts/MultisigWallet.sol\":4592:4594  65 */\n      0x41\n        /* \"contracts/MultisigWallet.sol\":4579:4589  _threshold */\n      dup2\n        /* \"contracts/MultisigWallet.sol\":4579:4594  _threshold * 65 */\n      tag_84\n      swap2\n      swap1\n      tag_85\n      jump\t// in\n    tag_84:\n        /* \"contracts/MultisigWallet.sol\":4558:4568  signatures */\n      dup3\n        /* \"contracts/MultisigWallet.sol\":4558:4575  signatures.length */\n      mload\n        /* \"contracts/MultisigWallet.sol\":4558:4594  signatures.length >= _threshold * 65 */\n      lt\n      iszero\n        /* \"contracts/MultisigWallet.sol\":4550:4606  require(signatures.length >= _threshold * 65, \"WTF5006\") */\n      tag_86\n      jumpi\n      mload(0x40)\n      0x08c379a000000000000000000000000000000000000000000000000000000000\n      dup2\n      mstore\n      0x04\n      add\n      tag_87\n      swap1\n      tag_88\n      jump\t// in\n    tag_87:\n      mload(0x40)\n      dup1\n      swap2\n      sub\n      swap1\n      revert\n    tag_86:\n        /* \"contracts/MultisigWallet.sol\":4964:4981  address lastOwner */\n      0x00\n        /* \"contracts/MultisigWallet.sol\":4992:4993  0 */\n      0x00\n        /* \"contracts/MultisigWallet.sol\":4964:4994  address lastOwner = address(0) */\n      swap1\n      pop\n        /* \"contracts/MultisigWallet.sol\":5010:5030  address currentOwner */\n      0x00\n        /* \"contracts/MultisigWallet.sol\":5045:5052  uint8 v */\n      0x00\n        /* \"contracts/MultisigWallet.sol\":5067:5076  bytes32 r */\n      0x00\n        /* \"contracts/MultisigWallet.sol\":5091:5100  bytes32 s */\n      0x00\n        /* \"contracts/MultisigWallet.sol\":5115:5124  uint256 i */\n      0x00\n        /* \"contracts/MultisigWallet.sol\":5149:5150  0 */\n      0x00\n        /* \"contracts/MultisigWallet.sol\":5145:5150  i = 0 */\n      swap1\n      pop\n        /* \"contracts/MultisigWallet.sol\":5140:6472  for (i = 0; i < _threshold; i++) {... */\n    tag_89:\n        /* \"contracts/MultisigWallet.sol\":5156:5166  _threshold */\n      dup7\n        /* \"contracts/MultisigWallet.sol\":5152:5153  i */\n      dup2\n        /* \"contracts/MultisigWallet.sol\":5152:5166  i < _threshold */\n      lt\n        /* \"contracts/MultisigWallet.sol\":5140:6472  for (i = 0; i < _threshold; i++) {... */\n      iszero\n      tag_90\n      jumpi\n        /* \"contracts/MultisigWallet.sol\":5204:5233  signatureSplit(signatures, i) */\n      tag_92\n        /* \"contracts/MultisigWallet.sol\":5219:5229  signatures */\n      dup9\n        /* \"contracts/MultisigWallet.sol\":5231:5232  i */\n      dup3\n        /* \"contracts/MultisigWallet.sol\":5204:5218  signatureSplit */\n      tag_93\n        /* \"contracts/MultisigWallet.sol\":5204:5233  signatureSplit(signatures, i) */\n      jump\t// in\n    tag_92:\n        /* \"contracts/MultisigWallet.sol\":5192:5233  (v, r, s) = signatureSplit(signatures, i) */\n      dup1\n      swap5\n      pop\n      dup2\n      swap6\n      pop\n      dup3\n      swap7\n      pop\n      pop\n      pop\n      pop\n        /* \"contracts/MultisigWallet.sol\":6228:6321  ecrecover(keccak256(abi.encodePacked(\"\\x19Ethereum Signed Message:\\n32\", dataHash)), v, r, s) */\n      0x01\n        /* \"contracts/MultisigWallet.sol\":6301:6309  dataHash */\n      dup10\n        /* \"contracts/MultisigWallet.sol\":6248:6310  abi.encodePacked(\"\\x19Ethereum Signed Message:\\n32\", dataHash) */\n      add(0x20, mload(0x40))\n      tag_94\n      swap2\n      swap1\n      tag_95\n      jump\t// in\n    tag_94:\n      mload(0x40)\n      0x20\n      dup2\n      dup4\n      sub\n      sub\n      dup2\n      mstore\n      swap1\n      0x40\n      mstore\n        /* \"contracts/MultisigWallet.sol\":6238:6311  keccak256(abi.encodePacked(\"\\x19Ethereum Signed Message:\\n32\", dataHash)) */\n      dup1\n      mload\n      swap1\n      0x20\n      add\n      keccak256\n        /* \"contracts/MultisigWallet.sol\":6313:6314  v */\n      dup6\n        /* \"contracts/MultisigWallet.sol\":6316:6317  r */\n      dup6\n        /* \"contracts/MultisigWallet.sol\":6319:6320  s */\n      dup6\n        /* \"contracts/MultisigWallet.sol\":6228:6321  ecrecover(keccak256(abi.encodePacked(\"\\x19Ethereum Signed Message:\\n32\", dataHash)), v, r, s) */\n      mload(0x40)\n      0x00\n      dup2\n      mstore\n      0x20\n      add\n      0x40\n      mstore\n      mload(0x40)\n      tag_96\n      swap5\n      swap4\n      swap3\n      swap2\n      swap1\n      tag_97\n      jump\t// in\n    tag_96:\n      0x20\n      mload(0x40)\n      0x20\n      dup2\n      sub\n      swap1\n      dup1\n      dup5\n      sub\n      swap1\n      dup6\n      gas\n      staticcall\n      iszero\n      dup1\n      iszero\n      tag_99\n      jumpi\n      returndatacopy(0x00, 0x00, returndatasize)\n      revert(0x00, returndatasize)\n    tag_99:\n      pop\n      pop\n      pop\n      mload(sub(mload(0x40), 0x20))\n        /* \"contracts/MultisigWallet.sol\":6213:6321  currentOwner = ecrecover(keccak256(abi.encodePacked(\"\\x19Ethereum Signed Message:\\n32\", dataHash)), v, r, s) */\n      swap5\n      pop\n        /* \"contracts/MultisigWallet.sol\":6364:6373  lastOwner */\n      dup6\n        /* \"contracts/MultisigWallet.sol\":6349:6373  currentOwner > lastOwner */\n      0xffffffffffffffffffffffffffffffffffffffff\n      and\n        /* \"contracts/MultisigWallet.sol\":6349:6361  currentOwner */\n      dup6\n        /* \"contracts/MultisigWallet.sol\":6349:6373  currentOwner > lastOwner */\n      0xffffffffffffffffffffffffffffffffffffffff\n      and\n      gt\n        /* \"contracts/MultisigWallet.sol\":6349:6398  currentOwner > lastOwner && isOwner[currentOwner] */\n      dup1\n      iszero\n      tag_100\n      jumpi\n      pop\n        /* \"contracts/MultisigWallet.sol\":6377:6384  isOwner */\n      0x01\n        /* \"contracts/MultisigWallet.sol\":6377:6398  isOwner[currentOwner] */\n      0x00\n        /* \"contracts/MultisigWallet.sol\":6385:6397  currentOwner */\n      dup7\n        /* \"contracts/MultisigWallet.sol\":6377:6398  isOwner[currentOwner] */\n      0xffffffffffffffffffffffffffffffffffffffff\n      and\n      0xffffffffffffffffffffffffffffffffffffffff\n      and\n      dup2\n      mstore\n      0x20\n      add\n      swap1\n      dup2\n      mstore\n      0x20\n      add\n      0x00\n      keccak256\n      0x00\n      swap1\n      sload\n      swap1\n      0x0100\n      exp\n      swap1\n      div\n      0xff\n      and\n        /* \"contracts/MultisigWallet.sol\":6349:6398  currentOwner > lastOwner && isOwner[currentOwner] */\n    tag_100:\n        /* \"contracts/MultisigWallet.sol\":6341:6410  require(currentOwner > lastOwner && isOwner[currentOwner], \"WTF5007\") */\n      tag_101\n      jumpi\n      mload(0x40)\n      0x08c379a000000000000000000000000000000000000000000000000000000000\n      dup2\n      mstore\n      0x04\n      add\n      tag_102\n      swap1\n      tag_103\n      jump\t// in\n    tag_102:\n      mload(0x40)\n      dup1\n      swap2\n      sub\n      swap1\n      revert\n    tag_101:\n        /* \"contracts/MultisigWallet.sol\":6443:6455  currentOwner */\n      dup5\n        /* \"contracts/MultisigWallet.sol\":6431:6455  lastOwner = currentOwner */\n      swap6\n      pop\n        /* \"contracts/MultisigWallet.sol\":5168:5171  i++ */\n      dup1\n      dup1\n      0x01\n      add\n      swap2\n      pop\n      pop\n        /* \"contracts/MultisigWallet.sol\":5140:6472  for (i = 0; i < _threshold; i++) {... */\n      jump(tag_89)\n    tag_90:\n        /* \"contracts/MultisigWallet.sol\":4375:6481  {... */\n      pop\n      pop\n      pop\n      pop\n      pop\n      pop\n      pop\n        /* \"contracts/MultisigWallet.sol\":4297:6481  function checkSignatures(bytes32 dataHash,bytes memory signatures) public view{... */\n      pop\n      pop\n      jump\t// out\n        /* \"contracts/MultisigWallet.sol\":6928:8557  function signatureSplit(bytes memory signatures, uint256 pos) internal pure returns(... */\n    tag_93:\n        /* \"contracts/MultisigWallet.sol\":7022:7029  uint8 v */\n      0x00\n        /* \"contracts/MultisigWallet.sol\":7040:7049  bytes32 r */\n      0x00\n        /* \"contracts/MultisigWallet.sol\":7060:7069  bytes32 s */\n      0x00\n        /* \"contracts/MultisigWallet.sol\":7414:7417  pos */\n      dup4\n        /* \"contracts/MultisigWallet.sol\":7408:7412  0x41 */\n      0x41\n        /* \"contracts/MultisigWallet.sol\":7404:7418  mul(0x41, pos) */\n      mul\n        /* \"contracts/MultisigWallet.sol\":7869:7873  0x20 */\n      0x20\n        /* \"contracts/MultisigWallet.sol\":7855:7867  signaturePos */\n      dup2\n        /* \"contracts/MultisigWallet.sol\":7851:7874  add(signaturePos, 0x20) */\n      add\n        /* \"contracts/MultisigWallet.sol\":7839:7849  signatures */\n      dup7\n        /* \"contracts/MultisigWallet.sol\":7835:7875  add(signatures, add(signaturePos, 0x20)) */\n      add\n        /* \"contracts/MultisigWallet.sol\":7829:7876  mload(add(signatures, add(signaturePos, 0x20))) */\n      mload\n        /* \"contracts/MultisigWallet.sol\":7824:7876  r := mload(add(signatures, add(signaturePos, 0x20))) */\n      swap3\n      pop\n        /* \"contracts/MultisigWallet.sol\":8117:8121  0x40 */\n      0x40\n        /* \"contracts/MultisigWallet.sol\":8103:8115  signaturePos */\n      dup2\n        /* \"contracts/MultisigWallet.sol\":8099:8122  add(signaturePos, 0x40) */\n      add\n        /* \"contracts/MultisigWallet.sol\":8087:8097  signatures */\n      dup7\n        /* \"contracts/MultisigWallet.sol\":8083:8123  add(signatures, add(signaturePos, 0x40)) */\n      add\n        /* \"contracts/MultisigWallet.sol\":8077:8124  mload(add(signatures, add(signaturePos, 0x40))) */\n      mload\n        /* \"contracts/MultisigWallet.sol\":8072:8124  s := mload(add(signatures, add(signaturePos, 0x40))) */\n      swap2\n      pop\n        /* \"contracts/MultisigWallet.sol\":8542:8546  0xff */\n      0xff\n        /* \"contracts/MultisigWallet.sol\":8533:8537  0x41 */\n      0x41\n        /* \"contracts/MultisigWallet.sol\":8519:8531  signaturePos */\n      dup3\n        /* \"contracts/MultisigWallet.sol\":8515:8538  add(signaturePos, 0x41) */\n      add\n        /* \"contracts/MultisigWallet.sol\":8503:8513  signatures */\n      dup8\n        /* \"contracts/MultisigWallet.sol\":8499:8539  add(signatures, add(signaturePos, 0x41)) */\n      add\n        /* \"contracts/MultisigWallet.sol\":8493:8540  mload(add(signatures, add(signaturePos, 0x41))) */\n      mload\n        /* \"contracts/MultisigWallet.sol\":8489:8547  and(mload(add(signatures, add(signaturePos, 0x41))), 0xff) */\n      and\n        /* \"contracts/MultisigWallet.sol\":8484:8547  v := and(mload(add(signatures, add(signaturePos, 0x41))), 0xff) */\n      swap4\n      pop\n        /* \"contracts/MultisigWallet.sol\":7274:8554  {... */\n      pop\n        /* \"contracts/MultisigWallet.sol\":6928:8557  function signatureSplit(bytes memory signatures, uint256 pos) internal pure returns(... */\n      swap3\n      pop\n      swap3\n      pop\n      swap3\n      jump\t// out\n        /* \"#utility.yul\":7:82   */\n    tag_105:\n        /* \"#utility.yul\":40:46   */\n      0x00\n        /* \"#utility.yul\":73:75   */\n      0x40\n        /* \"#utility.yul\":67:76   */\n      mload\n        /* \"#utility.yul\":57:76   */\n      swap1\n      pop\n        /* \"#utility.yul\":7:82   */\n      swap1\n      jump\t// out\n        /* \"#utility.yul\":88:205   */\n    tag_106:\n        /* \"#utility.yul\":197:198   */\n      0x00\n        /* \"#utility.yul\":194:195   */\n      0x00\n        /* \"#utility.yul\":187:199   */\n      revert\n        /* \"#utility.yul\":211:328   */\n    tag_107:\n        /* \"#utility.yul\":320:321   */\n      0x00\n        /* \"#utility.yul\":317:318   */\n      0x00\n        /* \"#utility.yul\":310:322   */\n      revert\n        /* \"#utility.yul\":334:411   */\n    tag_108:\n        /* \"#utility.yul\":371:378   */\n      0x00\n        /* \"#utility.yul\":400:405   */\n      dup2\n        /* \"#utility.yul\":389:405   */\n      swap1\n      pop\n        /* \"#utility.yul\":334:411   */\n      swap2\n      swap1\n      pop\n      jump\t// out\n        /* \"#utility.yul\":417:539   */\n    tag_109:\n        /* \"#utility.yul\":490:514   */\n      tag_160\n        /* \"#utility.yul\":508:513   */\n      dup2\n        /* \"#utility.yul\":490:514   */\n      tag_108\n      jump\t// in\n    tag_160:\n        /* \"#utility.yul\":483:488   */\n      dup2\n        /* \"#utility.yul\":480:515   */\n      eq\n        /* \"#utility.yul\":470:533   */\n      tag_161\n      jumpi\n        /* \"#utility.yul\":529:530   */\n      0x00\n        /* \"#utility.yul\":526:527   */\n      0x00\n        /* \"#utility.yul\":519:531   */\n      revert\n        /* \"#utility.yul\":470:533   */\n    tag_161:\n        /* \"#utility.yul\":417:539   */\n      pop\n      jump\t// out\n        /* \"#utility.yul\":545:684   */\n    tag_110:\n        /* \"#utility.yul\":591:596   */\n      0x00\n        /* \"#utility.yul\":629:635   */\n      dup2\n        /* \"#utility.yul\":616:636   */\n      calldataload\n        /* \"#utility.yul\":607:636   */\n      swap1\n      pop\n        /* \"#utility.yul\":645:678   */\n      tag_163\n        /* \"#utility.yul\":672:677   */\n      dup2\n        /* \"#utility.yul\":645:678   */\n      tag_109\n      jump\t// in\n    tag_163:\n        /* \"#utility.yul\":545:684   */\n      swap3\n      swap2\n      pop\n      pop\n      jump\t// out\n        /* \"#utility.yul\":690:1019   */\n    tag_17:\n        /* \"#utility.yul\":749:755   */\n      0x00\n        /* \"#utility.yul\":798:800   */\n      0x20\n        /* \"#utility.yul\":786:795   */\n      dup3\n        /* \"#utility.yul\":777:784   */\n      dup5\n        /* \"#utility.yul\":773:796   */\n      sub\n        /* \"#utility.yul\":769:801   */\n      slt\n        /* \"#utility.yul\":766:885   */\n      iszero\n      tag_165\n      jumpi\n        /* \"#utility.yul\":804:883   */\n      tag_166\n      tag_106\n      jump\t// in\n    tag_166:\n        /* \"#utility.yul\":766:885   */\n    tag_165:\n        /* \"#utility.yul\":924:925   */\n      0x00\n        /* \"#utility.yul\":949:1002   */\n      tag_167\n        /* \"#utility.yul\":994:1001   */\n      dup5\n        /* \"#utility.yul\":985:991   */\n      dup3\n        /* \"#utility.yul\":974:983   */\n      dup6\n        /* \"#utility.yul\":970:992   */\n      add\n        /* \"#utility.yul\":949:1002   */\n      tag_110\n      jump\t// in\n    tag_167:\n        /* \"#utility.yul\":939:1002   */\n      swap2\n      pop\n        /* \"#utility.yul\":895:1012   */\n      pop\n        /* \"#utility.yul\":690:1019   */\n      swap3\n      swap2\n      pop\n      pop\n      jump\t// out\n        /* \"#utility.yul\":1025:1151   */\n    tag_111:\n        /* \"#utility.yul\":1062:1069   */\n      0x00\n        /* \"#utility.yul\":1102:1144   */\n      0xffffffffffffffffffffffffffffffffffffffff\n        /* \"#utility.yul\":1095:1100   */\n      dup3\n        /* \"#utility.yul\":1091:1145   */\n      and\n        /* \"#utility.yul\":1080:1145   */\n      swap1\n      pop\n        /* \"#utility.yul\":1025:1151   */\n      swap2\n      swap1\n      pop\n      jump\t// out\n        /* \"#utility.yul\":1157:1253   */\n    tag_112:\n        /* \"#utility.yul\":1194:1201   */\n      0x00\n        /* \"#utility.yul\":1223:1247   */\n      tag_170\n        /* \"#utility.yul\":1241:1246   */\n      dup3\n        /* \"#utility.yul\":1223:1247   */\n      tag_111\n      jump\t// in\n    tag_170:\n        /* \"#utility.yul\":1212:1247   */\n      swap1\n      pop\n        /* \"#utility.yul\":1157:1253   */\n      swap2\n      swap1\n      pop\n      jump\t// out\n        /* \"#utility.yul\":1259:1377   */\n    tag_113:\n        /* \"#utility.yul\":1346:1370   */\n      tag_172\n        /* \"#utility.yul\":1364:1369   */\n      dup2\n        /* \"#utility.yul\":1346:1370   */\n      tag_112\n      jump\t// in\n    tag_172:\n        /* \"#utility.yul\":1341:1344   */\n      dup3\n        /* \"#utility.yul\":1334:1371   */\n      mstore\n        /* \"#utility.yul\":1259:1377   */\n      pop\n      pop\n      jump\t// out\n        /* \"#utility.yul\":1383:1605   */\n    tag_20:\n        /* \"#utility.yul\":1476:1480   */\n      0x00\n        /* \"#utility.yul\":1514:1516   */\n      0x20\n        /* \"#utility.yul\":1503:1512   */\n      dup3\n        /* \"#utility.yul\":1499:1517   */\n      add\n        /* \"#utility.yul\":1491:1517   */\n      swap1\n      pop\n        /* \"#utility.yul\":1527:1598   */\n      tag_174\n        /* \"#utility.yul\":1595:1596   */\n      0x00\n        /* \"#utility.yul\":1584:1593   */\n      dup4\n        /* \"#utility.yul\":1580:1597   */\n      add\n        /* \"#utility.yul\":1571:1577   */\n      dup5\n        /* \"#utility.yul\":1527:1598   */\n      tag_113\n      jump\t// in\n    tag_174:\n        /* \"#utility.yul\":1383:1605   */\n      swap3\n      swap2\n      pop\n      pop\n      jump\t// out\n        /* \"#utility.yul\":1611:1729   */\n    tag_114:\n        /* \"#utility.yul\":1698:1722   */\n      tag_176\n        /* \"#utility.yul\":1716:1721   */\n      dup2\n        /* \"#utility.yul\":1698:1722   */\n      tag_108\n      jump\t// in\n    tag_176:\n        /* \"#utility.yul\":1693:1696   */\n      dup3\n        /* \"#utility.yul\":1686:1723   */\n      mstore\n        /* \"#utility.yul\":1611:1729   */\n      pop\n      pop\n      jump\t// out\n        /* \"#utility.yul\":1735:1957   */\n    tag_25:\n        /* \"#utility.yul\":1828:1832   */\n      0x00\n        /* \"#utility.yul\":1866:1868   */\n      0x20\n        /* \"#utility.yul\":1855:1864   */\n      dup3\n        /* \"#utility.yul\":1851:1869   */\n      add\n        /* \"#utility.yul\":1843:1869   */\n      swap1\n      pop\n        /* \"#utility.yul\":1879:1950   */\n      tag_178\n        /* \"#utility.yul\":1947:1948   */\n      0x00\n        /* \"#utility.yul\":1936:1945   */\n      dup4\n        /* \"#utility.yul\":1932:1949   */\n      add\n        /* \"#utility.yul\":1923:1929   */\n      dup5\n        /* \"#utility.yul\":1879:1950   */\n      tag_114\n      jump\t// in\n    tag_178:\n        /* \"#utility.yul\":1735:1957   */\n      swap3\n      swap2\n      pop\n      pop\n      jump\t// out\n        /* \"#utility.yul\":1963:2085   */\n    tag_115:\n        /* \"#utility.yul\":2036:2060   */\n      tag_180\n        /* \"#utility.yul\":2054:2059   */\n      dup2\n        /* \"#utility.yul\":2036:2060   */\n      tag_112\n      jump\t// in\n    tag_180:\n        /* \"#utility.yul\":2029:2034   */\n      dup2\n        /* \"#utility.yul\":2026:2061   */\n      eq\n        /* \"#utility.yul\":2016:2079   */\n      tag_181\n      jumpi\n        /* \"#utility.yul\":2075:2076   */\n      0x00\n        /* \"#utility.yul\":2072:2073   */\n      0x00\n        /* \"#utility.yul\":2065:2077   */\n      revert\n        /* \"#utility.yul\":2016:2079   */\n    tag_181:\n        /* \"#utility.yul\":1963:2085   */\n      pop\n      jump\t// out\n        /* \"#utility.yul\":2091:2230   */\n    tag_116:\n        /* \"#utility.yul\":2137:2142   */\n      0x00\n        /* \"#utility.yul\":2175:2181   */\n      dup2\n        /* \"#utility.yul\":2162:2182   */\n      calldataload\n        /* \"#utility.yul\":2153:2182   */\n      swap1\n      pop\n        /* \"#utility.yul\":2191:2224   */\n      tag_183\n        /* \"#utility.yul\":2218:2223   */\n      dup2\n        /* \"#utility.yul\":2191:2224   */\n      tag_115\n      jump\t// in\n    tag_183:\n        /* \"#utility.yul\":2091:2230   */\n      swap3\n      swap2\n      pop\n      pop\n      jump\t// out\n        /* \"#utility.yul\":2236:2565   */\n    tag_29:\n        /* \"#utility.yul\":2295:2301   */\n      0x00\n        /* \"#utility.yul\":2344:2346   */\n      0x20\n        /* \"#utility.yul\":2332:2341   */\n      dup3\n        /* \"#utility.yul\":2323:2330   */\n      dup5\n        /* \"#utility.yul\":2319:2342   */\n      sub\n        /* \"#utility.yul\":2315:2347   */\n      slt\n        /* \"#utility.yul\":2312:2431   */\n      iszero\n      tag_185\n      jumpi\n        /* \"#utility.yul\":2350:2429   */\n      tag_186\n      tag_106\n      jump\t// in\n    tag_186:\n        /* \"#utility.yul\":2312:2431   */\n    tag_185:\n        /* \"#utility.yul\":2470:2471   */\n      0x00\n        /* \"#utility.yul\":2495:2548   */\n      tag_187\n        /* \"#utility.yul\":2540:2547   */\n      dup5\n        /* \"#utility.yul\":2531:2537   */\n      dup3\n        /* \"#utility.yul\":2520:2529   */\n      dup6\n        /* \"#utility.yul\":2516:2538   */\n      add\n        /* \"#utility.yul\":2495:2548   */\n      tag_116\n      jump\t// in\n    tag_187:\n        /* \"#utility.yul\":2485:2548   */\n      swap2\n      pop\n        /* \"#utility.yul\":2441:2558   */\n      pop\n        /* \"#utility.yul\":2236:2565   */\n      swap3\n      swap2\n      pop\n      pop\n      jump\t// out\n        /* \"#utility.yul\":2571:2661   */\n    tag_117:\n        /* \"#utility.yul\":2605:2612   */\n      0x00\n        /* \"#utility.yul\":2648:2653   */\n      dup2\n        /* \"#utility.yul\":2641:2654   */\n      iszero\n        /* \"#utility.yul\":2634:2655   */\n      iszero\n        /* \"#utility.yul\":2623:2655   */\n      swap1\n      pop\n        /* \"#utility.yul\":2571:2661   */\n      swap2\n      swap1\n      pop\n      jump\t// out\n        /* \"#utility.yul\":2667:2776   */\n    tag_118:\n        /* \"#utility.yul\":2748:2769   */\n      tag_190\n        /* \"#utility.yul\":2763:2768   */\n      dup2\n        /* \"#utility.yul\":2748:2769   */\n      tag_117\n      jump\t// in\n    tag_190:\n        /* \"#utility.yul\":2743:2746   */\n      dup3\n        /* \"#utility.yul\":2736:2770   */\n      mstore\n        /* \"#utility.yul\":2667:2776   */\n      pop\n      pop\n      jump\t// out\n        /* \"#utility.yul\":2782:2992   */\n    tag_32:\n        /* \"#utility.yul\":2869:2873   */\n      0x00\n        /* \"#utility.yul\":2907:2909   */\n      0x20\n        /* \"#utility.yul\":2896:2905   */\n      dup3\n        /* \"#utility.yul\":2892:2910   */\n      add\n        /* \"#utility.yul\":2884:2910   */\n      swap1\n      pop\n        /* \"#utility.yul\":2920:2985   */\n      tag_192\n        /* \"#utility.yul\":2982:2983   */\n      0x00\n        /* \"#utility.yul\":2971:2980   */\n      dup4\n        /* \"#utility.yul\":2967:2984   */\n      add\n        /* \"#utility.yul\":2958:2964   */\n      dup5\n        /* \"#utility.yul\":2920:2985   */\n      tag_118\n      jump\t// in\n    tag_192:\n        /* \"#utility.yul\":2782:2992   */\n      swap3\n      swap2\n      pop\n      pop\n      jump\t// out\n        /* \"#utility.yul\":2998:3115   */\n    tag_119:\n        /* \"#utility.yul\":3107:3108   */\n      0x00\n        /* \"#utility.yul\":3104:3105   */\n      0x00\n        /* \"#utility.yul\":3097:3109   */\n      revert\n        /* \"#utility.yul\":3121:3238   */\n    tag_120:\n        /* \"#utility.yul\":3230:3231   */\n      0x00\n        /* \"#utility.yul\":3227:3228   */\n      0x00\n        /* \"#utility.yul\":3220:3232   */\n      revert\n        /* \"#utility.yul\":3244:3346   */\n    tag_121:\n        /* \"#utility.yul\":3285:3291   */\n      0x00\n        /* \"#utility.yul\":3336:3338   */\n      0x1f\n        /* \"#utility.yul\":3332:3339   */\n      not\n        /* \"#utility.yul\":3327:3329   */\n      0x1f\n        /* \"#utility.yul\":3320:3325   */\n      dup4\n        /* \"#utility.yul\":3316:3330   */\n      add\n        /* \"#utility.yul\":3312:3340   */\n      and\n        /* \"#utility.yul\":3302:3340   */\n      swap1\n      pop\n        /* \"#utility.yul\":3244:3346   */\n      swap2\n      swap1\n      pop\n      jump\t// out\n        /* \"#utility.yul\":3352:3532   */\n    tag_122:\n        /* \"#utility.yul\":3400:3477   */\n      0x4e487b7100000000000000000000000000000000000000000000000000000000\n        /* \"#utility.yul\":3397:3398   */\n      0x00\n        /* \"#utility.yul\":3390:3478   */\n      mstore\n        /* \"#utility.yul\":3497:3501   */\n      0x41\n        /* \"#utility.yul\":3494:3495   */\n      0x04\n        /* \"#utility.yul\":3487:3502   */\n      mstore\n        /* \"#utility.yul\":3521:3525   */\n      0x24\n        /* \"#utility.yul\":3518:3519   */\n      0x00\n        /* \"#utility.yul\":3511:3526   */\n      revert\n        /* \"#utility.yul\":3538:3819   */\n    tag_123:\n        /* \"#utility.yul\":3621:3648   */\n      tag_198\n        /* \"#utility.yul\":3643:3647   */\n      dup3\n        /* \"#utility.yul\":3621:3648   */\n      tag_121\n      jump\t// in\n    tag_198:\n        /* \"#utility.yul\":3613:3619   */\n      dup2\n        /* \"#utility.yul\":3609:3649   */\n      add\n        /* \"#utility.yul\":3751:3757   */\n      dup2\n        /* \"#utility.yul\":3739:3749   */\n      dup2\n        /* \"#utility.yul\":3736:3758   */\n      lt\n        /* \"#utility.yul\":3715:3733   */\n      0xffffffffffffffff\n        /* \"#utility.yul\":3703:3713   */\n      dup3\n        /* \"#utility.yul\":3700:3734   */\n      gt\n        /* \"#utility.yul\":3697:3759   */\n      or\n        /* \"#utility.yul\":3694:3782   */\n      iszero\n      tag_199\n      jumpi\n        /* \"#utility.yul\":3762:3780   */\n      tag_200\n      tag_122\n      jump\t// in\n    tag_200:\n        /* \"#utility.yul\":3694:3782   */\n    tag_199:\n        /* \"#utility.yul\":3802:3812   */\n      dup1\n        /* \"#utility.yul\":3798:3800   */\n      0x40\n        /* \"#utility.yul\":3791:3813   */\n      mstore\n        /* \"#utility.yul\":3581:3819   */\n      pop\n        /* \"#utility.yul\":3538:3819   */\n      pop\n      pop\n      jump\t// out\n        /* \"#utility.yul\":3825:3954   */\n    tag_124:\n        /* \"#utility.yul\":3859:3865   */\n      0x00\n        /* \"#utility.yul\":3886:3906   */\n      tag_202\n      tag_105\n      jump\t// in\n    tag_202:\n        /* \"#utility.yul\":3876:3906   */\n      swap1\n      pop\n        /* \"#utility.yul\":3915:3948   */\n      tag_203\n        /* \"#utility.yul\":3943:3947   */\n      dup3\n        /* \"#utility.yul\":3935:3941   */\n      dup3\n        /* \"#utility.yul\":3915:3948   */\n      tag_123\n      jump\t// in\n    tag_203:\n        /* \"#utility.yul\":3825:3954   */\n      swap2\n      swap1\n      pop\n      jump\t// out\n        /* \"#utility.yul\":3960:4267   */\n    tag_125:\n        /* \"#utility.yul\":4021:4025   */\n      0x00\n        /* \"#utility.yul\":4111:4129   */\n      0xffffffffffffffff\n        /* \"#utility.yul\":4103:4109   */\n      dup3\n        /* \"#utility.yul\":4100:4130   */\n      gt\n        /* \"#utility.yul\":4097:4153   */\n      iszero\n      tag_205\n      jumpi\n        /* \"#utility.yul\":4133:4151   */\n      tag_206\n      tag_122\n      jump\t// in\n    tag_206:\n        /* \"#utility.yul\":4097:4153   */\n    tag_205:\n        /* \"#utility.yul\":4171:4200   */\n      tag_207\n        /* \"#utility.yul\":4193:4199   */\n      dup3\n        /* \"#utility.yul\":4171:4200   */\n      tag_121\n      jump\t// in\n    tag_207:\n        /* \"#utility.yul\":4163:4200   */\n      swap1\n      pop\n        /* \"#utility.yul\":4255:4259   */\n      0x20\n        /* \"#utility.yul\":4249:4253   */\n      dup2\n        /* \"#utility.yul\":4245:4260   */\n      add\n        /* \"#utility.yul\":4237:4260   */\n      swap1\n      pop\n        /* \"#utility.yul\":3960:4267   */\n      swap2\n      swap1\n      pop\n      jump\t// out\n        /* \"#utility.yul\":4273:4421   */\n    tag_126:\n        /* \"#utility.yul\":4371:4377   */\n      dup3\n        /* \"#utility.yul\":4366:4369   */\n      dup2\n        /* \"#utility.yul\":4361:4364   */\n      dup4\n        /* \"#utility.yul\":4348:4378   */\n      calldatacopy\n        /* \"#utility.yul\":4412:4413   */\n      0x00\n        /* \"#utility.yul\":4403:4409   */\n      dup4\n        /* \"#utility.yul\":4398:4401   */\n      dup4\n        /* \"#utility.yul\":4394:4410   */\n      add\n        /* \"#utility.yul\":4387:4414   */\n      mstore\n        /* \"#utility.yul\":4273:4421   */\n      pop\n      pop\n      pop\n      jump\t// out\n        /* \"#utility.yul\":4427:4850   */\n    tag_127:\n        /* \"#utility.yul\":4504:4509   */\n      0x00\n        /* \"#utility.yul\":4529:4594   */\n      tag_210\n        /* \"#utility.yul\":4545:4593   */\n      tag_211\n        /* \"#utility.yul\":4586:4592   */\n      dup5\n        /* \"#utility.yul\":4545:4593   */\n      tag_125\n      jump\t// in\n    tag_211:\n        /* \"#utility.yul\":4529:4594   */\n      tag_124\n      jump\t// in\n    tag_210:\n        /* \"#utility.yul\":4520:4594   */\n      swap1\n      pop\n        /* \"#utility.yul\":4617:4623   */\n      dup3\n        /* \"#utility.yul\":4610:4615   */\n      dup2\n        /* \"#utility.yul\":4603:4624   */\n      mstore\n        /* \"#utility.yul\":4655:4659   */\n      0x20\n        /* \"#utility.yul\":4648:4653   */\n      dup2\n        /* \"#utility.yul\":4644:4660   */\n      add\n        /* \"#utility.yul\":4693:4696   */\n      dup5\n        /* \"#utility.yul\":4684:4690   */\n      dup5\n        /* \"#utility.yul\":4679:4682   */\n      dup5\n        /* \"#utility.yul\":4675:4691   */\n      add\n        /* \"#utility.yul\":4672:4697   */\n      gt\n        /* \"#utility.yul\":4669:4781   */\n      iszero\n      tag_212\n      jumpi\n        /* \"#utility.yul\":4700:4779   */\n      tag_213\n      tag_120\n      jump\t// in\n    tag_213:\n        /* \"#utility.yul\":4669:4781   */\n    tag_212:\n        /* \"#utility.yul\":4790:4844   */\n      tag_214\n        /* \"#utility.yul\":4837:4843   */\n      dup5\n        /* \"#utility.yul\":4832:4835   */\n      dup3\n        /* \"#utility.yul\":4827:4830   */\n      dup6\n        /* \"#utility.yul\":4790:4844   */\n      tag_126\n      jump\t// in\n    tag_214:\n        /* \"#utility.yul\":4510:4850   */\n      pop\n        /* \"#utility.yul\":4427:4850   */\n      swap4\n      swap3\n      pop\n      pop\n      pop\n      jump\t// out\n        /* \"#utility.yul\":4869:5207   */\n    tag_128:\n        /* \"#utility.yul\":4924:4929   */\n      0x00\n        /* \"#utility.yul\":4973:4976   */\n      dup3\n        /* \"#utility.yul\":4966:4970   */\n      0x1f\n        /* \"#utility.yul\":4958:4964   */\n      dup4\n        /* \"#utility.yul\":4954:4971   */\n      add\n        /* \"#utility.yul\":4950:4977   */\n      slt\n        /* \"#utility.yul\":4940:5062   */\n      tag_216\n      jumpi\n        /* \"#utility.yul\":4981:5060   */\n      tag_217\n      tag_119\n      jump\t// in\n    tag_217:\n        /* \"#utility.yul\":4940:5062   */\n    tag_216:\n        /* \"#utility.yul\":5098:5104   */\n      dup2\n        /* \"#utility.yul\":5085:5105   */\n      calldataload\n        /* \"#utility.yul\":5123:5201   */\n      tag_218\n        /* \"#utility.yul\":5197:5200   */\n      dup5\n        /* \"#utility.yul\":5189:5195   */\n      dup3\n        /* \"#utility.yul\":5182:5186   */\n      0x20\n        /* \"#utility.yul\":5174:5180   */\n      dup7\n        /* \"#utility.yul\":5170:5187   */\n      add\n        /* \"#utility.yul\":5123:5201   */\n      tag_127\n      jump\t// in\n    tag_218:\n        /* \"#utility.yul\":5114:5201   */\n      swap2\n      pop\n        /* \"#utility.yul\":4930:5207   */\n      pop\n        /* \"#utility.yul\":4869:5207   */\n      swap3\n      swap2\n      pop\n      pop\n      jump\t// out\n        /* \"#utility.yul\":5213:6302   */\n    tag_40:\n        /* \"#utility.yul\":5317:5323   */\n      0x00\n        /* \"#utility.yul\":5325:5331   */\n      0x00\n        /* \"#utility.yul\":5333:5339   */\n      0x00\n        /* \"#utility.yul\":5341:5347   */\n      0x00\n        /* \"#utility.yul\":5349:5355   */\n      0x00\n        /* \"#utility.yul\":5398:5401   */\n      0xa0\n        /* \"#utility.yul\":5386:5395   */\n      dup7\n        /* \"#utility.yul\":5377:5384   */\n      dup9\n        /* \"#utility.yul\":5373:5396   */\n      sub\n        /* \"#utility.yul\":5369:5402   */\n      slt\n        /* \"#utility.yul\":5366:5486   */\n      iszero\n      tag_220\n      jumpi\n        /* \"#utility.yul\":5405:5484   */\n      tag_221\n      tag_106\n      jump\t// in\n    tag_221:\n        /* \"#utility.yul\":5366:5486   */\n    tag_220:\n        /* \"#utility.yul\":5525:5526   */\n      0x00\n        /* \"#utility.yul\":5550:5603   */\n      tag_222\n        /* \"#utility.yul\":5595:5602   */\n      dup9\n        /* \"#utility.yul\":5586:5592   */\n      dup3\n        /* \"#utility.yul\":5575:5584   */\n      dup10\n        /* \"#utility.yul\":5571:5593   */\n      add\n        /* \"#utility.yul\":5550:5603   */\n      tag_116\n      jump\t// in\n    tag_222:\n        /* \"#utility.yul\":5540:5603   */\n      swap6\n      pop\n        /* \"#utility.yul\":5496:5613   */\n      pop\n        /* \"#utility.yul\":5652:5654   */\n      0x20\n        /* \"#utility.yul\":5678:5731   */\n      tag_223\n        /* \"#utility.yul\":5723:5730   */\n      dup9\n        /* \"#utility.yul\":5714:5720   */\n      dup3\n        /* \"#utility.yul\":5703:5712   */\n      dup10\n        /* \"#utility.yul\":5699:5721   */\n      add\n        /* \"#utility.yul\":5678:5731   */\n      tag_110\n      jump\t// in\n    tag_223:\n        /* \"#utility.yul\":5668:5731   */\n      swap5\n      pop\n        /* \"#utility.yul\":5623:5741   */\n      pop\n        /* \"#utility.yul\":5808:5810   */\n      0x40\n        /* \"#utility.yul\":5797:5806   */\n      dup7\n        /* \"#utility.yul\":5793:5811   */\n      add\n        /* \"#utility.yul\":5780:5812   */\n      calldataload\n        /* \"#utility.yul\":5839:5857   */\n      0xffffffffffffffff\n        /* \"#utility.yul\":5831:5837   */\n      dup2\n        /* \"#utility.yul\":5828:5858   */\n      gt\n        /* \"#utility.yul\":5825:5942   */\n      iszero\n      tag_224\n      jumpi\n        /* \"#utility.yul\":5861:5940   */\n      tag_225\n      tag_107\n      jump\t// in\n    tag_225:\n        /* \"#utility.yul\":5825:5942   */\n    tag_224:\n        /* \"#utility.yul\":5966:6028   */\n      tag_226\n        /* \"#utility.yul\":6020:6027   */\n      dup9\n        /* \"#utility.yul\":6011:6017   */\n      dup3\n        /* \"#utility.yul\":6000:6009   */\n      dup10\n        /* \"#utility.yul\":5996:6018   */\n      add\n        /* \"#utility.yul\":5966:6028   */\n      tag_128\n      jump\t// in\n    tag_226:\n        /* \"#utility.yul\":5956:6028   */\n      swap4\n      pop\n        /* \"#utility.yul\":5751:6038   */\n      pop\n        /* \"#utility.yul\":6077:6079   */\n      0x60\n        /* \"#utility.yul\":6103:6156   */\n      tag_227\n        /* \"#utility.yul\":6148:6155   */\n      dup9\n        /* \"#utility.yul\":6139:6145   */\n      dup3\n        /* \"#utility.yul\":6128:6137   */\n      dup10\n        /* \"#utility.yul\":6124:6146   */\n      add\n        /* \"#utility.yul\":6103:6156   */\n      tag_110\n      jump\t// in\n    tag_227:\n        /* \"#utility.yul\":6093:6156   */\n      swap3\n      pop\n        /* \"#utility.yul\":6048:6166   */\n      pop\n        /* \"#utility.yul\":6205:6208   */\n      0x80\n        /* \"#utility.yul\":6232:6285   */\n      tag_228\n        /* \"#utility.yul\":6277:6284   */\n      dup9\n        /* \"#utility.yul\":6268:6274   */\n      dup3\n        /* \"#utility.yul\":6257:6266   */\n      dup10\n        /* \"#utility.yul\":6253:6275   */\n      add\n        /* \"#utility.yul\":6232:6285   */\n      tag_110\n      jump\t// in\n    tag_228:\n        /* \"#utility.yul\":6222:6285   */\n      swap2\n      pop\n        /* \"#utility.yul\":6176:6295   */\n      pop\n        /* \"#utility.yul\":5213:6302   */\n      swap3\n      swap6\n      pop\n      swap3\n      swap6\n      swap1\n      swap4\n      pop\n      jump\t// out\n        /* \"#utility.yul\":6308:6385   */\n    tag_129:\n        /* \"#utility.yul\":6345:6352   */\n      0x00\n        /* \"#utility.yul\":6374:6379   */\n      dup2\n        /* \"#utility.yul\":6363:6379   */\n      swap1\n      pop\n        /* \"#utility.yul\":6308:6385   */\n      swap2\n      swap1\n      pop\n      jump\t// out\n        /* \"#utility.yul\":6391:6509   */\n    tag_130:\n        /* \"#utility.yul\":6478:6502   */\n      tag_231\n        /* \"#utility.yul\":6496:6501   */\n      dup2\n        /* \"#utility.yul\":6478:6502   */\n      tag_129\n      jump\t// in\n    tag_231:\n        /* \"#utility.yul\":6473:6476   */\n      dup3\n        /* \"#utility.yul\":6466:6503   */\n      mstore\n        /* \"#utility.yul\":6391:6509   */\n      pop\n      pop\n      jump\t// out\n        /* \"#utility.yul\":6515:6737   */\n    tag_43:\n        /* \"#utility.yul\":6608:6612   */\n      0x00\n        /* \"#utility.yul\":6646:6648   */\n      0x20\n        /* \"#utility.yul\":6635:6644   */\n      dup3\n        /* \"#utility.yul\":6631:6649   */\n      add\n        /* \"#utility.yul\":6623:6649   */\n      swap1\n      pop\n        /* \"#utility.yul\":6659:6730   */\n      tag_233\n        /* \"#utility.yul\":6727:6728   */\n      0x00\n        /* \"#utility.yul\":6716:6725   */\n      dup4\n        /* \"#utility.yul\":6712:6729   */\n      add\n        /* \"#utility.yul\":6703:6709   */\n      dup5\n        /* \"#utility.yul\":6659:6730   */\n      tag_130\n      jump\t// in\n    tag_233:\n        /* \"#utility.yul\":6515:6737   */\n      swap3\n      swap2\n      pop\n      pop\n      jump\t// out\n        /* \"#utility.yul\":6743:7864   */\n    tag_50:\n        /* \"#utility.yul\":6847:6853   */\n      0x00\n        /* \"#utility.yul\":6855:6861   */\n      0x00\n        /* \"#utility.yul\":6863:6869   */\n      0x00\n        /* \"#utility.yul\":6871:6877   */\n      0x00\n        /* \"#utility.yul\":6920:6923   */\n      0x80\n        /* \"#utility.yul\":6908:6917   */\n      dup6\n        /* \"#utility.yul\":6899:6906   */\n      dup8\n        /* \"#utility.yul\":6895:6918   */\n      sub\n        /* \"#utility.yul\":6891:6924   */\n      slt\n        /* \"#utility.yul\":6888:7008   */\n      iszero\n      tag_235\n      jumpi\n        /* \"#utility.yul\":6927:7006   */\n      tag_236\n      tag_106\n      jump\t// in\n    tag_236:\n        /* \"#utility.yul\":6888:7008   */\n    tag_235:\n        /* \"#utility.yul\":7047:7048   */\n      0x00\n        /* \"#utility.yul\":7072:7125   */\n      tag_237\n        /* \"#utility.yul\":7117:7124   */\n      dup8\n        /* \"#utility.yul\":7108:7114   */\n      dup3\n        /* \"#utility.yul\":7097:7106   */\n      dup9\n        /* \"#utility.yul\":7093:7115   */\n      add\n        /* \"#utility.yul\":7072:7125   */\n      tag_116\n      jump\t// in\n    tag_237:\n        /* \"#utility.yul\":7062:7125   */\n      swap5\n      pop\n        /* \"#utility.yul\":7018:7135   */\n      pop\n        /* \"#utility.yul\":7174:7176   */\n      0x20\n        /* \"#utility.yul\":7200:7253   */\n      tag_238\n        /* \"#utility.yul\":7245:7252   */\n      dup8\n        /* \"#utility.yul\":7236:7242   */\n      dup3\n        /* \"#utility.yul\":7225:7234   */\n      dup9\n        /* \"#utility.yul\":7221:7243   */\n      add\n        /* \"#utility.yul\":7200:7253   */\n      tag_110\n      jump\t// in\n    tag_238:\n        /* \"#utility.yul\":7190:7253   */\n      swap4\n      pop\n        /* \"#utility.yul\":7145:7263   */\n      pop\n        /* \"#utility.yul\":7330:7332   */\n      0x40\n        /* \"#utility.yul\":7319:7328   */\n      dup6\n        /* \"#utility.yul\":7315:7333   */\n      add\n        /* \"#utility.yul\":7302:7334   */\n      calldataload\n        /* \"#utility.yul\":7361:7379   */\n      0xffffffffffffffff\n        /* \"#utility.yul\":7353:7359   */\n      dup2\n        /* \"#utility.yul\":7350:7380   */\n      gt\n        /* \"#utility.yul\":7347:7464   */\n      iszero\n      tag_239\n      jumpi\n        /* \"#utility.yul\":7383:7462   */\n      tag_240\n      tag_107\n      jump\t// in\n    tag_240:\n        /* \"#utility.yul\":7347:7464   */\n    tag_239:\n        /* \"#utility.yul\":7488:7550   */\n      tag_241\n        /* \"#utility.yul\":7542:7549   */\n      dup8\n        /* \"#utility.yul\":7533:7539   */\n      dup3\n        /* \"#utility.yul\":7522:7531   */\n      dup9\n        /* \"#utility.yul\":7518:7540   */\n      add\n        /* \"#utility.yul\":7488:7550   */\n      tag_128\n      jump\t// in\n    tag_241:\n        /* \"#utility.yul\":7478:7550   */\n      swap3\n      pop\n        /* \"#utility.yul\":7273:7560   */\n      pop\n        /* \"#utility.yul\":7627:7629   */\n      0x60\n        /* \"#utility.yul\":7616:7625   */\n      dup6\n        /* \"#utility.yul\":7612:7630   */\n      add\n        /* \"#utility.yul\":7599:7631   */\n      calldataload\n        /* \"#utility.yul\":7658:7676   */\n      0xffffffffffffffff\n        /* \"#utility.yul\":7650:7656   */\n      dup2\n        /* \"#utility.yul\":7647:7677   */\n      gt\n        /* \"#utility.yul\":7644:7761   */\n      iszero\n      tag_242\n      jumpi\n        /* \"#utility.yul\":7680:7759   */\n      tag_243\n      tag_107\n      jump\t// in\n    tag_243:\n        /* \"#utility.yul\":7644:7761   */\n    tag_242:\n        /* \"#utility.yul\":7785:7847   */\n      tag_244\n        /* \"#utility.yul\":7839:7846   */\n      dup8\n        /* \"#utility.yul\":7830:7836   */\n      dup3\n        /* \"#utility.yul\":7819:7828   */\n      dup9\n        /* \"#utility.yul\":7815:7837   */\n      add\n        /* \"#utility.yul\":7785:7847   */\n      tag_128\n      jump\t// in\n    tag_244:\n        /* \"#utility.yul\":7775:7847   */\n      swap2\n      pop\n        /* \"#utility.yul\":7570:7857   */\n      pop\n        /* \"#utility.yul\":6743:7864   */\n      swap3\n      swap6\n      swap2\n      swap5\n      pop\n      swap3\n      pop\n      jump\t// out\n        /* \"#utility.yul\":7870:7992   */\n    tag_131:\n        /* \"#utility.yul\":7943:7967   */\n      tag_246\n        /* \"#utility.yul\":7961:7966   */\n      dup2\n        /* \"#utility.yul\":7943:7967   */\n      tag_129\n      jump\t// in\n    tag_246:\n        /* \"#utility.yul\":7936:7941   */\n      dup2\n        /* \"#utility.yul\":7933:7968   */\n      eq\n        /* \"#utility.yul\":7923:7986   */\n      tag_247\n      jumpi\n        /* \"#utility.yul\":7982:7983   */\n      0x00\n        /* \"#utility.yul\":7979:7980   */\n      0x00\n        /* \"#utility.yul\":7972:7984   */\n      revert\n        /* \"#utility.yul\":7923:7986   */\n    tag_247:\n        /* \"#utility.yul\":7870:7992   */\n      pop\n      jump\t// out\n        /* \"#utility.yul\":7998:8137   */\n    tag_132:\n        /* \"#utility.yul\":8044:8049   */\n      0x00\n        /* \"#utility.yul\":8082:8088   */\n      dup2\n        /* \"#utility.yul\":8069:8089   */\n      calldataload\n        /* \"#utility.yul\":8060:8089   */\n      swap1\n      pop\n        /* \"#utility.yul\":8098:8131   */\n      tag_249\n        /* \"#utility.yul\":8125:8130   */\n      dup2\n        /* \"#utility.yul\":8098:8131   */\n      tag_131\n      jump\t// in\n    tag_249:\n        /* \"#utility.yul\":7998:8137   */\n      swap3\n      swap2\n      pop\n      pop\n      jump\t// out\n        /* \"#utility.yul\":8143:8795   */\n    tag_56:\n        /* \"#utility.yul\":8220:8226   */\n      0x00\n        /* \"#utility.yul\":8228:8234   */\n      0x00\n        /* \"#utility.yul\":8277:8279   */\n      0x40\n        /* \"#utility.yul\":8265:8274   */\n      dup4\n        /* \"#utility.yul\":8256:8263   */\n      dup6\n        /* \"#utility.yul\":8252:8275   */\n      sub\n        /* \"#utility.yul\":8248:8280   */\n      slt\n        /* \"#utility.yul\":8245:8364   */\n      iszero\n      tag_251\n      jumpi\n        /* \"#utility.yul\":8283:8362   */\n      tag_252\n      tag_106\n      jump\t// in\n    tag_252:\n        /* \"#utility.yul\":8245:8364   */\n    tag_251:\n        /* \"#utility.yul\":8403:8404   */\n      0x00\n        /* \"#utility.yul\":8428:8481   */\n      tag_253\n        /* \"#utility.yul\":8473:8480   */\n      dup6\n        /* \"#utility.yul\":8464:8470   */\n      dup3\n        /* \"#utility.yul\":8453:8462   */\n      dup7\n        /* \"#utility.yul\":8449:8471   */\n      add\n        /* \"#utility.yul\":8428:8481   */\n      tag_132\n      jump\t// in\n    tag_253:\n        /* \"#utility.yul\":8418:8481   */\n      swap3\n      pop\n        /* \"#utility.yul\":8374:8491   */\n      pop\n        /* \"#utility.yul\":8558:8560   */\n      0x20\n        /* \"#utility.yul\":8547:8556   */\n      dup4\n        /* \"#utility.yul\":8543:8561   */\n      add\n        /* \"#utility.yul\":8530:8562   */\n      calldataload\n        /* \"#utility.yul\":8589:8607   */\n      0xffffffffffffffff\n        /* \"#utility.yul\":8581:8587   */\n      dup2\n        /* \"#utility.yul\":8578:8608   */\n      gt\n        /* \"#utility.yul\":8575:8692   */\n      iszero\n      tag_254\n      jumpi\n        /* \"#utility.yul\":8611:8690   */\n      tag_255\n      tag_107\n      jump\t// in\n    tag_255:\n        /* \"#utility.yul\":8575:8692   */\n    tag_254:\n        /* \"#utility.yul\":8716:8778   */\n      tag_256\n        /* \"#utility.yul\":8770:8777   */\n      dup6\n        /* \"#utility.yul\":8761:8767   */\n      dup3\n        /* \"#utility.yul\":8750:8759   */\n      dup7\n        /* \"#utility.yul\":8746:8768   */\n      add\n        /* \"#utility.yul\":8716:8778   */\n      tag_128\n      jump\t// in\n    tag_256:\n        /* \"#utility.yul\":8706:8778   */\n      swap2\n      pop\n        /* \"#utility.yul\":8501:8788   */\n      pop\n        /* \"#utility.yul\":8143:8795   */\n      swap3\n      pop\n      swap3\n      swap1\n      pop\n      jump\t// out\n        /* \"#utility.yul\":8801:9465   */\n    tag_62:\n        /* \"#utility.yul\":9006:9010   */\n      0x00\n        /* \"#utility.yul\":9044:9047   */\n      0xa0\n        /* \"#utility.yul\":9033:9042   */\n      dup3\n        /* \"#utility.yul\":9029:9048   */\n      add\n        /* \"#utility.yul\":9021:9048   */\n      swap1\n      pop\n        /* \"#utility.yul\":9058:9129   */\n      tag_258\n        /* \"#utility.yul\":9126:9127   */\n      0x00\n        /* \"#utility.yul\":9115:9124   */\n      dup4\n        /* \"#utility.yul\":9111:9128   */\n      add\n        /* \"#utility.yul\":9102:9108   */\n      dup9\n        /* \"#utility.yul\":9058:9129   */\n      tag_113\n      jump\t// in\n    tag_258:\n        /* \"#utility.yul\":9139:9211   */\n      tag_259\n        /* \"#utility.yul\":9207:9209   */\n      0x20\n        /* \"#utility.yul\":9196:9205   */\n      dup4\n        /* \"#utility.yul\":9192:9210   */\n      add\n        /* \"#utility.yul\":9183:9189   */\n      dup8\n        /* \"#utility.yul\":9139:9211   */\n      tag_114\n      jump\t// in\n    tag_259:\n        /* \"#utility.yul\":9221:9293   */\n      tag_260\n        /* \"#utility.yul\":9289:9291   */\n      0x40\n        /* \"#utility.yul\":9278:9287   */\n      dup4\n        /* \"#utility.yul\":9274:9292   */\n      add\n        /* \"#utility.yul\":9265:9271   */\n      dup7\n        /* \"#utility.yul\":9221:9293   */\n      tag_130\n      jump\t// in\n    tag_260:\n        /* \"#utility.yul\":9303:9375   */\n      tag_261\n        /* \"#utility.yul\":9371:9373   */\n      0x60\n        /* \"#utility.yul\":9360:9369   */\n      dup4\n        /* \"#utility.yul\":9356:9374   */\n      add\n        /* \"#utility.yul\":9347:9353   */\n      dup6\n        /* \"#utility.yul\":9303:9375   */\n      tag_114\n      jump\t// in\n    tag_261:\n        /* \"#utility.yul\":9385:9458   */\n      tag_262\n        /* \"#utility.yul\":9453:9456   */\n      0x80\n        /* \"#utility.yul\":9442:9451   */\n      dup4\n        /* \"#utility.yul\":9438:9457   */\n      add\n        /* \"#utility.yul\":9429:9435   */\n      dup5\n        /* \"#utility.yul\":9385:9458   */\n      tag_114\n      jump\t// in\n    tag_262:\n        /* \"#utility.yul\":8801:9465   */\n      swap7\n      swap6\n      pop\n      pop\n      pop\n      pop\n      pop\n      pop\n      jump\t// out\n        /* \"#utility.yul\":9471:9651   */\n    tag_133:\n        /* \"#utility.yul\":9519:9596   */\n      0x4e487b7100000000000000000000000000000000000000000000000000000000\n        /* \"#utility.yul\":9516:9517   */\n      0x00\n        /* \"#utility.yul\":9509:9597   */\n      mstore\n        /* \"#utility.yul\":9616:9620   */\n      0x11\n        /* \"#utility.yul\":9613:9614   */\n      0x04\n        /* \"#utility.yul\":9606:9621   */\n      mstore\n        /* \"#utility.yul\":9640:9644   */\n      0x24\n        /* \"#utility.yul\":9637:9638   */\n      0x00\n        /* \"#utility.yul\":9630:9645   */\n      revert\n        /* \"#utility.yul\":9657:9890   */\n    tag_66:\n        /* \"#utility.yul\":9696:9699   */\n      0x00\n        /* \"#utility.yul\":9719:9743   */\n      tag_265\n        /* \"#utility.yul\":9737:9742   */\n      dup3\n        /* \"#utility.yul\":9719:9743   */\n      tag_108\n      jump\t// in\n    tag_265:\n        /* \"#utility.yul\":9710:9743   */\n      swap2\n      pop\n        /* \"#utility.yul\":9765:9831   */\n      0xffffffffffffffffffffffffffffffffffffffffffffffffffffffffffffffff\n        /* \"#utility.yul\":9758:9763   */\n      dup3\n        /* \"#utility.yul\":9755:9832   */\n      sub\n        /* \"#utility.yul\":9752:9855   */\n      tag_266\n      jumpi\n        /* \"#utility.yul\":9835:9853   */\n      tag_267\n      tag_133\n      jump\t// in\n    tag_267:\n        /* \"#utility.yul\":9752:9855   */\n    tag_266:\n        /* \"#utility.yul\":9882:9883   */\n      0x01\n        /* \"#utility.yul\":9875:9880   */\n      dup3\n        /* \"#utility.yul\":9871:9884   */\n      add\n        /* \"#utility.yul\":9864:9884   */\n      swap1\n      pop\n        /* \"#utility.yul\":9657:9890   */\n      swap2\n      swap1\n      pop\n      jump\t// out\n        /* \"#utility.yul\":9896:9994   */\n    tag_134:\n        /* \"#utility.yul\":9947:9953   */\n      0x00\n        /* \"#utility.yul\":9981:9986   */\n      dup2\n        /* \"#utility.yul\":9975:9987   */\n      mload\n        /* \"#utility.yul\":9965:9987   */\n      swap1\n      pop\n        /* \"#utility.yul\":9896:9994   */\n      swap2\n      swap1\n      pop\n      jump\t// out\n        /* \"#utility.yul\":10000:10147   */\n    tag_135:\n        /* \"#utility.yul\":10101:10112   */\n      0x00\n        /* \"#utility.yul\":10138:10141   */\n      dup2\n        /* \"#utility.yul\":10123:10141   */\n      swap1\n      pop\n        /* \"#utility.yul\":10000:10147   */\n      swap3\n      swap2\n      pop\n      pop\n      jump\t// out\n        /* \"#utility.yul\":10153:10292   */\n    tag_136:\n        /* \"#utility.yul\":10242:10248   */\n      dup3\n        /* \"#utility.yul\":10237:10240   */\n      dup2\n        /* \"#utility.yul\":10232:10235   */\n      dup4\n        /* \"#utility.yul\":10226:10249   */\n      mcopy\n        /* \"#utility.yul\":10283:10284   */\n      0x00\n        /* \"#utility.yul\":10274:10280   */\n      dup4\n        /* \"#utility.yul\":10269:10272   */\n      dup4\n        /* \"#utility.yul\":10265:10281   */\n      add\n        /* \"#utility.yul\":10258:10285   */\n      mstore\n        /* \"#utility.yul\":10153:10292   */\n      pop\n      pop\n      pop\n      jump\t// out\n        /* \"#utility.yul\":10298:10684   */\n    tag_137:\n        /* \"#utility.yul\":10402:10405   */\n      0x00\n        /* \"#utility.yul\":10430:10468   */\n      tag_272\n        /* \"#utility.yul\":10462:10467   */\n      dup3\n        /* \"#utility.yul\":10430:10468   */\n      tag_134\n      jump\t// in\n    tag_272:\n        /* \"#utility.yul\":10484:10572   */\n      tag_273\n        /* \"#utility.yul\":10565:10571   */\n      dup2\n        /* \"#utility.yul\":10560:10563   */\n      dup6\n        /* \"#utility.yul\":10484:10572   */\n      tag_135\n      jump\t// in\n    tag_273:\n        /* \"#utility.yul\":10477:10572   */\n      swap4\n      pop\n        /* \"#utility.yul\":10581:10646   */\n      tag_274\n        /* \"#utility.yul\":10639:10645   */\n      dup2\n        /* \"#utility.yul\":10634:10637   */\n      dup6\n        /* \"#utility.yul\":10627:10631   */\n      0x20\n        /* \"#utility.yul\":10620:10625   */\n      dup7\n        /* \"#utility.yul\":10616:10632   */\n      add\n        /* \"#utility.yul\":10581:10646   */\n      tag_136\n      jump\t// in\n    tag_274:\n        /* \"#utility.yul\":10671:10677   */\n      dup1\n        /* \"#utility.yul\":10666:10669   */\n      dup5\n        /* \"#utility.yul\":10662:10678   */\n      add\n        /* \"#utility.yul\":10655:10678   */\n      swap2\n      pop\n        /* \"#utility.yul\":10406:10684   */\n      pop\n        /* \"#utility.yul\":10298:10684   */\n      swap3\n      swap2\n      pop\n      pop\n      jump\t// out\n        /* \"#utility.yul\":10690:10961   */\n    tag_69:\n        /* \"#utility.yul\":10820:10823   */\n      0x00\n        /* \"#utility.yul\":10842:10935   */\n      tag_276\n        /* \"#utility.yul\":10931:10934   */\n      dup3\n        /* \"#utility.yul\":10922:10928   */\n      dup5\n        /* \"#utility.yul\":10842:10935   */\n      tag_137\n      jump\t// in\n    tag_276:\n        /* \"#utility.yul\":10835:10935   */\n      swap2\n      pop\n        /* \"#utility.yul\":10952:10955   */\n      dup2\n        /* \"#utility.yul\":10945:10955   */\n      swap1\n      pop\n        /* \"#utility.yul\":10690:10961   */\n      swap3\n      swap2\n      pop\n      pop\n      jump\t// out\n        /* \"#utility.yul\":10967:11136   */\n    tag_138:\n        /* \"#utility.yul\":11051:11062   */\n      0x00\n        /* \"#utility.yul\":11085:11091   */\n      dup3\n        /* \"#utility.yul\":11080:11083   */\n      dup3\n        /* \"#utility.yul\":11073:11092   */\n      mstore\n        /* \"#utility.yul\":11125:11129   */\n      0x20\n        /* \"#utility.yul\":11120:11123   */\n      dup3\n        /* \"#utility.yul\":11116:11130   */\n      add\n        /* \"#utility.yul\":11101:11130   */\n      swap1\n      pop\n        /* \"#utility.yul\":10967:11136   */\n      swap3\n      swap2\n      pop\n      pop\n      jump\t// out\n        /* \"#utility.yul\":11142:11299   */\n    tag_139:\n        /* \"#utility.yul\":11282:11291   */\n      0x5754463530303400000000000000000000000000000000000000000000000000\n        /* \"#utility.yul\":11278:11279   */\n      0x00\n        /* \"#utility.yul\":11270:11276   */\n      dup3\n        /* \"#utility.yul\":11266:11280   */\n      add\n        /* \"#utility.yul\":11259:11292   */\n      mstore\n        /* \"#utility.yul\":11142:11299   */\n      pop\n      jump\t// out\n        /* \"#utility.yul\":11305:11670   */\n    tag_140:\n        /* \"#utility.yul\":11447:11450   */\n      0x00\n        /* \"#utility.yul\":11468:11534   */\n      tag_280\n        /* \"#utility.yul\":11532:11533   */\n      0x07\n        /* \"#utility.yul\":11527:11530   */\n      dup4\n        /* \"#utility.yul\":11468:11534   */\n      tag_138\n      jump\t// in\n    tag_280:\n        /* \"#utility.yul\":11461:11534   */\n      swap2\n      pop\n        /* \"#utility.yul\":11543:11636   */\n      tag_281\n        /* \"#utility.yul\":11632:11635   */\n      dup3\n        /* \"#utility.yul\":11543:11636   */\n      tag_139\n      jump\t// in\n    tag_281:\n        /* \"#utility.yul\":11661:11663   */\n      0x20\n        /* \"#utility.yul\":11656:11659   */\n      dup3\n        /* \"#utility.yul\":11652:11664   */\n      add\n        /* \"#utility.yul\":11645:11664   */\n      swap1\n      pop\n        /* \"#utility.yul\":11305:11670   */\n      swap2\n      swap1\n      pop\n      jump\t// out\n        /* \"#utility.yul\":11676:12095   */\n    tag_75:\n        /* \"#utility.yul\":11842:11846   */\n      0x00\n        /* \"#utility.yul\":11880:11882   */\n      0x20\n        /* \"#utility.yul\":11869:11878   */\n      dup3\n        /* \"#utility.yul\":11865:11883   */\n      add\n        /* \"#utility.yul\":11857:11883   */\n      swap1\n      pop\n        /* \"#utility.yul\":11929:11938   */\n      dup2\n        /* \"#utility.yul\":11923:11927   */\n      dup2\n        /* \"#utility.yul\":11919:11939   */\n      sub\n        /* \"#utility.yul\":11915:11916   */\n      0x00\n        /* \"#utility.yul\":11904:11913   */\n      dup4\n        /* \"#utility.yul\":11900:11917   */\n      add\n        /* \"#utility.yul\":11893:11940   */\n      mstore\n        /* \"#utility.yul\":11957:12088   */\n      tag_283\n        /* \"#utility.yul\":12083:12087   */\n      dup2\n        /* \"#utility.yul\":11957:12088   */\n      tag_140\n      jump\t// in\n    tag_283:\n        /* \"#utility.yul\":11949:12088   */\n      swap1\n      pop\n        /* \"#utility.yul\":11676:12095   */\n      swap2\n      swap1\n      pop\n      jump\t// out\n        /* \"#utility.yul\":12101:12258   */\n    tag_141:\n        /* \"#utility.yul\":12241:12250   */\n      0x5754463530303500000000000000000000000000000000000000000000000000\n        /* \"#utility.yul\":12237:12238   */\n      0x00\n        /* \"#utility.yul\":12229:12235   */\n      dup3\n        /* \"#utility.yul\":12225:12239   */\n      add\n        /* \"#utility.yul\":12218:12251   */\n      mstore\n        /* \"#utility.yul\":12101:12258   */\n      pop\n      jump\t// out\n        /* \"#utility.yul\":12264:12629   */\n    tag_142:\n        /* \"#utility.yul\":12406:12409   */\n      0x00\n        /* \"#utility.yul\":12427:12493   */\n      tag_286\n        /* \"#utility.yul\":12491:12492   */\n      0x07\n        /* \"#utility.yul\":12486:12489   */\n      dup4\n        /* \"#utility.yul\":12427:12493   */\n      tag_138\n      jump\t// in\n    tag_286:\n        /* \"#utility.yul\":12420:12493   */\n      swap2\n      pop\n        /* \"#utility.yul\":12502:12595   */\n      tag_287\n        /* \"#utility.yul\":12591:12594   */\n      dup3\n        /* \"#utility.yul\":12502:12595   */\n      tag_141\n      jump\t// in\n    tag_287:\n        /* \"#utility.yul\":12620:12622   */\n      0x20\n        /* \"#utility.yul\":12615:12618   */\n      dup3\n        /* \"#utility.yul\":12611:12623   */\n      add\n        /* \"#utility.yul\":12604:12623   */\n      swap1\n      pop\n        /* \"#utility.yul\":12264:12629   */\n      swap2\n      swap1\n      pop\n      jump\t// out\n        /* \"#utility.yul\":12635:13054   */\n    tag_83:\n        /* \"#utility.yul\":12801:12805   */\n      0x00\n        /* \"#utility.yul\":12839:12841   */\n      0x20\n        /* \"#utility.yul\":12828:12837   */\n      dup3\n        /* \"#utility.yul\":12824:12842   */\n      add\n        /* \"#utility.yul\":12816:12842   */\n      swap1\n      pop\n        /* \"#utility.yul\":12888:12897   */\n      dup2\n        /* \"#utility.yul\":12882:12886   */\n      dup2\n        /* \"#utility.yul\":12878:12898   */\n      sub\n        /* \"#utility.yul\":12874:12875   */\n      0x00\n        /* \"#utility.yul\":12863:12872   */\n      dup4\n        /* \"#utility.yul\":12859:12876   */\n      add\n        /* \"#utility.yul\":12852:12899   */\n      mstore\n        /* \"#utility.yul\":12916:13047   */\n      tag_289\n        /* \"#utility.yul\":13042:13046   */\n      dup2\n        /* \"#utility.yul\":12916:13047   */\n      tag_142\n      jump\t// in\n    tag_289:\n        /* \"#utility.yul\":12908:13047   */\n      swap1\n      pop\n        /* \"#utility.yul\":12635:13054   */\n      swap2\n      swap1\n      pop\n      jump\t// out\n        /* \"#utility.yul\":13060:13470   */\n    tag_85:\n        /* \"#utility.yul\":13100:13107   */\n      0x00\n        /* \"#utility.yul\":13123:13143   */\n      tag_291\n        /* \"#utility.yul\":13141:13142   */\n      dup3\n        /* \"#utility.yul\":13123:13143   */\n      tag_108\n      jump\t// in\n    tag_291:\n        /* \"#utility.yul\":13118:13143   */\n      swap2\n      pop\n        /* \"#utility.yul\":13157:13177   */\n      tag_292\n        /* \"#utility.yul\":13175:13176   */\n      dup4\n        /* \"#utility.yul\":13157:13177   */\n      tag_108\n      jump\t// in\n    tag_292:\n        /* \"#utility.yul\":13152:13177   */\n      swap3\n      pop\n        /* \"#utility.yul\":13212:13213   */\n      dup3\n        /* \"#utility.yul\":13209:13210   */\n      dup3\n        /* \"#utility.yul\":13205:13214   */\n      mul\n        /* \"#utility.yul\":13234:13264   */\n      tag_293\n        /* \"#utility.yul\":13252:13263   */\n      dup2\n        /* \"#utility.yul\":13234:13264   */\n      tag_108\n      jump\t// in\n    tag_293:\n        /* \"#utility.yul\":13223:13264   */\n      swap2\n      pop\n        /* \"#utility.yul\":13413:13414   */\n      dup3\n        /* \"#utility.yul\":13404:13411   */\n      dup3\n        /* \"#utility.yul\":13400:13415   */\n      div\n        /* \"#utility.yul\":13397:13398   */\n      dup5\n        /* \"#utility.yul\":13394:13416   */\n      eq\n        /* \"#utility.yul\":13374:13375   */\n      dup4\n        /* \"#utility.yul\":13367:13376   */\n      iszero\n        /* \"#utility.yul\":13347:13430   */\n      or\n        /* \"#utility.yul\":13324:13463   */\n      tag_294\n      jumpi\n        /* \"#utility.yul\":13443:13461   */\n      tag_295\n      tag_133\n      jump\t// in\n    tag_295:\n        /* \"#utility.yul\":13324:13463   */\n    tag_294:\n        /* \"#utility.yul\":13108:13470   */\n      pop\n        /* \"#utility.yul\":13060:13470   */\n      swap3\n      swap2\n      pop\n      pop\n      jump\t// out\n        /* \"#utility.yul\":13476:13633   */\n    tag_143:\n        /* \"#utility.yul\":13616:13625   */\n      0x5754463530303600000000000000000000000000000000000000000000000000\n        /* \"#utility.yul\":13612:13613   */\n      0x00\n        /* \"#utility.yul\":13604:13610   */\n      dup3\n        /* \"#utility.yul\":13600:13614   */\n      add\n        /* \"#utility.yul\":13593:13626   */\n      mstore\n        /* \"#utility.yul\":13476:13633   */\n      pop\n      jump\t// out\n        /* \"#utility.yul\":13639:14004   */\n    tag_144:\n        /* \"#utility.yul\":13781:13784   */\n      0x00\n        /* \"#utility.yul\":13802:13868   */\n      tag_298\n        /* \"#utility.yul\":13866:13867   */\n      0x07\n        /* \"#utility.yul\":13861:13864   */\n      dup4\n        /* \"#utility.yul\":13802:13868   */\n      tag_138\n      jump\t// in\n    tag_298:\n        /* \"#utility.yul\":13795:13868   */\n      swap2\n      pop\n        /* \"#utility.yul\":13877:13970   */\n      tag_299\n        /* \"#utility.yul\":13966:13969   */\n      dup3\n        /* \"#utility.yul\":13877:13970   */\n      tag_143\n      jump\t// in\n    tag_299:\n        /* \"#utility.yul\":13995:13997   */\n      0x20\n        /* \"#utility.yul\":13990:13993   */\n      dup3\n        /* \"#utility.yul\":13986:13998   */\n      add\n        /* \"#utility.yul\":13979:13998   */\n      swap1\n      pop\n        /* \"#utility.yul\":13639:14004   */\n      swap2\n      swap1\n      pop\n      jump\t// out\n        /* \"#utility.yul\":14010:14429   */\n    tag_88:\n        /* \"#utility.yul\":14176:14180   */\n      0x00\n        /* \"#utility.yul\":14214:14216   */\n      0x20\n        /* \"#utility.yul\":14203:14212   */\n      dup3\n        /* \"#utility.yul\":14199:14217   */\n      add\n        /* \"#utility.yul\":14191:14217   */\n      swap1\n      pop\n        /* \"#utility.yul\":14263:14272   */\n      dup2\n        /* \"#utility.yul\":14257:14261   */\n      dup2\n        /* \"#utility.yul\":14253:14273   */\n      sub\n        /* \"#utility.yul\":14249:14250   */\n      0x00\n        /* \"#utility.yul\":14238:14247   */\n      dup4\n        /* \"#utility.yul\":14234:14251   */\n      add\n        /* \"#utility.yul\":14227:14274   */\n      mstore\n        /* \"#utility.yul\":14291:14422   */\n      tag_301\n        /* \"#utility.yul\":14417:14421   */\n      dup2\n        /* \"#utility.yul\":14291:14422   */\n      tag_144\n      jump\t// in\n    tag_301:\n        /* \"#utility.yul\":14283:14422   */\n      swap1\n      pop\n        /* \"#utility.yul\":14010:14429   */\n      swap2\n      swap1\n      pop\n      jump\t// out\n        /* \"#utility.yul\":14435:14583   */\n    tag_145:\n        /* \"#utility.yul\":14537:14548   */\n      0x00\n        /* \"#utility.yul\":14574:14577   */\n      dup2\n        /* \"#utility.yul\":14559:14577   */\n      swap1\n      pop\n        /* \"#utility.yul\":14435:14583   */\n      swap3\n      swap2\n      pop\n      pop\n      jump\t// out\n        /* \"#utility.yul\":14589:14803   */\n    tag_146:\n        /* \"#utility.yul\":14729:14795   */\n      0x19457468657265756d205369676e6564204d6573736167653a0a333200000000\n        /* \"#utility.yul\":14725:14726   */\n      0x00\n        /* \"#utility.yul\":14717:14723   */\n      dup3\n        /* \"#utility.yul\":14713:14727   */\n      add\n        /* \"#utility.yul\":14706:14796   */\n      mstore\n        /* \"#utility.yul\":14589:14803   */\n      pop\n      jump\t// out\n        /* \"#utility.yul\":14809:15211   */\n    tag_147:\n        /* \"#utility.yul\":14969:14972   */\n      0x00\n        /* \"#utility.yul\":14990:15075   */\n      tag_305\n        /* \"#utility.yul\":15072:15074   */\n      0x1c\n        /* \"#utility.yul\":15067:15070   */\n      dup4\n        /* \"#utility.yul\":14990:15075   */\n      tag_145\n      jump\t// in\n    tag_305:\n        /* \"#utility.yul\":14983:15075   */\n      swap2\n      pop\n        /* \"#utility.yul\":15084:15177   */\n      tag_306\n        /* \"#utility.yul\":15173:15176   */\n      dup3\n        /* \"#utility.yul\":15084:15177   */\n      tag_146\n      jump\t// in\n    tag_306:\n        /* \"#utility.yul\":15202:15204   */\n      0x1c\n        /* \"#utility.yul\":15197:15200   */\n      dup3\n        /* \"#utility.yul\":15193:15205   */\n      add\n        /* \"#utility.yul\":15186:15205   */\n      swap1\n      pop\n        /* \"#utility.yul\":14809:15211   */\n      swap2\n      swap1\n      pop\n      jump\t// out\n        /* \"#utility.yul\":15217:15296   */\n    tag_148:\n        /* \"#utility.yul\":15256:15263   */\n      0x00\n        /* \"#utility.yul\":15285:15290   */\n      dup2\n        /* \"#utility.yul\":15274:15290   */\n      swap1\n      pop\n        /* \"#utility.yul\":15217:15296   */\n      swap2\n      swap1\n      pop\n      jump\t// out\n        /* \"#utility.yul\":15302:15459   */\n    tag_149:\n        /* \"#utility.yul\":15407:15452   */\n      tag_309\n        /* \"#utility.yul\":15427:15451   */\n      tag_310\n        /* \"#utility.yul\":15445:15450   */\n      dup3\n        /* \"#utility.yul\":15427:15451   */\n      tag_129\n      jump\t// in\n    tag_310:\n        /* \"#utility.yul\":15407:15452   */\n      tag_148\n      jump\t// in\n    tag_309:\n        /* \"#utility.yul\":15402:15405   */\n      dup3\n        /* \"#utility.yul\":15395:15453   */\n      mstore\n        /* \"#utility.yul\":15302:15459   */\n      pop\n      pop\n      jump\t// out\n        /* \"#utility.yul\":15465:15987   */\n    tag_95:\n        /* \"#utility.yul\":15678:15681   */\n      0x00\n        /* \"#utility.yul\":15700:15848   */\n      tag_312\n        /* \"#utility.yul\":15844:15847   */\n      dup3\n        /* \"#utility.yul\":15700:15848   */\n      tag_147\n      jump\t// in\n    tag_312:\n        /* \"#utility.yul\":15693:15848   */\n      swap2\n      pop\n        /* \"#utility.yul\":15858:15933   */\n      tag_313\n        /* \"#utility.yul\":15929:15932   */\n      dup3\n        /* \"#utility.yul\":15920:15926   */\n      dup5\n        /* \"#utility.yul\":15858:15933   */\n      tag_149\n      jump\t// in\n    tag_313:\n        /* \"#utility.yul\":15958:15960   */\n      0x20\n        /* \"#utility.yul\":15953:15956   */\n      dup3\n        /* \"#utility.yul\":15949:15961   */\n      add\n        /* \"#utility.yul\":15942:15961   */\n      swap2\n      pop\n        /* \"#utility.yul\":15978:15981   */\n      dup2\n        /* \"#utility.yul\":15971:15981   */\n      swap1\n      pop\n        /* \"#utility.yul\":15465:15987   */\n      swap3\n      swap2\n      pop\n      pop\n      jump\t// out\n        /* \"#utility.yul\":15993:16079   */\n    tag_150:\n        /* \"#utility.yul\":16028:16035   */\n      0x00\n        /* \"#utility.yul\":16068:16072   */\n      0xff\n        /* \"#utility.yul\":16061:16066   */\n      dup3\n        /* \"#utility.yul\":16057:16073   */\n      and\n        /* \"#utility.yul\":16046:16073   */\n      swap1\n      pop\n        /* \"#utility.yul\":15993:16079   */\n      swap2\n      swap1\n      pop\n      jump\t// out\n        /* \"#utility.yul\":16085:16197   */\n    tag_151:\n        /* \"#utility.yul\":16168:16190   */\n      tag_316\n        /* \"#utility.yul\":16184:16189   */\n      dup2\n        /* \"#utility.yul\":16168:16190   */\n      tag_150\n      jump\t// in\n    tag_316:\n        /* \"#utility.yul\":16163:16166   */\n      dup3\n        /* \"#utility.yul\":16156:16191   */\n      mstore\n        /* \"#utility.yul\":16085:16197   */\n      pop\n      pop\n      jump\t// out\n        /* \"#utility.yul\":16203:16748   */\n    tag_97:\n        /* \"#utility.yul\":16376:16380   */\n      0x00\n        /* \"#utility.yul\":16414:16417   */\n      0x80\n        /* \"#utility.yul\":16403:16412   */\n      dup3\n        /* \"#utility.yul\":16399:16418   */\n      add\n        /* \"#utility.yul\":16391:16418   */\n      swap1\n      pop\n        /* \"#utility.yul\":16428:16499   */\n      tag_318\n        /* \"#utility.yul\":16496:16497   */\n      0x00\n        /* \"#utility.yul\":16485:16494   */\n      dup4\n        /* \"#utility.yul\":16481:16498   */\n      add\n        /* \"#utility.yul\":16472:16478   */\n      dup8\n        /* \"#utility.yul\":16428:16499   */\n      tag_130\n      jump\t// in\n    tag_318:\n        /* \"#utility.yul\":16509:16577   */\n      tag_319\n        /* \"#utility.yul\":16573:16575   */\n      0x20\n        /* \"#utility.yul\":16562:16571   */\n      dup4\n        /* \"#utility.yul\":16558:16576   */\n      add\n        /* \"#utility.yul\":16549:16555   */\n      dup7\n        /* \"#utility.yul\":16509:16577   */\n      tag_151\n      jump\t// in\n    tag_319:\n        /* \"#utility.yul\":16587:16659   */\n      tag_320\n        /* \"#utility.yul\":16655:16657   */\n      0x40\n        /* \"#utility.yul\":16644:16653   */\n      dup4\n        /* \"#utility.yul\":16640:16658   */\n      add\n        /* \"#utility.yul\":16631:16637   */\n      dup6\n        /* \"#utility.yul\":16587:16659   */\n      tag_130\n      jump\t// in\n    tag_320:\n        /* \"#utility.yul\":16669:16741   */\n      tag_321\n        /* \"#utility.yul\":16737:16739   */\n      0x60\n        /* \"#utility.yul\":16726:16735   */\n      dup4\n        /* \"#utility.yul\":16722:16740   */\n      add\n        /* \"#utility.yul\":16713:16719   */\n      dup5\n        /* \"#utility.yul\":16669:16741   */\n      tag_130\n      jump\t// in\n    tag_321:\n        /* \"#utility.yul\":16203:16748   */\n      swap6\n      swap5\n      pop\n      pop\n      pop\n      pop\n      pop\n      jump\t// out\n        /* \"#utility.yul\":16754:16911   */\n    tag_152:\n        /* \"#utility.yul\":16894:16903   */\n      0x5754463530303700000000000000000000000000000000000000000000000000\n        /* \"#utility.yul\":16890:16891   */\n      0x00\n        /* \"#utility.yul\":16882:16888   */\n      dup3\n        /* \"#utility.yul\":16878:16892   */\n      add\n        /* \"#utility.yul\":16871:16904   */\n      mstore\n        /* \"#utility.yul\":16754:16911   */\n      pop\n      jump\t// out\n        /* \"#utility.yul\":16917:17282   */\n    tag_153:\n        /* \"#utility.yul\":17059:17062   */\n      0x00\n        /* \"#utility.yul\":17080:17146   */\n      tag_324\n        /* \"#utility.yul\":17144:17145   */\n      0x07\n        /* \"#utility.yul\":17139:17142   */\n      dup4\n        /* \"#utility.yul\":17080:17146   */\n      tag_138\n      jump\t// in\n    tag_324:\n        /* \"#utility.yul\":17073:17146   */\n      swap2\n      pop\n        /* \"#utility.yul\":17155:17248   */\n      tag_325\n        /* \"#utility.yul\":17244:17247   */\n      dup3\n        /* \"#utility.yul\":17155:17248   */\n      tag_152\n      jump\t// in\n    tag_325:\n        /* \"#utility.yul\":17273:17275   */\n      0x20\n        /* \"#utility.yul\":17268:17271   */\n      dup3\n        /* \"#utility.yul\":17264:17276   */\n      add\n        /* \"#utility.yul\":17257:17276   */\n      swap1\n      pop\n        /* \"#utility.yul\":16917:17282   */\n      swap2\n      swap1\n      pop\n      jump\t// out\n        /* \"#utility.yul\":17288:17707   */\n    tag_103:\n        /* \"#utility.yul\":17454:17458   */\n      0x00\n        /* \"#utility.yul\":17492:17494   */\n      0x20\n        /* \"#utility.yul\":17481:17490   */\n      dup3\n        /* \"#utility.yul\":17477:17495   */\n      add\n        /* \"#utility.yul\":17469:17495   */\n      swap1\n      pop\n        /* \"#utility.yul\":17541:17550   */\n      dup2\n        /* \"#utility.yul\":17535:17539   */\n      dup2\n        /* \"#utility.yul\":17531:17551   */\n      sub\n        /* \"#utility.yul\":17527:17528   */\n      0x00\n        /* \"#utility.yul\":17516:17525   */\n      dup4\n        /* \"#utility.yul\":17512:17529   */\n      add\n        /* \"#utility.yul\":17505:17552   */\n      mstore\n        /* \"#utility.yul\":17569:17700   */\n      tag_327\n        /* \"#utility.yul\":17695:17699   */\n      dup2\n        /* \"#utility.yul\":17569:17700   */\n      tag_153\n      jump\t// in\n    tag_327:\n        /* \"#utility.yul\":17561:17700   */\n      swap1\n      pop\n        /* \"#utility.yul\":17288:17707   */\n      swap2\n      swap1\n      pop\n      jump\t// out\n\n    auxdata: 0xa2646970667358221220b3647377408a0c8d2019c016a48ca8abc1bef76f517caaeda2a8dae63a962c9a64736f6c634300081e0033\n}\n",
				"bytecode": {
					"linkReferences": {},
					"object": "608060405234801561000f575f5ffd5b50604051611687380380611687833981810160405281019061003191906104fd565b610041828261004860201b60201c565b5050610734565b5f6003541461008c576040517f08c379a0000000000000000000000000000000000000000000000000000000008152600401610083906105b1565b60405180910390fd5b81518111156100d0576040517f08c379a00000000000000000000000000000000000000000000000000000000081526004016100c790610619565b60405180910390fd5b6001811015610114576040517f08c379a000000000000000000000000000000000000000000000000000000000815260040161010b90610681565b60405180910390fd5b5f5f90505b82518110156102fb575f8382815181106101365761013561069f565b5b602002602001015190505f73ffffffffffffffffffffffffffffffffffffffff168173ffffffffffffffffffffffffffffffffffffffff16141580156101a857503073ffffffffffffffffffffffffffffffffffffffff168173ffffffffffffffffffffffffffffffffffffffff1614155b80156101fb575060015f8273ffffffffffffffffffffffffffffffffffffffff1673ffffffffffffffffffffffffffffffffffffffff1681526020019081526020015f205f9054906101000a900460ff16155b61023a576040517f08c379a000000000000000000000000000000000000000000000000000000000815260040161023190610716565b60405180910390fd5b5f81908060018154018082558091505060019003905f5260205f20015f9091909190916101000a81548173ffffffffffffffffffffffffffffffffffffffff021916908373ffffffffffffffffffffffffffffffffffffffff1602179055506001805f8373ffffffffffffffffffffffffffffffffffffffff1673ffffffffffffffffffffffffffffffffffffffff1681526020019081526020015f205f6101000a81548160ff021916908315150217905550508080600101915050610119565b508151600281905550806003819055505050565b5f604051905090565b5f5ffd5b5f5ffd5b5f5ffd5b5f601f19601f8301169050919050565b7f4e487b71000000000000000000000000000000000000000000000000000000005f52604160045260245ffd5b61036a82610324565b810181811067ffffffffffffffff8211171561038957610388610334565b5b80604052505050565b5f61039b61030f565b90506103a78282610361565b919050565b5f67ffffffffffffffff8211156103c6576103c5610334565b5b602082029050602081019050919050565b5f5ffd5b5f73ffffffffffffffffffffffffffffffffffffffff82169050919050565b5f610404826103db565b9050919050565b610414816103fa565b811461041e575f5ffd5b50565b5f8151905061042f8161040b565b92915050565b5f610447610442846103ac565b610392565b9050808382526020820190506020840283018581111561046a576104696103d7565b5b835b81811015610493578061047f8882610421565b84526020840193505060208101905061046c565b5050509392505050565b5f82601f8301126104b1576104b0610320565b5b81516104c1848260208601610435565b91505092915050565b5f819050919050565b6104dc816104ca565b81146104e6575f5ffd5b50565b5f815190506104f7816104d3565b92915050565b5f5f6040838503121561051357610512610318565b5b5f83015167ffffffffffffffff8111156105305761052f61031c565b5b61053c8582860161049d565b925050602061054d858286016104e9565b9150509250929050565b5f82825260208201905092915050565b7f57544635303030000000000000000000000000000000000000000000000000005f82015250565b5f61059b600783610557565b91506105a682610567565b602082019050919050565b5f6020820190508181035f8301526105c88161058f565b9050919050565b7f57544635303031000000000000000000000000000000000000000000000000005f82015250565b5f610603600783610557565b915061060e826105cf565b602082019050919050565b5f6020820190508181035f830152610630816105f7565b9050919050565b7f57544635303032000000000000000000000000000000000000000000000000005f82015250565b5f61066b600783610557565b915061067682610637565b602082019050919050565b5f6020820190508181035f8301526106988161065f565b9050919050565b7f4e487b71000000000000000000000000000000000000000000000000000000005f52603260045260245ffd5b7f57544635303033000000000000000000000000000000000000000000000000005f82015250565b5f610700600783610557565b915061070b826106cc565b602082019050919050565b5f6020820190508181035f83015261072d816106f4565b9050919050565b610f46806107415f395ff3fe60806040526004361061007e575f3560e01c8063a67dd5091161004d578063a67dd50914610155578063affed0e014610191578063d01aa318146101bb578063ed516d51146101eb57610085565b8063025e7c27146100895780630db02622146100c55780632f54bf6e146100ef57806342cde4e81461012b57610085565b3661008557005b5f5ffd5b348015610094575f5ffd5b506100af60048036038101906100aa91906106a8565b610213565b6040516100bc9190610712565b60405180910390f35b3480156100d0575f5ffd5b506100d961024d565b6040516100e6919061073a565b60405180910390f35b3480156100fa575f5ffd5b506101156004803603810190610110919061077d565b610253565b60405161012291906107c2565b60405180910390f35b348015610136575f5ffd5b5061013f610270565b60405161014c919061073a565b60405180910390f35b348015610160575f5ffd5b5061017b60048036038101906101769190610917565b610276565b60405161018891906109c2565b60405180910390f35b34801561019c575f5ffd5b506101a56102bd565b6040516101b2919061073a565b60405180910390f35b6101d560048036038101906101d091906109db565b6102c3565b6040516101e291906107c2565b60405180910390f35b3480156101f6575f5ffd5b50610211600480360381019061020c9190610aa1565b610425565b005b5f8181548110610221575f80fd5b905f5260205f20015f915054906101000a900473ffffffffffffffffffffffffffffffffffffffff1681565b60025481565b6001602052805f5260405f205f915054906101000a900460ff1681565b60035481565b5f5f868686805190602001208686604051602001610298959493929190610afb565b6040516020818303038152906040528051906020012090508091505095945050505050565b60045481565b5f5f6102d486868660045446610276565b905060045f8154809291906102e890610b79565b91905055506102f78184610425565b8573ffffffffffffffffffffffffffffffffffffffff16858560405161031d9190610c12565b5f6040518083038185875af1925050503d805f8114610357576040519150601f19603f3d011682016040523d82523d5f602084013e61035c565b606091505b505080925050816103a2576040517f08c379a000000000000000000000000000000000000000000000000000000000815260040161039990610c82565b60405180910390fd5b81156103e4577fdc29884a71d2bb98d3c53dc09718be05c7bfd142b7773a5c5cf2517629290ac0816040516103d791906109c2565b60405180910390a161041c565b7fdbe42d02a4e07d7eeff2874efe172540c93b297d206f6d691c9782a257323e328160405161041391906109c2565b60405180910390a15b50949350505050565b5f60035490505f811161046d576040517f08c379a000000000000000000000000000000000000000000000000000000000815260040161046490610cea565b60405180910390fd5b60418161047a9190610d08565b825110156104bd576040517f08c379a00000000000000000000000000000000000000000000000000000000081526004016104b490610d93565b60405180910390fd5b5f5f90505f5f5f5f5f5f90505b8681101561062c576104dc8882610637565b8094508195508296505050506001896040516020016104fb9190610e25565b604051602081830303815290604052805190602001208585856040515f81526020016040526040516105309493929190610e65565b6020604051602081039080840390855afa158015610550573d5f5f3e3d5ffd5b5050506020604051035194508573ffffffffffffffffffffffffffffffffffffffff168573ffffffffffffffffffffffffffffffffffffffff161180156105dd575060015f8673ffffffffffffffffffffffffffffffffffffffff1673ffffffffffffffffffffffffffffffffffffffff1681526020019081526020015f205f9054906101000a900460ff165b61061c576040517f08c379a000000000000000000000000000000000000000000000000000000000815260040161061390610ef2565b60405180910390fd5b84955080806001019150506104ca565b505050505050505050565b5f5f5f8360410260208101860151925060408101860151915060ff60418201870151169350509250925092565b5f604051905090565b5f5ffd5b5f5ffd5b5f819050919050565b61068781610675565b8114610691575f5ffd5b50565b5f813590506106a28161067e565b92915050565b5f602082840312156106bd576106bc61066d565b5b5f6106ca84828501610694565b91505092915050565b5f73ffffffffffffffffffffffffffffffffffffffff82169050919050565b5f6106fc826106d3565b9050919050565b61070c816106f2565b82525050565b5f6020820190506107255f830184610703565b92915050565b61073481610675565b82525050565b5f60208201905061074d5f83018461072b565b92915050565b61075c816106f2565b8114610766575f5ffd5b50565b5f8135905061077781610753565b92915050565b5f602082840312156107925761079161066d565b5b5f61079f84828501610769565b91505092915050565b5f8115159050919050565b6107bc816107a8565b82525050565b5f6020820190506107d55f8301846107b3565b92915050565b5f5ffd5b5f5ffd5b5f601f19601f8301169050919050565b7f4e487b71000000000000000000000000000000000000000000000000000000005f52604160045260245ffd5b610829826107e3565b810181811067ffffffffffffffff82111715610848576108476107f3565b5b80604052505050565b5f61085a610664565b90506108668282610820565b919050565b5f67ffffffffffffffff821115610885576108846107f3565b5b61088e826107e3565b9050602081019050919050565b828183375f83830152505050565b5f6108bb6108b68461086b565b610851565b9050828152602081018484840111156108d7576108d66107df565b5b6108e284828561089b565b509392505050565b5f82601f8301126108fe576108fd6107db565b5b813561090e8482602086016108a9565b91505092915050565b5f5f5f5f5f60a086880312156109305761092f61066d565b5b5f61093d88828901610769565b955050602061094e88828901610694565b945050604086013567ffffffffffffffff81111561096f5761096e610671565b5b61097b888289016108ea565b935050606061098c88828901610694565b925050608061099d88828901610694565b9150509295509295909350565b5f819050919050565b6109bc816109aa565b82525050565b5f6020820190506109d55f8301846109b3565b92915050565b5f5f5f5f608085870312156109f3576109f261066d565b5b5f610a0087828801610769565b9450506020610a1187828801610694565b935050604085013567ffffffffffffffff811115610a3257610a31610671565b5b610a3e878288016108ea565b925050606085013567ffffffffffffffff811115610a5f57610a5e610671565b5b610a6b878288016108ea565b91505092959194509250565b610a80816109aa565b8114610a8a575f5ffd5b50565b5f81359050610a9b81610a77565b92915050565b5f5f60408385031215610ab757610ab661066d565b5b5f610ac485828601610a8d565b925050602083013567ffffffffffffffff811115610ae557610ae4610671565b5b610af1858286016108ea565b9150509250929050565b5f60a082019050610b0e5f830188610703565b610b1b602083018761072b565b610b2860408301866109b3565b610b35606083018561072b565b610b42608083018461072b565b9695505050505050565b7f4e487b71000000000000000000000000000000000000000000000000000000005f52601160045260245ffd5b5f610b8382610675565b91507fffffffffffffffffffffffffffffffffffffffffffffffffffffffffffffffff8203610bb557610bb4610b4c565b5b600182019050919050565b5f81519050919050565b5f81905092915050565b8281835e5f83830152505050565b5f610bec82610bc0565b610bf68185610bca565b9350610c06818560208601610bd4565b80840191505092915050565b5f610c1d8284610be2565b915081905092915050565b5f82825260208201905092915050565b7f57544635303034000000000000000000000000000000000000000000000000005f82015250565b5f610c6c600783610c28565b9150610c7782610c38565b602082019050919050565b5f6020820190508181035f830152610c9981610c60565b9050919050565b7f57544635303035000000000000000000000000000000000000000000000000005f82015250565b5f610cd4600783610c28565b9150610cdf82610ca0565b602082019050919050565b5f6020820190508181035f830152610d0181610cc8565b9050919050565b5f610d1282610675565b9150610d1d83610675565b9250828202610d2b81610675565b91508282048414831517610d4257610d41610b4c565b5b5092915050565b7f57544635303036000000000000000000000000000000000000000000000000005f82015250565b5f610d7d600783610c28565b9150610d8882610d49565b602082019050919050565b5f6020820190508181035f830152610daa81610d71565b9050919050565b5f81905092915050565b7f19457468657265756d205369676e6564204d6573736167653a0a3332000000005f82015250565b5f610def601c83610db1565b9150610dfa82610dbb565b601c82019050919050565b5f819050919050565b610e1f610e1a826109aa565b610e05565b82525050565b5f610e2f82610de3565b9150610e3b8284610e0e565b60208201915081905092915050565b5f60ff82169050919050565b610e5f81610e4a565b82525050565b5f608082019050610e785f8301876109b3565b610e856020830186610e56565b610e9260408301856109b3565b610e9f60608301846109b3565b95945050505050565b7f57544635303037000000000000000000000000000000000000000000000000005f82015250565b5f610edc600783610c28565b9150610ee782610ea8565b602082019050919050565b5f6020820190508181035f830152610f0981610ed0565b905091905056fea2646970667358221220b3647377408a0c8d2019c016a48ca8abc1bef76f517caaeda2a8dae63a962c9a64736f6c634300081e0033",
					"opcodes": "PUSH1 0x80 PUSH1 0x40 MSTORE CALLVALUE DUP1 ISZERO PUSH2 0xF JUMPI PUSH0 PUSH0 REVERT JUMPDEST POP PUSH1 0x40 MLOAD PUSH2 0x1687 CODESIZE SUB DUP1 PUSH2 0x1687 DUP4 CODECOPY DUP2 DUP2 ADD PUSH1 0x40 MSTORE DUP2 ADD SWAP1 PUSH2 0x31 SWAP2 SWAP1 PUSH2 0x4FD JUMP JUMPDEST PUSH2 0x41 DUP3 DUP3 PUSH2 0x48 PUSH1 0x20 SHL PUSH1 0x20 SHR JUMP JUMPDEST POP POP PUSH2 0x734 JUMP JUMPDEST PUSH0 PUSH1 0x3 SLOAD EQ PUSH2 0x8C JUMPI PUSH1 0x40 MLOAD PUSH32 0x8C379A000000000000000000000000000000000000000000000000000000000 DUP2 MSTORE PUSH1 0x4 ADD PUSH2 0x83 SWAP1 PUSH2 0x5B1 JUMP JUMPDEST PUSH1 0x40 MLOAD DUP1 SWAP2 SUB SWAP1 REVERT JUMPDEST DUP2 MLOAD DUP2 GT ISZERO PUSH2 0xD0 JUMPI PUSH1 0x40 MLOAD PUSH32 0x8C379A000000000000000000000000000000000000000000000000000000000 DUP2 MSTORE PUSH1 0x4 ADD PUSH2 0xC7 SWAP1 PUSH2 0x619 JUMP JUMPDEST PUSH1 0x40 MLOAD DUP1 SWAP2 SUB SWAP1 REVERT JUMPDEST PUSH1 0x1 DUP2 LT ISZERO PUSH2 0x114 JUMPI PUSH1 0x40 MLOAD PUSH32 0x8C379A000000000000000000000000000000000000000000000000000000000 DUP2 MSTORE PUSH1 0x4 ADD PUSH2 0x10B SWAP1 PUSH2 0x681 JUMP JUMPDEST PUSH1 0x40 MLOAD DUP1 SWAP2 SUB SWAP1 REVERT JUMPDEST PUSH0 PUSH0 SWAP1 POP JUMPDEST DUP3 MLOAD DUP2 LT ISZERO PUSH2 0x2FB JUMPI PUSH0 DUP4 DUP3 DUP2 MLOAD DUP2 LT PUSH2 0x136 JUMPI PUSH2 0x135 PUSH2 0x69F JUMP JUMPDEST JUMPDEST PUSH1 0x20 MUL PUSH1 0x20 ADD ADD MLOAD SWAP1 POP PUSH0 PUSH20 0xFFFFFFFFFFFFFFFFFFFFFFFFFFFFFFFFFFFFFFFF AND DUP2 PUSH20 0xFFFFFFFFFFFFFFFFFFFFFFFFFFFFFFFFFFFFFFFF AND EQ ISZERO DUP1 ISZERO PUSH2 0x1A8 JUMPI POP ADDRESS PUSH20 0xFFFFFFFFFFFFFFFFFFFFFFFFFFFFFFFFFFFFFFFF AND DUP2 PUSH20 0xFFFFFFFFFFFFFFFFFFFFFFFFFFFFFFFFFFFFFFFF AND EQ ISZERO JUMPDEST DUP1 ISZERO PUSH2 0x1FB JUMPI POP PUSH1 0x1 PUSH0 DUP3 PUSH20 0xFFFFFFFFFFFFFFFFFFFFFFFFFFFFFFFFFFFFFFFF AND PUSH20 0xFFFFFFFFFFFFFFFFFFFFFFFFFFFFFFFFFFFFFFFF AND DUP2 MSTORE PUSH1 0x20 ADD SWAP1 DUP2 MSTORE PUSH1 0x20 ADD PUSH0 KECCAK256 PUSH0 SWAP1 SLOAD SWAP1 PUSH2 0x100 EXP SWAP1 DIV PUSH1 0xFF AND ISZERO JUMPDEST PUSH2 0x23A JUMPI PUSH1 0x40 MLOAD PUSH32 0x8C379A000000000000000000000000000000000000000000000000000000000 DUP2 MSTORE PUSH1 0x4 ADD PUSH2 0x231 SWAP1 PUSH2 0x716 JUMP JUMPDEST PUSH1 0x40 MLOAD DUP1 SWAP2 SUB SWAP1 REVERT JUMPDEST PUSH0 DUP2 SWAP1 DUP1 PUSH1 0x1 DUP2 SLOAD ADD DUP1 DUP3 SSTORE DUP1 SWAP2 POP POP PUSH1 0x1 SWAP1 SUB SWAP1 PUSH0 MSTORE PUSH1 0x20 PUSH0 KECCAK256 ADD PUSH0 SWAP1 SWAP2 SWAP1 SWAP2 SWAP1 SWAP2 PUSH2 0x100 EXP DUP2 SLOAD DUP2 PUSH20 0xFFFFFFFFFFFFFFFFFFFFFFFFFFFFFFFFFFFFFFFF MUL NOT AND SWAP1 DUP4 PUSH20 0xFFFFFFFFFFFFFFFFFFFFFFFFFFFFFFFFFFFFFFFF AND MUL OR SWAP1 SSTORE POP PUSH1 0x1 DUP1 PUSH0 DUP4 PUSH20 0xFFFFFFFFFFFFFFFFFFFFFFFFFFFFFFFFFFFFFFFF AND PUSH20 0xFFFFFFFFFFFFFFFFFFFFFFFFFFFFFFFFFFFFFFFF AND DUP2 MSTORE PUSH1 0x20 ADD SWAP1 DUP2 MSTORE PUSH1 0x20 ADD PUSH0 KECCAK256 PUSH0 PUSH2 0x100 EXP DUP2 SLOAD DUP2 PUSH1 0xFF MUL NOT AND SWAP1 DUP4 ISZERO ISZERO MUL OR SWAP1 SSTORE POP POP DUP1 DUP1 PUSH1 0x1 ADD SWAP2 POP POP PUSH2 0x119 JUMP JUMPDEST POP DUP2 MLOAD PUSH1 0x2 DUP2 SWAP1 SSTORE POP DUP1 PUSH1 0x3 DUP2 SWAP1 SSTORE POP POP POP JUMP JUMPDEST PUSH0 PUSH1 0x40 MLOAD SWAP1 POP SWAP1 JUMP JUMPDEST PUSH0 PUSH0 REVERT JUMPDEST PUSH0 PUSH0 REVERT JUMPDEST PUSH0 PUSH0 REVERT JUMPDEST PUSH0 PUSH1 0x1F NOT PUSH1 0x1F DUP4 ADD AND SWAP1 POP SWAP2 SWAP1 POP JUMP JUMPDEST PUSH32 0x4E487B7100000000000000000000000000000000000000000000000000000000 PUSH0 MSTORE PUSH1 0x41 PUSH1 0x4 MSTORE PUSH1 0x24 PUSH0 REVERT JUMPDEST PUSH2 0x36A DUP3 PUSH2 0x324 JUMP JUMPDEST DUP2 ADD DUP2 DUP2 LT PUSH8 0xFFFFFFFFFFFFFFFF DUP3 GT OR ISZERO PUSH2 0x389 JUMPI PUSH2 0x388 PUSH2 0x334 JUMP JUMPDEST JUMPDEST DUP1 PUSH1 0x40 MSTORE POP POP POP JUMP JUMPDEST PUSH0 PUSH2 0x39B PUSH2 0x30F JUMP JUMPDEST SWAP1 POP PUSH2 0x3A7 DUP3 DUP3 PUSH2 0x361 JUMP JUMPDEST SWAP2 SWAP1 POP JUMP JUMPDEST PUSH0 PUSH8 0xFFFFFFFFFFFFFFFF DUP3 GT ISZERO PUSH2 0x3C6 JUMPI PUSH2 0x3C5 PUSH2 0x334 JUMP JUMPDEST JUMPDEST PUSH1 0x20 DUP3 MUL SWAP1 POP PUSH1 0x20 DUP2 ADD SWAP1 POP SWAP2 SWAP1 POP JUMP JUMPDEST PUSH0 PUSH0 REVERT JUMPDEST PUSH0 PUSH20 0xFFFFFFFFFFFFFFFFFFFFFFFFFFFFFFFFFFFFFFFF DUP3 AND SWAP1 POP SWAP2 SWAP1 POP JUMP JUMPDEST PUSH0 PUSH2 0x404 DUP3 PUSH2 0x3DB JUMP JUMPDEST SWAP1 POP SWAP2 SWAP1 POP JUMP JUMPDEST PUSH2 0x414 DUP2 PUSH2 0x3FA JUMP JUMPDEST DUP2 EQ PUSH2 0x41E JUMPI PUSH0 PUSH0 REVERT JUMPDEST POP JUMP JUMPDEST PUSH0 DUP2 MLOAD SWAP1 POP PUSH2 0x42F DUP2 PUSH2 0x40B JUMP JUMPDEST SWAP3 SWAP2 POP POP JUMP JUMPDEST PUSH0 PUSH2 0x447 PUSH2 0x442 DUP5 PUSH2 0x3AC JUMP JUMPDEST PUSH2 0x392 JUMP JUMPDEST SWAP1 POP DUP1 DUP4 DUP3 MSTORE PUSH1 0x20 DUP3 ADD SWAP1 POP PUSH1 0x20 DUP5 MUL DUP4 ADD DUP6 DUP2 GT ISZERO PUSH2 0x46A JUMPI PUSH2 0x469 PUSH2 0x3D7 JUMP JUMPDEST JUMPDEST DUP4 JUMPDEST DUP2 DUP2 LT ISZERO PUSH2 0x493 JUMPI DUP1 PUSH2 0x47F DUP9 DUP3 PUSH2 0x421 JUMP JUMPDEST DUP5 MSTORE PUSH1 0x20 DUP5 ADD SWAP4 POP POP PUSH1 0x20 DUP2 ADD SWAP1 POP PUSH2 0x46C JUMP JUMPDEST POP POP POP SWAP4 SWAP3 POP POP POP JUMP JUMPDEST PUSH0 DUP3 PUSH1 0x1F DUP4 ADD SLT PUSH2 0x4B1 JUMPI PUSH2 0x4B0 PUSH2 0x320 JUMP JUMPDEST JUMPDEST DUP2 MLOAD PUSH2 0x4C1 DUP5 DUP3 PUSH1 0x20 DUP7 ADD PUSH2 0x435 JUMP JUMPDEST SWAP2 POP POP SWAP3 SWAP2 POP POP JUMP JUMPDEST PUSH0 DUP2 SWAP1 POP SWAP2 SWAP1 POP JUMP JUMPDEST PUSH2 0x4DC DUP2 PUSH2 0x4CA JUMP JUMPDEST DUP2 EQ PUSH2 0x4E6 JUMPI PUSH0 PUSH0 REVERT JUMPDEST POP JUMP JUMPDEST PUSH0 DUP2 MLOAD SWAP1 POP PUSH2 0x4F7 DUP2 PUSH2 0x4D3 JUMP JUMPDEST SWAP3 SWAP2 POP POP JUMP JUMPDEST PUSH0 PUSH0 PUSH1 0x40 DUP4 DUP6 SUB SLT ISZERO PUSH2 0x513 JUMPI PUSH2 0x512 PUSH2 0x318 JUMP JUMPDEST JUMPDEST PUSH0 DUP4 ADD MLOAD PUSH8 0xFFFFFFFFFFFFFFFF DUP2 GT ISZERO PUSH2 0x530 JUMPI PUSH2 0x52F PUSH2 0x31C JUMP JUMPDEST JUMPDEST PUSH2 0x53C DUP6 DUP3 DUP7 ADD PUSH2 0x49D JUMP JUMPDEST SWAP3 POP POP PUSH1 0x20 PUSH2 0x54D DUP6 DUP3 DUP7 ADD PUSH2 0x4E9 JUMP JUMPDEST SWAP2 POP POP SWAP3 POP SWAP3 SWAP1 POP JUMP JUMPDEST PUSH0 DUP3 DUP3 MSTORE PUSH1 0x20 DUP3 ADD SWAP1 POP SWAP3 SWAP2 POP POP JUMP JUMPDEST PUSH32 0x5754463530303000000000000000000000000000000000000000000000000000 PUSH0 DUP3 ADD MSTORE POP JUMP JUMPDEST PUSH0 PUSH2 0x59B PUSH1 0x7 DUP4 PUSH2 0x557 JUMP JUMPDEST SWAP2 POP PUSH2 0x5A6 DUP3 PUSH2 0x567 JUMP JUMPDEST PUSH1 0x20 DUP3 ADD SWAP1 POP SWAP2 SWAP1 POP JUMP JUMPDEST PUSH0 PUSH1 0x20 DUP3 ADD SWAP1 POP DUP2 DUP2 SUB PUSH0 DUP4 ADD MSTORE PUSH2 0x5C8 DUP2 PUSH2 0x58F JUMP JUMPDEST SWAP1 POP SWAP2 SWAP1 POP JUMP JUMPDEST PUSH32 0x5754463530303100000000000000000000000000000000000000000000000000 PUSH0 DUP3 ADD MSTORE POP JUMP JUMPDEST PUSH0 PUSH2 0x603 PUSH1 0x7 DUP4 PUSH2 0x557 JUMP JUMPDEST SWAP2 POP PUSH2 0x60E DUP3 PUSH2 0x5CF JUMP JUMPDEST PUSH1 0x20 DUP3 ADD SWAP1 POP SWAP2 SWAP1 POP JUMP JUMPDEST PUSH0 PUSH1 0x20 DUP3 ADD SWAP1 POP DUP2 DUP2 SUB PUSH0 DUP4 ADD MSTORE PUSH2 0x630 DUP2 PUSH2 0x5F7 JUMP JUMPDEST SWAP1 POP SWAP2 SWAP1 POP JUMP JUMPDEST PUSH32 0x5754463530303200000000000000000000000000000000000000000000000000 PUSH0 DUP3 ADD MSTORE POP JUMP JUMPDEST PUSH0 PUSH2 0x66B PUSH1 0x7 DUP4 PUSH2 0x557 JUMP JUMPDEST SWAP2 POP PUSH2 0x676 DUP3 PUSH2 0x637 JUMP JUMPDEST PUSH1 0x20 DUP3 ADD SWAP1 POP SWAP2 SWAP1 POP JUMP JUMPDEST PUSH0 PUSH1 0x20 DUP3 ADD SWAP1 POP DUP2 DUP2 SUB PUSH0 DUP4 ADD MSTORE PUSH2 0x698 DUP2 PUSH2 0x65F JUMP JUMPDEST SWAP1 POP SWAP2 SWAP1 POP JUMP JUMPDEST PUSH32 0x4E487B7100000000000000000000000000000000000000000000000000000000 PUSH0 MSTORE PUSH1 0x32 PUSH1 0x4 MSTORE PUSH1 0x24 PUSH0 REVERT JUMPDEST PUSH32 0x5754463530303300000000000000000000000000000000000000000000000000 PUSH0 DUP3 ADD MSTORE POP JUMP JUMPDEST PUSH0 PUSH2 0x700 PUSH1 0x7 DUP4 PUSH2 0x557 JUMP JUMPDEST SWAP2 POP PUSH2 0x70B DUP3 PUSH2 0x6CC JUMP JUMPDEST PUSH1 0x20 DUP3 ADD SWAP1 POP SWAP2 SWAP1 POP JUMP JUMPDEST PUSH0 PUSH1 0x20 DUP3 ADD SWAP1 POP DUP2 DUP2 SUB PUSH0 DUP4 ADD MSTORE PUSH2 0x72D DUP2 PUSH2 0x6F4 JUMP JUMPDEST SWAP1 POP SWAP2 SWAP1 POP JUMP JUMPDEST PUSH2 0xF46 DUP1 PUSH2 0x741 PUSH0 CODECOPY PUSH0 RETURN INVALID PUSH1 0x80 PUSH1 0x40 MSTORE PUSH1 0x4 CALLDATASIZE LT PUSH2 0x7E JUMPI PUSH0 CALLDATALOAD PUSH1 0xE0 SHR DUP1 PUSH4 0xA67DD509 GT PUSH2 0x4D JUMPI DUP1 PUSH4 0xA67DD509 EQ PUSH2 0x155 JUMPI DUP1 PUSH4 0xAFFED0E0 EQ PUSH2 0x191 JUMPI DUP1 PUSH4 0xD01AA318 EQ PUSH2 0x1BB JUMPI DUP1 PUSH4 0xED516D51 EQ PUSH2 0x1EB JUMPI PUSH2 0x85 JUMP JUMPDEST DUP1 PUSH4 0x25E7C27 EQ PUSH2 0x89 JUMPI DUP1 PUSH4 0xDB02622 EQ PUSH2 0xC5 JUMPI DUP1 PUSH4 0x2F54BF6E EQ PUSH2 0xEF JUMPI DUP1 PUSH4 0x42CDE4E8 EQ PUSH2 0x12B JUMPI PUSH2 0x85 JUMP JUMPDEST CALLDATASIZE PUSH2 0x85 JUMPI STOP JUMPDEST PUSH0 PUSH0 REVERT JUMPDEST CALLVALUE DUP1 ISZERO PUSH2 0x94 JUMPI PUSH0 PUSH0 REVERT JUMPDEST POP PUSH2 0xAF PUSH1 0x4 DUP1 CALLDATASIZE SUB DUP2 ADD SWAP1 PUSH2 0xAA SWAP2 SWAP1 PUSH2 0x6A8 JUMP JUMPDEST PUSH2 0x213 JUMP JUMPDEST PUSH1 0x40 MLOAD PUSH2 0xBC SWAP2 SWAP1 PUSH2 0x712 JUMP JUMPDEST PUSH1 0x40 MLOAD DUP1 SWAP2 SUB SWAP1 RETURN JUMPDEST CALLVALUE DUP1 ISZERO PUSH2 0xD0 JUMPI PUSH0 PUSH0 REVERT JUMPDEST POP PUSH2 0xD9 PUSH2 0x24D JUMP JUMPDEST PUSH1 0x40 MLOAD PUSH2 0xE6 SWAP2 SWAP1 PUSH2 0x73A JUMP JUMPDEST PUSH1 0x40 MLOAD DUP1 SWAP2 SUB SWAP1 RETURN JUMPDEST CALLVALUE DUP1 ISZERO PUSH2 0xFA JUMPI PUSH0 PUSH0 REVERT JUMPDEST POP PUSH2 0x115 PUSH1 0x4 DUP1 CALLDATASIZE SUB DUP2 ADD SWAP1 PUSH2 0x110 SWAP2 SWAP1 PUSH2 0x77D JUMP JUMPDEST PUSH2 0x253 JUMP JUMPDEST PUSH1 0x40 MLOAD PUSH2 0x122 SWAP2 SWAP1 PUSH2 0x7C2 JUMP JUMPDEST PUSH1 0x40 MLOAD DUP1 SWAP2 SUB SWAP1 RETURN JUMPDEST CALLVALUE DUP1 ISZERO PUSH2 0x136 JUMPI PUSH0 PUSH0 REVERT JUMPDEST POP PUSH2 0x13F PUSH2 0x270 JUMP JUMPDEST PUSH1 0x40 MLOAD PUSH2 0x14C SWAP2 SWAP1 PUSH2 0x73A JUMP JUMPDEST PUSH1 0x40 MLOAD DUP1 SWAP2 SUB SWAP1 RETURN JUMPDEST CALLVALUE DUP1 ISZERO PUSH2 0x160 JUMPI PUSH0 PUSH0 REVERT JUMPDEST POP PUSH2 0x17B PUSH1 0x4 DUP1 CALLDATASIZE SUB DUP2 ADD SWAP1 PUSH2 0x176 SWAP2 SWAP1 PUSH2 0x917 JUMP JUMPDEST PUSH2 0x276 JUMP JUMPDEST PUSH1 0x40 MLOAD PUSH2 0x188 SWAP2 SWAP1 PUSH2 0x9C2 JUMP JUMPDEST PUSH1 0x40 MLOAD DUP1 SWAP2 SUB SWAP1 RETURN JUMPDEST CALLVALUE DUP1 ISZERO PUSH2 0x19C JUMPI PUSH0 PUSH0 REVERT JUMPDEST POP PUSH2 0x1A5 PUSH2 0x2BD JUMP JUMPDEST PUSH1 0x40 MLOAD PUSH2 0x1B2 SWAP2 SWAP1 PUSH2 0x73A JUMP JUMPDEST PUSH1 0x40 MLOAD DUP1 SWAP2 SUB SWAP1 RETURN JUMPDEST PUSH2 0x1D5 PUSH1 0x4 DUP1 CALLDATASIZE SUB DUP2 ADD SWAP1 PUSH2 0x1D0 SWAP2 SWAP1 PUSH2 0x9DB JUMP JUMPDEST PUSH2 0x2C3 JUMP JUMPDEST PUSH1 0x40 MLOAD PUSH2 0x1E2 SWAP2 SWAP1 PUSH2 0x7C2 JUMP JUMPDEST PUSH1 0x40 MLOAD DUP1 SWAP2 SUB SWAP1 RETURN JUMPDEST CALLVALUE DUP1 ISZERO PUSH2 0x1F6 JUMPI PUSH0 PUSH0 REVERT JUMPDEST POP PUSH2 0x211 PUSH1 0x4 DUP1 CALLDATASIZE SUB DUP2 ADD SWAP1 PUSH2 0x20C SWAP2 SWAP1 PUSH2 0xAA1 JUMP JUMPDEST PUSH2 0x425 JUMP JUMPDEST STOP JUMPDEST PUSH0 DUP2 DUP2 SLOAD DUP2 LT PUSH2 0x221 JUMPI PUSH0 DUP1 REVERT JUMPDEST SWAP1 PUSH0 MSTORE PUSH1 0x20 PUSH0 KECCAK256 ADD PUSH0 SWAP2 POP SLOAD SWAP1 PUSH2 0x100 EXP SWAP1 DIV PUSH20 0xFFFFFFFFFFFFFFFFFFFFFFFFFFFFFFFFFFFFFFFF AND DUP2 JUMP JUMPDEST PUSH1 0x2 SLOAD DUP2 JUMP JUMPDEST PUSH1 0x1 PUSH1 0x20 MSTORE DUP1 PUSH0 MSTORE PUSH1 0x40 PUSH0 KECCAK256 PUSH0 SWAP2 POP SLOAD SWAP1 PUSH2 0x100 EXP SWAP1 DIV PUSH1 0xFF AND DUP2 JUMP JUMPDEST PUSH1 0x3 SLOAD DUP2 JUMP JUMPDEST PUSH0 PUSH0 DUP7 DUP7 DUP7 DUP1 MLOAD SWAP1 PUSH1 0x20 ADD KECCAK256 DUP7 DUP7 PUSH1 0x40 MLOAD PUSH1 0x20 ADD PUSH2 0x298 SWAP6 SWAP5 SWAP4 SWAP3 SWAP2 SWAP1 PUSH2 0xAFB JUMP JUMPDEST PUSH1 0x40 MLOAD PUSH1 0x20 DUP2 DUP4 SUB SUB DUP2 MSTORE SWAP1 PUSH1 0x40 MSTORE DUP1 MLOAD SWAP1 PUSH1 0x20 ADD KECCAK256 SWAP1 POP DUP1 SWAP2 POP POP SWAP6 SWAP5 POP POP POP POP POP JUMP JUMPDEST PUSH1 0x4 SLOAD DUP2 JUMP JUMPDEST PUSH0 PUSH0 PUSH2 0x2D4 DUP7 DUP7 DUP7 PUSH1 0x4 SLOAD CHAINID PUSH2 0x276 JUMP JUMPDEST SWAP1 POP PUSH1 0x4 PUSH0 DUP2 SLOAD DUP1 SWAP3 SWAP2 SWAP1 PUSH2 0x2E8 SWAP1 PUSH2 0xB79 JUMP JUMPDEST SWAP2 SWAP1 POP SSTORE POP PUSH2 0x2F7 DUP2 DUP5 PUSH2 0x425 JUMP JUMPDEST DUP6 PUSH20 0xFFFFFFFFFFFFFFFFFFFFFFFFFFFFFFFFFFFFFFFF AND DUP6 DUP6 PUSH1 0x40 MLOAD PUSH2 0x31D SWAP2 SWAP1 PUSH2 0xC12 JUMP JUMPDEST PUSH0 PUSH1 0x40 MLOAD DUP1 DUP4 SUB DUP2 DUP6 DUP8 GAS CALL SWAP3 POP POP POP RETURNDATASIZE DUP1 PUSH0 DUP2 EQ PUSH2 0x357 JUMPI PUSH1 0x40 MLOAD SWAP2 POP PUSH1 0x1F NOT PUSH1 0x3F RETURNDATASIZE ADD AND DUP3 ADD PUSH1 0x40 MSTORE RETURNDATASIZE DUP3 MSTORE RETURNDATASIZE PUSH0 PUSH1 0x20 DUP5 ADD RETURNDATACOPY PUSH2 0x35C JUMP JUMPDEST PUSH1 0x60 SWAP2 POP JUMPDEST POP POP DUP1 SWAP3 POP POP DUP2 PUSH2 0x3A2 JUMPI PUSH1 0x40 MLOAD PUSH32 0x8C379A000000000000000000000000000000000000000000000000000000000 DUP2 MSTORE PUSH1 0x4 ADD PUSH2 0x399 SWAP1 PUSH2 0xC82 JUMP JUMPDEST PUSH1 0x40 MLOAD DUP1 SWAP2 SUB SWAP1 REVERT JUMPDEST DUP2 ISZERO PUSH2 0x3E4 JUMPI PUSH32 0xDC29884A71D2BB98D3C53DC09718BE05C7BFD142B7773A5C5CF2517629290AC0 DUP2 PUSH1 0x40 MLOAD PUSH2 0x3D7 SWAP2 SWAP1 PUSH2 0x9C2 JUMP JUMPDEST PUSH1 0x40 MLOAD DUP1 SWAP2 SUB SWAP1 LOG1 PUSH2 0x41C JUMP JUMPDEST PUSH32 0xDBE42D02A4E07D7EEFF2874EFE172540C93B297D206F6D691C9782A257323E32 DUP2 PUSH1 0x40 MLOAD PUSH2 0x413 SWAP2 SWAP1 PUSH2 0x9C2 JUMP JUMPDEST PUSH1 0x40 MLOAD DUP1 SWAP2 SUB SWAP1 LOG1 JUMPDEST POP SWAP5 SWAP4 POP POP POP POP JUMP JUMPDEST PUSH0 PUSH1 0x3 SLOAD SWAP1 POP PUSH0 DUP2 GT PUSH2 0x46D JUMPI PUSH1 0x40 MLOAD PUSH32 0x8C379A000000000000000000000000000000000000000000000000000000000 DUP2 MSTORE PUSH1 0x4 ADD PUSH2 0x464 SWAP1 PUSH2 0xCEA JUMP JUMPDEST PUSH1 0x40 MLOAD DUP1 SWAP2 SUB SWAP1 REVERT JUMPDEST PUSH1 0x41 DUP2 PUSH2 0x47A SWAP2 SWAP1 PUSH2 0xD08 JUMP JUMPDEST DUP3 MLOAD LT ISZERO PUSH2 0x4BD JUMPI PUSH1 0x40 MLOAD PUSH32 0x8C379A000000000000000000000000000000000000000000000000000000000 DUP2 MSTORE PUSH1 0x4 ADD PUSH2 0x4B4 SWAP1 PUSH2 0xD93 JUMP JUMPDEST PUSH1 0x40 MLOAD DUP1 SWAP2 SUB SWAP1 REVERT JUMPDEST PUSH0 PUSH0 SWAP1 POP PUSH0 PUSH0 PUSH0 PUSH0 PUSH0 PUSH0 SWAP1 POP JUMPDEST DUP7 DUP2 LT ISZERO PUSH2 0x62C JUMPI PUSH2 0x4DC DUP9 DUP3 PUSH2 0x637 JUMP JUMPDEST DUP1 SWAP5 POP DUP2 SWAP6 POP DUP3 SWAP7 POP POP POP POP PUSH1 0x1 DUP10 PUSH1 0x40 MLOAD PUSH1 0x20 ADD PUSH2 0x4FB SWAP2 SWAP1 PUSH2 0xE25 JUMP JUMPDEST PUSH1 0x40 MLOAD PUSH1 0x20 DUP2 DUP4 SUB SUB DUP2 MSTORE SWAP1 PUSH1 0x40 MSTORE DUP1 MLOAD SWAP1 PUSH1 0x20 ADD KECCAK256 DUP6 DUP6 DUP6 PUSH1 0x40 MLOAD PUSH0 DUP2 MSTORE PUSH1 0x20 ADD PUSH1 0x40 MSTORE PUSH1 0x40 MLOAD PUSH2 0x530 SWAP5 SWAP4 SWAP3 SWAP2 SWAP1 PUSH2 0xE65 JUMP JUMPDEST PUSH1 0x20 PUSH1 0x40 MLOAD PUSH1 0x20 DUP2 SUB SWAP1 DUP1 DUP5 SUB SWAP1 DUP6 GAS STATICCALL ISZERO DUP1 ISZERO PUSH2 0x550 JUMPI RETURNDATASIZE PUSH0 PUSH0 RETURNDATACOPY RETURNDATASIZE PUSH0 REVERT JUMPDEST POP POP POP PUSH1 0x20 PUSH1 0x40 MLOAD SUB MLOAD SWAP5 POP DUP6 PUSH20 0xFFFFFFFFFFFFFFFFFFFFFFFFFFFFFFFFFFFFFFFF AND DUP6 PUSH20 0xFFFFFFFFFFFFFFFFFFFFFFFFFFFFFFFFFFFFFFFF AND GT DUP1 ISZERO PUSH2 0x5DD JUMPI POP PUSH1 0x1 PUSH0 DUP7 PUSH20 0xFFFFFFFFFFFFFFFFFFFFFFFFFFFFFFFFFFFFFFFF AND PUSH20 0xFFFFFFFFFFFFFFFFFFFFFFFFFFFFFFFFFFFFFFFF AND DUP2 MSTORE PUSH1 0x20 ADD SWAP1 DUP2 MSTORE PUSH1 0x20 ADD PUSH0 KECCAK256 PUSH0 SWAP1 SLOAD SWAP1 PUSH2 0x100 EXP SWAP1 DIV PUSH1 0xFF AND JUMPDEST PUSH2 0x61C JUMPI PUSH1 0x40 MLOAD PUSH32 0x8C379A000000000000000000000000000000000000000000000000000000000 DUP2 MSTORE PUSH1 0x4 ADD PUSH2 0x613 SWAP1 PUSH2 0xEF2 JUMP JUMPDEST PUSH1 0x40 MLOAD DUP1 SWAP2 SUB SWAP1 REVERT JUMPDEST DUP5 SWAP6 POP DUP1 DUP1 PUSH1 0x1 ADD SWAP2 POP POP PUSH2 0x4CA JUMP JUMPDEST POP POP POP POP POP POP POP POP POP JUMP JUMPDEST PUSH0 PUSH0 PUSH0 DUP4 PUSH1 0x41 MUL PUSH1 0x20 DUP2 ADD DUP7 ADD MLOAD SWAP3 POP PUSH1 0x40 DUP2 ADD DUP7 ADD MLOAD SWAP2 POP PUSH1 0xFF PUSH1 0x41 DUP3 ADD DUP8 ADD MLOAD AND SWAP4 POP POP SWAP3 POP SWAP3 POP SWAP3 JUMP JUMPDEST PUSH0 PUSH1 0x40 MLOAD SWAP1 POP SWAP1 JUMP JUMPDEST PUSH0 PUSH0 REVERT JUMPDEST PUSH0 PUSH0 REVERT JUMPDEST PUSH0 DUP2 SWAP1 POP SWAP2 SWAP1 POP JUMP JUMPDEST PUSH2 0x687 DUP2 PUSH2 0x675 JUMP JUMPDEST DUP2 EQ PUSH2 0x691 JUMPI PUSH0 PUSH0 REVERT JUMPDEST POP JUMP JUMPDEST PUSH0 DUP2 CALLDATALOAD SWAP1 POP PUSH2 0x6A2 DUP2 PUSH2 0x67E JUMP JUMPDEST SWAP3 SWAP2 POP POP JUMP JUMPDEST PUSH0 PUSH1 0x20 DUP3 DUP5 SUB SLT ISZERO PUSH2 0x6BD JUMPI PUSH2 0x6BC PUSH2 0x66D JUMP JUMPDEST JUMPDEST PUSH0 PUSH2 0x6CA DUP5 DUP3 DUP6 ADD PUSH2 0x694 JUMP JUMPDEST SWAP2 POP POP SWAP3 SWAP2 POP POP JUMP JUMPDEST PUSH0 PUSH20 0xFFFFFFFFFFFFFFFFFFFFFFFFFFFFFFFFFFFFFFFF DUP3 AND SWAP1 POP SWAP2 SWAP1 POP JUMP JUMPDEST PUSH0 PUSH2 0x6FC DUP3 PUSH2 0x6D3 JUMP JUMPDEST SWAP1 POP SWAP2 SWAP1 POP JUMP JUMPDEST PUSH2 0x70C DUP2 PUSH2 0x6F2 JUMP JUMPDEST DUP3 MSTORE POP POP JUMP JUMPDEST PUSH0 PUSH1 0x20 DUP3 ADD SWAP1 POP PUSH2 0x725 PUSH0 DUP4 ADD DUP5 PUSH2 0x703 JUMP JUMPDEST SWAP3 SWAP2 POP POP JUMP JUMPDEST PUSH2 0x734 DUP2 PUSH2 0x675 JUMP JUMPDEST DUP3 MSTORE POP POP JUMP JUMPDEST PUSH0 PUSH1 0x20 DUP3 ADD SWAP1 POP PUSH2 0x74D PUSH0 DUP4 ADD DUP5 PUSH2 0x72B JUMP JUMPDEST SWAP3 SWAP2 POP POP JUMP JUMPDEST PUSH2 0x75C DUP2 PUSH2 0x6F2 JUMP JUMPDEST DUP2 EQ PUSH2 0x766 JUMPI PUSH0 PUSH0 REVERT JUMPDEST POP JUMP JUMPDEST PUSH0 DUP2 CALLDATALOAD SWAP1 POP PUSH2 0x777 DUP2 PUSH2 0x753 JUMP JUMPDEST SWAP3 SWAP2 POP POP JUMP JUMPDEST PUSH0 PUSH1 0x20 DUP3 DUP5 SUB SLT ISZERO PUSH2 0x792 JUMPI PUSH2 0x791 PUSH2 0x66D JUMP JUMPDEST JUMPDEST PUSH0 PUSH2 0x79F DUP5 DUP3 DUP6 ADD PUSH2 0x769 JUMP JUMPDEST SWAP2 POP POP SWAP3 SWAP2 POP POP JUMP JUMPDEST PUSH0 DUP2 ISZERO ISZERO SWAP1 POP SWAP2 SWAP1 POP JUMP JUMPDEST PUSH2 0x7BC DUP2 PUSH2 0x7A8 JUMP JUMPDEST DUP3 MSTORE POP POP JUMP JUMPDEST PUSH0 PUSH1 0x20 DUP3 ADD SWAP1 POP PUSH2 0x7D5 PUSH0 DUP4 ADD DUP5 PUSH2 0x7B3 JUMP JUMPDEST SWAP3 SWAP2 POP POP JUMP JUMPDEST PUSH0 PUSH0 REVERT JUMPDEST PUSH0 PUSH0 REVERT JUMPDEST PUSH0 PUSH1 0x1F NOT PUSH1 0x1F DUP4 ADD AND SWAP1 POP SWAP2 SWAP1 POP JUMP JUMPDEST PUSH32 0x4E487B7100000000000000000000000000000000000000000000000000000000 PUSH0 MSTORE PUSH1 0x41 PUSH1 0x4 MSTORE PUSH1 0x24 PUSH0 REVERT JUMPDEST PUSH2 0x829 DUP3 PUSH2 0x7E3 JUMP JUMPDEST DUP2 ADD DUP2 DUP2 LT PUSH8 0xFFFFFFFFFFFFFFFF DUP3 GT OR ISZERO PUSH2 0x848 JUMPI PUSH2 0x847 PUSH2 0x7F3 JUMP JUMPDEST JUMPDEST DUP1 PUSH1 0x40 MSTORE POP POP POP JUMP JUMPDEST PUSH0 PUSH2 0x85A PUSH2 0x664 JUMP JUMPDEST SWAP1 POP PUSH2 0x866 DUP3 DUP3 PUSH2 0x820 JUMP JUMPDEST SWAP2 SWAP1 POP JUMP JUMPDEST PUSH0 PUSH8 0xFFFFFFFFFFFFFFFF DUP3 GT ISZERO PUSH2 0x885 JUMPI PUSH2 0x884 PUSH2 0x7F3 JUMP JUMPDEST JUMPDEST PUSH2 0x88E DUP3 PUSH2 0x7E3 JUMP JUMPDEST SWAP1 POP PUSH1 0x20 DUP2 ADD SWAP1 POP SWAP2 SWAP1 POP JUMP JUMPDEST DUP3 DUP2 DUP4 CALLDATACOPY PUSH0 DUP4 DUP4 ADD MSTORE POP POP POP JUMP JUMPDEST PUSH0 PUSH2 0x8BB PUSH2 0x8B6 DUP5 PUSH2 0x86B JUMP JUMPDEST PUSH2 0x851 JUMP JUMPDEST SWAP1 POP DUP3 DUP2 MSTORE PUSH1 0x20 DUP2 ADD DUP5 DUP5 DUP5 ADD GT ISZERO PUSH2 0x8D7 JUMPI PUSH2 0x8D6 PUSH2 0x7DF JUMP JUMPDEST JUMPDEST PUSH2 0x8E2 DUP5 DUP3 DUP6 PUSH2 0x89B JUMP JUMPDEST POP SWAP4 SWAP3 POP POP POP JUMP JUMPDEST PUSH0 DUP3 PUSH1 0x1F DUP4 ADD SLT PUSH2 0x8FE JUMPI PUSH2 0x8FD PUSH2 0x7DB JUMP JUMPDEST JUMPDEST DUP2 CALLDATALOAD PUSH2 0x90E DUP5 DUP3 PUSH1 0x20 DUP7 ADD PUSH2 0x8A9 JUMP JUMPDEST SWAP2 POP POP SWAP3 SWAP2 POP POP JUMP JUMPDEST PUSH0 PUSH0 PUSH0 PUSH0 PUSH0 PUSH1 0xA0 DUP7 DUP9 SUB SLT ISZERO PUSH2 0x930 JUMPI PUSH2 0x92F PUSH2 0x66D JUMP JUMPDEST JUMPDEST PUSH0 PUSH2 0x93D DUP9 DUP3 DUP10 ADD PUSH2 0x769 JUMP JUMPDEST SWAP6 POP POP PUSH1 0x20 PUSH2 0x94E DUP9 DUP3 DUP10 ADD PUSH2 0x694 JUMP JUMPDEST SWAP5 POP POP PUSH1 0x40 DUP7 ADD CALLDATALOAD PUSH8 0xFFFFFFFFFFFFFFFF DUP2 GT ISZERO PUSH2 0x96F JUMPI PUSH2 0x96E PUSH2 0x671 JUMP JUMPDEST JUMPDEST PUSH2 0x97B DUP9 DUP3 DUP10 ADD PUSH2 0x8EA JUMP JUMPDEST SWAP4 POP POP PUSH1 0x60 PUSH2 0x98C DUP9 DUP3 DUP10 ADD PUSH2 0x694 JUMP JUMPDEST SWAP3 POP POP PUSH1 0x80 PUSH2 0x99D DUP9 DUP3 DUP10 ADD PUSH2 0x694 JUMP JUMPDEST SWAP2 POP POP SWAP3 SWAP6 POP SWAP3 SWAP6 SWAP1 SWAP4 POP JUMP JUMPDEST PUSH0 DUP2 SWAP1 POP SWAP2 SWAP1 POP JUMP JUMPDEST PUSH2 0x9BC DUP2 PUSH2 0x9AA JUMP JUMPDEST DUP3 MSTORE POP POP JUMP JUMPDEST PUSH0 PUSH1 0x20 DUP3 ADD SWAP1 POP PUSH2 0x9D5 PUSH0 DUP4 ADD DUP5 PUSH2 0x9B3 JUMP JUMPDEST SWAP3 SWAP2 POP POP JUMP JUMPDEST PUSH0 PUSH0 PUSH0 PUSH0 PUSH1 0x80 DUP6 DUP8 SUB SLT ISZERO PUSH2 0x9F3 JUMPI PUSH2 0x9F2 PUSH2 0x66D JUMP JUMPDEST JUMPDEST PUSH0 PUSH2 0xA00 DUP8 DUP3 DUP9 ADD PUSH2 0x769 JUMP JUMPDEST SWAP5 POP POP PUSH1 0x20 PUSH2 0xA11 DUP8 DUP3 DUP9 ADD PUSH2 0x694 JUMP JUMPDEST SWAP4 POP POP PUSH1 0x40 DUP6 ADD CALLDATALOAD PUSH8 0xFFFFFFFFFFFFFFFF DUP2 GT ISZERO PUSH2 0xA32 JUMPI PUSH2 0xA31 PUSH2 0x671 JUMP JUMPDEST JUMPDEST PUSH2 0xA3E DUP8 DUP3 DUP9 ADD PUSH2 0x8EA JUMP JUMPDEST SWAP3 POP POP PUSH1 0x60 DUP6 ADD CALLDATALOAD PUSH8 0xFFFFFFFFFFFFFFFF DUP2 GT ISZERO PUSH2 0xA5F JUMPI PUSH2 0xA5E PUSH2 0x671 JUMP JUMPDEST JUMPDEST PUSH2 0xA6B DUP8 DUP3 DUP9 ADD PUSH2 0x8EA JUMP JUMPDEST SWAP2 POP POP SWAP3 SWAP6 SWAP2 SWAP5 POP SWAP3 POP JUMP JUMPDEST PUSH2 0xA80 DUP2 PUSH2 0x9AA JUMP JUMPDEST DUP2 EQ PUSH2 0xA8A JUMPI PUSH0 PUSH0 REVERT JUMPDEST POP JUMP JUMPDEST PUSH0 DUP2 CALLDATALOAD SWAP1 POP PUSH2 0xA9B DUP2 PUSH2 0xA77 JUMP JUMPDEST SWAP3 SWAP2 POP POP JUMP JUMPDEST PUSH0 PUSH0 PUSH1 0x40 DUP4 DUP6 SUB SLT ISZERO PUSH2 0xAB7 JUMPI PUSH2 0xAB6 PUSH2 0x66D JUMP JUMPDEST JUMPDEST PUSH0 PUSH2 0xAC4 DUP6 DUP3 DUP7 ADD PUSH2 0xA8D JUMP JUMPDEST SWAP3 POP POP PUSH1 0x20 DUP4 ADD CALLDATALOAD PUSH8 0xFFFFFFFFFFFFFFFF DUP2 GT ISZERO PUSH2 0xAE5 JUMPI PUSH2 0xAE4 PUSH2 0x671 JUMP JUMPDEST JUMPDEST PUSH2 0xAF1 DUP6 DUP3 DUP7 ADD PUSH2 0x8EA JUMP JUMPDEST SWAP2 POP POP SWAP3 POP SWAP3 SWAP1 POP JUMP JUMPDEST PUSH0 PUSH1 0xA0 DUP3 ADD SWAP1 POP PUSH2 0xB0E PUSH0 DUP4 ADD DUP9 PUSH2 0x703 JUMP JUMPDEST PUSH2 0xB1B PUSH1 0x20 DUP4 ADD DUP8 PUSH2 0x72B JUMP JUMPDEST PUSH2 0xB28 PUSH1 0x40 DUP4 ADD DUP7 PUSH2 0x9B3 JUMP JUMPDEST PUSH2 0xB35 PUSH1 0x60 DUP4 ADD DUP6 PUSH2 0x72B JUMP JUMPDEST PUSH2 0xB42 PUSH1 0x80 DUP4 ADD DUP5 PUSH2 0x72B JUMP JUMPDEST SWAP7 SWAP6 POP POP POP POP POP POP JUMP JUMPDEST PUSH32 0x4E487B7100000000000000000000000000000000000000000000000000000000 PUSH0 MSTORE PUSH1 0x11 PUSH1 0x4 MSTORE PUSH1 0x24 PUSH0 REVERT JUMPDEST PUSH0 PUSH2 0xB83 DUP3 PUSH2 0x675 JUMP JUMPDEST SWAP2 POP PUSH32 0xFFFFFFFFFFFFFFFFFFFFFFFFFFFFFFFFFFFFFFFFFFFFFFFFFFFFFFFFFFFFFFFF DUP3 SUB PUSH2 0xBB5 JUMPI PUSH2 0xBB4 PUSH2 0xB4C JUMP JUMPDEST JUMPDEST PUSH1 0x1 DUP3 ADD SWAP1 POP SWAP2 SWAP1 POP JUMP JUMPDEST PUSH0 DUP2 MLOAD SWAP1 POP SWAP2 SWAP1 POP JUMP JUMPDEST PUSH0 DUP2 SWAP1 POP SWAP3 SWAP2 POP POP JUMP JUMPDEST DUP3 DUP2 DUP4 MCOPY PUSH0 DUP4 DUP4 ADD MSTORE POP POP POP JUMP JUMPDEST PUSH0 PUSH2 0xBEC DUP3 PUSH2 0xBC0 JUMP JUMPDEST PUSH2 0xBF6 DUP2 DUP6 PUSH2 0xBCA JUMP JUMPDEST SWAP4 POP PUSH2 0xC06 DUP2 DUP6 PUSH1 0x20 DUP7 ADD PUSH2 0xBD4 JUMP JUMPDEST DUP1 DUP5 ADD SWAP2 POP POP SWAP3 SWAP2 POP POP JUMP JUMPDEST PUSH0 PUSH2 0xC1D DUP3 DUP5 PUSH2 0xBE2 JUMP JUMPDEST SWAP2 POP DUP2 SWAP1 POP SWAP3 SWAP2 POP POP JUMP JUMPDEST PUSH0 DUP3 DUP3 MSTORE PUSH1 0x20 DUP3 ADD SWAP1 POP SWAP3 SWAP2 POP POP JUMP JUMPDEST PUSH32 0x5754463530303400000000000000000000000000000000000000000000000000 PUSH0 DUP3 ADD MSTORE POP JUMP JUMPDEST PUSH0 PUSH2 0xC6C PUSH1 0x7 DUP4 PUSH2 0xC28 JUMP JUMPDEST SWAP2 POP PUSH2 0xC77 DUP3 PUSH2 0xC38 JUMP JUMPDEST PUSH1 0x20 DUP3 ADD SWAP1 POP SWAP2 SWAP1 POP JUMP JUMPDEST PUSH0 PUSH1 0x20 DUP3 ADD SWAP1 POP DUP2 DUP2 SUB PUSH0 DUP4 ADD MSTORE PUSH2 0xC99 DUP2 PUSH2 0xC60 JUMP JUMPDEST SWAP1 POP SWAP2 SWAP1 POP JUMP JUMPDEST PUSH32 0x5754463530303500000000000000000000000000000000000000000000000000 PUSH0 DUP3 ADD MSTORE POP JUMP JUMPDEST PUSH0 PUSH2 0xCD4 PUSH1 0x7 DUP4 PUSH2 0xC28 JUMP JUMPDEST SWAP2 POP PUSH2 0xCDF DUP3 PUSH2 0xCA0 JUMP JUMPDEST PUSH1 0x20 DUP3 ADD SWAP1 POP SWAP2 SWAP1 POP JUMP JUMPDEST PUSH0 PUSH1 0x20 DUP3 ADD SWAP1 POP DUP2 DUP2 SUB PUSH0 DUP4 ADD MSTORE PUSH2 0xD01 DUP2 PUSH2 0xCC8 JUMP JUMPDEST SWAP1 POP SWAP2 SWAP1 POP JUMP JUMPDEST PUSH0 PUSH2 0xD12 DUP3 PUSH2 0x675 JUMP JUMPDEST SWAP2 POP PUSH2 0xD1D DUP4 PUSH2 0x675 JUMP JUMPDEST SWAP3 POP DUP3 DUP3 MUL PUSH2 0xD2B DUP2 PUSH2 0x675 JUMP JUMPDEST SWAP2 POP DUP3 DUP3 DIV DUP5 EQ DUP4 ISZERO OR PUSH2 0xD42 JUMPI PUSH2 0xD41 PUSH2 0xB4C JUMP JUMPDEST JUMPDEST POP SWAP3 SWAP2 POP POP JUMP JUMPDEST PUSH32 0x5754463530303600000000000000000000000000000000000000000000000000 PUSH0 DUP3 ADD MSTORE POP JUMP JUMPDEST PUSH0 PUSH2 0xD7D PUSH1 0x7 DUP4 PUSH2 0xC28 JUMP JUMPDEST SWAP2 POP PUSH2 0xD88 DUP3 PUSH2 0xD49 JUMP JUMPDEST PUSH1 0x20 DUP3 ADD SWAP1 POP SWAP2 SWAP1 POP JUMP JUMPDEST PUSH0 PUSH1 0x20 DUP3 ADD SWAP1 POP DUP2 DUP2 SUB PUSH0 DUP4 ADD MSTORE PUSH2 0xDAA DUP2 PUSH2 0xD71 JUMP JUMPDEST SWAP1 POP SWAP2 SWAP1 POP JUMP JUMPDEST PUSH0 DUP2 SWAP1 POP SWAP3 SWAP2 POP POP JUMP JUMPDEST PUSH32 0x19457468657265756D205369676E6564204D6573736167653A0A333200000000 PUSH0 DUP3 ADD MSTORE POP JUMP JUMPDEST PUSH0 PUSH2 0xDEF PUSH1 0x1C DUP4 PUSH2 0xDB1 JUMP JUMPDEST SWAP2 POP PUSH2 0xDFA DUP3 PUSH2 0xDBB JUMP JUMPDEST PUSH1 0x1C DUP3 ADD SWAP1 POP SWAP2 SWAP1 POP JUMP JUMPDEST PUSH0 DUP2 SWAP1 POP SWAP2 SWAP1 POP JUMP JUMPDEST PUSH2 0xE1F PUSH2 0xE1A DUP3 PUSH2 0x9AA JUMP JUMPDEST PUSH2 0xE05 JUMP JUMPDEST DUP3 MSTORE POP POP JUMP JUMPDEST PUSH0 PUSH2 0xE2F DUP3 PUSH2 0xDE3 JUMP JUMPDEST SWAP2 POP PUSH2 0xE3B DUP3 DUP5 PUSH2 0xE0E JUMP JUMPDEST PUSH1 0x20 DUP3 ADD SWAP2 POP DUP2 SWAP1 POP SWAP3 SWAP2 POP POP JUMP JUMPDEST PUSH0 PUSH1 0xFF DUP3 AND SWAP1 POP SWAP2 SWAP1 POP JUMP JUMPDEST PUSH2 0xE5F DUP2 PUSH2 0xE4A JUMP JUMPDEST DUP3 MSTORE POP POP JUMP JUMPDEST PUSH0 PUSH1 0x80 DUP3 ADD SWAP1 POP PUSH2 0xE78 PUSH0 DUP4 ADD DUP8 PUSH2 0x9B3 JUMP JUMPDEST PUSH2 0xE85 PUSH1 0x20 DUP4 ADD DUP7 PUSH2 0xE56 JUMP JUMPDEST PUSH2 0xE92 PUSH1 0x40 DUP4 ADD DUP6 PUSH2 0x9B3 JUMP JUMPDEST PUSH2 0xE9F PUSH1 0x60 DUP4 ADD DUP5 PUSH2 0x9B3 JUMP JUMPDEST SWAP6 SWAP5 POP POP POP POP POP JUMP JUMPDEST PUSH32 0x5754463530303700000000000000000000000000000000000000000000000000 PUSH0 DUP3 ADD MSTORE POP JUMP JUMPDEST PUSH0 PUSH2 0xEDC PUSH1 0x7 DUP4 PUSH2 0xC28 JUMP JUMPDEST SWAP2 POP PUSH2 0xEE7 DUP3 PUSH2 0xEA8 JUMP JUMPDEST PUSH1 0x20 DUP3 ADD SWAP1 POP SWAP2 SWAP1 POP JUMP JUMPDEST PUSH0 PUSH1 0x20 DUP3 ADD SWAP1 POP DUP2 DUP2 SUB PUSH0 DUP4 ADD MSTORE PUSH2 0xF09 DUP2 PUSH2 0xED0 JUMP JUMPDEST SWAP1 POP SWAP2 SWAP1 POP JUMP INVALID LOG2 PUSH5 0x6970667358 0x22 SLT KECCAK256 0xB3 PUSH5 0x7377408A0C DUP14 KECCAK256 NOT 0xC0 AND LOG4 DUP13 0xA8 0xAB 0xC1 0xBE 0xF7 PUSH16 0x517CAAEDA2A8DAE63A962C9A64736F6C PUSH4 0x4300081E STOP CALLER "
				},
				"gasEstimates": {
					"creation": {
						"codeDepositCost": "782000",
						"executionCost": "infinite",
						"totalCost": "infinite"
					},
					"external": {
						"checkSignatures(bytes32,bytes)": "infinite",
						"encodeTransactionData(address,uint256,bytes,uint256,uint256)": "infinite",
						"execTransaction(address,uint256,bytes,bytes)": "infinite",
						"isOwner(address)": "2878",
						"nonce()": "2447",
						"ownerCount()": "2448",
						"owners(uint256)": "4944",
						"threshold()": "2492"
					},
					"internal": {
						"_setupOwners(address[] memory,uint256)": "infinite",
						"signatureSplit(bytes memory,uint256)": "infinite"
					}
				},
				"methodIdentifiers": {
					"checkSignatures(bytes32,bytes)": "ed516d51",
					"encodeTransactionData(address,uint256,bytes,uint256,uint256)": "a67dd509",
					"execTransaction(address,uint256,bytes,bytes)": "d01aa318",
					"isOwner(address)": "2f54bf6e",
					"nonce()": "affed0e0",
					"ownerCount()": "0db02622",
					"owners(uint256)": "025e7c27",
					"threshold()": "42cde4e8"
				}
			},
			"storageLayout": {
				"storage": [
					{
						"astId": 12,
						"contract": "contracts/MultisigWallet.sol:MultisigWallet",
						"label": "owners",
						"offset": 0,
						"slot": "0",
						"type": "t_array(t_address)dyn_storage"
					},
					{
						"astId": 16,
						"contract": "contracts/MultisigWallet.sol:MultisigWallet",
						"label": "isOwner",
						"offset": 0,
						"slot": "1",
						"type": "t_mapping(t_address,t_bool)"
					},
					{
						"astId": 18,
						"contract": "contracts/MultisigWallet.sol:MultisigWallet",
						"label": "ownerCount",
						"offset": 0,
						"slot": "2",
						"type": "t_uint256"
					},
					{
						"astId": 20,
						"contract": "contracts/MultisigWallet.sol:MultisigWallet",
						"label": "threshold",
						"offset": 0,
						"slot": "3",
						"type": "t_uint256"
					},
					{
						"astId": 22,
						"contract": "contracts/MultisigWallet.sol:MultisigWallet",
						"label": "nonce",
						"offset": 0,
						"slot": "4",
						"type": "t_uint256"
					}
				],
				"types": {
					"t_address": {
						"encoding": "inplace",
						"label": "address",
						"numberOfBytes": "20"
					},
					"t_array(t_address)dyn_storage": {
						"base": "t_address",
						"encoding": "dynamic_array",
						"label": "address[]",
						"numberOfBytes": "32"
					},
					"t_bool": {
						"encoding": "inplace",
						"label": "bool",
						"numberOfBytes": "1"
					},
					"t_mapping(t_address,t_bool)": {
						"encoding": "mapping",
						"key": "t_address",
						"label": "mapping(address => bool)",
						"numberOfBytes": "32",
						"value": "t_bool"
					},
					"t_uint256": {
						"encoding": "inplace",
						"label": "uint256",
						"numberOfBytes": "32"
					}
				}
			},
			"userdoc": {
				"kind": "user",
				"methods": {
					"checkSignatures(bytes32,bytes)": {
						"notice": "检查签名和交易数据是否对应。如果是无效签名，交易会revert"
					},
					"encodeTransactionData(address,uint256,bytes,uint256,uint256)": {
						"notice": "编码交易数据"
					}
				},
				"version": 1
			}
		}
	}
}