{
	"contracts/Airdrop.sol": {
		"Airdrop": {
			"abi": [
				{
					"inputs": [
						{
							"internalType": "address[]",
							"name": "_addresses",
							"type": "address[]"
						},
						{
							"internalType": "uint256[]",
							"name": "_amounts",
							"type": "uint256[]"
						}
					],
					"name": "multiTransferETH",
					"outputs": [],
					"stateMutability": "payable",
					"type": "function"
				},
				{
					"inputs": [
						{
							"internalType": "address",
							"name": "_token",
							"type": "address"
						},
						{
							"internalType": "address[]",
							"name": "_addresses",
							"type": "address[]"
						},
						{
							"internalType": "uint256[]",
							"name": "_amounts",
							"type": "uint256[]"
						}
					],
					"name": "multiTransferToken",
					"outputs": [],
					"stateMutability": "nonpayable",
					"type": "function"
				},
				{
					"inputs": [
						{
							"internalType": "address",
							"name": "_to",
							"type": "address"
						}
					],
					"name": "withdrawFromFailList",
					"outputs": [],
					"stateMutability": "nonpayable",
					"type": "function"
				}
			],
			"devdoc": {
				"kind": "dev",
				"methods": {
					"multiTransferToken(address,address[],uint256[])": {
						"params": {
							"_addresses": "空投地址数组",
							"_amounts": "代币数量数组（每个地址的空投数量）",
							"_token": "转账的ERC20代币地址"
						}
					}
				},
				"version": 1
			},
			"evm": {
				"assembly": "    /* \"contracts/Airdrop.sol\":219:3314  contract Airdrop{... */\n  mstore(0x40, 0x80)\n  callvalue\n  dup1\n  iszero\n  tag_1\n  jumpi\n  revert(0x00, 0x00)\ntag_1:\n  pop\n  dataSize(sub_0)\n  dup1\n  dataOffset(sub_0)\n  0x00\n  codecopy\n  0x00\n  return\nstop\n\nsub_0: assembly {\n        /* \"contracts/Airdrop.sol\":219:3314  contract Airdrop{... */\n      mstore(0x40, 0x80)\n      jumpi(tag_1, lt(calldatasize, 0x04))\n      shr(0xe0, calldataload(0x00))\n      dup1\n      0x41ed24a2\n      eq\n      tag_2\n      jumpi\n      dup1\n      0x77988cf8\n      eq\n      tag_3\n      jumpi\n      dup1\n      0xacacd8ee\n      eq\n      tag_4\n      jumpi\n    tag_1:\n      revert(0x00, 0x00)\n        /* \"contracts/Airdrop.sol\":542:1552  function multiTransferToken(address _token,address[] calldata _addresses, uint256[] calldata _amounts) external {... */\n    tag_2:\n      callvalue\n      dup1\n      iszero\n      tag_5\n      jumpi\n      revert(0x00, 0x00)\n    tag_5:\n      pop\n      tag_6\n      0x04\n      dup1\n      calldatasize\n      sub\n      dup2\n      add\n      swap1\n      tag_7\n      swap2\n      swap1\n      tag_8\n      jump\t// in\n    tag_7:\n      tag_9\n      jump\t// in\n    tag_6:\n      stop\n        /* \"contracts/Airdrop.sol\":1776:2535  function multiTransferETH(address[] calldata  _addresses,uint[] calldata _amounts) public payable{... */\n    tag_3:\n      tag_10\n      0x04\n      dup1\n      calldatasize\n      sub\n      dup2\n      add\n      swap1\n      tag_11\n      swap2\n      swap1\n      tag_12\n      jump\t// in\n    tag_11:\n      tag_13\n      jump\t// in\n    tag_10:\n      stop\n        /* \"contracts/Airdrop.sol\":2594:3307  function withdrawFromFailList(address _to) public {... */\n    tag_4:\n      callvalue\n      dup1\n      iszero\n      tag_14\n      jumpi\n      revert(0x00, 0x00)\n    tag_14:\n      pop\n      tag_15\n      0x04\n      dup1\n      calldatasize\n      sub\n      dup2\n      add\n      swap1\n      tag_16\n      swap2\n      swap1\n      tag_17\n      jump\t// in\n    tag_16:\n      tag_18\n      jump\t// in\n    tag_15:\n      stop\n        /* \"contracts/Airdrop.sol\":542:1552  function multiTransferToken(address _token,address[] calldata _addresses, uint256[] calldata _amounts) external {... */\n    tag_9:\n        /* \"contracts/Airdrop.sol\":758:766  _amounts */\n      dup2\n      dup2\n        /* \"contracts/Airdrop.sol\":758:773  _amounts.length */\n      swap1\n      pop\n        /* \"contracts/Airdrop.sol\":737:747  _addresses */\n      dup5\n      dup5\n        /* \"contracts/Airdrop.sol\":737:754  _addresses.length */\n      swap1\n      pop\n        /* \"contracts/Airdrop.sol\":737:773  _addresses.length == _amounts.length */\n      eq\n        /* \"contracts/Airdrop.sol\":729:793  require(_addresses.length == _amounts.length,\"length not equal\") */\n      tag_20\n      jumpi\n      mload(0x40)\n      0x08c379a000000000000000000000000000000000000000000000000000000000\n      dup2\n      mstore\n      0x04\n      add\n      tag_21\n      swap1\n      tag_22\n      jump\t// in\n    tag_21:\n      mload(0x40)\n      dup1\n      swap2\n      sub\n      swap1\n      revert\n    tag_20:\n        /* \"contracts/Airdrop.sol\":828:836  uint sum */\n      0x00\n        /* \"contracts/Airdrop.sol\":839:855  getSum(_amounts) */\n      tag_23\n        /* \"contracts/Airdrop.sol\":846:854  _amounts */\n      dup4\n      dup4\n        /* \"contracts/Airdrop.sol\":839:845  getSum */\n      tag_24\n        /* \"contracts/Airdrop.sol\":839:855  getSum(_amounts) */\n      jump\t// in\n    tag_23:\n        /* \"contracts/Airdrop.sol\":828:855  uint sum = getSum(_amounts) */\n      swap1\n      pop\n        /* \"contracts/Airdrop.sol\":947:959  IERC20 token */\n      0x00\n        /* \"contracts/Airdrop.sol\":969:975  _token */\n      dup7\n        /* \"contracts/Airdrop.sol\":947:976  IERC20 token = IERC20(_token) */\n      swap1\n      pop\n        /* \"contracts/Airdrop.sol\":1333:1336  sum */\n      dup2\n        /* \"contracts/Airdrop.sol\":1288:1293  token */\n      dup2\n        /* \"contracts/Airdrop.sol\":1288:1303  token.allowance */\n      0xffffffffffffffffffffffffffffffffffffffff\n      and\n      0xdd62ed3e\n        /* \"contracts/Airdrop.sol\":1304:1314  msg.sender */\n      caller\n        /* \"contracts/Airdrop.sol\":1323:1327  this */\n      address\n        /* \"contracts/Airdrop.sol\":1288:1329  token.allowance(msg.sender,address(this)) */\n      mload(0x40)\n      dup4\n      0xffffffff\n      and\n      0xe0\n      shl\n      dup2\n      mstore\n      0x04\n      add\n      tag_25\n      swap3\n      swap2\n      swap1\n      tag_26\n      jump\t// in\n    tag_25:\n      0x20\n      mload(0x40)\n      dup1\n      dup4\n      sub\n      dup2\n      dup7\n      gas\n      staticcall\n      iszero\n      dup1\n      iszero\n      tag_28\n      jumpi\n      returndatacopy(0x00, 0x00, returndatasize)\n      revert(0x00, returndatasize)\n    tag_28:\n      pop\n      pop\n      pop\n      pop\n      mload(0x40)\n      returndatasize\n      not(0x1f)\n      0x1f\n      dup3\n      add\n      and\n      dup3\n      add\n      dup1\n      0x40\n      mstore\n      pop\n      dup2\n      add\n      swap1\n      tag_29\n      swap2\n      swap1\n      tag_30\n      jump\t// in\n    tag_29:\n        /* \"contracts/Airdrop.sol\":1288:1336  token.allowance(msg.sender,address(this)) >= sum */\n      lt\n      iszero\n        /* \"contracts/Airdrop.sol\":1280:1359  require(token.allowance(msg.sender,address(this)) >= sum,\"no enough allowance\") */\n      tag_31\n      jumpi\n      mload(0x40)\n      0x08c379a000000000000000000000000000000000000000000000000000000000\n      dup2\n      mstore\n      0x04\n      add\n      tag_32\n      swap1\n      tag_33\n      jump\t// in\n    tag_32:\n      mload(0x40)\n      dup1\n      swap2\n      sub\n      swap1\n      revert\n    tag_31:\n        /* \"contracts/Airdrop.sol\":1415:1421  uint i */\n      0x00\n        /* \"contracts/Airdrop.sol\":1424:1425  0 */\n      0x00\n        /* \"contracts/Airdrop.sol\":1415:1425  uint i = 0 */\n      swap1\n      pop\n        /* \"contracts/Airdrop.sol\":1410:1533  for (uint i = 0;i<_addresses.length;i++){... */\n    tag_34:\n        /* \"contracts/Airdrop.sol\":1428:1438  _addresses */\n      dup7\n      dup7\n        /* \"contracts/Airdrop.sol\":1428:1445  _addresses.length */\n      swap1\n      pop\n        /* \"contracts/Airdrop.sol\":1426:1427  i */\n      dup2\n        /* \"contracts/Airdrop.sol\":1426:1445  i<_addresses.length */\n      lt\n        /* \"contracts/Airdrop.sol\":1410:1533  for (uint i = 0;i<_addresses.length;i++){... */\n      iszero\n      tag_35\n      jumpi\n        /* \"contracts/Airdrop.sol\":1465:1470  token */\n      dup2\n        /* \"contracts/Airdrop.sol\":1465:1483  token.transferFrom */\n      0xffffffffffffffffffffffffffffffffffffffff\n      and\n      0x23b872dd\n        /* \"contracts/Airdrop.sol\":1484:1494  msg.sender */\n      caller\n        /* \"contracts/Airdrop.sol\":1495:1505  _addresses */\n      dup10\n      dup10\n        /* \"contracts/Airdrop.sol\":1506:1507  i */\n      dup6\n        /* \"contracts/Airdrop.sol\":1495:1508  _addresses[i] */\n      dup2\n      dup2\n      lt\n      tag_37\n      jumpi\n      tag_38\n      tag_39\n      jump\t// in\n    tag_38:\n    tag_37:\n      swap1\n      pop\n      0x20\n      mul\n      add\n      0x20\n      dup2\n      add\n      swap1\n      tag_40\n      swap2\n      swap1\n      tag_17\n      jump\t// in\n    tag_40:\n        /* \"contracts/Airdrop.sol\":1509:1517  _amounts */\n      dup9\n      dup9\n        /* \"contracts/Airdrop.sol\":1518:1519  i */\n      dup7\n        /* \"contracts/Airdrop.sol\":1509:1520  _amounts[i] */\n      dup2\n      dup2\n      lt\n      tag_41\n      jumpi\n      tag_42\n      tag_39\n      jump\t// in\n    tag_42:\n    tag_41:\n      swap1\n      pop\n      0x20\n      mul\n      add\n      calldataload\n        /* \"contracts/Airdrop.sol\":1465:1521  token.transferFrom(msg.sender,_addresses[i],_amounts[i]) */\n      mload(0x40)\n      dup5\n      0xffffffff\n      and\n      0xe0\n      shl\n      dup2\n      mstore\n      0x04\n      add\n      tag_43\n      swap4\n      swap3\n      swap2\n      swap1\n      tag_44\n      jump\t// in\n    tag_43:\n      0x20\n      mload(0x40)\n      dup1\n      dup4\n      sub\n      dup2\n      0x00\n      dup8\n      gas\n      call\n      iszero\n      dup1\n      iszero\n      tag_46\n      jumpi\n      returndatacopy(0x00, 0x00, returndatasize)\n      revert(0x00, returndatasize)\n    tag_46:\n      pop\n      pop\n      pop\n      pop\n      mload(0x40)\n      returndatasize\n      not(0x1f)\n      0x1f\n      dup3\n      add\n      and\n      dup3\n      add\n      dup1\n      0x40\n      mstore\n      pop\n      dup2\n      add\n      swap1\n      tag_47\n      swap2\n      swap1\n      tag_48\n      jump\t// in\n    tag_47:\n      pop\n        /* \"contracts/Airdrop.sol\":1446:1449  i++ */\n      dup1\n      dup1\n      0x01\n      add\n      swap2\n      pop\n      pop\n        /* \"contracts/Airdrop.sol\":1410:1533  for (uint i = 0;i<_addresses.length;i++){... */\n      jump(tag_34)\n    tag_35:\n      pop\n        /* \"contracts/Airdrop.sol\":654:1552  {... */\n      pop\n      pop\n        /* \"contracts/Airdrop.sol\":542:1552  function multiTransferToken(address _token,address[] calldata _addresses, uint256[] calldata _amounts) external {... */\n      pop\n      pop\n      pop\n      pop\n      pop\n      jump\t// out\n        /* \"contracts/Airdrop.sol\":1776:2535  function multiTransferETH(address[] calldata  _addresses,uint[] calldata _amounts) public payable{... */\n    tag_13:\n        /* \"contracts/Airdrop.sol\":1977:1985  _amounts */\n      dup2\n      dup2\n        /* \"contracts/Airdrop.sol\":1977:1992  _amounts.length */\n      swap1\n      pop\n        /* \"contracts/Airdrop.sol\":1956:1966  _addresses */\n      dup5\n      dup5\n        /* \"contracts/Airdrop.sol\":1956:1973  _addresses.length */\n      swap1\n      pop\n        /* \"contracts/Airdrop.sol\":1956:1992  _addresses.length == _amounts.length */\n      eq\n        /* \"contracts/Airdrop.sol\":1948:2012  require(_addresses.length == _amounts.length,\"length not equal\") */\n      tag_50\n      jumpi\n      mload(0x40)\n      0x08c379a000000000000000000000000000000000000000000000000000000000\n      dup2\n      mstore\n      0x04\n      add\n      tag_51\n      swap1\n      tag_22\n      jump\t// in\n    tag_51:\n      mload(0x40)\n      dup1\n      swap2\n      sub\n      swap1\n      revert\n    tag_50:\n        /* \"contracts/Airdrop.sol\":2024:2039  uint _amountSum */\n      0x00\n        /* \"contracts/Airdrop.sol\":2042:2058  getSum(_amounts) */\n      tag_52\n        /* \"contracts/Airdrop.sol\":2049:2057  _amounts */\n      dup4\n      dup4\n        /* \"contracts/Airdrop.sol\":2042:2048  getSum */\n      tag_24\n        /* \"contracts/Airdrop.sol\":2042:2058  getSum(_amounts) */\n      jump\t// in\n    tag_52:\n        /* \"contracts/Airdrop.sol\":2024:2058  uint _amountSum = getSum(_amounts) */\n      swap1\n      pop\n        /* \"contracts/Airdrop.sol\":2163:2173  _amountSum */\n      dup1\n        /* \"contracts/Airdrop.sol\":2150:2159  msg.value */\n      callvalue\n        /* \"contracts/Airdrop.sol\":2150:2173  msg.value == _amountSum */\n      eq\n        /* \"contracts/Airdrop.sol\":2142:2199  require(msg.value == _amountSum, \"Transfer amount error\") */\n      tag_53\n      jumpi\n      mload(0x40)\n      0x08c379a000000000000000000000000000000000000000000000000000000000\n      dup2\n      mstore\n      0x04\n      add\n      tag_54\n      swap1\n      tag_55\n      jump\t// in\n    tag_54:\n      mload(0x40)\n      dup1\n      swap2\n      sub\n      swap1\n      revert\n    tag_53:\n        /* \"contracts/Airdrop.sol\":2271:2280  uint256 i */\n      0x00\n        /* \"contracts/Airdrop.sol\":2283:2284  0 */\n      0x00\n        /* \"contracts/Airdrop.sol\":2271:2284  uint256 i = 0 */\n      swap1\n      pop\n        /* \"contracts/Airdrop.sol\":2266:2513  for (uint256 i = 0; i < _addresses.length; i++) {... */\n    tag_56:\n        /* \"contracts/Airdrop.sol\":2290:2300  _addresses */\n      dup6\n      dup6\n        /* \"contracts/Airdrop.sol\":2290:2307  _addresses.length */\n      swap1\n      pop\n        /* \"contracts/Airdrop.sol\":2286:2287  i */\n      dup2\n        /* \"contracts/Airdrop.sol\":2286:2307  i < _addresses.length */\n      lt\n        /* \"contracts/Airdrop.sol\":2266:2513  for (uint256 i = 0; i < _addresses.length; i++) {... */\n      iszero\n      tag_57\n      jumpi\n        /* \"contracts/Airdrop.sol\":2331:2343  bool success */\n      0x00\n        /* \"contracts/Airdrop.sol\":2349:2359  _addresses */\n      dup7\n      dup7\n        /* \"contracts/Airdrop.sol\":2360:2361  i */\n      dup4\n        /* \"contracts/Airdrop.sol\":2349:2362  _addresses[i] */\n      dup2\n      dup2\n      lt\n      tag_59\n      jumpi\n      tag_60\n      tag_39\n      jump\t// in\n    tag_60:\n    tag_59:\n      swap1\n      pop\n      0x20\n      mul\n      add\n      0x20\n      dup2\n      add\n      swap1\n      tag_61\n      swap2\n      swap1\n      tag_17\n      jump\t// in\n    tag_61:\n        /* \"contracts/Airdrop.sol\":2349:2367  _addresses[i].call */\n      0xffffffffffffffffffffffffffffffffffffffff\n      and\n        /* \"contracts/Airdrop.sol\":2374:2382  _amounts */\n      dup6\n      dup6\n        /* \"contracts/Airdrop.sol\":2383:2384  i */\n      dup5\n        /* \"contracts/Airdrop.sol\":2374:2385  _amounts[i] */\n      dup2\n      dup2\n      lt\n      tag_62\n      jumpi\n      tag_63\n      tag_39\n      jump\t// in\n    tag_63:\n    tag_62:\n      swap1\n      pop\n      0x20\n      mul\n      add\n      calldataload\n        /* \"contracts/Airdrop.sol\":2349:2390  _addresses[i].call{value:_amounts[i]}(\"\") */\n      mload(0x40)\n      tag_64\n      swap1\n      tag_65\n      jump\t// in\n    tag_64:\n      0x00\n      mload(0x40)\n      dup1\n      dup4\n      sub\n      dup2\n      dup6\n      dup8\n      gas\n      call\n      swap3\n      pop\n      pop\n      pop\n      returndatasize\n      dup1\n      0x00\n      dup2\n      eq\n      tag_68\n      jumpi\n      mload(0x40)\n      swap2\n      pop\n      and(add(returndatasize, 0x3f), not(0x1f))\n      dup3\n      add\n      0x40\n      mstore\n      returndatasize\n      dup3\n      mstore\n      returndatasize\n      0x00\n      0x20\n      dup5\n      add\n      returndatacopy\n      jump(tag_67)\n    tag_68:\n      0x60\n      swap2\n      pop\n    tag_67:\n      pop\n        /* \"contracts/Airdrop.sol\":2330:2390  (bool success, ) = _addresses[i].call{value:_amounts[i]}(\"\") */\n      pop\n      swap1\n      pop\n        /* \"contracts/Airdrop.sol\":2412:2419  success */\n      dup1\n        /* \"contracts/Airdrop.sol\":2407:2501  if (!success) {... */\n      tag_69\n      jumpi\n        /* \"contracts/Airdrop.sol\":2474:2482  _amounts */\n      dup5\n      dup5\n        /* \"contracts/Airdrop.sol\":2483:2484  i */\n      dup4\n        /* \"contracts/Airdrop.sol\":2474:2485  _amounts[i] */\n      dup2\n      dup2\n      lt\n      tag_70\n      jumpi\n      tag_71\n      tag_39\n      jump\t// in\n    tag_71:\n    tag_70:\n      swap1\n      pop\n      0x20\n      mul\n      add\n      calldataload\n        /* \"contracts/Airdrop.sol\":2440:2456  failTransferList */\n      0x00\n        /* \"contracts/Airdrop.sol\":2440:2471  failTransferList[_addresses[i]] */\n      0x00\n        /* \"contracts/Airdrop.sol\":2457:2467  _addresses */\n      dup10\n      dup10\n        /* \"contracts/Airdrop.sol\":2468:2469  i */\n      dup7\n        /* \"contracts/Airdrop.sol\":2457:2470  _addresses[i] */\n      dup2\n      dup2\n      lt\n      tag_72\n      jumpi\n      tag_73\n      tag_39\n      jump\t// in\n    tag_73:\n    tag_72:\n      swap1\n      pop\n      0x20\n      mul\n      add\n      0x20\n      dup2\n      add\n      swap1\n      tag_74\n      swap2\n      swap1\n      tag_17\n      jump\t// in\n    tag_74:\n        /* \"contracts/Airdrop.sol\":2440:2471  failTransferList[_addresses[i]] */\n      0xffffffffffffffffffffffffffffffffffffffff\n      and\n      0xffffffffffffffffffffffffffffffffffffffff\n      and\n      dup2\n      mstore\n      0x20\n      add\n      swap1\n      dup2\n      mstore\n      0x20\n      add\n      0x00\n      keccak256\n        /* \"contracts/Airdrop.sol\":2440:2485  failTransferList[_addresses[i]] = _amounts[i] */\n      dup2\n      swap1\n      sstore\n      pop\n        /* \"contracts/Airdrop.sol\":2407:2501  if (!success) {... */\n    tag_69:\n        /* \"contracts/Airdrop.sol\":2314:2513  {... */\n      pop\n        /* \"contracts/Airdrop.sol\":2309:2312  i++ */\n      dup1\n      dup1\n      0x01\n      add\n      swap2\n      pop\n      pop\n        /* \"contracts/Airdrop.sol\":2266:2513  for (uint256 i = 0; i < _addresses.length; i++) {... */\n      jump(tag_56)\n    tag_57:\n      pop\n        /* \"contracts/Airdrop.sol\":1873:2535  {... */\n      pop\n        /* \"contracts/Airdrop.sol\":1776:2535  function multiTransferETH(address[] calldata  _addresses,uint[] calldata _amounts) public payable{... */\n      pop\n      pop\n      pop\n      pop\n      jump\t// out\n        /* \"contracts/Airdrop.sol\":2594:3307  function withdrawFromFailList(address _to) public {... */\n    tag_18:\n        /* \"contracts/Airdrop.sol\":2655:2670  uint failAmount */\n      0x00\n        /* \"contracts/Airdrop.sol\":2673:2689  failTransferList */\n      0x00\n        /* \"contracts/Airdrop.sol\":2673:2701  failTransferList[msg.sender] */\n      0x00\n        /* \"contracts/Airdrop.sol\":2690:2700  msg.sender */\n      caller\n        /* \"contracts/Airdrop.sol\":2673:2701  failTransferList[msg.sender] */\n      0xffffffffffffffffffffffffffffffffffffffff\n      and\n      0xffffffffffffffffffffffffffffffffffffffff\n      and\n      dup2\n      mstore\n      0x20\n      add\n      swap1\n      dup2\n      mstore\n      0x20\n      add\n      0x00\n      keccak256\n      sload\n        /* \"contracts/Airdrop.sol\":2655:2701  uint failAmount = failTransferList[msg.sender] */\n      swap1\n      pop\n        /* \"contracts/Airdrop.sol\":2733:2734  0 */\n      0x00\n        /* \"contracts/Airdrop.sol\":2720:2730  failAmount */\n      dup2\n        /* \"contracts/Airdrop.sol\":2720:2734  failAmount > 0 */\n      gt\n        /* \"contracts/Airdrop.sol\":2712:2765  require(failAmount > 0, \"You are not in failed list\") */\n      tag_76\n      jumpi\n      mload(0x40)\n      0x08c379a000000000000000000000000000000000000000000000000000000000\n      dup2\n      mstore\n      0x04\n      add\n      tag_77\n      swap1\n      tag_78\n      jump\t// in\n    tag_77:\n      mload(0x40)\n      dup1\n      swap2\n      sub\n      swap1\n      revert\n    tag_76:\n        /* \"contracts/Airdrop.sol\":2807:2808  0 */\n      0x00\n        /* \"contracts/Airdrop.sol\":2776:2792  failTransferList */\n      0x00\n        /* \"contracts/Airdrop.sol\":2776:2804  failTransferList[msg.sender] */\n      0x00\n        /* \"contracts/Airdrop.sol\":2793:2803  msg.sender */\n      caller\n        /* \"contracts/Airdrop.sol\":2776:2804  failTransferList[msg.sender] */\n      0xffffffffffffffffffffffffffffffffffffffff\n      and\n      0xffffffffffffffffffffffffffffffffffffffff\n      and\n      dup2\n      mstore\n      0x20\n      add\n      swap1\n      dup2\n      mstore\n      0x20\n      add\n      0x00\n      keccak256\n        /* \"contracts/Airdrop.sol\":2776:2808  failTransferList[msg.sender] = 0 */\n      dup2\n      swap1\n      sstore\n      pop\n        /* \"contracts/Airdrop.sol\":3206:3218  bool success */\n      0x00\n        /* \"contracts/Airdrop.sol\":3224:3227  _to */\n      dup3\n        /* \"contracts/Airdrop.sol\":3224:3232  _to.call */\n      0xffffffffffffffffffffffffffffffffffffffff\n      and\n        /* \"contracts/Airdrop.sol\":3240:3250  failAmount */\n      dup3\n        /* \"contracts/Airdrop.sol\":3224:3255  _to.call{value: failAmount}(\"\") */\n      mload(0x40)\n      tag_79\n      swap1\n      tag_65\n      jump\t// in\n    tag_79:\n      0x00\n      mload(0x40)\n      dup1\n      dup4\n      sub\n      dup2\n      dup6\n      dup8\n      gas\n      call\n      swap3\n      pop\n      pop\n      pop\n      returndatasize\n      dup1\n      0x00\n      dup2\n      eq\n      tag_82\n      jumpi\n      mload(0x40)\n      swap2\n      pop\n      and(add(returndatasize, 0x3f), not(0x1f))\n      dup3\n      add\n      0x40\n      mstore\n      returndatasize\n      dup3\n      mstore\n      returndatasize\n      0x00\n      0x20\n      dup5\n      add\n      returndatacopy\n      jump(tag_81)\n    tag_82:\n      0x60\n      swap2\n      pop\n    tag_81:\n      pop\n        /* \"contracts/Airdrop.sol\":3205:3255  (bool success, ) = _to.call{value: failAmount}(\"\") */\n      pop\n      swap1\n      pop\n        /* \"contracts/Airdrop.sol\":3274:3281  success */\n      dup1\n        /* \"contracts/Airdrop.sol\":3266:3299  require(success, \"Fail withdraw\") */\n      tag_83\n      jumpi\n      mload(0x40)\n      0x08c379a000000000000000000000000000000000000000000000000000000000\n      dup2\n      mstore\n      0x04\n      add\n      tag_84\n      swap1\n      tag_85\n      jump\t// in\n    tag_84:\n      mload(0x40)\n      dup1\n      swap2\n      sub\n      swap1\n      revert\n    tag_83:\n        /* \"contracts/Airdrop.sol\":2644:3307  {... */\n      pop\n      pop\n        /* \"contracts/Airdrop.sol\":2594:3307  function withdrawFromFailList(address _to) public {... */\n      pop\n      jump\t// out\n        /* \"contracts/Airdrop.sol\":1560:1734  function getSum(uint256[] calldata _amounts) internal pure returns(uint sum){... */\n    tag_24:\n        /* \"contracts/Airdrop.sol\":1627:1635  uint sum */\n      0x00\n        /* \"contracts/Airdrop.sol\":1651:1657  uint i */\n      0x00\n        /* \"contracts/Airdrop.sol\":1658:1659  0 */\n      0x00\n        /* \"contracts/Airdrop.sol\":1651:1659  uint i=0 */\n      swap1\n      pop\n        /* \"contracts/Airdrop.sol\":1647:1725  for(uint i=0;i<_amounts.length;i++){... */\n    tag_87:\n        /* \"contracts/Airdrop.sol\":1662:1670  _amounts */\n      dup4\n      dup4\n        /* \"contracts/Airdrop.sol\":1662:1677  _amounts.length */\n      swap1\n      pop\n        /* \"contracts/Airdrop.sol\":1660:1661  i */\n      dup2\n        /* \"contracts/Airdrop.sol\":1660:1677  i<_amounts.length */\n      lt\n        /* \"contracts/Airdrop.sol\":1647:1725  for(uint i=0;i<_amounts.length;i++){... */\n      iszero\n      tag_88\n      jumpi\n        /* \"contracts/Airdrop.sol\":1702:1710  _amounts */\n      dup4\n      dup4\n        /* \"contracts/Airdrop.sol\":1711:1712  i */\n      dup3\n        /* \"contracts/Airdrop.sol\":1702:1713  _amounts[i] */\n      dup2\n      dup2\n      lt\n      tag_90\n      jumpi\n      tag_91\n      tag_39\n      jump\t// in\n    tag_91:\n    tag_90:\n      swap1\n      pop\n      0x20\n      mul\n      add\n      calldataload\n        /* \"contracts/Airdrop.sol\":1697:1713  sum+=_amounts[i] */\n      dup3\n      tag_92\n      swap2\n      swap1\n      tag_93\n      jump\t// in\n    tag_92:\n      swap2\n      pop\n        /* \"contracts/Airdrop.sol\":1678:1681  i++ */\n      dup1\n      dup1\n      0x01\n      add\n      swap2\n      pop\n      pop\n        /* \"contracts/Airdrop.sol\":1647:1725  for(uint i=0;i<_amounts.length;i++){... */\n      jump(tag_87)\n    tag_88:\n      pop\n        /* \"contracts/Airdrop.sol\":1560:1734  function getSum(uint256[] calldata _amounts) internal pure returns(uint sum){... */\n      swap3\n      swap2\n      pop\n      pop\n      jump\t// out\n        /* \"#utility.yul\":88:205   */\n    tag_95:\n        /* \"#utility.yul\":197:198   */\n      0x00\n        /* \"#utility.yul\":194:195   */\n      0x00\n        /* \"#utility.yul\":187:199   */\n      revert\n        /* \"#utility.yul\":211:328   */\n    tag_96:\n        /* \"#utility.yul\":320:321   */\n      0x00\n        /* \"#utility.yul\":317:318   */\n      0x00\n        /* \"#utility.yul\":310:322   */\n      revert\n        /* \"#utility.yul\":334:460   */\n    tag_97:\n        /* \"#utility.yul\":371:378   */\n      0x00\n        /* \"#utility.yul\":411:453   */\n      0xffffffffffffffffffffffffffffffffffffffff\n        /* \"#utility.yul\":404:409   */\n      dup3\n        /* \"#utility.yul\":400:454   */\n      and\n        /* \"#utility.yul\":389:454   */\n      swap1\n      pop\n        /* \"#utility.yul\":334:460   */\n      swap2\n      swap1\n      pop\n      jump\t// out\n        /* \"#utility.yul\":466:562   */\n    tag_98:\n        /* \"#utility.yul\":503:510   */\n      0x00\n        /* \"#utility.yul\":532:556   */\n      tag_135\n        /* \"#utility.yul\":550:555   */\n      dup3\n        /* \"#utility.yul\":532:556   */\n      tag_97\n      jump\t// in\n    tag_135:\n        /* \"#utility.yul\":521:556   */\n      swap1\n      pop\n        /* \"#utility.yul\":466:562   */\n      swap2\n      swap1\n      pop\n      jump\t// out\n        /* \"#utility.yul\":568:690   */\n    tag_99:\n        /* \"#utility.yul\":641:665   */\n      tag_137\n        /* \"#utility.yul\":659:664   */\n      dup2\n        /* \"#utility.yul\":641:665   */\n      tag_98\n      jump\t// in\n    tag_137:\n        /* \"#utility.yul\":634:639   */\n      dup2\n        /* \"#utility.yul\":631:666   */\n      eq\n        /* \"#utility.yul\":621:684   */\n      tag_138\n      jumpi\n        /* \"#utility.yul\":680:681   */\n      0x00\n        /* \"#utility.yul\":677:678   */\n      0x00\n        /* \"#utility.yul\":670:682   */\n      revert\n        /* \"#utility.yul\":621:684   */\n    tag_138:\n        /* \"#utility.yul\":568:690   */\n      pop\n      jump\t// out\n        /* \"#utility.yul\":696:835   */\n    tag_100:\n        /* \"#utility.yul\":742:747   */\n      0x00\n        /* \"#utility.yul\":780:786   */\n      dup2\n        /* \"#utility.yul\":767:787   */\n      calldataload\n        /* \"#utility.yul\":758:787   */\n      swap1\n      pop\n        /* \"#utility.yul\":796:829   */\n      tag_140\n        /* \"#utility.yul\":823:828   */\n      dup2\n        /* \"#utility.yul\":796:829   */\n      tag_99\n      jump\t// in\n    tag_140:\n        /* \"#utility.yul\":696:835   */\n      swap3\n      swap2\n      pop\n      pop\n      jump\t// out\n        /* \"#utility.yul\":841:958   */\n    tag_101:\n        /* \"#utility.yul\":950:951   */\n      0x00\n        /* \"#utility.yul\":947:948   */\n      0x00\n        /* \"#utility.yul\":940:952   */\n      revert\n        /* \"#utility.yul\":964:1081   */\n    tag_102:\n        /* \"#utility.yul\":1073:1074   */\n      0x00\n        /* \"#utility.yul\":1070:1071   */\n      0x00\n        /* \"#utility.yul\":1063:1075   */\n      revert\n        /* \"#utility.yul\":1087:1204   */\n    tag_103:\n        /* \"#utility.yul\":1196:1197   */\n      0x00\n        /* \"#utility.yul\":1193:1194   */\n      0x00\n        /* \"#utility.yul\":1186:1198   */\n      revert\n        /* \"#utility.yul\":1227:1795   */\n    tag_104:\n        /* \"#utility.yul\":1300:1308   */\n      0x00\n        /* \"#utility.yul\":1310:1316   */\n      0x00\n        /* \"#utility.yul\":1360:1363   */\n      dup4\n        /* \"#utility.yul\":1353:1357   */\n      0x1f\n        /* \"#utility.yul\":1345:1351   */\n      dup5\n        /* \"#utility.yul\":1341:1358   */\n      add\n        /* \"#utility.yul\":1337:1364   */\n      slt\n        /* \"#utility.yul\":1327:1449   */\n      tag_145\n      jumpi\n        /* \"#utility.yul\":1368:1447   */\n      tag_146\n      tag_101\n      jump\t// in\n    tag_146:\n        /* \"#utility.yul\":1327:1449   */\n    tag_145:\n        /* \"#utility.yul\":1481:1487   */\n      dup3\n        /* \"#utility.yul\":1468:1488   */\n      calldataload\n        /* \"#utility.yul\":1458:1488   */\n      swap1\n      pop\n        /* \"#utility.yul\":1511:1529   */\n      0xffffffffffffffff\n        /* \"#utility.yul\":1503:1509   */\n      dup2\n        /* \"#utility.yul\":1500:1530   */\n      gt\n        /* \"#utility.yul\":1497:1614   */\n      iszero\n      tag_147\n      jumpi\n        /* \"#utility.yul\":1533:1612   */\n      tag_148\n      tag_102\n      jump\t// in\n    tag_148:\n        /* \"#utility.yul\":1497:1614   */\n    tag_147:\n        /* \"#utility.yul\":1647:1651   */\n      0x20\n        /* \"#utility.yul\":1639:1645   */\n      dup4\n        /* \"#utility.yul\":1635:1652   */\n      add\n        /* \"#utility.yul\":1623:1652   */\n      swap2\n      pop\n        /* \"#utility.yul\":1701:1704   */\n      dup4\n        /* \"#utility.yul\":1693:1697   */\n      0x20\n        /* \"#utility.yul\":1685:1691   */\n      dup3\n        /* \"#utility.yul\":1681:1698   */\n      mul\n        /* \"#utility.yul\":1671:1679   */\n      dup4\n        /* \"#utility.yul\":1667:1699   */\n      add\n        /* \"#utility.yul\":1664:1705   */\n      gt\n        /* \"#utility.yul\":1661:1789   */\n      iszero\n      tag_149\n      jumpi\n        /* \"#utility.yul\":1708:1787   */\n      tag_150\n      tag_103\n      jump\t// in\n    tag_150:\n        /* \"#utility.yul\":1661:1789   */\n    tag_149:\n        /* \"#utility.yul\":1227:1795   */\n      swap3\n      pop\n      swap3\n      swap1\n      pop\n      jump\t// out\n        /* \"#utility.yul\":1818:2386   */\n    tag_105:\n        /* \"#utility.yul\":1891:1899   */\n      0x00\n        /* \"#utility.yul\":1901:1907   */\n      0x00\n        /* \"#utility.yul\":1951:1954   */\n      dup4\n        /* \"#utility.yul\":1944:1948   */\n      0x1f\n        /* \"#utility.yul\":1936:1942   */\n      dup5\n        /* \"#utility.yul\":1932:1949   */\n      add\n        /* \"#utility.yul\":1928:1955   */\n      slt\n        /* \"#utility.yul\":1918:2040   */\n      tag_152\n      jumpi\n        /* \"#utility.yul\":1959:2038   */\n      tag_153\n      tag_101\n      jump\t// in\n    tag_153:\n        /* \"#utility.yul\":1918:2040   */\n    tag_152:\n        /* \"#utility.yul\":2072:2078   */\n      dup3\n        /* \"#utility.yul\":2059:2079   */\n      calldataload\n        /* \"#utility.yul\":2049:2079   */\n      swap1\n      pop\n        /* \"#utility.yul\":2102:2120   */\n      0xffffffffffffffff\n        /* \"#utility.yul\":2094:2100   */\n      dup2\n        /* \"#utility.yul\":2091:2121   */\n      gt\n        /* \"#utility.yul\":2088:2205   */\n      iszero\n      tag_154\n      jumpi\n        /* \"#utility.yul\":2124:2203   */\n      tag_155\n      tag_102\n      jump\t// in\n    tag_155:\n        /* \"#utility.yul\":2088:2205   */\n    tag_154:\n        /* \"#utility.yul\":2238:2242   */\n      0x20\n        /* \"#utility.yul\":2230:2236   */\n      dup4\n        /* \"#utility.yul\":2226:2243   */\n      add\n        /* \"#utility.yul\":2214:2243   */\n      swap2\n      pop\n        /* \"#utility.yul\":2292:2295   */\n      dup4\n        /* \"#utility.yul\":2284:2288   */\n      0x20\n        /* \"#utility.yul\":2276:2282   */\n      dup3\n        /* \"#utility.yul\":2272:2289   */\n      mul\n        /* \"#utility.yul\":2262:2270   */\n      dup4\n        /* \"#utility.yul\":2258:2290   */\n      add\n        /* \"#utility.yul\":2255:2296   */\n      gt\n        /* \"#utility.yul\":2252:2380   */\n      iszero\n      tag_156\n      jumpi\n        /* \"#utility.yul\":2299:2378   */\n      tag_157\n      tag_103\n      jump\t// in\n    tag_157:\n        /* \"#utility.yul\":2252:2380   */\n    tag_156:\n        /* \"#utility.yul\":1818:2386   */\n      swap3\n      pop\n      swap3\n      swap1\n      pop\n      jump\t// out\n        /* \"#utility.yul\":2392:3471   */\n    tag_8:\n        /* \"#utility.yul\":2523:2529   */\n      0x00\n        /* \"#utility.yul\":2531:2537   */\n      0x00\n        /* \"#utility.yul\":2539:2545   */\n      0x00\n        /* \"#utility.yul\":2547:2553   */\n      0x00\n        /* \"#utility.yul\":2555:2561   */\n      0x00\n        /* \"#utility.yul\":2604:2606   */\n      0x60\n        /* \"#utility.yul\":2592:2601   */\n      dup7\n        /* \"#utility.yul\":2583:2590   */\n      dup9\n        /* \"#utility.yul\":2579:2602   */\n      sub\n        /* \"#utility.yul\":2575:2607   */\n      slt\n        /* \"#utility.yul\":2572:2691   */\n      iszero\n      tag_159\n      jumpi\n        /* \"#utility.yul\":2610:2689   */\n      tag_160\n      tag_95\n      jump\t// in\n    tag_160:\n        /* \"#utility.yul\":2572:2691   */\n    tag_159:\n        /* \"#utility.yul\":2730:2731   */\n      0x00\n        /* \"#utility.yul\":2755:2808   */\n      tag_161\n        /* \"#utility.yul\":2800:2807   */\n      dup9\n        /* \"#utility.yul\":2791:2797   */\n      dup3\n        /* \"#utility.yul\":2780:2789   */\n      dup10\n        /* \"#utility.yul\":2776:2798   */\n      add\n        /* \"#utility.yul\":2755:2808   */\n      tag_100\n      jump\t// in\n    tag_161:\n        /* \"#utility.yul\":2745:2808   */\n      swap6\n      pop\n        /* \"#utility.yul\":2701:2818   */\n      pop\n        /* \"#utility.yul\":2885:2887   */\n      0x20\n        /* \"#utility.yul\":2874:2883   */\n      dup7\n        /* \"#utility.yul\":2870:2888   */\n      add\n        /* \"#utility.yul\":2857:2889   */\n      calldataload\n        /* \"#utility.yul\":2916:2934   */\n      0xffffffffffffffff\n        /* \"#utility.yul\":2908:2914   */\n      dup2\n        /* \"#utility.yul\":2905:2935   */\n      gt\n        /* \"#utility.yul\":2902:3019   */\n      iszero\n      tag_162\n      jumpi\n        /* \"#utility.yul\":2938:3017   */\n      tag_163\n      tag_96\n      jump\t// in\n    tag_163:\n        /* \"#utility.yul\":2902:3019   */\n    tag_162:\n        /* \"#utility.yul\":3051:3131   */\n      tag_164\n        /* \"#utility.yul\":3123:3130   */\n      dup9\n        /* \"#utility.yul\":3114:3120   */\n      dup3\n        /* \"#utility.yul\":3103:3112   */\n      dup10\n        /* \"#utility.yul\":3099:3121   */\n      add\n        /* \"#utility.yul\":3051:3131   */\n      tag_104\n      jump\t// in\n    tag_164:\n        /* \"#utility.yul\":3033:3131   */\n      swap5\n      pop\n      swap5\n      pop\n        /* \"#utility.yul\":2828:3141   */\n      pop\n        /* \"#utility.yul\":3208:3210   */\n      0x40\n        /* \"#utility.yul\":3197:3206   */\n      dup7\n        /* \"#utility.yul\":3193:3211   */\n      add\n        /* \"#utility.yul\":3180:3212   */\n      calldataload\n        /* \"#utility.yul\":3239:3257   */\n      0xffffffffffffffff\n        /* \"#utility.yul\":3231:3237   */\n      dup2\n        /* \"#utility.yul\":3228:3258   */\n      gt\n        /* \"#utility.yul\":3225:3342   */\n      iszero\n      tag_165\n      jumpi\n        /* \"#utility.yul\":3261:3340   */\n      tag_166\n      tag_96\n      jump\t// in\n    tag_166:\n        /* \"#utility.yul\":3225:3342   */\n    tag_165:\n        /* \"#utility.yul\":3374:3454   */\n      tag_167\n        /* \"#utility.yul\":3446:3453   */\n      dup9\n        /* \"#utility.yul\":3437:3443   */\n      dup3\n        /* \"#utility.yul\":3426:3435   */\n      dup10\n        /* \"#utility.yul\":3422:3444   */\n      add\n        /* \"#utility.yul\":3374:3454   */\n      tag_105\n      jump\t// in\n    tag_167:\n        /* \"#utility.yul\":3356:3454   */\n      swap3\n      pop\n      swap3\n      pop\n        /* \"#utility.yul\":3151:3464   */\n      pop\n        /* \"#utility.yul\":2392:3471   */\n      swap3\n      swap6\n      pop\n      swap3\n      swap6\n      swap1\n      swap4\n      pop\n      jump\t// out\n        /* \"#utility.yul\":3477:4411   */\n    tag_12:\n        /* \"#utility.yul\":3599:3605   */\n      0x00\n        /* \"#utility.yul\":3607:3613   */\n      0x00\n        /* \"#utility.yul\":3615:3621   */\n      0x00\n        /* \"#utility.yul\":3623:3629   */\n      0x00\n        /* \"#utility.yul\":3672:3674   */\n      0x40\n        /* \"#utility.yul\":3660:3669   */\n      dup6\n        /* \"#utility.yul\":3651:3658   */\n      dup8\n        /* \"#utility.yul\":3647:3670   */\n      sub\n        /* \"#utility.yul\":3643:3675   */\n      slt\n        /* \"#utility.yul\":3640:3759   */\n      iszero\n      tag_169\n      jumpi\n        /* \"#utility.yul\":3678:3757   */\n      tag_170\n      tag_95\n      jump\t// in\n    tag_170:\n        /* \"#utility.yul\":3640:3759   */\n    tag_169:\n        /* \"#utility.yul\":3826:3827   */\n      0x00\n        /* \"#utility.yul\":3815:3824   */\n      dup6\n        /* \"#utility.yul\":3811:3828   */\n      add\n        /* \"#utility.yul\":3798:3829   */\n      calldataload\n        /* \"#utility.yul\":3856:3874   */\n      0xffffffffffffffff\n        /* \"#utility.yul\":3848:3854   */\n      dup2\n        /* \"#utility.yul\":3845:3875   */\n      gt\n        /* \"#utility.yul\":3842:3959   */\n      iszero\n      tag_171\n      jumpi\n        /* \"#utility.yul\":3878:3957   */\n      tag_172\n      tag_96\n      jump\t// in\n    tag_172:\n        /* \"#utility.yul\":3842:3959   */\n    tag_171:\n        /* \"#utility.yul\":3991:4071   */\n      tag_173\n        /* \"#utility.yul\":4063:4070   */\n      dup8\n        /* \"#utility.yul\":4054:4060   */\n      dup3\n        /* \"#utility.yul\":4043:4052   */\n      dup9\n        /* \"#utility.yul\":4039:4061   */\n      add\n        /* \"#utility.yul\":3991:4071   */\n      tag_104\n      jump\t// in\n    tag_173:\n        /* \"#utility.yul\":3973:4071   */\n      swap5\n      pop\n      swap5\n      pop\n        /* \"#utility.yul\":3769:4081   */\n      pop\n        /* \"#utility.yul\":4148:4150   */\n      0x20\n        /* \"#utility.yul\":4137:4146   */\n      dup6\n        /* \"#utility.yul\":4133:4151   */\n      add\n        /* \"#utility.yul\":4120:4152   */\n      calldataload\n        /* \"#utility.yul\":4179:4197   */\n      0xffffffffffffffff\n        /* \"#utility.yul\":4171:4177   */\n      dup2\n        /* \"#utility.yul\":4168:4198   */\n      gt\n        /* \"#utility.yul\":4165:4282   */\n      iszero\n      tag_174\n      jumpi\n        /* \"#utility.yul\":4201:4280   */\n      tag_175\n      tag_96\n      jump\t// in\n    tag_175:\n        /* \"#utility.yul\":4165:4282   */\n    tag_174:\n        /* \"#utility.yul\":4314:4394   */\n      tag_176\n        /* \"#utility.yul\":4386:4393   */\n      dup8\n        /* \"#utility.yul\":4377:4383   */\n      dup3\n        /* \"#utility.yul\":4366:4375   */\n      dup9\n        /* \"#utility.yul\":4362:4384   */\n      add\n        /* \"#utility.yul\":4314:4394   */\n      tag_105\n      jump\t// in\n    tag_176:\n        /* \"#utility.yul\":4296:4394   */\n      swap3\n      pop\n      swap3\n      pop\n        /* \"#utility.yul\":4091:4404   */\n      pop\n        /* \"#utility.yul\":3477:4411   */\n      swap3\n      swap6\n      swap2\n      swap5\n      pop\n      swap3\n      pop\n      jump\t// out\n        /* \"#utility.yul\":4417:4746   */\n    tag_17:\n        /* \"#utility.yul\":4476:4482   */\n      0x00\n        /* \"#utility.yul\":4525:4527   */\n      0x20\n        /* \"#utility.yul\":4513:4522   */\n      dup3\n        /* \"#utility.yul\":4504:4511   */\n      dup5\n        /* \"#utility.yul\":4500:4523   */\n      sub\n        /* \"#utility.yul\":4496:4528   */\n      slt\n        /* \"#utility.yul\":4493:4612   */\n      iszero\n      tag_178\n      jumpi\n        /* \"#utility.yul\":4531:4610   */\n      tag_179\n      tag_95\n      jump\t// in\n    tag_179:\n        /* \"#utility.yul\":4493:4612   */\n    tag_178:\n        /* \"#utility.yul\":4651:4652   */\n      0x00\n        /* \"#utility.yul\":4676:4729   */\n      tag_180\n        /* \"#utility.yul\":4721:4728   */\n      dup5\n        /* \"#utility.yul\":4712:4718   */\n      dup3\n        /* \"#utility.yul\":4701:4710   */\n      dup6\n        /* \"#utility.yul\":4697:4719   */\n      add\n        /* \"#utility.yul\":4676:4729   */\n      tag_100\n      jump\t// in\n    tag_180:\n        /* \"#utility.yul\":4666:4729   */\n      swap2\n      pop\n        /* \"#utility.yul\":4622:4739   */\n      pop\n        /* \"#utility.yul\":4417:4746   */\n      swap3\n      swap2\n      pop\n      pop\n      jump\t// out\n        /* \"#utility.yul\":4752:4921   */\n    tag_106:\n        /* \"#utility.yul\":4836:4847   */\n      0x00\n        /* \"#utility.yul\":4870:4876   */\n      dup3\n        /* \"#utility.yul\":4865:4868   */\n      dup3\n        /* \"#utility.yul\":4858:4877   */\n      mstore\n        /* \"#utility.yul\":4910:4914   */\n      0x20\n        /* \"#utility.yul\":4905:4908   */\n      dup3\n        /* \"#utility.yul\":4901:4915   */\n      add\n        /* \"#utility.yul\":4886:4915   */\n      swap1\n      pop\n        /* \"#utility.yul\":4752:4921   */\n      swap3\n      swap2\n      pop\n      pop\n      jump\t// out\n        /* \"#utility.yul\":4927:5093   */\n    tag_107:\n        /* \"#utility.yul\":5067:5085   */\n      0x6c656e677468206e6f7420657175616c00000000000000000000000000000000\n        /* \"#utility.yul\":5063:5064   */\n      0x00\n        /* \"#utility.yul\":5055:5061   */\n      dup3\n        /* \"#utility.yul\":5051:5065   */\n      add\n        /* \"#utility.yul\":5044:5086   */\n      mstore\n        /* \"#utility.yul\":4927:5093   */\n      pop\n      jump\t// out\n        /* \"#utility.yul\":5099:5465   */\n    tag_108:\n        /* \"#utility.yul\":5241:5244   */\n      0x00\n        /* \"#utility.yul\":5262:5329   */\n      tag_184\n        /* \"#utility.yul\":5326:5328   */\n      0x10\n        /* \"#utility.yul\":5321:5324   */\n      dup4\n        /* \"#utility.yul\":5262:5329   */\n      tag_106\n      jump\t// in\n    tag_184:\n        /* \"#utility.yul\":5255:5329   */\n      swap2\n      pop\n        /* \"#utility.yul\":5338:5431   */\n      tag_185\n        /* \"#utility.yul\":5427:5430   */\n      dup3\n        /* \"#utility.yul\":5338:5431   */\n      tag_107\n      jump\t// in\n    tag_185:\n        /* \"#utility.yul\":5456:5458   */\n      0x20\n        /* \"#utility.yul\":5451:5454   */\n      dup3\n        /* \"#utility.yul\":5447:5459   */\n      add\n        /* \"#utility.yul\":5440:5459   */\n      swap1\n      pop\n        /* \"#utility.yul\":5099:5465   */\n      swap2\n      swap1\n      pop\n      jump\t// out\n        /* \"#utility.yul\":5471:5890   */\n    tag_22:\n        /* \"#utility.yul\":5637:5641   */\n      0x00\n        /* \"#utility.yul\":5675:5677   */\n      0x20\n        /* \"#utility.yul\":5664:5673   */\n      dup3\n        /* \"#utility.yul\":5660:5678   */\n      add\n        /* \"#utility.yul\":5652:5678   */\n      swap1\n      pop\n        /* \"#utility.yul\":5724:5733   */\n      dup2\n        /* \"#utility.yul\":5718:5722   */\n      dup2\n        /* \"#utility.yul\":5714:5734   */\n      sub\n        /* \"#utility.yul\":5710:5711   */\n      0x00\n        /* \"#utility.yul\":5699:5708   */\n      dup4\n        /* \"#utility.yul\":5695:5712   */\n      add\n        /* \"#utility.yul\":5688:5735   */\n      mstore\n        /* \"#utility.yul\":5752:5883   */\n      tag_187\n        /* \"#utility.yul\":5878:5882   */\n      dup2\n        /* \"#utility.yul\":5752:5883   */\n      tag_108\n      jump\t// in\n    tag_187:\n        /* \"#utility.yul\":5744:5883   */\n      swap1\n      pop\n        /* \"#utility.yul\":5471:5890   */\n      swap2\n      swap1\n      pop\n      jump\t// out\n        /* \"#utility.yul\":5896:6014   */\n    tag_109:\n        /* \"#utility.yul\":5983:6007   */\n      tag_189\n        /* \"#utility.yul\":6001:6006   */\n      dup2\n        /* \"#utility.yul\":5983:6007   */\n      tag_98\n      jump\t// in\n    tag_189:\n        /* \"#utility.yul\":5978:5981   */\n      dup3\n        /* \"#utility.yul\":5971:6008   */\n      mstore\n        /* \"#utility.yul\":5896:6014   */\n      pop\n      pop\n      jump\t// out\n        /* \"#utility.yul\":6020:6352   */\n    tag_26:\n        /* \"#utility.yul\":6141:6145   */\n      0x00\n        /* \"#utility.yul\":6179:6181   */\n      0x40\n        /* \"#utility.yul\":6168:6177   */\n      dup3\n        /* \"#utility.yul\":6164:6182   */\n      add\n        /* \"#utility.yul\":6156:6182   */\n      swap1\n      pop\n        /* \"#utility.yul\":6192:6263   */\n      tag_191\n        /* \"#utility.yul\":6260:6261   */\n      0x00\n        /* \"#utility.yul\":6249:6258   */\n      dup4\n        /* \"#utility.yul\":6245:6262   */\n      add\n        /* \"#utility.yul\":6236:6242   */\n      dup6\n        /* \"#utility.yul\":6192:6263   */\n      tag_109\n      jump\t// in\n    tag_191:\n        /* \"#utility.yul\":6273:6345   */\n      tag_192\n        /* \"#utility.yul\":6341:6343   */\n      0x20\n        /* \"#utility.yul\":6330:6339   */\n      dup4\n        /* \"#utility.yul\":6326:6344   */\n      add\n        /* \"#utility.yul\":6317:6323   */\n      dup5\n        /* \"#utility.yul\":6273:6345   */\n      tag_109\n      jump\t// in\n    tag_192:\n        /* \"#utility.yul\":6020:6352   */\n      swap4\n      swap3\n      pop\n      pop\n      pop\n      jump\t// out\n        /* \"#utility.yul\":6358:6435   */\n    tag_110:\n        /* \"#utility.yul\":6395:6402   */\n      0x00\n        /* \"#utility.yul\":6424:6429   */\n      dup2\n        /* \"#utility.yul\":6413:6429   */\n      swap1\n      pop\n        /* \"#utility.yul\":6358:6435   */\n      swap2\n      swap1\n      pop\n      jump\t// out\n        /* \"#utility.yul\":6441:6563   */\n    tag_111:\n        /* \"#utility.yul\":6514:6538   */\n      tag_195\n        /* \"#utility.yul\":6532:6537   */\n      dup2\n        /* \"#utility.yul\":6514:6538   */\n      tag_110\n      jump\t// in\n    tag_195:\n        /* \"#utility.yul\":6507:6512   */\n      dup2\n        /* \"#utility.yul\":6504:6539   */\n      eq\n        /* \"#utility.yul\":6494:6557   */\n      tag_196\n      jumpi\n        /* \"#utility.yul\":6553:6554   */\n      0x00\n        /* \"#utility.yul\":6550:6551   */\n      0x00\n        /* \"#utility.yul\":6543:6555   */\n      revert\n        /* \"#utility.yul\":6494:6557   */\n    tag_196:\n        /* \"#utility.yul\":6441:6563   */\n      pop\n      jump\t// out\n        /* \"#utility.yul\":6569:6712   */\n    tag_112:\n        /* \"#utility.yul\":6626:6631   */\n      0x00\n        /* \"#utility.yul\":6657:6663   */\n      dup2\n        /* \"#utility.yul\":6651:6664   */\n      mload\n        /* \"#utility.yul\":6642:6664   */\n      swap1\n      pop\n        /* \"#utility.yul\":6673:6706   */\n      tag_198\n        /* \"#utility.yul\":6700:6705   */\n      dup2\n        /* \"#utility.yul\":6673:6706   */\n      tag_111\n      jump\t// in\n    tag_198:\n        /* \"#utility.yul\":6569:6712   */\n      swap3\n      swap2\n      pop\n      pop\n      jump\t// out\n        /* \"#utility.yul\":6718:7069   */\n    tag_30:\n        /* \"#utility.yul\":6788:6794   */\n      0x00\n        /* \"#utility.yul\":6837:6839   */\n      0x20\n        /* \"#utility.yul\":6825:6834   */\n      dup3\n        /* \"#utility.yul\":6816:6823   */\n      dup5\n        /* \"#utility.yul\":6812:6835   */\n      sub\n        /* \"#utility.yul\":6808:6840   */\n      slt\n        /* \"#utility.yul\":6805:6924   */\n      iszero\n      tag_200\n      jumpi\n        /* \"#utility.yul\":6843:6922   */\n      tag_201\n      tag_95\n      jump\t// in\n    tag_201:\n        /* \"#utility.yul\":6805:6924   */\n    tag_200:\n        /* \"#utility.yul\":6963:6964   */\n      0x00\n        /* \"#utility.yul\":6988:7052   */\n      tag_202\n        /* \"#utility.yul\":7044:7051   */\n      dup5\n        /* \"#utility.yul\":7035:7041   */\n      dup3\n        /* \"#utility.yul\":7024:7033   */\n      dup6\n        /* \"#utility.yul\":7020:7042   */\n      add\n        /* \"#utility.yul\":6988:7052   */\n      tag_112\n      jump\t// in\n    tag_202:\n        /* \"#utility.yul\":6978:7052   */\n      swap2\n      pop\n        /* \"#utility.yul\":6934:7062   */\n      pop\n        /* \"#utility.yul\":6718:7069   */\n      swap3\n      swap2\n      pop\n      pop\n      jump\t// out\n        /* \"#utility.yul\":7075:7244   */\n    tag_113:\n        /* \"#utility.yul\":7215:7236   */\n      0x6e6f20656e6f75676820616c6c6f77616e636500000000000000000000000000\n        /* \"#utility.yul\":7211:7212   */\n      0x00\n        /* \"#utility.yul\":7203:7209   */\n      dup3\n        /* \"#utility.yul\":7199:7213   */\n      add\n        /* \"#utility.yul\":7192:7237   */\n      mstore\n        /* \"#utility.yul\":7075:7244   */\n      pop\n      jump\t// out\n        /* \"#utility.yul\":7250:7616   */\n    tag_114:\n        /* \"#utility.yul\":7392:7395   */\n      0x00\n        /* \"#utility.yul\":7413:7480   */\n      tag_205\n        /* \"#utility.yul\":7477:7479   */\n      0x13\n        /* \"#utility.yul\":7472:7475   */\n      dup4\n        /* \"#utility.yul\":7413:7480   */\n      tag_106\n      jump\t// in\n    tag_205:\n        /* \"#utility.yul\":7406:7480   */\n      swap2\n      pop\n        /* \"#utility.yul\":7489:7582   */\n      tag_206\n        /* \"#utility.yul\":7578:7581   */\n      dup3\n        /* \"#utility.yul\":7489:7582   */\n      tag_113\n      jump\t// in\n    tag_206:\n        /* \"#utility.yul\":7607:7609   */\n      0x20\n        /* \"#utility.yul\":7602:7605   */\n      dup3\n        /* \"#utility.yul\":7598:7610   */\n      add\n        /* \"#utility.yul\":7591:7610   */\n      swap1\n      pop\n        /* \"#utility.yul\":7250:7616   */\n      swap2\n      swap1\n      pop\n      jump\t// out\n        /* \"#utility.yul\":7622:8041   */\n    tag_33:\n        /* \"#utility.yul\":7788:7792   */\n      0x00\n        /* \"#utility.yul\":7826:7828   */\n      0x20\n        /* \"#utility.yul\":7815:7824   */\n      dup3\n        /* \"#utility.yul\":7811:7829   */\n      add\n        /* \"#utility.yul\":7803:7829   */\n      swap1\n      pop\n        /* \"#utility.yul\":7875:7884   */\n      dup2\n        /* \"#utility.yul\":7869:7873   */\n      dup2\n        /* \"#utility.yul\":7865:7885   */\n      sub\n        /* \"#utility.yul\":7861:7862   */\n      0x00\n        /* \"#utility.yul\":7850:7859   */\n      dup4\n        /* \"#utility.yul\":7846:7863   */\n      add\n        /* \"#utility.yul\":7839:7886   */\n      mstore\n        /* \"#utility.yul\":7903:8034   */\n      tag_208\n        /* \"#utility.yul\":8029:8033   */\n      dup2\n        /* \"#utility.yul\":7903:8034   */\n      tag_114\n      jump\t// in\n    tag_208:\n        /* \"#utility.yul\":7895:8034   */\n      swap1\n      pop\n        /* \"#utility.yul\":7622:8041   */\n      swap2\n      swap1\n      pop\n      jump\t// out\n        /* \"#utility.yul\":8047:8227   */\n    tag_39:\n        /* \"#utility.yul\":8095:8172   */\n      0x4e487b7100000000000000000000000000000000000000000000000000000000\n        /* \"#utility.yul\":8092:8093   */\n      0x00\n        /* \"#utility.yul\":8085:8173   */\n      mstore\n        /* \"#utility.yul\":8192:8196   */\n      0x32\n        /* \"#utility.yul\":8189:8190   */\n      0x04\n        /* \"#utility.yul\":8182:8197   */\n      mstore\n        /* \"#utility.yul\":8216:8220   */\n      0x24\n        /* \"#utility.yul\":8213:8214   */\n      0x00\n        /* \"#utility.yul\":8206:8221   */\n      revert\n        /* \"#utility.yul\":8233:8351   */\n    tag_115:\n        /* \"#utility.yul\":8320:8344   */\n      tag_211\n        /* \"#utility.yul\":8338:8343   */\n      dup2\n        /* \"#utility.yul\":8320:8344   */\n      tag_110\n      jump\t// in\n    tag_211:\n        /* \"#utility.yul\":8315:8318   */\n      dup3\n        /* \"#utility.yul\":8308:8345   */\n      mstore\n        /* \"#utility.yul\":8233:8351   */\n      pop\n      pop\n      jump\t// out\n        /* \"#utility.yul\":8357:8799   */\n    tag_44:\n        /* \"#utility.yul\":8506:8510   */\n      0x00\n        /* \"#utility.yul\":8544:8546   */\n      0x60\n        /* \"#utility.yul\":8533:8542   */\n      dup3\n        /* \"#utility.yul\":8529:8547   */\n      add\n        /* \"#utility.yul\":8521:8547   */\n      swap1\n      pop\n        /* \"#utility.yul\":8557:8628   */\n      tag_213\n        /* \"#utility.yul\":8625:8626   */\n      0x00\n        /* \"#utility.yul\":8614:8623   */\n      dup4\n        /* \"#utility.yul\":8610:8627   */\n      add\n        /* \"#utility.yul\":8601:8607   */\n      dup7\n        /* \"#utility.yul\":8557:8628   */\n      tag_109\n      jump\t// in\n    tag_213:\n        /* \"#utility.yul\":8638:8710   */\n      tag_214\n        /* \"#utility.yul\":8706:8708   */\n      0x20\n        /* \"#utility.yul\":8695:8704   */\n      dup4\n        /* \"#utility.yul\":8691:8709   */\n      add\n        /* \"#utility.yul\":8682:8688   */\n      dup6\n        /* \"#utility.yul\":8638:8710   */\n      tag_109\n      jump\t// in\n    tag_214:\n        /* \"#utility.yul\":8720:8792   */\n      tag_215\n        /* \"#utility.yul\":8788:8790   */\n      0x40\n        /* \"#utility.yul\":8777:8786   */\n      dup4\n        /* \"#utility.yul\":8773:8791   */\n      add\n        /* \"#utility.yul\":8764:8770   */\n      dup5\n        /* \"#utility.yul\":8720:8792   */\n      tag_115\n      jump\t// in\n    tag_215:\n        /* \"#utility.yul\":8357:8799   */\n      swap5\n      swap4\n      pop\n      pop\n      pop\n      pop\n      jump\t// out\n        /* \"#utility.yul\":8805:8895   */\n    tag_116:\n        /* \"#utility.yul\":8839:8846   */\n      0x00\n        /* \"#utility.yul\":8882:8887   */\n      dup2\n        /* \"#utility.yul\":8875:8888   */\n      iszero\n        /* \"#utility.yul\":8868:8889   */\n      iszero\n        /* \"#utility.yul\":8857:8889   */\n      swap1\n      pop\n        /* \"#utility.yul\":8805:8895   */\n      swap2\n      swap1\n      pop\n      jump\t// out\n        /* \"#utility.yul\":8901:9017   */\n    tag_117:\n        /* \"#utility.yul\":8971:8992   */\n      tag_218\n        /* \"#utility.yul\":8986:8991   */\n      dup2\n        /* \"#utility.yul\":8971:8992   */\n      tag_116\n      jump\t// in\n    tag_218:\n        /* \"#utility.yul\":8964:8969   */\n      dup2\n        /* \"#utility.yul\":8961:8993   */\n      eq\n        /* \"#utility.yul\":8951:9011   */\n      tag_219\n      jumpi\n        /* \"#utility.yul\":9007:9008   */\n      0x00\n        /* \"#utility.yul\":9004:9005   */\n      0x00\n        /* \"#utility.yul\":8997:9009   */\n      revert\n        /* \"#utility.yul\":8951:9011   */\n    tag_219:\n        /* \"#utility.yul\":8901:9017   */\n      pop\n      jump\t// out\n        /* \"#utility.yul\":9023:9160   */\n    tag_118:\n        /* \"#utility.yul\":9077:9082   */\n      0x00\n        /* \"#utility.yul\":9108:9114   */\n      dup2\n        /* \"#utility.yul\":9102:9115   */\n      mload\n        /* \"#utility.yul\":9093:9115   */\n      swap1\n      pop\n        /* \"#utility.yul\":9124:9154   */\n      tag_221\n        /* \"#utility.yul\":9148:9153   */\n      dup2\n        /* \"#utility.yul\":9124:9154   */\n      tag_117\n      jump\t// in\n    tag_221:\n        /* \"#utility.yul\":9023:9160   */\n      swap3\n      swap2\n      pop\n      pop\n      jump\t// out\n        /* \"#utility.yul\":9166:9511   */\n    tag_48:\n        /* \"#utility.yul\":9233:9239   */\n      0x00\n        /* \"#utility.yul\":9282:9284   */\n      0x20\n        /* \"#utility.yul\":9270:9279   */\n      dup3\n        /* \"#utility.yul\":9261:9268   */\n      dup5\n        /* \"#utility.yul\":9257:9280   */\n      sub\n        /* \"#utility.yul\":9253:9285   */\n      slt\n        /* \"#utility.yul\":9250:9369   */\n      iszero\n      tag_223\n      jumpi\n        /* \"#utility.yul\":9288:9367   */\n      tag_224\n      tag_95\n      jump\t// in\n    tag_224:\n        /* \"#utility.yul\":9250:9369   */\n    tag_223:\n        /* \"#utility.yul\":9408:9409   */\n      0x00\n        /* \"#utility.yul\":9433:9494   */\n      tag_225\n        /* \"#utility.yul\":9486:9493   */\n      dup5\n        /* \"#utility.yul\":9477:9483   */\n      dup3\n        /* \"#utility.yul\":9466:9475   */\n      dup6\n        /* \"#utility.yul\":9462:9484   */\n      add\n        /* \"#utility.yul\":9433:9494   */\n      tag_118\n      jump\t// in\n    tag_225:\n        /* \"#utility.yul\":9423:9494   */\n      swap2\n      pop\n        /* \"#utility.yul\":9379:9504   */\n      pop\n        /* \"#utility.yul\":9166:9511   */\n      swap3\n      swap2\n      pop\n      pop\n      jump\t// out\n        /* \"#utility.yul\":9517:9688   */\n    tag_119:\n        /* \"#utility.yul\":9657:9680   */\n      0x5472616e7366657220616d6f756e74206572726f720000000000000000000000\n        /* \"#utility.yul\":9653:9654   */\n      0x00\n        /* \"#utility.yul\":9645:9651   */\n      dup3\n        /* \"#utility.yul\":9641:9655   */\n      add\n        /* \"#utility.yul\":9634:9681   */\n      mstore\n        /* \"#utility.yul\":9517:9688   */\n      pop\n      jump\t// out\n        /* \"#utility.yul\":9694:10060   */\n    tag_120:\n        /* \"#utility.yul\":9836:9839   */\n      0x00\n        /* \"#utility.yul\":9857:9924   */\n      tag_228\n        /* \"#utility.yul\":9921:9923   */\n      0x15\n        /* \"#utility.yul\":9916:9919   */\n      dup4\n        /* \"#utility.yul\":9857:9924   */\n      tag_106\n      jump\t// in\n    tag_228:\n        /* \"#utility.yul\":9850:9924   */\n      swap2\n      pop\n        /* \"#utility.yul\":9933:10026   */\n      tag_229\n        /* \"#utility.yul\":10022:10025   */\n      dup3\n        /* \"#utility.yul\":9933:10026   */\n      tag_119\n      jump\t// in\n    tag_229:\n        /* \"#utility.yul\":10051:10053   */\n      0x20\n        /* \"#utility.yul\":10046:10049   */\n      dup3\n        /* \"#utility.yul\":10042:10054   */\n      add\n        /* \"#utility.yul\":10035:10054   */\n      swap1\n      pop\n        /* \"#utility.yul\":9694:10060   */\n      swap2\n      swap1\n      pop\n      jump\t// out\n        /* \"#utility.yul\":10066:10485   */\n    tag_55:\n        /* \"#utility.yul\":10232:10236   */\n      0x00\n        /* \"#utility.yul\":10270:10272   */\n      0x20\n        /* \"#utility.yul\":10259:10268   */\n      dup3\n        /* \"#utility.yul\":10255:10273   */\n      add\n        /* \"#utility.yul\":10247:10273   */\n      swap1\n      pop\n        /* \"#utility.yul\":10319:10328   */\n      dup2\n        /* \"#utility.yul\":10313:10317   */\n      dup2\n        /* \"#utility.yul\":10309:10329   */\n      sub\n        /* \"#utility.yul\":10305:10306   */\n      0x00\n        /* \"#utility.yul\":10294:10303   */\n      dup4\n        /* \"#utility.yul\":10290:10307   */\n      add\n        /* \"#utility.yul\":10283:10330   */\n      mstore\n        /* \"#utility.yul\":10347:10478   */\n      tag_231\n        /* \"#utility.yul\":10473:10477   */\n      dup2\n        /* \"#utility.yul\":10347:10478   */\n      tag_120\n      jump\t// in\n    tag_231:\n        /* \"#utility.yul\":10339:10478   */\n      swap1\n      pop\n        /* \"#utility.yul\":10066:10485   */\n      swap2\n      swap1\n      pop\n      jump\t// out\n        /* \"#utility.yul\":10491:10638   */\n    tag_121:\n        /* \"#utility.yul\":10592:10603   */\n      0x00\n        /* \"#utility.yul\":10629:10632   */\n      dup2\n        /* \"#utility.yul\":10614:10632   */\n      swap1\n      pop\n        /* \"#utility.yul\":10491:10638   */\n      swap3\n      swap2\n      pop\n      pop\n      jump\t// out\n        /* \"#utility.yul\":10644:10758   */\n    tag_122:\n      pop\n      jump\t// out\n        /* \"#utility.yul\":10764:11162   */\n    tag_123:\n        /* \"#utility.yul\":10923:10926   */\n      0x00\n        /* \"#utility.yul\":10944:11027   */\n      tag_235\n        /* \"#utility.yul\":11025:11026   */\n      0x00\n        /* \"#utility.yul\":11020:11023   */\n      dup4\n        /* \"#utility.yul\":10944:11027   */\n      tag_121\n      jump\t// in\n    tag_235:\n        /* \"#utility.yul\":10937:11027   */\n      swap2\n      pop\n        /* \"#utility.yul\":11036:11129   */\n      tag_236\n        /* \"#utility.yul\":11125:11128   */\n      dup3\n        /* \"#utility.yul\":11036:11129   */\n      tag_122\n      jump\t// in\n    tag_236:\n        /* \"#utility.yul\":11154:11155   */\n      0x00\n        /* \"#utility.yul\":11149:11152   */\n      dup3\n        /* \"#utility.yul\":11145:11156   */\n      add\n        /* \"#utility.yul\":11138:11156   */\n      swap1\n      pop\n        /* \"#utility.yul\":10764:11162   */\n      swap2\n      swap1\n      pop\n      jump\t// out\n        /* \"#utility.yul\":11168:11547   */\n    tag_65:\n        /* \"#utility.yul\":11352:11355   */\n      0x00\n        /* \"#utility.yul\":11374:11521   */\n      tag_238\n        /* \"#utility.yul\":11517:11520   */\n      dup3\n        /* \"#utility.yul\":11374:11521   */\n      tag_123\n      jump\t// in\n    tag_238:\n        /* \"#utility.yul\":11367:11521   */\n      swap2\n      pop\n        /* \"#utility.yul\":11538:11541   */\n      dup2\n        /* \"#utility.yul\":11531:11541   */\n      swap1\n      pop\n        /* \"#utility.yul\":11168:11547   */\n      swap2\n      swap1\n      pop\n      jump\t// out\n        /* \"#utility.yul\":11553:11729   */\n    tag_124:\n        /* \"#utility.yul\":11693:11721   */\n      0x596f7520617265206e6f7420696e206661696c6564206c697374000000000000\n        /* \"#utility.yul\":11689:11690   */\n      0x00\n        /* \"#utility.yul\":11681:11687   */\n      dup3\n        /* \"#utility.yul\":11677:11691   */\n      add\n        /* \"#utility.yul\":11670:11722   */\n      mstore\n        /* \"#utility.yul\":11553:11729   */\n      pop\n      jump\t// out\n        /* \"#utility.yul\":11735:12101   */\n    tag_125:\n        /* \"#utility.yul\":11877:11880   */\n      0x00\n        /* \"#utility.yul\":11898:11965   */\n      tag_241\n        /* \"#utility.yul\":11962:11964   */\n      0x1a\n        /* \"#utility.yul\":11957:11960   */\n      dup4\n        /* \"#utility.yul\":11898:11965   */\n      tag_106\n      jump\t// in\n    tag_241:\n        /* \"#utility.yul\":11891:11965   */\n      swap2\n      pop\n        /* \"#utility.yul\":11974:12067   */\n      tag_242\n        /* \"#utility.yul\":12063:12066   */\n      dup3\n        /* \"#utility.yul\":11974:12067   */\n      tag_124\n      jump\t// in\n    tag_242:\n        /* \"#utility.yul\":12092:12094   */\n      0x20\n        /* \"#utility.yul\":12087:12090   */\n      dup3\n        /* \"#utility.yul\":12083:12095   */\n      add\n        /* \"#utility.yul\":12076:12095   */\n      swap1\n      pop\n        /* \"#utility.yul\":11735:12101   */\n      swap2\n      swap1\n      pop\n      jump\t// out\n        /* \"#utility.yul\":12107:12526   */\n    tag_78:\n        /* \"#utility.yul\":12273:12277   */\n      0x00\n        /* \"#utility.yul\":12311:12313   */\n      0x20\n        /* \"#utility.yul\":12300:12309   */\n      dup3\n        /* \"#utility.yul\":12296:12314   */\n      add\n        /* \"#utility.yul\":12288:12314   */\n      swap1\n      pop\n        /* \"#utility.yul\":12360:12369   */\n      dup2\n        /* \"#utility.yul\":12354:12358   */\n      dup2\n        /* \"#utility.yul\":12350:12370   */\n      sub\n        /* \"#utility.yul\":12346:12347   */\n      0x00\n        /* \"#utility.yul\":12335:12344   */\n      dup4\n        /* \"#utility.yul\":12331:12348   */\n      add\n        /* \"#utility.yul\":12324:12371   */\n      mstore\n        /* \"#utility.yul\":12388:12519   */\n      tag_244\n        /* \"#utility.yul\":12514:12518   */\n      dup2\n        /* \"#utility.yul\":12388:12519   */\n      tag_125\n      jump\t// in\n    tag_244:\n        /* \"#utility.yul\":12380:12519   */\n      swap1\n      pop\n        /* \"#utility.yul\":12107:12526   */\n      swap2\n      swap1\n      pop\n      jump\t// out\n        /* \"#utility.yul\":12532:12695   */\n    tag_126:\n        /* \"#utility.yul\":12672:12687   */\n      0x4661696c20776974686472617700000000000000000000000000000000000000\n        /* \"#utility.yul\":12668:12669   */\n      0x00\n        /* \"#utility.yul\":12660:12666   */\n      dup3\n        /* \"#utility.yul\":12656:12670   */\n      add\n        /* \"#utility.yul\":12649:12688   */\n      mstore\n        /* \"#utility.yul\":12532:12695   */\n      pop\n      jump\t// out\n        /* \"#utility.yul\":12701:13067   */\n    tag_127:\n        /* \"#utility.yul\":12843:12846   */\n      0x00\n        /* \"#utility.yul\":12864:12931   */\n      tag_247\n        /* \"#utility.yul\":12928:12930   */\n      0x0d\n        /* \"#utility.yul\":12923:12926   */\n      dup4\n        /* \"#utility.yul\":12864:12931   */\n      tag_106\n      jump\t// in\n    tag_247:\n        /* \"#utility.yul\":12857:12931   */\n      swap2\n      pop\n        /* \"#utility.yul\":12940:13033   */\n      tag_248\n        /* \"#utility.yul\":13029:13032   */\n      dup3\n        /* \"#utility.yul\":12940:13033   */\n      tag_126\n      jump\t// in\n    tag_248:\n        /* \"#utility.yul\":13058:13060   */\n      0x20\n        /* \"#utility.yul\":13053:13056   */\n      dup3\n        /* \"#utility.yul\":13049:13061   */\n      add\n        /* \"#utility.yul\":13042:13061   */\n      swap1\n      pop\n        /* \"#utility.yul\":12701:13067   */\n      swap2\n      swap1\n      pop\n      jump\t// out\n        /* \"#utility.yul\":13073:13492   */\n    tag_85:\n        /* \"#utility.yul\":13239:13243   */\n      0x00\n        /* \"#utility.yul\":13277:13279   */\n      0x20\n        /* \"#utility.yul\":13266:13275   */\n      dup3\n        /* \"#utility.yul\":13262:13280   */\n      add\n        /* \"#utility.yul\":13254:13280   */\n      swap1\n      pop\n        /* \"#utility.yul\":13326:13335   */\n      dup2\n        /* \"#utility.yul\":13320:13324   */\n      dup2\n        /* \"#utility.yul\":13316:13336   */\n      sub\n        /* \"#utility.yul\":13312:13313   */\n      0x00\n        /* \"#utility.yul\":13301:13310   */\n      dup4\n        /* \"#utility.yul\":13297:13314   */\n      add\n        /* \"#utility.yul\":13290:13337   */\n      mstore\n        /* \"#utility.yul\":13354:13485   */\n      tag_250\n        /* \"#utility.yul\":13480:13484   */\n      dup2\n        /* \"#utility.yul\":13354:13485   */\n      tag_127\n      jump\t// in\n    tag_250:\n        /* \"#utility.yul\":13346:13485   */\n      swap1\n      pop\n        /* \"#utility.yul\":13073:13492   */\n      swap2\n      swap1\n      pop\n      jump\t// out\n        /* \"#utility.yul\":13498:13678   */\n    tag_128:\n        /* \"#utility.yul\":13546:13623   */\n      0x4e487b7100000000000000000000000000000000000000000000000000000000\n        /* \"#utility.yul\":13543:13544   */\n      0x00\n        /* \"#utility.yul\":13536:13624   */\n      mstore\n        /* \"#utility.yul\":13643:13647   */\n      0x11\n        /* \"#utility.yul\":13640:13641   */\n      0x04\n        /* \"#utility.yul\":13633:13648   */\n      mstore\n        /* \"#utility.yul\":13667:13671   */\n      0x24\n        /* \"#utility.yul\":13664:13665   */\n      0x00\n        /* \"#utility.yul\":13657:13672   */\n      revert\n        /* \"#utility.yul\":13684:13875   */\n    tag_93:\n        /* \"#utility.yul\":13724:13727   */\n      0x00\n        /* \"#utility.yul\":13743:13763   */\n      tag_253\n        /* \"#utility.yul\":13761:13762   */\n      dup3\n        /* \"#utility.yul\":13743:13763   */\n      tag_110\n      jump\t// in\n    tag_253:\n        /* \"#utility.yul\":13738:13763   */\n      swap2\n      pop\n        /* \"#utility.yul\":13777:13797   */\n      tag_254\n        /* \"#utility.yul\":13795:13796   */\n      dup4\n        /* \"#utility.yul\":13777:13797   */\n      tag_110\n      jump\t// in\n    tag_254:\n        /* \"#utility.yul\":13772:13797   */\n      swap3\n      pop\n        /* \"#utility.yul\":13820:13821   */\n      dup3\n        /* \"#utility.yul\":13817:13818   */\n      dup3\n        /* \"#utility.yul\":13813:13822   */\n      add\n        /* \"#utility.yul\":13806:13822   */\n      swap1\n      pop\n        /* \"#utility.yul\":13841:13844   */\n      dup1\n        /* \"#utility.yul\":13838:13839   */\n      dup3\n        /* \"#utility.yul\":13835:13845   */\n      gt\n        /* \"#utility.yul\":13832:13868   */\n      iszero\n      tag_255\n      jumpi\n        /* \"#utility.yul\":13848:13866   */\n      tag_256\n      tag_128\n      jump\t// in\n    tag_256:\n        /* \"#utility.yul\":13832:13868   */\n    tag_255:\n        /* \"#utility.yul\":13684:13875   */\n      swap3\n      swap2\n      pop\n      pop\n      jump\t// out\n\n    auxdata: 0xa2646970667358221220340cea1e096b1a08f0d5e703be2838047cecbf931380601bc688ef9dd5cdd9c964736f6c634300081e0033\n}\n",
				"bytecode": {
					"linkReferences": {},
					"object": "6080604052348015600e575f5ffd5b50610ceb8061001c5f395ff3fe608060405260043610610033575f3560e01c806341ed24a21461003757806377988cf81461005f578063acacd8ee1461007b575b5f5ffd5b348015610042575f5ffd5b5061005d6004803603810190610058919061075d565b6100a3565b005b610079600480360381019061007491906107ee565b61029d565b005b348015610086575f5ffd5b506100a1600480360381019061009c919061086c565b610489565b005b8181905084849050146100eb576040517f08c379a00000000000000000000000000000000000000000000000000000000081526004016100e2906108f1565b60405180910390fd5b5f6100f683836105f9565b90505f869050818173ffffffffffffffffffffffffffffffffffffffff1663dd62ed3e33306040518363ffffffff1660e01b815260040161013892919061091e565b602060405180830381865afa158015610153573d5f5f3e3d5ffd5b505050506040513d601f19601f820116820180604052508101906101779190610978565b10156101b8576040517f08c379a00000000000000000000000000000000000000000000000000000000081526004016101af906109ed565b60405180910390fd5b5f5f90505b86869050811015610293578173ffffffffffffffffffffffffffffffffffffffff166323b872dd338989858181106101f8576101f7610a0b565b5b905060200201602081019061020d919061086c565b8888868181106102205761021f610a0b565b5b905060200201356040518463ffffffff1660e01b815260040161024593929190610a47565b6020604051808303815f875af1158015610261573d5f5f3e3d5ffd5b505050506040513d601f19601f820116820180604052508101906102859190610ab1565b5080806001019150506101bd565b5050505050505050565b8181905084849050146102e5576040517f08c379a00000000000000000000000000000000000000000000000000000000081526004016102dc906108f1565b60405180910390fd5b5f6102f083836105f9565b9050803414610334576040517f08c379a000000000000000000000000000000000000000000000000000000000815260040161032b90610b26565b60405180910390fd5b5f5f90505b85859050811015610481575f86868381811061035857610357610a0b565b5b905060200201602081019061036d919061086c565b73ffffffffffffffffffffffffffffffffffffffff1685858481811061039657610395610a0b565b5b905060200201356040516103a990610b71565b5f6040518083038185875af1925050503d805f81146103e3576040519150601f19603f3d011682016040523d82523d5f602084013e6103e8565b606091505b50509050806104735784848381811061040457610403610a0b565b5b905060200201355f5f8989868181106104205761041f610a0b565b5b9050602002016020810190610435919061086c565b73ffffffffffffffffffffffffffffffffffffffff1673ffffffffffffffffffffffffffffffffffffffff1681526020019081526020015f20819055505b508080600101915050610339565b505050505050565b5f5f5f3373ffffffffffffffffffffffffffffffffffffffff1673ffffffffffffffffffffffffffffffffffffffff1681526020019081526020015f205490505f811161050b576040517f08c379a000000000000000000000000000000000000000000000000000000000815260040161050290610bcf565b60405180910390fd5b5f5f5f3373ffffffffffffffffffffffffffffffffffffffff1673ffffffffffffffffffffffffffffffffffffffff1681526020019081526020015f20819055505f8273ffffffffffffffffffffffffffffffffffffffff168260405161057190610b71565b5f6040518083038185875af1925050503d805f81146105ab576040519150601f19603f3d011682016040523d82523d5f602084013e6105b0565b606091505b50509050806105f4576040517f08c379a00000000000000000000000000000000000000000000000000000000081526004016105eb90610c37565b60405180910390fd5b505050565b5f5f5f90505b8383905081101561063e5783838281811061061d5761061c610a0b565b5b905060200201358261062f9190610c82565b915080806001019150506105ff565b5092915050565b5f5ffd5b5f5ffd5b5f73ffffffffffffffffffffffffffffffffffffffff82169050919050565b5f6106768261064d565b9050919050565b6106868161066c565b8114610690575f5ffd5b50565b5f813590506106a18161067d565b92915050565b5f5ffd5b5f5ffd5b5f5ffd5b5f5f83601f8401126106c8576106c76106a7565b5b8235905067ffffffffffffffff8111156106e5576106e46106ab565b5b602083019150836020820283011115610701576107006106af565b5b9250929050565b5f5f83601f84011261071d5761071c6106a7565b5b8235905067ffffffffffffffff81111561073a576107396106ab565b5b602083019150836020820283011115610756576107556106af565b5b9250929050565b5f5f5f5f5f6060868803121561077657610775610645565b5b5f61078388828901610693565b955050602086013567ffffffffffffffff8111156107a4576107a3610649565b5b6107b0888289016106b3565b9450945050604086013567ffffffffffffffff8111156107d3576107d2610649565b5b6107df88828901610708565b92509250509295509295909350565b5f5f5f5f6040858703121561080657610805610645565b5b5f85013567ffffffffffffffff81111561082357610822610649565b5b61082f878288016106b3565b9450945050602085013567ffffffffffffffff81111561085257610851610649565b5b61085e87828801610708565b925092505092959194509250565b5f6020828403121561088157610880610645565b5b5f61088e84828501610693565b91505092915050565b5f82825260208201905092915050565b7f6c656e677468206e6f7420657175616c000000000000000000000000000000005f82015250565b5f6108db601083610897565b91506108e6826108a7565b602082019050919050565b5f6020820190508181035f830152610908816108cf565b9050919050565b6109188161066c565b82525050565b5f6040820190506109315f83018561090f565b61093e602083018461090f565b9392505050565b5f819050919050565b61095781610945565b8114610961575f5ffd5b50565b5f815190506109728161094e565b92915050565b5f6020828403121561098d5761098c610645565b5b5f61099a84828501610964565b91505092915050565b7f6e6f20656e6f75676820616c6c6f77616e6365000000000000000000000000005f82015250565b5f6109d7601383610897565b91506109e2826109a3565b602082019050919050565b5f6020820190508181035f830152610a04816109cb565b9050919050565b7f4e487b71000000000000000000000000000000000000000000000000000000005f52603260045260245ffd5b610a4181610945565b82525050565b5f606082019050610a5a5f83018661090f565b610a67602083018561090f565b610a746040830184610a38565b949350505050565b5f8115159050919050565b610a9081610a7c565b8114610a9a575f5ffd5b50565b5f81519050610aab81610a87565b92915050565b5f60208284031215610ac657610ac5610645565b5b5f610ad384828501610a9d565b91505092915050565b7f5472616e7366657220616d6f756e74206572726f7200000000000000000000005f82015250565b5f610b10601583610897565b9150610b1b82610adc565b602082019050919050565b5f6020820190508181035f830152610b3d81610b04565b9050919050565b5f81905092915050565b50565b5f610b5c5f83610b44565b9150610b6782610b4e565b5f82019050919050565b5f610b7b82610b51565b9150819050919050565b7f596f7520617265206e6f7420696e206661696c6564206c6973740000000000005f82015250565b5f610bb9601a83610897565b9150610bc482610b85565b602082019050919050565b5f6020820190508181035f830152610be681610bad565b9050919050565b7f4661696c207769746864726177000000000000000000000000000000000000005f82015250565b5f610c21600d83610897565b9150610c2c82610bed565b602082019050919050565b5f6020820190508181035f830152610c4e81610c15565b9050919050565b7f4e487b71000000000000000000000000000000000000000000000000000000005f52601160045260245ffd5b5f610c8c82610945565b9150610c9783610945565b9250828201905080821115610caf57610cae610c55565b5b9291505056fea2646970667358221220340cea1e096b1a08f0d5e703be2838047cecbf931380601bc688ef9dd5cdd9c964736f6c634300081e0033",
					"opcodes": "PUSH1 0x80 PUSH1 0x40 MSTORE CALLVALUE DUP1 ISZERO PUSH1 0xE JUMPI PUSH0 PUSH0 REVERT JUMPDEST POP PUSH2 0xCEB DUP1 PUSH2 0x1C PUSH0 CODECOPY PUSH0 RETURN INVALID PUSH1 0x80 PUSH1 0x40 MSTORE PUSH1 0x4 CALLDATASIZE LT PUSH2 0x33 JUMPI PUSH0 CALLDATALOAD PUSH1 0xE0 SHR DUP1 PUSH4 0x41ED24A2 EQ PUSH2 0x37 JUMPI DUP1 PUSH4 0x77988CF8 EQ PUSH2 0x5F JUMPI DUP1 PUSH4 0xACACD8EE EQ PUSH2 0x7B JUMPI JUMPDEST PUSH0 PUSH0 REVERT JUMPDEST CALLVALUE DUP1 ISZERO PUSH2 0x42 JUMPI PUSH0 PUSH0 REVERT JUMPDEST POP PUSH2 0x5D PUSH1 0x4 DUP1 CALLDATASIZE SUB DUP2 ADD SWAP1 PUSH2 0x58 SWAP2 SWAP1 PUSH2 0x75D JUMP JUMPDEST PUSH2 0xA3 JUMP JUMPDEST STOP JUMPDEST PUSH2 0x79 PUSH1 0x4 DUP1 CALLDATASIZE SUB DUP2 ADD SWAP1 PUSH2 0x74 SWAP2 SWAP1 PUSH2 0x7EE JUMP JUMPDEST PUSH2 0x29D JUMP JUMPDEST STOP JUMPDEST CALLVALUE DUP1 ISZERO PUSH2 0x86 JUMPI PUSH0 PUSH0 REVERT JUMPDEST POP PUSH2 0xA1 PUSH1 0x4 DUP1 CALLDATASIZE SUB DUP2 ADD SWAP1 PUSH2 0x9C SWAP2 SWAP1 PUSH2 0x86C JUMP JUMPDEST PUSH2 0x489 JUMP JUMPDEST STOP JUMPDEST DUP2 DUP2 SWAP1 POP DUP5 DUP5 SWAP1 POP EQ PUSH2 0xEB JUMPI PUSH1 0x40 MLOAD PUSH32 0x8C379A000000000000000000000000000000000000000000000000000000000 DUP2 MSTORE PUSH1 0x4 ADD PUSH2 0xE2 SWAP1 PUSH2 0x8F1 JUMP JUMPDEST PUSH1 0x40 MLOAD DUP1 SWAP2 SUB SWAP1 REVERT JUMPDEST PUSH0 PUSH2 0xF6 DUP4 DUP4 PUSH2 0x5F9 JUMP JUMPDEST SWAP1 POP PUSH0 DUP7 SWAP1 POP DUP2 DUP2 PUSH20 0xFFFFFFFFFFFFFFFFFFFFFFFFFFFFFFFFFFFFFFFF AND PUSH4 0xDD62ED3E CALLER ADDRESS PUSH1 0x40 MLOAD DUP4 PUSH4 0xFFFFFFFF AND PUSH1 0xE0 SHL DUP2 MSTORE PUSH1 0x4 ADD PUSH2 0x138 SWAP3 SWAP2 SWAP1 PUSH2 0x91E JUMP JUMPDEST PUSH1 0x20 PUSH1 0x40 MLOAD DUP1 DUP4 SUB DUP2 DUP7 GAS STATICCALL ISZERO DUP1 ISZERO PUSH2 0x153 JUMPI RETURNDATASIZE PUSH0 PUSH0 RETURNDATACOPY RETURNDATASIZE PUSH0 REVERT JUMPDEST POP POP POP POP PUSH1 0x40 MLOAD RETURNDATASIZE PUSH1 0x1F NOT PUSH1 0x1F DUP3 ADD AND DUP3 ADD DUP1 PUSH1 0x40 MSTORE POP DUP2 ADD SWAP1 PUSH2 0x177 SWAP2 SWAP1 PUSH2 0x978 JUMP JUMPDEST LT ISZERO PUSH2 0x1B8 JUMPI PUSH1 0x40 MLOAD PUSH32 0x8C379A000000000000000000000000000000000000000000000000000000000 DUP2 MSTORE PUSH1 0x4 ADD PUSH2 0x1AF SWAP1 PUSH2 0x9ED JUMP JUMPDEST PUSH1 0x40 MLOAD DUP1 SWAP2 SUB SWAP1 REVERT JUMPDEST PUSH0 PUSH0 SWAP1 POP JUMPDEST DUP7 DUP7 SWAP1 POP DUP2 LT ISZERO PUSH2 0x293 JUMPI DUP2 PUSH20 0xFFFFFFFFFFFFFFFFFFFFFFFFFFFFFFFFFFFFFFFF AND PUSH4 0x23B872DD CALLER DUP10 DUP10 DUP6 DUP2 DUP2 LT PUSH2 0x1F8 JUMPI PUSH2 0x1F7 PUSH2 0xA0B JUMP JUMPDEST JUMPDEST SWAP1 POP PUSH1 0x20 MUL ADD PUSH1 0x20 DUP2 ADD SWAP1 PUSH2 0x20D SWAP2 SWAP1 PUSH2 0x86C JUMP JUMPDEST DUP9 DUP9 DUP7 DUP2 DUP2 LT PUSH2 0x220 JUMPI PUSH2 0x21F PUSH2 0xA0B JUMP JUMPDEST JUMPDEST SWAP1 POP PUSH1 0x20 MUL ADD CALLDATALOAD PUSH1 0x40 MLOAD DUP5 PUSH4 0xFFFFFFFF AND PUSH1 0xE0 SHL DUP2 MSTORE PUSH1 0x4 ADD PUSH2 0x245 SWAP4 SWAP3 SWAP2 SWAP1 PUSH2 0xA47 JUMP JUMPDEST PUSH1 0x20 PUSH1 0x40 MLOAD DUP1 DUP4 SUB DUP2 PUSH0 DUP8 GAS CALL ISZERO DUP1 ISZERO PUSH2 0x261 JUMPI RETURNDATASIZE PUSH0 PUSH0 RETURNDATACOPY RETURNDATASIZE PUSH0 REVERT JUMPDEST POP POP POP POP PUSH1 0x40 MLOAD RETURNDATASIZE PUSH1 0x1F NOT PUSH1 0x1F DUP3 ADD AND DUP3 ADD DUP1 PUSH1 0x40 MSTORE POP DUP2 ADD SWAP1 PUSH2 0x285 SWAP2 SWAP1 PUSH2 0xAB1 JUMP JUMPDEST POP DUP1 DUP1 PUSH1 0x1 ADD SWAP2 POP POP PUSH2 0x1BD JUMP JUMPDEST POP POP POP POP POP POP POP POP JUMP JUMPDEST DUP2 DUP2 SWAP1 POP DUP5 DUP5 SWAP1 POP EQ PUSH2 0x2E5 JUMPI PUSH1 0x40 MLOAD PUSH32 0x8C379A000000000000000000000000000000000000000000000000000000000 DUP2 MSTORE PUSH1 0x4 ADD PUSH2 0x2DC SWAP1 PUSH2 0x8F1 JUMP JUMPDEST PUSH1 0x40 MLOAD DUP1 SWAP2 SUB SWAP1 REVERT JUMPDEST PUSH0 PUSH2 0x2F0 DUP4 DUP4 PUSH2 0x5F9 JUMP JUMPDEST SWAP1 POP DUP1 CALLVALUE EQ PUSH2 0x334 JUMPI PUSH1 0x40 MLOAD PUSH32 0x8C379A000000000000000000000000000000000000000000000000000000000 DUP2 MSTORE PUSH1 0x4 ADD PUSH2 0x32B SWAP1 PUSH2 0xB26 JUMP JUMPDEST PUSH1 0x40 MLOAD DUP1 SWAP2 SUB SWAP1 REVERT JUMPDEST PUSH0 PUSH0 SWAP1 POP JUMPDEST DUP6 DUP6 SWAP1 POP DUP2 LT ISZERO PUSH2 0x481 JUMPI PUSH0 DUP7 DUP7 DUP4 DUP2 DUP2 LT PUSH2 0x358 JUMPI PUSH2 0x357 PUSH2 0xA0B JUMP JUMPDEST JUMPDEST SWAP1 POP PUSH1 0x20 MUL ADD PUSH1 0x20 DUP2 ADD SWAP1 PUSH2 0x36D SWAP2 SWAP1 PUSH2 0x86C JUMP JUMPDEST PUSH20 0xFFFFFFFFFFFFFFFFFFFFFFFFFFFFFFFFFFFFFFFF AND DUP6 DUP6 DUP5 DUP2 DUP2 LT PUSH2 0x396 JUMPI PUSH2 0x395 PUSH2 0xA0B JUMP JUMPDEST JUMPDEST SWAP1 POP PUSH1 0x20 MUL ADD CALLDATALOAD PUSH1 0x40 MLOAD PUSH2 0x3A9 SWAP1 PUSH2 0xB71 JUMP JUMPDEST PUSH0 PUSH1 0x40 MLOAD DUP1 DUP4 SUB DUP2 DUP6 DUP8 GAS CALL SWAP3 POP POP POP RETURNDATASIZE DUP1 PUSH0 DUP2 EQ PUSH2 0x3E3 JUMPI PUSH1 0x40 MLOAD SWAP2 POP PUSH1 0x1F NOT PUSH1 0x3F RETURNDATASIZE ADD AND DUP3 ADD PUSH1 0x40 MSTORE RETURNDATASIZE DUP3 MSTORE RETURNDATASIZE PUSH0 PUSH1 0x20 DUP5 ADD RETURNDATACOPY PUSH2 0x3E8 JUMP JUMPDEST PUSH1 0x60 SWAP2 POP JUMPDEST POP POP SWAP1 POP DUP1 PUSH2 0x473 JUMPI DUP5 DUP5 DUP4 DUP2 DUP2 LT PUSH2 0x404 JUMPI PUSH2 0x403 PUSH2 0xA0B JUMP JUMPDEST JUMPDEST SWAP1 POP PUSH1 0x20 MUL ADD CALLDATALOAD PUSH0 PUSH0 DUP10 DUP10 DUP7 DUP2 DUP2 LT PUSH2 0x420 JUMPI PUSH2 0x41F PUSH2 0xA0B JUMP JUMPDEST JUMPDEST SWAP1 POP PUSH1 0x20 MUL ADD PUSH1 0x20 DUP2 ADD SWAP1 PUSH2 0x435 SWAP2 SWAP1 PUSH2 0x86C JUMP JUMPDEST PUSH20 0xFFFFFFFFFFFFFFFFFFFFFFFFFFFFFFFFFFFFFFFF AND PUSH20 0xFFFFFFFFFFFFFFFFFFFFFFFFFFFFFFFFFFFFFFFF AND DUP2 MSTORE PUSH1 0x20 ADD SWAP1 DUP2 MSTORE PUSH1 0x20 ADD PUSH0 KECCAK256 DUP2 SWAP1 SSTORE POP JUMPDEST POP DUP1 DUP1 PUSH1 0x1 ADD SWAP2 POP POP PUSH2 0x339 JUMP JUMPDEST POP POP POP POP POP POP JUMP JUMPDEST PUSH0 PUSH0 PUSH0 CALLER PUSH20 0xFFFFFFFFFFFFFFFFFFFFFFFFFFFFFFFFFFFFFFFF AND PUSH20 0xFFFFFFFFFFFFFFFFFFFFFFFFFFFFFFFFFFFFFFFF AND DUP2 MSTORE PUSH1 0x20 ADD SWAP1 DUP2 MSTORE PUSH1 0x20 ADD PUSH0 KECCAK256 SLOAD SWAP1 POP PUSH0 DUP2 GT PUSH2 0x50B JUMPI PUSH1 0x40 MLOAD PUSH32 0x8C379A000000000000000000000000000000000000000000000000000000000 DUP2 MSTORE PUSH1 0x4 ADD PUSH2 0x502 SWAP1 PUSH2 0xBCF JUMP JUMPDEST PUSH1 0x40 MLOAD DUP1 SWAP2 SUB SWAP1 REVERT JUMPDEST PUSH0 PUSH0 PUSH0 CALLER PUSH20 0xFFFFFFFFFFFFFFFFFFFFFFFFFFFFFFFFFFFFFFFF AND PUSH20 0xFFFFFFFFFFFFFFFFFFFFFFFFFFFFFFFFFFFFFFFF AND DUP2 MSTORE PUSH1 0x20 ADD SWAP1 DUP2 MSTORE PUSH1 0x20 ADD PUSH0 KECCAK256 DUP2 SWAP1 SSTORE POP PUSH0 DUP3 PUSH20 0xFFFFFFFFFFFFFFFFFFFFFFFFFFFFFFFFFFFFFFFF AND DUP3 PUSH1 0x40 MLOAD PUSH2 0x571 SWAP1 PUSH2 0xB71 JUMP JUMPDEST PUSH0 PUSH1 0x40 MLOAD DUP1 DUP4 SUB DUP2 DUP6 DUP8 GAS CALL SWAP3 POP POP POP RETURNDATASIZE DUP1 PUSH0 DUP2 EQ PUSH2 0x5AB JUMPI PUSH1 0x40 MLOAD SWAP2 POP PUSH1 0x1F NOT PUSH1 0x3F RETURNDATASIZE ADD AND DUP3 ADD PUSH1 0x40 MSTORE RETURNDATASIZE DUP3 MSTORE RETURNDATASIZE PUSH0 PUSH1 0x20 DUP5 ADD RETURNDATACOPY PUSH2 0x5B0 JUMP JUMPDEST PUSH1 0x60 SWAP2 POP JUMPDEST POP POP SWAP1 POP DUP1 PUSH2 0x5F4 JUMPI PUSH1 0x40 MLOAD PUSH32 0x8C379A000000000000000000000000000000000000000000000000000000000 DUP2 MSTORE PUSH1 0x4 ADD PUSH2 0x5EB SWAP1 PUSH2 0xC37 JUMP JUMPDEST PUSH1 0x40 MLOAD DUP1 SWAP2 SUB SWAP1 REVERT JUMPDEST POP POP POP JUMP JUMPDEST PUSH0 PUSH0 PUSH0 SWAP1 POP JUMPDEST DUP4 DUP4 SWAP1 POP DUP2 LT ISZERO PUSH2 0x63E JUMPI DUP4 DUP4 DUP3 DUP2 DUP2 LT PUSH2 0x61D JUMPI PUSH2 0x61C PUSH2 0xA0B JUMP JUMPDEST JUMPDEST SWAP1 POP PUSH1 0x20 MUL ADD CALLDATALOAD DUP3 PUSH2 0x62F SWAP2 SWAP1 PUSH2 0xC82 JUMP JUMPDEST SWAP2 POP DUP1 DUP1 PUSH1 0x1 ADD SWAP2 POP POP PUSH2 0x5FF JUMP JUMPDEST POP SWAP3 SWAP2 POP POP JUMP JUMPDEST PUSH0 PUSH0 REVERT JUMPDEST PUSH0 PUSH0 REVERT JUMPDEST PUSH0 PUSH20 0xFFFFFFFFFFFFFFFFFFFFFFFFFFFFFFFFFFFFFFFF DUP3 AND SWAP1 POP SWAP2 SWAP1 POP JUMP JUMPDEST PUSH0 PUSH2 0x676 DUP3 PUSH2 0x64D JUMP JUMPDEST SWAP1 POP SWAP2 SWAP1 POP JUMP JUMPDEST PUSH2 0x686 DUP2 PUSH2 0x66C JUMP JUMPDEST DUP2 EQ PUSH2 0x690 JUMPI PUSH0 PUSH0 REVERT JUMPDEST POP JUMP JUMPDEST PUSH0 DUP2 CALLDATALOAD SWAP1 POP PUSH2 0x6A1 DUP2 PUSH2 0x67D JUMP JUMPDEST SWAP3 SWAP2 POP POP JUMP JUMPDEST PUSH0 PUSH0 REVERT JUMPDEST PUSH0 PUSH0 REVERT JUMPDEST PUSH0 PUSH0 REVERT JUMPDEST PUSH0 PUSH0 DUP4 PUSH1 0x1F DUP5 ADD SLT PUSH2 0x6C8 JUMPI PUSH2 0x6C7 PUSH2 0x6A7 JUMP JUMPDEST JUMPDEST DUP3 CALLDATALOAD SWAP1 POP PUSH8 0xFFFFFFFFFFFFFFFF DUP2 GT ISZERO PUSH2 0x6E5 JUMPI PUSH2 0x6E4 PUSH2 0x6AB JUMP JUMPDEST JUMPDEST PUSH1 0x20 DUP4 ADD SWAP2 POP DUP4 PUSH1 0x20 DUP3 MUL DUP4 ADD GT ISZERO PUSH2 0x701 JUMPI PUSH2 0x700 PUSH2 0x6AF JUMP JUMPDEST JUMPDEST SWAP3 POP SWAP3 SWAP1 POP JUMP JUMPDEST PUSH0 PUSH0 DUP4 PUSH1 0x1F DUP5 ADD SLT PUSH2 0x71D JUMPI PUSH2 0x71C PUSH2 0x6A7 JUMP JUMPDEST JUMPDEST DUP3 CALLDATALOAD SWAP1 POP PUSH8 0xFFFFFFFFFFFFFFFF DUP2 GT ISZERO PUSH2 0x73A JUMPI PUSH2 0x739 PUSH2 0x6AB JUMP JUMPDEST JUMPDEST PUSH1 0x20 DUP4 ADD SWAP2 POP DUP4 PUSH1 0x20 DUP3 MUL DUP4 ADD GT ISZERO PUSH2 0x756 JUMPI PUSH2 0x755 PUSH2 0x6AF JUMP JUMPDEST JUMPDEST SWAP3 POP SWAP3 SWAP1 POP JUMP JUMPDEST PUSH0 PUSH0 PUSH0 PUSH0 PUSH0 PUSH1 0x60 DUP7 DUP9 SUB SLT ISZERO PUSH2 0x776 JUMPI PUSH2 0x775 PUSH2 0x645 JUMP JUMPDEST JUMPDEST PUSH0 PUSH2 0x783 DUP9 DUP3 DUP10 ADD PUSH2 0x693 JUMP JUMPDEST SWAP6 POP POP PUSH1 0x20 DUP7 ADD CALLDATALOAD PUSH8 0xFFFFFFFFFFFFFFFF DUP2 GT ISZERO PUSH2 0x7A4 JUMPI PUSH2 0x7A3 PUSH2 0x649 JUMP JUMPDEST JUMPDEST PUSH2 0x7B0 DUP9 DUP3 DUP10 ADD PUSH2 0x6B3 JUMP JUMPDEST SWAP5 POP SWAP5 POP POP PUSH1 0x40 DUP7 ADD CALLDATALOAD PUSH8 0xFFFFFFFFFFFFFFFF DUP2 GT ISZERO PUSH2 0x7D3 JUMPI PUSH2 0x7D2 PUSH2 0x649 JUMP JUMPDEST JUMPDEST PUSH2 0x7DF DUP9 DUP3 DUP10 ADD PUSH2 0x708 JUMP JUMPDEST SWAP3 POP SWAP3 POP POP SWAP3 SWAP6 POP SWAP3 SWAP6 SWAP1 SWAP4 POP JUMP JUMPDEST PUSH0 PUSH0 PUSH0 PUSH0 PUSH1 0x40 DUP6 DUP8 SUB SLT ISZERO PUSH2 0x806 JUMPI PUSH2 0x805 PUSH2 0x645 JUMP JUMPDEST JUMPDEST PUSH0 DUP6 ADD CALLDATALOAD PUSH8 0xFFFFFFFFFFFFFFFF DUP2 GT ISZERO PUSH2 0x823 JUMPI PUSH2 0x822 PUSH2 0x649 JUMP JUMPDEST JUMPDEST PUSH2 0x82F DUP8 DUP3 DUP9 ADD PUSH2 0x6B3 JUMP JUMPDEST SWAP5 POP SWAP5 POP POP PUSH1 0x20 DUP6 ADD CALLDATALOAD PUSH8 0xFFFFFFFFFFFFFFFF DUP2 GT ISZERO PUSH2 0x852 JUMPI PUSH2 0x851 PUSH2 0x649 JUMP JUMPDEST JUMPDEST PUSH2 0x85E DUP8 DUP3 DUP9 ADD PUSH2 0x708 JUMP JUMPDEST SWAP3 POP SWAP3 POP POP SWAP3 SWAP6 SWAP2 SWAP5 POP SWAP3 POP JUMP JUMPDEST PUSH0 PUSH1 0x20 DUP3 DUP5 SUB SLT ISZERO PUSH2 0x881 JUMPI PUSH2 0x880 PUSH2 0x645 JUMP JUMPDEST JUMPDEST PUSH0 PUSH2 0x88E DUP5 DUP3 DUP6 ADD PUSH2 0x693 JUMP JUMPDEST SWAP2 POP POP SWAP3 SWAP2 POP POP JUMP JUMPDEST PUSH0 DUP3 DUP3 MSTORE PUSH1 0x20 DUP3 ADD SWAP1 POP SWAP3 SWAP2 POP POP JUMP JUMPDEST PUSH32 0x6C656E677468206E6F7420657175616C00000000000000000000000000000000 PUSH0 DUP3 ADD MSTORE POP JUMP JUMPDEST PUSH0 PUSH2 0x8DB PUSH1 0x10 DUP4 PUSH2 0x897 JUMP JUMPDEST SWAP2 POP PUSH2 0x8E6 DUP3 PUSH2 0x8A7 JUMP JUMPDEST PUSH1 0x20 DUP3 ADD SWAP1 POP SWAP2 SWAP1 POP JUMP JUMPDEST PUSH0 PUSH1 0x20 DUP3 ADD SWAP1 POP DUP2 DUP2 SUB PUSH0 DUP4 ADD MSTORE PUSH2 0x908 DUP2 PUSH2 0x8CF JUMP JUMPDEST SWAP1 POP SWAP2 SWAP1 POP JUMP JUMPDEST PUSH2 0x918 DUP2 PUSH2 0x66C JUMP JUMPDEST DUP3 MSTORE POP POP JUMP JUMPDEST PUSH0 PUSH1 0x40 DUP3 ADD SWAP1 POP PUSH2 0x931 PUSH0 DUP4 ADD DUP6 PUSH2 0x90F JUMP JUMPDEST PUSH2 0x93E PUSH1 0x20 DUP4 ADD DUP5 PUSH2 0x90F JUMP JUMPDEST SWAP4 SWAP3 POP POP POP JUMP JUMPDEST PUSH0 DUP2 SWAP1 POP SWAP2 SWAP1 POP JUMP JUMPDEST PUSH2 0x957 DUP2 PUSH2 0x945 JUMP JUMPDEST DUP2 EQ PUSH2 0x961 JUMPI PUSH0 PUSH0 REVERT JUMPDEST POP JUMP JUMPDEST PUSH0 DUP2 MLOAD SWAP1 POP PUSH2 0x972 DUP2 PUSH2 0x94E JUMP JUMPDEST SWAP3 SWAP2 POP POP JUMP JUMPDEST PUSH0 PUSH1 0x20 DUP3 DUP5 SUB SLT ISZERO PUSH2 0x98D JUMPI PUSH2 0x98C PUSH2 0x645 JUMP JUMPDEST JUMPDEST PUSH0 PUSH2 0x99A DUP5 DUP3 DUP6 ADD PUSH2 0x964 JUMP JUMPDEST SWAP2 POP POP SWAP3 SWAP2 POP POP JUMP JUMPDEST PUSH32 0x6E6F20656E6F75676820616C6C6F77616E636500000000000000000000000000 PUSH0 DUP3 ADD MSTORE POP JUMP JUMPDEST PUSH0 PUSH2 0x9D7 PUSH1 0x13 DUP4 PUSH2 0x897 JUMP JUMPDEST SWAP2 POP PUSH2 0x9E2 DUP3 PUSH2 0x9A3 JUMP JUMPDEST PUSH1 0x20 DUP3 ADD SWAP1 POP SWAP2 SWAP1 POP JUMP JUMPDEST PUSH0 PUSH1 0x20 DUP3 ADD SWAP1 POP DUP2 DUP2 SUB PUSH0 DUP4 ADD MSTORE PUSH2 0xA04 DUP2 PUSH2 0x9CB JUMP JUMPDEST SWAP1 POP SWAP2 SWAP1 POP JUMP JUMPDEST PUSH32 0x4E487B7100000000000000000000000000000000000000000000000000000000 PUSH0 MSTORE PUSH1 0x32 PUSH1 0x4 MSTORE PUSH1 0x24 PUSH0 REVERT JUMPDEST PUSH2 0xA41 DUP2 PUSH2 0x945 JUMP JUMPDEST DUP3 MSTORE POP POP JUMP JUMPDEST PUSH0 PUSH1 0x60 DUP3 ADD SWAP1 POP PUSH2 0xA5A PUSH0 DUP4 ADD DUP7 PUSH2 0x90F JUMP JUMPDEST PUSH2 0xA67 PUSH1 0x20 DUP4 ADD DUP6 PUSH2 0x90F JUMP JUMPDEST PUSH2 0xA74 PUSH1 0x40 DUP4 ADD DUP5 PUSH2 0xA38 JUMP JUMPDEST SWAP5 SWAP4 POP POP POP POP JUMP JUMPDEST PUSH0 DUP2 ISZERO ISZERO SWAP1 POP SWAP2 SWAP1 POP JUMP JUMPDEST PUSH2 0xA90 DUP2 PUSH2 0xA7C JUMP JUMPDEST DUP2 EQ PUSH2 0xA9A JUMPI PUSH0 PUSH0 REVERT JUMPDEST POP JUMP JUMPDEST PUSH0 DUP2 MLOAD SWAP1 POP PUSH2 0xAAB DUP2 PUSH2 0xA87 JUMP JUMPDEST SWAP3 SWAP2 POP POP JUMP JUMPDEST PUSH0 PUSH1 0x20 DUP3 DUP5 SUB SLT ISZERO PUSH2 0xAC6 JUMPI PUSH2 0xAC5 PUSH2 0x645 JUMP JUMPDEST JUMPDEST PUSH0 PUSH2 0xAD3 DUP5 DUP3 DUP6 ADD PUSH2 0xA9D JUMP JUMPDEST SWAP2 POP POP SWAP3 SWAP2 POP POP JUMP JUMPDEST PUSH32 0x5472616E7366657220616D6F756E74206572726F720000000000000000000000 PUSH0 DUP3 ADD MSTORE POP JUMP JUMPDEST PUSH0 PUSH2 0xB10 PUSH1 0x15 DUP4 PUSH2 0x897 JUMP JUMPDEST SWAP2 POP PUSH2 0xB1B DUP3 PUSH2 0xADC JUMP JUMPDEST PUSH1 0x20 DUP3 ADD SWAP1 POP SWAP2 SWAP1 POP JUMP JUMPDEST PUSH0 PUSH1 0x20 DUP3 ADD SWAP1 POP DUP2 DUP2 SUB PUSH0 DUP4 ADD MSTORE PUSH2 0xB3D DUP2 PUSH2 0xB04 JUMP JUMPDEST SWAP1 POP SWAP2 SWAP1 POP JUMP JUMPDEST PUSH0 DUP2 SWAP1 POP SWAP3 SWAP2 POP POP JUMP JUMPDEST POP JUMP JUMPDEST PUSH0 PUSH2 0xB5C PUSH0 DUP4 PUSH2 0xB44 JUMP JUMPDEST SWAP2 POP PUSH2 0xB67 DUP3 PUSH2 0xB4E JUMP JUMPDEST PUSH0 DUP3 ADD SWAP1 POP SWAP2 SWAP1 POP JUMP JUMPDEST PUSH0 PUSH2 0xB7B DUP3 PUSH2 0xB51 JUMP JUMPDEST SWAP2 POP DUP2 SWAP1 POP SWAP2 SWAP1 POP JUMP JUMPDEST PUSH32 0x596F7520617265206E6F7420696E206661696C6564206C697374000000000000 PUSH0 DUP3 ADD MSTORE POP JUMP JUMPDEST PUSH0 PUSH2 0xBB9 PUSH1 0x1A DUP4 PUSH2 0x897 JUMP JUMPDEST SWAP2 POP PUSH2 0xBC4 DUP3 PUSH2 0xB85 JUMP JUMPDEST PUSH1 0x20 DUP3 ADD SWAP1 POP SWAP2 SWAP1 POP JUMP JUMPDEST PUSH0 PUSH1 0x20 DUP3 ADD SWAP1 POP DUP2 DUP2 SUB PUSH0 DUP4 ADD MSTORE PUSH2 0xBE6 DUP2 PUSH2 0xBAD JUMP JUMPDEST SWAP1 POP SWAP2 SWAP1 POP JUMP JUMPDEST PUSH32 0x4661696C20776974686472617700000000000000000000000000000000000000 PUSH0 DUP3 ADD MSTORE POP JUMP JUMPDEST PUSH0 PUSH2 0xC21 PUSH1 0xD DUP4 PUSH2 0x897 JUMP JUMPDEST SWAP2 POP PUSH2 0xC2C DUP3 PUSH2 0xBED JUMP JUMPDEST PUSH1 0x20 DUP3 ADD SWAP1 POP SWAP2 SWAP1 POP JUMP JUMPDEST PUSH0 PUSH1 0x20 DUP3 ADD SWAP1 POP DUP2 DUP2 SUB PUSH0 DUP4 ADD MSTORE PUSH2 0xC4E DUP2 PUSH2 0xC15 JUMP JUMPDEST SWAP1 POP SWAP2 SWAP1 POP JUMP JUMPDEST PUSH32 0x4E487B7100000000000000000000000000000000000000000000000000000000 PUSH0 MSTORE PUSH1 0x11 PUSH1 0x4 MSTORE PUSH1 0x24 PUSH0 REVERT JUMPDEST PUSH0 PUSH2 0xC8C DUP3 PUSH2 0x945 JUMP JUMPDEST SWAP2 POP PUSH2 0xC97 DUP4 PUSH2 0x945 JUMP JUMPDEST SWAP3 POP DUP3 DUP3 ADD SWAP1 POP DUP1 DUP3 GT ISZERO PUSH2 0xCAF JUMPI PUSH2 0xCAE PUSH2 0xC55 JUMP JUMPDEST JUMPDEST SWAP3 SWAP2 POP POP JUMP INVALID LOG2 PUSH5 0x6970667358 0x22 SLT KECCAK256 CALLVALUE 0xC 0xEA 0x1E MULMOD PUSH12 0x1A08F0D5E703BE2838047CEC 0xBF SWAP4 SGT DUP1 PUSH1 0x1B 0xC6 DUP9 0xEF SWAP14 0xD5 0xCD 0xD9 0xC9 PUSH5 0x736F6C6343 STOP ADDMOD 0x1E STOP CALLER "
				},
				"gasEstimates": {
					"creation": {
						"codeDepositCost": "661400",
						"executionCost": "694",
						"totalCost": "662094"
					},
					"external": {
						"multiTransferETH(address[],uint256[])": "infinite",
						"multiTransferToken(address,address[],uint256[])": "infinite",
						"withdrawFromFailList(address)": "infinite"
					},
					"internal": {
						"getSum(uint256[] calldata)": "infinite"
					}
				},
				"methodIdentifiers": {
					"multiTransferETH(address[],uint256[])": "77988cf8",
					"multiTransferToken(address,address[],uint256[])": "41ed24a2",
					"withdrawFromFailList(address)": "acacd8ee"
				}
			},
			"storageLayout": {
				"storage": [
					{
						"astId": 6,
						"contract": "contracts/Airdrop.sol:Airdrop",
						"label": "failTransferList",
						"offset": 0,
						"slot": "0",
						"type": "t_mapping(t_address,t_uint256)"
					}
				],
				"types": {
					"t_address": {
						"encoding": "inplace",
						"label": "address",
						"numberOfBytes": "20"
					},
					"t_mapping(t_address,t_uint256)": {
						"encoding": "mapping",
						"key": "t_address",
						"label": "mapping(address => uint256)",
						"numberOfBytes": "32",
						"value": "t_uint256"
					},
					"t_uint256": {
						"encoding": "inplace",
						"label": "uint256",
						"numberOfBytes": "32"
					}
				}
			},
			"userdoc": {
				"kind": "user",
				"methods": {
					"multiTransferToken(address,address[],uint256[])": {
						"notice": "向多个地址转账ERC20代币，使用前需要先授权"
					}
				},
				"version": 1
			}
		}
	}
}