{
	"contracts/DeployContract.sol": {
		"DeployContract": {
			"abi": [
				{
					"inputs": [],
					"stateMutability": "payable",
					"type": "constructor"
				},
				{
					"inputs": [],
					"name": "demo",
					"outputs": [
						{
							"components": [
								{
									"internalType": "address",
									"name": "addr",
									"type": "address"
								},
								{
									"internalType": "uint256",
									"name": "balance",
									"type": "uint256"
								},
								{
									"internalType": "uint256",
									"name": "value",
									"type": "uint256"
								}
							],
							"internalType": "struct DeployContract.DemoResult",
							"name": "",
							"type": "tuple"
						}
					],
					"stateMutability": "payable",
					"type": "function"
				},
				{
					"inputs": [],
					"name": "getBalance",
					"outputs": [
						{
							"internalType": "uint256",
							"name": "balance",
							"type": "uint256"
						}
					],
					"stateMutability": "view",
					"type": "function"
				}
			],
			"devdoc": {
				"kind": "dev",
				"methods": {},
				"version": 1
			},
			"evm": {
				"assembly": "    /* \"contracts/DeployContract.sol\":61:675  contract DeployContract{... */\n  mstore(0x40, 0x80)\n  dataSize(sub_0)\n  dup1\n  dataOffset(sub_0)\n  0x00\n  codecopy\n  0x00\n  return\nstop\n\nsub_0: assembly {\n        /* \"contracts/DeployContract.sol\":61:675  contract DeployContract{... */\n      mstore(0x40, 0x80)\n      jumpi(tag_1, lt(calldatasize, 0x04))\n      shr(0xe0, calldataload(0x00))\n      dup1\n      0x01725a0b\n      eq\n      tag_2\n      jumpi\n      dup1\n      0x12065fe0\n      eq\n      tag_3\n      jumpi\n    tag_1:\n      revert(0x00, 0x00)\n        /* \"contracts/DeployContract.sol\":342:664  function demo() public payable returns (DemoResult memory){... */\n    tag_2:\n      tag_4\n      tag_5\n      jump\t// in\n    tag_4:\n      mload(0x40)\n      tag_6\n      swap2\n      swap1\n      tag_7\n      jump\t// in\n    tag_6:\n      mload(0x40)\n      dup1\n      swap2\n      sub\n      swap1\n      return\n        /* \"contracts/DeployContract.sol\":226:334  function getBalance() external view returns (uint balance) {... */\n    tag_3:\n      callvalue\n      dup1\n      iszero\n      tag_8\n      jumpi\n      revert(0x00, 0x00)\n    tag_8:\n      pop\n      tag_9\n      tag_10\n      jump\t// in\n    tag_9:\n      mload(0x40)\n      tag_11\n      swap2\n      swap1\n      tag_12\n      jump\t// in\n    tag_11:\n      mload(0x40)\n      dup1\n      swap2\n      sub\n      swap1\n      return\n        /* \"contracts/DeployContract.sol\":342:664  function demo() public payable returns (DemoResult memory){... */\n    tag_5:\n        /* \"contracts/DeployContract.sol\":382:399  DemoResult memory */\n      tag_13\n      tag_14\n      jump\t// in\n    tag_13:\n        /* \"contracts/DeployContract.sol\":409:427  DeleteContract del */\n      0x00\n        /* \"contracts/DeployContract.sol\":455:464  msg.value */\n      callvalue\n        /* \"contracts/DeployContract.sol\":430:467  new DeleteContract{value:msg.value}() */\n      mload(0x40)\n      tag_16\n      swap1\n      tag_17\n      jump\t// in\n    tag_16:\n      mload(0x40)\n      dup1\n      swap2\n      sub\n      swap1\n      dup3\n      create\n      swap1\n      pop\n      dup1\n      iszero\n      dup1\n      iszero\n      tag_18\n      jumpi\n      returndatacopy(0x00, 0x00, returndatasize)\n      revert(0x00, returndatasize)\n    tag_18:\n      pop\n        /* \"contracts/DeployContract.sol\":409:467  DeleteContract del = new DeleteContract{value:msg.value}() */\n      swap1\n      pop\n        /* \"contracts/DeployContract.sol\":474:495  DemoResult memory res */\n      0x00\n        /* \"contracts/DeployContract.sol\":498:609  DemoResult({... */\n      mload(0x40)\n      dup1\n      0x60\n      add\n      0x40\n      mstore\n      dup1\n        /* \"contracts/DeployContract.sol\":533:537  this */\n      address\n        /* \"contracts/DeployContract.sol\":498:609  DemoResult({... */\n      0xffffffffffffffffffffffffffffffffffffffff\n      and\n      dup2\n      mstore\n      0x20\n      add\n        /* \"contracts/DeployContract.sol\":557:560  del */\n      dup4\n        /* \"contracts/DeployContract.sol\":557:571  del.getBalance */\n      0xffffffffffffffffffffffffffffffffffffffff\n      and\n      0x12065fe0\n        /* \"contracts/DeployContract.sol\":557:573  del.getBalance() */\n      mload(0x40)\n      dup2\n      0xffffffff\n      and\n      0xe0\n      shl\n      dup2\n      mstore\n      0x04\n      add\n      0x20\n      mload(0x40)\n      dup1\n      dup4\n      sub\n      dup2\n      dup7\n      gas\n      staticcall\n      iszero\n      dup1\n      iszero\n      tag_20\n      jumpi\n      returndatacopy(0x00, 0x00, returndatasize)\n      revert(0x00, returndatasize)\n    tag_20:\n      pop\n      pop\n      pop\n      pop\n      mload(0x40)\n      returndatasize\n      not(0x1f)\n      0x1f\n      dup3\n      add\n      and\n      dup3\n      add\n      dup1\n      0x40\n      mstore\n      pop\n      dup2\n      add\n      swap1\n      tag_21\n      swap2\n      swap1\n      tag_22\n      jump\t// in\n    tag_21:\n        /* \"contracts/DeployContract.sol\":498:609  DemoResult({... */\n      dup2\n      mstore\n      0x20\n      add\n        /* \"contracts/DeployContract.sol\":590:593  del */\n      dup4\n        /* \"contracts/DeployContract.sol\":590:599  del.value */\n      0xffffffffffffffffffffffffffffffffffffffff\n      and\n      0x3fa4f245\n        /* \"contracts/DeployContract.sol\":590:601  del.value() */\n      mload(0x40)\n      dup2\n      0xffffffff\n      and\n      0xe0\n      shl\n      dup2\n      mstore\n      0x04\n      add\n      0x20\n      mload(0x40)\n      dup1\n      dup4\n      sub\n      dup2\n      dup7\n      gas\n      staticcall\n      iszero\n      dup1\n      iszero\n      tag_24\n      jumpi\n      returndatacopy(0x00, 0x00, returndatasize)\n      revert(0x00, returndatasize)\n    tag_24:\n      pop\n      pop\n      pop\n      pop\n      mload(0x40)\n      returndatasize\n      not(0x1f)\n      0x1f\n      dup3\n      add\n      and\n      dup3\n      add\n      dup1\n      0x40\n      mstore\n      pop\n      dup2\n      add\n      swap1\n      tag_25\n      swap2\n      swap1\n      tag_22\n      jump\t// in\n    tag_25:\n        /* \"contracts/DeployContract.sol\":498:609  DemoResult({... */\n      dup2\n      mstore\n      pop\n        /* \"contracts/DeployContract.sol\":474:609  DemoResult memory res = DemoResult({... */\n      swap1\n      pop\n        /* \"contracts/DeployContract.sol\":618:621  del */\n      dup2\n        /* \"contracts/DeployContract.sol\":618:636  del.deleteContract */\n      0xffffffffffffffffffffffffffffffffffffffff\n      and\n      0x5a58cd4c\n        /* \"contracts/DeployContract.sol\":618:638  del.deleteContract() */\n      mload(0x40)\n      dup2\n      0xffffffff\n      and\n      0xe0\n      shl\n      dup2\n      mstore\n      0x04\n      add\n      0x00\n      mload(0x40)\n      dup1\n      dup4\n      sub\n      dup2\n      0x00\n      dup8\n      dup1\n      extcodesize\n      iszero\n      dup1\n      iszero\n      tag_26\n      jumpi\n      revert(0x00, 0x00)\n    tag_26:\n      pop\n      gas\n      call\n      iszero\n      dup1\n      iszero\n      tag_28\n      jumpi\n      returndatacopy(0x00, 0x00, returndatasize)\n      revert(0x00, returndatasize)\n    tag_28:\n      pop\n      pop\n      pop\n      pop\n        /* \"contracts/DeployContract.sol\":652:655  res */\n      dup1\n        /* \"contracts/DeployContract.sol\":645:655  return res */\n      swap3\n      pop\n      pop\n      pop\n        /* \"contracts/DeployContract.sol\":342:664  function demo() public payable returns (DemoResult memory){... */\n      swap1\n      jump\t// out\n        /* \"contracts/DeployContract.sol\":226:334  function getBalance() external view returns (uint balance) {... */\n    tag_10:\n        /* \"contracts/DeployContract.sol\":271:283  uint balance */\n      0x00\n        /* \"contracts/DeployContract.sol\":306:327  address(this).balance */\n      selfbalance\n        /* \"contracts/DeployContract.sol\":295:327  balance =  address(this).balance */\n      swap1\n      pop\n        /* \"contracts/DeployContract.sol\":226:334  function getBalance() external view returns (uint balance) {... */\n      swap1\n      jump\t// out\n    tag_14:\n      mload(0x40)\n      dup1\n      0x60\n      add\n      0x40\n      mstore\n      dup1\n      and(0xffffffffffffffffffffffffffffffffffffffff, 0x00)\n      dup2\n      mstore\n      0x20\n      add\n      0x00\n      dup2\n      mstore\n      0x20\n      add\n      0x00\n      dup2\n      mstore\n      pop\n      swap1\n      jump\t// out\n    tag_17:\n      dataSize(sub_0)\n      dup1\n      dataOffset(sub_0)\n      dup4\n      codecopy\n      add\n      swap1\n      jump\t// out\n        /* \"#utility.yul\":7:133   */\n    tag_30:\n        /* \"#utility.yul\":44:51   */\n      0x00\n        /* \"#utility.yul\":84:126   */\n      0xffffffffffffffffffffffffffffffffffffffff\n        /* \"#utility.yul\":77:82   */\n      dup3\n        /* \"#utility.yul\":73:127   */\n      and\n        /* \"#utility.yul\":62:127   */\n      swap1\n      pop\n        /* \"#utility.yul\":7:133   */\n      swap2\n      swap1\n      pop\n      jump\t// out\n        /* \"#utility.yul\":139:235   */\n    tag_31:\n        /* \"#utility.yul\":176:183   */\n      0x00\n        /* \"#utility.yul\":205:229   */\n      tag_45\n        /* \"#utility.yul\":223:228   */\n      dup3\n        /* \"#utility.yul\":205:229   */\n      tag_30\n      jump\t// in\n    tag_45:\n        /* \"#utility.yul\":194:229   */\n      swap1\n      pop\n        /* \"#utility.yul\":139:235   */\n      swap2\n      swap1\n      pop\n      jump\t// out\n        /* \"#utility.yul\":241:349   */\n    tag_32:\n        /* \"#utility.yul\":318:342   */\n      tag_47\n        /* \"#utility.yul\":336:341   */\n      dup2\n        /* \"#utility.yul\":318:342   */\n      tag_31\n      jump\t// in\n    tag_47:\n        /* \"#utility.yul\":313:316   */\n      dup3\n        /* \"#utility.yul\":306:343   */\n      mstore\n        /* \"#utility.yul\":241:349   */\n      pop\n      pop\n      jump\t// out\n        /* \"#utility.yul\":355:432   */\n    tag_33:\n        /* \"#utility.yul\":392:399   */\n      0x00\n        /* \"#utility.yul\":421:426   */\n      dup2\n        /* \"#utility.yul\":410:426   */\n      swap1\n      pop\n        /* \"#utility.yul\":355:432   */\n      swap2\n      swap1\n      pop\n      jump\t// out\n        /* \"#utility.yul\":438:546   */\n    tag_34:\n        /* \"#utility.yul\":515:539   */\n      tag_50\n        /* \"#utility.yul\":533:538   */\n      dup2\n        /* \"#utility.yul\":515:539   */\n      tag_33\n      jump\t// in\n    tag_50:\n        /* \"#utility.yul\":510:513   */\n      dup3\n        /* \"#utility.yul\":503:540   */\n      mstore\n        /* \"#utility.yul\":438:546   */\n      pop\n      pop\n      jump\t// out\n        /* \"#utility.yul\":628:1315   */\n    tag_35:\n        /* \"#utility.yul\":777:781   */\n      0x60\n        /* \"#utility.yul\":772:775   */\n      dup3\n        /* \"#utility.yul\":768:782   */\n      add\n        /* \"#utility.yul\":864:868   */\n      0x00\n        /* \"#utility.yul\":857:862   */\n      dup3\n        /* \"#utility.yul\":853:869   */\n      add\n        /* \"#utility.yul\":847:870   */\n      mload\n        /* \"#utility.yul\":883:946   */\n      tag_52\n        /* \"#utility.yul\":940:944   */\n      0x00\n        /* \"#utility.yul\":935:938   */\n      dup6\n        /* \"#utility.yul\":931:945   */\n      add\n        /* \"#utility.yul\":917:929   */\n      dup3\n        /* \"#utility.yul\":883:946   */\n      tag_32\n      jump\t// in\n    tag_52:\n        /* \"#utility.yul\":792:956   */\n      pop\n        /* \"#utility.yul\":1041:1045   */\n      0x20\n        /* \"#utility.yul\":1034:1039   */\n      dup3\n        /* \"#utility.yul\":1030:1046   */\n      add\n        /* \"#utility.yul\":1024:1047   */\n      mload\n        /* \"#utility.yul\":1060:1123   */\n      tag_53\n        /* \"#utility.yul\":1117:1121   */\n      0x20\n        /* \"#utility.yul\":1112:1115   */\n      dup6\n        /* \"#utility.yul\":1108:1122   */\n      add\n        /* \"#utility.yul\":1094:1106   */\n      dup3\n        /* \"#utility.yul\":1060:1123   */\n      tag_34\n      jump\t// in\n    tag_53:\n        /* \"#utility.yul\":966:1133   */\n      pop\n        /* \"#utility.yul\":1216:1220   */\n      0x40\n        /* \"#utility.yul\":1209:1214   */\n      dup3\n        /* \"#utility.yul\":1205:1221   */\n      add\n        /* \"#utility.yul\":1199:1222   */\n      mload\n        /* \"#utility.yul\":1235:1298   */\n      tag_54\n        /* \"#utility.yul\":1292:1296   */\n      0x40\n        /* \"#utility.yul\":1287:1290   */\n      dup6\n        /* \"#utility.yul\":1283:1297   */\n      add\n        /* \"#utility.yul\":1269:1281   */\n      dup3\n        /* \"#utility.yul\":1235:1298   */\n      tag_34\n      jump\t// in\n    tag_54:\n        /* \"#utility.yul\":1143:1308   */\n      pop\n        /* \"#utility.yul\":746:1315   */\n      pop\n        /* \"#utility.yul\":628:1315   */\n      pop\n      pop\n      jump\t// out\n        /* \"#utility.yul\":1321:1647   */\n    tag_7:\n        /* \"#utility.yul\":1466:1470   */\n      0x00\n        /* \"#utility.yul\":1504:1506   */\n      0x60\n        /* \"#utility.yul\":1493:1502   */\n      dup3\n        /* \"#utility.yul\":1489:1507   */\n      add\n        /* \"#utility.yul\":1481:1507   */\n      swap1\n      pop\n        /* \"#utility.yul\":1517:1640   */\n      tag_56\n        /* \"#utility.yul\":1637:1638   */\n      0x00\n        /* \"#utility.yul\":1626:1635   */\n      dup4\n        /* \"#utility.yul\":1622:1639   */\n      add\n        /* \"#utility.yul\":1613:1619   */\n      dup5\n        /* \"#utility.yul\":1517:1640   */\n      tag_35\n      jump\t// in\n    tag_56:\n        /* \"#utility.yul\":1321:1647   */\n      swap3\n      swap2\n      pop\n      pop\n      jump\t// out\n        /* \"#utility.yul\":1653:1771   */\n    tag_36:\n        /* \"#utility.yul\":1740:1764   */\n      tag_58\n        /* \"#utility.yul\":1758:1763   */\n      dup2\n        /* \"#utility.yul\":1740:1764   */\n      tag_33\n      jump\t// in\n    tag_58:\n        /* \"#utility.yul\":1735:1738   */\n      dup3\n        /* \"#utility.yul\":1728:1765   */\n      mstore\n        /* \"#utility.yul\":1653:1771   */\n      pop\n      pop\n      jump\t// out\n        /* \"#utility.yul\":1777:1999   */\n    tag_12:\n        /* \"#utility.yul\":1870:1874   */\n      0x00\n        /* \"#utility.yul\":1908:1910   */\n      0x20\n        /* \"#utility.yul\":1897:1906   */\n      dup3\n        /* \"#utility.yul\":1893:1911   */\n      add\n        /* \"#utility.yul\":1885:1911   */\n      swap1\n      pop\n        /* \"#utility.yul\":1921:1992   */\n      tag_60\n        /* \"#utility.yul\":1989:1990   */\n      0x00\n        /* \"#utility.yul\":1978:1987   */\n      dup4\n        /* \"#utility.yul\":1974:1991   */\n      add\n        /* \"#utility.yul\":1965:1971   */\n      dup5\n        /* \"#utility.yul\":1921:1992   */\n      tag_36\n      jump\t// in\n    tag_60:\n        /* \"#utility.yul\":1777:1999   */\n      swap3\n      swap2\n      pop\n      pop\n      jump\t// out\n        /* \"#utility.yul\":2086:2203   */\n    tag_38:\n        /* \"#utility.yul\":2195:2196   */\n      0x00\n        /* \"#utility.yul\":2192:2193   */\n      0x00\n        /* \"#utility.yul\":2185:2197   */\n      revert\n        /* \"#utility.yul\":2332:2454   */\n    tag_40:\n        /* \"#utility.yul\":2405:2429   */\n      tag_65\n        /* \"#utility.yul\":2423:2428   */\n      dup2\n        /* \"#utility.yul\":2405:2429   */\n      tag_33\n      jump\t// in\n    tag_65:\n        /* \"#utility.yul\":2398:2403   */\n      dup2\n        /* \"#utility.yul\":2395:2430   */\n      eq\n        /* \"#utility.yul\":2385:2448   */\n      tag_66\n      jumpi\n        /* \"#utility.yul\":2444:2445   */\n      0x00\n        /* \"#utility.yul\":2441:2442   */\n      0x00\n        /* \"#utility.yul\":2434:2446   */\n      revert\n        /* \"#utility.yul\":2385:2448   */\n    tag_66:\n        /* \"#utility.yul\":2332:2454   */\n      pop\n      jump\t// out\n        /* \"#utility.yul\":2460:2603   */\n    tag_41:\n        /* \"#utility.yul\":2517:2522   */\n      0x00\n        /* \"#utility.yul\":2548:2554   */\n      dup2\n        /* \"#utility.yul\":2542:2555   */\n      mload\n        /* \"#utility.yul\":2533:2555   */\n      swap1\n      pop\n        /* \"#utility.yul\":2564:2597   */\n      tag_68\n        /* \"#utility.yul\":2591:2596   */\n      dup2\n        /* \"#utility.yul\":2564:2597   */\n      tag_40\n      jump\t// in\n    tag_68:\n        /* \"#utility.yul\":2460:2603   */\n      swap3\n      swap2\n      pop\n      pop\n      jump\t// out\n        /* \"#utility.yul\":2609:2960   */\n    tag_22:\n        /* \"#utility.yul\":2679:2685   */\n      0x00\n        /* \"#utility.yul\":2728:2730   */\n      0x20\n        /* \"#utility.yul\":2716:2725   */\n      dup3\n        /* \"#utility.yul\":2707:2714   */\n      dup5\n        /* \"#utility.yul\":2703:2726   */\n      sub\n        /* \"#utility.yul\":2699:2731   */\n      slt\n        /* \"#utility.yul\":2696:2815   */\n      iszero\n      tag_70\n      jumpi\n        /* \"#utility.yul\":2734:2813   */\n      tag_71\n      tag_38\n      jump\t// in\n    tag_71:\n        /* \"#utility.yul\":2696:2815   */\n    tag_70:\n        /* \"#utility.yul\":2854:2855   */\n      0x00\n        /* \"#utility.yul\":2879:2943   */\n      tag_72\n        /* \"#utility.yul\":2935:2942   */\n      dup5\n        /* \"#utility.yul\":2926:2932   */\n      dup3\n        /* \"#utility.yul\":2915:2924   */\n      dup6\n        /* \"#utility.yul\":2911:2933   */\n      add\n        /* \"#utility.yul\":2879:2943   */\n      tag_41\n      jump\t// in\n    tag_72:\n        /* \"#utility.yul\":2869:2943   */\n      swap2\n      pop\n        /* \"#utility.yul\":2825:2953   */\n      pop\n        /* \"#utility.yul\":2609:2960   */\n      swap3\n      swap2\n      pop\n      pop\n      jump\t// out\n    stop\n\n    sub_0: assembly {\n            /* \"contracts/DeleteContract.sol\":62:403  contract DeleteContract {... */\n          mstore(0x40, 0x80)\n            /* \"contracts/DeleteContract.sol\":113:115  10 */\n          0x0a\n            /* \"contracts/DeleteContract.sol\":93:115  uint public value = 10 */\n          0x00\n          sstore\n            /* \"contracts/DeleteContract.sol\":62:403  contract DeleteContract {... */\n          dataSize(sub_0)\n          dup1\n          dataOffset(sub_0)\n          0x00\n          codecopy\n          0x00\n          return\n        stop\n\n        sub_0: assembly {\n                /* \"contracts/DeleteContract.sol\":62:403  contract DeleteContract {... */\n              mstore(0x40, 0x80)\n              jumpi(tag_1, lt(calldatasize, 0x04))\n              shr(0xe0, calldataload(0x00))\n              dup1\n              0x12065fe0\n              eq\n              tag_3\n              jumpi\n              dup1\n              0x3fa4f245\n              eq\n              tag_4\n              jumpi\n              dup1\n              0x5a58cd4c\n              eq\n              tag_5\n              jumpi\n              jump(tag_2)\n            tag_1:\n              jumpi(tag_2, calldatasize)\n              stop\n            tag_2:\n              revert(0x00, 0x00)\n                /* \"contracts/DeleteContract.sol\":288:396  function getBalance() external view returns (uint balance){... */\n            tag_3:\n              callvalue\n              dup1\n              iszero\n              tag_8\n              jumpi\n              revert(0x00, 0x00)\n            tag_8:\n              pop\n              tag_9\n              tag_10\n              jump\t// in\n            tag_9:\n              mload(0x40)\n              tag_11\n              swap2\n              swap1\n              tag_12\n              jump\t// in\n            tag_11:\n              mload(0x40)\n              dup1\n              swap2\n              sub\n              swap1\n              return\n                /* \"contracts/DeleteContract.sol\":93:115  uint public value = 10 */\n            tag_4:\n              callvalue\n              dup1\n              iszero\n              tag_13\n              jumpi\n              revert(0x00, 0x00)\n            tag_13:\n              pop\n              tag_14\n              tag_15\n              jump\t// in\n            tag_14:\n              mload(0x40)\n              tag_16\n              swap2\n              swap1\n              tag_12\n              jump\t// in\n            tag_16:\n              mload(0x40)\n              dup1\n              swap2\n              sub\n              swap1\n              return\n                /* \"contracts/DeleteContract.sol\":193:280  function deleteContract() external {... */\n            tag_5:\n              callvalue\n              dup1\n              iszero\n              tag_17\n              jumpi\n              revert(0x00, 0x00)\n            tag_17:\n              pop\n              tag_18\n              tag_19\n              jump\t// in\n            tag_18:\n              stop\n                /* \"contracts/DeleteContract.sol\":288:396  function getBalance() external view returns (uint balance){... */\n            tag_10:\n                /* \"contracts/DeleteContract.sol\":333:345  uint balance */\n              0x00\n                /* \"contracts/DeleteContract.sol\":367:388  address(this).balance */\n              selfbalance\n                /* \"contracts/DeleteContract.sol\":357:388  balance = address(this).balance */\n              swap1\n              pop\n                /* \"contracts/DeleteContract.sol\":288:396  function getBalance() external view returns (uint balance){... */\n              swap1\n              jump\t// out\n                /* \"contracts/DeleteContract.sol\":93:115  uint public value = 10 */\n            tag_15:\n              sload(0x00)\n              dup2\n              jump\t// out\n                /* \"contracts/DeleteContract.sol\":193:280  function deleteContract() external {... */\n            tag_19:\n                /* \"contracts/DeleteContract.sol\":260:270  msg.sender */\n              caller\n                /* \"contracts/DeleteContract.sol\":239:272  selfdestruct(payable(msg.sender)) */\n              0xffffffffffffffffffffffffffffffffffffffff\n              and\n              selfdestruct\n                /* \"#utility.yul\":7:84   */\n            tag_22:\n                /* \"#utility.yul\":44:51   */\n              0x00\n                /* \"#utility.yul\":73:78   */\n              dup2\n                /* \"#utility.yul\":62:78   */\n              swap1\n              pop\n                /* \"#utility.yul\":7:84   */\n              swap2\n              swap1\n              pop\n              jump\t// out\n                /* \"#utility.yul\":90:208   */\n            tag_23:\n                /* \"#utility.yul\":177:201   */\n              tag_27\n                /* \"#utility.yul\":195:200   */\n              dup2\n                /* \"#utility.yul\":177:201   */\n              tag_22\n              jump\t// in\n            tag_27:\n                /* \"#utility.yul\":172:175   */\n              dup3\n                /* \"#utility.yul\":165:202   */\n              mstore\n                /* \"#utility.yul\":90:208   */\n              pop\n              pop\n              jump\t// out\n                /* \"#utility.yul\":214:436   */\n            tag_12:\n                /* \"#utility.yul\":307:311   */\n              0x00\n                /* \"#utility.yul\":345:347   */\n              0x20\n                /* \"#utility.yul\":334:343   */\n              dup3\n                /* \"#utility.yul\":330:348   */\n              add\n                /* \"#utility.yul\":322:348   */\n              swap1\n              pop\n                /* \"#utility.yul\":358:429   */\n              tag_29\n                /* \"#utility.yul\":426:427   */\n              0x00\n                /* \"#utility.yul\":415:424   */\n              dup4\n                /* \"#utility.yul\":411:428   */\n              add\n                /* \"#utility.yul\":402:408   */\n              dup5\n                /* \"#utility.yul\":358:429   */\n              tag_23\n              jump\t// in\n            tag_29:\n                /* \"#utility.yul\":214:436   */\n              swap3\n              swap2\n              pop\n              pop\n              jump\t// out\n\n            auxdata: 0xa2646970667358221220e2afa181be5a811c0276fcf1d14a5a7a14105c229dbb11cce752e6d4862c66a664736f6c634300081e0033\n        }\n    }\n\n    auxdata: 0xa2646970667358221220c1577612ecc772680fb937c77990d2bf07ddcf4d45e701a524e967b50c23d35a64736f6c634300081e0033\n}\n",
				"bytecode": {
					"linkReferences": {},
					"object": "60806040526104fc806100115f395ff3fe608060405260043610610028575f3560e01c806301725a0b1461002c57806312065fe01461004a575b5f5ffd5b610034610074565b60405161004191906102f6565b60405180910390f35b348015610055575f5ffd5b5061005e610217565b60405161006b919061031e565b60405180910390f35b61007c61021e565b5f3460405161008a90610252565b6040518091039082f09050801580156100a5573d5f5f3e3d5ffd5b5090505f60405180606001604052803073ffffffffffffffffffffffffffffffffffffffff1681526020018373ffffffffffffffffffffffffffffffffffffffff166312065fe06040518163ffffffff1660e01b8152600401602060405180830381865afa158015610119573d5f5f3e3d5ffd5b505050506040513d601f19601f8201168201806040525081019061013d9190610365565b81526020018373ffffffffffffffffffffffffffffffffffffffff16633fa4f2456040518163ffffffff1660e01b8152600401602060405180830381865afa15801561018b573d5f5f3e3d5ffd5b505050506040513d601f19601f820116820180604052508101906101af9190610365565b81525090508173ffffffffffffffffffffffffffffffffffffffff16635a58cd4c6040518163ffffffff1660e01b81526004015f604051808303815f87803b1580156101f9575f5ffd5b505af115801561020b573d5f5f3e3d5ffd5b50505050809250505090565b5f47905090565b60405180606001604052805f73ffffffffffffffffffffffffffffffffffffffff1681526020015f81526020015f81525090565b6101368061039183390190565b5f73ffffffffffffffffffffffffffffffffffffffff82169050919050565b5f6102888261025f565b9050919050565b6102988161027e565b82525050565b5f819050919050565b6102b08161029e565b82525050565b606082015f8201516102ca5f85018261028f565b5060208201516102dd60208501826102a7565b5060408201516102f060408501826102a7565b50505050565b5f6060820190506103095f8301846102b6565b92915050565b6103188161029e565b82525050565b5f6020820190506103315f83018461030f565b92915050565b5f5ffd5b6103448161029e565b811461034e575f5ffd5b50565b5f8151905061035f8161033b565b92915050565b5f6020828403121561037a57610379610337565b5b5f61038784828501610351565b9150509291505056fe6080604052600a5f55610121806100155f395ff3fe6080604052600436106032575f3560e01c806312065fe014603c5780633fa4f2451460615780635a58cd4c146086576038565b36603857005b5f5ffd5b3480156046575f5ffd5b50604d6099565b6040516058919060d4565b60405180910390f35b348015606b575f5ffd5b50607260a0565b604051607d919060d4565b60405180910390f35b3480156090575f5ffd5b50609760a5565b005b5f47905090565b5f5481565b3373ffffffffffffffffffffffffffffffffffffffff16ff5b5f819050919050565b60ce8160be565b82525050565b5f60208201905060e55f83018460c7565b9291505056fea2646970667358221220e2afa181be5a811c0276fcf1d14a5a7a14105c229dbb11cce752e6d4862c66a664736f6c634300081e0033a2646970667358221220c1577612ecc772680fb937c77990d2bf07ddcf4d45e701a524e967b50c23d35a64736f6c634300081e0033",
					"opcodes": "PUSH1 0x80 PUSH1 0x40 MSTORE PUSH2 0x4FC DUP1 PUSH2 0x11 PUSH0 CODECOPY PUSH0 RETURN INVALID PUSH1 0x80 PUSH1 0x40 MSTORE PUSH1 0x4 CALLDATASIZE LT PUSH2 0x28 JUMPI PUSH0 CALLDATALOAD PUSH1 0xE0 SHR DUP1 PUSH4 0x1725A0B EQ PUSH2 0x2C JUMPI DUP1 PUSH4 0x12065FE0 EQ PUSH2 0x4A JUMPI JUMPDEST PUSH0 PUSH0 REVERT JUMPDEST PUSH2 0x34 PUSH2 0x74 JUMP JUMPDEST PUSH1 0x40 MLOAD PUSH2 0x41 SWAP2 SWAP1 PUSH2 0x2F6 JUMP JUMPDEST PUSH1 0x40 MLOAD DUP1 SWAP2 SUB SWAP1 RETURN JUMPDEST CALLVALUE DUP1 ISZERO PUSH2 0x55 JUMPI PUSH0 PUSH0 REVERT JUMPDEST POP PUSH2 0x5E PUSH2 0x217 JUMP JUMPDEST PUSH1 0x40 MLOAD PUSH2 0x6B SWAP2 SWAP1 PUSH2 0x31E JUMP JUMPDEST PUSH1 0x40 MLOAD DUP1 SWAP2 SUB SWAP1 RETURN JUMPDEST PUSH2 0x7C PUSH2 0x21E JUMP JUMPDEST PUSH0 CALLVALUE PUSH1 0x40 MLOAD PUSH2 0x8A SWAP1 PUSH2 0x252 JUMP JUMPDEST PUSH1 0x40 MLOAD DUP1 SWAP2 SUB SWAP1 DUP3 CREATE SWAP1 POP DUP1 ISZERO DUP1 ISZERO PUSH2 0xA5 JUMPI RETURNDATASIZE PUSH0 PUSH0 RETURNDATACOPY RETURNDATASIZE PUSH0 REVERT JUMPDEST POP SWAP1 POP PUSH0 PUSH1 0x40 MLOAD DUP1 PUSH1 0x60 ADD PUSH1 0x40 MSTORE DUP1 ADDRESS PUSH20 0xFFFFFFFFFFFFFFFFFFFFFFFFFFFFFFFFFFFFFFFF AND DUP2 MSTORE PUSH1 0x20 ADD DUP4 PUSH20 0xFFFFFFFFFFFFFFFFFFFFFFFFFFFFFFFFFFFFFFFF AND PUSH4 0x12065FE0 PUSH1 0x40 MLOAD DUP2 PUSH4 0xFFFFFFFF AND PUSH1 0xE0 SHL DUP2 MSTORE PUSH1 0x4 ADD PUSH1 0x20 PUSH1 0x40 MLOAD DUP1 DUP4 SUB DUP2 DUP7 GAS STATICCALL ISZERO DUP1 ISZERO PUSH2 0x119 JUMPI RETURNDATASIZE PUSH0 PUSH0 RETURNDATACOPY RETURNDATASIZE PUSH0 REVERT JUMPDEST POP POP POP POP PUSH1 0x40 MLOAD RETURNDATASIZE PUSH1 0x1F NOT PUSH1 0x1F DUP3 ADD AND DUP3 ADD DUP1 PUSH1 0x40 MSTORE POP DUP2 ADD SWAP1 PUSH2 0x13D SWAP2 SWAP1 PUSH2 0x365 JUMP JUMPDEST DUP2 MSTORE PUSH1 0x20 ADD DUP4 PUSH20 0xFFFFFFFFFFFFFFFFFFFFFFFFFFFFFFFFFFFFFFFF AND PUSH4 0x3FA4F245 PUSH1 0x40 MLOAD DUP2 PUSH4 0xFFFFFFFF AND PUSH1 0xE0 SHL DUP2 MSTORE PUSH1 0x4 ADD PUSH1 0x20 PUSH1 0x40 MLOAD DUP1 DUP4 SUB DUP2 DUP7 GAS STATICCALL ISZERO DUP1 ISZERO PUSH2 0x18B JUMPI RETURNDATASIZE PUSH0 PUSH0 RETURNDATACOPY RETURNDATASIZE PUSH0 REVERT JUMPDEST POP POP POP POP PUSH1 0x40 MLOAD RETURNDATASIZE PUSH1 0x1F NOT PUSH1 0x1F DUP3 ADD AND DUP3 ADD DUP1 PUSH1 0x40 MSTORE POP DUP2 ADD SWAP1 PUSH2 0x1AF SWAP2 SWAP1 PUSH2 0x365 JUMP JUMPDEST DUP2 MSTORE POP SWAP1 POP DUP2 PUSH20 0xFFFFFFFFFFFFFFFFFFFFFFFFFFFFFFFFFFFFFFFF AND PUSH4 0x5A58CD4C PUSH1 0x40 MLOAD DUP2 PUSH4 0xFFFFFFFF AND PUSH1 0xE0 SHL DUP2 MSTORE PUSH1 0x4 ADD PUSH0 PUSH1 0x40 MLOAD DUP1 DUP4 SUB DUP2 PUSH0 DUP8 DUP1 EXTCODESIZE ISZERO DUP1 ISZERO PUSH2 0x1F9 JUMPI PUSH0 PUSH0 REVERT JUMPDEST POP GAS CALL ISZERO DUP1 ISZERO PUSH2 0x20B JUMPI RETURNDATASIZE PUSH0 PUSH0 RETURNDATACOPY RETURNDATASIZE PUSH0 REVERT JUMPDEST POP POP POP POP DUP1 SWAP3 POP POP POP SWAP1 JUMP JUMPDEST PUSH0 SELFBALANCE SWAP1 POP SWAP1 JUMP JUMPDEST PUSH1 0x40 MLOAD DUP1 PUSH1 0x60 ADD PUSH1 0x40 MSTORE DUP1 PUSH0 PUSH20 0xFFFFFFFFFFFFFFFFFFFFFFFFFFFFFFFFFFFFFFFF AND DUP2 MSTORE PUSH1 0x20 ADD PUSH0 DUP2 MSTORE PUSH1 0x20 ADD PUSH0 DUP2 MSTORE POP SWAP1 JUMP JUMPDEST PUSH2 0x136 DUP1 PUSH2 0x391 DUP4 CODECOPY ADD SWAP1 JUMP JUMPDEST PUSH0 PUSH20 0xFFFFFFFFFFFFFFFFFFFFFFFFFFFFFFFFFFFFFFFF DUP3 AND SWAP1 POP SWAP2 SWAP1 POP JUMP JUMPDEST PUSH0 PUSH2 0x288 DUP3 PUSH2 0x25F JUMP JUMPDEST SWAP1 POP SWAP2 SWAP1 POP JUMP JUMPDEST PUSH2 0x298 DUP2 PUSH2 0x27E JUMP JUMPDEST DUP3 MSTORE POP POP JUMP JUMPDEST PUSH0 DUP2 SWAP1 POP SWAP2 SWAP1 POP JUMP JUMPDEST PUSH2 0x2B0 DUP2 PUSH2 0x29E JUMP JUMPDEST DUP3 MSTORE POP POP JUMP JUMPDEST PUSH1 0x60 DUP3 ADD PUSH0 DUP3 ADD MLOAD PUSH2 0x2CA PUSH0 DUP6 ADD DUP3 PUSH2 0x28F JUMP JUMPDEST POP PUSH1 0x20 DUP3 ADD MLOAD PUSH2 0x2DD PUSH1 0x20 DUP6 ADD DUP3 PUSH2 0x2A7 JUMP JUMPDEST POP PUSH1 0x40 DUP3 ADD MLOAD PUSH2 0x2F0 PUSH1 0x40 DUP6 ADD DUP3 PUSH2 0x2A7 JUMP JUMPDEST POP POP POP POP JUMP JUMPDEST PUSH0 PUSH1 0x60 DUP3 ADD SWAP1 POP PUSH2 0x309 PUSH0 DUP4 ADD DUP5 PUSH2 0x2B6 JUMP JUMPDEST SWAP3 SWAP2 POP POP JUMP JUMPDEST PUSH2 0x318 DUP2 PUSH2 0x29E JUMP JUMPDEST DUP3 MSTORE POP POP JUMP JUMPDEST PUSH0 PUSH1 0x20 DUP3 ADD SWAP1 POP PUSH2 0x331 PUSH0 DUP4 ADD DUP5 PUSH2 0x30F JUMP JUMPDEST SWAP3 SWAP2 POP POP JUMP JUMPDEST PUSH0 PUSH0 REVERT JUMPDEST PUSH2 0x344 DUP2 PUSH2 0x29E JUMP JUMPDEST DUP2 EQ PUSH2 0x34E JUMPI PUSH0 PUSH0 REVERT JUMPDEST POP JUMP JUMPDEST PUSH0 DUP2 MLOAD SWAP1 POP PUSH2 0x35F DUP2 PUSH2 0x33B JUMP JUMPDEST SWAP3 SWAP2 POP POP JUMP JUMPDEST PUSH0 PUSH1 0x20 DUP3 DUP5 SUB SLT ISZERO PUSH2 0x37A JUMPI PUSH2 0x379 PUSH2 0x337 JUMP JUMPDEST JUMPDEST PUSH0 PUSH2 0x387 DUP5 DUP3 DUP6 ADD PUSH2 0x351 JUMP JUMPDEST SWAP2 POP POP SWAP3 SWAP2 POP POP JUMP INVALID PUSH1 0x80 PUSH1 0x40 MSTORE PUSH1 0xA PUSH0 SSTORE PUSH2 0x121 DUP1 PUSH2 0x15 PUSH0 CODECOPY PUSH0 RETURN INVALID PUSH1 0x80 PUSH1 0x40 MSTORE PUSH1 0x4 CALLDATASIZE LT PUSH1 0x32 JUMPI PUSH0 CALLDATALOAD PUSH1 0xE0 SHR DUP1 PUSH4 0x12065FE0 EQ PUSH1 0x3C JUMPI DUP1 PUSH4 0x3FA4F245 EQ PUSH1 0x61 JUMPI DUP1 PUSH4 0x5A58CD4C EQ PUSH1 0x86 JUMPI PUSH1 0x38 JUMP JUMPDEST CALLDATASIZE PUSH1 0x38 JUMPI STOP JUMPDEST PUSH0 PUSH0 REVERT JUMPDEST CALLVALUE DUP1 ISZERO PUSH1 0x46 JUMPI PUSH0 PUSH0 REVERT JUMPDEST POP PUSH1 0x4D PUSH1 0x99 JUMP JUMPDEST PUSH1 0x40 MLOAD PUSH1 0x58 SWAP2 SWAP1 PUSH1 0xD4 JUMP JUMPDEST PUSH1 0x40 MLOAD DUP1 SWAP2 SUB SWAP1 RETURN JUMPDEST CALLVALUE DUP1 ISZERO PUSH1 0x6B JUMPI PUSH0 PUSH0 REVERT JUMPDEST POP PUSH1 0x72 PUSH1 0xA0 JUMP JUMPDEST PUSH1 0x40 MLOAD PUSH1 0x7D SWAP2 SWAP1 PUSH1 0xD4 JUMP JUMPDEST PUSH1 0x40 MLOAD DUP1 SWAP2 SUB SWAP1 RETURN JUMPDEST CALLVALUE DUP1 ISZERO PUSH1 0x90 JUMPI PUSH0 PUSH0 REVERT JUMPDEST POP PUSH1 0x97 PUSH1 0xA5 JUMP JUMPDEST STOP JUMPDEST PUSH0 SELFBALANCE SWAP1 POP SWAP1 JUMP JUMPDEST PUSH0 SLOAD DUP2 JUMP JUMPDEST CALLER PUSH20 0xFFFFFFFFFFFFFFFFFFFFFFFFFFFFFFFFFFFFFFFF AND SELFDESTRUCT JUMPDEST PUSH0 DUP2 SWAP1 POP SWAP2 SWAP1 POP JUMP JUMPDEST PUSH1 0xCE DUP2 PUSH1 0xBE JUMP JUMPDEST DUP3 MSTORE POP POP JUMP JUMPDEST PUSH0 PUSH1 0x20 DUP3 ADD SWAP1 POP PUSH1 0xE5 PUSH0 DUP4 ADD DUP5 PUSH1 0xC7 JUMP JUMPDEST SWAP3 SWAP2 POP POP JUMP INVALID LOG2 PUSH5 0x6970667358 0x22 SLT KECCAK256 0xE2 0xAF LOG1 DUP2 0xBE GAS DUP2 SHR MUL PUSH23 0xFCF1D14A5A7A14105C229DBB11CCE752E6D4862C66A664 PUSH20 0x6F6C634300081E0033A2646970667358221220C1 JUMPI PUSH23 0x12ECC772680FB937C77990D2BF07DDCF4D45E701A524E9 PUSH8 0xB50C23D35A64736F PUSH13 0x634300081E0033000000000000 "
				},
				"gasEstimates": {
					"creation": {
						"codeDepositCost": "255200",
						"executionCost": "268",
						"totalCost": "255468"
					},
					"external": {
						"demo()": "infinite",
						"getBalance()": "334"
					}
				},
				"methodIdentifiers": {
					"demo()": "01725a0b",
					"getBalance()": "12065fe0"
				}
			},
			"storageLayout": {
				"storage": [],
				"types": null
			},
			"userdoc": {
				"kind": "user",
				"methods": {},
				"version": 1
			}
		}
	}
}