{
	"contracts/Timelock.sol": {
		"Timelock": {
			"abi": [
				{
					"inputs": [
						{
							"internalType": "uint256",
							"name": "delay_",
							"type": "uint256"
						}
					],
					"stateMutability": "nonpayable",
					"type": "constructor"
				},
				{
					"anonymous": false,
					"inputs": [
						{
							"indexed": true,
							"internalType": "bytes32",
							"name": "txHash",
							"type": "bytes32"
						},
						{
							"indexed": true,
							"internalType": "address",
							"name": "target",
							"type": "address"
						},
						{
							"indexed": false,
							"internalType": "uint256",
							"name": "value",
							"type": "uint256"
						},
						{
							"indexed": false,
							"internalType": "string",
							"name": "signature",
							"type": "string"
						},
						{
							"indexed": false,
							"internalType": "bytes",
							"name": "data",
							"type": "bytes"
						},
						{
							"indexed": false,
							"internalType": "uint256",
							"name": "executeTime",
							"type": "uint256"
						}
					],
					"name": "CancelTransaction",
					"type": "event"
				},
				{
					"anonymous": false,
					"inputs": [
						{
							"indexed": true,
							"internalType": "bytes32",
							"name": "txHash",
							"type": "bytes32"
						},
						{
							"indexed": true,
							"internalType": "address",
							"name": "target",
							"type": "address"
						},
						{
							"indexed": false,
							"internalType": "uint256",
							"name": "value",
							"type": "uint256"
						},
						{
							"indexed": false,
							"internalType": "string",
							"name": "signature",
							"type": "string"
						},
						{
							"indexed": false,
							"internalType": "bytes",
							"name": "data",
							"type": "bytes"
						},
						{
							"indexed": false,
							"internalType": "uint256",
							"name": "executeTime",
							"type": "uint256"
						}
					],
					"name": "ExecuteTransaction",
					"type": "event"
				},
				{
					"anonymous": false,
					"inputs": [
						{
							"indexed": true,
							"internalType": "address",
							"name": "newAdmin",
							"type": "address"
						}
					],
					"name": "NewAdmin",
					"type": "event"
				},
				{
					"anonymous": false,
					"inputs": [
						{
							"indexed": true,
							"internalType": "bytes32",
							"name": "txHash",
							"type": "bytes32"
						},
						{
							"indexed": true,
							"internalType": "address",
							"name": "target",
							"type": "address"
						},
						{
							"indexed": false,
							"internalType": "uint256",
							"name": "value",
							"type": "uint256"
						},
						{
							"indexed": false,
							"internalType": "string",
							"name": "signature",
							"type": "string"
						},
						{
							"indexed": false,
							"internalType": "bytes",
							"name": "data",
							"type": "bytes"
						},
						{
							"indexed": false,
							"internalType": "uint256",
							"name": "executeTime",
							"type": "uint256"
						}
					],
					"name": "QueueTransaction",
					"type": "event"
				},
				{
					"inputs": [],
					"name": "GRACE_PERIOD",
					"outputs": [
						{
							"internalType": "uint256",
							"name": "",
							"type": "uint256"
						}
					],
					"stateMutability": "view",
					"type": "function"
				},
				{
					"inputs": [],
					"name": "admin",
					"outputs": [
						{
							"internalType": "address",
							"name": "",
							"type": "address"
						}
					],
					"stateMutability": "view",
					"type": "function"
				},
				{
					"inputs": [
						{
							"internalType": "address",
							"name": "target",
							"type": "address"
						},
						{
							"internalType": "uint256",
							"name": "value",
							"type": "uint256"
						},
						{
							"internalType": "string",
							"name": "signature",
							"type": "string"
						},
						{
							"internalType": "bytes",
							"name": "data",
							"type": "bytes"
						},
						{
							"internalType": "uint256",
							"name": "executeTime",
							"type": "uint256"
						}
					],
					"name": "cancelTransaction",
					"outputs": [],
					"stateMutability": "nonpayable",
					"type": "function"
				},
				{
					"inputs": [
						{
							"internalType": "address",
							"name": "newAdmin",
							"type": "address"
						}
					],
					"name": "changeAdmin",
					"outputs": [],
					"stateMutability": "nonpayable",
					"type": "function"
				},
				{
					"inputs": [],
					"name": "delay",
					"outputs": [
						{
							"internalType": "uint256",
							"name": "",
							"type": "uint256"
						}
					],
					"stateMutability": "view",
					"type": "function"
				},
				{
					"inputs": [
						{
							"internalType": "address",
							"name": "target",
							"type": "address"
						},
						{
							"internalType": "uint256",
							"name": "value",
							"type": "uint256"
						},
						{
							"internalType": "string",
							"name": "signature",
							"type": "string"
						},
						{
							"internalType": "bytes",
							"name": "data",
							"type": "bytes"
						},
						{
							"internalType": "uint256",
							"name": "executeTime",
							"type": "uint256"
						}
					],
					"name": "executeTransaction",
					"outputs": [
						{
							"internalType": "bytes",
							"name": "",
							"type": "bytes"
						}
					],
					"stateMutability": "payable",
					"type": "function"
				},
				{
					"inputs": [],
					"name": "getBlockTimestamp",
					"outputs": [
						{
							"internalType": "uint256",
							"name": "",
							"type": "uint256"
						}
					],
					"stateMutability": "view",
					"type": "function"
				},
				{
					"inputs": [
						{
							"internalType": "address",
							"name": "target",
							"type": "address"
						},
						{
							"internalType": "uint256",
							"name": "value",
							"type": "uint256"
						},
						{
							"internalType": "string",
							"name": "signature",
							"type": "string"
						},
						{
							"internalType": "bytes",
							"name": "data",
							"type": "bytes"
						},
						{
							"internalType": "uint256",
							"name": "executeTime",
							"type": "uint256"
						}
					],
					"name": "getTxHash",
					"outputs": [
						{
							"internalType": "bytes32",
							"name": "",
							"type": "bytes32"
						}
					],
					"stateMutability": "pure",
					"type": "function"
				},
				{
					"inputs": [
						{
							"internalType": "address",
							"name": "target",
							"type": "address"
						},
						{
							"internalType": "uint256",
							"name": "value",
							"type": "uint256"
						},
						{
							"internalType": "string",
							"name": "signature",
							"type": "string"
						},
						{
							"internalType": "bytes",
							"name": "data",
							"type": "bytes"
						},
						{
							"internalType": "uint256",
							"name": "executeTime",
							"type": "uint256"
						}
					],
					"name": "queueTransaction",
					"outputs": [
						{
							"internalType": "bytes32",
							"name": "",
							"type": "bytes32"
						}
					],
					"stateMutability": "nonpayable",
					"type": "function"
				},
				{
					"inputs": [
						{
							"internalType": "bytes32",
							"name": "",
							"type": "bytes32"
						}
					],
					"name": "queuedTransactions",
					"outputs": [
						{
							"internalType": "bool",
							"name": "",
							"type": "bool"
						}
					],
					"stateMutability": "view",
					"type": "function"
				}
			],
			"devdoc": {
				"kind": "dev",
				"methods": {
					"cancelTransaction(address,uint256,string,bytes,uint256)": {
						"details": "取消特定交易。 要求：交易在时间锁队列中"
					},
					"changeAdmin(address)": {
						"details": "改变管理员地址，调用者必须是Timelock合约。"
					},
					"constructor": {
						"details": "构造函数，初始化交易锁定时间 （秒）和管理员地址"
					},
					"executeTransaction(address,uint256,string,bytes,uint256)": {
						"details": "执行特定交易。 要求： 1. 交易在时间锁队列中 2. 达到交易的执行时间 3. 交易没过期"
					},
					"getBlockTimestamp()": {
						"details": "获取当前区块链时间戳"
					},
					"getTxHash(address,uint256,string,bytes,uint256)": {
						"details": "将一堆东西拼成交易的标识符"
					},
					"queueTransaction(address,uint256,string,bytes,uint256)": {
						"details": "创建交易并添加到时间锁队列中。",
						"params": {
							"data": ": call data，里面是一些参数",
							"executeTime": ": 交易执行的区块链时间戳 要求：executeTime 大于 当前区块链时间戳+delay",
							"signature": ": 要调用的函数签名（function signature）",
							"target": ": 目标合约地址",
							"value": ": 发送eth数额"
						}
					}
				},
				"version": 1
			},
			"evm": {
				"assembly": "    /* \"contracts/Timelock.sol\":463:6336  contract Timelock{... */\n  mstore(0x40, 0x80)\n    /* \"contracts/Timelock.sol\":1968:2054  constructor(uint delay_){... */\n  callvalue\n  dup1\n  iszero\n  tag_1\n  jumpi\n  revert(0x00, 0x00)\ntag_1:\n  pop\n  mload(0x40)\n  sub(codesize, bytecodeSize)\n  dup1\n  bytecodeSize\n  dup4\n  codecopy\n  dup2\n  dup2\n  add\n  0x40\n  mstore\n  dup2\n  add\n  swap1\n  tag_2\n  swap2\n  swap1\n  tag_3\n  jump\t// in\ntag_2:\n    /* \"contracts/Timelock.sol\":2011:2017  delay_ */\n  dup1\n    /* \"contracts/Timelock.sol\":2003:2008  delay */\n  0x01\n    /* \"contracts/Timelock.sol\":2003:2017  delay = delay_ */\n  dup2\n  swap1\n  sstore\n  pop\n    /* \"contracts/Timelock.sol\":2036:2046  msg.sender */\n  caller\n    /* \"contracts/Timelock.sol\":2028:2033  admin */\n  0x00\n  0x00\n    /* \"contracts/Timelock.sol\":2028:2046  admin = msg.sender */\n  0x0100\n  exp\n  dup2\n  sload\n  dup2\n  0xffffffffffffffffffffffffffffffffffffffff\n  mul\n  not\n  and\n  swap1\n  dup4\n  0xffffffffffffffffffffffffffffffffffffffff\n  and\n  mul\n  or\n  swap1\n  sstore\n  pop\n    /* \"contracts/Timelock.sol\":1968:2054  constructor(uint delay_){... */\n  pop\n    /* \"contracts/Timelock.sol\":463:6336  contract Timelock{... */\n  jump(tag_6)\n    /* \"#utility.yul\":88:205   */\ntag_8:\n    /* \"#utility.yul\":197:198   */\n  0x00\n    /* \"#utility.yul\":194:195   */\n  0x00\n    /* \"#utility.yul\":187:199   */\n  revert\n    /* \"#utility.yul\":334:411   */\ntag_10:\n    /* \"#utility.yul\":371:378   */\n  0x00\n    /* \"#utility.yul\":400:405   */\n  dup2\n    /* \"#utility.yul\":389:405   */\n  swap1\n  pop\n    /* \"#utility.yul\":334:411   */\n  swap2\n  swap1\n  pop\n  jump\t// out\n    /* \"#utility.yul\":417:539   */\ntag_11:\n    /* \"#utility.yul\":490:514   */\n  tag_19\n    /* \"#utility.yul\":508:513   */\n  dup2\n    /* \"#utility.yul\":490:514   */\n  tag_10\n  jump\t// in\ntag_19:\n    /* \"#utility.yul\":483:488   */\n  dup2\n    /* \"#utility.yul\":480:515   */\n  eq\n    /* \"#utility.yul\":470:533   */\n  tag_20\n  jumpi\n    /* \"#utility.yul\":529:530   */\n  0x00\n    /* \"#utility.yul\":526:527   */\n  0x00\n    /* \"#utility.yul\":519:531   */\n  revert\n    /* \"#utility.yul\":470:533   */\ntag_20:\n    /* \"#utility.yul\":417:539   */\n  pop\n  jump\t// out\n    /* \"#utility.yul\":545:688   */\ntag_12:\n    /* \"#utility.yul\":602:607   */\n  0x00\n    /* \"#utility.yul\":633:639   */\n  dup2\n    /* \"#utility.yul\":627:640   */\n  mload\n    /* \"#utility.yul\":618:640   */\n  swap1\n  pop\n    /* \"#utility.yul\":649:682   */\n  tag_22\n    /* \"#utility.yul\":676:681   */\n  dup2\n    /* \"#utility.yul\":649:682   */\n  tag_11\n  jump\t// in\ntag_22:\n    /* \"#utility.yul\":545:688   */\n  swap3\n  swap2\n  pop\n  pop\n  jump\t// out\n    /* \"#utility.yul\":694:1045   */\ntag_3:\n    /* \"#utility.yul\":764:770   */\n  0x00\n    /* \"#utility.yul\":813:815   */\n  0x20\n    /* \"#utility.yul\":801:810   */\n  dup3\n    /* \"#utility.yul\":792:799   */\n  dup5\n    /* \"#utility.yul\":788:811   */\n  sub\n    /* \"#utility.yul\":784:816   */\n  slt\n    /* \"#utility.yul\":781:900   */\n  iszero\n  tag_24\n  jumpi\n    /* \"#utility.yul\":819:898   */\n  tag_25\n  tag_8\n  jump\t// in\ntag_25:\n    /* \"#utility.yul\":781:900   */\ntag_24:\n    /* \"#utility.yul\":939:940   */\n  0x00\n    /* \"#utility.yul\":964:1028   */\n  tag_26\n    /* \"#utility.yul\":1020:1027   */\n  dup5\n    /* \"#utility.yul\":1011:1017   */\n  dup3\n    /* \"#utility.yul\":1000:1009   */\n  dup6\n    /* \"#utility.yul\":996:1018   */\n  add\n    /* \"#utility.yul\":964:1028   */\n  tag_12\n  jump\t// in\ntag_26:\n    /* \"#utility.yul\":954:1028   */\n  swap2\n  pop\n    /* \"#utility.yul\":910:1038   */\n  pop\n    /* \"#utility.yul\":694:1045   */\n  swap3\n  swap2\n  pop\n  pop\n  jump\t// out\n    /* \"contracts/Timelock.sol\":463:6336  contract Timelock{... */\ntag_6:\n  dataSize(sub_0)\n  dup1\n  dataOffset(sub_0)\n  0x00\n  codecopy\n  0x00\n  return\nstop\n\nsub_0: assembly {\n        /* \"contracts/Timelock.sol\":463:6336  contract Timelock{... */\n      mstore(0x40, 0x80)\n      jumpi(tag_1, lt(calldatasize, 0x04))\n      shr(0xe0, calldataload(0x00))\n      dup1\n      0x796b89b9\n      gt\n      tag_12\n      jumpi\n      dup1\n      0x796b89b9\n      eq\n      tag_7\n      jumpi\n      dup1\n      0x8f283970\n      eq\n      tag_8\n      jumpi\n      dup1\n      0xc1a287e2\n      eq\n      tag_9\n      jumpi\n      dup1\n      0xf2b06537\n      eq\n      tag_10\n      jumpi\n      dup1\n      0xf851a440\n      eq\n      tag_11\n      jumpi\n      jump(tag_1)\n    tag_12:\n      dup1\n      0x04a71576\n      eq\n      tag_2\n      jumpi\n      dup1\n      0x0825f38f\n      eq\n      tag_3\n      jumpi\n      dup1\n      0x3a66f901\n      eq\n      tag_4\n      jumpi\n      dup1\n      0x591fcdfe\n      eq\n      tag_5\n      jumpi\n      dup1\n      0x6a42b8f8\n      eq\n      tag_6\n      jumpi\n    tag_1:\n      revert(0x00, 0x00)\n        /* \"contracts/Timelock.sol\":6048:6331  function getTxHash(... */\n    tag_2:\n      callvalue\n      dup1\n      iszero\n      tag_13\n      jumpi\n      revert(0x00, 0x00)\n    tag_13:\n      pop\n      tag_14\n      0x04\n      dup1\n      calldatasize\n      sub\n      dup2\n      add\n      swap1\n      tag_15\n      swap2\n      swap1\n      tag_16\n      jump\t// in\n    tag_15:\n      tag_17\n      jump\t// in\n    tag_14:\n      mload(0x40)\n      tag_18\n      swap2\n      swap1\n      tag_19\n      jump\t// in\n    tag_18:\n      mload(0x40)\n      dup1\n      swap2\n      sub\n      swap1\n      return\n        /* \"contracts/Timelock.sol\":4352:5797  function executeTransaction(address target, uint256 value, string memory signature, bytes memory data, uint256 executeTime) public payable onlyOwner returns (bytes memory) {... */\n    tag_3:\n      tag_20\n      0x04\n      dup1\n      calldatasize\n      sub\n      dup2\n      add\n      swap1\n      tag_21\n      swap2\n      swap1\n      tag_16\n      jump\t// in\n    tag_21:\n      tag_22\n      jump\t// in\n    tag_20:\n      mload(0x40)\n      tag_23\n      swap2\n      swap1\n      tag_24\n      jump\t// in\n    tag_23:\n      mload(0x40)\n      dup1\n      swap2\n      sub\n      swap1\n      return\n        /* \"contracts/Timelock.sol\":2715:3419  function queueTransaction(address target, uint256 value, string memory signature, bytes memory data, uint256 executeTime) public onlyOwner returns (bytes32) {... */\n    tag_4:\n      callvalue\n      dup1\n      iszero\n      tag_25\n      jumpi\n      revert(0x00, 0x00)\n    tag_25:\n      pop\n      tag_26\n      0x04\n      dup1\n      calldatasize\n      sub\n      dup2\n      add\n      swap1\n      tag_27\n      swap2\n      swap1\n      tag_16\n      jump\t// in\n    tag_27:\n      tag_28\n      jump\t// in\n    tag_26:\n      mload(0x40)\n      tag_29\n      swap2\n      swap1\n      tag_19\n      jump\t// in\n    tag_29:\n      mload(0x40)\n      dup1\n      swap2\n      sub\n      swap1\n      return\n        /* \"contracts/Timelock.sol\":3536:4159  function cancelTransaction(address target, uint256 value, string memory signature, bytes memory data, uint256 executeTime) public onlyOwner{... */\n    tag_5:\n      callvalue\n      dup1\n      iszero\n      tag_30\n      jumpi\n      revert(0x00, 0x00)\n    tag_30:\n      pop\n      tag_31\n      0x04\n      dup1\n      calldatasize\n      sub\n      dup2\n      add\n      swap1\n      tag_32\n      swap2\n      swap1\n      tag_16\n      jump\t// in\n    tag_32:\n      tag_33\n      jump\t// in\n    tag_31:\n      stop\n        /* \"contracts/Timelock.sol\":1218:1235  uint public delay */\n    tag_6:\n      callvalue\n      dup1\n      iszero\n      tag_34\n      jumpi\n      revert(0x00, 0x00)\n    tag_34:\n      pop\n      tag_35\n      tag_36\n      jump\t// in\n    tag_35:\n      mload(0x40)\n      tag_37\n      swap2\n      swap1\n      tag_38\n      jump\t// in\n    tag_37:\n      mload(0x40)\n      dup1\n      swap2\n      sub\n      swap1\n      return\n        /* \"contracts/Timelock.sol\":5870:5967  function getBlockTimestamp() public view returns (uint) {... */\n    tag_7:\n      callvalue\n      dup1\n      iszero\n      tag_39\n      jumpi\n      revert(0x00, 0x00)\n    tag_39:\n      pop\n      tag_40\n      tag_41\n      jump\t// in\n    tag_40:\n      mload(0x40)\n      tag_42\n      swap2\n      swap1\n      tag_38\n      jump\t// in\n    tag_42:\n      mload(0x40)\n      dup1\n      swap2\n      sub\n      swap1\n      return\n        /* \"contracts/Timelock.sol\":2155:2283  function changeAdmin(address newAdmin) public onlyTimelock{... */\n    tag_8:\n      callvalue\n      dup1\n      iszero\n      tag_43\n      jumpi\n      revert(0x00, 0x00)\n    tag_43:\n      pop\n      tag_44\n      0x04\n      dup1\n      calldatasize\n      sub\n      dup2\n      add\n      swap1\n      tag_45\n      swap2\n      swap1\n      tag_46\n      jump\t// in\n    tag_45:\n      tag_47\n      jump\t// in\n    tag_44:\n      stop\n        /* \"contracts/Timelock.sol\":1144:1187  uint public constant  GRACE_PERIOD = 7 days */\n    tag_9:\n      callvalue\n      dup1\n      iszero\n      tag_48\n      jumpi\n      revert(0x00, 0x00)\n    tag_48:\n      pop\n      tag_49\n      tag_50\n      jump\t// in\n    tag_49:\n      mload(0x40)\n      tag_51\n      swap2\n      swap1\n      tag_38\n      jump\t// in\n    tag_51:\n      mload(0x40)\n      dup1\n      swap2\n      sub\n      swap1\n      return\n        /* \"contracts/Timelock.sol\":1274:1325  mapping (bytes32 => bool) public queuedTransactions */\n    tag_10:\n      callvalue\n      dup1\n      iszero\n      tag_52\n      jumpi\n      revert(0x00, 0x00)\n    tag_52:\n      pop\n      tag_53\n      0x04\n      dup1\n      calldatasize\n      sub\n      dup2\n      add\n      swap1\n      tag_54\n      swap2\n      swap1\n      tag_55\n      jump\t// in\n    tag_54:\n      tag_56\n      jump\t// in\n    tag_53:\n      mload(0x40)\n      tag_57\n      swap2\n      swap1\n      tag_58\n      jump\t// in\n    tag_57:\n      mload(0x40)\n      dup1\n      swap2\n      sub\n      swap1\n      return\n        /* \"contracts/Timelock.sol\":1096:1116  address public admin */\n    tag_11:\n      callvalue\n      dup1\n      iszero\n      tag_59\n      jumpi\n      revert(0x00, 0x00)\n    tag_59:\n      pop\n      tag_60\n      tag_61\n      jump\t// in\n    tag_60:\n      mload(0x40)\n      tag_62\n      swap2\n      swap1\n      tag_63\n      jump\t// in\n    tag_62:\n      mload(0x40)\n      dup1\n      swap2\n      sub\n      swap1\n      return\n        /* \"contracts/Timelock.sol\":6048:6331  function getTxHash(... */\n    tag_17:\n        /* \"contracts/Timelock.sol\":6230:6237  bytes32 */\n      0x00\n        /* \"contracts/Timelock.sol\":6278:6284  target */\n      dup6\n        /* \"contracts/Timelock.sol\":6286:6291  value */\n      dup6\n        /* \"contracts/Timelock.sol\":6293:6302  signature */\n      dup6\n        /* \"contracts/Timelock.sol\":6304:6308  data */\n      dup6\n        /* \"contracts/Timelock.sol\":6310:6321  executeTime */\n      dup6\n        /* \"contracts/Timelock.sol\":6267:6322  abi.encode(target, value, signature, data, executeTime) */\n      add(0x20, mload(0x40))\n      tag_65\n      swap6\n      swap5\n      swap4\n      swap3\n      swap2\n      swap1\n      tag_66\n      jump\t// in\n    tag_65:\n      mload(0x40)\n      0x20\n      dup2\n      dup4\n      sub\n      sub\n      dup2\n      mstore\n      swap1\n      0x40\n      mstore\n        /* \"contracts/Timelock.sol\":6257:6323  keccak256(abi.encode(target, value, signature, data, executeTime)) */\n      dup1\n      mload\n      swap1\n      0x20\n      add\n      keccak256\n        /* \"contracts/Timelock.sol\":6250:6323  return keccak256(abi.encode(target, value, signature, data, executeTime)) */\n      swap1\n      pop\n        /* \"contracts/Timelock.sol\":6048:6331  function getTxHash(... */\n      swap6\n      swap5\n      pop\n      pop\n      pop\n      pop\n      pop\n      jump\t// out\n        /* \"contracts/Timelock.sol\":4352:5797  function executeTransaction(address target, uint256 value, string memory signature, bytes memory data, uint256 executeTime) public payable onlyOwner returns (bytes memory) {... */\n    tag_22:\n        /* \"contracts/Timelock.sol\":4510:4522  bytes memory */\n      0x60\n        /* \"contracts/Timelock.sol\":1562:1567  admin */\n      0x00\n      0x00\n      swap1\n      sload\n      swap1\n      0x0100\n      exp\n      swap1\n      div\n      0xffffffffffffffffffffffffffffffffffffffff\n      and\n        /* \"contracts/Timelock.sol\":1548:1567  msg.sender == admin */\n      0xffffffffffffffffffffffffffffffffffffffff\n      and\n        /* \"contracts/Timelock.sol\":1548:1558  msg.sender */\n      caller\n        /* \"contracts/Timelock.sol\":1548:1567  msg.sender == admin */\n      0xffffffffffffffffffffffffffffffffffffffff\n      and\n      eq\n        /* \"contracts/Timelock.sol\":1540:1598  require(msg.sender == admin, \"Timelock: Caller not admin\") */\n      tag_68\n      jumpi\n      mload(0x40)\n      0x08c379a000000000000000000000000000000000000000000000000000000000\n      dup2\n      mstore\n      0x04\n      add\n      tag_69\n      swap1\n      tag_70\n      jump\t// in\n    tag_69:\n      mload(0x40)\n      dup1\n      swap2\n      sub\n      swap1\n      revert\n    tag_68:\n        /* \"contracts/Timelock.sol\":4536:4550  bytes32 txHash */\n      0x00\n        /* \"contracts/Timelock.sol\":4553:4607  getTxHash(target, value, signature, data, executeTime) */\n      tag_72\n        /* \"contracts/Timelock.sol\":4563:4569  target */\n      dup8\n        /* \"contracts/Timelock.sol\":4571:4576  value */\n      dup8\n        /* \"contracts/Timelock.sol\":4578:4587  signature */\n      dup8\n        /* \"contracts/Timelock.sol\":4589:4593  data */\n      dup8\n        /* \"contracts/Timelock.sol\":4595:4606  executeTime */\n      dup8\n        /* \"contracts/Timelock.sol\":4553:4562  getTxHash */\n      tag_17\n        /* \"contracts/Timelock.sol\":4553:4607  getTxHash(target, value, signature, data, executeTime) */\n      jump\t// in\n    tag_72:\n        /* \"contracts/Timelock.sol\":4536:4607  bytes32 txHash = getTxHash(target, value, signature, data, executeTime) */\n      swap1\n      pop\n        /* \"contracts/Timelock.sol\":4683:4701  queuedTransactions */\n      0x02\n        /* \"contracts/Timelock.sol\":4683:4709  queuedTransactions[txHash] */\n      0x00\n        /* \"contracts/Timelock.sol\":4702:4708  txHash */\n      dup3\n        /* \"contracts/Timelock.sol\":4683:4709  queuedTransactions[txHash] */\n      dup2\n      mstore\n      0x20\n      add\n      swap1\n      dup2\n      mstore\n      0x20\n      add\n      0x00\n      keccak256\n      0x00\n      swap1\n      sload\n      swap1\n      0x0100\n      exp\n      swap1\n      div\n      0xff\n      and\n        /* \"contracts/Timelock.sol\":4675:4775  require(queuedTransactions[txHash], \"Timelock::executeTransaction: Transaction hasn't been queued.\") */\n      tag_73\n      jumpi\n      mload(0x40)\n      0x08c379a000000000000000000000000000000000000000000000000000000000\n      dup2\n      mstore\n      0x04\n      add\n      tag_74\n      swap1\n      tag_75\n      jump\t// in\n    tag_74:\n      mload(0x40)\n      dup1\n      swap2\n      sub\n      swap1\n      revert\n    tag_73:\n        /* \"contracts/Timelock.sol\":4868:4879  executeTime */\n      dup3\n        /* \"contracts/Timelock.sol\":4845:4864  getBlockTimestamp() */\n      tag_76\n        /* \"contracts/Timelock.sol\":4845:4862  getBlockTimestamp */\n      tag_41\n        /* \"contracts/Timelock.sol\":4845:4864  getBlockTimestamp() */\n      jump\t// in\n    tag_76:\n        /* \"contracts/Timelock.sol\":4845:4879  getBlockTimestamp() >= executeTime */\n      lt\n      iszero\n        /* \"contracts/Timelock.sol\":4837:4953  require(getBlockTimestamp() >= executeTime, \"Timelock::executeTransaction: Transaction hasn't surpassed time lock.\") */\n      tag_77\n      jumpi\n      mload(0x40)\n      0x08c379a000000000000000000000000000000000000000000000000000000000\n      dup2\n      mstore\n      0x04\n      add\n      tag_78\n      swap1\n      tag_79\n      jump\t// in\n    tag_78:\n      mload(0x40)\n      dup1\n      swap2\n      sub\n      swap1\n      revert\n    tag_77:\n        /* \"contracts/Timelock.sol\":1181:1187  7 days */\n      0x093a80\n        /* \"contracts/Timelock.sol\":5034:5045  executeTime */\n      dup4\n        /* \"contracts/Timelock.sol\":5034:5060  executeTime + GRACE_PERIOD */\n      tag_80\n      swap2\n      swap1\n      tag_81\n      jump\t// in\n    tag_80:\n        /* \"contracts/Timelock.sol\":5011:5030  getBlockTimestamp() */\n      tag_82\n        /* \"contracts/Timelock.sol\":5011:5028  getBlockTimestamp */\n      tag_41\n        /* \"contracts/Timelock.sol\":5011:5030  getBlockTimestamp() */\n      jump\t// in\n    tag_82:\n        /* \"contracts/Timelock.sol\":5011:5060  getBlockTimestamp() <= executeTime + GRACE_PERIOD */\n      gt\n      iszero\n        /* \"contracts/Timelock.sol\":5003:5116  require(getBlockTimestamp() <= executeTime + GRACE_PERIOD, \"Timelock::executeTransaction: Transaction is stale.\") */\n      tag_83\n      jumpi\n      mload(0x40)\n      0x08c379a000000000000000000000000000000000000000000000000000000000\n      dup2\n      mstore\n      0x04\n      add\n      tag_84\n      swap1\n      tag_85\n      jump\t// in\n    tag_84:\n      mload(0x40)\n      dup1\n      swap2\n      sub\n      swap1\n      revert\n    tag_83:\n        /* \"contracts/Timelock.sol\":5192:5197  false */\n      0x00\n        /* \"contracts/Timelock.sol\":5163:5181  queuedTransactions */\n      0x02\n        /* \"contracts/Timelock.sol\":5163:5189  queuedTransactions[txHash] */\n      0x00\n        /* \"contracts/Timelock.sol\":5182:5188  txHash */\n      dup4\n        /* \"contracts/Timelock.sol\":5163:5189  queuedTransactions[txHash] */\n      dup2\n      mstore\n      0x20\n      add\n      swap1\n      dup2\n      mstore\n      0x20\n      add\n      0x00\n      keccak256\n      0x00\n        /* \"contracts/Timelock.sol\":5163:5197  queuedTransactions[txHash] = false */\n      0x0100\n      exp\n      dup2\n      sload\n      dup2\n      0xff\n      mul\n      not\n      and\n      swap1\n      dup4\n      iszero\n      iszero\n      mul\n      or\n      swap1\n      sstore\n      pop\n        /* \"contracts/Timelock.sol\":5240:5261  bytes memory callData */\n      0x60\n        /* \"contracts/Timelock.sol\":5303:5304  0 */\n      0x00\n        /* \"contracts/Timelock.sol\":5282:5291  signature */\n      dup7\n        /* \"contracts/Timelock.sol\":5276:5299  bytes(signature).length */\n      mload\n        /* \"contracts/Timelock.sol\":5276:5304  bytes(signature).length == 0 */\n      sub\n        /* \"contracts/Timelock.sol\":5273:5451  if(bytes(signature).length == 0){... */\n      tag_86\n      jumpi\n        /* \"contracts/Timelock.sol\":5331:5335  data */\n      dup5\n        /* \"contracts/Timelock.sol\":5320:5335  callData = data */\n      swap1\n      pop\n        /* \"contracts/Timelock.sol\":5273:5451  if(bytes(signature).length == 0){... */\n      jump(tag_87)\n    tag_86:\n        /* \"contracts/Timelock.sol\":5420:5429  signature */\n      dup6\n        /* \"contracts/Timelock.sol\":5404:5431  keccak256(bytes(signature)) */\n      dup1\n      mload\n      swap1\n      0x20\n      add\n      keccak256\n        /* \"contracts/Timelock.sol\":5433:5437  data */\n      dup6\n        /* \"contracts/Timelock.sol\":5380:5438  abi.encodePacked(bytes4(keccak256(bytes(signature))),data) */\n      add(0x20, mload(0x40))\n      tag_88\n      swap3\n      swap2\n      swap1\n      tag_89\n      jump\t// in\n    tag_88:\n      mload(0x40)\n      0x20\n      dup2\n      dup4\n      sub\n      sub\n      dup2\n      mstore\n      swap1\n      0x40\n      mstore\n        /* \"contracts/Timelock.sol\":5369:5438  callData = abi.encodePacked(bytes4(keccak256(bytes(signature))),data) */\n      swap1\n      pop\n        /* \"contracts/Timelock.sol\":5273:5451  if(bytes(signature).length == 0){... */\n    tag_87:\n        /* \"contracts/Timelock.sol\":5498:5510  bool success */\n      0x00\n        /* \"contracts/Timelock.sol\":5512:5535  bytes memory returnData */\n      0x00\n        /* \"contracts/Timelock.sol\":5539:5545  target */\n      dup10\n        /* \"contracts/Timelock.sol\":5539:5550  target.call */\n      0xffffffffffffffffffffffffffffffffffffffff\n      and\n        /* \"contracts/Timelock.sol\":5558:5563  value */\n      dup10\n        /* \"contracts/Timelock.sol\":5565:5573  callData */\n      dup5\n        /* \"contracts/Timelock.sol\":5539:5574  target.call{value: value}(callData) */\n      mload(0x40)\n      tag_90\n      swap2\n      swap1\n      tag_91\n      jump\t// in\n    tag_90:\n      0x00\n      mload(0x40)\n      dup1\n      dup4\n      sub\n      dup2\n      dup6\n      dup8\n      gas\n      call\n      swap3\n      pop\n      pop\n      pop\n      returndatasize\n      dup1\n      0x00\n      dup2\n      eq\n      tag_94\n      jumpi\n      mload(0x40)\n      swap2\n      pop\n      and(add(returndatasize, 0x3f), not(0x1f))\n      dup3\n      add\n      0x40\n      mstore\n      returndatasize\n      dup3\n      mstore\n      returndatasize\n      0x00\n      0x20\n      dup5\n      add\n      returndatacopy\n      jump(tag_93)\n    tag_94:\n      0x60\n      swap2\n      pop\n    tag_93:\n      pop\n        /* \"contracts/Timelock.sol\":5497:5574  (bool success, bytes memory returnData) = target.call{value: value}(callData) */\n      swap2\n      pop\n      swap2\n      pop\n        /* \"contracts/Timelock.sol\":5594:5601  success */\n      dup2\n        /* \"contracts/Timelock.sol\":5586:5667  require(success, \"Timelock::executeTransaction: Transaction execution reverted.\") */\n      tag_95\n      jumpi\n      mload(0x40)\n      0x08c379a000000000000000000000000000000000000000000000000000000000\n      dup2\n      mstore\n      0x04\n      add\n      tag_96\n      swap1\n      tag_97\n      jump\t// in\n    tag_96:\n      mload(0x40)\n      dup1\n      swap2\n      sub\n      swap1\n      revert\n    tag_95:\n        /* \"contracts/Timelock.sol\":5713:5719  target */\n      dup10\n        /* \"contracts/Timelock.sol\":5686:5757  ExecuteTransaction(txHash, target, value, signature, data, executeTime) */\n      0xffffffffffffffffffffffffffffffffffffffff\n      and\n        /* \"contracts/Timelock.sol\":5705:5711  txHash */\n      dup5\n        /* \"contracts/Timelock.sol\":5686:5757  ExecuteTransaction(txHash, target, value, signature, data, executeTime) */\n      0xa560e3198060a2f10670c1ec5b403077ea6ae93ca8de1c32b451dc1a943cd6e7\n        /* \"contracts/Timelock.sol\":5721:5726  value */\n      dup12\n        /* \"contracts/Timelock.sol\":5728:5737  signature */\n      dup12\n        /* \"contracts/Timelock.sol\":5739:5743  data */\n      dup12\n        /* \"contracts/Timelock.sol\":5745:5756  executeTime */\n      dup12\n        /* \"contracts/Timelock.sol\":5686:5757  ExecuteTransaction(txHash, target, value, signature, data, executeTime) */\n      mload(0x40)\n      tag_98\n      swap5\n      swap4\n      swap3\n      swap2\n      swap1\n      tag_99\n      jump\t// in\n    tag_98:\n      mload(0x40)\n      dup1\n      swap2\n      sub\n      swap1\n      log3\n        /* \"contracts/Timelock.sol\":5776:5786  returnData */\n      dup1\n        /* \"contracts/Timelock.sol\":5769:5786  return returnData */\n      swap5\n      pop\n      pop\n      pop\n      pop\n      pop\n        /* \"contracts/Timelock.sol\":4352:5797  function executeTransaction(address target, uint256 value, string memory signature, bytes memory data, uint256 executeTime) public payable onlyOwner returns (bytes memory) {... */\n      swap6\n      swap5\n      pop\n      pop\n      pop\n      pop\n      pop\n      jump\t// out\n        /* \"contracts/Timelock.sol\":2715:3419  function queueTransaction(address target, uint256 value, string memory signature, bytes memory data, uint256 executeTime) public onlyOwner returns (bytes32) {... */\n    tag_28:\n        /* \"contracts/Timelock.sol\":2863:2870  bytes32 */\n      0x00\n        /* \"contracts/Timelock.sol\":1562:1567  admin */\n      0x00\n      0x00\n      swap1\n      sload\n      swap1\n      0x0100\n      exp\n      swap1\n      div\n      0xffffffffffffffffffffffffffffffffffffffff\n      and\n        /* \"contracts/Timelock.sol\":1548:1567  msg.sender == admin */\n      0xffffffffffffffffffffffffffffffffffffffff\n      and\n        /* \"contracts/Timelock.sol\":1548:1558  msg.sender */\n      caller\n        /* \"contracts/Timelock.sol\":1548:1567  msg.sender == admin */\n      0xffffffffffffffffffffffffffffffffffffffff\n      and\n      eq\n        /* \"contracts/Timelock.sol\":1540:1598  require(msg.sender == admin, \"Timelock: Caller not admin\") */\n      tag_101\n      jumpi\n      mload(0x40)\n      0x08c379a000000000000000000000000000000000000000000000000000000000\n      dup2\n      mstore\n      0x04\n      add\n      tag_102\n      swap1\n      tag_70\n      jump\t// in\n    tag_102:\n      mload(0x40)\n      dup1\n      swap2\n      sub\n      swap1\n      revert\n    tag_101:\n        /* \"contracts/Timelock.sol\":2986:2991  delay */\n      sload(0x01)\n        /* \"contracts/Timelock.sol\":2964:2983  getBlockTimestamp() */\n      tag_104\n        /* \"contracts/Timelock.sol\":2964:2981  getBlockTimestamp */\n      tag_41\n        /* \"contracts/Timelock.sol\":2964:2983  getBlockTimestamp() */\n      jump\t// in\n    tag_104:\n        /* \"contracts/Timelock.sol\":2964:2991  getBlockTimestamp() + delay */\n      tag_105\n      swap2\n      swap1\n      tag_81\n      jump\t// in\n    tag_105:\n        /* \"contracts/Timelock.sol\":2949:2960  executeTime */\n      dup3\n        /* \"contracts/Timelock.sol\":2949:2991  executeTime >= getBlockTimestamp() + delay */\n      lt\n      iszero\n        /* \"contracts/Timelock.sol\":2941:3069  require(executeTime >= getBlockTimestamp() + delay, \"Timelock::queueTransaction: Estimated execution block must satisfy delay.\") */\n      tag_106\n      jumpi\n      mload(0x40)\n      0x08c379a000000000000000000000000000000000000000000000000000000000\n      dup2\n      mstore\n      0x04\n      add\n      tag_107\n      swap1\n      tag_108\n      jump\t// in\n    tag_107:\n      mload(0x40)\n      dup1\n      swap2\n      sub\n      swap1\n      revert\n    tag_106:\n        /* \"contracts/Timelock.sol\":3145:3159  bytes32 txHash */\n      0x00\n        /* \"contracts/Timelock.sol\":3162:3216  getTxHash(target, value, signature, data, executeTime) */\n      tag_109\n        /* \"contracts/Timelock.sol\":3172:3178  target */\n      dup8\n        /* \"contracts/Timelock.sol\":3180:3185  value */\n      dup8\n        /* \"contracts/Timelock.sol\":3187:3196  signature */\n      dup8\n        /* \"contracts/Timelock.sol\":3198:3202  data */\n      dup8\n        /* \"contracts/Timelock.sol\":3204:3215  executeTime */\n      dup8\n        /* \"contracts/Timelock.sol\":3162:3171  getTxHash */\n      tag_17\n        /* \"contracts/Timelock.sol\":3162:3216  getTxHash(target, value, signature, data, executeTime) */\n      jump\t// in\n    tag_109:\n        /* \"contracts/Timelock.sol\":3145:3216  bytes32 txHash = getTxHash(target, value, signature, data, executeTime) */\n      swap1\n      pop\n        /* \"contracts/Timelock.sol\":3293:3297  true */\n      0x01\n        /* \"contracts/Timelock.sol\":3264:3282  queuedTransactions */\n      0x02\n        /* \"contracts/Timelock.sol\":3264:3290  queuedTransactions[txHash] */\n      0x00\n        /* \"contracts/Timelock.sol\":3283:3289  txHash */\n      dup4\n        /* \"contracts/Timelock.sol\":3264:3290  queuedTransactions[txHash] */\n      dup2\n      mstore\n      0x20\n      add\n      swap1\n      dup2\n      mstore\n      0x20\n      add\n      0x00\n      keccak256\n      0x00\n        /* \"contracts/Timelock.sol\":3264:3297  queuedTransactions[txHash] = true */\n      0x0100\n      exp\n      dup2\n      sload\n      dup2\n      0xff\n      mul\n      not\n      and\n      swap1\n      dup4\n      iszero\n      iszero\n      mul\n      or\n      swap1\n      sstore\n      pop\n        /* \"contracts/Timelock.sol\":3340:3346  target */\n      dup7\n        /* \"contracts/Timelock.sol\":3315:3384  QueueTransaction(txHash, target, value, signature, data, executeTime) */\n      0xffffffffffffffffffffffffffffffffffffffff\n      and\n        /* \"contracts/Timelock.sol\":3332:3338  txHash */\n      dup2\n        /* \"contracts/Timelock.sol\":3315:3384  QueueTransaction(txHash, target, value, signature, data, executeTime) */\n      0x76e2796dc3a81d57b0e8504b647febcbeeb5f4af818e164f11eef8131a6a763f\n        /* \"contracts/Timelock.sol\":3348:3353  value */\n      dup9\n        /* \"contracts/Timelock.sol\":3355:3364  signature */\n      dup9\n        /* \"contracts/Timelock.sol\":3366:3370  data */\n      dup9\n        /* \"contracts/Timelock.sol\":3372:3383  executeTime */\n      dup9\n        /* \"contracts/Timelock.sol\":3315:3384  QueueTransaction(txHash, target, value, signature, data, executeTime) */\n      mload(0x40)\n      tag_110\n      swap5\n      swap4\n      swap3\n      swap2\n      swap1\n      tag_99\n      jump\t// in\n    tag_110:\n      mload(0x40)\n      dup1\n      swap2\n      sub\n      swap1\n      log3\n        /* \"contracts/Timelock.sol\":3402:3408  txHash */\n      dup1\n        /* \"contracts/Timelock.sol\":3395:3408  return txHash */\n      swap2\n      pop\n      pop\n        /* \"contracts/Timelock.sol\":2715:3419  function queueTransaction(address target, uint256 value, string memory signature, bytes memory data, uint256 executeTime) public onlyOwner returns (bytes32) {... */\n      swap6\n      swap5\n      pop\n      pop\n      pop\n      pop\n      pop\n      jump\t// out\n        /* \"contracts/Timelock.sol\":3536:4159  function cancelTransaction(address target, uint256 value, string memory signature, bytes memory data, uint256 executeTime) public onlyOwner{... */\n    tag_33:\n        /* \"contracts/Timelock.sol\":1562:1567  admin */\n      0x00\n      0x00\n      swap1\n      sload\n      swap1\n      0x0100\n      exp\n      swap1\n      div\n      0xffffffffffffffffffffffffffffffffffffffff\n      and\n        /* \"contracts/Timelock.sol\":1548:1567  msg.sender == admin */\n      0xffffffffffffffffffffffffffffffffffffffff\n      and\n        /* \"contracts/Timelock.sol\":1548:1558  msg.sender */\n      caller\n        /* \"contracts/Timelock.sol\":1548:1567  msg.sender == admin */\n      0xffffffffffffffffffffffffffffffffffffffff\n      and\n      eq\n        /* \"contracts/Timelock.sol\":1540:1598  require(msg.sender == admin, \"Timelock: Caller not admin\") */\n      tag_112\n      jumpi\n      mload(0x40)\n      0x08c379a000000000000000000000000000000000000000000000000000000000\n      dup2\n      mstore\n      0x04\n      add\n      tag_113\n      swap1\n      tag_70\n      jump\t// in\n    tag_113:\n      mload(0x40)\n      dup1\n      swap2\n      sub\n      swap1\n      revert\n    tag_112:\n        /* \"contracts/Timelock.sol\":3752:3766  bytes32 txHash */\n      0x00\n        /* \"contracts/Timelock.sol\":3769:3823  getTxHash(target, value, signature, data, executeTime) */\n      tag_115\n        /* \"contracts/Timelock.sol\":3779:3785  target */\n      dup7\n        /* \"contracts/Timelock.sol\":3787:3792  value */\n      dup7\n        /* \"contracts/Timelock.sol\":3794:3803  signature */\n      dup7\n        /* \"contracts/Timelock.sol\":3805:3809  data */\n      dup7\n        /* \"contracts/Timelock.sol\":3811:3822  executeTime */\n      dup7\n        /* \"contracts/Timelock.sol\":3769:3778  getTxHash */\n      tag_17\n        /* \"contracts/Timelock.sol\":3769:3823  getTxHash(target, value, signature, data, executeTime) */\n      jump\t// in\n    tag_115:\n        /* \"contracts/Timelock.sol\":3752:3823  bytes32 txHash = getTxHash(target, value, signature, data, executeTime) */\n      swap1\n      pop\n        /* \"contracts/Timelock.sol\":3893:3911  queuedTransactions */\n      0x02\n        /* \"contracts/Timelock.sol\":3893:3919  queuedTransactions[txHash] */\n      0x00\n        /* \"contracts/Timelock.sol\":3912:3918  txHash */\n      dup3\n        /* \"contracts/Timelock.sol\":3893:3919  queuedTransactions[txHash] */\n      dup2\n      mstore\n      0x20\n      add\n      swap1\n      dup2\n      mstore\n      0x20\n      add\n      0x00\n      keccak256\n      0x00\n      swap1\n      sload\n      swap1\n      0x0100\n      exp\n      swap1\n      div\n      0xff\n      and\n        /* \"contracts/Timelock.sol\":3885:3983  require(queuedTransactions[txHash],\"Timelock::cancelTransaction: Transaction hasn't been queued.\") */\n      tag_116\n      jumpi\n      mload(0x40)\n      0x08c379a000000000000000000000000000000000000000000000000000000000\n      dup2\n      mstore\n      0x04\n      add\n      tag_117\n      swap1\n      tag_118\n      jump\t// in\n    tag_117:\n      mload(0x40)\n      dup1\n      swap2\n      sub\n      swap1\n      revert\n    tag_116:\n        /* \"contracts/Timelock.sol\":4059:4064  false */\n      0x00\n        /* \"contracts/Timelock.sol\":4030:4048  queuedTransactions */\n      0x02\n        /* \"contracts/Timelock.sol\":4030:4056  queuedTransactions[txHash] */\n      0x00\n        /* \"contracts/Timelock.sol\":4049:4055  txHash */\n      dup4\n        /* \"contracts/Timelock.sol\":4030:4056  queuedTransactions[txHash] */\n      dup2\n      mstore\n      0x20\n      add\n      swap1\n      dup2\n      mstore\n      0x20\n      add\n      0x00\n      keccak256\n      0x00\n        /* \"contracts/Timelock.sol\":4030:4064  queuedTransactions[txHash] = false */\n      0x0100\n      exp\n      dup2\n      sload\n      dup2\n      0xff\n      mul\n      not\n      and\n      swap1\n      dup4\n      iszero\n      iszero\n      mul\n      or\n      swap1\n      sstore\n      pop\n        /* \"contracts/Timelock.sol\":4106:4112  target */\n      dup6\n        /* \"contracts/Timelock.sol\":4080:4150  CancelTransaction(txHash, target, value, signature, data, executeTime) */\n      0xffffffffffffffffffffffffffffffffffffffff\n      and\n        /* \"contracts/Timelock.sol\":4098:4104  txHash */\n      dup2\n        /* \"contracts/Timelock.sol\":4080:4150  CancelTransaction(txHash, target, value, signature, data, executeTime) */\n      0x2fffc091a501fd91bfbff27141450d3acb40fb8e6d8382b243ec7a812a3aaf87\n        /* \"contracts/Timelock.sol\":4114:4119  value */\n      dup8\n        /* \"contracts/Timelock.sol\":4121:4130  signature */\n      dup8\n        /* \"contracts/Timelock.sol\":4132:4136  data */\n      dup8\n        /* \"contracts/Timelock.sol\":4138:4149  executeTime */\n      dup8\n        /* \"contracts/Timelock.sol\":4080:4150  CancelTransaction(txHash, target, value, signature, data, executeTime) */\n      mload(0x40)\n      tag_119\n      swap5\n      swap4\n      swap3\n      swap2\n      swap1\n      tag_99\n      jump\t// in\n    tag_119:\n      mload(0x40)\n      dup1\n      swap2\n      sub\n      swap1\n      log3\n        /* \"contracts/Timelock.sol\":3675:4159  {... */\n      pop\n        /* \"contracts/Timelock.sol\":3536:4159  function cancelTransaction(address target, uint256 value, string memory signature, bytes memory data, uint256 executeTime) public onlyOwner{... */\n      pop\n      pop\n      pop\n      pop\n      pop\n      jump\t// out\n        /* \"contracts/Timelock.sol\":1218:1235  uint public delay */\n    tag_36:\n      sload(0x01)\n      dup2\n      jump\t// out\n        /* \"contracts/Timelock.sol\":5870:5967  function getBlockTimestamp() public view returns (uint) {... */\n    tag_41:\n        /* \"contracts/Timelock.sol\":5920:5924  uint */\n      0x00\n        /* \"contracts/Timelock.sol\":5944:5959  block.timestamp */\n      timestamp\n        /* \"contracts/Timelock.sol\":5937:5959  return block.timestamp */\n      swap1\n      pop\n        /* \"contracts/Timelock.sol\":5870:5967  function getBlockTimestamp() public view returns (uint) {... */\n      swap1\n      jump\t// out\n        /* \"contracts/Timelock.sol\":2155:2283  function changeAdmin(address newAdmin) public onlyTimelock{... */\n    tag_47:\n        /* \"contracts/Timelock.sol\":1799:1803  this */\n      address\n        /* \"contracts/Timelock.sol\":1777:1804  msg.sender == address(this) */\n      0xffffffffffffffffffffffffffffffffffffffff\n      and\n        /* \"contracts/Timelock.sol\":1777:1787  msg.sender */\n      caller\n        /* \"contracts/Timelock.sol\":1777:1804  msg.sender == address(this) */\n      0xffffffffffffffffffffffffffffffffffffffff\n      and\n      eq\n        /* \"contracts/Timelock.sol\":1769:1838  require(msg.sender == address(this), \"Timelock: Caller not Timelock\") */\n      tag_122\n      jumpi\n      mload(0x40)\n      0x08c379a000000000000000000000000000000000000000000000000000000000\n      dup2\n      mstore\n      0x04\n      add\n      tag_123\n      swap1\n      tag_124\n      jump\t// in\n    tag_123:\n      mload(0x40)\n      dup1\n      swap2\n      sub\n      swap1\n      revert\n    tag_122:\n        /* \"contracts/Timelock.sol\":2232:2240  newAdmin */\n      dup1\n        /* \"contracts/Timelock.sol\":2224:2229  admin */\n      0x00\n      0x00\n        /* \"contracts/Timelock.sol\":2224:2240  admin = newAdmin */\n      0x0100\n      exp\n      dup2\n      sload\n      dup2\n      0xffffffffffffffffffffffffffffffffffffffff\n      mul\n      not\n      and\n      swap1\n      dup4\n      0xffffffffffffffffffffffffffffffffffffffff\n      and\n      mul\n      or\n      swap1\n      sstore\n      pop\n        /* \"contracts/Timelock.sol\":2265:2273  newAdmin */\n      dup1\n        /* \"contracts/Timelock.sol\":2256:2274  NewAdmin(newAdmin) */\n      0xffffffffffffffffffffffffffffffffffffffff\n      and\n      0x71614071b88dee5e0b2ae578a9dd7b2ebbe9ae832ba419dc0242cd065a290b6c\n      mload(0x40)\n      mload(0x40)\n      dup1\n      swap2\n      sub\n      swap1\n      log2\n        /* \"contracts/Timelock.sol\":2155:2283  function changeAdmin(address newAdmin) public onlyTimelock{... */\n      pop\n      jump\t// out\n        /* \"contracts/Timelock.sol\":1144:1187  uint public constant  GRACE_PERIOD = 7 days */\n    tag_50:\n        /* \"contracts/Timelock.sol\":1181:1187  7 days */\n      0x093a80\n        /* \"contracts/Timelock.sol\":1144:1187  uint public constant  GRACE_PERIOD = 7 days */\n      dup2\n      jump\t// out\n        /* \"contracts/Timelock.sol\":1274:1325  mapping (bytes32 => bool) public queuedTransactions */\n    tag_56:\n      mstore(0x20, 0x02)\n      dup1\n      0x00\n      mstore\n      keccak256(0x00, 0x40)\n      0x00\n      swap2\n      pop\n      sload\n      swap1\n      0x0100\n      exp\n      swap1\n      div\n      0xff\n      and\n      dup2\n      jump\t// out\n        /* \"contracts/Timelock.sol\":1096:1116  address public admin */\n    tag_61:\n      0x00\n      0x00\n      swap1\n      sload\n      swap1\n      0x0100\n      exp\n      swap1\n      div\n      0xffffffffffffffffffffffffffffffffffffffff\n      and\n      dup2\n      jump\t// out\n        /* \"#utility.yul\":7:82   */\n    tag_126:\n        /* \"#utility.yul\":40:46   */\n      0x00\n        /* \"#utility.yul\":73:75   */\n      0x40\n        /* \"#utility.yul\":67:76   */\n      mload\n        /* \"#utility.yul\":57:76   */\n      swap1\n      pop\n        /* \"#utility.yul\":7:82   */\n      swap1\n      jump\t// out\n        /* \"#utility.yul\":88:205   */\n    tag_127:\n        /* \"#utility.yul\":197:198   */\n      0x00\n        /* \"#utility.yul\":194:195   */\n      0x00\n        /* \"#utility.yul\":187:199   */\n      revert\n        /* \"#utility.yul\":211:328   */\n    tag_128:\n        /* \"#utility.yul\":320:321   */\n      0x00\n        /* \"#utility.yul\":317:318   */\n      0x00\n        /* \"#utility.yul\":310:322   */\n      revert\n        /* \"#utility.yul\":334:460   */\n    tag_129:\n        /* \"#utility.yul\":371:378   */\n      0x00\n        /* \"#utility.yul\":411:453   */\n      0xffffffffffffffffffffffffffffffffffffffff\n        /* \"#utility.yul\":404:409   */\n      dup3\n        /* \"#utility.yul\":400:454   */\n      and\n        /* \"#utility.yul\":389:454   */\n      swap1\n      pop\n        /* \"#utility.yul\":334:460   */\n      swap2\n      swap1\n      pop\n      jump\t// out\n        /* \"#utility.yul\":466:562   */\n    tag_130:\n        /* \"#utility.yul\":503:510   */\n      0x00\n        /* \"#utility.yul\":532:556   */\n      tag_192\n        /* \"#utility.yul\":550:555   */\n      dup3\n        /* \"#utility.yul\":532:556   */\n      tag_129\n      jump\t// in\n    tag_192:\n        /* \"#utility.yul\":521:556   */\n      swap1\n      pop\n        /* \"#utility.yul\":466:562   */\n      swap2\n      swap1\n      pop\n      jump\t// out\n        /* \"#utility.yul\":568:690   */\n    tag_131:\n        /* \"#utility.yul\":641:665   */\n      tag_194\n        /* \"#utility.yul\":659:664   */\n      dup2\n        /* \"#utility.yul\":641:665   */\n      tag_130\n      jump\t// in\n    tag_194:\n        /* \"#utility.yul\":634:639   */\n      dup2\n        /* \"#utility.yul\":631:666   */\n      eq\n        /* \"#utility.yul\":621:684   */\n      tag_195\n      jumpi\n        /* \"#utility.yul\":680:681   */\n      0x00\n        /* \"#utility.yul\":677:678   */\n      0x00\n        /* \"#utility.yul\":670:682   */\n      revert\n        /* \"#utility.yul\":621:684   */\n    tag_195:\n        /* \"#utility.yul\":568:690   */\n      pop\n      jump\t// out\n        /* \"#utility.yul\":696:835   */\n    tag_132:\n        /* \"#utility.yul\":742:747   */\n      0x00\n        /* \"#utility.yul\":780:786   */\n      dup2\n        /* \"#utility.yul\":767:787   */\n      calldataload\n        /* \"#utility.yul\":758:787   */\n      swap1\n      pop\n        /* \"#utility.yul\":796:829   */\n      tag_197\n        /* \"#utility.yul\":823:828   */\n      dup2\n        /* \"#utility.yul\":796:829   */\n      tag_131\n      jump\t// in\n    tag_197:\n        /* \"#utility.yul\":696:835   */\n      swap3\n      swap2\n      pop\n      pop\n      jump\t// out\n        /* \"#utility.yul\":841:918   */\n    tag_133:\n        /* \"#utility.yul\":878:885   */\n      0x00\n        /* \"#utility.yul\":907:912   */\n      dup2\n        /* \"#utility.yul\":896:912   */\n      swap1\n      pop\n        /* \"#utility.yul\":841:918   */\n      swap2\n      swap1\n      pop\n      jump\t// out\n        /* \"#utility.yul\":924:1046   */\n    tag_134:\n        /* \"#utility.yul\":997:1021   */\n      tag_200\n        /* \"#utility.yul\":1015:1020   */\n      dup2\n        /* \"#utility.yul\":997:1021   */\n      tag_133\n      jump\t// in\n    tag_200:\n        /* \"#utility.yul\":990:995   */\n      dup2\n        /* \"#utility.yul\":987:1022   */\n      eq\n        /* \"#utility.yul\":977:1040   */\n      tag_201\n      jumpi\n        /* \"#utility.yul\":1036:1037   */\n      0x00\n        /* \"#utility.yul\":1033:1034   */\n      0x00\n        /* \"#utility.yul\":1026:1038   */\n      revert\n        /* \"#utility.yul\":977:1040   */\n    tag_201:\n        /* \"#utility.yul\":924:1046   */\n      pop\n      jump\t// out\n        /* \"#utility.yul\":1052:1191   */\n    tag_135:\n        /* \"#utility.yul\":1098:1103   */\n      0x00\n        /* \"#utility.yul\":1136:1142   */\n      dup2\n        /* \"#utility.yul\":1123:1143   */\n      calldataload\n        /* \"#utility.yul\":1114:1143   */\n      swap1\n      pop\n        /* \"#utility.yul\":1152:1185   */\n      tag_203\n        /* \"#utility.yul\":1179:1184   */\n      dup2\n        /* \"#utility.yul\":1152:1185   */\n      tag_134\n      jump\t// in\n    tag_203:\n        /* \"#utility.yul\":1052:1191   */\n      swap3\n      swap2\n      pop\n      pop\n      jump\t// out\n        /* \"#utility.yul\":1197:1314   */\n    tag_136:\n        /* \"#utility.yul\":1306:1307   */\n      0x00\n        /* \"#utility.yul\":1303:1304   */\n      0x00\n        /* \"#utility.yul\":1296:1308   */\n      revert\n        /* \"#utility.yul\":1320:1437   */\n    tag_137:\n        /* \"#utility.yul\":1429:1430   */\n      0x00\n        /* \"#utility.yul\":1426:1427   */\n      0x00\n        /* \"#utility.yul\":1419:1431   */\n      revert\n        /* \"#utility.yul\":1443:1545   */\n    tag_138:\n        /* \"#utility.yul\":1484:1490   */\n      0x00\n        /* \"#utility.yul\":1535:1537   */\n      0x1f\n        /* \"#utility.yul\":1531:1538   */\n      not\n        /* \"#utility.yul\":1526:1528   */\n      0x1f\n        /* \"#utility.yul\":1519:1524   */\n      dup4\n        /* \"#utility.yul\":1515:1529   */\n      add\n        /* \"#utility.yul\":1511:1539   */\n      and\n        /* \"#utility.yul\":1501:1539   */\n      swap1\n      pop\n        /* \"#utility.yul\":1443:1545   */\n      swap2\n      swap1\n      pop\n      jump\t// out\n        /* \"#utility.yul\":1551:1731   */\n    tag_139:\n        /* \"#utility.yul\":1599:1676   */\n      0x4e487b7100000000000000000000000000000000000000000000000000000000\n        /* \"#utility.yul\":1596:1597   */\n      0x00\n        /* \"#utility.yul\":1589:1677   */\n      mstore\n        /* \"#utility.yul\":1696:1700   */\n      0x41\n        /* \"#utility.yul\":1693:1694   */\n      0x04\n        /* \"#utility.yul\":1686:1701   */\n      mstore\n        /* \"#utility.yul\":1720:1724   */\n      0x24\n        /* \"#utility.yul\":1717:1718   */\n      0x00\n        /* \"#utility.yul\":1710:1725   */\n      revert\n        /* \"#utility.yul\":1737:2018   */\n    tag_140:\n        /* \"#utility.yul\":1820:1847   */\n      tag_209\n        /* \"#utility.yul\":1842:1846   */\n      dup3\n        /* \"#utility.yul\":1820:1847   */\n      tag_138\n      jump\t// in\n    tag_209:\n        /* \"#utility.yul\":1812:1818   */\n      dup2\n        /* \"#utility.yul\":1808:1848   */\n      add\n        /* \"#utility.yul\":1950:1956   */\n      dup2\n        /* \"#utility.yul\":1938:1948   */\n      dup2\n        /* \"#utility.yul\":1935:1957   */\n      lt\n        /* \"#utility.yul\":1914:1932   */\n      0xffffffffffffffff\n        /* \"#utility.yul\":1902:1912   */\n      dup3\n        /* \"#utility.yul\":1899:1933   */\n      gt\n        /* \"#utility.yul\":1896:1958   */\n      or\n        /* \"#utility.yul\":1893:1981   */\n      iszero\n      tag_210\n      jumpi\n        /* \"#utility.yul\":1961:1979   */\n      tag_211\n      tag_139\n      jump\t// in\n    tag_211:\n        /* \"#utility.yul\":1893:1981   */\n    tag_210:\n        /* \"#utility.yul\":2001:2011   */\n      dup1\n        /* \"#utility.yul\":1997:1999   */\n      0x40\n        /* \"#utility.yul\":1990:2012   */\n      mstore\n        /* \"#utility.yul\":1780:2018   */\n      pop\n        /* \"#utility.yul\":1737:2018   */\n      pop\n      pop\n      jump\t// out\n        /* \"#utility.yul\":2024:2153   */\n    tag_141:\n        /* \"#utility.yul\":2058:2064   */\n      0x00\n        /* \"#utility.yul\":2085:2105   */\n      tag_213\n      tag_126\n      jump\t// in\n    tag_213:\n        /* \"#utility.yul\":2075:2105   */\n      swap1\n      pop\n        /* \"#utility.yul\":2114:2147   */\n      tag_214\n        /* \"#utility.yul\":2142:2146   */\n      dup3\n        /* \"#utility.yul\":2134:2140   */\n      dup3\n        /* \"#utility.yul\":2114:2147   */\n      tag_140\n      jump\t// in\n    tag_214:\n        /* \"#utility.yul\":2024:2153   */\n      swap2\n      swap1\n      pop\n      jump\t// out\n        /* \"#utility.yul\":2159:2467   */\n    tag_142:\n        /* \"#utility.yul\":2221:2225   */\n      0x00\n        /* \"#utility.yul\":2311:2329   */\n      0xffffffffffffffff\n        /* \"#utility.yul\":2303:2309   */\n      dup3\n        /* \"#utility.yul\":2300:2330   */\n      gt\n        /* \"#utility.yul\":2297:2353   */\n      iszero\n      tag_216\n      jumpi\n        /* \"#utility.yul\":2333:2351   */\n      tag_217\n      tag_139\n      jump\t// in\n    tag_217:\n        /* \"#utility.yul\":2297:2353   */\n    tag_216:\n        /* \"#utility.yul\":2371:2400   */\n      tag_218\n        /* \"#utility.yul\":2393:2399   */\n      dup3\n        /* \"#utility.yul\":2371:2400   */\n      tag_138\n      jump\t// in\n    tag_218:\n        /* \"#utility.yul\":2363:2400   */\n      swap1\n      pop\n        /* \"#utility.yul\":2455:2459   */\n      0x20\n        /* \"#utility.yul\":2449:2453   */\n      dup2\n        /* \"#utility.yul\":2445:2460   */\n      add\n        /* \"#utility.yul\":2437:2460   */\n      swap1\n      pop\n        /* \"#utility.yul\":2159:2467   */\n      swap2\n      swap1\n      pop\n      jump\t// out\n        /* \"#utility.yul\":2473:2621   */\n    tag_143:\n        /* \"#utility.yul\":2571:2577   */\n      dup3\n        /* \"#utility.yul\":2566:2569   */\n      dup2\n        /* \"#utility.yul\":2561:2564   */\n      dup4\n        /* \"#utility.yul\":2548:2578   */\n      calldatacopy\n        /* \"#utility.yul\":2612:2613   */\n      0x00\n        /* \"#utility.yul\":2603:2609   */\n      dup4\n        /* \"#utility.yul\":2598:2601   */\n      dup4\n        /* \"#utility.yul\":2594:2610   */\n      add\n        /* \"#utility.yul\":2587:2614   */\n      mstore\n        /* \"#utility.yul\":2473:2621   */\n      pop\n      pop\n      pop\n      jump\t// out\n        /* \"#utility.yul\":2627:3052   */\n    tag_144:\n        /* \"#utility.yul\":2705:2710   */\n      0x00\n        /* \"#utility.yul\":2730:2796   */\n      tag_221\n        /* \"#utility.yul\":2746:2795   */\n      tag_222\n        /* \"#utility.yul\":2788:2794   */\n      dup5\n        /* \"#utility.yul\":2746:2795   */\n      tag_142\n      jump\t// in\n    tag_222:\n        /* \"#utility.yul\":2730:2796   */\n      tag_141\n      jump\t// in\n    tag_221:\n        /* \"#utility.yul\":2721:2796   */\n      swap1\n      pop\n        /* \"#utility.yul\":2819:2825   */\n      dup3\n        /* \"#utility.yul\":2812:2817   */\n      dup2\n        /* \"#utility.yul\":2805:2826   */\n      mstore\n        /* \"#utility.yul\":2857:2861   */\n      0x20\n        /* \"#utility.yul\":2850:2855   */\n      dup2\n        /* \"#utility.yul\":2846:2862   */\n      add\n        /* \"#utility.yul\":2895:2898   */\n      dup5\n        /* \"#utility.yul\":2886:2892   */\n      dup5\n        /* \"#utility.yul\":2881:2884   */\n      dup5\n        /* \"#utility.yul\":2877:2893   */\n      add\n        /* \"#utility.yul\":2874:2899   */\n      gt\n        /* \"#utility.yul\":2871:2983   */\n      iszero\n      tag_223\n      jumpi\n        /* \"#utility.yul\":2902:2981   */\n      tag_224\n      tag_137\n      jump\t// in\n    tag_224:\n        /* \"#utility.yul\":2871:2983   */\n    tag_223:\n        /* \"#utility.yul\":2992:3046   */\n      tag_225\n        /* \"#utility.yul\":3039:3045   */\n      dup5\n        /* \"#utility.yul\":3034:3037   */\n      dup3\n        /* \"#utility.yul\":3029:3032   */\n      dup6\n        /* \"#utility.yul\":2992:3046   */\n      tag_143\n      jump\t// in\n    tag_225:\n        /* \"#utility.yul\":2711:3052   */\n      pop\n        /* \"#utility.yul\":2627:3052   */\n      swap4\n      swap3\n      pop\n      pop\n      pop\n      jump\t// out\n        /* \"#utility.yul\":3072:3412   */\n    tag_145:\n        /* \"#utility.yul\":3128:3133   */\n      0x00\n        /* \"#utility.yul\":3177:3180   */\n      dup3\n        /* \"#utility.yul\":3170:3174   */\n      0x1f\n        /* \"#utility.yul\":3162:3168   */\n      dup4\n        /* \"#utility.yul\":3158:3175   */\n      add\n        /* \"#utility.yul\":3154:3181   */\n      slt\n        /* \"#utility.yul\":3144:3266   */\n      tag_227\n      jumpi\n        /* \"#utility.yul\":3185:3264   */\n      tag_228\n      tag_136\n      jump\t// in\n    tag_228:\n        /* \"#utility.yul\":3144:3266   */\n    tag_227:\n        /* \"#utility.yul\":3302:3308   */\n      dup2\n        /* \"#utility.yul\":3289:3309   */\n      calldataload\n        /* \"#utility.yul\":3327:3406   */\n      tag_229\n        /* \"#utility.yul\":3402:3405   */\n      dup5\n        /* \"#utility.yul\":3394:3400   */\n      dup3\n        /* \"#utility.yul\":3387:3391   */\n      0x20\n        /* \"#utility.yul\":3379:3385   */\n      dup7\n        /* \"#utility.yul\":3375:3392   */\n      add\n        /* \"#utility.yul\":3327:3406   */\n      tag_144\n      jump\t// in\n    tag_229:\n        /* \"#utility.yul\":3318:3406   */\n      swap2\n      pop\n        /* \"#utility.yul\":3134:3412   */\n      pop\n        /* \"#utility.yul\":3072:3412   */\n      swap3\n      swap2\n      pop\n      pop\n      jump\t// out\n        /* \"#utility.yul\":3418:3725   */\n    tag_146:\n        /* \"#utility.yul\":3479:3483   */\n      0x00\n        /* \"#utility.yul\":3569:3587   */\n      0xffffffffffffffff\n        /* \"#utility.yul\":3561:3567   */\n      dup3\n        /* \"#utility.yul\":3558:3588   */\n      gt\n        /* \"#utility.yul\":3555:3611   */\n      iszero\n      tag_231\n      jumpi\n        /* \"#utility.yul\":3591:3609   */\n      tag_232\n      tag_139\n      jump\t// in\n    tag_232:\n        /* \"#utility.yul\":3555:3611   */\n    tag_231:\n        /* \"#utility.yul\":3629:3658   */\n      tag_233\n        /* \"#utility.yul\":3651:3657   */\n      dup3\n        /* \"#utility.yul\":3629:3658   */\n      tag_138\n      jump\t// in\n    tag_233:\n        /* \"#utility.yul\":3621:3658   */\n      swap1\n      pop\n        /* \"#utility.yul\":3713:3717   */\n      0x20\n        /* \"#utility.yul\":3707:3711   */\n      dup2\n        /* \"#utility.yul\":3703:3718   */\n      add\n        /* \"#utility.yul\":3695:3718   */\n      swap1\n      pop\n        /* \"#utility.yul\":3418:3725   */\n      swap2\n      swap1\n      pop\n      jump\t// out\n        /* \"#utility.yul\":3731:4154   */\n    tag_147:\n        /* \"#utility.yul\":3808:3813   */\n      0x00\n        /* \"#utility.yul\":3833:3898   */\n      tag_235\n        /* \"#utility.yul\":3849:3897   */\n      tag_236\n        /* \"#utility.yul\":3890:3896   */\n      dup5\n        /* \"#utility.yul\":3849:3897   */\n      tag_146\n      jump\t// in\n    tag_236:\n        /* \"#utility.yul\":3833:3898   */\n      tag_141\n      jump\t// in\n    tag_235:\n        /* \"#utility.yul\":3824:3898   */\n      swap1\n      pop\n        /* \"#utility.yul\":3921:3927   */\n      dup3\n        /* \"#utility.yul\":3914:3919   */\n      dup2\n        /* \"#utility.yul\":3907:3928   */\n      mstore\n        /* \"#utility.yul\":3959:3963   */\n      0x20\n        /* \"#utility.yul\":3952:3957   */\n      dup2\n        /* \"#utility.yul\":3948:3964   */\n      add\n        /* \"#utility.yul\":3997:4000   */\n      dup5\n        /* \"#utility.yul\":3988:3994   */\n      dup5\n        /* \"#utility.yul\":3983:3986   */\n      dup5\n        /* \"#utility.yul\":3979:3995   */\n      add\n        /* \"#utility.yul\":3976:4001   */\n      gt\n        /* \"#utility.yul\":3973:4085   */\n      iszero\n      tag_237\n      jumpi\n        /* \"#utility.yul\":4004:4083   */\n      tag_238\n      tag_137\n      jump\t// in\n    tag_238:\n        /* \"#utility.yul\":3973:4085   */\n    tag_237:\n        /* \"#utility.yul\":4094:4148   */\n      tag_239\n        /* \"#utility.yul\":4141:4147   */\n      dup5\n        /* \"#utility.yul\":4136:4139   */\n      dup3\n        /* \"#utility.yul\":4131:4134   */\n      dup6\n        /* \"#utility.yul\":4094:4148   */\n      tag_143\n      jump\t// in\n    tag_239:\n        /* \"#utility.yul\":3814:4154   */\n      pop\n        /* \"#utility.yul\":3731:4154   */\n      swap4\n      swap3\n      pop\n      pop\n      pop\n      jump\t// out\n        /* \"#utility.yul\":4173:4511   */\n    tag_148:\n        /* \"#utility.yul\":4228:4233   */\n      0x00\n        /* \"#utility.yul\":4277:4280   */\n      dup3\n        /* \"#utility.yul\":4270:4274   */\n      0x1f\n        /* \"#utility.yul\":4262:4268   */\n      dup4\n        /* \"#utility.yul\":4258:4275   */\n      add\n        /* \"#utility.yul\":4254:4281   */\n      slt\n        /* \"#utility.yul\":4244:4366   */\n      tag_241\n      jumpi\n        /* \"#utility.yul\":4285:4364   */\n      tag_242\n      tag_136\n      jump\t// in\n    tag_242:\n        /* \"#utility.yul\":4244:4366   */\n    tag_241:\n        /* \"#utility.yul\":4402:4408   */\n      dup2\n        /* \"#utility.yul\":4389:4409   */\n      calldataload\n        /* \"#utility.yul\":4427:4505   */\n      tag_243\n        /* \"#utility.yul\":4501:4504   */\n      dup5\n        /* \"#utility.yul\":4493:4499   */\n      dup3\n        /* \"#utility.yul\":4486:4490   */\n      0x20\n        /* \"#utility.yul\":4478:4484   */\n      dup7\n        /* \"#utility.yul\":4474:4491   */\n      add\n        /* \"#utility.yul\":4427:4505   */\n      tag_147\n      jump\t// in\n    tag_243:\n        /* \"#utility.yul\":4418:4505   */\n      swap2\n      pop\n        /* \"#utility.yul\":4234:4511   */\n      pop\n        /* \"#utility.yul\":4173:4511   */\n      swap3\n      swap2\n      pop\n      pop\n      jump\t// out\n        /* \"#utility.yul\":4517:5786   */\n    tag_16:\n        /* \"#utility.yul\":4631:4637   */\n      0x00\n        /* \"#utility.yul\":4639:4645   */\n      0x00\n        /* \"#utility.yul\":4647:4653   */\n      0x00\n        /* \"#utility.yul\":4655:4661   */\n      0x00\n        /* \"#utility.yul\":4663:4669   */\n      0x00\n        /* \"#utility.yul\":4712:4715   */\n      0xa0\n        /* \"#utility.yul\":4700:4709   */\n      dup7\n        /* \"#utility.yul\":4691:4698   */\n      dup9\n        /* \"#utility.yul\":4687:4710   */\n      sub\n        /* \"#utility.yul\":4683:4716   */\n      slt\n        /* \"#utility.yul\":4680:4800   */\n      iszero\n      tag_245\n      jumpi\n        /* \"#utility.yul\":4719:4798   */\n      tag_246\n      tag_127\n      jump\t// in\n    tag_246:\n        /* \"#utility.yul\":4680:4800   */\n    tag_245:\n        /* \"#utility.yul\":4839:4840   */\n      0x00\n        /* \"#utility.yul\":4864:4917   */\n      tag_247\n        /* \"#utility.yul\":4909:4916   */\n      dup9\n        /* \"#utility.yul\":4900:4906   */\n      dup3\n        /* \"#utility.yul\":4889:4898   */\n      dup10\n        /* \"#utility.yul\":4885:4907   */\n      add\n        /* \"#utility.yul\":4864:4917   */\n      tag_132\n      jump\t// in\n    tag_247:\n        /* \"#utility.yul\":4854:4917   */\n      swap6\n      pop\n        /* \"#utility.yul\":4810:4927   */\n      pop\n        /* \"#utility.yul\":4966:4968   */\n      0x20\n        /* \"#utility.yul\":4992:5045   */\n      tag_248\n        /* \"#utility.yul\":5037:5044   */\n      dup9\n        /* \"#utility.yul\":5028:5034   */\n      dup3\n        /* \"#utility.yul\":5017:5026   */\n      dup10\n        /* \"#utility.yul\":5013:5035   */\n      add\n        /* \"#utility.yul\":4992:5045   */\n      tag_135\n      jump\t// in\n    tag_248:\n        /* \"#utility.yul\":4982:5045   */\n      swap5\n      pop\n        /* \"#utility.yul\":4937:5055   */\n      pop\n        /* \"#utility.yul\":5122:5124   */\n      0x40\n        /* \"#utility.yul\":5111:5120   */\n      dup7\n        /* \"#utility.yul\":5107:5125   */\n      add\n        /* \"#utility.yul\":5094:5126   */\n      calldataload\n        /* \"#utility.yul\":5153:5171   */\n      0xffffffffffffffff\n        /* \"#utility.yul\":5145:5151   */\n      dup2\n        /* \"#utility.yul\":5142:5172   */\n      gt\n        /* \"#utility.yul\":5139:5256   */\n      iszero\n      tag_249\n      jumpi\n        /* \"#utility.yul\":5175:5254   */\n      tag_250\n      tag_128\n      jump\t// in\n    tag_250:\n        /* \"#utility.yul\":5139:5256   */\n    tag_249:\n        /* \"#utility.yul\":5280:5343   */\n      tag_251\n        /* \"#utility.yul\":5335:5342   */\n      dup9\n        /* \"#utility.yul\":5326:5332   */\n      dup3\n        /* \"#utility.yul\":5315:5324   */\n      dup10\n        /* \"#utility.yul\":5311:5333   */\n      add\n        /* \"#utility.yul\":5280:5343   */\n      tag_145\n      jump\t// in\n    tag_251:\n        /* \"#utility.yul\":5270:5343   */\n      swap4\n      pop\n        /* \"#utility.yul\":5065:5353   */\n      pop\n        /* \"#utility.yul\":5420:5422   */\n      0x60\n        /* \"#utility.yul\":5409:5418   */\n      dup7\n        /* \"#utility.yul\":5405:5423   */\n      add\n        /* \"#utility.yul\":5392:5424   */\n      calldataload\n        /* \"#utility.yul\":5451:5469   */\n      0xffffffffffffffff\n        /* \"#utility.yul\":5443:5449   */\n      dup2\n        /* \"#utility.yul\":5440:5470   */\n      gt\n        /* \"#utility.yul\":5437:5554   */\n      iszero\n      tag_252\n      jumpi\n        /* \"#utility.yul\":5473:5552   */\n      tag_253\n      tag_128\n      jump\t// in\n    tag_253:\n        /* \"#utility.yul\":5437:5554   */\n    tag_252:\n        /* \"#utility.yul\":5578:5640   */\n      tag_254\n        /* \"#utility.yul\":5632:5639   */\n      dup9\n        /* \"#utility.yul\":5623:5629   */\n      dup3\n        /* \"#utility.yul\":5612:5621   */\n      dup10\n        /* \"#utility.yul\":5608:5630   */\n      add\n        /* \"#utility.yul\":5578:5640   */\n      tag_148\n      jump\t// in\n    tag_254:\n        /* \"#utility.yul\":5568:5640   */\n      swap3\n      pop\n        /* \"#utility.yul\":5363:5650   */\n      pop\n        /* \"#utility.yul\":5689:5692   */\n      0x80\n        /* \"#utility.yul\":5716:5769   */\n      tag_255\n        /* \"#utility.yul\":5761:5768   */\n      dup9\n        /* \"#utility.yul\":5752:5758   */\n      dup3\n        /* \"#utility.yul\":5741:5750   */\n      dup10\n        /* \"#utility.yul\":5737:5759   */\n      add\n        /* \"#utility.yul\":5716:5769   */\n      tag_135\n      jump\t// in\n    tag_255:\n        /* \"#utility.yul\":5706:5769   */\n      swap2\n      pop\n        /* \"#utility.yul\":5660:5779   */\n      pop\n        /* \"#utility.yul\":4517:5786   */\n      swap3\n      swap6\n      pop\n      swap3\n      swap6\n      swap1\n      swap4\n      pop\n      jump\t// out\n        /* \"#utility.yul\":5792:5869   */\n    tag_149:\n        /* \"#utility.yul\":5829:5836   */\n      0x00\n        /* \"#utility.yul\":5858:5863   */\n      dup2\n        /* \"#utility.yul\":5847:5863   */\n      swap1\n      pop\n        /* \"#utility.yul\":5792:5869   */\n      swap2\n      swap1\n      pop\n      jump\t// out\n        /* \"#utility.yul\":5875:5993   */\n    tag_150:\n        /* \"#utility.yul\":5962:5986   */\n      tag_258\n        /* \"#utility.yul\":5980:5985   */\n      dup2\n        /* \"#utility.yul\":5962:5986   */\n      tag_149\n      jump\t// in\n    tag_258:\n        /* \"#utility.yul\":5957:5960   */\n      dup3\n        /* \"#utility.yul\":5950:5987   */\n      mstore\n        /* \"#utility.yul\":5875:5993   */\n      pop\n      pop\n      jump\t// out\n        /* \"#utility.yul\":5999:6221   */\n    tag_19:\n        /* \"#utility.yul\":6092:6096   */\n      0x00\n        /* \"#utility.yul\":6130:6132   */\n      0x20\n        /* \"#utility.yul\":6119:6128   */\n      dup3\n        /* \"#utility.yul\":6115:6133   */\n      add\n        /* \"#utility.yul\":6107:6133   */\n      swap1\n      pop\n        /* \"#utility.yul\":6143:6214   */\n      tag_260\n        /* \"#utility.yul\":6211:6212   */\n      0x00\n        /* \"#utility.yul\":6200:6209   */\n      dup4\n        /* \"#utility.yul\":6196:6213   */\n      add\n        /* \"#utility.yul\":6187:6193   */\n      dup5\n        /* \"#utility.yul\":6143:6214   */\n      tag_150\n      jump\t// in\n    tag_260:\n        /* \"#utility.yul\":5999:6221   */\n      swap3\n      swap2\n      pop\n      pop\n      jump\t// out\n        /* \"#utility.yul\":6227:6325   */\n    tag_151:\n        /* \"#utility.yul\":6278:6284   */\n      0x00\n        /* \"#utility.yul\":6312:6317   */\n      dup2\n        /* \"#utility.yul\":6306:6318   */\n      mload\n        /* \"#utility.yul\":6296:6318   */\n      swap1\n      pop\n        /* \"#utility.yul\":6227:6325   */\n      swap2\n      swap1\n      pop\n      jump\t// out\n        /* \"#utility.yul\":6331:6499   */\n    tag_152:\n        /* \"#utility.yul\":6414:6425   */\n      0x00\n        /* \"#utility.yul\":6448:6454   */\n      dup3\n        /* \"#utility.yul\":6443:6446   */\n      dup3\n        /* \"#utility.yul\":6436:6455   */\n      mstore\n        /* \"#utility.yul\":6488:6492   */\n      0x20\n        /* \"#utility.yul\":6483:6486   */\n      dup3\n        /* \"#utility.yul\":6479:6493   */\n      add\n        /* \"#utility.yul\":6464:6493   */\n      swap1\n      pop\n        /* \"#utility.yul\":6331:6499   */\n      swap3\n      swap2\n      pop\n      pop\n      jump\t// out\n        /* \"#utility.yul\":6505:6644   */\n    tag_153:\n        /* \"#utility.yul\":6594:6600   */\n      dup3\n        /* \"#utility.yul\":6589:6592   */\n      dup2\n        /* \"#utility.yul\":6584:6587   */\n      dup4\n        /* \"#utility.yul\":6578:6601   */\n      mcopy\n        /* \"#utility.yul\":6635:6636   */\n      0x00\n        /* \"#utility.yul\":6626:6632   */\n      dup4\n        /* \"#utility.yul\":6621:6624   */\n      dup4\n        /* \"#utility.yul\":6617:6633   */\n      add\n        /* \"#utility.yul\":6610:6637   */\n      mstore\n        /* \"#utility.yul\":6505:6644   */\n      pop\n      pop\n      pop\n      jump\t// out\n        /* \"#utility.yul\":6650:7023   */\n    tag_154:\n        /* \"#utility.yul\":6736:6739   */\n      0x00\n        /* \"#utility.yul\":6764:6802   */\n      tag_265\n        /* \"#utility.yul\":6796:6801   */\n      dup3\n        /* \"#utility.yul\":6764:6802   */\n      tag_151\n      jump\t// in\n    tag_265:\n        /* \"#utility.yul\":6818:6888   */\n      tag_266\n        /* \"#utility.yul\":6881:6887   */\n      dup2\n        /* \"#utility.yul\":6876:6879   */\n      dup6\n        /* \"#utility.yul\":6818:6888   */\n      tag_152\n      jump\t// in\n    tag_266:\n        /* \"#utility.yul\":6811:6888   */\n      swap4\n      pop\n        /* \"#utility.yul\":6897:6962   */\n      tag_267\n        /* \"#utility.yul\":6955:6961   */\n      dup2\n        /* \"#utility.yul\":6950:6953   */\n      dup6\n        /* \"#utility.yul\":6943:6947   */\n      0x20\n        /* \"#utility.yul\":6936:6941   */\n      dup7\n        /* \"#utility.yul\":6932:6948   */\n      add\n        /* \"#utility.yul\":6897:6962   */\n      tag_153\n      jump\t// in\n    tag_267:\n        /* \"#utility.yul\":6987:7016   */\n      tag_268\n        /* \"#utility.yul\":7009:7015   */\n      dup2\n        /* \"#utility.yul\":6987:7016   */\n      tag_138\n      jump\t// in\n    tag_268:\n        /* \"#utility.yul\":6982:6985   */\n      dup5\n        /* \"#utility.yul\":6978:7017   */\n      add\n        /* \"#utility.yul\":6971:7017   */\n      swap2\n      pop\n        /* \"#utility.yul\":6740:7023   */\n      pop\n        /* \"#utility.yul\":6650:7023   */\n      swap3\n      swap2\n      pop\n      pop\n      jump\t// out\n        /* \"#utility.yul\":7029:7338   */\n    tag_24:\n        /* \"#utility.yul\":7140:7144   */\n      0x00\n        /* \"#utility.yul\":7178:7180   */\n      0x20\n        /* \"#utility.yul\":7167:7176   */\n      dup3\n        /* \"#utility.yul\":7163:7181   */\n      add\n        /* \"#utility.yul\":7155:7181   */\n      swap1\n      pop\n        /* \"#utility.yul\":7227:7236   */\n      dup2\n        /* \"#utility.yul\":7221:7225   */\n      dup2\n        /* \"#utility.yul\":7217:7237   */\n      sub\n        /* \"#utility.yul\":7213:7214   */\n      0x00\n        /* \"#utility.yul\":7202:7211   */\n      dup4\n        /* \"#utility.yul\":7198:7215   */\n      add\n        /* \"#utility.yul\":7191:7238   */\n      mstore\n        /* \"#utility.yul\":7255:7331   */\n      tag_270\n        /* \"#utility.yul\":7326:7330   */\n      dup2\n        /* \"#utility.yul\":7317:7323   */\n      dup5\n        /* \"#utility.yul\":7255:7331   */\n      tag_154\n      jump\t// in\n    tag_270:\n        /* \"#utility.yul\":7247:7331   */\n      swap1\n      pop\n        /* \"#utility.yul\":7029:7338   */\n      swap3\n      swap2\n      pop\n      pop\n      jump\t// out\n        /* \"#utility.yul\":7344:7462   */\n    tag_155:\n        /* \"#utility.yul\":7431:7455   */\n      tag_272\n        /* \"#utility.yul\":7449:7454   */\n      dup2\n        /* \"#utility.yul\":7431:7455   */\n      tag_133\n      jump\t// in\n    tag_272:\n        /* \"#utility.yul\":7426:7429   */\n      dup3\n        /* \"#utility.yul\":7419:7456   */\n      mstore\n        /* \"#utility.yul\":7344:7462   */\n      pop\n      pop\n      jump\t// out\n        /* \"#utility.yul\":7468:7690   */\n    tag_38:\n        /* \"#utility.yul\":7561:7565   */\n      0x00\n        /* \"#utility.yul\":7599:7601   */\n      0x20\n        /* \"#utility.yul\":7588:7597   */\n      dup3\n        /* \"#utility.yul\":7584:7602   */\n      add\n        /* \"#utility.yul\":7576:7602   */\n      swap1\n      pop\n        /* \"#utility.yul\":7612:7683   */\n      tag_274\n        /* \"#utility.yul\":7680:7681   */\n      0x00\n        /* \"#utility.yul\":7669:7678   */\n      dup4\n        /* \"#utility.yul\":7665:7682   */\n      add\n        /* \"#utility.yul\":7656:7662   */\n      dup5\n        /* \"#utility.yul\":7612:7683   */\n      tag_155\n      jump\t// in\n    tag_274:\n        /* \"#utility.yul\":7468:7690   */\n      swap3\n      swap2\n      pop\n      pop\n      jump\t// out\n        /* \"#utility.yul\":7696:8025   */\n    tag_46:\n        /* \"#utility.yul\":7755:7761   */\n      0x00\n        /* \"#utility.yul\":7804:7806   */\n      0x20\n        /* \"#utility.yul\":7792:7801   */\n      dup3\n        /* \"#utility.yul\":7783:7790   */\n      dup5\n        /* \"#utility.yul\":7779:7802   */\n      sub\n        /* \"#utility.yul\":7775:7807   */\n      slt\n        /* \"#utility.yul\":7772:7891   */\n      iszero\n      tag_276\n      jumpi\n        /* \"#utility.yul\":7810:7889   */\n      tag_277\n      tag_127\n      jump\t// in\n    tag_277:\n        /* \"#utility.yul\":7772:7891   */\n    tag_276:\n        /* \"#utility.yul\":7930:7931   */\n      0x00\n        /* \"#utility.yul\":7955:8008   */\n      tag_278\n        /* \"#utility.yul\":8000:8007   */\n      dup5\n        /* \"#utility.yul\":7991:7997   */\n      dup3\n        /* \"#utility.yul\":7980:7989   */\n      dup6\n        /* \"#utility.yul\":7976:7998   */\n      add\n        /* \"#utility.yul\":7955:8008   */\n      tag_132\n      jump\t// in\n    tag_278:\n        /* \"#utility.yul\":7945:8008   */\n      swap2\n      pop\n        /* \"#utility.yul\":7901:8018   */\n      pop\n        /* \"#utility.yul\":7696:8025   */\n      swap3\n      swap2\n      pop\n      pop\n      jump\t// out\n        /* \"#utility.yul\":8031:8153   */\n    tag_156:\n        /* \"#utility.yul\":8104:8128   */\n      tag_280\n        /* \"#utility.yul\":8122:8127   */\n      dup2\n        /* \"#utility.yul\":8104:8128   */\n      tag_149\n      jump\t// in\n    tag_280:\n        /* \"#utility.yul\":8097:8102   */\n      dup2\n        /* \"#utility.yul\":8094:8129   */\n      eq\n        /* \"#utility.yul\":8084:8147   */\n      tag_281\n      jumpi\n        /* \"#utility.yul\":8143:8144   */\n      0x00\n        /* \"#utility.yul\":8140:8141   */\n      0x00\n        /* \"#utility.yul\":8133:8145   */\n      revert\n        /* \"#utility.yul\":8084:8147   */\n    tag_281:\n        /* \"#utility.yul\":8031:8153   */\n      pop\n      jump\t// out\n        /* \"#utility.yul\":8159:8298   */\n    tag_157:\n        /* \"#utility.yul\":8205:8210   */\n      0x00\n        /* \"#utility.yul\":8243:8249   */\n      dup2\n        /* \"#utility.yul\":8230:8250   */\n      calldataload\n        /* \"#utility.yul\":8221:8250   */\n      swap1\n      pop\n        /* \"#utility.yul\":8259:8292   */\n      tag_283\n        /* \"#utility.yul\":8286:8291   */\n      dup2\n        /* \"#utility.yul\":8259:8292   */\n      tag_156\n      jump\t// in\n    tag_283:\n        /* \"#utility.yul\":8159:8298   */\n      swap3\n      swap2\n      pop\n      pop\n      jump\t// out\n        /* \"#utility.yul\":8304:8633   */\n    tag_55:\n        /* \"#utility.yul\":8363:8369   */\n      0x00\n        /* \"#utility.yul\":8412:8414   */\n      0x20\n        /* \"#utility.yul\":8400:8409   */\n      dup3\n        /* \"#utility.yul\":8391:8398   */\n      dup5\n        /* \"#utility.yul\":8387:8410   */\n      sub\n        /* \"#utility.yul\":8383:8415   */\n      slt\n        /* \"#utility.yul\":8380:8499   */\n      iszero\n      tag_285\n      jumpi\n        /* \"#utility.yul\":8418:8497   */\n      tag_286\n      tag_127\n      jump\t// in\n    tag_286:\n        /* \"#utility.yul\":8380:8499   */\n    tag_285:\n        /* \"#utility.yul\":8538:8539   */\n      0x00\n        /* \"#utility.yul\":8563:8616   */\n      tag_287\n        /* \"#utility.yul\":8608:8615   */\n      dup5\n        /* \"#utility.yul\":8599:8605   */\n      dup3\n        /* \"#utility.yul\":8588:8597   */\n      dup6\n        /* \"#utility.yul\":8584:8606   */\n      add\n        /* \"#utility.yul\":8563:8616   */\n      tag_157\n      jump\t// in\n    tag_287:\n        /* \"#utility.yul\":8553:8616   */\n      swap2\n      pop\n        /* \"#utility.yul\":8509:8626   */\n      pop\n        /* \"#utility.yul\":8304:8633   */\n      swap3\n      swap2\n      pop\n      pop\n      jump\t// out\n        /* \"#utility.yul\":8639:8729   */\n    tag_158:\n        /* \"#utility.yul\":8673:8680   */\n      0x00\n        /* \"#utility.yul\":8716:8721   */\n      dup2\n        /* \"#utility.yul\":8709:8722   */\n      iszero\n        /* \"#utility.yul\":8702:8723   */\n      iszero\n        /* \"#utility.yul\":8691:8723   */\n      swap1\n      pop\n        /* \"#utility.yul\":8639:8729   */\n      swap2\n      swap1\n      pop\n      jump\t// out\n        /* \"#utility.yul\":8735:8844   */\n    tag_159:\n        /* \"#utility.yul\":8816:8837   */\n      tag_290\n        /* \"#utility.yul\":8831:8836   */\n      dup2\n        /* \"#utility.yul\":8816:8837   */\n      tag_158\n      jump\t// in\n    tag_290:\n        /* \"#utility.yul\":8811:8814   */\n      dup3\n        /* \"#utility.yul\":8804:8838   */\n      mstore\n        /* \"#utility.yul\":8735:8844   */\n      pop\n      pop\n      jump\t// out\n        /* \"#utility.yul\":8850:9060   */\n    tag_58:\n        /* \"#utility.yul\":8937:8941   */\n      0x00\n        /* \"#utility.yul\":8975:8977   */\n      0x20\n        /* \"#utility.yul\":8964:8973   */\n      dup3\n        /* \"#utility.yul\":8960:8978   */\n      add\n        /* \"#utility.yul\":8952:8978   */\n      swap1\n      pop\n        /* \"#utility.yul\":8988:9053   */\n      tag_292\n        /* \"#utility.yul\":9050:9051   */\n      0x00\n        /* \"#utility.yul\":9039:9048   */\n      dup4\n        /* \"#utility.yul\":9035:9052   */\n      add\n        /* \"#utility.yul\":9026:9032   */\n      dup5\n        /* \"#utility.yul\":8988:9053   */\n      tag_159\n      jump\t// in\n    tag_292:\n        /* \"#utility.yul\":8850:9060   */\n      swap3\n      swap2\n      pop\n      pop\n      jump\t// out\n        /* \"#utility.yul\":9066:9184   */\n    tag_160:\n        /* \"#utility.yul\":9153:9177   */\n      tag_294\n        /* \"#utility.yul\":9171:9176   */\n      dup2\n        /* \"#utility.yul\":9153:9177   */\n      tag_130\n      jump\t// in\n    tag_294:\n        /* \"#utility.yul\":9148:9151   */\n      dup3\n        /* \"#utility.yul\":9141:9178   */\n      mstore\n        /* \"#utility.yul\":9066:9184   */\n      pop\n      pop\n      jump\t// out\n        /* \"#utility.yul\":9190:9412   */\n    tag_63:\n        /* \"#utility.yul\":9283:9287   */\n      0x00\n        /* \"#utility.yul\":9321:9323   */\n      0x20\n        /* \"#utility.yul\":9310:9319   */\n      dup3\n        /* \"#utility.yul\":9306:9324   */\n      add\n        /* \"#utility.yul\":9298:9324   */\n      swap1\n      pop\n        /* \"#utility.yul\":9334:9405   */\n      tag_296\n        /* \"#utility.yul\":9402:9403   */\n      0x00\n        /* \"#utility.yul\":9391:9400   */\n      dup4\n        /* \"#utility.yul\":9387:9404   */\n      add\n        /* \"#utility.yul\":9378:9384   */\n      dup5\n        /* \"#utility.yul\":9334:9405   */\n      tag_160\n      jump\t// in\n    tag_296:\n        /* \"#utility.yul\":9190:9412   */\n      swap3\n      swap2\n      pop\n      pop\n      jump\t// out\n        /* \"#utility.yul\":9418:9517   */\n    tag_161:\n        /* \"#utility.yul\":9470:9476   */\n      0x00\n        /* \"#utility.yul\":9504:9509   */\n      dup2\n        /* \"#utility.yul\":9498:9510   */\n      mload\n        /* \"#utility.yul\":9488:9510   */\n      swap1\n      pop\n        /* \"#utility.yul\":9418:9517   */\n      swap2\n      swap1\n      pop\n      jump\t// out\n        /* \"#utility.yul\":9523:9692   */\n    tag_162:\n        /* \"#utility.yul\":9607:9618   */\n      0x00\n        /* \"#utility.yul\":9641:9647   */\n      dup3\n        /* \"#utility.yul\":9636:9639   */\n      dup3\n        /* \"#utility.yul\":9629:9648   */\n      mstore\n        /* \"#utility.yul\":9681:9685   */\n      0x20\n        /* \"#utility.yul\":9676:9679   */\n      dup3\n        /* \"#utility.yul\":9672:9686   */\n      add\n        /* \"#utility.yul\":9657:9686   */\n      swap1\n      pop\n        /* \"#utility.yul\":9523:9692   */\n      swap3\n      swap2\n      pop\n      pop\n      jump\t// out\n        /* \"#utility.yul\":9698:10075   */\n    tag_163:\n        /* \"#utility.yul\":9786:9789   */\n      0x00\n        /* \"#utility.yul\":9814:9853   */\n      tag_300\n        /* \"#utility.yul\":9847:9852   */\n      dup3\n        /* \"#utility.yul\":9814:9853   */\n      tag_161\n      jump\t// in\n    tag_300:\n        /* \"#utility.yul\":9869:9940   */\n      tag_301\n        /* \"#utility.yul\":9933:9939   */\n      dup2\n        /* \"#utility.yul\":9928:9931   */\n      dup6\n        /* \"#utility.yul\":9869:9940   */\n      tag_162\n      jump\t// in\n    tag_301:\n        /* \"#utility.yul\":9862:9940   */\n      swap4\n      pop\n        /* \"#utility.yul\":9949:10014   */\n      tag_302\n        /* \"#utility.yul\":10007:10013   */\n      dup2\n        /* \"#utility.yul\":10002:10005   */\n      dup6\n        /* \"#utility.yul\":9995:9999   */\n      0x20\n        /* \"#utility.yul\":9988:9993   */\n      dup7\n        /* \"#utility.yul\":9984:10000   */\n      add\n        /* \"#utility.yul\":9949:10014   */\n      tag_153\n      jump\t// in\n    tag_302:\n        /* \"#utility.yul\":10039:10068   */\n      tag_303\n        /* \"#utility.yul\":10061:10067   */\n      dup2\n        /* \"#utility.yul\":10039:10068   */\n      tag_138\n      jump\t// in\n    tag_303:\n        /* \"#utility.yul\":10034:10037   */\n      dup5\n        /* \"#utility.yul\":10030:10069   */\n      add\n        /* \"#utility.yul\":10023:10069   */\n      swap2\n      pop\n        /* \"#utility.yul\":9790:10075   */\n      pop\n        /* \"#utility.yul\":9698:10075   */\n      swap3\n      swap2\n      pop\n      pop\n      jump\t// out\n        /* \"#utility.yul\":10081:10923   */\n    tag_66:\n        /* \"#utility.yul\":10324:10328   */\n      0x00\n        /* \"#utility.yul\":10362:10365   */\n      0xa0\n        /* \"#utility.yul\":10351:10360   */\n      dup3\n        /* \"#utility.yul\":10347:10366   */\n      add\n        /* \"#utility.yul\":10339:10366   */\n      swap1\n      pop\n        /* \"#utility.yul\":10376:10447   */\n      tag_305\n        /* \"#utility.yul\":10444:10445   */\n      0x00\n        /* \"#utility.yul\":10433:10442   */\n      dup4\n        /* \"#utility.yul\":10429:10446   */\n      add\n        /* \"#utility.yul\":10420:10426   */\n      dup9\n        /* \"#utility.yul\":10376:10447   */\n      tag_160\n      jump\t// in\n    tag_305:\n        /* \"#utility.yul\":10457:10529   */\n      tag_306\n        /* \"#utility.yul\":10525:10527   */\n      0x20\n        /* \"#utility.yul\":10514:10523   */\n      dup4\n        /* \"#utility.yul\":10510:10528   */\n      add\n        /* \"#utility.yul\":10501:10507   */\n      dup8\n        /* \"#utility.yul\":10457:10529   */\n      tag_155\n      jump\t// in\n    tag_306:\n        /* \"#utility.yul\":10576:10585   */\n      dup2\n        /* \"#utility.yul\":10570:10574   */\n      dup2\n        /* \"#utility.yul\":10566:10586   */\n      sub\n        /* \"#utility.yul\":10561:10563   */\n      0x40\n        /* \"#utility.yul\":10550:10559   */\n      dup4\n        /* \"#utility.yul\":10546:10564   */\n      add\n        /* \"#utility.yul\":10539:10587   */\n      mstore\n        /* \"#utility.yul\":10604:10682   */\n      tag_307\n        /* \"#utility.yul\":10677:10681   */\n      dup2\n        /* \"#utility.yul\":10668:10674   */\n      dup7\n        /* \"#utility.yul\":10604:10682   */\n      tag_163\n      jump\t// in\n    tag_307:\n        /* \"#utility.yul\":10596:10682   */\n      swap1\n      pop\n        /* \"#utility.yul\":10729:10738   */\n      dup2\n        /* \"#utility.yul\":10723:10727   */\n      dup2\n        /* \"#utility.yul\":10719:10739   */\n      sub\n        /* \"#utility.yul\":10714:10716   */\n      0x60\n        /* \"#utility.yul\":10703:10712   */\n      dup4\n        /* \"#utility.yul\":10699:10717   */\n      add\n        /* \"#utility.yul\":10692:10740   */\n      mstore\n        /* \"#utility.yul\":10757:10833   */\n      tag_308\n        /* \"#utility.yul\":10828:10832   */\n      dup2\n        /* \"#utility.yul\":10819:10825   */\n      dup6\n        /* \"#utility.yul\":10757:10833   */\n      tag_154\n      jump\t// in\n    tag_308:\n        /* \"#utility.yul\":10749:10833   */\n      swap1\n      pop\n        /* \"#utility.yul\":10843:10916   */\n      tag_309\n        /* \"#utility.yul\":10911:10914   */\n      0x80\n        /* \"#utility.yul\":10900:10909   */\n      dup4\n        /* \"#utility.yul\":10896:10915   */\n      add\n        /* \"#utility.yul\":10887:10893   */\n      dup5\n        /* \"#utility.yul\":10843:10916   */\n      tag_155\n      jump\t// in\n    tag_309:\n        /* \"#utility.yul\":10081:10923   */\n      swap7\n      swap6\n      pop\n      pop\n      pop\n      pop\n      pop\n      pop\n      jump\t// out\n        /* \"#utility.yul\":10929:11105   */\n    tag_164:\n        /* \"#utility.yul\":11069:11097   */\n      0x54696d656c6f636b3a2043616c6c6572206e6f742061646d696e000000000000\n        /* \"#utility.yul\":11065:11066   */\n      0x00\n        /* \"#utility.yul\":11057:11063   */\n      dup3\n        /* \"#utility.yul\":11053:11067   */\n      add\n        /* \"#utility.yul\":11046:11098   */\n      mstore\n        /* \"#utility.yul\":10929:11105   */\n      pop\n      jump\t// out\n        /* \"#utility.yul\":11111:11477   */\n    tag_165:\n        /* \"#utility.yul\":11253:11256   */\n      0x00\n        /* \"#utility.yul\":11274:11341   */\n      tag_312\n        /* \"#utility.yul\":11338:11340   */\n      0x1a\n        /* \"#utility.yul\":11333:11336   */\n      dup4\n        /* \"#utility.yul\":11274:11341   */\n      tag_162\n      jump\t// in\n    tag_312:\n        /* \"#utility.yul\":11267:11341   */\n      swap2\n      pop\n        /* \"#utility.yul\":11350:11443   */\n      tag_313\n        /* \"#utility.yul\":11439:11442   */\n      dup3\n        /* \"#utility.yul\":11350:11443   */\n      tag_164\n      jump\t// in\n    tag_313:\n        /* \"#utility.yul\":11468:11470   */\n      0x20\n        /* \"#utility.yul\":11463:11466   */\n      dup3\n        /* \"#utility.yul\":11459:11471   */\n      add\n        /* \"#utility.yul\":11452:11471   */\n      swap1\n      pop\n        /* \"#utility.yul\":11111:11477   */\n      swap2\n      swap1\n      pop\n      jump\t// out\n        /* \"#utility.yul\":11483:11902   */\n    tag_70:\n        /* \"#utility.yul\":11649:11653   */\n      0x00\n        /* \"#utility.yul\":11687:11689   */\n      0x20\n        /* \"#utility.yul\":11676:11685   */\n      dup3\n        /* \"#utility.yul\":11672:11690   */\n      add\n        /* \"#utility.yul\":11664:11690   */\n      swap1\n      pop\n        /* \"#utility.yul\":11736:11745   */\n      dup2\n        /* \"#utility.yul\":11730:11734   */\n      dup2\n        /* \"#utility.yul\":11726:11746   */\n      sub\n        /* \"#utility.yul\":11722:11723   */\n      0x00\n        /* \"#utility.yul\":11711:11720   */\n      dup4\n        /* \"#utility.yul\":11707:11724   */\n      add\n        /* \"#utility.yul\":11700:11747   */\n      mstore\n        /* \"#utility.yul\":11764:11895   */\n      tag_315\n        /* \"#utility.yul\":11890:11894   */\n      dup2\n        /* \"#utility.yul\":11764:11895   */\n      tag_165\n      jump\t// in\n    tag_315:\n        /* \"#utility.yul\":11756:11895   */\n      swap1\n      pop\n        /* \"#utility.yul\":11483:11902   */\n      swap2\n      swap1\n      pop\n      jump\t// out\n        /* \"#utility.yul\":11908:12156   */\n    tag_166:\n        /* \"#utility.yul\":12048:12082   */\n      0x54696d656c6f636b3a3a657865637574655472616e73616374696f6e3a205472\n        /* \"#utility.yul\":12044:12045   */\n      0x00\n        /* \"#utility.yul\":12036:12042   */\n      dup3\n        /* \"#utility.yul\":12032:12046   */\n      add\n        /* \"#utility.yul\":12025:12083   */\n      mstore\n        /* \"#utility.yul\":12117:12148   */\n      0x616e73616374696f6e206861736e2774206265656e207175657565642e000000\n        /* \"#utility.yul\":12112:12114   */\n      0x20\n        /* \"#utility.yul\":12104:12110   */\n      dup3\n        /* \"#utility.yul\":12100:12115   */\n      add\n        /* \"#utility.yul\":12093:12149   */\n      mstore\n        /* \"#utility.yul\":11908:12156   */\n      pop\n      jump\t// out\n        /* \"#utility.yul\":12162:12528   */\n    tag_167:\n        /* \"#utility.yul\":12304:12307   */\n      0x00\n        /* \"#utility.yul\":12325:12392   */\n      tag_318\n        /* \"#utility.yul\":12389:12391   */\n      0x3d\n        /* \"#utility.yul\":12384:12387   */\n      dup4\n        /* \"#utility.yul\":12325:12392   */\n      tag_162\n      jump\t// in\n    tag_318:\n        /* \"#utility.yul\":12318:12392   */\n      swap2\n      pop\n        /* \"#utility.yul\":12401:12494   */\n      tag_319\n        /* \"#utility.yul\":12490:12493   */\n      dup3\n        /* \"#utility.yul\":12401:12494   */\n      tag_166\n      jump\t// in\n    tag_319:\n        /* \"#utility.yul\":12519:12521   */\n      0x40\n        /* \"#utility.yul\":12514:12517   */\n      dup3\n        /* \"#utility.yul\":12510:12522   */\n      add\n        /* \"#utility.yul\":12503:12522   */\n      swap1\n      pop\n        /* \"#utility.yul\":12162:12528   */\n      swap2\n      swap1\n      pop\n      jump\t// out\n        /* \"#utility.yul\":12534:12953   */\n    tag_75:\n        /* \"#utility.yul\":12700:12704   */\n      0x00\n        /* \"#utility.yul\":12738:12740   */\n      0x20\n        /* \"#utility.yul\":12727:12736   */\n      dup3\n        /* \"#utility.yul\":12723:12741   */\n      add\n        /* \"#utility.yul\":12715:12741   */\n      swap1\n      pop\n        /* \"#utility.yul\":12787:12796   */\n      dup2\n        /* \"#utility.yul\":12781:12785   */\n      dup2\n        /* \"#utility.yul\":12777:12797   */\n      sub\n        /* \"#utility.yul\":12773:12774   */\n      0x00\n        /* \"#utility.yul\":12762:12771   */\n      dup4\n        /* \"#utility.yul\":12758:12775   */\n      add\n        /* \"#utility.yul\":12751:12798   */\n      mstore\n        /* \"#utility.yul\":12815:12946   */\n      tag_321\n        /* \"#utility.yul\":12941:12945   */\n      dup2\n        /* \"#utility.yul\":12815:12946   */\n      tag_167\n      jump\t// in\n    tag_321:\n        /* \"#utility.yul\":12807:12946   */\n      swap1\n      pop\n        /* \"#utility.yul\":12534:12953   */\n      swap2\n      swap1\n      pop\n      jump\t// out\n        /* \"#utility.yul\":12959:13252   */\n    tag_168:\n        /* \"#utility.yul\":13099:13133   */\n      0x54696d656c6f636b3a3a657865637574655472616e73616374696f6e3a205472\n        /* \"#utility.yul\":13095:13096   */\n      0x00\n        /* \"#utility.yul\":13087:13093   */\n      dup3\n        /* \"#utility.yul\":13083:13097   */\n      add\n        /* \"#utility.yul\":13076:13134   */\n      mstore\n        /* \"#utility.yul\":13168:13202   */\n      0x616e73616374696f6e206861736e2774207375727061737365642074696d6520\n        /* \"#utility.yul\":13163:13165   */\n      0x20\n        /* \"#utility.yul\":13155:13161   */\n      dup3\n        /* \"#utility.yul\":13151:13166   */\n      add\n        /* \"#utility.yul\":13144:13203   */\n      mstore\n        /* \"#utility.yul\":13237:13244   */\n      0x6c6f636b2e000000000000000000000000000000000000000000000000000000\n        /* \"#utility.yul\":13232:13234   */\n      0x40\n        /* \"#utility.yul\":13224:13230   */\n      dup3\n        /* \"#utility.yul\":13220:13235   */\n      add\n        /* \"#utility.yul\":13213:13245   */\n      mstore\n        /* \"#utility.yul\":12959:13252   */\n      pop\n      jump\t// out\n        /* \"#utility.yul\":13258:13624   */\n    tag_169:\n        /* \"#utility.yul\":13400:13403   */\n      0x00\n        /* \"#utility.yul\":13421:13488   */\n      tag_324\n        /* \"#utility.yul\":13485:13487   */\n      0x45\n        /* \"#utility.yul\":13480:13483   */\n      dup4\n        /* \"#utility.yul\":13421:13488   */\n      tag_162\n      jump\t// in\n    tag_324:\n        /* \"#utility.yul\":13414:13488   */\n      swap2\n      pop\n        /* \"#utility.yul\":13497:13590   */\n      tag_325\n        /* \"#utility.yul\":13586:13589   */\n      dup3\n        /* \"#utility.yul\":13497:13590   */\n      tag_168\n      jump\t// in\n    tag_325:\n        /* \"#utility.yul\":13615:13617   */\n      0x60\n        /* \"#utility.yul\":13610:13613   */\n      dup3\n        /* \"#utility.yul\":13606:13618   */\n      add\n        /* \"#utility.yul\":13599:13618   */\n      swap1\n      pop\n        /* \"#utility.yul\":13258:13624   */\n      swap2\n      swap1\n      pop\n      jump\t// out\n        /* \"#utility.yul\":13630:14049   */\n    tag_79:\n        /* \"#utility.yul\":13796:13800   */\n      0x00\n        /* \"#utility.yul\":13834:13836   */\n      0x20\n        /* \"#utility.yul\":13823:13832   */\n      dup3\n        /* \"#utility.yul\":13819:13837   */\n      add\n        /* \"#utility.yul\":13811:13837   */\n      swap1\n      pop\n        /* \"#utility.yul\":13883:13892   */\n      dup2\n        /* \"#utility.yul\":13877:13881   */\n      dup2\n        /* \"#utility.yul\":13873:13893   */\n      sub\n        /* \"#utility.yul\":13869:13870   */\n      0x00\n        /* \"#utility.yul\":13858:13867   */\n      dup4\n        /* \"#utility.yul\":13854:13871   */\n      add\n        /* \"#utility.yul\":13847:13894   */\n      mstore\n        /* \"#utility.yul\":13911:14042   */\n      tag_327\n        /* \"#utility.yul\":14037:14041   */\n      dup2\n        /* \"#utility.yul\":13911:14042   */\n      tag_169\n      jump\t// in\n    tag_327:\n        /* \"#utility.yul\":13903:14042   */\n      swap1\n      pop\n        /* \"#utility.yul\":13630:14049   */\n      swap2\n      swap1\n      pop\n      jump\t// out\n        /* \"#utility.yul\":14055:14235   */\n    tag_170:\n        /* \"#utility.yul\":14103:14180   */\n      0x4e487b7100000000000000000000000000000000000000000000000000000000\n        /* \"#utility.yul\":14100:14101   */\n      0x00\n        /* \"#utility.yul\":14093:14181   */\n      mstore\n        /* \"#utility.yul\":14200:14204   */\n      0x11\n        /* \"#utility.yul\":14197:14198   */\n      0x04\n        /* \"#utility.yul\":14190:14205   */\n      mstore\n        /* \"#utility.yul\":14224:14228   */\n      0x24\n        /* \"#utility.yul\":14221:14222   */\n      0x00\n        /* \"#utility.yul\":14214:14229   */\n      revert\n        /* \"#utility.yul\":14241:14432   */\n    tag_81:\n        /* \"#utility.yul\":14281:14284   */\n      0x00\n        /* \"#utility.yul\":14300:14320   */\n      tag_330\n        /* \"#utility.yul\":14318:14319   */\n      dup3\n        /* \"#utility.yul\":14300:14320   */\n      tag_133\n      jump\t// in\n    tag_330:\n        /* \"#utility.yul\":14295:14320   */\n      swap2\n      pop\n        /* \"#utility.yul\":14334:14354   */\n      tag_331\n        /* \"#utility.yul\":14352:14353   */\n      dup4\n        /* \"#utility.yul\":14334:14354   */\n      tag_133\n      jump\t// in\n    tag_331:\n        /* \"#utility.yul\":14329:14354   */\n      swap3\n      pop\n        /* \"#utility.yul\":14377:14378   */\n      dup3\n        /* \"#utility.yul\":14374:14375   */\n      dup3\n        /* \"#utility.yul\":14370:14379   */\n      add\n        /* \"#utility.yul\":14363:14379   */\n      swap1\n      pop\n        /* \"#utility.yul\":14398:14401   */\n      dup1\n        /* \"#utility.yul\":14395:14396   */\n      dup3\n        /* \"#utility.yul\":14392:14402   */\n      gt\n        /* \"#utility.yul\":14389:14425   */\n      iszero\n      tag_332\n      jumpi\n        /* \"#utility.yul\":14405:14423   */\n      tag_333\n      tag_170\n      jump\t// in\n    tag_333:\n        /* \"#utility.yul\":14389:14425   */\n    tag_332:\n        /* \"#utility.yul\":14241:14432   */\n      swap3\n      swap2\n      pop\n      pop\n      jump\t// out\n        /* \"#utility.yul\":14438:14676   */\n    tag_171:\n        /* \"#utility.yul\":14578:14612   */\n      0x54696d656c6f636b3a3a657865637574655472616e73616374696f6e3a205472\n        /* \"#utility.yul\":14574:14575   */\n      0x00\n        /* \"#utility.yul\":14566:14572   */\n      dup3\n        /* \"#utility.yul\":14562:14576   */\n      add\n        /* \"#utility.yul\":14555:14613   */\n      mstore\n        /* \"#utility.yul\":14647:14668   */\n      0x616e73616374696f6e206973207374616c652e00000000000000000000000000\n        /* \"#utility.yul\":14642:14644   */\n      0x20\n        /* \"#utility.yul\":14634:14640   */\n      dup3\n        /* \"#utility.yul\":14630:14645   */\n      add\n        /* \"#utility.yul\":14623:14669   */\n      mstore\n        /* \"#utility.yul\":14438:14676   */\n      pop\n      jump\t// out\n        /* \"#utility.yul\":14682:15048   */\n    tag_172:\n        /* \"#utility.yul\":14824:14827   */\n      0x00\n        /* \"#utility.yul\":14845:14912   */\n      tag_336\n        /* \"#utility.yul\":14909:14911   */\n      0x33\n        /* \"#utility.yul\":14904:14907   */\n      dup4\n        /* \"#utility.yul\":14845:14912   */\n      tag_162\n      jump\t// in\n    tag_336:\n        /* \"#utility.yul\":14838:14912   */\n      swap2\n      pop\n        /* \"#utility.yul\":14921:15014   */\n      tag_337\n        /* \"#utility.yul\":15010:15013   */\n      dup3\n        /* \"#utility.yul\":14921:15014   */\n      tag_171\n      jump\t// in\n    tag_337:\n        /* \"#utility.yul\":15039:15041   */\n      0x40\n        /* \"#utility.yul\":15034:15037   */\n      dup3\n        /* \"#utility.yul\":15030:15042   */\n      add\n        /* \"#utility.yul\":15023:15042   */\n      swap1\n      pop\n        /* \"#utility.yul\":14682:15048   */\n      swap2\n      swap1\n      pop\n      jump\t// out\n        /* \"#utility.yul\":15054:15473   */\n    tag_85:\n        /* \"#utility.yul\":15220:15224   */\n      0x00\n        /* \"#utility.yul\":15258:15260   */\n      0x20\n        /* \"#utility.yul\":15247:15256   */\n      dup3\n        /* \"#utility.yul\":15243:15261   */\n      add\n        /* \"#utility.yul\":15235:15261   */\n      swap1\n      pop\n        /* \"#utility.yul\":15307:15316   */\n      dup2\n        /* \"#utility.yul\":15301:15305   */\n      dup2\n        /* \"#utility.yul\":15297:15317   */\n      sub\n        /* \"#utility.yul\":15293:15294   */\n      0x00\n        /* \"#utility.yul\":15282:15291   */\n      dup4\n        /* \"#utility.yul\":15278:15295   */\n      add\n        /* \"#utility.yul\":15271:15318   */\n      mstore\n        /* \"#utility.yul\":15335:15466   */\n      tag_339\n        /* \"#utility.yul\":15461:15465   */\n      dup2\n        /* \"#utility.yul\":15335:15466   */\n      tag_172\n      jump\t// in\n    tag_339:\n        /* \"#utility.yul\":15327:15466   */\n      swap1\n      pop\n        /* \"#utility.yul\":15054:15473   */\n      swap2\n      swap1\n      pop\n      jump\t// out\n        /* \"#utility.yul\":15479:15628   */\n    tag_173:\n        /* \"#utility.yul\":15515:15522   */\n      0x00\n        /* \"#utility.yul\":15555:15621   */\n      0xffffffff00000000000000000000000000000000000000000000000000000000\n        /* \"#utility.yul\":15548:15553   */\n      dup3\n        /* \"#utility.yul\":15544:15622   */\n      and\n        /* \"#utility.yul\":15533:15622   */\n      swap1\n      pop\n        /* \"#utility.yul\":15479:15628   */\n      swap2\n      swap1\n      pop\n      jump\t// out\n        /* \"#utility.yul\":15634:15712   */\n    tag_174:\n        /* \"#utility.yul\":15672:15679   */\n      0x00\n        /* \"#utility.yul\":15701:15706   */\n      dup2\n        /* \"#utility.yul\":15690:15706   */\n      swap1\n      pop\n        /* \"#utility.yul\":15634:15712   */\n      swap2\n      swap1\n      pop\n      jump\t// out\n        /* \"#utility.yul\":15718:15871   */\n    tag_175:\n        /* \"#utility.yul\":15821:15864   */\n      tag_343\n        /* \"#utility.yul\":15840:15863   */\n      tag_344\n        /* \"#utility.yul\":15857:15862   */\n      dup3\n        /* \"#utility.yul\":15840:15863   */\n      tag_173\n      jump\t// in\n    tag_344:\n        /* \"#utility.yul\":15821:15864   */\n      tag_174\n      jump\t// in\n    tag_343:\n        /* \"#utility.yul\":15816:15819   */\n      dup3\n        /* \"#utility.yul\":15809:15865   */\n      mstore\n        /* \"#utility.yul\":15718:15871   */\n      pop\n      pop\n      jump\t// out\n        /* \"#utility.yul\":15877:16024   */\n    tag_176:\n        /* \"#utility.yul\":15978:15989   */\n      0x00\n        /* \"#utility.yul\":16015:16018   */\n      dup2\n        /* \"#utility.yul\":16000:16018   */\n      swap1\n      pop\n        /* \"#utility.yul\":15877:16024   */\n      swap3\n      swap2\n      pop\n      pop\n      jump\t// out\n        /* \"#utility.yul\":16030:16416   */\n    tag_177:\n        /* \"#utility.yul\":16134:16137   */\n      0x00\n        /* \"#utility.yul\":16162:16200   */\n      tag_347\n        /* \"#utility.yul\":16194:16199   */\n      dup3\n        /* \"#utility.yul\":16162:16200   */\n      tag_151\n      jump\t// in\n    tag_347:\n        /* \"#utility.yul\":16216:16304   */\n      tag_348\n        /* \"#utility.yul\":16297:16303   */\n      dup2\n        /* \"#utility.yul\":16292:16295   */\n      dup6\n        /* \"#utility.yul\":16216:16304   */\n      tag_176\n      jump\t// in\n    tag_348:\n        /* \"#utility.yul\":16209:16304   */\n      swap4\n      pop\n        /* \"#utility.yul\":16313:16378   */\n      tag_349\n        /* \"#utility.yul\":16371:16377   */\n      dup2\n        /* \"#utility.yul\":16366:16369   */\n      dup6\n        /* \"#utility.yul\":16359:16363   */\n      0x20\n        /* \"#utility.yul\":16352:16357   */\n      dup7\n        /* \"#utility.yul\":16348:16364   */\n      add\n        /* \"#utility.yul\":16313:16378   */\n      tag_153\n      jump\t// in\n    tag_349:\n        /* \"#utility.yul\":16403:16409   */\n      dup1\n        /* \"#utility.yul\":16398:16401   */\n      dup5\n        /* \"#utility.yul\":16394:16410   */\n      add\n        /* \"#utility.yul\":16387:16410   */\n      swap2\n      pop\n        /* \"#utility.yul\":16138:16416   */\n      pop\n        /* \"#utility.yul\":16030:16416   */\n      swap3\n      swap2\n      pop\n      pop\n      jump\t// out\n        /* \"#utility.yul\":16422:16829   */\n    tag_89:\n        /* \"#utility.yul\":16578:16581   */\n      0x00\n        /* \"#utility.yul\":16593:16666   */\n      tag_351\n        /* \"#utility.yul\":16662:16665   */\n      dup3\n        /* \"#utility.yul\":16653:16659   */\n      dup6\n        /* \"#utility.yul\":16593:16666   */\n      tag_175\n      jump\t// in\n    tag_351:\n        /* \"#utility.yul\":16691:16692   */\n      0x04\n        /* \"#utility.yul\":16686:16689   */\n      dup3\n        /* \"#utility.yul\":16682:16693   */\n      add\n        /* \"#utility.yul\":16675:16693   */\n      swap2\n      pop\n        /* \"#utility.yul\":16710:16803   */\n      tag_352\n        /* \"#utility.yul\":16799:16802   */\n      dup3\n        /* \"#utility.yul\":16790:16796   */\n      dup5\n        /* \"#utility.yul\":16710:16803   */\n      tag_177\n      jump\t// in\n    tag_352:\n        /* \"#utility.yul\":16703:16803   */\n      swap2\n      pop\n        /* \"#utility.yul\":16820:16823   */\n      dup2\n        /* \"#utility.yul\":16813:16823   */\n      swap1\n      pop\n        /* \"#utility.yul\":16422:16829   */\n      swap4\n      swap3\n      pop\n      pop\n      pop\n      jump\t// out\n        /* \"#utility.yul\":16835:17106   */\n    tag_91:\n        /* \"#utility.yul\":16965:16968   */\n      0x00\n        /* \"#utility.yul\":16987:17080   */\n      tag_354\n        /* \"#utility.yul\":17076:17079   */\n      dup3\n        /* \"#utility.yul\":17067:17073   */\n      dup5\n        /* \"#utility.yul\":16987:17080   */\n      tag_177\n      jump\t// in\n    tag_354:\n        /* \"#utility.yul\":16980:17080   */\n      swap2\n      pop\n        /* \"#utility.yul\":17097:17100   */\n      dup2\n        /* \"#utility.yul\":17090:17100   */\n      swap1\n      pop\n        /* \"#utility.yul\":16835:17106   */\n      swap3\n      swap2\n      pop\n      pop\n      jump\t// out\n        /* \"#utility.yul\":17112:17360   */\n    tag_178:\n        /* \"#utility.yul\":17252:17286   */\n      0x54696d656c6f636b3a3a657865637574655472616e73616374696f6e3a205472\n        /* \"#utility.yul\":17248:17249   */\n      0x00\n        /* \"#utility.yul\":17240:17246   */\n      dup3\n        /* \"#utility.yul\":17236:17250   */\n      add\n        /* \"#utility.yul\":17229:17287   */\n      mstore\n        /* \"#utility.yul\":17321:17352   */\n      0x616e73616374696f6e20657865637574696f6e2072657665727465642e000000\n        /* \"#utility.yul\":17316:17318   */\n      0x20\n        /* \"#utility.yul\":17308:17314   */\n      dup3\n        /* \"#utility.yul\":17304:17319   */\n      add\n        /* \"#utility.yul\":17297:17353   */\n      mstore\n        /* \"#utility.yul\":17112:17360   */\n      pop\n      jump\t// out\n        /* \"#utility.yul\":17366:17732   */\n    tag_179:\n        /* \"#utility.yul\":17508:17511   */\n      0x00\n        /* \"#utility.yul\":17529:17596   */\n      tag_357\n        /* \"#utility.yul\":17593:17595   */\n      0x3d\n        /* \"#utility.yul\":17588:17591   */\n      dup4\n        /* \"#utility.yul\":17529:17596   */\n      tag_162\n      jump\t// in\n    tag_357:\n        /* \"#utility.yul\":17522:17596   */\n      swap2\n      pop\n        /* \"#utility.yul\":17605:17698   */\n      tag_358\n        /* \"#utility.yul\":17694:17697   */\n      dup3\n        /* \"#utility.yul\":17605:17698   */\n      tag_178\n      jump\t// in\n    tag_358:\n        /* \"#utility.yul\":17723:17725   */\n      0x40\n        /* \"#utility.yul\":17718:17721   */\n      dup3\n        /* \"#utility.yul\":17714:17726   */\n      add\n        /* \"#utility.yul\":17707:17726   */\n      swap1\n      pop\n        /* \"#utility.yul\":17366:17732   */\n      swap2\n      swap1\n      pop\n      jump\t// out\n        /* \"#utility.yul\":17738:18157   */\n    tag_97:\n        /* \"#utility.yul\":17904:17908   */\n      0x00\n        /* \"#utility.yul\":17942:17944   */\n      0x20\n        /* \"#utility.yul\":17931:17940   */\n      dup3\n        /* \"#utility.yul\":17927:17945   */\n      add\n        /* \"#utility.yul\":17919:17945   */\n      swap1\n      pop\n        /* \"#utility.yul\":17991:18000   */\n      dup2\n        /* \"#utility.yul\":17985:17989   */\n      dup2\n        /* \"#utility.yul\":17981:18001   */\n      sub\n        /* \"#utility.yul\":17977:17978   */\n      0x00\n        /* \"#utility.yul\":17966:17975   */\n      dup4\n        /* \"#utility.yul\":17962:17979   */\n      add\n        /* \"#utility.yul\":17955:18002   */\n      mstore\n        /* \"#utility.yul\":18019:18150   */\n      tag_360\n        /* \"#utility.yul\":18145:18149   */\n      dup2\n        /* \"#utility.yul\":18019:18150   */\n      tag_179\n      jump\t// in\n    tag_360:\n        /* \"#utility.yul\":18011:18150   */\n      swap1\n      pop\n        /* \"#utility.yul\":17738:18157   */\n      swap2\n      swap1\n      pop\n      jump\t// out\n        /* \"#utility.yul\":18163:18894   */\n    tag_99:\n        /* \"#utility.yul\":18378:18382   */\n      0x00\n        /* \"#utility.yul\":18416:18419   */\n      0x80\n        /* \"#utility.yul\":18405:18414   */\n      dup3\n        /* \"#utility.yul\":18401:18420   */\n      add\n        /* \"#utility.yul\":18393:18420   */\n      swap1\n      pop\n        /* \"#utility.yul\":18430:18501   */\n      tag_362\n        /* \"#utility.yul\":18498:18499   */\n      0x00\n        /* \"#utility.yul\":18487:18496   */\n      dup4\n        /* \"#utility.yul\":18483:18500   */\n      add\n        /* \"#utility.yul\":18474:18480   */\n      dup8\n        /* \"#utility.yul\":18430:18501   */\n      tag_155\n      jump\t// in\n    tag_362:\n        /* \"#utility.yul\":18548:18557   */\n      dup2\n        /* \"#utility.yul\":18542:18546   */\n      dup2\n        /* \"#utility.yul\":18538:18558   */\n      sub\n        /* \"#utility.yul\":18533:18535   */\n      0x20\n        /* \"#utility.yul\":18522:18531   */\n      dup4\n        /* \"#utility.yul\":18518:18536   */\n      add\n        /* \"#utility.yul\":18511:18559   */\n      mstore\n        /* \"#utility.yul\":18576:18654   */\n      tag_363\n        /* \"#utility.yul\":18649:18653   */\n      dup2\n        /* \"#utility.yul\":18640:18646   */\n      dup7\n        /* \"#utility.yul\":18576:18654   */\n      tag_163\n      jump\t// in\n    tag_363:\n        /* \"#utility.yul\":18568:18654   */\n      swap1\n      pop\n        /* \"#utility.yul\":18701:18710   */\n      dup2\n        /* \"#utility.yul\":18695:18699   */\n      dup2\n        /* \"#utility.yul\":18691:18711   */\n      sub\n        /* \"#utility.yul\":18686:18688   */\n      0x40\n        /* \"#utility.yul\":18675:18684   */\n      dup4\n        /* \"#utility.yul\":18671:18689   */\n      add\n        /* \"#utility.yul\":18664:18712   */\n      mstore\n        /* \"#utility.yul\":18729:18805   */\n      tag_364\n        /* \"#utility.yul\":18800:18804   */\n      dup2\n        /* \"#utility.yul\":18791:18797   */\n      dup6\n        /* \"#utility.yul\":18729:18805   */\n      tag_154\n      jump\t// in\n    tag_364:\n        /* \"#utility.yul\":18721:18805   */\n      swap1\n      pop\n        /* \"#utility.yul\":18815:18887   */\n      tag_365\n        /* \"#utility.yul\":18883:18885   */\n      0x60\n        /* \"#utility.yul\":18872:18881   */\n      dup4\n        /* \"#utility.yul\":18868:18886   */\n      add\n        /* \"#utility.yul\":18859:18865   */\n      dup5\n        /* \"#utility.yul\":18815:18887   */\n      tag_155\n      jump\t// in\n    tag_365:\n        /* \"#utility.yul\":18163:18894   */\n      swap6\n      swap5\n      pop\n      pop\n      pop\n      pop\n      pop\n      jump\t// out\n        /* \"#utility.yul\":18900:19197   */\n    tag_180:\n        /* \"#utility.yul\":19040:19074   */\n      0x54696d656c6f636b3a3a71756575655472616e73616374696f6e3a2045737469\n        /* \"#utility.yul\":19036:19037   */\n      0x00\n        /* \"#utility.yul\":19028:19034   */\n      dup3\n        /* \"#utility.yul\":19024:19038   */\n      add\n        /* \"#utility.yul\":19017:19075   */\n      mstore\n        /* \"#utility.yul\":19109:19143   */\n      0x6d6174656420657865637574696f6e20626c6f636b206d757374207361746973\n        /* \"#utility.yul\":19104:19106   */\n      0x20\n        /* \"#utility.yul\":19096:19102   */\n      dup3\n        /* \"#utility.yul\":19092:19107   */\n      add\n        /* \"#utility.yul\":19085:19144   */\n      mstore\n        /* \"#utility.yul\":19178:19189   */\n      0x66792064656c61792e0000000000000000000000000000000000000000000000\n        /* \"#utility.yul\":19173:19175   */\n      0x40\n        /* \"#utility.yul\":19165:19171   */\n      dup3\n        /* \"#utility.yul\":19161:19176   */\n      add\n        /* \"#utility.yul\":19154:19190   */\n      mstore\n        /* \"#utility.yul\":18900:19197   */\n      pop\n      jump\t// out\n        /* \"#utility.yul\":19203:19569   */\n    tag_181:\n        /* \"#utility.yul\":19345:19348   */\n      0x00\n        /* \"#utility.yul\":19366:19433   */\n      tag_368\n        /* \"#utility.yul\":19430:19432   */\n      0x49\n        /* \"#utility.yul\":19425:19428   */\n      dup4\n        /* \"#utility.yul\":19366:19433   */\n      tag_162\n      jump\t// in\n    tag_368:\n        /* \"#utility.yul\":19359:19433   */\n      swap2\n      pop\n        /* \"#utility.yul\":19442:19535   */\n      tag_369\n        /* \"#utility.yul\":19531:19534   */\n      dup3\n        /* \"#utility.yul\":19442:19535   */\n      tag_180\n      jump\t// in\n    tag_369:\n        /* \"#utility.yul\":19560:19562   */\n      0x60\n        /* \"#utility.yul\":19555:19558   */\n      dup3\n        /* \"#utility.yul\":19551:19563   */\n      add\n        /* \"#utility.yul\":19544:19563   */\n      swap1\n      pop\n        /* \"#utility.yul\":19203:19569   */\n      swap2\n      swap1\n      pop\n      jump\t// out\n        /* \"#utility.yul\":19575:19994   */\n    tag_108:\n        /* \"#utility.yul\":19741:19745   */\n      0x00\n        /* \"#utility.yul\":19779:19781   */\n      0x20\n        /* \"#utility.yul\":19768:19777   */\n      dup3\n        /* \"#utility.yul\":19764:19782   */\n      add\n        /* \"#utility.yul\":19756:19782   */\n      swap1\n      pop\n        /* \"#utility.yul\":19828:19837   */\n      dup2\n        /* \"#utility.yul\":19822:19826   */\n      dup2\n        /* \"#utility.yul\":19818:19838   */\n      sub\n        /* \"#utility.yul\":19814:19815   */\n      0x00\n        /* \"#utility.yul\":19803:19812   */\n      dup4\n        /* \"#utility.yul\":19799:19816   */\n      add\n        /* \"#utility.yul\":19792:19839   */\n      mstore\n        /* \"#utility.yul\":19856:19987   */\n      tag_371\n        /* \"#utility.yul\":19982:19986   */\n      dup2\n        /* \"#utility.yul\":19856:19987   */\n      tag_181\n      jump\t// in\n    tag_371:\n        /* \"#utility.yul\":19848:19987   */\n      swap1\n      pop\n        /* \"#utility.yul\":19575:19994   */\n      swap2\n      swap1\n      pop\n      jump\t// out\n        /* \"#utility.yul\":20000:20247   */\n    tag_182:\n        /* \"#utility.yul\":20140:20174   */\n      0x54696d656c6f636b3a3a63616e63656c5472616e73616374696f6e3a20547261\n        /* \"#utility.yul\":20136:20137   */\n      0x00\n        /* \"#utility.yul\":20128:20134   */\n      dup3\n        /* \"#utility.yul\":20124:20138   */\n      add\n        /* \"#utility.yul\":20117:20175   */\n      mstore\n        /* \"#utility.yul\":20209:20239   */\n      0x6e73616374696f6e206861736e2774206265656e207175657565642e00000000\n        /* \"#utility.yul\":20204:20206   */\n      0x20\n        /* \"#utility.yul\":20196:20202   */\n      dup3\n        /* \"#utility.yul\":20192:20207   */\n      add\n        /* \"#utility.yul\":20185:20240   */\n      mstore\n        /* \"#utility.yul\":20000:20247   */\n      pop\n      jump\t// out\n        /* \"#utility.yul\":20253:20619   */\n    tag_183:\n        /* \"#utility.yul\":20395:20398   */\n      0x00\n        /* \"#utility.yul\":20416:20483   */\n      tag_374\n        /* \"#utility.yul\":20480:20482   */\n      0x3c\n        /* \"#utility.yul\":20475:20478   */\n      dup4\n        /* \"#utility.yul\":20416:20483   */\n      tag_162\n      jump\t// in\n    tag_374:\n        /* \"#utility.yul\":20409:20483   */\n      swap2\n      pop\n        /* \"#utility.yul\":20492:20585   */\n      tag_375\n        /* \"#utility.yul\":20581:20584   */\n      dup3\n        /* \"#utility.yul\":20492:20585   */\n      tag_182\n      jump\t// in\n    tag_375:\n        /* \"#utility.yul\":20610:20612   */\n      0x40\n        /* \"#utility.yul\":20605:20608   */\n      dup3\n        /* \"#utility.yul\":20601:20613   */\n      add\n        /* \"#utility.yul\":20594:20613   */\n      swap1\n      pop\n        /* \"#utility.yul\":20253:20619   */\n      swap2\n      swap1\n      pop\n      jump\t// out\n        /* \"#utility.yul\":20625:21044   */\n    tag_118:\n        /* \"#utility.yul\":20791:20795   */\n      0x00\n        /* \"#utility.yul\":20829:20831   */\n      0x20\n        /* \"#utility.yul\":20818:20827   */\n      dup3\n        /* \"#utility.yul\":20814:20832   */\n      add\n        /* \"#utility.yul\":20806:20832   */\n      swap1\n      pop\n        /* \"#utility.yul\":20878:20887   */\n      dup2\n        /* \"#utility.yul\":20872:20876   */\n      dup2\n        /* \"#utility.yul\":20868:20888   */\n      sub\n        /* \"#utility.yul\":20864:20865   */\n      0x00\n        /* \"#utility.yul\":20853:20862   */\n      dup4\n        /* \"#utility.yul\":20849:20866   */\n      add\n        /* \"#utility.yul\":20842:20889   */\n      mstore\n        /* \"#utility.yul\":20906:21037   */\n      tag_377\n        /* \"#utility.yul\":21032:21036   */\n      dup2\n        /* \"#utility.yul\":20906:21037   */\n      tag_183\n      jump\t// in\n    tag_377:\n        /* \"#utility.yul\":20898:21037   */\n      swap1\n      pop\n        /* \"#utility.yul\":20625:21044   */\n      swap2\n      swap1\n      pop\n      jump\t// out\n        /* \"#utility.yul\":21050:21229   */\n    tag_184:\n        /* \"#utility.yul\":21190:21221   */\n      0x54696d656c6f636b3a2043616c6c6572206e6f742054696d656c6f636b000000\n        /* \"#utility.yul\":21186:21187   */\n      0x00\n        /* \"#utility.yul\":21178:21184   */\n      dup3\n        /* \"#utility.yul\":21174:21188   */\n      add\n        /* \"#utility.yul\":21167:21222   */\n      mstore\n        /* \"#utility.yul\":21050:21229   */\n      pop\n      jump\t// out\n        /* \"#utility.yul\":21235:21601   */\n    tag_185:\n        /* \"#utility.yul\":21377:21380   */\n      0x00\n        /* \"#utility.yul\":21398:21465   */\n      tag_380\n        /* \"#utility.yul\":21462:21464   */\n      0x1d\n        /* \"#utility.yul\":21457:21460   */\n      dup4\n        /* \"#utility.yul\":21398:21465   */\n      tag_162\n      jump\t// in\n    tag_380:\n        /* \"#utility.yul\":21391:21465   */\n      swap2\n      pop\n        /* \"#utility.yul\":21474:21567   */\n      tag_381\n        /* \"#utility.yul\":21563:21566   */\n      dup3\n        /* \"#utility.yul\":21474:21567   */\n      tag_184\n      jump\t// in\n    tag_381:\n        /* \"#utility.yul\":21592:21594   */\n      0x20\n        /* \"#utility.yul\":21587:21590   */\n      dup3\n        /* \"#utility.yul\":21583:21595   */\n      add\n        /* \"#utility.yul\":21576:21595   */\n      swap1\n      pop\n        /* \"#utility.yul\":21235:21601   */\n      swap2\n      swap1\n      pop\n      jump\t// out\n        /* \"#utility.yul\":21607:22026   */\n    tag_124:\n        /* \"#utility.yul\":21773:21777   */\n      0x00\n        /* \"#utility.yul\":21811:21813   */\n      0x20\n        /* \"#utility.yul\":21800:21809   */\n      dup3\n        /* \"#utility.yul\":21796:21814   */\n      add\n        /* \"#utility.yul\":21788:21814   */\n      swap1\n      pop\n        /* \"#utility.yul\":21860:21869   */\n      dup2\n        /* \"#utility.yul\":21854:21858   */\n      dup2\n        /* \"#utility.yul\":21850:21870   */\n      sub\n        /* \"#utility.yul\":21846:21847   */\n      0x00\n        /* \"#utility.yul\":21835:21844   */\n      dup4\n        /* \"#utility.yul\":21831:21848   */\n      add\n        /* \"#utility.yul\":21824:21871   */\n      mstore\n        /* \"#utility.yul\":21888:22019   */\n      tag_383\n        /* \"#utility.yul\":22014:22018   */\n      dup2\n        /* \"#utility.yul\":21888:22019   */\n      tag_185\n      jump\t// in\n    tag_383:\n        /* \"#utility.yul\":21880:22019   */\n      swap1\n      pop\n        /* \"#utility.yul\":21607:22026   */\n      swap2\n      swap1\n      pop\n      jump\t// out\n\n    auxdata: 0xa2646970667358221220c9b888b221bcff35b0125f7fec191d93befe8f1c2e5ea86b348b40369d7a55ce64736f6c634300081e0033\n}\n",
				"bytecode": {
					"linkReferences": {},
					"object": "6080604052348015600e575f5ffd5b5060405161168d38038061168d8339818101604052810190602e919060ab565b80600181905550335f5f6101000a81548173ffffffffffffffffffffffffffffffffffffffff021916908373ffffffffffffffffffffffffffffffffffffffff1602179055505060d1565b5f5ffd5b5f819050919050565b608d81607d565b81146096575f5ffd5b50565b5f8151905060a5816086565b92915050565b5f6020828403121560bd5760bc6079565b5b5f60c8848285016099565b91505092915050565b6115af806100de5f395ff3fe608060405260043610610090575f3560e01c8063796b89b911610058578063796b89b91461018e5780638f283970146101b8578063c1a287e2146101e0578063f2b065371461020a578063f851a4401461024657610090565b806304a71576146100945780630825f38f146100d05780633a66f90114610100578063591fcdfe1461013c5780636a42b8f814610164575b5f5ffd5b34801561009f575f5ffd5b506100ba60048036038101906100b59190610c82565b610270565b6040516100c79190610d49565b60405180910390f35b6100ea60048036038101906100e59190610c82565b6102ab565b6040516100f79190610dc2565b60405180910390f35b34801561010b575f5ffd5b5061012660048036038101906101219190610c82565b6105c1565b6040516101339190610d49565b60405180910390f35b348015610147575f5ffd5b50610162600480360381019061015d9190610c82565b610742565b005b34801561016f575f5ffd5b506101786108c2565b6040516101859190610df1565b60405180910390f35b348015610199575f5ffd5b506101a26108c8565b6040516101af9190610df1565b60405180910390f35b3480156101c3575f5ffd5b506101de60048036038101906101d99190610e0a565b6108cf565b005b3480156101eb575f5ffd5b506101f46109c2565b6040516102019190610df1565b60405180910390f35b348015610215575f5ffd5b50610230600480360381019061022b9190610e5f565b6109c9565b60405161023d9190610ea4565b60405180910390f35b348015610251575f5ffd5b5061025a6109e6565b6040516102679190610ecc565b60405180910390f35b5f858585858560405160200161028a959493929190610f37565b60405160208183030381529060405280519060200120905095945050505050565b60605f5f9054906101000a900473ffffffffffffffffffffffffffffffffffffffff1673ffffffffffffffffffffffffffffffffffffffff163373ffffffffffffffffffffffffffffffffffffffff161461033b576040517f08c379a000000000000000000000000000000000000000000000000000000000815260040161033290610fe0565b60405180910390fd5b5f6103498787878787610270565b905060025f8281526020019081526020015f205f9054906101000a900460ff166103a8576040517f08c379a000000000000000000000000000000000000000000000000000000000815260040161039f9061106e565b60405180910390fd5b826103b16108c8565b10156103f2576040517f08c379a00000000000000000000000000000000000000000000000000000000081526004016103e990611122565b60405180910390fd5b62093a8083610401919061116d565b6104096108c8565b111561044a576040517f08c379a000000000000000000000000000000000000000000000000000000000815260040161044190611210565b60405180910390fd5b5f60025f8381526020019081526020015f205f6101000a81548160ff02191690831515021790555060605f865103610484578490506104b0565b85805190602001208560405160200161049e9291906112b3565b60405160208183030381529060405290505b5f5f8973ffffffffffffffffffffffffffffffffffffffff1689846040516104d891906112da565b5f6040518083038185875af1925050503d805f8114610512576040519150601f19603f3d011682016040523d82523d5f602084013e610517565b606091505b50915091508161055c576040517f08c379a000000000000000000000000000000000000000000000000000000000815260040161055390611360565b60405180910390fd5b8973ffffffffffffffffffffffffffffffffffffffff16847fa560e3198060a2f10670c1ec5b403077ea6ae93ca8de1c32b451dc1a943cd6e78b8b8b8b6040516105a9949392919061137e565b60405180910390a38094505050505095945050505050565b5f5f5f9054906101000a900473ffffffffffffffffffffffffffffffffffffffff1673ffffffffffffffffffffffffffffffffffffffff163373ffffffffffffffffffffffffffffffffffffffff1614610650576040517f08c379a000000000000000000000000000000000000000000000000000000000815260040161064790610fe0565b60405180910390fd5b60015461065b6108c8565b610665919061116d565b8210156106a7576040517f08c379a000000000000000000000000000000000000000000000000000000000815260040161069e90611465565b60405180910390fd5b5f6106b58787878787610270565b9050600160025f8381526020019081526020015f205f6101000a81548160ff0219169083151502179055508673ffffffffffffffffffffffffffffffffffffffff16817f76e2796dc3a81d57b0e8504b647febcbeeb5f4af818e164f11eef8131a6a763f8888888860405161072d949392919061137e565b60405180910390a38091505095945050505050565b5f5f9054906101000a900473ffffffffffffffffffffffffffffffffffffffff1673ffffffffffffffffffffffffffffffffffffffff163373ffffffffffffffffffffffffffffffffffffffff16146107d0576040517f08c379a00000000000000000000000000000000000000000000000000000000081526004016107c790610fe0565b60405180910390fd5b5f6107de8686868686610270565b905060025f8281526020019081526020015f205f9054906101000a900460ff1661083d576040517f08c379a0000000000000000000000000000000000000000000000000000000008152600401610834906114f3565b60405180910390fd5b5f60025f8381526020019081526020015f205f6101000a81548160ff0219169083151502179055508573ffffffffffffffffffffffffffffffffffffffff16817f2fffc091a501fd91bfbff27141450d3acb40fb8e6d8382b243ec7a812a3aaf87878787876040516108b2949392919061137e565b60405180910390a3505050505050565b60015481565b5f42905090565b3073ffffffffffffffffffffffffffffffffffffffff163373ffffffffffffffffffffffffffffffffffffffff161461093d576040517f08c379a00000000000000000000000000000000000000000000000000000000081526004016109349061155b565b60405180910390fd5b805f5f6101000a81548173ffffffffffffffffffffffffffffffffffffffff021916908373ffffffffffffffffffffffffffffffffffffffff1602179055508073ffffffffffffffffffffffffffffffffffffffff167f71614071b88dee5e0b2ae578a9dd7b2ebbe9ae832ba419dc0242cd065a290b6c60405160405180910390a250565b62093a8081565b6002602052805f5260405f205f915054906101000a900460ff1681565b5f5f9054906101000a900473ffffffffffffffffffffffffffffffffffffffff1681565b5f604051905090565b5f5ffd5b5f5ffd5b5f73ffffffffffffffffffffffffffffffffffffffff82169050919050565b5f610a4482610a1b565b9050919050565b610a5481610a3a565b8114610a5e575f5ffd5b50565b5f81359050610a6f81610a4b565b92915050565b5f819050919050565b610a8781610a75565b8114610a91575f5ffd5b50565b5f81359050610aa281610a7e565b92915050565b5f5ffd5b5f5ffd5b5f601f19601f8301169050919050565b7f4e487b71000000000000000000000000000000000000000000000000000000005f52604160045260245ffd5b610af682610ab0565b810181811067ffffffffffffffff82111715610b1557610b14610ac0565b5b80604052505050565b5f610b27610a0a565b9050610b338282610aed565b919050565b5f67ffffffffffffffff821115610b5257610b51610ac0565b5b610b5b82610ab0565b9050602081019050919050565b828183375f83830152505050565b5f610b88610b8384610b38565b610b1e565b905082815260208101848484011115610ba457610ba3610aac565b5b610baf848285610b68565b509392505050565b5f82601f830112610bcb57610bca610aa8565b5b8135610bdb848260208601610b76565b91505092915050565b5f67ffffffffffffffff821115610bfe57610bfd610ac0565b5b610c0782610ab0565b9050602081019050919050565b5f610c26610c2184610be4565b610b1e565b905082815260208101848484011115610c4257610c41610aac565b5b610c4d848285610b68565b509392505050565b5f82601f830112610c6957610c68610aa8565b5b8135610c79848260208601610c14565b91505092915050565b5f5f5f5f5f60a08688031215610c9b57610c9a610a13565b5b5f610ca888828901610a61565b9550506020610cb988828901610a94565b945050604086013567ffffffffffffffff811115610cda57610cd9610a17565b5b610ce688828901610bb7565b935050606086013567ffffffffffffffff811115610d0757610d06610a17565b5b610d1388828901610c55565b9250506080610d2488828901610a94565b9150509295509295909350565b5f819050919050565b610d4381610d31565b82525050565b5f602082019050610d5c5f830184610d3a565b92915050565b5f81519050919050565b5f82825260208201905092915050565b8281835e5f83830152505050565b5f610d9482610d62565b610d9e8185610d6c565b9350610dae818560208601610d7c565b610db781610ab0565b840191505092915050565b5f6020820190508181035f830152610dda8184610d8a565b905092915050565b610deb81610a75565b82525050565b5f602082019050610e045f830184610de2565b92915050565b5f60208284031215610e1f57610e1e610a13565b5b5f610e2c84828501610a61565b91505092915050565b610e3e81610d31565b8114610e48575f5ffd5b50565b5f81359050610e5981610e35565b92915050565b5f60208284031215610e7457610e73610a13565b5b5f610e8184828501610e4b565b91505092915050565b5f8115159050919050565b610e9e81610e8a565b82525050565b5f602082019050610eb75f830184610e95565b92915050565b610ec681610a3a565b82525050565b5f602082019050610edf5f830184610ebd565b92915050565b5f81519050919050565b5f82825260208201905092915050565b5f610f0982610ee5565b610f138185610eef565b9350610f23818560208601610d7c565b610f2c81610ab0565b840191505092915050565b5f60a082019050610f4a5f830188610ebd565b610f576020830187610de2565b8181036040830152610f698186610eff565b90508181036060830152610f7d8185610d8a565b9050610f8c6080830184610de2565b9695505050505050565b7f54696d656c6f636b3a2043616c6c6572206e6f742061646d696e0000000000005f82015250565b5f610fca601a83610eef565b9150610fd582610f96565b602082019050919050565b5f6020820190508181035f830152610ff781610fbe565b9050919050565b7f54696d656c6f636b3a3a657865637574655472616e73616374696f6e3a2054725f8201527f616e73616374696f6e206861736e2774206265656e207175657565642e000000602082015250565b5f611058603d83610eef565b915061106382610ffe565b604082019050919050565b5f6020820190508181035f8301526110858161104c565b9050919050565b7f54696d656c6f636b3a3a657865637574655472616e73616374696f6e3a2054725f8201527f616e73616374696f6e206861736e2774207375727061737365642074696d652060208201527f6c6f636b2e000000000000000000000000000000000000000000000000000000604082015250565b5f61110c604583610eef565b91506111178261108c565b606082019050919050565b5f6020820190508181035f83015261113981611100565b9050919050565b7f4e487b71000000000000000000000000000000000000000000000000000000005f52601160045260245ffd5b5f61117782610a75565b915061118283610a75565b925082820190508082111561119a57611199611140565b5b92915050565b7f54696d656c6f636b3a3a657865637574655472616e73616374696f6e3a2054725f8201527f616e73616374696f6e206973207374616c652e00000000000000000000000000602082015250565b5f6111fa603383610eef565b9150611205826111a0565b604082019050919050565b5f6020820190508181035f830152611227816111ee565b9050919050565b5f7fffffffff0000000000000000000000000000000000000000000000000000000082169050919050565b5f819050919050565b61127361126e8261122e565b611259565b82525050565b5f81905092915050565b5f61128d82610d62565b6112978185611279565b93506112a7818560208601610d7c565b80840191505092915050565b5f6112be8285611262565b6004820191506112ce8284611283565b91508190509392505050565b5f6112e58284611283565b915081905092915050565b7f54696d656c6f636b3a3a657865637574655472616e73616374696f6e3a2054725f8201527f616e73616374696f6e20657865637574696f6e2072657665727465642e000000602082015250565b5f61134a603d83610eef565b9150611355826112f0565b604082019050919050565b5f6020820190508181035f8301526113778161133e565b9050919050565b5f6080820190506113915f830187610de2565b81810360208301526113a38186610eff565b905081810360408301526113b78185610d8a565b90506113c66060830184610de2565b95945050505050565b7f54696d656c6f636b3a3a71756575655472616e73616374696f6e3a20457374695f8201527f6d6174656420657865637574696f6e20626c6f636b206d75737420736174697360208201527f66792064656c61792e0000000000000000000000000000000000000000000000604082015250565b5f61144f604983610eef565b915061145a826113cf565b606082019050919050565b5f6020820190508181035f83015261147c81611443565b9050919050565b7f54696d656c6f636b3a3a63616e63656c5472616e73616374696f6e3a205472615f8201527f6e73616374696f6e206861736e2774206265656e207175657565642e00000000602082015250565b5f6114dd603c83610eef565b91506114e882611483565b604082019050919050565b5f6020820190508181035f83015261150a816114d1565b9050919050565b7f54696d656c6f636b3a2043616c6c6572206e6f742054696d656c6f636b0000005f82015250565b5f611545601d83610eef565b915061155082611511565b602082019050919050565b5f6020820190508181035f83015261157281611539565b905091905056fea2646970667358221220c9b888b221bcff35b0125f7fec191d93befe8f1c2e5ea86b348b40369d7a55ce64736f6c634300081e0033",
					"opcodes": "PUSH1 0x80 PUSH1 0x40 MSTORE CALLVALUE DUP1 ISZERO PUSH1 0xE JUMPI PUSH0 PUSH0 REVERT JUMPDEST POP PUSH1 0x40 MLOAD PUSH2 0x168D CODESIZE SUB DUP1 PUSH2 0x168D DUP4 CODECOPY DUP2 DUP2 ADD PUSH1 0x40 MSTORE DUP2 ADD SWAP1 PUSH1 0x2E SWAP2 SWAP1 PUSH1 0xAB JUMP JUMPDEST DUP1 PUSH1 0x1 DUP2 SWAP1 SSTORE POP CALLER PUSH0 PUSH0 PUSH2 0x100 EXP DUP2 SLOAD DUP2 PUSH20 0xFFFFFFFFFFFFFFFFFFFFFFFFFFFFFFFFFFFFFFFF MUL NOT AND SWAP1 DUP4 PUSH20 0xFFFFFFFFFFFFFFFFFFFFFFFFFFFFFFFFFFFFFFFF AND MUL OR SWAP1 SSTORE POP POP PUSH1 0xD1 JUMP JUMPDEST PUSH0 PUSH0 REVERT JUMPDEST PUSH0 DUP2 SWAP1 POP SWAP2 SWAP1 POP JUMP JUMPDEST PUSH1 0x8D DUP2 PUSH1 0x7D JUMP JUMPDEST DUP2 EQ PUSH1 0x96 JUMPI PUSH0 PUSH0 REVERT JUMPDEST POP JUMP JUMPDEST PUSH0 DUP2 MLOAD SWAP1 POP PUSH1 0xA5 DUP2 PUSH1 0x86 JUMP JUMPDEST SWAP3 SWAP2 POP POP JUMP JUMPDEST PUSH0 PUSH1 0x20 DUP3 DUP5 SUB SLT ISZERO PUSH1 0xBD JUMPI PUSH1 0xBC PUSH1 0x79 JUMP JUMPDEST JUMPDEST PUSH0 PUSH1 0xC8 DUP5 DUP3 DUP6 ADD PUSH1 0x99 JUMP JUMPDEST SWAP2 POP POP SWAP3 SWAP2 POP POP JUMP JUMPDEST PUSH2 0x15AF DUP1 PUSH2 0xDE PUSH0 CODECOPY PUSH0 RETURN INVALID PUSH1 0x80 PUSH1 0x40 MSTORE PUSH1 0x4 CALLDATASIZE LT PUSH2 0x90 JUMPI PUSH0 CALLDATALOAD PUSH1 0xE0 SHR DUP1 PUSH4 0x796B89B9 GT PUSH2 0x58 JUMPI DUP1 PUSH4 0x796B89B9 EQ PUSH2 0x18E JUMPI DUP1 PUSH4 0x8F283970 EQ PUSH2 0x1B8 JUMPI DUP1 PUSH4 0xC1A287E2 EQ PUSH2 0x1E0 JUMPI DUP1 PUSH4 0xF2B06537 EQ PUSH2 0x20A JUMPI DUP1 PUSH4 0xF851A440 EQ PUSH2 0x246 JUMPI PUSH2 0x90 JUMP JUMPDEST DUP1 PUSH4 0x4A71576 EQ PUSH2 0x94 JUMPI DUP1 PUSH4 0x825F38F EQ PUSH2 0xD0 JUMPI DUP1 PUSH4 0x3A66F901 EQ PUSH2 0x100 JUMPI DUP1 PUSH4 0x591FCDFE EQ PUSH2 0x13C JUMPI DUP1 PUSH4 0x6A42B8F8 EQ PUSH2 0x164 JUMPI JUMPDEST PUSH0 PUSH0 REVERT JUMPDEST CALLVALUE DUP1 ISZERO PUSH2 0x9F JUMPI PUSH0 PUSH0 REVERT JUMPDEST POP PUSH2 0xBA PUSH1 0x4 DUP1 CALLDATASIZE SUB DUP2 ADD SWAP1 PUSH2 0xB5 SWAP2 SWAP1 PUSH2 0xC82 JUMP JUMPDEST PUSH2 0x270 JUMP JUMPDEST PUSH1 0x40 MLOAD PUSH2 0xC7 SWAP2 SWAP1 PUSH2 0xD49 JUMP JUMPDEST PUSH1 0x40 MLOAD DUP1 SWAP2 SUB SWAP1 RETURN JUMPDEST PUSH2 0xEA PUSH1 0x4 DUP1 CALLDATASIZE SUB DUP2 ADD SWAP1 PUSH2 0xE5 SWAP2 SWAP1 PUSH2 0xC82 JUMP JUMPDEST PUSH2 0x2AB JUMP JUMPDEST PUSH1 0x40 MLOAD PUSH2 0xF7 SWAP2 SWAP1 PUSH2 0xDC2 JUMP JUMPDEST PUSH1 0x40 MLOAD DUP1 SWAP2 SUB SWAP1 RETURN JUMPDEST CALLVALUE DUP1 ISZERO PUSH2 0x10B JUMPI PUSH0 PUSH0 REVERT JUMPDEST POP PUSH2 0x126 PUSH1 0x4 DUP1 CALLDATASIZE SUB DUP2 ADD SWAP1 PUSH2 0x121 SWAP2 SWAP1 PUSH2 0xC82 JUMP JUMPDEST PUSH2 0x5C1 JUMP JUMPDEST PUSH1 0x40 MLOAD PUSH2 0x133 SWAP2 SWAP1 PUSH2 0xD49 JUMP JUMPDEST PUSH1 0x40 MLOAD DUP1 SWAP2 SUB SWAP1 RETURN JUMPDEST CALLVALUE DUP1 ISZERO PUSH2 0x147 JUMPI PUSH0 PUSH0 REVERT JUMPDEST POP PUSH2 0x162 PUSH1 0x4 DUP1 CALLDATASIZE SUB DUP2 ADD SWAP1 PUSH2 0x15D SWAP2 SWAP1 PUSH2 0xC82 JUMP JUMPDEST PUSH2 0x742 JUMP JUMPDEST STOP JUMPDEST CALLVALUE DUP1 ISZERO PUSH2 0x16F JUMPI PUSH0 PUSH0 REVERT JUMPDEST POP PUSH2 0x178 PUSH2 0x8C2 JUMP JUMPDEST PUSH1 0x40 MLOAD PUSH2 0x185 SWAP2 SWAP1 PUSH2 0xDF1 JUMP JUMPDEST PUSH1 0x40 MLOAD DUP1 SWAP2 SUB SWAP1 RETURN JUMPDEST CALLVALUE DUP1 ISZERO PUSH2 0x199 JUMPI PUSH0 PUSH0 REVERT JUMPDEST POP PUSH2 0x1A2 PUSH2 0x8C8 JUMP JUMPDEST PUSH1 0x40 MLOAD PUSH2 0x1AF SWAP2 SWAP1 PUSH2 0xDF1 JUMP JUMPDEST PUSH1 0x40 MLOAD DUP1 SWAP2 SUB SWAP1 RETURN JUMPDEST CALLVALUE DUP1 ISZERO PUSH2 0x1C3 JUMPI PUSH0 PUSH0 REVERT JUMPDEST POP PUSH2 0x1DE PUSH1 0x4 DUP1 CALLDATASIZE SUB DUP2 ADD SWAP1 PUSH2 0x1D9 SWAP2 SWAP1 PUSH2 0xE0A JUMP JUMPDEST PUSH2 0x8CF JUMP JUMPDEST STOP JUMPDEST CALLVALUE DUP1 ISZERO PUSH2 0x1EB JUMPI PUSH0 PUSH0 REVERT JUMPDEST POP PUSH2 0x1F4 PUSH2 0x9C2 JUMP JUMPDEST PUSH1 0x40 MLOAD PUSH2 0x201 SWAP2 SWAP1 PUSH2 0xDF1 JUMP JUMPDEST PUSH1 0x40 MLOAD DUP1 SWAP2 SUB SWAP1 RETURN JUMPDEST CALLVALUE DUP1 ISZERO PUSH2 0x215 JUMPI PUSH0 PUSH0 REVERT JUMPDEST POP PUSH2 0x230 PUSH1 0x4 DUP1 CALLDATASIZE SUB DUP2 ADD SWAP1 PUSH2 0x22B SWAP2 SWAP1 PUSH2 0xE5F JUMP JUMPDEST PUSH2 0x9C9 JUMP JUMPDEST PUSH1 0x40 MLOAD PUSH2 0x23D SWAP2 SWAP1 PUSH2 0xEA4 JUMP JUMPDEST PUSH1 0x40 MLOAD DUP1 SWAP2 SUB SWAP1 RETURN JUMPDEST CALLVALUE DUP1 ISZERO PUSH2 0x251 JUMPI PUSH0 PUSH0 REVERT JUMPDEST POP PUSH2 0x25A PUSH2 0x9E6 JUMP JUMPDEST PUSH1 0x40 MLOAD PUSH2 0x267 SWAP2 SWAP1 PUSH2 0xECC JUMP JUMPDEST PUSH1 0x40 MLOAD DUP1 SWAP2 SUB SWAP1 RETURN JUMPDEST PUSH0 DUP6 DUP6 DUP6 DUP6 DUP6 PUSH1 0x40 MLOAD PUSH1 0x20 ADD PUSH2 0x28A SWAP6 SWAP5 SWAP4 SWAP3 SWAP2 SWAP1 PUSH2 0xF37 JUMP JUMPDEST PUSH1 0x40 MLOAD PUSH1 0x20 DUP2 DUP4 SUB SUB DUP2 MSTORE SWAP1 PUSH1 0x40 MSTORE DUP1 MLOAD SWAP1 PUSH1 0x20 ADD KECCAK256 SWAP1 POP SWAP6 SWAP5 POP POP POP POP POP JUMP JUMPDEST PUSH1 0x60 PUSH0 PUSH0 SWAP1 SLOAD SWAP1 PUSH2 0x100 EXP SWAP1 DIV PUSH20 0xFFFFFFFFFFFFFFFFFFFFFFFFFFFFFFFFFFFFFFFF AND PUSH20 0xFFFFFFFFFFFFFFFFFFFFFFFFFFFFFFFFFFFFFFFF AND CALLER PUSH20 0xFFFFFFFFFFFFFFFFFFFFFFFFFFFFFFFFFFFFFFFF AND EQ PUSH2 0x33B JUMPI PUSH1 0x40 MLOAD PUSH32 0x8C379A000000000000000000000000000000000000000000000000000000000 DUP2 MSTORE PUSH1 0x4 ADD PUSH2 0x332 SWAP1 PUSH2 0xFE0 JUMP JUMPDEST PUSH1 0x40 MLOAD DUP1 SWAP2 SUB SWAP1 REVERT JUMPDEST PUSH0 PUSH2 0x349 DUP8 DUP8 DUP8 DUP8 DUP8 PUSH2 0x270 JUMP JUMPDEST SWAP1 POP PUSH1 0x2 PUSH0 DUP3 DUP2 MSTORE PUSH1 0x20 ADD SWAP1 DUP2 MSTORE PUSH1 0x20 ADD PUSH0 KECCAK256 PUSH0 SWAP1 SLOAD SWAP1 PUSH2 0x100 EXP SWAP1 DIV PUSH1 0xFF AND PUSH2 0x3A8 JUMPI PUSH1 0x40 MLOAD PUSH32 0x8C379A000000000000000000000000000000000000000000000000000000000 DUP2 MSTORE PUSH1 0x4 ADD PUSH2 0x39F SWAP1 PUSH2 0x106E JUMP JUMPDEST PUSH1 0x40 MLOAD DUP1 SWAP2 SUB SWAP1 REVERT JUMPDEST DUP3 PUSH2 0x3B1 PUSH2 0x8C8 JUMP JUMPDEST LT ISZERO PUSH2 0x3F2 JUMPI PUSH1 0x40 MLOAD PUSH32 0x8C379A000000000000000000000000000000000000000000000000000000000 DUP2 MSTORE PUSH1 0x4 ADD PUSH2 0x3E9 SWAP1 PUSH2 0x1122 JUMP JUMPDEST PUSH1 0x40 MLOAD DUP1 SWAP2 SUB SWAP1 REVERT JUMPDEST PUSH3 0x93A80 DUP4 PUSH2 0x401 SWAP2 SWAP1 PUSH2 0x116D JUMP JUMPDEST PUSH2 0x409 PUSH2 0x8C8 JUMP JUMPDEST GT ISZERO PUSH2 0x44A JUMPI PUSH1 0x40 MLOAD PUSH32 0x8C379A000000000000000000000000000000000000000000000000000000000 DUP2 MSTORE PUSH1 0x4 ADD PUSH2 0x441 SWAP1 PUSH2 0x1210 JUMP JUMPDEST PUSH1 0x40 MLOAD DUP1 SWAP2 SUB SWAP1 REVERT JUMPDEST PUSH0 PUSH1 0x2 PUSH0 DUP4 DUP2 MSTORE PUSH1 0x20 ADD SWAP1 DUP2 MSTORE PUSH1 0x20 ADD PUSH0 KECCAK256 PUSH0 PUSH2 0x100 EXP DUP2 SLOAD DUP2 PUSH1 0xFF MUL NOT AND SWAP1 DUP4 ISZERO ISZERO MUL OR SWAP1 SSTORE POP PUSH1 0x60 PUSH0 DUP7 MLOAD SUB PUSH2 0x484 JUMPI DUP5 SWAP1 POP PUSH2 0x4B0 JUMP JUMPDEST DUP6 DUP1 MLOAD SWAP1 PUSH1 0x20 ADD KECCAK256 DUP6 PUSH1 0x40 MLOAD PUSH1 0x20 ADD PUSH2 0x49E SWAP3 SWAP2 SWAP1 PUSH2 0x12B3 JUMP JUMPDEST PUSH1 0x40 MLOAD PUSH1 0x20 DUP2 DUP4 SUB SUB DUP2 MSTORE SWAP1 PUSH1 0x40 MSTORE SWAP1 POP JUMPDEST PUSH0 PUSH0 DUP10 PUSH20 0xFFFFFFFFFFFFFFFFFFFFFFFFFFFFFFFFFFFFFFFF AND DUP10 DUP5 PUSH1 0x40 MLOAD PUSH2 0x4D8 SWAP2 SWAP1 PUSH2 0x12DA JUMP JUMPDEST PUSH0 PUSH1 0x40 MLOAD DUP1 DUP4 SUB DUP2 DUP6 DUP8 GAS CALL SWAP3 POP POP POP RETURNDATASIZE DUP1 PUSH0 DUP2 EQ PUSH2 0x512 JUMPI PUSH1 0x40 MLOAD SWAP2 POP PUSH1 0x1F NOT PUSH1 0x3F RETURNDATASIZE ADD AND DUP3 ADD PUSH1 0x40 MSTORE RETURNDATASIZE DUP3 MSTORE RETURNDATASIZE PUSH0 PUSH1 0x20 DUP5 ADD RETURNDATACOPY PUSH2 0x517 JUMP JUMPDEST PUSH1 0x60 SWAP2 POP JUMPDEST POP SWAP2 POP SWAP2 POP DUP2 PUSH2 0x55C JUMPI PUSH1 0x40 MLOAD PUSH32 0x8C379A000000000000000000000000000000000000000000000000000000000 DUP2 MSTORE PUSH1 0x4 ADD PUSH2 0x553 SWAP1 PUSH2 0x1360 JUMP JUMPDEST PUSH1 0x40 MLOAD DUP1 SWAP2 SUB SWAP1 REVERT JUMPDEST DUP10 PUSH20 0xFFFFFFFFFFFFFFFFFFFFFFFFFFFFFFFFFFFFFFFF AND DUP5 PUSH32 0xA560E3198060A2F10670C1EC5B403077EA6AE93CA8DE1C32B451DC1A943CD6E7 DUP12 DUP12 DUP12 DUP12 PUSH1 0x40 MLOAD PUSH2 0x5A9 SWAP5 SWAP4 SWAP3 SWAP2 SWAP1 PUSH2 0x137E JUMP JUMPDEST PUSH1 0x40 MLOAD DUP1 SWAP2 SUB SWAP1 LOG3 DUP1 SWAP5 POP POP POP POP POP SWAP6 SWAP5 POP POP POP POP POP JUMP JUMPDEST PUSH0 PUSH0 PUSH0 SWAP1 SLOAD SWAP1 PUSH2 0x100 EXP SWAP1 DIV PUSH20 0xFFFFFFFFFFFFFFFFFFFFFFFFFFFFFFFFFFFFFFFF AND PUSH20 0xFFFFFFFFFFFFFFFFFFFFFFFFFFFFFFFFFFFFFFFF AND CALLER PUSH20 0xFFFFFFFFFFFFFFFFFFFFFFFFFFFFFFFFFFFFFFFF AND EQ PUSH2 0x650 JUMPI PUSH1 0x40 MLOAD PUSH32 0x8C379A000000000000000000000000000000000000000000000000000000000 DUP2 MSTORE PUSH1 0x4 ADD PUSH2 0x647 SWAP1 PUSH2 0xFE0 JUMP JUMPDEST PUSH1 0x40 MLOAD DUP1 SWAP2 SUB SWAP1 REVERT JUMPDEST PUSH1 0x1 SLOAD PUSH2 0x65B PUSH2 0x8C8 JUMP JUMPDEST PUSH2 0x665 SWAP2 SWAP1 PUSH2 0x116D JUMP JUMPDEST DUP3 LT ISZERO PUSH2 0x6A7 JUMPI PUSH1 0x40 MLOAD PUSH32 0x8C379A000000000000000000000000000000000000000000000000000000000 DUP2 MSTORE PUSH1 0x4 ADD PUSH2 0x69E SWAP1 PUSH2 0x1465 JUMP JUMPDEST PUSH1 0x40 MLOAD DUP1 SWAP2 SUB SWAP1 REVERT JUMPDEST PUSH0 PUSH2 0x6B5 DUP8 DUP8 DUP8 DUP8 DUP8 PUSH2 0x270 JUMP JUMPDEST SWAP1 POP PUSH1 0x1 PUSH1 0x2 PUSH0 DUP4 DUP2 MSTORE PUSH1 0x20 ADD SWAP1 DUP2 MSTORE PUSH1 0x20 ADD PUSH0 KECCAK256 PUSH0 PUSH2 0x100 EXP DUP2 SLOAD DUP2 PUSH1 0xFF MUL NOT AND SWAP1 DUP4 ISZERO ISZERO MUL OR SWAP1 SSTORE POP DUP7 PUSH20 0xFFFFFFFFFFFFFFFFFFFFFFFFFFFFFFFFFFFFFFFF AND DUP2 PUSH32 0x76E2796DC3A81D57B0E8504B647FEBCBEEB5F4AF818E164F11EEF8131A6A763F DUP9 DUP9 DUP9 DUP9 PUSH1 0x40 MLOAD PUSH2 0x72D SWAP5 SWAP4 SWAP3 SWAP2 SWAP1 PUSH2 0x137E JUMP JUMPDEST PUSH1 0x40 MLOAD DUP1 SWAP2 SUB SWAP1 LOG3 DUP1 SWAP2 POP POP SWAP6 SWAP5 POP POP POP POP POP JUMP JUMPDEST PUSH0 PUSH0 SWAP1 SLOAD SWAP1 PUSH2 0x100 EXP SWAP1 DIV PUSH20 0xFFFFFFFFFFFFFFFFFFFFFFFFFFFFFFFFFFFFFFFF AND PUSH20 0xFFFFFFFFFFFFFFFFFFFFFFFFFFFFFFFFFFFFFFFF AND CALLER PUSH20 0xFFFFFFFFFFFFFFFFFFFFFFFFFFFFFFFFFFFFFFFF AND EQ PUSH2 0x7D0 JUMPI PUSH1 0x40 MLOAD PUSH32 0x8C379A000000000000000000000000000000000000000000000000000000000 DUP2 MSTORE PUSH1 0x4 ADD PUSH2 0x7C7 SWAP1 PUSH2 0xFE0 JUMP JUMPDEST PUSH1 0x40 MLOAD DUP1 SWAP2 SUB SWAP1 REVERT JUMPDEST PUSH0 PUSH2 0x7DE DUP7 DUP7 DUP7 DUP7 DUP7 PUSH2 0x270 JUMP JUMPDEST SWAP1 POP PUSH1 0x2 PUSH0 DUP3 DUP2 MSTORE PUSH1 0x20 ADD SWAP1 DUP2 MSTORE PUSH1 0x20 ADD PUSH0 KECCAK256 PUSH0 SWAP1 SLOAD SWAP1 PUSH2 0x100 EXP SWAP1 DIV PUSH1 0xFF AND PUSH2 0x83D JUMPI PUSH1 0x40 MLOAD PUSH32 0x8C379A000000000000000000000000000000000000000000000000000000000 DUP2 MSTORE PUSH1 0x4 ADD PUSH2 0x834 SWAP1 PUSH2 0x14F3 JUMP JUMPDEST PUSH1 0x40 MLOAD DUP1 SWAP2 SUB SWAP1 REVERT JUMPDEST PUSH0 PUSH1 0x2 PUSH0 DUP4 DUP2 MSTORE PUSH1 0x20 ADD SWAP1 DUP2 MSTORE PUSH1 0x20 ADD PUSH0 KECCAK256 PUSH0 PUSH2 0x100 EXP DUP2 SLOAD DUP2 PUSH1 0xFF MUL NOT AND SWAP1 DUP4 ISZERO ISZERO MUL OR SWAP1 SSTORE POP DUP6 PUSH20 0xFFFFFFFFFFFFFFFFFFFFFFFFFFFFFFFFFFFFFFFF AND DUP2 PUSH32 0x2FFFC091A501FD91BFBFF27141450D3ACB40FB8E6D8382B243EC7A812A3AAF87 DUP8 DUP8 DUP8 DUP8 PUSH1 0x40 MLOAD PUSH2 0x8B2 SWAP5 SWAP4 SWAP3 SWAP2 SWAP1 PUSH2 0x137E JUMP JUMPDEST PUSH1 0x40 MLOAD DUP1 SWAP2 SUB SWAP1 LOG3 POP POP POP POP POP POP JUMP JUMPDEST PUSH1 0x1 SLOAD DUP2 JUMP JUMPDEST PUSH0 TIMESTAMP SWAP1 POP SWAP1 JUMP JUMPDEST ADDRESS PUSH20 0xFFFFFFFFFFFFFFFFFFFFFFFFFFFFFFFFFFFFFFFF AND CALLER PUSH20 0xFFFFFFFFFFFFFFFFFFFFFFFFFFFFFFFFFFFFFFFF AND EQ PUSH2 0x93D JUMPI PUSH1 0x40 MLOAD PUSH32 0x8C379A000000000000000000000000000000000000000000000000000000000 DUP2 MSTORE PUSH1 0x4 ADD PUSH2 0x934 SWAP1 PUSH2 0x155B JUMP JUMPDEST PUSH1 0x40 MLOAD DUP1 SWAP2 SUB SWAP1 REVERT JUMPDEST DUP1 PUSH0 PUSH0 PUSH2 0x100 EXP DUP2 SLOAD DUP2 PUSH20 0xFFFFFFFFFFFFFFFFFFFFFFFFFFFFFFFFFFFFFFFF MUL NOT AND SWAP1 DUP4 PUSH20 0xFFFFFFFFFFFFFFFFFFFFFFFFFFFFFFFFFFFFFFFF AND MUL OR SWAP1 SSTORE POP DUP1 PUSH20 0xFFFFFFFFFFFFFFFFFFFFFFFFFFFFFFFFFFFFFFFF AND PUSH32 0x71614071B88DEE5E0B2AE578A9DD7B2EBBE9AE832BA419DC0242CD065A290B6C PUSH1 0x40 MLOAD PUSH1 0x40 MLOAD DUP1 SWAP2 SUB SWAP1 LOG2 POP JUMP JUMPDEST PUSH3 0x93A80 DUP2 JUMP JUMPDEST PUSH1 0x2 PUSH1 0x20 MSTORE DUP1 PUSH0 MSTORE PUSH1 0x40 PUSH0 KECCAK256 PUSH0 SWAP2 POP SLOAD SWAP1 PUSH2 0x100 EXP SWAP1 DIV PUSH1 0xFF AND DUP2 JUMP JUMPDEST PUSH0 PUSH0 SWAP1 SLOAD SWAP1 PUSH2 0x100 EXP SWAP1 DIV PUSH20 0xFFFFFFFFFFFFFFFFFFFFFFFFFFFFFFFFFFFFFFFF AND DUP2 JUMP JUMPDEST PUSH0 PUSH1 0x40 MLOAD SWAP1 POP SWAP1 JUMP JUMPDEST PUSH0 PUSH0 REVERT JUMPDEST PUSH0 PUSH0 REVERT JUMPDEST PUSH0 PUSH20 0xFFFFFFFFFFFFFFFFFFFFFFFFFFFFFFFFFFFFFFFF DUP3 AND SWAP1 POP SWAP2 SWAP1 POP JUMP JUMPDEST PUSH0 PUSH2 0xA44 DUP3 PUSH2 0xA1B JUMP JUMPDEST SWAP1 POP SWAP2 SWAP1 POP JUMP JUMPDEST PUSH2 0xA54 DUP2 PUSH2 0xA3A JUMP JUMPDEST DUP2 EQ PUSH2 0xA5E JUMPI PUSH0 PUSH0 REVERT JUMPDEST POP JUMP JUMPDEST PUSH0 DUP2 CALLDATALOAD SWAP1 POP PUSH2 0xA6F DUP2 PUSH2 0xA4B JUMP JUMPDEST SWAP3 SWAP2 POP POP JUMP JUMPDEST PUSH0 DUP2 SWAP1 POP SWAP2 SWAP1 POP JUMP JUMPDEST PUSH2 0xA87 DUP2 PUSH2 0xA75 JUMP JUMPDEST DUP2 EQ PUSH2 0xA91 JUMPI PUSH0 PUSH0 REVERT JUMPDEST POP JUMP JUMPDEST PUSH0 DUP2 CALLDATALOAD SWAP1 POP PUSH2 0xAA2 DUP2 PUSH2 0xA7E JUMP JUMPDEST SWAP3 SWAP2 POP POP JUMP JUMPDEST PUSH0 PUSH0 REVERT JUMPDEST PUSH0 PUSH0 REVERT JUMPDEST PUSH0 PUSH1 0x1F NOT PUSH1 0x1F DUP4 ADD AND SWAP1 POP SWAP2 SWAP1 POP JUMP JUMPDEST PUSH32 0x4E487B7100000000000000000000000000000000000000000000000000000000 PUSH0 MSTORE PUSH1 0x41 PUSH1 0x4 MSTORE PUSH1 0x24 PUSH0 REVERT JUMPDEST PUSH2 0xAF6 DUP3 PUSH2 0xAB0 JUMP JUMPDEST DUP2 ADD DUP2 DUP2 LT PUSH8 0xFFFFFFFFFFFFFFFF DUP3 GT OR ISZERO PUSH2 0xB15 JUMPI PUSH2 0xB14 PUSH2 0xAC0 JUMP JUMPDEST JUMPDEST DUP1 PUSH1 0x40 MSTORE POP POP POP JUMP JUMPDEST PUSH0 PUSH2 0xB27 PUSH2 0xA0A JUMP JUMPDEST SWAP1 POP PUSH2 0xB33 DUP3 DUP3 PUSH2 0xAED JUMP JUMPDEST SWAP2 SWAP1 POP JUMP JUMPDEST PUSH0 PUSH8 0xFFFFFFFFFFFFFFFF DUP3 GT ISZERO PUSH2 0xB52 JUMPI PUSH2 0xB51 PUSH2 0xAC0 JUMP JUMPDEST JUMPDEST PUSH2 0xB5B DUP3 PUSH2 0xAB0 JUMP JUMPDEST SWAP1 POP PUSH1 0x20 DUP2 ADD SWAP1 POP SWAP2 SWAP1 POP JUMP JUMPDEST DUP3 DUP2 DUP4 CALLDATACOPY PUSH0 DUP4 DUP4 ADD MSTORE POP POP POP JUMP JUMPDEST PUSH0 PUSH2 0xB88 PUSH2 0xB83 DUP5 PUSH2 0xB38 JUMP JUMPDEST PUSH2 0xB1E JUMP JUMPDEST SWAP1 POP DUP3 DUP2 MSTORE PUSH1 0x20 DUP2 ADD DUP5 DUP5 DUP5 ADD GT ISZERO PUSH2 0xBA4 JUMPI PUSH2 0xBA3 PUSH2 0xAAC JUMP JUMPDEST JUMPDEST PUSH2 0xBAF DUP5 DUP3 DUP6 PUSH2 0xB68 JUMP JUMPDEST POP SWAP4 SWAP3 POP POP POP JUMP JUMPDEST PUSH0 DUP3 PUSH1 0x1F DUP4 ADD SLT PUSH2 0xBCB JUMPI PUSH2 0xBCA PUSH2 0xAA8 JUMP JUMPDEST JUMPDEST DUP2 CALLDATALOAD PUSH2 0xBDB DUP5 DUP3 PUSH1 0x20 DUP7 ADD PUSH2 0xB76 JUMP JUMPDEST SWAP2 POP POP SWAP3 SWAP2 POP POP JUMP JUMPDEST PUSH0 PUSH8 0xFFFFFFFFFFFFFFFF DUP3 GT ISZERO PUSH2 0xBFE JUMPI PUSH2 0xBFD PUSH2 0xAC0 JUMP JUMPDEST JUMPDEST PUSH2 0xC07 DUP3 PUSH2 0xAB0 JUMP JUMPDEST SWAP1 POP PUSH1 0x20 DUP2 ADD SWAP1 POP SWAP2 SWAP1 POP JUMP JUMPDEST PUSH0 PUSH2 0xC26 PUSH2 0xC21 DUP5 PUSH2 0xBE4 JUMP JUMPDEST PUSH2 0xB1E JUMP JUMPDEST SWAP1 POP DUP3 DUP2 MSTORE PUSH1 0x20 DUP2 ADD DUP5 DUP5 DUP5 ADD GT ISZERO PUSH2 0xC42 JUMPI PUSH2 0xC41 PUSH2 0xAAC JUMP JUMPDEST JUMPDEST PUSH2 0xC4D DUP5 DUP3 DUP6 PUSH2 0xB68 JUMP JUMPDEST POP SWAP4 SWAP3 POP POP POP JUMP JUMPDEST PUSH0 DUP3 PUSH1 0x1F DUP4 ADD SLT PUSH2 0xC69 JUMPI PUSH2 0xC68 PUSH2 0xAA8 JUMP JUMPDEST JUMPDEST DUP2 CALLDATALOAD PUSH2 0xC79 DUP5 DUP3 PUSH1 0x20 DUP7 ADD PUSH2 0xC14 JUMP JUMPDEST SWAP2 POP POP SWAP3 SWAP2 POP POP JUMP JUMPDEST PUSH0 PUSH0 PUSH0 PUSH0 PUSH0 PUSH1 0xA0 DUP7 DUP9 SUB SLT ISZERO PUSH2 0xC9B JUMPI PUSH2 0xC9A PUSH2 0xA13 JUMP JUMPDEST JUMPDEST PUSH0 PUSH2 0xCA8 DUP9 DUP3 DUP10 ADD PUSH2 0xA61 JUMP JUMPDEST SWAP6 POP POP PUSH1 0x20 PUSH2 0xCB9 DUP9 DUP3 DUP10 ADD PUSH2 0xA94 JUMP JUMPDEST SWAP5 POP POP PUSH1 0x40 DUP7 ADD CALLDATALOAD PUSH8 0xFFFFFFFFFFFFFFFF DUP2 GT ISZERO PUSH2 0xCDA JUMPI PUSH2 0xCD9 PUSH2 0xA17 JUMP JUMPDEST JUMPDEST PUSH2 0xCE6 DUP9 DUP3 DUP10 ADD PUSH2 0xBB7 JUMP JUMPDEST SWAP4 POP POP PUSH1 0x60 DUP7 ADD CALLDATALOAD PUSH8 0xFFFFFFFFFFFFFFFF DUP2 GT ISZERO PUSH2 0xD07 JUMPI PUSH2 0xD06 PUSH2 0xA17 JUMP JUMPDEST JUMPDEST PUSH2 0xD13 DUP9 DUP3 DUP10 ADD PUSH2 0xC55 JUMP JUMPDEST SWAP3 POP POP PUSH1 0x80 PUSH2 0xD24 DUP9 DUP3 DUP10 ADD PUSH2 0xA94 JUMP JUMPDEST SWAP2 POP POP SWAP3 SWAP6 POP SWAP3 SWAP6 SWAP1 SWAP4 POP JUMP JUMPDEST PUSH0 DUP2 SWAP1 POP SWAP2 SWAP1 POP JUMP JUMPDEST PUSH2 0xD43 DUP2 PUSH2 0xD31 JUMP JUMPDEST DUP3 MSTORE POP POP JUMP JUMPDEST PUSH0 PUSH1 0x20 DUP3 ADD SWAP1 POP PUSH2 0xD5C PUSH0 DUP4 ADD DUP5 PUSH2 0xD3A JUMP JUMPDEST SWAP3 SWAP2 POP POP JUMP JUMPDEST PUSH0 DUP2 MLOAD SWAP1 POP SWAP2 SWAP1 POP JUMP JUMPDEST PUSH0 DUP3 DUP3 MSTORE PUSH1 0x20 DUP3 ADD SWAP1 POP SWAP3 SWAP2 POP POP JUMP JUMPDEST DUP3 DUP2 DUP4 MCOPY PUSH0 DUP4 DUP4 ADD MSTORE POP POP POP JUMP JUMPDEST PUSH0 PUSH2 0xD94 DUP3 PUSH2 0xD62 JUMP JUMPDEST PUSH2 0xD9E DUP2 DUP6 PUSH2 0xD6C JUMP JUMPDEST SWAP4 POP PUSH2 0xDAE DUP2 DUP6 PUSH1 0x20 DUP7 ADD PUSH2 0xD7C JUMP JUMPDEST PUSH2 0xDB7 DUP2 PUSH2 0xAB0 JUMP JUMPDEST DUP5 ADD SWAP2 POP POP SWAP3 SWAP2 POP POP JUMP JUMPDEST PUSH0 PUSH1 0x20 DUP3 ADD SWAP1 POP DUP2 DUP2 SUB PUSH0 DUP4 ADD MSTORE PUSH2 0xDDA DUP2 DUP5 PUSH2 0xD8A JUMP JUMPDEST SWAP1 POP SWAP3 SWAP2 POP POP JUMP JUMPDEST PUSH2 0xDEB DUP2 PUSH2 0xA75 JUMP JUMPDEST DUP3 MSTORE POP POP JUMP JUMPDEST PUSH0 PUSH1 0x20 DUP3 ADD SWAP1 POP PUSH2 0xE04 PUSH0 DUP4 ADD DUP5 PUSH2 0xDE2 JUMP JUMPDEST SWAP3 SWAP2 POP POP JUMP JUMPDEST PUSH0 PUSH1 0x20 DUP3 DUP5 SUB SLT ISZERO PUSH2 0xE1F JUMPI PUSH2 0xE1E PUSH2 0xA13 JUMP JUMPDEST JUMPDEST PUSH0 PUSH2 0xE2C DUP5 DUP3 DUP6 ADD PUSH2 0xA61 JUMP JUMPDEST SWAP2 POP POP SWAP3 SWAP2 POP POP JUMP JUMPDEST PUSH2 0xE3E DUP2 PUSH2 0xD31 JUMP JUMPDEST DUP2 EQ PUSH2 0xE48 JUMPI PUSH0 PUSH0 REVERT JUMPDEST POP JUMP JUMPDEST PUSH0 DUP2 CALLDATALOAD SWAP1 POP PUSH2 0xE59 DUP2 PUSH2 0xE35 JUMP JUMPDEST SWAP3 SWAP2 POP POP JUMP JUMPDEST PUSH0 PUSH1 0x20 DUP3 DUP5 SUB SLT ISZERO PUSH2 0xE74 JUMPI PUSH2 0xE73 PUSH2 0xA13 JUMP JUMPDEST JUMPDEST PUSH0 PUSH2 0xE81 DUP5 DUP3 DUP6 ADD PUSH2 0xE4B JUMP JUMPDEST SWAP2 POP POP SWAP3 SWAP2 POP POP JUMP JUMPDEST PUSH0 DUP2 ISZERO ISZERO SWAP1 POP SWAP2 SWAP1 POP JUMP JUMPDEST PUSH2 0xE9E DUP2 PUSH2 0xE8A JUMP JUMPDEST DUP3 MSTORE POP POP JUMP JUMPDEST PUSH0 PUSH1 0x20 DUP3 ADD SWAP1 POP PUSH2 0xEB7 PUSH0 DUP4 ADD DUP5 PUSH2 0xE95 JUMP JUMPDEST SWAP3 SWAP2 POP POP JUMP JUMPDEST PUSH2 0xEC6 DUP2 PUSH2 0xA3A JUMP JUMPDEST DUP3 MSTORE POP POP JUMP JUMPDEST PUSH0 PUSH1 0x20 DUP3 ADD SWAP1 POP PUSH2 0xEDF PUSH0 DUP4 ADD DUP5 PUSH2 0xEBD JUMP JUMPDEST SWAP3 SWAP2 POP POP JUMP JUMPDEST PUSH0 DUP2 MLOAD SWAP1 POP SWAP2 SWAP1 POP JUMP JUMPDEST PUSH0 DUP3 DUP3 MSTORE PUSH1 0x20 DUP3 ADD SWAP1 POP SWAP3 SWAP2 POP POP JUMP JUMPDEST PUSH0 PUSH2 0xF09 DUP3 PUSH2 0xEE5 JUMP JUMPDEST PUSH2 0xF13 DUP2 DUP6 PUSH2 0xEEF JUMP JUMPDEST SWAP4 POP PUSH2 0xF23 DUP2 DUP6 PUSH1 0x20 DUP7 ADD PUSH2 0xD7C JUMP JUMPDEST PUSH2 0xF2C DUP2 PUSH2 0xAB0 JUMP JUMPDEST DUP5 ADD SWAP2 POP POP SWAP3 SWAP2 POP POP JUMP JUMPDEST PUSH0 PUSH1 0xA0 DUP3 ADD SWAP1 POP PUSH2 0xF4A PUSH0 DUP4 ADD DUP9 PUSH2 0xEBD JUMP JUMPDEST PUSH2 0xF57 PUSH1 0x20 DUP4 ADD DUP8 PUSH2 0xDE2 JUMP JUMPDEST DUP2 DUP2 SUB PUSH1 0x40 DUP4 ADD MSTORE PUSH2 0xF69 DUP2 DUP7 PUSH2 0xEFF JUMP JUMPDEST SWAP1 POP DUP2 DUP2 SUB PUSH1 0x60 DUP4 ADD MSTORE PUSH2 0xF7D DUP2 DUP6 PUSH2 0xD8A JUMP JUMPDEST SWAP1 POP PUSH2 0xF8C PUSH1 0x80 DUP4 ADD DUP5 PUSH2 0xDE2 JUMP JUMPDEST SWAP7 SWAP6 POP POP POP POP POP POP JUMP JUMPDEST PUSH32 0x54696D656C6F636B3A2043616C6C6572206E6F742061646D696E000000000000 PUSH0 DUP3 ADD MSTORE POP JUMP JUMPDEST PUSH0 PUSH2 0xFCA PUSH1 0x1A DUP4 PUSH2 0xEEF JUMP JUMPDEST SWAP2 POP PUSH2 0xFD5 DUP3 PUSH2 0xF96 JUMP JUMPDEST PUSH1 0x20 DUP3 ADD SWAP1 POP SWAP2 SWAP1 POP JUMP JUMPDEST PUSH0 PUSH1 0x20 DUP3 ADD SWAP1 POP DUP2 DUP2 SUB PUSH0 DUP4 ADD MSTORE PUSH2 0xFF7 DUP2 PUSH2 0xFBE JUMP JUMPDEST SWAP1 POP SWAP2 SWAP1 POP JUMP JUMPDEST PUSH32 0x54696D656C6F636B3A3A657865637574655472616E73616374696F6E3A205472 PUSH0 DUP3 ADD MSTORE PUSH32 0x616E73616374696F6E206861736E2774206265656E207175657565642E000000 PUSH1 0x20 DUP3 ADD MSTORE POP JUMP JUMPDEST PUSH0 PUSH2 0x1058 PUSH1 0x3D DUP4 PUSH2 0xEEF JUMP JUMPDEST SWAP2 POP PUSH2 0x1063 DUP3 PUSH2 0xFFE JUMP JUMPDEST PUSH1 0x40 DUP3 ADD SWAP1 POP SWAP2 SWAP1 POP JUMP JUMPDEST PUSH0 PUSH1 0x20 DUP3 ADD SWAP1 POP DUP2 DUP2 SUB PUSH0 DUP4 ADD MSTORE PUSH2 0x1085 DUP2 PUSH2 0x104C JUMP JUMPDEST SWAP1 POP SWAP2 SWAP1 POP JUMP JUMPDEST PUSH32 0x54696D656C6F636B3A3A657865637574655472616E73616374696F6E3A205472 PUSH0 DUP3 ADD MSTORE PUSH32 0x616E73616374696F6E206861736E2774207375727061737365642074696D6520 PUSH1 0x20 DUP3 ADD MSTORE PUSH32 0x6C6F636B2E000000000000000000000000000000000000000000000000000000 PUSH1 0x40 DUP3 ADD MSTORE POP JUMP JUMPDEST PUSH0 PUSH2 0x110C PUSH1 0x45 DUP4 PUSH2 0xEEF JUMP JUMPDEST SWAP2 POP PUSH2 0x1117 DUP3 PUSH2 0x108C JUMP JUMPDEST PUSH1 0x60 DUP3 ADD SWAP1 POP SWAP2 SWAP1 POP JUMP JUMPDEST PUSH0 PUSH1 0x20 DUP3 ADD SWAP1 POP DUP2 DUP2 SUB PUSH0 DUP4 ADD MSTORE PUSH2 0x1139 DUP2 PUSH2 0x1100 JUMP JUMPDEST SWAP1 POP SWAP2 SWAP1 POP JUMP JUMPDEST PUSH32 0x4E487B7100000000000000000000000000000000000000000000000000000000 PUSH0 MSTORE PUSH1 0x11 PUSH1 0x4 MSTORE PUSH1 0x24 PUSH0 REVERT JUMPDEST PUSH0 PUSH2 0x1177 DUP3 PUSH2 0xA75 JUMP JUMPDEST SWAP2 POP PUSH2 0x1182 DUP4 PUSH2 0xA75 JUMP JUMPDEST SWAP3 POP DUP3 DUP3 ADD SWAP1 POP DUP1 DUP3 GT ISZERO PUSH2 0x119A JUMPI PUSH2 0x1199 PUSH2 0x1140 JUMP JUMPDEST JUMPDEST SWAP3 SWAP2 POP POP JUMP JUMPDEST PUSH32 0x54696D656C6F636B3A3A657865637574655472616E73616374696F6E3A205472 PUSH0 DUP3 ADD MSTORE PUSH32 0x616E73616374696F6E206973207374616C652E00000000000000000000000000 PUSH1 0x20 DUP3 ADD MSTORE POP JUMP JUMPDEST PUSH0 PUSH2 0x11FA PUSH1 0x33 DUP4 PUSH2 0xEEF JUMP JUMPDEST SWAP2 POP PUSH2 0x1205 DUP3 PUSH2 0x11A0 JUMP JUMPDEST PUSH1 0x40 DUP3 ADD SWAP1 POP SWAP2 SWAP1 POP JUMP JUMPDEST PUSH0 PUSH1 0x20 DUP3 ADD SWAP1 POP DUP2 DUP2 SUB PUSH0 DUP4 ADD MSTORE PUSH2 0x1227 DUP2 PUSH2 0x11EE JUMP JUMPDEST SWAP1 POP SWAP2 SWAP1 POP JUMP JUMPDEST PUSH0 PUSH32 0xFFFFFFFF00000000000000000000000000000000000000000000000000000000 DUP3 AND SWAP1 POP SWAP2 SWAP1 POP JUMP JUMPDEST PUSH0 DUP2 SWAP1 POP SWAP2 SWAP1 POP JUMP JUMPDEST PUSH2 0x1273 PUSH2 0x126E DUP3 PUSH2 0x122E JUMP JUMPDEST PUSH2 0x1259 JUMP JUMPDEST DUP3 MSTORE POP POP JUMP JUMPDEST PUSH0 DUP2 SWAP1 POP SWAP3 SWAP2 POP POP JUMP JUMPDEST PUSH0 PUSH2 0x128D DUP3 PUSH2 0xD62 JUMP JUMPDEST PUSH2 0x1297 DUP2 DUP6 PUSH2 0x1279 JUMP JUMPDEST SWAP4 POP PUSH2 0x12A7 DUP2 DUP6 PUSH1 0x20 DUP7 ADD PUSH2 0xD7C JUMP JUMPDEST DUP1 DUP5 ADD SWAP2 POP POP SWAP3 SWAP2 POP POP JUMP JUMPDEST PUSH0 PUSH2 0x12BE DUP3 DUP6 PUSH2 0x1262 JUMP JUMPDEST PUSH1 0x4 DUP3 ADD SWAP2 POP PUSH2 0x12CE DUP3 DUP5 PUSH2 0x1283 JUMP JUMPDEST SWAP2 POP DUP2 SWAP1 POP SWAP4 SWAP3 POP POP POP JUMP JUMPDEST PUSH0 PUSH2 0x12E5 DUP3 DUP5 PUSH2 0x1283 JUMP JUMPDEST SWAP2 POP DUP2 SWAP1 POP SWAP3 SWAP2 POP POP JUMP JUMPDEST PUSH32 0x54696D656C6F636B3A3A657865637574655472616E73616374696F6E3A205472 PUSH0 DUP3 ADD MSTORE PUSH32 0x616E73616374696F6E20657865637574696F6E2072657665727465642E000000 PUSH1 0x20 DUP3 ADD MSTORE POP JUMP JUMPDEST PUSH0 PUSH2 0x134A PUSH1 0x3D DUP4 PUSH2 0xEEF JUMP JUMPDEST SWAP2 POP PUSH2 0x1355 DUP3 PUSH2 0x12F0 JUMP JUMPDEST PUSH1 0x40 DUP3 ADD SWAP1 POP SWAP2 SWAP1 POP JUMP JUMPDEST PUSH0 PUSH1 0x20 DUP3 ADD SWAP1 POP DUP2 DUP2 SUB PUSH0 DUP4 ADD MSTORE PUSH2 0x1377 DUP2 PUSH2 0x133E JUMP JUMPDEST SWAP1 POP SWAP2 SWAP1 POP JUMP JUMPDEST PUSH0 PUSH1 0x80 DUP3 ADD SWAP1 POP PUSH2 0x1391 PUSH0 DUP4 ADD DUP8 PUSH2 0xDE2 JUMP JUMPDEST DUP2 DUP2 SUB PUSH1 0x20 DUP4 ADD MSTORE PUSH2 0x13A3 DUP2 DUP7 PUSH2 0xEFF JUMP JUMPDEST SWAP1 POP DUP2 DUP2 SUB PUSH1 0x40 DUP4 ADD MSTORE PUSH2 0x13B7 DUP2 DUP6 PUSH2 0xD8A JUMP JUMPDEST SWAP1 POP PUSH2 0x13C6 PUSH1 0x60 DUP4 ADD DUP5 PUSH2 0xDE2 JUMP JUMPDEST SWAP6 SWAP5 POP POP POP POP POP JUMP JUMPDEST PUSH32 0x54696D656C6F636B3A3A71756575655472616E73616374696F6E3A2045737469 PUSH0 DUP3 ADD MSTORE PUSH32 0x6D6174656420657865637574696F6E20626C6F636B206D757374207361746973 PUSH1 0x20 DUP3 ADD MSTORE PUSH32 0x66792064656C61792E0000000000000000000000000000000000000000000000 PUSH1 0x40 DUP3 ADD MSTORE POP JUMP JUMPDEST PUSH0 PUSH2 0x144F PUSH1 0x49 DUP4 PUSH2 0xEEF JUMP JUMPDEST SWAP2 POP PUSH2 0x145A DUP3 PUSH2 0x13CF JUMP JUMPDEST PUSH1 0x60 DUP3 ADD SWAP1 POP SWAP2 SWAP1 POP JUMP JUMPDEST PUSH0 PUSH1 0x20 DUP3 ADD SWAP1 POP DUP2 DUP2 SUB PUSH0 DUP4 ADD MSTORE PUSH2 0x147C DUP2 PUSH2 0x1443 JUMP JUMPDEST SWAP1 POP SWAP2 SWAP1 POP JUMP JUMPDEST PUSH32 0x54696D656C6F636B3A3A63616E63656C5472616E73616374696F6E3A20547261 PUSH0 DUP3 ADD MSTORE PUSH32 0x6E73616374696F6E206861736E2774206265656E207175657565642E00000000 PUSH1 0x20 DUP3 ADD MSTORE POP JUMP JUMPDEST PUSH0 PUSH2 0x14DD PUSH1 0x3C DUP4 PUSH2 0xEEF JUMP JUMPDEST SWAP2 POP PUSH2 0x14E8 DUP3 PUSH2 0x1483 JUMP JUMPDEST PUSH1 0x40 DUP3 ADD SWAP1 POP SWAP2 SWAP1 POP JUMP JUMPDEST PUSH0 PUSH1 0x20 DUP3 ADD SWAP1 POP DUP2 DUP2 SUB PUSH0 DUP4 ADD MSTORE PUSH2 0x150A DUP2 PUSH2 0x14D1 JUMP JUMPDEST SWAP1 POP SWAP2 SWAP1 POP JUMP JUMPDEST PUSH32 0x54696D656C6F636B3A2043616C6C6572206E6F742054696D656C6F636B000000 PUSH0 DUP3 ADD MSTORE POP JUMP JUMPDEST PUSH0 PUSH2 0x1545 PUSH1 0x1D DUP4 PUSH2 0xEEF JUMP JUMPDEST SWAP2 POP PUSH2 0x1550 DUP3 PUSH2 0x1511 JUMP JUMPDEST PUSH1 0x20 DUP3 ADD SWAP1 POP SWAP2 SWAP1 POP JUMP JUMPDEST PUSH0 PUSH1 0x20 DUP3 ADD SWAP1 POP DUP2 DUP2 SUB PUSH0 DUP4 ADD MSTORE PUSH2 0x1572 DUP2 PUSH2 0x1539 JUMP JUMPDEST SWAP1 POP SWAP2 SWAP1 POP JUMP INVALID LOG2 PUSH5 0x6970667358 0x22 SLT KECCAK256 0xC9 0xB8 DUP9 0xB2 0x21 0xBC SELFDESTRUCT CALLDATALOAD 0xB0 SLT PUSH0 PUSH32 0xEC191D93BEFE8F1C2E5EA86B348B40369D7A55CE64736F6C634300081E003300 "
				},
				"gasEstimates": {
					"creation": {
						"codeDepositCost": "1110200",
						"executionCost": "infinite",
						"totalCost": "infinite"
					},
					"external": {
						"GRACE_PERIOD()": "369",
						"admin()": "2595",
						"cancelTransaction(address,uint256,string,bytes,uint256)": "infinite",
						"changeAdmin(address)": "25930",
						"delay()": "2514",
						"executeTransaction(address,uint256,string,bytes,uint256)": "infinite",
						"getBlockTimestamp()": "331",
						"getTxHash(address,uint256,string,bytes,uint256)": "infinite",
						"queueTransaction(address,uint256,string,bytes,uint256)": "infinite",
						"queuedTransactions(bytes32)": "2851"
					}
				},
				"methodIdentifiers": {
					"GRACE_PERIOD()": "c1a287e2",
					"admin()": "f851a440",
					"cancelTransaction(address,uint256,string,bytes,uint256)": "591fcdfe",
					"changeAdmin(address)": "8f283970",
					"delay()": "6a42b8f8",
					"executeTransaction(address,uint256,string,bytes,uint256)": "0825f38f",
					"getBlockTimestamp()": "796b89b9",
					"getTxHash(address,uint256,string,bytes,uint256)": "04a71576",
					"queueTransaction(address,uint256,string,bytes,uint256)": "3a66f901",
					"queuedTransactions(bytes32)": "f2b06537"
				}
			},
			"storageLayout": {
				"storage": [
					{
						"astId": 49,
						"contract": "contracts/Timelock.sol:Timelock",
						"label": "admin",
						"offset": 0,
						"slot": "0",
						"type": "t_address"
					},
					{
						"astId": 54,
						"contract": "contracts/Timelock.sol:Timelock",
						"label": "delay",
						"offset": 0,
						"slot": "1",
						"type": "t_uint256"
					},
					{
						"astId": 58,
						"contract": "contracts/Timelock.sol:Timelock",
						"label": "queuedTransactions",
						"offset": 0,
						"slot": "2",
						"type": "t_mapping(t_bytes32,t_bool)"
					}
				],
				"types": {
					"t_address": {
						"encoding": "inplace",
						"label": "address",
						"numberOfBytes": "20"
					},
					"t_bool": {
						"encoding": "inplace",
						"label": "bool",
						"numberOfBytes": "1"
					},
					"t_bytes32": {
						"encoding": "inplace",
						"label": "bytes32",
						"numberOfBytes": "32"
					},
					"t_mapping(t_bytes32,t_bool)": {
						"encoding": "mapping",
						"key": "t_bytes32",
						"label": "mapping(bytes32 => bool)",
						"numberOfBytes": "32",
						"value": "t_bool"
					},
					"t_uint256": {
						"encoding": "inplace",
						"label": "uint256",
						"numberOfBytes": "32"
					}
				}
			},
			"userdoc": {
				"kind": "user",
				"methods": {},
				"version": 1
			}
		}
	}
}