{
	"contracts/TokenLocker.sol": {
		"TokenLocker": {
			"abi": [
				{
					"inputs": [
						{
							"internalType": "contract IERC20",
							"name": "token_",
							"type": "address"
						},
						{
							"internalType": "address",
							"name": "beneficiary_",
							"type": "address"
						},
						{
							"internalType": "uint256",
							"name": "lockTime_",
							"type": "uint256"
						}
					],
					"stateMutability": "nonpayable",
					"type": "constructor"
				},
				{
					"anonymous": false,
					"inputs": [
						{
							"indexed": true,
							"internalType": "address",
							"name": "beneficiary",
							"type": "address"
						},
						{
							"indexed": true,
							"internalType": "address",
							"name": "token",
							"type": "address"
						},
						{
							"indexed": false,
							"internalType": "uint256",
							"name": "releaseTime",
							"type": "uint256"
						},
						{
							"indexed": false,
							"internalType": "uint256",
							"name": "amount",
							"type": "uint256"
						}
					],
					"name": "Release",
					"type": "event"
				},
				{
					"anonymous": false,
					"inputs": [
						{
							"indexed": true,
							"internalType": "address",
							"name": "beneficiary",
							"type": "address"
						},
						{
							"indexed": true,
							"internalType": "address",
							"name": "token",
							"type": "address"
						},
						{
							"indexed": false,
							"internalType": "uint256",
							"name": "startTime",
							"type": "uint256"
						},
						{
							"indexed": false,
							"internalType": "uint256",
							"name": "endTime",
							"type": "uint256"
						}
					],
					"name": "TokenLockStart",
					"type": "event"
				},
				{
					"inputs": [],
					"name": "beneficiary",
					"outputs": [
						{
							"internalType": "address",
							"name": "",
							"type": "address"
						}
					],
					"stateMutability": "view",
					"type": "function"
				},
				{
					"inputs": [],
					"name": "lockTime",
					"outputs": [
						{
							"internalType": "uint256",
							"name": "",
							"type": "uint256"
						}
					],
					"stateMutability": "view",
					"type": "function"
				},
				{
					"inputs": [],
					"name": "release",
					"outputs": [],
					"stateMutability": "nonpayable",
					"type": "function"
				},
				{
					"inputs": [],
					"name": "startTime",
					"outputs": [
						{
							"internalType": "uint256",
							"name": "",
							"type": "uint256"
						}
					],
					"stateMutability": "view",
					"type": "function"
				},
				{
					"inputs": [],
					"name": "token",
					"outputs": [
						{
							"internalType": "contract IERC20",
							"name": "",
							"type": "address"
						}
					],
					"stateMutability": "view",
					"type": "function"
				}
			],
			"devdoc": {
				"kind": "dev",
				"methods": {
					"constructor": {
						"details": "部署时间锁合约，初始化代币合约地址，受益人地址和锁仓时间。",
						"params": {
							"beneficiary_": ": 受益人地址",
							"lockTime_": ": 锁仓时间(秒)",
							"token_": ": 被锁仓的ERC20代币合约"
						}
					},
					"release()": {
						"details": "在锁仓时间过后，将代币释放给受益人。"
					}
				},
				"version": 1
			},
			"evm": {
				"assembly": "    /* \"contracts/TokenLocker.sol\":86:2062  contract TokenLocker{... */\n  mstore(0x40, 0x0100)\n    /* \"contracts/TokenLocker.sol\":1182:1559  constructor(IERC20 token_, address beneficiary_, uint256 lockTime_){... */\n  callvalue\n  dup1\n  iszero\n  tag_1\n  jumpi\n  revert(0x00, 0x00)\ntag_1:\n  pop\n  mload(0x40)\n  sub(codesize, bytecodeSize)\n  dup1\n  bytecodeSize\n  dup4\n  codecopy\n  dup2\n  dup2\n  add\n  0x40\n  mstore\n  dup2\n  add\n  swap1\n  tag_2\n  swap2\n  swap1\n  tag_3\n  jump\t// in\ntag_2:\n    /* \"contracts/TokenLocker.sol\":1280:1281  0 */\n  0x00\n    /* \"contracts/TokenLocker.sol\":1268:1277  lockTime_ */\n  dup2\n    /* \"contracts/TokenLocker.sol\":1268:1281  lockTime_ > 0 */\n  gt\n    /* \"contracts/TokenLocker.sol\":1260:1328  require(lockTime_ > 0, \"TokenLock: lock time should greater than 0\") */\n  tag_6\n  jumpi\n  mload(0x40)\n  0x08c379a000000000000000000000000000000000000000000000000000000000\n  dup2\n  mstore\n  0x04\n  add\n  tag_7\n  swap1\n  tag_8\n  jump\t// in\ntag_7:\n  mload(0x40)\n  dup1\n  swap2\n  sub\n  swap1\n  revert\ntag_6:\n    /* \"contracts/TokenLocker.sol\":1347:1353  token_ */\n  dup3\n    /* \"contracts/TokenLocker.sol\":1339:1353  token = token_ */\n  0xffffffffffffffffffffffffffffffffffffffff\n  and\n  0x80\n  dup2\n  0xffffffffffffffffffffffffffffffffffffffff\n  and\n  dup2\n  mstore\n  pop\n  pop\n    /* \"contracts/TokenLocker.sol\":1378:1390  beneficiary_ */\n  dup2\n    /* \"contracts/TokenLocker.sol\":1364:1390  beneficiary = beneficiary_ */\n  0xffffffffffffffffffffffffffffffffffffffff\n  and\n  0xa0\n  dup2\n  0xffffffffffffffffffffffffffffffffffffffff\n  and\n  dup2\n  mstore\n  pop\n  pop\n    /* \"contracts/TokenLocker.sol\":1412:1421  lockTime_ */\n  dup1\n    /* \"contracts/TokenLocker.sol\":1401:1421  lockTime = lockTime_ */\n  0xc0\n  dup2\n  dup2\n  mstore\n  pop\n  pop\n    /* \"contracts/TokenLocker.sol\":1444:1459  block.timestamp */\n  timestamp\n    /* \"contracts/TokenLocker.sol\":1432:1459  startTime = block.timestamp */\n  0xe0\n  dup2\n  dup2\n  mstore\n  pop\n  pop\n    /* \"contracts/TokenLocker.sol\":1514:1520  token_ */\n  dup3\n    /* \"contracts/TokenLocker.sol\":1477:1550  TokenLockStart(beneficiary_, address(token_), block.timestamp, lockTime_) */\n  0xffffffffffffffffffffffffffffffffffffffff\n  and\n    /* \"contracts/TokenLocker.sol\":1492:1504  beneficiary_ */\n  dup3\n    /* \"contracts/TokenLocker.sol\":1477:1550  TokenLockStart(beneficiary_, address(token_), block.timestamp, lockTime_) */\n  0xffffffffffffffffffffffffffffffffffffffff\n  and\n  0xe5d7d4b5cb0219916a8be73968f7baf3c806fd018b0cc5598f5129436cf5c316\n    /* \"contracts/TokenLocker.sol\":1523:1538  block.timestamp */\n  timestamp\n    /* \"contracts/TokenLocker.sol\":1540:1549  lockTime_ */\n  dup5\n    /* \"contracts/TokenLocker.sol\":1477:1550  TokenLockStart(beneficiary_, address(token_), block.timestamp, lockTime_) */\n  mload(0x40)\n  tag_9\n  swap3\n  swap2\n  swap1\n  tag_10\n  jump\t// in\ntag_9:\n  mload(0x40)\n  dup1\n  swap2\n  sub\n  swap1\n  log3\n    /* \"contracts/TokenLocker.sol\":1182:1559  constructor(IERC20 token_, address beneficiary_, uint256 lockTime_){... */\n  pop\n  pop\n  pop\n    /* \"contracts/TokenLocker.sol\":86:2062  contract TokenLocker{... */\n  jump(tag_11)\n    /* \"#utility.yul\":88:205   */\ntag_13:\n    /* \"#utility.yul\":197:198   */\n  0x00\n    /* \"#utility.yul\":194:195   */\n  0x00\n    /* \"#utility.yul\":187:199   */\n  revert\n    /* \"#utility.yul\":334:460   */\ntag_15:\n    /* \"#utility.yul\":371:378   */\n  0x00\n    /* \"#utility.yul\":411:453   */\n  0xffffffffffffffffffffffffffffffffffffffff\n    /* \"#utility.yul\":404:409   */\n  dup3\n    /* \"#utility.yul\":400:454   */\n  and\n    /* \"#utility.yul\":389:454   */\n  swap1\n  pop\n    /* \"#utility.yul\":334:460   */\n  swap2\n  swap1\n  pop\n  jump\t// out\n    /* \"#utility.yul\":466:562   */\ntag_16:\n    /* \"#utility.yul\":503:510   */\n  0x00\n    /* \"#utility.yul\":532:556   */\n  tag_35\n    /* \"#utility.yul\":550:555   */\n  dup3\n    /* \"#utility.yul\":532:556   */\n  tag_15\n  jump\t// in\ntag_35:\n    /* \"#utility.yul\":521:556   */\n  swap1\n  pop\n    /* \"#utility.yul\":466:562   */\n  swap2\n  swap1\n  pop\n  jump\t// out\n    /* \"#utility.yul\":568:677   */\ntag_17:\n    /* \"#utility.yul\":618:625   */\n  0x00\n    /* \"#utility.yul\":647:671   */\n  tag_37\n    /* \"#utility.yul\":665:670   */\n  dup3\n    /* \"#utility.yul\":647:671   */\n  tag_16\n  jump\t// in\ntag_37:\n    /* \"#utility.yul\":636:671   */\n  swap1\n  pop\n    /* \"#utility.yul\":568:677   */\n  swap2\n  swap1\n  pop\n  jump\t// out\n    /* \"#utility.yul\":683:831   */\ntag_18:\n    /* \"#utility.yul\":769:806   */\n  tag_39\n    /* \"#utility.yul\":800:805   */\n  dup2\n    /* \"#utility.yul\":769:806   */\n  tag_17\n  jump\t// in\ntag_39:\n    /* \"#utility.yul\":762:767   */\n  dup2\n    /* \"#utility.yul\":759:807   */\n  eq\n    /* \"#utility.yul\":749:825   */\n  tag_40\n  jumpi\n    /* \"#utility.yul\":821:822   */\n  0x00\n    /* \"#utility.yul\":818:819   */\n  0x00\n    /* \"#utility.yul\":811:823   */\n  revert\n    /* \"#utility.yul\":749:825   */\ntag_40:\n    /* \"#utility.yul\":683:831   */\n  pop\n  jump\t// out\n    /* \"#utility.yul\":837:1006   */\ntag_19:\n    /* \"#utility.yul\":907:912   */\n  0x00\n    /* \"#utility.yul\":938:944   */\n  dup2\n    /* \"#utility.yul\":932:945   */\n  mload\n    /* \"#utility.yul\":923:945   */\n  swap1\n  pop\n    /* \"#utility.yul\":954:1000   */\n  tag_42\n    /* \"#utility.yul\":994:999   */\n  dup2\n    /* \"#utility.yul\":954:1000   */\n  tag_18\n  jump\t// in\ntag_42:\n    /* \"#utility.yul\":837:1006   */\n  swap3\n  swap2\n  pop\n  pop\n  jump\t// out\n    /* \"#utility.yul\":1012:1134   */\ntag_20:\n    /* \"#utility.yul\":1085:1109   */\n  tag_44\n    /* \"#utility.yul\":1103:1108   */\n  dup2\n    /* \"#utility.yul\":1085:1109   */\n  tag_16\n  jump\t// in\ntag_44:\n    /* \"#utility.yul\":1078:1083   */\n  dup2\n    /* \"#utility.yul\":1075:1110   */\n  eq\n    /* \"#utility.yul\":1065:1128   */\n  tag_45\n  jumpi\n    /* \"#utility.yul\":1124:1125   */\n  0x00\n    /* \"#utility.yul\":1121:1122   */\n  0x00\n    /* \"#utility.yul\":1114:1126   */\n  revert\n    /* \"#utility.yul\":1065:1128   */\ntag_45:\n    /* \"#utility.yul\":1012:1134   */\n  pop\n  jump\t// out\n    /* \"#utility.yul\":1140:1283   */\ntag_21:\n    /* \"#utility.yul\":1197:1202   */\n  0x00\n    /* \"#utility.yul\":1228:1234   */\n  dup2\n    /* \"#utility.yul\":1222:1235   */\n  mload\n    /* \"#utility.yul\":1213:1235   */\n  swap1\n  pop\n    /* \"#utility.yul\":1244:1277   */\n  tag_47\n    /* \"#utility.yul\":1271:1276   */\n  dup2\n    /* \"#utility.yul\":1244:1277   */\n  tag_20\n  jump\t// in\ntag_47:\n    /* \"#utility.yul\":1140:1283   */\n  swap3\n  swap2\n  pop\n  pop\n  jump\t// out\n    /* \"#utility.yul\":1289:1366   */\ntag_22:\n    /* \"#utility.yul\":1326:1333   */\n  0x00\n    /* \"#utility.yul\":1355:1360   */\n  dup2\n    /* \"#utility.yul\":1344:1360   */\n  swap1\n  pop\n    /* \"#utility.yul\":1289:1366   */\n  swap2\n  swap1\n  pop\n  jump\t// out\n    /* \"#utility.yul\":1372:1494   */\ntag_23:\n    /* \"#utility.yul\":1445:1469   */\n  tag_50\n    /* \"#utility.yul\":1463:1468   */\n  dup2\n    /* \"#utility.yul\":1445:1469   */\n  tag_22\n  jump\t// in\ntag_50:\n    /* \"#utility.yul\":1438:1443   */\n  dup2\n    /* \"#utility.yul\":1435:1470   */\n  eq\n    /* \"#utility.yul\":1425:1488   */\n  tag_51\n  jumpi\n    /* \"#utility.yul\":1484:1485   */\n  0x00\n    /* \"#utility.yul\":1481:1482   */\n  0x00\n    /* \"#utility.yul\":1474:1486   */\n  revert\n    /* \"#utility.yul\":1425:1488   */\ntag_51:\n    /* \"#utility.yul\":1372:1494   */\n  pop\n  jump\t// out\n    /* \"#utility.yul\":1500:1643   */\ntag_24:\n    /* \"#utility.yul\":1557:1562   */\n  0x00\n    /* \"#utility.yul\":1588:1594   */\n  dup2\n    /* \"#utility.yul\":1582:1595   */\n  mload\n    /* \"#utility.yul\":1573:1595   */\n  swap1\n  pop\n    /* \"#utility.yul\":1604:1637   */\n  tag_53\n    /* \"#utility.yul\":1631:1636   */\n  dup2\n    /* \"#utility.yul\":1604:1637   */\n  tag_23\n  jump\t// in\ntag_53:\n    /* \"#utility.yul\":1500:1643   */\n  swap3\n  swap2\n  pop\n  pop\n  jump\t// out\n    /* \"#utility.yul\":1649:2338   */\ntag_3:\n    /* \"#utility.yul\":1750:1756   */\n  0x00\n    /* \"#utility.yul\":1758:1764   */\n  0x00\n    /* \"#utility.yul\":1766:1772   */\n  0x00\n    /* \"#utility.yul\":1815:1817   */\n  0x60\n    /* \"#utility.yul\":1803:1812   */\n  dup5\n    /* \"#utility.yul\":1794:1801   */\n  dup7\n    /* \"#utility.yul\":1790:1813   */\n  sub\n    /* \"#utility.yul\":1786:1818   */\n  slt\n    /* \"#utility.yul\":1783:1902   */\n  iszero\n  tag_55\n  jumpi\n    /* \"#utility.yul\":1821:1900   */\n  tag_56\n  tag_13\n  jump\t// in\ntag_56:\n    /* \"#utility.yul\":1783:1902   */\ntag_55:\n    /* \"#utility.yul\":1941:1942   */\n  0x00\n    /* \"#utility.yul\":1966:2043   */\n  tag_57\n    /* \"#utility.yul\":2035:2042   */\n  dup7\n    /* \"#utility.yul\":2026:2032   */\n  dup3\n    /* \"#utility.yul\":2015:2024   */\n  dup8\n    /* \"#utility.yul\":2011:2033   */\n  add\n    /* \"#utility.yul\":1966:2043   */\n  tag_19\n  jump\t// in\ntag_57:\n    /* \"#utility.yul\":1956:2043   */\n  swap4\n  pop\n    /* \"#utility.yul\":1912:2053   */\n  pop\n    /* \"#utility.yul\":2092:2094   */\n  0x20\n    /* \"#utility.yul\":2118:2182   */\n  tag_58\n    /* \"#utility.yul\":2174:2181   */\n  dup7\n    /* \"#utility.yul\":2165:2171   */\n  dup3\n    /* \"#utility.yul\":2154:2163   */\n  dup8\n    /* \"#utility.yul\":2150:2172   */\n  add\n    /* \"#utility.yul\":2118:2182   */\n  tag_21\n  jump\t// in\ntag_58:\n    /* \"#utility.yul\":2108:2182   */\n  swap3\n  pop\n    /* \"#utility.yul\":2063:2192   */\n  pop\n    /* \"#utility.yul\":2231:2233   */\n  0x40\n    /* \"#utility.yul\":2257:2321   */\n  tag_59\n    /* \"#utility.yul\":2313:2320   */\n  dup7\n    /* \"#utility.yul\":2304:2310   */\n  dup3\n    /* \"#utility.yul\":2293:2302   */\n  dup8\n    /* \"#utility.yul\":2289:2311   */\n  add\n    /* \"#utility.yul\":2257:2321   */\n  tag_24\n  jump\t// in\ntag_59:\n    /* \"#utility.yul\":2247:2321   */\n  swap2\n  pop\n    /* \"#utility.yul\":2202:2331   */\n  pop\n    /* \"#utility.yul\":1649:2338   */\n  swap3\n  pop\n  swap3\n  pop\n  swap3\n  jump\t// out\n    /* \"#utility.yul\":2344:2513   */\ntag_25:\n    /* \"#utility.yul\":2428:2439   */\n  0x00\n    /* \"#utility.yul\":2462:2468   */\n  dup3\n    /* \"#utility.yul\":2457:2460   */\n  dup3\n    /* \"#utility.yul\":2450:2469   */\n  mstore\n    /* \"#utility.yul\":2502:2506   */\n  0x20\n    /* \"#utility.yul\":2497:2500   */\n  dup3\n    /* \"#utility.yul\":2493:2507   */\n  add\n    /* \"#utility.yul\":2478:2507   */\n  swap1\n  pop\n    /* \"#utility.yul\":2344:2513   */\n  swap3\n  swap2\n  pop\n  pop\n  jump\t// out\n    /* \"#utility.yul\":2519:2748   */\ntag_26:\n    /* \"#utility.yul\":2659:2693   */\n  0x546f6b656e4c6f636b3a206c6f636b2074696d652073686f756c642067726561\n    /* \"#utility.yul\":2655:2656   */\n  0x00\n    /* \"#utility.yul\":2647:2653   */\n  dup3\n    /* \"#utility.yul\":2643:2657   */\n  add\n    /* \"#utility.yul\":2636:2694   */\n  mstore\n    /* \"#utility.yul\":2728:2740   */\n  0x746572207468616e203000000000000000000000000000000000000000000000\n    /* \"#utility.yul\":2723:2725   */\n  0x20\n    /* \"#utility.yul\":2715:2721   */\n  dup3\n    /* \"#utility.yul\":2711:2726   */\n  add\n    /* \"#utility.yul\":2704:2741   */\n  mstore\n    /* \"#utility.yul\":2519:2748   */\n  pop\n  jump\t// out\n    /* \"#utility.yul\":2754:3120   */\ntag_27:\n    /* \"#utility.yul\":2896:2899   */\n  0x00\n    /* \"#utility.yul\":2917:2984   */\n  tag_63\n    /* \"#utility.yul\":2981:2983   */\n  0x2a\n    /* \"#utility.yul\":2976:2979   */\n  dup4\n    /* \"#utility.yul\":2917:2984   */\n  tag_25\n  jump\t// in\ntag_63:\n    /* \"#utility.yul\":2910:2984   */\n  swap2\n  pop\n    /* \"#utility.yul\":2993:3086   */\n  tag_64\n    /* \"#utility.yul\":3082:3085   */\n  dup3\n    /* \"#utility.yul\":2993:3086   */\n  tag_26\n  jump\t// in\ntag_64:\n    /* \"#utility.yul\":3111:3113   */\n  0x40\n    /* \"#utility.yul\":3106:3109   */\n  dup3\n    /* \"#utility.yul\":3102:3114   */\n  add\n    /* \"#utility.yul\":3095:3114   */\n  swap1\n  pop\n    /* \"#utility.yul\":2754:3120   */\n  swap2\n  swap1\n  pop\n  jump\t// out\n    /* \"#utility.yul\":3126:3545   */\ntag_8:\n    /* \"#utility.yul\":3292:3296   */\n  0x00\n    /* \"#utility.yul\":3330:3332   */\n  0x20\n    /* \"#utility.yul\":3319:3328   */\n  dup3\n    /* \"#utility.yul\":3315:3333   */\n  add\n    /* \"#utility.yul\":3307:3333   */\n  swap1\n  pop\n    /* \"#utility.yul\":3379:3388   */\n  dup2\n    /* \"#utility.yul\":3373:3377   */\n  dup2\n    /* \"#utility.yul\":3369:3389   */\n  sub\n    /* \"#utility.yul\":3365:3366   */\n  0x00\n    /* \"#utility.yul\":3354:3363   */\n  dup4\n    /* \"#utility.yul\":3350:3367   */\n  add\n    /* \"#utility.yul\":3343:3390   */\n  mstore\n    /* \"#utility.yul\":3407:3538   */\n  tag_66\n    /* \"#utility.yul\":3533:3537   */\n  dup2\n    /* \"#utility.yul\":3407:3538   */\n  tag_27\n  jump\t// in\ntag_66:\n    /* \"#utility.yul\":3399:3538   */\n  swap1\n  pop\n    /* \"#utility.yul\":3126:3545   */\n  swap2\n  swap1\n  pop\n  jump\t// out\n    /* \"#utility.yul\":3551:3669   */\ntag_28:\n    /* \"#utility.yul\":3638:3662   */\n  tag_68\n    /* \"#utility.yul\":3656:3661   */\n  dup2\n    /* \"#utility.yul\":3638:3662   */\n  tag_22\n  jump\t// in\ntag_68:\n    /* \"#utility.yul\":3633:3636   */\n  dup3\n    /* \"#utility.yul\":3626:3663   */\n  mstore\n    /* \"#utility.yul\":3551:3669   */\n  pop\n  pop\n  jump\t// out\n    /* \"#utility.yul\":3675:4007   */\ntag_10:\n    /* \"#utility.yul\":3796:3800   */\n  0x00\n    /* \"#utility.yul\":3834:3836   */\n  0x40\n    /* \"#utility.yul\":3823:3832   */\n  dup3\n    /* \"#utility.yul\":3819:3837   */\n  add\n    /* \"#utility.yul\":3811:3837   */\n  swap1\n  pop\n    /* \"#utility.yul\":3847:3918   */\n  tag_70\n    /* \"#utility.yul\":3915:3916   */\n  0x00\n    /* \"#utility.yul\":3904:3913   */\n  dup4\n    /* \"#utility.yul\":3900:3917   */\n  add\n    /* \"#utility.yul\":3891:3897   */\n  dup6\n    /* \"#utility.yul\":3847:3918   */\n  tag_28\n  jump\t// in\ntag_70:\n    /* \"#utility.yul\":3928:4000   */\n  tag_71\n    /* \"#utility.yul\":3996:3998   */\n  0x20\n    /* \"#utility.yul\":3985:3994   */\n  dup4\n    /* \"#utility.yul\":3981:3999   */\n  add\n    /* \"#utility.yul\":3972:3978   */\n  dup5\n    /* \"#utility.yul\":3928:4000   */\n  tag_28\n  jump\t// in\ntag_71:\n    /* \"#utility.yul\":3675:4007   */\n  swap4\n  swap3\n  pop\n  pop\n  pop\n  jump\t// out\n    /* \"contracts/TokenLocker.sol\":86:2062  contract TokenLocker{... */\ntag_11:\n  mload(0x80)\n  mload(0xa0)\n  mload(0xc0)\n  mload(0xe0)\n  codecopy(0x00, dataOffset(sub_0), dataSize(sub_0))\n  0x00\n  assignImmutable(\"0xf9535bac1c0dacfe011b6a07ce55ad3fdc761de7345d7b004778e93b9d222ae5\")\n  0x00\n  assignImmutable(\"0xc41c8390c0da0418b7667ee0df6c246c26c4be6c0618368dce5a916e8008b0db\")\n  0x00\n  assignImmutable(\"0x60750e84e711126719e0768062cd3784906b181c157d8590d52843dc3c91240f\")\n  0x00\n  assignImmutable(\"0x5b9d82bdb7ae056a203cf64bdf26f3fdec584cdfaca2ac8b4c3d0c5b66e90969\")\n  return(0x00, dataSize(sub_0))\nstop\n\nsub_0: assembly {\n        /* \"contracts/TokenLocker.sol\":86:2062  contract TokenLocker{... */\n      mstore(0x40, 0x80)\n      callvalue\n      dup1\n      iszero\n      tag_1\n      jumpi\n      revert(0x00, 0x00)\n    tag_1:\n      pop\n      jumpi(tag_2, lt(calldatasize, 0x04))\n      shr(0xe0, calldataload(0x00))\n      dup1\n      0x0d668087\n      eq\n      tag_3\n      jumpi\n      dup1\n      0x38af3eed\n      eq\n      tag_4\n      jumpi\n      dup1\n      0x78e97925\n      eq\n      tag_5\n      jumpi\n      dup1\n      0x86d1a69f\n      eq\n      tag_6\n      jumpi\n      dup1\n      0xfc0c546a\n      eq\n      tag_7\n      jumpi\n    tag_2:\n      revert(0x00, 0x00)\n        /* \"contracts/TokenLocker.sol\":802:835  uint256 public immutable lockTime */\n    tag_3:\n      tag_8\n      tag_9\n      jump\t// in\n    tag_8:\n      mload(0x40)\n      tag_10\n      swap2\n      swap1\n      tag_11\n      jump\t// in\n    tag_10:\n      mload(0x40)\n      dup1\n      swap2\n      sub\n      swap1\n      return\n        /* \"contracts/TokenLocker.sol\":733:769  address public immutable beneficiary */\n    tag_4:\n      tag_12\n      tag_13\n      jump\t// in\n    tag_12:\n      mload(0x40)\n      tag_14\n      swap2\n      swap1\n      tag_15\n      jump\t// in\n    tag_14:\n      mload(0x40)\n      dup1\n      swap2\n      sub\n      swap1\n      return\n        /* \"contracts/TokenLocker.sol\":877:911  uint256 public immutable startTime */\n    tag_5:\n      tag_16\n      tag_17\n      jump\t// in\n    tag_16:\n      mload(0x40)\n      tag_18\n      swap2\n      swap1\n      tag_11\n      jump\t// in\n    tag_18:\n      mload(0x40)\n      dup1\n      swap2\n      sub\n      swap1\n      return\n        /* \"contracts/TokenLocker.sol\":1656:2049  function release() public{... */\n    tag_6:\n      tag_19\n      tag_20\n      jump\t// in\n    tag_19:\n      stop\n        /* \"contracts/TokenLocker.sol\":673:702  IERC20 public immutable token */\n    tag_7:\n      tag_21\n      tag_22\n      jump\t// in\n    tag_21:\n      mload(0x40)\n      tag_23\n      swap2\n      swap1\n      tag_24\n      jump\t// in\n    tag_23:\n      mload(0x40)\n      dup1\n      swap2\n      sub\n      swap1\n      return\n        /* \"contracts/TokenLocker.sol\":802:835  uint256 public immutable lockTime */\n    tag_9:\n      immutable(\"0xc41c8390c0da0418b7667ee0df6c246c26c4be6c0618368dce5a916e8008b0db\")\n      dup2\n      jump\t// out\n        /* \"contracts/TokenLocker.sol\":733:769  address public immutable beneficiary */\n    tag_13:\n      immutable(\"0x60750e84e711126719e0768062cd3784906b181c157d8590d52843dc3c91240f\")\n      dup2\n      jump\t// out\n        /* \"contracts/TokenLocker.sol\":877:911  uint256 public immutable startTime */\n    tag_17:\n      immutable(\"0xf9535bac1c0dacfe011b6a07ce55ad3fdc761de7345d7b004778e93b9d222ae5\")\n      dup2\n      jump\t// out\n        /* \"contracts/TokenLocker.sol\":1656:2049  function release() public{... */\n    tag_20:\n        /* \"contracts/TokenLocker.sol\":1731:1739  lockTime */\n      immutable(\"0xc41c8390c0da0418b7667ee0df6c246c26c4be6c0618368dce5a916e8008b0db\")\n        /* \"contracts/TokenLocker.sol\":1718:1727  startTime */\n      immutable(\"0xf9535bac1c0dacfe011b6a07ce55ad3fdc761de7345d7b004778e93b9d222ae5\")\n        /* \"contracts/TokenLocker.sol\":1700:1715  block.timestamp */\n      timestamp\n        /* \"contracts/TokenLocker.sol\":1700:1727  block.timestamp - startTime */\n      tag_26\n      swap2\n      swap1\n      tag_27\n      jump\t// in\n    tag_26:\n        /* \"contracts/TokenLocker.sol\":1700:1739  block.timestamp - startTime >= lockTime */\n      lt\n      iszero\n        /* \"contracts/TokenLocker.sol\":1692:1789  require(block.timestamp - startTime >= lockTime,\"TokenLock: current time is before release time\") */\n      tag_28\n      jumpi\n      mload(0x40)\n      0x08c379a000000000000000000000000000000000000000000000000000000000\n      dup2\n      mstore\n      0x04\n      add\n      tag_29\n      swap1\n      tag_30\n      jump\t// in\n    tag_29:\n      mload(0x40)\n      dup1\n      swap2\n      sub\n      swap1\n      revert\n    tag_28:\n        /* \"contracts/TokenLocker.sol\":1800:1814  uint256 amount */\n      0x00\n        /* \"contracts/TokenLocker.sol\":1817:1822  token */\n      immutable(\"0x5b9d82bdb7ae056a203cf64bdf26f3fdec584cdfaca2ac8b4c3d0c5b66e90969\")\n        /* \"contracts/TokenLocker.sol\":1817:1832  token.balanceOf */\n      0xffffffffffffffffffffffffffffffffffffffff\n      and\n      0x70a08231\n        /* \"contracts/TokenLocker.sol\":1841:1845  this */\n      address\n        /* \"contracts/TokenLocker.sol\":1817:1847  token.balanceOf(address(this)) */\n      mload(0x40)\n      dup3\n      0xffffffff\n      and\n      0xe0\n      shl\n      dup2\n      mstore\n      0x04\n      add\n      tag_31\n      swap2\n      swap1\n      tag_15\n      jump\t// in\n    tag_31:\n      0x20\n      mload(0x40)\n      dup1\n      dup4\n      sub\n      dup2\n      dup7\n      gas\n      staticcall\n      iszero\n      dup1\n      iszero\n      tag_33\n      jumpi\n      returndatacopy(0x00, 0x00, returndatasize)\n      revert(0x00, returndatasize)\n    tag_33:\n      pop\n      pop\n      pop\n      pop\n      mload(0x40)\n      returndatasize\n      not(0x1f)\n      0x1f\n      dup3\n      add\n      and\n      dup3\n      add\n      dup1\n      0x40\n      mstore\n      pop\n      dup2\n      add\n      swap1\n      tag_34\n      swap2\n      swap1\n      tag_35\n      jump\t// in\n    tag_34:\n        /* \"contracts/TokenLocker.sol\":1800:1847  uint256 amount = token.balanceOf(address(this)) */\n      swap1\n      pop\n        /* \"contracts/TokenLocker.sol\":1875:1876  0 */\n      0x00\n        /* \"contracts/TokenLocker.sol\":1866:1872  amount */\n      dup2\n        /* \"contracts/TokenLocker.sol\":1866:1876  amount > 0 */\n      gt\n        /* \"contracts/TokenLocker.sol\":1858:1912  require(amount > 0, \"TokenLock: no tokens to release\") */\n      tag_36\n      jumpi\n      mload(0x40)\n      0x08c379a000000000000000000000000000000000000000000000000000000000\n      dup2\n      mstore\n      0x04\n      add\n      tag_37\n      swap1\n      tag_38\n      jump\t// in\n    tag_37:\n      mload(0x40)\n      dup1\n      swap2\n      sub\n      swap1\n      revert\n    tag_36:\n        /* \"contracts/TokenLocker.sol\":1923:1928  token */\n      immutable(\"0x5b9d82bdb7ae056a203cf64bdf26f3fdec584cdfaca2ac8b4c3d0c5b66e90969\")\n        /* \"contracts/TokenLocker.sol\":1923:1937  token.transfer */\n      0xffffffffffffffffffffffffffffffffffffffff\n      and\n      0xa9059cbb\n        /* \"contracts/TokenLocker.sol\":1938:1949  beneficiary */\n      immutable(\"0x60750e84e711126719e0768062cd3784906b181c157d8590d52843dc3c91240f\")\n        /* \"contracts/TokenLocker.sol\":1951:1957  amount */\n      dup4\n        /* \"contracts/TokenLocker.sol\":1923:1958  token.transfer(beneficiary, amount) */\n      mload(0x40)\n      dup4\n      0xffffffff\n      and\n      0xe0\n      shl\n      dup2\n      mstore\n      0x04\n      add\n      tag_39\n      swap3\n      swap2\n      swap1\n      tag_40\n      jump\t// in\n    tag_39:\n      0x20\n      mload(0x40)\n      dup1\n      dup4\n      sub\n      dup2\n      0x00\n      dup8\n      gas\n      call\n      iszero\n      dup1\n      iszero\n      tag_42\n      jumpi\n      returndatacopy(0x00, 0x00, returndatasize)\n      revert(0x00, returndatasize)\n    tag_42:\n      pop\n      pop\n      pop\n      pop\n      mload(0x40)\n      returndatasize\n      not(0x1f)\n      0x1f\n      dup3\n      add\n      and\n      dup3\n      add\n      dup1\n      0x40\n      mstore\n      pop\n      dup2\n      add\n      swap1\n      tag_43\n      swap2\n      swap1\n      tag_44\n      jump\t// in\n    tag_43:\n      pop\n        /* \"contracts/TokenLocker.sol\":2006:2011  token */\n      immutable(\"0x5b9d82bdb7ae056a203cf64bdf26f3fdec584cdfaca2ac8b4c3d0c5b66e90969\")\n        /* \"contracts/TokenLocker.sol\":1976:2038  Release(beneficiary,  address(token), block.timestamp, amount) */\n      0xffffffffffffffffffffffffffffffffffffffff\n      and\n        /* \"contracts/TokenLocker.sol\":1984:1995  beneficiary */\n      immutable(\"0x60750e84e711126719e0768062cd3784906b181c157d8590d52843dc3c91240f\")\n        /* \"contracts/TokenLocker.sol\":1976:2038  Release(beneficiary,  address(token), block.timestamp, amount) */\n      0xffffffffffffffffffffffffffffffffffffffff\n      and\n      0x10b55f01b1cfe0feeb7d144f66162661602d8e73256499b6d8342aac37ff0679\n        /* \"contracts/TokenLocker.sol\":2014:2029  block.timestamp */\n      timestamp\n        /* \"contracts/TokenLocker.sol\":2031:2037  amount */\n      dup5\n        /* \"contracts/TokenLocker.sol\":1976:2038  Release(beneficiary,  address(token), block.timestamp, amount) */\n      mload(0x40)\n      tag_45\n      swap3\n      swap2\n      swap1\n      tag_46\n      jump\t// in\n    tag_45:\n      mload(0x40)\n      dup1\n      swap2\n      sub\n      swap1\n      log3\n        /* \"contracts/TokenLocker.sol\":1681:2049  {... */\n      pop\n        /* \"contracts/TokenLocker.sol\":1656:2049  function release() public{... */\n      jump\t// out\n        /* \"contracts/TokenLocker.sol\":673:702  IERC20 public immutable token */\n    tag_22:\n      immutable(\"0x5b9d82bdb7ae056a203cf64bdf26f3fdec584cdfaca2ac8b4c3d0c5b66e90969\")\n      dup2\n      jump\t// out\n        /* \"#utility.yul\":7:84   */\n    tag_47:\n        /* \"#utility.yul\":44:51   */\n      0x00\n        /* \"#utility.yul\":73:78   */\n      dup2\n        /* \"#utility.yul\":62:78   */\n      swap1\n      pop\n        /* \"#utility.yul\":7:84   */\n      swap2\n      swap1\n      pop\n      jump\t// out\n        /* \"#utility.yul\":90:208   */\n    tag_48:\n        /* \"#utility.yul\":177:201   */\n      tag_74\n        /* \"#utility.yul\":195:200   */\n      dup2\n        /* \"#utility.yul\":177:201   */\n      tag_47\n      jump\t// in\n    tag_74:\n        /* \"#utility.yul\":172:175   */\n      dup3\n        /* \"#utility.yul\":165:202   */\n      mstore\n        /* \"#utility.yul\":90:208   */\n      pop\n      pop\n      jump\t// out\n        /* \"#utility.yul\":214:436   */\n    tag_11:\n        /* \"#utility.yul\":307:311   */\n      0x00\n        /* \"#utility.yul\":345:347   */\n      0x20\n        /* \"#utility.yul\":334:343   */\n      dup3\n        /* \"#utility.yul\":330:348   */\n      add\n        /* \"#utility.yul\":322:348   */\n      swap1\n      pop\n        /* \"#utility.yul\":358:429   */\n      tag_76\n        /* \"#utility.yul\":426:427   */\n      0x00\n        /* \"#utility.yul\":415:424   */\n      dup4\n        /* \"#utility.yul\":411:428   */\n      add\n        /* \"#utility.yul\":402:408   */\n      dup5\n        /* \"#utility.yul\":358:429   */\n      tag_48\n      jump\t// in\n    tag_76:\n        /* \"#utility.yul\":214:436   */\n      swap3\n      swap2\n      pop\n      pop\n      jump\t// out\n        /* \"#utility.yul\":442:568   */\n    tag_49:\n        /* \"#utility.yul\":479:486   */\n      0x00\n        /* \"#utility.yul\":519:561   */\n      0xffffffffffffffffffffffffffffffffffffffff\n        /* \"#utility.yul\":512:517   */\n      dup3\n        /* \"#utility.yul\":508:562   */\n      and\n        /* \"#utility.yul\":497:562   */\n      swap1\n      pop\n        /* \"#utility.yul\":442:568   */\n      swap2\n      swap1\n      pop\n      jump\t// out\n        /* \"#utility.yul\":574:670   */\n    tag_50:\n        /* \"#utility.yul\":611:618   */\n      0x00\n        /* \"#utility.yul\":640:664   */\n      tag_79\n        /* \"#utility.yul\":658:663   */\n      dup3\n        /* \"#utility.yul\":640:664   */\n      tag_49\n      jump\t// in\n    tag_79:\n        /* \"#utility.yul\":629:664   */\n      swap1\n      pop\n        /* \"#utility.yul\":574:670   */\n      swap2\n      swap1\n      pop\n      jump\t// out\n        /* \"#utility.yul\":676:794   */\n    tag_51:\n        /* \"#utility.yul\":763:787   */\n      tag_81\n        /* \"#utility.yul\":781:786   */\n      dup2\n        /* \"#utility.yul\":763:787   */\n      tag_50\n      jump\t// in\n    tag_81:\n        /* \"#utility.yul\":758:761   */\n      dup3\n        /* \"#utility.yul\":751:788   */\n      mstore\n        /* \"#utility.yul\":676:794   */\n      pop\n      pop\n      jump\t// out\n        /* \"#utility.yul\":800:1022   */\n    tag_15:\n        /* \"#utility.yul\":893:897   */\n      0x00\n        /* \"#utility.yul\":931:933   */\n      0x20\n        /* \"#utility.yul\":920:929   */\n      dup3\n        /* \"#utility.yul\":916:934   */\n      add\n        /* \"#utility.yul\":908:934   */\n      swap1\n      pop\n        /* \"#utility.yul\":944:1015   */\n      tag_83\n        /* \"#utility.yul\":1012:1013   */\n      0x00\n        /* \"#utility.yul\":1001:1010   */\n      dup4\n        /* \"#utility.yul\":997:1014   */\n      add\n        /* \"#utility.yul\":988:994   */\n      dup5\n        /* \"#utility.yul\":944:1015   */\n      tag_51\n      jump\t// in\n    tag_83:\n        /* \"#utility.yul\":800:1022   */\n      swap3\n      swap2\n      pop\n      pop\n      jump\t// out\n        /* \"#utility.yul\":1028:1088   */\n    tag_52:\n        /* \"#utility.yul\":1056:1059   */\n      0x00\n        /* \"#utility.yul\":1077:1082   */\n      dup2\n        /* \"#utility.yul\":1070:1082   */\n      swap1\n      pop\n        /* \"#utility.yul\":1028:1088   */\n      swap2\n      swap1\n      pop\n      jump\t// out\n        /* \"#utility.yul\":1094:1236   */\n    tag_53:\n        /* \"#utility.yul\":1144:1153   */\n      0x00\n        /* \"#utility.yul\":1177:1230   */\n      tag_86\n        /* \"#utility.yul\":1195:1229   */\n      tag_87\n        /* \"#utility.yul\":1204:1228   */\n      tag_88\n        /* \"#utility.yul\":1222:1227   */\n      dup5\n        /* \"#utility.yul\":1204:1228   */\n      tag_49\n      jump\t// in\n    tag_88:\n        /* \"#utility.yul\":1195:1229   */\n      tag_52\n      jump\t// in\n    tag_87:\n        /* \"#utility.yul\":1177:1230   */\n      tag_49\n      jump\t// in\n    tag_86:\n        /* \"#utility.yul\":1164:1230   */\n      swap1\n      pop\n        /* \"#utility.yul\":1094:1236   */\n      swap2\n      swap1\n      pop\n      jump\t// out\n        /* \"#utility.yul\":1242:1368   */\n    tag_54:\n        /* \"#utility.yul\":1292:1301   */\n      0x00\n        /* \"#utility.yul\":1325:1362   */\n      tag_90\n        /* \"#utility.yul\":1356:1361   */\n      dup3\n        /* \"#utility.yul\":1325:1362   */\n      tag_53\n      jump\t// in\n    tag_90:\n        /* \"#utility.yul\":1312:1362   */\n      swap1\n      pop\n        /* \"#utility.yul\":1242:1368   */\n      swap2\n      swap1\n      pop\n      jump\t// out\n        /* \"#utility.yul\":1374:1513   */\n    tag_55:\n        /* \"#utility.yul\":1437:1446   */\n      0x00\n        /* \"#utility.yul\":1470:1507   */\n      tag_92\n        /* \"#utility.yul\":1501:1506   */\n      dup3\n        /* \"#utility.yul\":1470:1507   */\n      tag_54\n      jump\t// in\n    tag_92:\n        /* \"#utility.yul\":1457:1507   */\n      swap1\n      pop\n        /* \"#utility.yul\":1374:1513   */\n      swap2\n      swap1\n      pop\n      jump\t// out\n        /* \"#utility.yul\":1519:1676   */\n    tag_56:\n        /* \"#utility.yul\":1619:1669   */\n      tag_94\n        /* \"#utility.yul\":1663:1668   */\n      dup2\n        /* \"#utility.yul\":1619:1669   */\n      tag_55\n      jump\t// in\n    tag_94:\n        /* \"#utility.yul\":1614:1617   */\n      dup3\n        /* \"#utility.yul\":1607:1670   */\n      mstore\n        /* \"#utility.yul\":1519:1676   */\n      pop\n      pop\n      jump\t// out\n        /* \"#utility.yul\":1682:1930   */\n    tag_24:\n        /* \"#utility.yul\":1788:1792   */\n      0x00\n        /* \"#utility.yul\":1826:1828   */\n      0x20\n        /* \"#utility.yul\":1815:1824   */\n      dup3\n        /* \"#utility.yul\":1811:1829   */\n      add\n        /* \"#utility.yul\":1803:1829   */\n      swap1\n      pop\n        /* \"#utility.yul\":1839:1923   */\n      tag_96\n        /* \"#utility.yul\":1920:1921   */\n      0x00\n        /* \"#utility.yul\":1909:1918   */\n      dup4\n        /* \"#utility.yul\":1905:1922   */\n      add\n        /* \"#utility.yul\":1896:1902   */\n      dup5\n        /* \"#utility.yul\":1839:1923   */\n      tag_56\n      jump\t// in\n    tag_96:\n        /* \"#utility.yul\":1682:1930   */\n      swap3\n      swap2\n      pop\n      pop\n      jump\t// out\n        /* \"#utility.yul\":1936:2116   */\n    tag_57:\n        /* \"#utility.yul\":1984:2061   */\n      0x4e487b7100000000000000000000000000000000000000000000000000000000\n        /* \"#utility.yul\":1981:1982   */\n      0x00\n        /* \"#utility.yul\":1974:2062   */\n      mstore\n        /* \"#utility.yul\":2081:2085   */\n      0x11\n        /* \"#utility.yul\":2078:2079   */\n      0x04\n        /* \"#utility.yul\":2071:2086   */\n      mstore\n        /* \"#utility.yul\":2105:2109   */\n      0x24\n        /* \"#utility.yul\":2102:2103   */\n      0x00\n        /* \"#utility.yul\":2095:2110   */\n      revert\n        /* \"#utility.yul\":2122:2316   */\n    tag_27:\n        /* \"#utility.yul\":2162:2166   */\n      0x00\n        /* \"#utility.yul\":2182:2202   */\n      tag_99\n        /* \"#utility.yul\":2200:2201   */\n      dup3\n        /* \"#utility.yul\":2182:2202   */\n      tag_47\n      jump\t// in\n    tag_99:\n        /* \"#utility.yul\":2177:2202   */\n      swap2\n      pop\n        /* \"#utility.yul\":2216:2236   */\n      tag_100\n        /* \"#utility.yul\":2234:2235   */\n      dup4\n        /* \"#utility.yul\":2216:2236   */\n      tag_47\n      jump\t// in\n    tag_100:\n        /* \"#utility.yul\":2211:2236   */\n      swap3\n      pop\n        /* \"#utility.yul\":2260:2261   */\n      dup3\n        /* \"#utility.yul\":2257:2258   */\n      dup3\n        /* \"#utility.yul\":2253:2262   */\n      sub\n        /* \"#utility.yul\":2245:2262   */\n      swap1\n      pop\n        /* \"#utility.yul\":2284:2285   */\n      dup2\n        /* \"#utility.yul\":2278:2282   */\n      dup2\n        /* \"#utility.yul\":2275:2286   */\n      gt\n        /* \"#utility.yul\":2272:2309   */\n      iszero\n      tag_101\n      jumpi\n        /* \"#utility.yul\":2289:2307   */\n      tag_102\n      tag_57\n      jump\t// in\n    tag_102:\n        /* \"#utility.yul\":2272:2309   */\n    tag_101:\n        /* \"#utility.yul\":2122:2316   */\n      swap3\n      swap2\n      pop\n      pop\n      jump\t// out\n        /* \"#utility.yul\":2322:2491   */\n    tag_58:\n        /* \"#utility.yul\":2406:2417   */\n      0x00\n        /* \"#utility.yul\":2440:2446   */\n      dup3\n        /* \"#utility.yul\":2435:2438   */\n      dup3\n        /* \"#utility.yul\":2428:2447   */\n      mstore\n        /* \"#utility.yul\":2480:2484   */\n      0x20\n        /* \"#utility.yul\":2475:2478   */\n      dup3\n        /* \"#utility.yul\":2471:2485   */\n      add\n        /* \"#utility.yul\":2456:2485   */\n      swap1\n      pop\n        /* \"#utility.yul\":2322:2491   */\n      swap3\n      swap2\n      pop\n      pop\n      jump\t// out\n        /* \"#utility.yul\":2497:2730   */\n    tag_59:\n        /* \"#utility.yul\":2637:2671   */\n      0x546f6b656e4c6f636b3a2063757272656e742074696d65206973206265666f72\n        /* \"#utility.yul\":2633:2634   */\n      0x00\n        /* \"#utility.yul\":2625:2631   */\n      dup3\n        /* \"#utility.yul\":2621:2635   */\n      add\n        /* \"#utility.yul\":2614:2672   */\n      mstore\n        /* \"#utility.yul\":2706:2722   */\n      0x652072656c656173652074696d65000000000000000000000000000000000000\n        /* \"#utility.yul\":2701:2703   */\n      0x20\n        /* \"#utility.yul\":2693:2699   */\n      dup3\n        /* \"#utility.yul\":2689:2704   */\n      add\n        /* \"#utility.yul\":2682:2723   */\n      mstore\n        /* \"#utility.yul\":2497:2730   */\n      pop\n      jump\t// out\n        /* \"#utility.yul\":2736:3102   */\n    tag_60:\n        /* \"#utility.yul\":2878:2881   */\n      0x00\n        /* \"#utility.yul\":2899:2966   */\n      tag_106\n        /* \"#utility.yul\":2963:2965   */\n      0x2e\n        /* \"#utility.yul\":2958:2961   */\n      dup4\n        /* \"#utility.yul\":2899:2966   */\n      tag_58\n      jump\t// in\n    tag_106:\n        /* \"#utility.yul\":2892:2966   */\n      swap2\n      pop\n        /* \"#utility.yul\":2975:3068   */\n      tag_107\n        /* \"#utility.yul\":3064:3067   */\n      dup3\n        /* \"#utility.yul\":2975:3068   */\n      tag_59\n      jump\t// in\n    tag_107:\n        /* \"#utility.yul\":3093:3095   */\n      0x40\n        /* \"#utility.yul\":3088:3091   */\n      dup3\n        /* \"#utility.yul\":3084:3096   */\n      add\n        /* \"#utility.yul\":3077:3096   */\n      swap1\n      pop\n        /* \"#utility.yul\":2736:3102   */\n      swap2\n      swap1\n      pop\n      jump\t// out\n        /* \"#utility.yul\":3108:3527   */\n    tag_30:\n        /* \"#utility.yul\":3274:3278   */\n      0x00\n        /* \"#utility.yul\":3312:3314   */\n      0x20\n        /* \"#utility.yul\":3301:3310   */\n      dup3\n        /* \"#utility.yul\":3297:3315   */\n      add\n        /* \"#utility.yul\":3289:3315   */\n      swap1\n      pop\n        /* \"#utility.yul\":3361:3370   */\n      dup2\n        /* \"#utility.yul\":3355:3359   */\n      dup2\n        /* \"#utility.yul\":3351:3371   */\n      sub\n        /* \"#utility.yul\":3347:3348   */\n      0x00\n        /* \"#utility.yul\":3336:3345   */\n      dup4\n        /* \"#utility.yul\":3332:3349   */\n      add\n        /* \"#utility.yul\":3325:3372   */\n      mstore\n        /* \"#utility.yul\":3389:3520   */\n      tag_109\n        /* \"#utility.yul\":3515:3519   */\n      dup2\n        /* \"#utility.yul\":3389:3520   */\n      tag_60\n      jump\t// in\n    tag_109:\n        /* \"#utility.yul\":3381:3520   */\n      swap1\n      pop\n        /* \"#utility.yul\":3108:3527   */\n      swap2\n      swap1\n      pop\n      jump\t// out\n        /* \"#utility.yul\":3614:3731   */\n    tag_62:\n        /* \"#utility.yul\":3723:3724   */\n      0x00\n        /* \"#utility.yul\":3720:3721   */\n      0x00\n        /* \"#utility.yul\":3713:3725   */\n      revert\n        /* \"#utility.yul\":3860:3982   */\n    tag_64:\n        /* \"#utility.yul\":3933:3957   */\n      tag_114\n        /* \"#utility.yul\":3951:3956   */\n      dup2\n        /* \"#utility.yul\":3933:3957   */\n      tag_47\n      jump\t// in\n    tag_114:\n        /* \"#utility.yul\":3926:3931   */\n      dup2\n        /* \"#utility.yul\":3923:3958   */\n      eq\n        /* \"#utility.yul\":3913:3976   */\n      tag_115\n      jumpi\n        /* \"#utility.yul\":3972:3973   */\n      0x00\n        /* \"#utility.yul\":3969:3970   */\n      0x00\n        /* \"#utility.yul\":3962:3974   */\n      revert\n        /* \"#utility.yul\":3913:3976   */\n    tag_115:\n        /* \"#utility.yul\":3860:3982   */\n      pop\n      jump\t// out\n        /* \"#utility.yul\":3988:4131   */\n    tag_65:\n        /* \"#utility.yul\":4045:4050   */\n      0x00\n        /* \"#utility.yul\":4076:4082   */\n      dup2\n        /* \"#utility.yul\":4070:4083   */\n      mload\n        /* \"#utility.yul\":4061:4083   */\n      swap1\n      pop\n        /* \"#utility.yul\":4092:4125   */\n      tag_117\n        /* \"#utility.yul\":4119:4124   */\n      dup2\n        /* \"#utility.yul\":4092:4125   */\n      tag_64\n      jump\t// in\n    tag_117:\n        /* \"#utility.yul\":3988:4131   */\n      swap3\n      swap2\n      pop\n      pop\n      jump\t// out\n        /* \"#utility.yul\":4137:4488   */\n    tag_35:\n        /* \"#utility.yul\":4207:4213   */\n      0x00\n        /* \"#utility.yul\":4256:4258   */\n      0x20\n        /* \"#utility.yul\":4244:4253   */\n      dup3\n        /* \"#utility.yul\":4235:4242   */\n      dup5\n        /* \"#utility.yul\":4231:4254   */\n      sub\n        /* \"#utility.yul\":4227:4259   */\n      slt\n        /* \"#utility.yul\":4224:4343   */\n      iszero\n      tag_119\n      jumpi\n        /* \"#utility.yul\":4262:4341   */\n      tag_120\n      tag_62\n      jump\t// in\n    tag_120:\n        /* \"#utility.yul\":4224:4343   */\n    tag_119:\n        /* \"#utility.yul\":4382:4383   */\n      0x00\n        /* \"#utility.yul\":4407:4471   */\n      tag_121\n        /* \"#utility.yul\":4463:4470   */\n      dup5\n        /* \"#utility.yul\":4454:4460   */\n      dup3\n        /* \"#utility.yul\":4443:4452   */\n      dup6\n        /* \"#utility.yul\":4439:4461   */\n      add\n        /* \"#utility.yul\":4407:4471   */\n      tag_65\n      jump\t// in\n    tag_121:\n        /* \"#utility.yul\":4397:4471   */\n      swap2\n      pop\n        /* \"#utility.yul\":4353:4481   */\n      pop\n        /* \"#utility.yul\":4137:4488   */\n      swap3\n      swap2\n      pop\n      pop\n      jump\t// out\n        /* \"#utility.yul\":4494:4675   */\n    tag_66:\n        /* \"#utility.yul\":4634:4667   */\n      0x546f6b656e4c6f636b3a206e6f20746f6b656e7320746f2072656c6561736500\n        /* \"#utility.yul\":4630:4631   */\n      0x00\n        /* \"#utility.yul\":4622:4628   */\n      dup3\n        /* \"#utility.yul\":4618:4632   */\n      add\n        /* \"#utility.yul\":4611:4668   */\n      mstore\n        /* \"#utility.yul\":4494:4675   */\n      pop\n      jump\t// out\n        /* \"#utility.yul\":4681:5047   */\n    tag_67:\n        /* \"#utility.yul\":4823:4826   */\n      0x00\n        /* \"#utility.yul\":4844:4911   */\n      tag_124\n        /* \"#utility.yul\":4908:4910   */\n      0x1f\n        /* \"#utility.yul\":4903:4906   */\n      dup4\n        /* \"#utility.yul\":4844:4911   */\n      tag_58\n      jump\t// in\n    tag_124:\n        /* \"#utility.yul\":4837:4911   */\n      swap2\n      pop\n        /* \"#utility.yul\":4920:5013   */\n      tag_125\n        /* \"#utility.yul\":5009:5012   */\n      dup3\n        /* \"#utility.yul\":4920:5013   */\n      tag_66\n      jump\t// in\n    tag_125:\n        /* \"#utility.yul\":5038:5040   */\n      0x20\n        /* \"#utility.yul\":5033:5036   */\n      dup3\n        /* \"#utility.yul\":5029:5041   */\n      add\n        /* \"#utility.yul\":5022:5041   */\n      swap1\n      pop\n        /* \"#utility.yul\":4681:5047   */\n      swap2\n      swap1\n      pop\n      jump\t// out\n        /* \"#utility.yul\":5053:5472   */\n    tag_38:\n        /* \"#utility.yul\":5219:5223   */\n      0x00\n        /* \"#utility.yul\":5257:5259   */\n      0x20\n        /* \"#utility.yul\":5246:5255   */\n      dup3\n        /* \"#utility.yul\":5242:5260   */\n      add\n        /* \"#utility.yul\":5234:5260   */\n      swap1\n      pop\n        /* \"#utility.yul\":5306:5315   */\n      dup2\n        /* \"#utility.yul\":5300:5304   */\n      dup2\n        /* \"#utility.yul\":5296:5316   */\n      sub\n        /* \"#utility.yul\":5292:5293   */\n      0x00\n        /* \"#utility.yul\":5281:5290   */\n      dup4\n        /* \"#utility.yul\":5277:5294   */\n      add\n        /* \"#utility.yul\":5270:5317   */\n      mstore\n        /* \"#utility.yul\":5334:5465   */\n      tag_127\n        /* \"#utility.yul\":5460:5464   */\n      dup2\n        /* \"#utility.yul\":5334:5465   */\n      tag_67\n      jump\t// in\n    tag_127:\n        /* \"#utility.yul\":5326:5465   */\n      swap1\n      pop\n        /* \"#utility.yul\":5053:5472   */\n      swap2\n      swap1\n      pop\n      jump\t// out\n        /* \"#utility.yul\":5478:5810   */\n    tag_40:\n        /* \"#utility.yul\":5599:5603   */\n      0x00\n        /* \"#utility.yul\":5637:5639   */\n      0x40\n        /* \"#utility.yul\":5626:5635   */\n      dup3\n        /* \"#utility.yul\":5622:5640   */\n      add\n        /* \"#utility.yul\":5614:5640   */\n      swap1\n      pop\n        /* \"#utility.yul\":5650:5721   */\n      tag_129\n        /* \"#utility.yul\":5718:5719   */\n      0x00\n        /* \"#utility.yul\":5707:5716   */\n      dup4\n        /* \"#utility.yul\":5703:5720   */\n      add\n        /* \"#utility.yul\":5694:5700   */\n      dup6\n        /* \"#utility.yul\":5650:5721   */\n      tag_51\n      jump\t// in\n    tag_129:\n        /* \"#utility.yul\":5731:5803   */\n      tag_130\n        /* \"#utility.yul\":5799:5801   */\n      0x20\n        /* \"#utility.yul\":5788:5797   */\n      dup4\n        /* \"#utility.yul\":5784:5802   */\n      add\n        /* \"#utility.yul\":5775:5781   */\n      dup5\n        /* \"#utility.yul\":5731:5803   */\n      tag_48\n      jump\t// in\n    tag_130:\n        /* \"#utility.yul\":5478:5810   */\n      swap4\n      swap3\n      pop\n      pop\n      pop\n      jump\t// out\n        /* \"#utility.yul\":5816:5906   */\n    tag_68:\n        /* \"#utility.yul\":5850:5857   */\n      0x00\n        /* \"#utility.yul\":5893:5898   */\n      dup2\n        /* \"#utility.yul\":5886:5899   */\n      iszero\n        /* \"#utility.yul\":5879:5900   */\n      iszero\n        /* \"#utility.yul\":5868:5900   */\n      swap1\n      pop\n        /* \"#utility.yul\":5816:5906   */\n      swap2\n      swap1\n      pop\n      jump\t// out\n        /* \"#utility.yul\":5912:6028   */\n    tag_69:\n        /* \"#utility.yul\":5982:6003   */\n      tag_133\n        /* \"#utility.yul\":5997:6002   */\n      dup2\n        /* \"#utility.yul\":5982:6003   */\n      tag_68\n      jump\t// in\n    tag_133:\n        /* \"#utility.yul\":5975:5980   */\n      dup2\n        /* \"#utility.yul\":5972:6004   */\n      eq\n        /* \"#utility.yul\":5962:6022   */\n      tag_134\n      jumpi\n        /* \"#utility.yul\":6018:6019   */\n      0x00\n        /* \"#utility.yul\":6015:6016   */\n      0x00\n        /* \"#utility.yul\":6008:6020   */\n      revert\n        /* \"#utility.yul\":5962:6022   */\n    tag_134:\n        /* \"#utility.yul\":5912:6028   */\n      pop\n      jump\t// out\n        /* \"#utility.yul\":6034:6171   */\n    tag_70:\n        /* \"#utility.yul\":6088:6093   */\n      0x00\n        /* \"#utility.yul\":6119:6125   */\n      dup2\n        /* \"#utility.yul\":6113:6126   */\n      mload\n        /* \"#utility.yul\":6104:6126   */\n      swap1\n      pop\n        /* \"#utility.yul\":6135:6165   */\n      tag_136\n        /* \"#utility.yul\":6159:6164   */\n      dup2\n        /* \"#utility.yul\":6135:6165   */\n      tag_69\n      jump\t// in\n    tag_136:\n        /* \"#utility.yul\":6034:6171   */\n      swap3\n      swap2\n      pop\n      pop\n      jump\t// out\n        /* \"#utility.yul\":6177:6522   */\n    tag_44:\n        /* \"#utility.yul\":6244:6250   */\n      0x00\n        /* \"#utility.yul\":6293:6295   */\n      0x20\n        /* \"#utility.yul\":6281:6290   */\n      dup3\n        /* \"#utility.yul\":6272:6279   */\n      dup5\n        /* \"#utility.yul\":6268:6291   */\n      sub\n        /* \"#utility.yul\":6264:6296   */\n      slt\n        /* \"#utility.yul\":6261:6380   */\n      iszero\n      tag_138\n      jumpi\n        /* \"#utility.yul\":6299:6378   */\n      tag_139\n      tag_62\n      jump\t// in\n    tag_139:\n        /* \"#utility.yul\":6261:6380   */\n    tag_138:\n        /* \"#utility.yul\":6419:6420   */\n      0x00\n        /* \"#utility.yul\":6444:6505   */\n      tag_140\n        /* \"#utility.yul\":6497:6504   */\n      dup5\n        /* \"#utility.yul\":6488:6494   */\n      dup3\n        /* \"#utility.yul\":6477:6486   */\n      dup6\n        /* \"#utility.yul\":6473:6495   */\n      add\n        /* \"#utility.yul\":6444:6505   */\n      tag_70\n      jump\t// in\n    tag_140:\n        /* \"#utility.yul\":6434:6505   */\n      swap2\n      pop\n        /* \"#utility.yul\":6390:6515   */\n      pop\n        /* \"#utility.yul\":6177:6522   */\n      swap3\n      swap2\n      pop\n      pop\n      jump\t// out\n        /* \"#utility.yul\":6528:6860   */\n    tag_46:\n        /* \"#utility.yul\":6649:6653   */\n      0x00\n        /* \"#utility.yul\":6687:6689   */\n      0x40\n        /* \"#utility.yul\":6676:6685   */\n      dup3\n        /* \"#utility.yul\":6672:6690   */\n      add\n        /* \"#utility.yul\":6664:6690   */\n      swap1\n      pop\n        /* \"#utility.yul\":6700:6771   */\n      tag_142\n        /* \"#utility.yul\":6768:6769   */\n      0x00\n        /* \"#utility.yul\":6757:6766   */\n      dup4\n        /* \"#utility.yul\":6753:6770   */\n      add\n        /* \"#utility.yul\":6744:6750   */\n      dup6\n        /* \"#utility.yul\":6700:6771   */\n      tag_48\n      jump\t// in\n    tag_142:\n        /* \"#utility.yul\":6781:6853   */\n      tag_143\n        /* \"#utility.yul\":6849:6851   */\n      0x20\n        /* \"#utility.yul\":6838:6847   */\n      dup4\n        /* \"#utility.yul\":6834:6852   */\n      add\n        /* \"#utility.yul\":6825:6831   */\n      dup5\n        /* \"#utility.yul\":6781:6853   */\n      tag_48\n      jump\t// in\n    tag_143:\n        /* \"#utility.yul\":6528:6860   */\n      swap4\n      swap3\n      pop\n      pop\n      pop\n      jump\t// out\n\n    auxdata: 0xa264697066735822122007dbed3ff6aefa3c83d0ec07952fbaeb083ea8961c713f2d2f92912d3973bb0f64736f6c634300081e0033\n}\n",
				"bytecode": {
					"linkReferences": {},
					"object": "610100604052348015610010575f5ffd5b50604051610b8a380380610b8a83398181016040528101906100329190610227565b5f8111610074576040517f08c379a000000000000000000000000000000000000000000000000000000000815260040161006b906102f7565b60405180910390fd5b8273ffffffffffffffffffffffffffffffffffffffff1660808173ffffffffffffffffffffffffffffffffffffffff16815250508173ffffffffffffffffffffffffffffffffffffffff1660a08173ffffffffffffffffffffffffffffffffffffffff16815250508060c081815250504260e081815250508273ffffffffffffffffffffffffffffffffffffffff168273ffffffffffffffffffffffffffffffffffffffff167fe5d7d4b5cb0219916a8be73968f7baf3c806fd018b0cc5598f5129436cf5c316428460405161014b929190610324565b60405180910390a350505061034b565b5f5ffd5b5f73ffffffffffffffffffffffffffffffffffffffff82169050919050565b5f6101888261015f565b9050919050565b5f6101998261017e565b9050919050565b6101a98161018f565b81146101b3575f5ffd5b50565b5f815190506101c4816101a0565b92915050565b6101d38161017e565b81146101dd575f5ffd5b50565b5f815190506101ee816101ca565b92915050565b5f819050919050565b610206816101f4565b8114610210575f5ffd5b50565b5f81519050610221816101fd565b92915050565b5f5f5f6060848603121561023e5761023d61015b565b5b5f61024b868287016101b6565b935050602061025c868287016101e0565b925050604061026d86828701610213565b9150509250925092565b5f82825260208201905092915050565b7f546f6b656e4c6f636b3a206c6f636b2074696d652073686f756c6420677265615f8201527f746572207468616e203000000000000000000000000000000000000000000000602082015250565b5f6102e1602a83610277565b91506102ec82610287565b604082019050919050565b5f6020820190508181035f83015261030e816102d5565b9050919050565b61031e816101f4565b82525050565b5f6040820190506103375f830185610315565b6103446020830184610315565b9392505050565b60805160a05160c05160e0516107dc6103ae5f395f8181610125015261016a01525f818160dd015261014901525f8181610101015281816102f001526103a701525f81816101d8015281816102b401528181610370015261041a01526107dc5ff3fe608060405234801561000f575f5ffd5b5060043610610055575f3560e01c80630d6680871461005957806338af3eed1461007757806378e979251461009557806386d1a69f146100b3578063fc0c546a146100bd575b5f5ffd5b6100616100db565b60405161006e9190610454565b60405180910390f35b61007f6100ff565b60405161008c91906104ac565b60405180910390f35b61009d610123565b6040516100aa9190610454565b60405180910390f35b6100bb610147565b005b6100c5610418565b6040516100d29190610520565b60405180910390f35b7f000000000000000000000000000000000000000000000000000000000000000081565b7f000000000000000000000000000000000000000000000000000000000000000081565b7f000000000000000000000000000000000000000000000000000000000000000081565b7f00000000000000000000000000000000000000000000000000000000000000007f0000000000000000000000000000000000000000000000000000000000000000426101949190610566565b10156101d5576040517f08c379a00000000000000000000000000000000000000000000000000000000081526004016101cc90610619565b60405180910390fd5b5f7f000000000000000000000000000000000000000000000000000000000000000073ffffffffffffffffffffffffffffffffffffffff166370a08231306040518263ffffffff1660e01b815260040161022f91906104ac565b602060405180830381865afa15801561024a573d5f5f3e3d5ffd5b505050506040513d601f19601f8201168201806040525081019061026e9190610665565b90505f81116102b2576040517f08c379a00000000000000000000000000000000000000000000000000000000081526004016102a9906106da565b60405180910390fd5b7f000000000000000000000000000000000000000000000000000000000000000073ffffffffffffffffffffffffffffffffffffffff1663a9059cbb7f0000000000000000000000000000000000000000000000000000000000000000836040518363ffffffff1660e01b815260040161032d9291906106f8565b6020604051808303815f875af1158015610349573d5f5f3e3d5ffd5b505050506040513d601f19601f8201168201806040525081019061036d9190610754565b507f000000000000000000000000000000000000000000000000000000000000000073ffffffffffffffffffffffffffffffffffffffff167f000000000000000000000000000000000000000000000000000000000000000073ffffffffffffffffffffffffffffffffffffffff167f10b55f01b1cfe0feeb7d144f66162661602d8e73256499b6d8342aac37ff0679428460405161040d92919061077f565b60405180910390a350565b7f000000000000000000000000000000000000000000000000000000000000000081565b5f819050919050565b61044e8161043c565b82525050565b5f6020820190506104675f830184610445565b92915050565b5f73ffffffffffffffffffffffffffffffffffffffff82169050919050565b5f6104968261046d565b9050919050565b6104a68161048c565b82525050565b5f6020820190506104bf5f83018461049d565b92915050565b5f819050919050565b5f6104e86104e36104de8461046d565b6104c5565b61046d565b9050919050565b5f6104f9826104ce565b9050919050565b5f61050a826104ef565b9050919050565b61051a81610500565b82525050565b5f6020820190506105335f830184610511565b92915050565b7f4e487b71000000000000000000000000000000000000000000000000000000005f52601160045260245ffd5b5f6105708261043c565b915061057b8361043c565b925082820390508181111561059357610592610539565b5b92915050565b5f82825260208201905092915050565b7f546f6b656e4c6f636b3a2063757272656e742074696d65206973206265666f725f8201527f652072656c656173652074696d65000000000000000000000000000000000000602082015250565b5f610603602e83610599565b915061060e826105a9565b604082019050919050565b5f6020820190508181035f830152610630816105f7565b9050919050565b5f5ffd5b6106448161043c565b811461064e575f5ffd5b50565b5f8151905061065f8161063b565b92915050565b5f6020828403121561067a57610679610637565b5b5f61068784828501610651565b91505092915050565b7f546f6b656e4c6f636b3a206e6f20746f6b656e7320746f2072656c65617365005f82015250565b5f6106c4601f83610599565b91506106cf82610690565b602082019050919050565b5f6020820190508181035f8301526106f1816106b8565b9050919050565b5f60408201905061070b5f83018561049d565b6107186020830184610445565b9392505050565b5f8115159050919050565b6107338161071f565b811461073d575f5ffd5b50565b5f8151905061074e8161072a565b92915050565b5f6020828403121561076957610768610637565b5b5f61077684828501610740565b91505092915050565b5f6040820190506107925f830185610445565b61079f6020830184610445565b939250505056fea264697066735822122007dbed3ff6aefa3c83d0ec07952fbaeb083ea8961c713f2d2f92912d3973bb0f64736f6c634300081e0033",
					"opcodes": "PUSH2 0x100 PUSH1 0x40 MSTORE CALLVALUE DUP1 ISZERO PUSH2 0x10 JUMPI PUSH0 PUSH0 REVERT JUMPDEST POP PUSH1 0x40 MLOAD PUSH2 0xB8A CODESIZE SUB DUP1 PUSH2 0xB8A DUP4 CODECOPY DUP2 DUP2 ADD PUSH1 0x40 MSTORE DUP2 ADD SWAP1 PUSH2 0x32 SWAP2 SWAP1 PUSH2 0x227 JUMP JUMPDEST PUSH0 DUP2 GT PUSH2 0x74 JUMPI PUSH1 0x40 MLOAD PUSH32 0x8C379A000000000000000000000000000000000000000000000000000000000 DUP2 MSTORE PUSH1 0x4 ADD PUSH2 0x6B SWAP1 PUSH2 0x2F7 JUMP JUMPDEST PUSH1 0x40 MLOAD DUP1 SWAP2 SUB SWAP1 REVERT JUMPDEST DUP3 PUSH20 0xFFFFFFFFFFFFFFFFFFFFFFFFFFFFFFFFFFFFFFFF AND PUSH1 0x80 DUP2 PUSH20 0xFFFFFFFFFFFFFFFFFFFFFFFFFFFFFFFFFFFFFFFF AND DUP2 MSTORE POP POP DUP2 PUSH20 0xFFFFFFFFFFFFFFFFFFFFFFFFFFFFFFFFFFFFFFFF AND PUSH1 0xA0 DUP2 PUSH20 0xFFFFFFFFFFFFFFFFFFFFFFFFFFFFFFFFFFFFFFFF AND DUP2 MSTORE POP POP DUP1 PUSH1 0xC0 DUP2 DUP2 MSTORE POP POP TIMESTAMP PUSH1 0xE0 DUP2 DUP2 MSTORE POP POP DUP3 PUSH20 0xFFFFFFFFFFFFFFFFFFFFFFFFFFFFFFFFFFFFFFFF AND DUP3 PUSH20 0xFFFFFFFFFFFFFFFFFFFFFFFFFFFFFFFFFFFFFFFF AND PUSH32 0xE5D7D4B5CB0219916A8BE73968F7BAF3C806FD018B0CC5598F5129436CF5C316 TIMESTAMP DUP5 PUSH1 0x40 MLOAD PUSH2 0x14B SWAP3 SWAP2 SWAP1 PUSH2 0x324 JUMP JUMPDEST PUSH1 0x40 MLOAD DUP1 SWAP2 SUB SWAP1 LOG3 POP POP POP PUSH2 0x34B JUMP JUMPDEST PUSH0 PUSH0 REVERT JUMPDEST PUSH0 PUSH20 0xFFFFFFFFFFFFFFFFFFFFFFFFFFFFFFFFFFFFFFFF DUP3 AND SWAP1 POP SWAP2 SWAP1 POP JUMP JUMPDEST PUSH0 PUSH2 0x188 DUP3 PUSH2 0x15F JUMP JUMPDEST SWAP1 POP SWAP2 SWAP1 POP JUMP JUMPDEST PUSH0 PUSH2 0x199 DUP3 PUSH2 0x17E JUMP JUMPDEST SWAP1 POP SWAP2 SWAP1 POP JUMP JUMPDEST PUSH2 0x1A9 DUP2 PUSH2 0x18F JUMP JUMPDEST DUP2 EQ PUSH2 0x1B3 JUMPI PUSH0 PUSH0 REVERT JUMPDEST POP JUMP JUMPDEST PUSH0 DUP2 MLOAD SWAP1 POP PUSH2 0x1C4 DUP2 PUSH2 0x1A0 JUMP JUMPDEST SWAP3 SWAP2 POP POP JUMP JUMPDEST PUSH2 0x1D3 DUP2 PUSH2 0x17E JUMP JUMPDEST DUP2 EQ PUSH2 0x1DD JUMPI PUSH0 PUSH0 REVERT JUMPDEST POP JUMP JUMPDEST PUSH0 DUP2 MLOAD SWAP1 POP PUSH2 0x1EE DUP2 PUSH2 0x1CA JUMP JUMPDEST SWAP3 SWAP2 POP POP JUMP JUMPDEST PUSH0 DUP2 SWAP1 POP SWAP2 SWAP1 POP JUMP JUMPDEST PUSH2 0x206 DUP2 PUSH2 0x1F4 JUMP JUMPDEST DUP2 EQ PUSH2 0x210 JUMPI PUSH0 PUSH0 REVERT JUMPDEST POP JUMP JUMPDEST PUSH0 DUP2 MLOAD SWAP1 POP PUSH2 0x221 DUP2 PUSH2 0x1FD JUMP JUMPDEST SWAP3 SWAP2 POP POP JUMP JUMPDEST PUSH0 PUSH0 PUSH0 PUSH1 0x60 DUP5 DUP7 SUB SLT ISZERO PUSH2 0x23E JUMPI PUSH2 0x23D PUSH2 0x15B JUMP JUMPDEST JUMPDEST PUSH0 PUSH2 0x24B DUP7 DUP3 DUP8 ADD PUSH2 0x1B6 JUMP JUMPDEST SWAP4 POP POP PUSH1 0x20 PUSH2 0x25C DUP7 DUP3 DUP8 ADD PUSH2 0x1E0 JUMP JUMPDEST SWAP3 POP POP PUSH1 0x40 PUSH2 0x26D DUP7 DUP3 DUP8 ADD PUSH2 0x213 JUMP JUMPDEST SWAP2 POP POP SWAP3 POP SWAP3 POP SWAP3 JUMP JUMPDEST PUSH0 DUP3 DUP3 MSTORE PUSH1 0x20 DUP3 ADD SWAP1 POP SWAP3 SWAP2 POP POP JUMP JUMPDEST PUSH32 0x546F6B656E4C6F636B3A206C6F636B2074696D652073686F756C642067726561 PUSH0 DUP3 ADD MSTORE PUSH32 0x746572207468616E203000000000000000000000000000000000000000000000 PUSH1 0x20 DUP3 ADD MSTORE POP JUMP JUMPDEST PUSH0 PUSH2 0x2E1 PUSH1 0x2A DUP4 PUSH2 0x277 JUMP JUMPDEST SWAP2 POP PUSH2 0x2EC DUP3 PUSH2 0x287 JUMP JUMPDEST PUSH1 0x40 DUP3 ADD SWAP1 POP SWAP2 SWAP1 POP JUMP JUMPDEST PUSH0 PUSH1 0x20 DUP3 ADD SWAP1 POP DUP2 DUP2 SUB PUSH0 DUP4 ADD MSTORE PUSH2 0x30E DUP2 PUSH2 0x2D5 JUMP JUMPDEST SWAP1 POP SWAP2 SWAP1 POP JUMP JUMPDEST PUSH2 0x31E DUP2 PUSH2 0x1F4 JUMP JUMPDEST DUP3 MSTORE POP POP JUMP JUMPDEST PUSH0 PUSH1 0x40 DUP3 ADD SWAP1 POP PUSH2 0x337 PUSH0 DUP4 ADD DUP6 PUSH2 0x315 JUMP JUMPDEST PUSH2 0x344 PUSH1 0x20 DUP4 ADD DUP5 PUSH2 0x315 JUMP JUMPDEST SWAP4 SWAP3 POP POP POP JUMP JUMPDEST PUSH1 0x80 MLOAD PUSH1 0xA0 MLOAD PUSH1 0xC0 MLOAD PUSH1 0xE0 MLOAD PUSH2 0x7DC PUSH2 0x3AE PUSH0 CODECOPY PUSH0 DUP2 DUP2 PUSH2 0x125 ADD MSTORE PUSH2 0x16A ADD MSTORE PUSH0 DUP2 DUP2 PUSH1 0xDD ADD MSTORE PUSH2 0x149 ADD MSTORE PUSH0 DUP2 DUP2 PUSH2 0x101 ADD MSTORE DUP2 DUP2 PUSH2 0x2F0 ADD MSTORE PUSH2 0x3A7 ADD MSTORE PUSH0 DUP2 DUP2 PUSH2 0x1D8 ADD MSTORE DUP2 DUP2 PUSH2 0x2B4 ADD MSTORE DUP2 DUP2 PUSH2 0x370 ADD MSTORE PUSH2 0x41A ADD MSTORE PUSH2 0x7DC PUSH0 RETURN INVALID PUSH1 0x80 PUSH1 0x40 MSTORE CALLVALUE DUP1 ISZERO PUSH2 0xF JUMPI PUSH0 PUSH0 REVERT JUMPDEST POP PUSH1 0x4 CALLDATASIZE LT PUSH2 0x55 JUMPI PUSH0 CALLDATALOAD PUSH1 0xE0 SHR DUP1 PUSH4 0xD668087 EQ PUSH2 0x59 JUMPI DUP1 PUSH4 0x38AF3EED EQ PUSH2 0x77 JUMPI DUP1 PUSH4 0x78E97925 EQ PUSH2 0x95 JUMPI DUP1 PUSH4 0x86D1A69F EQ PUSH2 0xB3 JUMPI DUP1 PUSH4 0xFC0C546A EQ PUSH2 0xBD JUMPI JUMPDEST PUSH0 PUSH0 REVERT JUMPDEST PUSH2 0x61 PUSH2 0xDB JUMP JUMPDEST PUSH1 0x40 MLOAD PUSH2 0x6E SWAP2 SWAP1 PUSH2 0x454 JUMP JUMPDEST PUSH1 0x40 MLOAD DUP1 SWAP2 SUB SWAP1 RETURN JUMPDEST PUSH2 0x7F PUSH2 0xFF JUMP JUMPDEST PUSH1 0x40 MLOAD PUSH2 0x8C SWAP2 SWAP1 PUSH2 0x4AC JUMP JUMPDEST PUSH1 0x40 MLOAD DUP1 SWAP2 SUB SWAP1 RETURN JUMPDEST PUSH2 0x9D PUSH2 0x123 JUMP JUMPDEST PUSH1 0x40 MLOAD PUSH2 0xAA SWAP2 SWAP1 PUSH2 0x454 JUMP JUMPDEST PUSH1 0x40 MLOAD DUP1 SWAP2 SUB SWAP1 RETURN JUMPDEST PUSH2 0xBB PUSH2 0x147 JUMP JUMPDEST STOP JUMPDEST PUSH2 0xC5 PUSH2 0x418 JUMP JUMPDEST PUSH1 0x40 MLOAD PUSH2 0xD2 SWAP2 SWAP1 PUSH2 0x520 JUMP JUMPDEST PUSH1 0x40 MLOAD DUP1 SWAP2 SUB SWAP1 RETURN JUMPDEST PUSH32 0x0 DUP2 JUMP JUMPDEST PUSH32 0x0 DUP2 JUMP JUMPDEST PUSH32 0x0 DUP2 JUMP JUMPDEST PUSH32 0x0 PUSH32 0x0 TIMESTAMP PUSH2 0x194 SWAP2 SWAP1 PUSH2 0x566 JUMP JUMPDEST LT ISZERO PUSH2 0x1D5 JUMPI PUSH1 0x40 MLOAD PUSH32 0x8C379A000000000000000000000000000000000000000000000000000000000 DUP2 MSTORE PUSH1 0x4 ADD PUSH2 0x1CC SWAP1 PUSH2 0x619 JUMP JUMPDEST PUSH1 0x40 MLOAD DUP1 SWAP2 SUB SWAP1 REVERT JUMPDEST PUSH0 PUSH32 0x0 PUSH20 0xFFFFFFFFFFFFFFFFFFFFFFFFFFFFFFFFFFFFFFFF AND PUSH4 0x70A08231 ADDRESS PUSH1 0x40 MLOAD DUP3 PUSH4 0xFFFFFFFF AND PUSH1 0xE0 SHL DUP2 MSTORE PUSH1 0x4 ADD PUSH2 0x22F SWAP2 SWAP1 PUSH2 0x4AC JUMP JUMPDEST PUSH1 0x20 PUSH1 0x40 MLOAD DUP1 DUP4 SUB DUP2 DUP7 GAS STATICCALL ISZERO DUP1 ISZERO PUSH2 0x24A JUMPI RETURNDATASIZE PUSH0 PUSH0 RETURNDATACOPY RETURNDATASIZE PUSH0 REVERT JUMPDEST POP POP POP POP PUSH1 0x40 MLOAD RETURNDATASIZE PUSH1 0x1F NOT PUSH1 0x1F DUP3 ADD AND DUP3 ADD DUP1 PUSH1 0x40 MSTORE POP DUP2 ADD SWAP1 PUSH2 0x26E SWAP2 SWAP1 PUSH2 0x665 JUMP JUMPDEST SWAP1 POP PUSH0 DUP2 GT PUSH2 0x2B2 JUMPI PUSH1 0x40 MLOAD PUSH32 0x8C379A000000000000000000000000000000000000000000000000000000000 DUP2 MSTORE PUSH1 0x4 ADD PUSH2 0x2A9 SWAP1 PUSH2 0x6DA JUMP JUMPDEST PUSH1 0x40 MLOAD DUP1 SWAP2 SUB SWAP1 REVERT JUMPDEST PUSH32 0x0 PUSH20 0xFFFFFFFFFFFFFFFFFFFFFFFFFFFFFFFFFFFFFFFF AND PUSH4 0xA9059CBB PUSH32 0x0 DUP4 PUSH1 0x40 MLOAD DUP4 PUSH4 0xFFFFFFFF AND PUSH1 0xE0 SHL DUP2 MSTORE PUSH1 0x4 ADD PUSH2 0x32D SWAP3 SWAP2 SWAP1 PUSH2 0x6F8 JUMP JUMPDEST PUSH1 0x20 PUSH1 0x40 MLOAD DUP1 DUP4 SUB DUP2 PUSH0 DUP8 GAS CALL ISZERO DUP1 ISZERO PUSH2 0x349 JUMPI RETURNDATASIZE PUSH0 PUSH0 RETURNDATACOPY RETURNDATASIZE PUSH0 REVERT JUMPDEST POP POP POP POP PUSH1 0x40 MLOAD RETURNDATASIZE PUSH1 0x1F NOT PUSH1 0x1F DUP3 ADD AND DUP3 ADD DUP1 PUSH1 0x40 MSTORE POP DUP2 ADD SWAP1 PUSH2 0x36D SWAP2 SWAP1 PUSH2 0x754 JUMP JUMPDEST POP PUSH32 0x0 PUSH20 0xFFFFFFFFFFFFFFFFFFFFFFFFFFFFFFFFFFFFFFFF AND PUSH32 0x0 PUSH20 0xFFFFFFFFFFFFFFFFFFFFFFFFFFFFFFFFFFFFFFFF AND PUSH32 0x10B55F01B1CFE0FEEB7D144F66162661602D8E73256499B6D8342AAC37FF0679 TIMESTAMP DUP5 PUSH1 0x40 MLOAD PUSH2 0x40D SWAP3 SWAP2 SWAP1 PUSH2 0x77F JUMP JUMPDEST PUSH1 0x40 MLOAD DUP1 SWAP2 SUB SWAP1 LOG3 POP JUMP JUMPDEST PUSH32 0x0 DUP2 JUMP JUMPDEST PUSH0 DUP2 SWAP1 POP SWAP2 SWAP1 POP JUMP JUMPDEST PUSH2 0x44E DUP2 PUSH2 0x43C JUMP JUMPDEST DUP3 MSTORE POP POP JUMP JUMPDEST PUSH0 PUSH1 0x20 DUP3 ADD SWAP1 POP PUSH2 0x467 PUSH0 DUP4 ADD DUP5 PUSH2 0x445 JUMP JUMPDEST SWAP3 SWAP2 POP POP JUMP JUMPDEST PUSH0 PUSH20 0xFFFFFFFFFFFFFFFFFFFFFFFFFFFFFFFFFFFFFFFF DUP3 AND SWAP1 POP SWAP2 SWAP1 POP JUMP JUMPDEST PUSH0 PUSH2 0x496 DUP3 PUSH2 0x46D JUMP JUMPDEST SWAP1 POP SWAP2 SWAP1 POP JUMP JUMPDEST PUSH2 0x4A6 DUP2 PUSH2 0x48C JUMP JUMPDEST DUP3 MSTORE POP POP JUMP JUMPDEST PUSH0 PUSH1 0x20 DUP3 ADD SWAP1 POP PUSH2 0x4BF PUSH0 DUP4 ADD DUP5 PUSH2 0x49D JUMP JUMPDEST SWAP3 SWAP2 POP POP JUMP JUMPDEST PUSH0 DUP2 SWAP1 POP SWAP2 SWAP1 POP JUMP JUMPDEST PUSH0 PUSH2 0x4E8 PUSH2 0x4E3 PUSH2 0x4DE DUP5 PUSH2 0x46D JUMP JUMPDEST PUSH2 0x4C5 JUMP JUMPDEST PUSH2 0x46D JUMP JUMPDEST SWAP1 POP SWAP2 SWAP1 POP JUMP JUMPDEST PUSH0 PUSH2 0x4F9 DUP3 PUSH2 0x4CE JUMP JUMPDEST SWAP1 POP SWAP2 SWAP1 POP JUMP JUMPDEST PUSH0 PUSH2 0x50A DUP3 PUSH2 0x4EF JUMP JUMPDEST SWAP1 POP SWAP2 SWAP1 POP JUMP JUMPDEST PUSH2 0x51A DUP2 PUSH2 0x500 JUMP JUMPDEST DUP3 MSTORE POP POP JUMP JUMPDEST PUSH0 PUSH1 0x20 DUP3 ADD SWAP1 POP PUSH2 0x533 PUSH0 DUP4 ADD DUP5 PUSH2 0x511 JUMP JUMPDEST SWAP3 SWAP2 POP POP JUMP JUMPDEST PUSH32 0x4E487B7100000000000000000000000000000000000000000000000000000000 PUSH0 MSTORE PUSH1 0x11 PUSH1 0x4 MSTORE PUSH1 0x24 PUSH0 REVERT JUMPDEST PUSH0 PUSH2 0x570 DUP3 PUSH2 0x43C JUMP JUMPDEST SWAP2 POP PUSH2 0x57B DUP4 PUSH2 0x43C JUMP JUMPDEST SWAP3 POP DUP3 DUP3 SUB SWAP1 POP DUP2 DUP2 GT ISZERO PUSH2 0x593 JUMPI PUSH2 0x592 PUSH2 0x539 JUMP JUMPDEST JUMPDEST SWAP3 SWAP2 POP POP JUMP JUMPDEST PUSH0 DUP3 DUP3 MSTORE PUSH1 0x20 DUP3 ADD SWAP1 POP SWAP3 SWAP2 POP POP JUMP JUMPDEST PUSH32 0x546F6B656E4C6F636B3A2063757272656E742074696D65206973206265666F72 PUSH0 DUP3 ADD MSTORE PUSH32 0x652072656C656173652074696D65000000000000000000000000000000000000 PUSH1 0x20 DUP3 ADD MSTORE POP JUMP JUMPDEST PUSH0 PUSH2 0x603 PUSH1 0x2E DUP4 PUSH2 0x599 JUMP JUMPDEST SWAP2 POP PUSH2 0x60E DUP3 PUSH2 0x5A9 JUMP JUMPDEST PUSH1 0x40 DUP3 ADD SWAP1 POP SWAP2 SWAP1 POP JUMP JUMPDEST PUSH0 PUSH1 0x20 DUP3 ADD SWAP1 POP DUP2 DUP2 SUB PUSH0 DUP4 ADD MSTORE PUSH2 0x630 DUP2 PUSH2 0x5F7 JUMP JUMPDEST SWAP1 POP SWAP2 SWAP1 POP JUMP JUMPDEST PUSH0 PUSH0 REVERT JUMPDEST PUSH2 0x644 DUP2 PUSH2 0x43C JUMP JUMPDEST DUP2 EQ PUSH2 0x64E JUMPI PUSH0 PUSH0 REVERT JUMPDEST POP JUMP JUMPDEST PUSH0 DUP2 MLOAD SWAP1 POP PUSH2 0x65F DUP2 PUSH2 0x63B JUMP JUMPDEST SWAP3 SWAP2 POP POP JUMP JUMPDEST PUSH0 PUSH1 0x20 DUP3 DUP5 SUB SLT ISZERO PUSH2 0x67A JUMPI PUSH2 0x679 PUSH2 0x637 JUMP JUMPDEST JUMPDEST PUSH0 PUSH2 0x687 DUP5 DUP3 DUP6 ADD PUSH2 0x651 JUMP JUMPDEST SWAP2 POP POP SWAP3 SWAP2 POP POP JUMP JUMPDEST PUSH32 0x546F6B656E4C6F636B3A206E6F20746F6B656E7320746F2072656C6561736500 PUSH0 DUP3 ADD MSTORE POP JUMP JUMPDEST PUSH0 PUSH2 0x6C4 PUSH1 0x1F DUP4 PUSH2 0x599 JUMP JUMPDEST SWAP2 POP PUSH2 0x6CF DUP3 PUSH2 0x690 JUMP JUMPDEST PUSH1 0x20 DUP3 ADD SWAP1 POP SWAP2 SWAP1 POP JUMP JUMPDEST PUSH0 PUSH1 0x20 DUP3 ADD SWAP1 POP DUP2 DUP2 SUB PUSH0 DUP4 ADD MSTORE PUSH2 0x6F1 DUP2 PUSH2 0x6B8 JUMP JUMPDEST SWAP1 POP SWAP2 SWAP1 POP JUMP JUMPDEST PUSH0 PUSH1 0x40 DUP3 ADD SWAP1 POP PUSH2 0x70B PUSH0 DUP4 ADD DUP6 PUSH2 0x49D JUMP JUMPDEST PUSH2 0x718 PUSH1 0x20 DUP4 ADD DUP5 PUSH2 0x445 JUMP JUMPDEST SWAP4 SWAP3 POP POP POP JUMP JUMPDEST PUSH0 DUP2 ISZERO ISZERO SWAP1 POP SWAP2 SWAP1 POP JUMP JUMPDEST PUSH2 0x733 DUP2 PUSH2 0x71F JUMP JUMPDEST DUP2 EQ PUSH2 0x73D JUMPI PUSH0 PUSH0 REVERT JUMPDEST POP JUMP JUMPDEST PUSH0 DUP2 MLOAD SWAP1 POP PUSH2 0x74E DUP2 PUSH2 0x72A JUMP JUMPDEST SWAP3 SWAP2 POP POP JUMP JUMPDEST PUSH0 PUSH1 0x20 DUP3 DUP5 SUB SLT ISZERO PUSH2 0x769 JUMPI PUSH2 0x768 PUSH2 0x637 JUMP JUMPDEST JUMPDEST PUSH0 PUSH2 0x776 DUP5 DUP3 DUP6 ADD PUSH2 0x740 JUMP JUMPDEST SWAP2 POP POP SWAP3 SWAP2 POP POP JUMP JUMPDEST PUSH0 PUSH1 0x40 DUP3 ADD SWAP1 POP PUSH2 0x792 PUSH0 DUP4 ADD DUP6 PUSH2 0x445 JUMP JUMPDEST PUSH2 0x79F PUSH1 0x20 DUP4 ADD DUP5 PUSH2 0x445 JUMP JUMPDEST SWAP4 SWAP3 POP POP POP JUMP INVALID LOG2 PUSH5 0x6970667358 0x22 SLT KECCAK256 SMOD 0xDB 0xED EXTCODEHASH 0xF6 0xAE STATICCALL EXTCODECOPY DUP4 0xD0 EOFCREATE 0x7 SWAP6 0x2F 0xBA 0xEB ADDMOD RETURNDATACOPY 0xA8 SWAP7 SHR PUSH18 0x3F2D2F92912D3973BB0F64736F6C63430008 0x1E STOP CALLER "
				},
				"gasEstimates": {
					"creation": {
						"codeDepositCost": "402400",
						"executionCost": "infinite",
						"totalCost": "infinite"
					},
					"external": {
						"beneficiary()": "infinite",
						"lockTime()": "infinite",
						"release()": "infinite",
						"startTime()": "infinite",
						"token()": "infinite"
					}
				},
				"methodIdentifiers": {
					"beneficiary()": "38af3eed",
					"lockTime()": "0d668087",
					"release()": "86d1a69f",
					"startTime()": "78e97925",
					"token()": "fc0c546a"
				}
			},
			"storageLayout": {
				"storage": [],
				"types": null
			},
			"userdoc": {
				"kind": "user",
				"methods": {},
				"version": 1
			}
		}
	}
}