{
	"contracts/ERC1155.sol": {
		"ERC1155": {
			"abi": [
				{
					"inputs": [
						{
							"internalType": "string",
							"name": "name_",
							"type": "string"
						},
						{
							"internalType": "string",
							"name": "symbol_",
							"type": "string"
						}
					],
					"stateMutability": "nonpayable",
					"type": "constructor"
				},
				{
					"anonymous": false,
					"inputs": [
						{
							"indexed": true,
							"internalType": "address",
							"name": "account",
							"type": "address"
						},
						{
							"indexed": true,
							"internalType": "address",
							"name": "operator",
							"type": "address"
						},
						{
							"indexed": false,
							"internalType": "bool",
							"name": "approved",
							"type": "bool"
						}
					],
					"name": "ApprovalForAll",
					"type": "event"
				},
				{
					"anonymous": false,
					"inputs": [
						{
							"indexed": true,
							"internalType": "address",
							"name": "operator",
							"type": "address"
						},
						{
							"indexed": true,
							"internalType": "address",
							"name": "from",
							"type": "address"
						},
						{
							"indexed": true,
							"internalType": "address",
							"name": "to",
							"type": "address"
						},
						{
							"indexed": false,
							"internalType": "uint256[]",
							"name": "ids",
							"type": "uint256[]"
						},
						{
							"indexed": false,
							"internalType": "uint256[]",
							"name": "values",
							"type": "uint256[]"
						}
					],
					"name": "TransferBatch",
					"type": "event"
				},
				{
					"anonymous": false,
					"inputs": [
						{
							"indexed": true,
							"internalType": "address",
							"name": "operator",
							"type": "address"
						},
						{
							"indexed": true,
							"internalType": "address",
							"name": "from",
							"type": "address"
						},
						{
							"indexed": true,
							"internalType": "address",
							"name": "to",
							"type": "address"
						},
						{
							"indexed": false,
							"internalType": "uint256",
							"name": "id",
							"type": "uint256"
						},
						{
							"indexed": false,
							"internalType": "uint256",
							"name": "value",
							"type": "uint256"
						}
					],
					"name": "TransferSingle",
					"type": "event"
				},
				{
					"anonymous": false,
					"inputs": [
						{
							"indexed": false,
							"internalType": "string",
							"name": "value",
							"type": "string"
						},
						{
							"indexed": true,
							"internalType": "uint256",
							"name": "id",
							"type": "uint256"
						}
					],
					"name": "URI",
					"type": "event"
				},
				{
					"inputs": [
						{
							"internalType": "address",
							"name": "account",
							"type": "address"
						},
						{
							"internalType": "uint256",
							"name": "id",
							"type": "uint256"
						}
					],
					"name": "balanceOf",
					"outputs": [
						{
							"internalType": "uint256",
							"name": "",
							"type": "uint256"
						}
					],
					"stateMutability": "view",
					"type": "function"
				},
				{
					"inputs": [
						{
							"internalType": "address[]",
							"name": "accounts",
							"type": "address[]"
						},
						{
							"internalType": "uint256[]",
							"name": "ids",
							"type": "uint256[]"
						}
					],
					"name": "balanceOfBatch",
					"outputs": [
						{
							"internalType": "uint256[]",
							"name": "",
							"type": "uint256[]"
						}
					],
					"stateMutability": "view",
					"type": "function"
				},
				{
					"inputs": [
						{
							"internalType": "address",
							"name": "account",
							"type": "address"
						},
						{
							"internalType": "address",
							"name": "operator",
							"type": "address"
						}
					],
					"name": "isApprovedForAll",
					"outputs": [
						{
							"internalType": "bool",
							"name": "",
							"type": "bool"
						}
					],
					"stateMutability": "view",
					"type": "function"
				},
				{
					"inputs": [],
					"name": "name",
					"outputs": [
						{
							"internalType": "string",
							"name": "",
							"type": "string"
						}
					],
					"stateMutability": "view",
					"type": "function"
				},
				{
					"inputs": [
						{
							"internalType": "address",
							"name": "from",
							"type": "address"
						},
						{
							"internalType": "address",
							"name": "to",
							"type": "address"
						},
						{
							"internalType": "uint256[]",
							"name": "ids",
							"type": "uint256[]"
						},
						{
							"internalType": "uint256[]",
							"name": "amounts",
							"type": "uint256[]"
						},
						{
							"internalType": "bytes",
							"name": "data",
							"type": "bytes"
						}
					],
					"name": "safeBatchTransferFrom",
					"outputs": [],
					"stateMutability": "nonpayable",
					"type": "function"
				},
				{
					"inputs": [
						{
							"internalType": "address",
							"name": "from",
							"type": "address"
						},
						{
							"internalType": "address",
							"name": "to",
							"type": "address"
						},
						{
							"internalType": "uint256",
							"name": "id",
							"type": "uint256"
						},
						{
							"internalType": "uint256",
							"name": "amount",
							"type": "uint256"
						},
						{
							"internalType": "bytes",
							"name": "data",
							"type": "bytes"
						}
					],
					"name": "safeTransferFrom",
					"outputs": [],
					"stateMutability": "nonpayable",
					"type": "function"
				},
				{
					"inputs": [
						{
							"internalType": "address",
							"name": "operator",
							"type": "address"
						},
						{
							"internalType": "bool",
							"name": "approved",
							"type": "bool"
						}
					],
					"name": "setApprovalForAll",
					"outputs": [],
					"stateMutability": "nonpayable",
					"type": "function"
				},
				{
					"inputs": [
						{
							"internalType": "bytes4",
							"name": "interfaceId",
							"type": "bytes4"
						}
					],
					"name": "supportsInterface",
					"outputs": [
						{
							"internalType": "bool",
							"name": "",
							"type": "bool"
						}
					],
					"stateMutability": "view",
					"type": "function"
				},
				{
					"inputs": [],
					"name": "symbol",
					"outputs": [
						{
							"internalType": "string",
							"name": "",
							"type": "string"
						}
					],
					"stateMutability": "view",
					"type": "function"
				},
				{
					"inputs": [
						{
							"internalType": "uint256",
							"name": "id",
							"type": "uint256"
						}
					],
					"name": "uri",
					"outputs": [
						{
							"internalType": "string",
							"name": "",
							"type": "string"
						}
					],
					"stateMutability": "view",
					"type": "function"
				}
			],
			"devdoc": {
				"details": "ERC1155多代币标准 见 https://eips.ethereum.org/EIPS/eip-1155",
				"events": {
					"ApprovalForAll(address,address,bool)": {
						"details": "批量授权事件 当`account`将所有代币授权给`operator`时释放"
					},
					"TransferBatch(address,address,address,uint256[],uint256[])": {
						"details": "批量代币转账事件 ids和values为转账的代币种类和数量数组"
					},
					"TransferSingle(address,address,address,uint256,uint256)": {
						"details": "单类代币转账事件 当`value`个`id`种类的代币被`operator`从`from`转账到`to`时释放."
					},
					"URI(string,uint256)": {
						"details": "当`id`种类的代币的URI发生变化时释放，`value`为新的URI"
					}
				},
				"kind": "dev",
				"methods": {
					"balanceOf(address,uint256)": {
						"details": "持仓查询 实现IERC1155的balanceOf，返回account地址的id种类代币持仓量。"
					},
					"balanceOfBatch(address[],uint256[])": {
						"details": "批量持仓查询 要求: - `accounts` 和 `ids` 数组长度相等. virtual 关键字用在函数 (function) 或修饰符 (modifier) 上，它的意思是： “我允许我的子合约（派生合约）来‘重写’(override) 我这个函数。”"
					},
					"isApprovedForAll(address,address)": {
						"details": "查询批量授权."
					},
					"safeBatchTransferFrom(address,address,uint256[],uint256[],bytes)": {
						"details": "批量安全转账，将`amounts`数组单位的`ids`数组种类代币从`from`转账到`to` 释放 {TransferSingle} 事件. 要求: - to 不能是0地址. - from拥有足够的持仓量，且调用者拥有授权 - 如果 to 是智能合约, 他必须支持 IERC1155Receiver-onERC1155BatchReceived. - ids和amounts数组长度相等"
					},
					"safeTransferFrom(address,address,uint256,uint256,bytes)": {
						"details": "安全转账，将`amount`单位的`id`种类代币从`from`转账到`to` 释放 {TransferSingle} 事件. 要求: - to 不能是0地址. - from拥有足够的持仓量，且调用者拥有授权 - 如果 to 是智能合约, 他必须支持 IERC1155Receiver-onERC1155Received."
					},
					"setApprovalForAll(address,bool)": {
						"details": "批量授权，调用者授权operator使用其所有代币（我运行你干事情） 释放{ApprovalForAll}事件 条件：msg.sender != operator"
					},
					"uri(uint256)": {
						"details": "返回ERC1155的id种类代币的uri，存储metadata，类似ERC721的tokenURI. 是一个内部（internal）辅助函数，它被用来设置和返回 URL 的“前缀”部分 这整段代码的作用是，OpenSea 或其他钱包来“询问” id 为 8888 的代币长什么样时，这个 uri 函数会智能地回答一个完整的 URL： \"https://api.mygame.com/token/8888\" 然后 OpenSea 就会去访问这个 URL，下载它返回的 JSON 文件，从而知道这个 NFT 叫什么名字、长什么图片、有什么属性。"
					}
				},
				"version": 1
			},
			"evm": {
				"assembly": "    /* \"contracts/ERC1155.sol\":301:14473  contract ERC1155 is IERC165,IERC1155,IERC1155MetadataURI{... */\n  mstore(0x40, 0x80)\n    /* \"contracts/ERC1155.sol\":848:962  constructor(string memory name_, string memory symbol_) {... */\n  callvalue\n  dup1\n  iszero\n  tag_1\n  jumpi\n  revert(0x00, 0x00)\ntag_1:\n  pop\n  mload(0x40)\n  sub(codesize, bytecodeSize)\n  dup1\n  bytecodeSize\n  dup4\n  codecopy\n  dup2\n  dup2\n  add\n  0x40\n  mstore\n  dup2\n  add\n  swap1\n  tag_2\n  swap2\n  swap1\n  tag_3\n  jump\t// in\ntag_2:\n    /* \"contracts/ERC1155.sol\":922:927  name_ */\n  dup2\n    /* \"contracts/ERC1155.sol\":915:919  name */\n  0x00\n    /* \"contracts/ERC1155.sol\":915:927  name = name_ */\n  swap1\n  dup2\n  tag_6\n  swap2\n  swap1\n  tag_7\n  jump\t// in\ntag_6:\n  pop\n    /* \"contracts/ERC1155.sol\":947:954  symbol_ */\n  dup1\n    /* \"contracts/ERC1155.sol\":938:944  symbol */\n  0x01\n    /* \"contracts/ERC1155.sol\":938:954  symbol = symbol_ */\n  swap1\n  dup2\n  tag_8\n  swap2\n  swap1\n  tag_7\n  jump\t// in\ntag_8:\n  pop\n    /* \"contracts/ERC1155.sol\":848:962  constructor(string memory name_, string memory symbol_) {... */\n  pop\n  pop\n    /* \"contracts/ERC1155.sol\":301:14473  contract ERC1155 is IERC165,IERC1155,IERC1155MetadataURI{... */\n  jump(tag_9)\n    /* \"#utility.yul\":7:82   */\ntag_10:\n    /* \"#utility.yul\":40:46   */\n  0x00\n    /* \"#utility.yul\":73:75   */\n  0x40\n    /* \"#utility.yul\":67:76   */\n  mload\n    /* \"#utility.yul\":57:76   */\n  swap1\n  pop\n    /* \"#utility.yul\":7:82   */\n  swap1\n  jump\t// out\n    /* \"#utility.yul\":88:205   */\ntag_11:\n    /* \"#utility.yul\":197:198   */\n  0x00\n    /* \"#utility.yul\":194:195   */\n  0x00\n    /* \"#utility.yul\":187:199   */\n  revert\n    /* \"#utility.yul\":211:328   */\ntag_12:\n    /* \"#utility.yul\":320:321   */\n  0x00\n    /* \"#utility.yul\":317:318   */\n  0x00\n    /* \"#utility.yul\":310:322   */\n  revert\n    /* \"#utility.yul\":334:451   */\ntag_13:\n    /* \"#utility.yul\":443:444   */\n  0x00\n    /* \"#utility.yul\":440:441   */\n  0x00\n    /* \"#utility.yul\":433:445   */\n  revert\n    /* \"#utility.yul\":457:574   */\ntag_14:\n    /* \"#utility.yul\":566:567   */\n  0x00\n    /* \"#utility.yul\":563:564   */\n  0x00\n    /* \"#utility.yul\":556:568   */\n  revert\n    /* \"#utility.yul\":580:682   */\ntag_15:\n    /* \"#utility.yul\":621:627   */\n  0x00\n    /* \"#utility.yul\":672:674   */\n  0x1f\n    /* \"#utility.yul\":668:675   */\n  not\n    /* \"#utility.yul\":663:665   */\n  0x1f\n    /* \"#utility.yul\":656:661   */\n  dup4\n    /* \"#utility.yul\":652:666   */\n  add\n    /* \"#utility.yul\":648:676   */\n  and\n    /* \"#utility.yul\":638:676   */\n  swap1\n  pop\n    /* \"#utility.yul\":580:682   */\n  swap2\n  swap1\n  pop\n  jump\t// out\n    /* \"#utility.yul\":688:868   */\ntag_16:\n    /* \"#utility.yul\":736:813   */\n  0x4e487b7100000000000000000000000000000000000000000000000000000000\n    /* \"#utility.yul\":733:734   */\n  0x00\n    /* \"#utility.yul\":726:814   */\n  mstore\n    /* \"#utility.yul\":833:837   */\n  0x41\n    /* \"#utility.yul\":830:831   */\n  0x04\n    /* \"#utility.yul\":823:838   */\n  mstore\n    /* \"#utility.yul\":857:861   */\n  0x24\n    /* \"#utility.yul\":854:855   */\n  0x00\n    /* \"#utility.yul\":847:862   */\n  revert\n    /* \"#utility.yul\":874:1155   */\ntag_17:\n    /* \"#utility.yul\":957:984   */\n  tag_51\n    /* \"#utility.yul\":979:983   */\n  dup3\n    /* \"#utility.yul\":957:984   */\n  tag_15\n  jump\t// in\ntag_51:\n    /* \"#utility.yul\":949:955   */\n  dup2\n    /* \"#utility.yul\":945:985   */\n  add\n    /* \"#utility.yul\":1087:1093   */\n  dup2\n    /* \"#utility.yul\":1075:1085   */\n  dup2\n    /* \"#utility.yul\":1072:1094   */\n  lt\n    /* \"#utility.yul\":1051:1069   */\n  0xffffffffffffffff\n    /* \"#utility.yul\":1039:1049   */\n  dup3\n    /* \"#utility.yul\":1036:1070   */\n  gt\n    /* \"#utility.yul\":1033:1095   */\n  or\n    /* \"#utility.yul\":1030:1118   */\n  iszero\n  tag_52\n  jumpi\n    /* \"#utility.yul\":1098:1116   */\n  tag_53\n  tag_16\n  jump\t// in\ntag_53:\n    /* \"#utility.yul\":1030:1118   */\ntag_52:\n    /* \"#utility.yul\":1138:1148   */\n  dup1\n    /* \"#utility.yul\":1134:1136   */\n  0x40\n    /* \"#utility.yul\":1127:1149   */\n  mstore\n    /* \"#utility.yul\":917:1155   */\n  pop\n    /* \"#utility.yul\":874:1155   */\n  pop\n  pop\n  jump\t// out\n    /* \"#utility.yul\":1161:1290   */\ntag_18:\n    /* \"#utility.yul\":1195:1201   */\n  0x00\n    /* \"#utility.yul\":1222:1242   */\n  tag_55\n  tag_10\n  jump\t// in\ntag_55:\n    /* \"#utility.yul\":1212:1242   */\n  swap1\n  pop\n    /* \"#utility.yul\":1251:1284   */\n  tag_56\n    /* \"#utility.yul\":1279:1283   */\n  dup3\n    /* \"#utility.yul\":1271:1277   */\n  dup3\n    /* \"#utility.yul\":1251:1284   */\n  tag_17\n  jump\t// in\ntag_56:\n    /* \"#utility.yul\":1161:1290   */\n  swap2\n  swap1\n  pop\n  jump\t// out\n    /* \"#utility.yul\":1296:1604   */\ntag_19:\n    /* \"#utility.yul\":1358:1362   */\n  0x00\n    /* \"#utility.yul\":1448:1466   */\n  0xffffffffffffffff\n    /* \"#utility.yul\":1440:1446   */\n  dup3\n    /* \"#utility.yul\":1437:1467   */\n  gt\n    /* \"#utility.yul\":1434:1490   */\n  iszero\n  tag_58\n  jumpi\n    /* \"#utility.yul\":1470:1488   */\n  tag_59\n  tag_16\n  jump\t// in\ntag_59:\n    /* \"#utility.yul\":1434:1490   */\ntag_58:\n    /* \"#utility.yul\":1508:1537   */\n  tag_60\n    /* \"#utility.yul\":1530:1536   */\n  dup3\n    /* \"#utility.yul\":1508:1537   */\n  tag_15\n  jump\t// in\ntag_60:\n    /* \"#utility.yul\":1500:1537   */\n  swap1\n  pop\n    /* \"#utility.yul\":1592:1596   */\n  0x20\n    /* \"#utility.yul\":1586:1590   */\n  dup2\n    /* \"#utility.yul\":1582:1597   */\n  add\n    /* \"#utility.yul\":1574:1597   */\n  swap1\n  pop\n    /* \"#utility.yul\":1296:1604   */\n  swap2\n  swap1\n  pop\n  jump\t// out\n    /* \"#utility.yul\":1610:1749   */\ntag_20:\n    /* \"#utility.yul\":1699:1705   */\n  dup3\n    /* \"#utility.yul\":1694:1697   */\n  dup2\n    /* \"#utility.yul\":1689:1692   */\n  dup4\n    /* \"#utility.yul\":1683:1706   */\n  mcopy\n    /* \"#utility.yul\":1740:1741   */\n  0x00\n    /* \"#utility.yul\":1731:1737   */\n  dup4\n    /* \"#utility.yul\":1726:1729   */\n  dup4\n    /* \"#utility.yul\":1722:1738   */\n  add\n    /* \"#utility.yul\":1715:1742   */\n  mstore\n    /* \"#utility.yul\":1610:1749   */\n  pop\n  pop\n  pop\n  jump\t// out\n    /* \"#utility.yul\":1755:2189   */\ntag_21:\n    /* \"#utility.yul\":1844:1849   */\n  0x00\n    /* \"#utility.yul\":1869:1935   */\n  tag_63\n    /* \"#utility.yul\":1885:1934   */\n  tag_64\n    /* \"#utility.yul\":1927:1933   */\n  dup5\n    /* \"#utility.yul\":1885:1934   */\n  tag_19\n  jump\t// in\ntag_64:\n    /* \"#utility.yul\":1869:1935   */\n  tag_18\n  jump\t// in\ntag_63:\n    /* \"#utility.yul\":1860:1935   */\n  swap1\n  pop\n    /* \"#utility.yul\":1958:1964   */\n  dup3\n    /* \"#utility.yul\":1951:1956   */\n  dup2\n    /* \"#utility.yul\":1944:1965   */\n  mstore\n    /* \"#utility.yul\":1996:2000   */\n  0x20\n    /* \"#utility.yul\":1989:1994   */\n  dup2\n    /* \"#utility.yul\":1985:2001   */\n  add\n    /* \"#utility.yul\":2034:2037   */\n  dup5\n    /* \"#utility.yul\":2025:2031   */\n  dup5\n    /* \"#utility.yul\":2020:2023   */\n  dup5\n    /* \"#utility.yul\":2016:2032   */\n  add\n    /* \"#utility.yul\":2013:2038   */\n  gt\n    /* \"#utility.yul\":2010:2122   */\n  iszero\n  tag_65\n  jumpi\n    /* \"#utility.yul\":2041:2120   */\n  tag_66\n  tag_14\n  jump\t// in\ntag_66:\n    /* \"#utility.yul\":2010:2122   */\ntag_65:\n    /* \"#utility.yul\":2131:2183   */\n  tag_67\n    /* \"#utility.yul\":2176:2182   */\n  dup5\n    /* \"#utility.yul\":2171:2174   */\n  dup3\n    /* \"#utility.yul\":2166:2169   */\n  dup6\n    /* \"#utility.yul\":2131:2183   */\n  tag_20\n  jump\t// in\ntag_67:\n    /* \"#utility.yul\":1850:2189   */\n  pop\n    /* \"#utility.yul\":1755:2189   */\n  swap4\n  swap3\n  pop\n  pop\n  pop\n  jump\t// out\n    /* \"#utility.yul\":2209:2564   */\ntag_22:\n    /* \"#utility.yul\":2276:2281   */\n  0x00\n    /* \"#utility.yul\":2325:2328   */\n  dup3\n    /* \"#utility.yul\":2318:2322   */\n  0x1f\n    /* \"#utility.yul\":2310:2316   */\n  dup4\n    /* \"#utility.yul\":2306:2323   */\n  add\n    /* \"#utility.yul\":2302:2329   */\n  slt\n    /* \"#utility.yul\":2292:2414   */\n  tag_69\n  jumpi\n    /* \"#utility.yul\":2333:2412   */\n  tag_70\n  tag_13\n  jump\t// in\ntag_70:\n    /* \"#utility.yul\":2292:2414   */\ntag_69:\n    /* \"#utility.yul\":2443:2449   */\n  dup2\n    /* \"#utility.yul\":2437:2450   */\n  mload\n    /* \"#utility.yul\":2468:2558   */\n  tag_71\n    /* \"#utility.yul\":2554:2557   */\n  dup5\n    /* \"#utility.yul\":2546:2552   */\n  dup3\n    /* \"#utility.yul\":2539:2543   */\n  0x20\n    /* \"#utility.yul\":2531:2537   */\n  dup7\n    /* \"#utility.yul\":2527:2544   */\n  add\n    /* \"#utility.yul\":2468:2558   */\n  tag_21\n  jump\t// in\ntag_71:\n    /* \"#utility.yul\":2459:2558   */\n  swap2\n  pop\n    /* \"#utility.yul\":2282:2564   */\n  pop\n    /* \"#utility.yul\":2209:2564   */\n  swap3\n  swap2\n  pop\n  pop\n  jump\t// out\n    /* \"#utility.yul\":2570:3423   */\ntag_3:\n    /* \"#utility.yul\":2669:2675   */\n  0x00\n    /* \"#utility.yul\":2677:2683   */\n  0x00\n    /* \"#utility.yul\":2726:2728   */\n  0x40\n    /* \"#utility.yul\":2714:2723   */\n  dup4\n    /* \"#utility.yul\":2705:2712   */\n  dup6\n    /* \"#utility.yul\":2701:2724   */\n  sub\n    /* \"#utility.yul\":2697:2729   */\n  slt\n    /* \"#utility.yul\":2694:2813   */\n  iszero\n  tag_73\n  jumpi\n    /* \"#utility.yul\":2732:2811   */\n  tag_74\n  tag_11\n  jump\t// in\ntag_74:\n    /* \"#utility.yul\":2694:2813   */\ntag_73:\n    /* \"#utility.yul\":2873:2874   */\n  0x00\n    /* \"#utility.yul\":2862:2871   */\n  dup4\n    /* \"#utility.yul\":2858:2875   */\n  add\n    /* \"#utility.yul\":2852:2876   */\n  mload\n    /* \"#utility.yul\":2903:2921   */\n  0xffffffffffffffff\n    /* \"#utility.yul\":2895:2901   */\n  dup2\n    /* \"#utility.yul\":2892:2922   */\n  gt\n    /* \"#utility.yul\":2889:3006   */\n  iszero\n  tag_75\n  jumpi\n    /* \"#utility.yul\":2925:3004   */\n  tag_76\n  tag_12\n  jump\t// in\ntag_76:\n    /* \"#utility.yul\":2889:3006   */\ntag_75:\n    /* \"#utility.yul\":3030:3104   */\n  tag_77\n    /* \"#utility.yul\":3096:3103   */\n  dup6\n    /* \"#utility.yul\":3087:3093   */\n  dup3\n    /* \"#utility.yul\":3076:3085   */\n  dup7\n    /* \"#utility.yul\":3072:3094   */\n  add\n    /* \"#utility.yul\":3030:3104   */\n  tag_22\n  jump\t// in\ntag_77:\n    /* \"#utility.yul\":3020:3104   */\n  swap3\n  pop\n    /* \"#utility.yul\":2823:3114   */\n  pop\n    /* \"#utility.yul\":3174:3176   */\n  0x20\n    /* \"#utility.yul\":3163:3172   */\n  dup4\n    /* \"#utility.yul\":3159:3177   */\n  add\n    /* \"#utility.yul\":3153:3178   */\n  mload\n    /* \"#utility.yul\":3205:3223   */\n  0xffffffffffffffff\n    /* \"#utility.yul\":3197:3203   */\n  dup2\n    /* \"#utility.yul\":3194:3224   */\n  gt\n    /* \"#utility.yul\":3191:3308   */\n  iszero\n  tag_78\n  jumpi\n    /* \"#utility.yul\":3227:3306   */\n  tag_79\n  tag_12\n  jump\t// in\ntag_79:\n    /* \"#utility.yul\":3191:3308   */\ntag_78:\n    /* \"#utility.yul\":3332:3406   */\n  tag_80\n    /* \"#utility.yul\":3398:3405   */\n  dup6\n    /* \"#utility.yul\":3389:3395   */\n  dup3\n    /* \"#utility.yul\":3378:3387   */\n  dup7\n    /* \"#utility.yul\":3374:3396   */\n  add\n    /* \"#utility.yul\":3332:3406   */\n  tag_22\n  jump\t// in\ntag_80:\n    /* \"#utility.yul\":3322:3406   */\n  swap2\n  pop\n    /* \"#utility.yul\":3124:3416   */\n  pop\n    /* \"#utility.yul\":2570:3423   */\n  swap3\n  pop\n  swap3\n  swap1\n  pop\n  jump\t// out\n    /* \"#utility.yul\":3429:3528   */\ntag_23:\n    /* \"#utility.yul\":3481:3487   */\n  0x00\n    /* \"#utility.yul\":3515:3520   */\n  dup2\n    /* \"#utility.yul\":3509:3521   */\n  mload\n    /* \"#utility.yul\":3499:3521   */\n  swap1\n  pop\n    /* \"#utility.yul\":3429:3528   */\n  swap2\n  swap1\n  pop\n  jump\t// out\n    /* \"#utility.yul\":3534:3714   */\ntag_24:\n    /* \"#utility.yul\":3582:3659   */\n  0x4e487b7100000000000000000000000000000000000000000000000000000000\n    /* \"#utility.yul\":3579:3580   */\n  0x00\n    /* \"#utility.yul\":3572:3660   */\n  mstore\n    /* \"#utility.yul\":3679:3683   */\n  0x22\n    /* \"#utility.yul\":3676:3677   */\n  0x04\n    /* \"#utility.yul\":3669:3684   */\n  mstore\n    /* \"#utility.yul\":3703:3707   */\n  0x24\n    /* \"#utility.yul\":3700:3701   */\n  0x00\n    /* \"#utility.yul\":3693:3708   */\n  revert\n    /* \"#utility.yul\":3720:4040   */\ntag_25:\n    /* \"#utility.yul\":3764:3770   */\n  0x00\n    /* \"#utility.yul\":3801:3802   */\n  0x02\n    /* \"#utility.yul\":3795:3799   */\n  dup3\n    /* \"#utility.yul\":3791:3803   */\n  div\n    /* \"#utility.yul\":3781:3803   */\n  swap1\n  pop\n    /* \"#utility.yul\":3848:3849   */\n  0x01\n    /* \"#utility.yul\":3842:3846   */\n  dup3\n    /* \"#utility.yul\":3838:3850   */\n  and\n    /* \"#utility.yul\":3869:3887   */\n  dup1\n    /* \"#utility.yul\":3859:3940   */\n  tag_84\n  jumpi\n    /* \"#utility.yul\":3925:3929   */\n  0x7f\n    /* \"#utility.yul\":3917:3923   */\n  dup3\n    /* \"#utility.yul\":3913:3930   */\n  and\n    /* \"#utility.yul\":3903:3930   */\n  swap2\n  pop\n    /* \"#utility.yul\":3859:3940   */\ntag_84:\n    /* \"#utility.yul\":3987:3989   */\n  0x20\n    /* \"#utility.yul\":3979:3985   */\n  dup3\n    /* \"#utility.yul\":3976:3990   */\n  lt\n    /* \"#utility.yul\":3956:3974   */\n  dup2\n    /* \"#utility.yul\":3953:3991   */\n  sub\n    /* \"#utility.yul\":3950:4034   */\n  tag_85\n  jumpi\n    /* \"#utility.yul\":4006:4024   */\n  tag_86\n  tag_24\n  jump\t// in\ntag_86:\n    /* \"#utility.yul\":3950:4034   */\ntag_85:\n    /* \"#utility.yul\":3771:4040   */\n  pop\n    /* \"#utility.yul\":3720:4040   */\n  swap2\n  swap1\n  pop\n  jump\t// out\n    /* \"#utility.yul\":4046:4187   */\ntag_26:\n    /* \"#utility.yul\":4095:4099   */\n  0x00\n    /* \"#utility.yul\":4118:4121   */\n  dup2\n    /* \"#utility.yul\":4110:4121   */\n  swap1\n  pop\n    /* \"#utility.yul\":4141:4144   */\n  dup2\n    /* \"#utility.yul\":4138:4139   */\n  0x00\n    /* \"#utility.yul\":4131:4145   */\n  mstore\n    /* \"#utility.yul\":4175:4179   */\n  0x20\n    /* \"#utility.yul\":4172:4173   */\n  0x00\n    /* \"#utility.yul\":4162:4180   */\n  keccak256\n    /* \"#utility.yul\":4154:4180   */\n  swap1\n  pop\n    /* \"#utility.yul\":4046:4187   */\n  swap2\n  swap1\n  pop\n  jump\t// out\n    /* \"#utility.yul\":4193:4286   */\ntag_27:\n    /* \"#utility.yul\":4230:4236   */\n  0x00\n    /* \"#utility.yul\":4277:4279   */\n  0x20\n    /* \"#utility.yul\":4272:4274   */\n  0x1f\n    /* \"#utility.yul\":4265:4270   */\n  dup4\n    /* \"#utility.yul\":4261:4275   */\n  add\n    /* \"#utility.yul\":4257:4280   */\n  div\n    /* \"#utility.yul\":4247:4280   */\n  swap1\n  pop\n    /* \"#utility.yul\":4193:4286   */\n  swap2\n  swap1\n  pop\n  jump\t// out\n    /* \"#utility.yul\":4292:4399   */\ntag_28:\n    /* \"#utility.yul\":4336:4344   */\n  0x00\n    /* \"#utility.yul\":4386:4391   */\n  dup3\n    /* \"#utility.yul\":4380:4384   */\n  dup3\n    /* \"#utility.yul\":4376:4392   */\n  shl\n    /* \"#utility.yul\":4355:4392   */\n  swap1\n  pop\n    /* \"#utility.yul\":4292:4399   */\n  swap3\n  swap2\n  pop\n  pop\n  jump\t// out\n    /* \"#utility.yul\":4405:4798   */\ntag_29:\n    /* \"#utility.yul\":4474:4480   */\n  0x00\n    /* \"#utility.yul\":4524:4525   */\n  0x08\n    /* \"#utility.yul\":4512:4522   */\n  dup4\n    /* \"#utility.yul\":4508:4526   */\n  mul\n    /* \"#utility.yul\":4547:4644   */\n  tag_91\n    /* \"#utility.yul\":4577:4643   */\n  0xffffffffffffffffffffffffffffffffffffffffffffffffffffffffffffffff\n    /* \"#utility.yul\":4566:4575   */\n  dup3\n    /* \"#utility.yul\":4547:4644   */\n  tag_28\n  jump\t// in\ntag_91:\n    /* \"#utility.yul\":4665:4704   */\n  tag_92\n    /* \"#utility.yul\":4695:4703   */\n  dup7\n    /* \"#utility.yul\":4684:4693   */\n  dup4\n    /* \"#utility.yul\":4665:4704   */\n  tag_28\n  jump\t// in\ntag_92:\n    /* \"#utility.yul\":4653:4704   */\n  swap6\n  pop\n    /* \"#utility.yul\":4737:4741   */\n  dup1\n    /* \"#utility.yul\":4733:4742   */\n  not\n    /* \"#utility.yul\":4726:4731   */\n  dup5\n    /* \"#utility.yul\":4722:4743   */\n  and\n    /* \"#utility.yul\":4713:4743   */\n  swap4\n  pop\n    /* \"#utility.yul\":4786:4790   */\n  dup1\n    /* \"#utility.yul\":4776:4784   */\n  dup7\n    /* \"#utility.yul\":4772:4791   */\n  and\n    /* \"#utility.yul\":4765:4770   */\n  dup5\n    /* \"#utility.yul\":4762:4792   */\n  or\n    /* \"#utility.yul\":4752:4792   */\n  swap3\n  pop\n    /* \"#utility.yul\":4481:4798   */\n  pop\n  pop\n    /* \"#utility.yul\":4405:4798   */\n  swap4\n  swap3\n  pop\n  pop\n  pop\n  jump\t// out\n    /* \"#utility.yul\":4804:4881   */\ntag_30:\n    /* \"#utility.yul\":4841:4848   */\n  0x00\n    /* \"#utility.yul\":4870:4875   */\n  dup2\n    /* \"#utility.yul\":4859:4875   */\n  swap1\n  pop\n    /* \"#utility.yul\":4804:4881   */\n  swap2\n  swap1\n  pop\n  jump\t// out\n    /* \"#utility.yul\":4887:4947   */\ntag_31:\n    /* \"#utility.yul\":4915:4918   */\n  0x00\n    /* \"#utility.yul\":4936:4941   */\n  dup2\n    /* \"#utility.yul\":4929:4941   */\n  swap1\n  pop\n    /* \"#utility.yul\":4887:4947   */\n  swap2\n  swap1\n  pop\n  jump\t// out\n    /* \"#utility.yul\":4953:5095   */\ntag_32:\n    /* \"#utility.yul\":5003:5012   */\n  0x00\n    /* \"#utility.yul\":5036:5089   */\n  tag_96\n    /* \"#utility.yul\":5054:5088   */\n  tag_97\n    /* \"#utility.yul\":5063:5087   */\n  tag_98\n    /* \"#utility.yul\":5081:5086   */\n  dup5\n    /* \"#utility.yul\":5063:5087   */\n  tag_30\n  jump\t// in\ntag_98:\n    /* \"#utility.yul\":5054:5088   */\n  tag_31\n  jump\t// in\ntag_97:\n    /* \"#utility.yul\":5036:5089   */\n  tag_30\n  jump\t// in\ntag_96:\n    /* \"#utility.yul\":5023:5089   */\n  swap1\n  pop\n    /* \"#utility.yul\":4953:5095   */\n  swap2\n  swap1\n  pop\n  jump\t// out\n    /* \"#utility.yul\":5101:5176   */\ntag_33:\n    /* \"#utility.yul\":5144:5147   */\n  0x00\n    /* \"#utility.yul\":5165:5170   */\n  dup2\n    /* \"#utility.yul\":5158:5170   */\n  swap1\n  pop\n    /* \"#utility.yul\":5101:5176   */\n  swap2\n  swap1\n  pop\n  jump\t// out\n    /* \"#utility.yul\":5182:5451   */\ntag_34:\n    /* \"#utility.yul\":5292:5331   */\n  tag_101\n    /* \"#utility.yul\":5323:5330   */\n  dup4\n    /* \"#utility.yul\":5292:5331   */\n  tag_32\n  jump\t// in\ntag_101:\n    /* \"#utility.yul\":5353:5444   */\n  tag_102\n    /* \"#utility.yul\":5402:5443   */\n  tag_103\n    /* \"#utility.yul\":5426:5442   */\n  dup3\n    /* \"#utility.yul\":5402:5443   */\n  tag_33\n  jump\t// in\ntag_103:\n    /* \"#utility.yul\":5394:5400   */\n  dup5\n    /* \"#utility.yul\":5387:5391   */\n  dup5\n    /* \"#utility.yul\":5381:5392   */\n  sload\n    /* \"#utility.yul\":5353:5444   */\n  tag_29\n  jump\t// in\ntag_102:\n    /* \"#utility.yul\":5347:5351   */\n  dup3\n    /* \"#utility.yul\":5340:5445   */\n  sstore\n    /* \"#utility.yul\":5258:5451   */\n  pop\n    /* \"#utility.yul\":5182:5451   */\n  pop\n  pop\n  pop\n  jump\t// out\n    /* \"#utility.yul\":5457:5530   */\ntag_35:\n    /* \"#utility.yul\":5502:5505   */\n  0x00\n    /* \"#utility.yul\":5523:5524   */\n  0x00\n    /* \"#utility.yul\":5516:5524   */\n  swap1\n  pop\n    /* \"#utility.yul\":5457:5530   */\n  swap1\n  jump\t// out\n    /* \"#utility.yul\":5536:5725   */\ntag_36:\n    /* \"#utility.yul\":5613:5645   */\n  tag_106\n  tag_35\n  jump\t// in\ntag_106:\n    /* \"#utility.yul\":5654:5719   */\n  tag_107\n    /* \"#utility.yul\":5712:5718   */\n  dup2\n    /* \"#utility.yul\":5704:5710   */\n  dup5\n    /* \"#utility.yul\":5698:5702   */\n  dup5\n    /* \"#utility.yul\":5654:5719   */\n  tag_34\n  jump\t// in\ntag_107:\n    /* \"#utility.yul\":5589:5725   */\n  pop\n    /* \"#utility.yul\":5536:5725   */\n  pop\n  pop\n  jump\t// out\n    /* \"#utility.yul\":5731:5917   */\ntag_37:\n    /* \"#utility.yul\":5791:5911   */\ntag_109:\n    /* \"#utility.yul\":5808:5811   */\n  dup2\n    /* \"#utility.yul\":5801:5806   */\n  dup2\n    /* \"#utility.yul\":5798:5812   */\n  lt\n    /* \"#utility.yul\":5791:5911   */\n  iszero\n  tag_111\n  jumpi\n    /* \"#utility.yul\":5862:5901   */\n  tag_112\n    /* \"#utility.yul\":5899:5900   */\n  0x00\n    /* \"#utility.yul\":5892:5897   */\n  dup3\n    /* \"#utility.yul\":5862:5901   */\n  tag_36\n  jump\t// in\ntag_112:\n    /* \"#utility.yul\":5835:5836   */\n  0x01\n    /* \"#utility.yul\":5828:5833   */\n  dup2\n    /* \"#utility.yul\":5824:5837   */\n  add\n    /* \"#utility.yul\":5815:5837   */\n  swap1\n  pop\n    /* \"#utility.yul\":5791:5911   */\n  jump(tag_109)\ntag_111:\n    /* \"#utility.yul\":5731:5917   */\n  pop\n  pop\n  jump\t// out\n    /* \"#utility.yul\":5923:6466   */\ntag_38:\n    /* \"#utility.yul\":6024:6026   */\n  0x1f\n    /* \"#utility.yul\":6019:6022   */\n  dup3\n    /* \"#utility.yul\":6016:6027   */\n  gt\n    /* \"#utility.yul\":6013:6459   */\n  iszero\n  tag_114\n  jumpi\n    /* \"#utility.yul\":6058:6096   */\n  tag_115\n    /* \"#utility.yul\":6090:6095   */\n  dup2\n    /* \"#utility.yul\":6058:6096   */\n  tag_26\n  jump\t// in\ntag_115:\n    /* \"#utility.yul\":6142:6171   */\n  tag_116\n    /* \"#utility.yul\":6160:6170   */\n  dup5\n    /* \"#utility.yul\":6142:6171   */\n  tag_27\n  jump\t// in\ntag_116:\n    /* \"#utility.yul\":6132:6140   */\n  dup2\n    /* \"#utility.yul\":6128:6172   */\n  add\n    /* \"#utility.yul\":6325:6327   */\n  0x20\n    /* \"#utility.yul\":6313:6323   */\n  dup6\n    /* \"#utility.yul\":6310:6328   */\n  lt\n    /* \"#utility.yul\":6307:6356   */\n  iszero\n  tag_117\n  jumpi\n    /* \"#utility.yul\":6346:6354   */\n  dup2\n    /* \"#utility.yul\":6331:6354   */\n  swap1\n  pop\n    /* \"#utility.yul\":6307:6356   */\ntag_117:\n    /* \"#utility.yul\":6369:6449   */\n  tag_118\n    /* \"#utility.yul\":6425:6447   */\n  tag_119\n    /* \"#utility.yul\":6443:6446   */\n  dup6\n    /* \"#utility.yul\":6425:6447   */\n  tag_27\n  jump\t// in\ntag_119:\n    /* \"#utility.yul\":6415:6423   */\n  dup4\n    /* \"#utility.yul\":6411:6448   */\n  add\n    /* \"#utility.yul\":6398:6409   */\n  dup3\n    /* \"#utility.yul\":6369:6449   */\n  tag_37\n  jump\t// in\ntag_118:\n    /* \"#utility.yul\":6028:6459   */\n  pop\n  pop\n    /* \"#utility.yul\":6013:6459   */\ntag_114:\n    /* \"#utility.yul\":5923:6466   */\n  pop\n  pop\n  pop\n  jump\t// out\n    /* \"#utility.yul\":6472:6589   */\ntag_39:\n    /* \"#utility.yul\":6526:6534   */\n  0x00\n    /* \"#utility.yul\":6576:6581   */\n  dup3\n    /* \"#utility.yul\":6570:6574   */\n  dup3\n    /* \"#utility.yul\":6566:6582   */\n  shr\n    /* \"#utility.yul\":6545:6582   */\n  swap1\n  pop\n    /* \"#utility.yul\":6472:6589   */\n  swap3\n  swap2\n  pop\n  pop\n  jump\t// out\n    /* \"#utility.yul\":6595:6764   */\ntag_40:\n    /* \"#utility.yul\":6639:6645   */\n  0x00\n    /* \"#utility.yul\":6672:6723   */\n  tag_122\n    /* \"#utility.yul\":6720:6721   */\n  0x00\n    /* \"#utility.yul\":6716:6722   */\n  not\n    /* \"#utility.yul\":6708:6713   */\n  dup5\n    /* \"#utility.yul\":6705:6706   */\n  0x08\n    /* \"#utility.yul\":6701:6714   */\n  mul\n    /* \"#utility.yul\":6672:6723   */\n  tag_39\n  jump\t// in\ntag_122:\n    /* \"#utility.yul\":6668:6724   */\n  not\n    /* \"#utility.yul\":6753:6757   */\n  dup1\n    /* \"#utility.yul\":6747:6751   */\n  dup4\n    /* \"#utility.yul\":6743:6758   */\n  and\n    /* \"#utility.yul\":6733:6758   */\n  swap2\n  pop\n    /* \"#utility.yul\":6646:6764   */\n  pop\n    /* \"#utility.yul\":6595:6764   */\n  swap3\n  swap2\n  pop\n  pop\n  jump\t// out\n    /* \"#utility.yul\":6769:7064   */\ntag_41:\n    /* \"#utility.yul\":6845:6849   */\n  0x00\n    /* \"#utility.yul\":6991:7020   */\n  tag_124\n    /* \"#utility.yul\":7016:7019   */\n  dup4\n    /* \"#utility.yul\":7010:7014   */\n  dup4\n    /* \"#utility.yul\":6991:7020   */\n  tag_40\n  jump\t// in\ntag_124:\n    /* \"#utility.yul\":6983:7020   */\n  swap2\n  pop\n    /* \"#utility.yul\":7053:7056   */\n  dup3\n    /* \"#utility.yul\":7050:7051   */\n  0x02\n    /* \"#utility.yul\":7046:7057   */\n  mul\n    /* \"#utility.yul\":7040:7044   */\n  dup3\n    /* \"#utility.yul\":7037:7058   */\n  or\n    /* \"#utility.yul\":7029:7058   */\n  swap1\n  pop\n    /* \"#utility.yul\":6769:7064   */\n  swap3\n  swap2\n  pop\n  pop\n  jump\t// out\n    /* \"#utility.yul\":7069:8464   */\ntag_7:\n    /* \"#utility.yul\":7186:7223   */\n  tag_126\n    /* \"#utility.yul\":7219:7222   */\n  dup3\n    /* \"#utility.yul\":7186:7223   */\n  tag_23\n  jump\t// in\ntag_126:\n    /* \"#utility.yul\":7288:7306   */\n  0xffffffffffffffff\n    /* \"#utility.yul\":7280:7286   */\n  dup2\n    /* \"#utility.yul\":7277:7307   */\n  gt\n    /* \"#utility.yul\":7274:7330   */\n  iszero\n  tag_127\n  jumpi\n    /* \"#utility.yul\":7310:7328   */\n  tag_128\n  tag_16\n  jump\t// in\ntag_128:\n    /* \"#utility.yul\":7274:7330   */\ntag_127:\n    /* \"#utility.yul\":7354:7392   */\n  tag_129\n    /* \"#utility.yul\":7386:7390   */\n  dup3\n    /* \"#utility.yul\":7380:7391   */\n  sload\n    /* \"#utility.yul\":7354:7392   */\n  tag_25\n  jump\t// in\ntag_129:\n    /* \"#utility.yul\":7439:7506   */\n  tag_130\n    /* \"#utility.yul\":7499:7505   */\n  dup3\n    /* \"#utility.yul\":7491:7497   */\n  dup3\n    /* \"#utility.yul\":7485:7489   */\n  dup6\n    /* \"#utility.yul\":7439:7506   */\n  tag_38\n  jump\t// in\ntag_130:\n    /* \"#utility.yul\":7533:7534   */\n  0x00\n    /* \"#utility.yul\":7557:7561   */\n  0x20\n    /* \"#utility.yul\":7544:7561   */\n  swap1\n  pop\n    /* \"#utility.yul\":7589:7591   */\n  0x1f\n    /* \"#utility.yul\":7581:7587   */\n  dup4\n    /* \"#utility.yul\":7578:7592   */\n  gt\n    /* \"#utility.yul\":7606:7607   */\n  0x01\n    /* \"#utility.yul\":7601:8219   */\n  dup2\n  eq\n  tag_132\n  jumpi\n    /* \"#utility.yul\":8263:8264   */\n  0x00\n    /* \"#utility.yul\":8280:8286   */\n  dup5\n    /* \"#utility.yul\":8277:8354   */\n  iszero\n  tag_133\n  jumpi\n    /* \"#utility.yul\":8329:8338   */\n  dup3\n    /* \"#utility.yul\":8324:8327   */\n  dup8\n    /* \"#utility.yul\":8320:8339   */\n  add\n    /* \"#utility.yul\":8314:8340   */\n  mload\n    /* \"#utility.yul\":8305:8340   */\n  swap1\n  pop\n    /* \"#utility.yul\":8277:8354   */\ntag_133:\n    /* \"#utility.yul\":8380:8447   */\n  tag_134\n    /* \"#utility.yul\":8440:8446   */\n  dup6\n    /* \"#utility.yul\":8433:8438   */\n  dup3\n    /* \"#utility.yul\":8380:8447   */\n  tag_41\n  jump\t// in\ntag_134:\n    /* \"#utility.yul\":8374:8378   */\n  dup7\n    /* \"#utility.yul\":8367:8448   */\n  sstore\n    /* \"#utility.yul\":8236:8458   */\n  pop\n    /* \"#utility.yul\":7571:8458   */\n  jump(tag_131)\n    /* \"#utility.yul\":7601:8219   */\ntag_132:\n    /* \"#utility.yul\":7653:7657   */\n  0x1f\n    /* \"#utility.yul\":7649:7658   */\n  not\n    /* \"#utility.yul\":7641:7647   */\n  dup5\n    /* \"#utility.yul\":7637:7659   */\n  and\n    /* \"#utility.yul\":7687:7724   */\n  tag_135\n    /* \"#utility.yul\":7719:7723   */\n  dup7\n    /* \"#utility.yul\":7687:7724   */\n  tag_26\n  jump\t// in\ntag_135:\n    /* \"#utility.yul\":7746:7747   */\n  0x00\n    /* \"#utility.yul\":7760:7968   */\ntag_136:\n    /* \"#utility.yul\":7774:7781   */\n  dup3\n    /* \"#utility.yul\":7771:7772   */\n  dup2\n    /* \"#utility.yul\":7768:7782   */\n  lt\n    /* \"#utility.yul\":7760:7968   */\n  iszero\n  tag_138\n  jumpi\n    /* \"#utility.yul\":7853:7862   */\n  dup5\n    /* \"#utility.yul\":7848:7851   */\n  dup10\n    /* \"#utility.yul\":7844:7863   */\n  add\n    /* \"#utility.yul\":7838:7864   */\n  mload\n    /* \"#utility.yul\":7830:7836   */\n  dup3\n    /* \"#utility.yul\":7823:7865   */\n  sstore\n    /* \"#utility.yul\":7904:7905   */\n  0x01\n    /* \"#utility.yul\":7896:7902   */\n  dup3\n    /* \"#utility.yul\":7892:7906   */\n  add\n    /* \"#utility.yul\":7882:7906   */\n  swap2\n  pop\n    /* \"#utility.yul\":7951:7953   */\n  0x20\n    /* \"#utility.yul\":7940:7949   */\n  dup6\n    /* \"#utility.yul\":7936:7954   */\n  add\n    /* \"#utility.yul\":7923:7954   */\n  swap5\n  pop\n    /* \"#utility.yul\":7797:7801   */\n  0x20\n    /* \"#utility.yul\":7794:7795   */\n  dup2\n    /* \"#utility.yul\":7790:7802   */\n  add\n    /* \"#utility.yul\":7785:7802   */\n  swap1\n  pop\n    /* \"#utility.yul\":7760:7968   */\n  jump(tag_136)\ntag_138:\n    /* \"#utility.yul\":7996:8002   */\n  dup7\n    /* \"#utility.yul\":7987:7994   */\n  dup4\n    /* \"#utility.yul\":7984:8003   */\n  lt\n    /* \"#utility.yul\":7981:8160   */\n  iszero\n  tag_139\n  jumpi\n    /* \"#utility.yul\":8054:8063   */\n  dup5\n    /* \"#utility.yul\":8049:8052   */\n  dup10\n    /* \"#utility.yul\":8045:8064   */\n  add\n    /* \"#utility.yul\":8039:8065   */\n  mload\n    /* \"#utility.yul\":8097:8145   */\n  tag_140\n    /* \"#utility.yul\":8139:8143   */\n  0x1f\n    /* \"#utility.yul\":8131:8137   */\n  dup10\n    /* \"#utility.yul\":8127:8144   */\n  and\n    /* \"#utility.yul\":8116:8125   */\n  dup3\n    /* \"#utility.yul\":8097:8145   */\n  tag_40\n  jump\t// in\ntag_140:\n    /* \"#utility.yul\":8089:8095   */\n  dup4\n    /* \"#utility.yul\":8082:8146   */\n  sstore\n    /* \"#utility.yul\":8004:8160   */\n  pop\n    /* \"#utility.yul\":7981:8160   */\ntag_139:\n    /* \"#utility.yul\":8206:8207   */\n  0x01\n    /* \"#utility.yul\":8202:8203   */\n  0x02\n    /* \"#utility.yul\":8194:8200   */\n  dup9\n    /* \"#utility.yul\":8190:8204   */\n  mul\n    /* \"#utility.yul\":8186:8208   */\n  add\n    /* \"#utility.yul\":8180:8184   */\n  dup9\n    /* \"#utility.yul\":8173:8209   */\n  sstore\n    /* \"#utility.yul\":7608:8219   */\n  pop\n  pop\n  pop\n    /* \"#utility.yul\":7571:8458   */\ntag_131:\n  pop\n    /* \"#utility.yul\":7161:8464   */\n  pop\n  pop\n  pop\n    /* \"#utility.yul\":7069:8464   */\n  pop\n  pop\n  jump\t// out\n    /* \"contracts/ERC1155.sol\":301:14473  contract ERC1155 is IERC165,IERC1155,IERC1155MetadataURI{... */\ntag_9:\n  dataSize(sub_0)\n  dup1\n  dataOffset(sub_0)\n  0x00\n  codecopy\n  0x00\n  return\nstop\n\nsub_0: assembly {\n        /* \"contracts/ERC1155.sol\":301:14473  contract ERC1155 is IERC165,IERC1155,IERC1155MetadataURI{... */\n      mstore(0x40, 0x80)\n      callvalue\n      dup1\n      iszero\n      tag_1\n      jumpi\n      revert(0x00, 0x00)\n    tag_1:\n      pop\n      jumpi(tag_2, lt(calldatasize, 0x04))\n      shr(0xe0, calldataload(0x00))\n      dup1\n      0x4e1273f4\n      gt\n      tag_13\n      jumpi\n      dup1\n      0x4e1273f4\n      eq\n      tag_8\n      jumpi\n      dup1\n      0x95d89b41\n      eq\n      tag_9\n      jumpi\n      dup1\n      0xa22cb465\n      eq\n      tag_10\n      jumpi\n      dup1\n      0xe985e9c5\n      eq\n      tag_11\n      jumpi\n      dup1\n      0xf242432a\n      eq\n      tag_12\n      jumpi\n      jump(tag_2)\n    tag_13:\n      dup1\n      0xfdd58e\n      eq\n      tag_3\n      jumpi\n      dup1\n      0x01ffc9a7\n      eq\n      tag_4\n      jumpi\n      dup1\n      0x06fdde03\n      eq\n      tag_5\n      jumpi\n      dup1\n      0x0e89341c\n      eq\n      tag_6\n      jumpi\n      dup1\n      0x2eb2c2d6\n      eq\n      tag_7\n      jumpi\n    tag_2:\n      revert(0x00, 0x00)\n        /* \"contracts/ERC1155.sol\":1513:1738  function balanceOf(address account,uint256 id) public view virtual override returns(uint256){... */\n    tag_3:\n      tag_14\n      0x04\n      dup1\n      calldatasize\n      sub\n      dup2\n      add\n      swap1\n      tag_15\n      swap2\n      swap1\n      tag_16\n      jump\t// in\n    tag_15:\n      tag_17\n      jump\t// in\n    tag_14:\n      mload(0x40)\n      tag_18\n      swap2\n      swap1\n      tag_19\n      jump\t// in\n    tag_18:\n      mload(0x40)\n      dup1\n      swap2\n      sub\n      swap1\n      return\n        /* \"contracts/ERC1155.sol\":1085:1383  function supportsInterface(bytes4 interfaceId) public view virtual override returns(bool) {... */\n    tag_4:\n      tag_20\n      0x04\n      dup1\n      calldatasize\n      sub\n      dup2\n      add\n      swap1\n      tag_21\n      swap2\n      swap1\n      tag_22\n      jump\t// in\n    tag_21:\n      tag_23\n      jump\t// in\n    tag_20:\n      mload(0x40)\n      tag_24\n      swap2\n      swap1\n      tag_25\n      jump\t// in\n    tag_24:\n      mload(0x40)\n      dup1\n      swap2\n      sub\n      swap1\n      return\n        /* \"contracts/ERC1155.sol\":435:453  string public name */\n    tag_5:\n      tag_26\n      tag_27\n      jump\t// in\n    tag_26:\n      mload(0x40)\n      tag_28\n      swap2\n      swap1\n      tag_29\n      jump\t// in\n    tag_28:\n      mload(0x40)\n      dup1\n      swap2\n      sub\n      swap1\n      return\n        /* \"contracts/ERC1155.sol\":13921:14241  function uri(uint256 id) public view virtual override returns (string memory) {... */\n    tag_6:\n      tag_30\n      0x04\n      dup1\n      calldatasize\n      sub\n      dup2\n      add\n      swap1\n      tag_31\n      swap2\n      swap1\n      tag_32\n      jump\t// in\n    tag_31:\n      tag_33\n      jump\t// in\n    tag_30:\n      mload(0x40)\n      tag_34\n      swap2\n      swap1\n      tag_29\n      jump\t// in\n    tag_34:\n      mload(0x40)\n      dup1\n      swap2\n      sub\n      swap1\n      return\n        /* \"contracts/ERC1155.sol\":6047:7285  function safeBatchTransferFrom(... */\n    tag_7:\n      tag_35\n      0x04\n      dup1\n      calldatasize\n      sub\n      dup2\n      add\n      swap1\n      tag_36\n      swap2\n      swap1\n      tag_37\n      jump\t// in\n    tag_36:\n      tag_38\n      jump\t// in\n    tag_35:\n      stop\n        /* \"contracts/ERC1155.sol\":2054:2718  function balanceOfBatch(address[] memory accounts,uint256[] memory ids) public view virtual override returns(uint256[] memory){... */\n    tag_8:\n      tag_39\n      0x04\n      dup1\n      calldatasize\n      sub\n      dup2\n      add\n      swap1\n      tag_40\n      swap2\n      swap1\n      tag_41\n      jump\t// in\n    tag_40:\n      tag_42\n      jump\t// in\n    tag_39:\n      mload(0x40)\n      tag_43\n      swap2\n      swap1\n      tag_44\n      jump\t// in\n    tag_43:\n      mload(0x40)\n      dup1\n      swap2\n      sub\n      swap1\n      return\n        /* \"contracts/ERC1155.sol\":479:499  string public symbol */\n    tag_9:\n      tag_45\n      tag_46\n      jump\t// in\n    tag_45:\n      mload(0x40)\n      tag_47\n      swap2\n      swap1\n      tag_29\n      jump\t// in\n    tag_47:\n      mload(0x40)\n      dup1\n      swap2\n      sub\n      swap1\n      return\n        /* \"contracts/ERC1155.sol\":2924:3227  function setApprovalForAll(address operator,bool approved) public virtual override {... */\n    tag_10:\n      tag_48\n      0x04\n      dup1\n      calldatasize\n      sub\n      dup2\n      add\n      swap1\n      tag_49\n      swap2\n      swap1\n      tag_50\n      jump\t// in\n    tag_49:\n      tag_51\n      jump\t// in\n    tag_48:\n      stop\n        /* \"contracts/ERC1155.sol\":3288:3455  function isApprovedForAll(address account,address operator) public view virtual override returns(bool){... */\n    tag_11:\n      tag_52\n      0x04\n      dup1\n      calldatasize\n      sub\n      dup2\n      add\n      swap1\n      tag_53\n      swap2\n      swap1\n      tag_54\n      jump\t// in\n    tag_53:\n      tag_55\n      jump\t// in\n    tag_52:\n      mload(0x40)\n      tag_56\n      swap2\n      swap1\n      tag_25\n      jump\t// in\n    tag_56:\n      mload(0x40)\n      dup1\n      swap2\n      sub\n      swap1\n      return\n        /* \"contracts/ERC1155.sol\":3815:5621  function safeTransferFrom(address from,address to,uint256 id,uint256 amount,bytes memory data) public virtual override {... */\n    tag_12:\n      tag_57\n      0x04\n      dup1\n      calldatasize\n      sub\n      dup2\n      add\n      swap1\n      tag_58\n      swap2\n      swap1\n      tag_59\n      jump\t// in\n    tag_58:\n      tag_60\n      jump\t// in\n    tag_57:\n      stop\n        /* \"contracts/ERC1155.sol\":1513:1738  function balanceOf(address account,uint256 id) public view virtual override returns(uint256){... */\n    tag_17:\n        /* \"contracts/ERC1155.sol\":1597:1604  uint256 */\n      0x00\n        /* \"contracts/ERC1155.sol\":1643:1644  0 */\n      0x00\n        /* \"contracts/ERC1155.sol\":1624:1645  account != address(0) */\n      0xffffffffffffffffffffffffffffffffffffffff\n      and\n        /* \"contracts/ERC1155.sol\":1624:1631  account */\n      dup4\n        /* \"contracts/ERC1155.sol\":1624:1645  account != address(0) */\n      0xffffffffffffffffffffffffffffffffffffffff\n      and\n      sub\n        /* \"contracts/ERC1155.sol\":1616:1690  require(account != address(0),\"ERC1155:address zero is not a valid owner\") */\n      tag_62\n      jumpi\n      mload(0x40)\n      0x08c379a000000000000000000000000000000000000000000000000000000000\n      dup2\n      mstore\n      0x04\n      add\n      tag_63\n      swap1\n      tag_64\n      jump\t// in\n    tag_63:\n      mload(0x40)\n      dup1\n      swap2\n      sub\n      swap1\n      revert\n    tag_62:\n        /* \"contracts/ERC1155.sol\":1708:1717  _balances */\n      0x02\n        /* \"contracts/ERC1155.sol\":1708:1721  _balances[id] */\n      0x00\n        /* \"contracts/ERC1155.sol\":1718:1720  id */\n      dup4\n        /* \"contracts/ERC1155.sol\":1708:1721  _balances[id] */\n      dup2\n      mstore\n      0x20\n      add\n      swap1\n      dup2\n      mstore\n      0x20\n      add\n      0x00\n      keccak256\n        /* \"contracts/ERC1155.sol\":1708:1730  _balances[id][account] */\n      0x00\n        /* \"contracts/ERC1155.sol\":1722:1729  account */\n      dup5\n        /* \"contracts/ERC1155.sol\":1708:1730  _balances[id][account] */\n      0xffffffffffffffffffffffffffffffffffffffff\n      and\n      0xffffffffffffffffffffffffffffffffffffffff\n      and\n      dup2\n      mstore\n      0x20\n      add\n      swap1\n      dup2\n      mstore\n      0x20\n      add\n      0x00\n      keccak256\n      sload\n        /* \"contracts/ERC1155.sol\":1701:1730  return _balances[id][account] */\n      swap1\n      pop\n        /* \"contracts/ERC1155.sol\":1513:1738  function balanceOf(address account,uint256 id) public view virtual override returns(uint256){... */\n      swap3\n      swap2\n      pop\n      pop\n      jump\t// out\n        /* \"contracts/ERC1155.sol\":1085:1383  function supportsInterface(bytes4 interfaceId) public view virtual override returns(bool) {... */\n    tag_23:\n        /* \"contracts/ERC1155.sol\":1169:1173  bool */\n      0x00\n        /* \"contracts/ERC1155.sol\":1221:1247  type(IERC1155).interfaceId */\n      0xd9b67a2600000000000000000000000000000000000000000000000000000000\n        /* \"contracts/ERC1155.sol\":1206:1247  interfaceId == type(IERC1155).interfaceId */\n      not(0xffffffffffffffffffffffffffffffffffffffffffffffffffffffff)\n      and\n        /* \"contracts/ERC1155.sol\":1206:1217  interfaceId */\n      dup3\n        /* \"contracts/ERC1155.sol\":1206:1247  interfaceId == type(IERC1155).interfaceId */\n      not(0xffffffffffffffffffffffffffffffffffffffffffffffffffffffff)\n      and\n      eq\n        /* \"contracts/ERC1155.sol\":1206:1317  interfaceId == type(IERC1155).interfaceId || ... */\n      dup1\n      tag_66\n      jumpi\n      pop\n        /* \"contracts/ERC1155.sol\":1280:1317  type(IERC1155MetadataURI).interfaceId */\n      0x0e89341c00000000000000000000000000000000000000000000000000000000\n        /* \"contracts/ERC1155.sol\":1265:1317  interfaceId == type(IERC1155MetadataURI).interfaceId */\n      not(0xffffffffffffffffffffffffffffffffffffffffffffffffffffffff)\n      and\n        /* \"contracts/ERC1155.sol\":1265:1276  interfaceId */\n      dup3\n        /* \"contracts/ERC1155.sol\":1265:1317  interfaceId == type(IERC1155MetadataURI).interfaceId */\n      not(0xffffffffffffffffffffffffffffffffffffffffffffffffffffffff)\n      and\n      eq\n        /* \"contracts/ERC1155.sol\":1206:1317  interfaceId == type(IERC1155).interfaceId || ... */\n    tag_66:\n        /* \"contracts/ERC1155.sol\":1206:1375  interfaceId == type(IERC1155).interfaceId || ... */\n      dup1\n      tag_67\n      jumpi\n      pop\n        /* \"contracts/ERC1155.sol\":1350:1375  type(IERC165).interfaceId */\n      0x01ffc9a700000000000000000000000000000000000000000000000000000000\n        /* \"contracts/ERC1155.sol\":1335:1375  interfaceId == type(IERC165).interfaceId */\n      not(0xffffffffffffffffffffffffffffffffffffffffffffffffffffffff)\n      and\n        /* \"contracts/ERC1155.sol\":1335:1346  interfaceId */\n      dup3\n        /* \"contracts/ERC1155.sol\":1335:1375  interfaceId == type(IERC165).interfaceId */\n      not(0xffffffffffffffffffffffffffffffffffffffffffffffffffffffff)\n      and\n      eq\n        /* \"contracts/ERC1155.sol\":1206:1375  interfaceId == type(IERC1155).interfaceId || ... */\n    tag_67:\n        /* \"contracts/ERC1155.sol\":1186:1375  return... */\n      swap1\n      pop\n        /* \"contracts/ERC1155.sol\":1085:1383  function supportsInterface(bytes4 interfaceId) public view virtual override returns(bool) {... */\n      swap2\n      swap1\n      pop\n      jump\t// out\n        /* \"contracts/ERC1155.sol\":435:453  string public name */\n    tag_27:\n      0x00\n      dup1\n      sload\n      tag_68\n      swap1\n      tag_69\n      jump\t// in\n    tag_68:\n      dup1\n      0x1f\n      add\n      0x20\n      dup1\n      swap2\n      div\n      mul\n      0x20\n      add\n      mload(0x40)\n      swap1\n      dup2\n      add\n      0x40\n      mstore\n      dup1\n      swap3\n      swap2\n      swap1\n      dup2\n      dup2\n      mstore\n      0x20\n      add\n      dup3\n      dup1\n      sload\n      tag_70\n      swap1\n      tag_69\n      jump\t// in\n    tag_70:\n      dup1\n      iszero\n      tag_71\n      jumpi\n      dup1\n      0x1f\n      lt\n      tag_72\n      jumpi\n      0x0100\n      dup1\n      dup4\n      sload\n      div\n      mul\n      dup4\n      mstore\n      swap2\n      0x20\n      add\n      swap2\n      jump(tag_71)\n    tag_72:\n      dup3\n      add\n      swap2\n      swap1\n      0x00\n      mstore\n      keccak256(0x00, 0x20)\n      swap1\n    tag_73:\n      dup2\n      sload\n      dup2\n      mstore\n      swap1\n      0x01\n      add\n      swap1\n      0x20\n      add\n      dup1\n      dup4\n      gt\n      tag_73\n      jumpi\n      dup3\n      swap1\n      sub\n      0x1f\n      and\n      dup3\n      add\n      swap2\n    tag_71:\n      pop\n      pop\n      pop\n      pop\n      pop\n      dup2\n      jump\t// out\n        /* \"contracts/ERC1155.sol\":13921:14241  function uri(uint256 id) public view virtual override returns (string memory) {... */\n    tag_33:\n        /* \"contracts/ERC1155.sol\":13984:13997  string memory */\n      0x60\n        /* \"contracts/ERC1155.sol\":14010:14031  string memory baseURI */\n      0x00\n        /* \"contracts/ERC1155.sol\":14034:14044  _baseURI() */\n      tag_75\n        /* \"contracts/ERC1155.sol\":14034:14042  _baseURI */\n      tag_76\n        /* \"contracts/ERC1155.sol\":14034:14044  _baseURI() */\n      jump\t// in\n    tag_75:\n        /* \"contracts/ERC1155.sol\":14010:14044  string memory baseURI = _baseURI() */\n      swap1\n      pop\n        /* \"contracts/ERC1155.sol\":14176:14177  0 */\n      0x00\n        /* \"contracts/ERC1155.sol\":14158:14165  baseURI */\n      dup2\n        /* \"contracts/ERC1155.sol\":14152:14173  bytes(baseURI).length */\n      mload\n        /* \"contracts/ERC1155.sol\":14152:14177  bytes(baseURI).length > 0 */\n      gt\n        /* \"contracts/ERC1155.sol\":14152:14233  bytes(baseURI).length > 0 ? string(abi.encodePacked(baseURI, id.toString())) : \"\" */\n      tag_77\n      jumpi\n      mload(0x40)\n      dup1\n      0x20\n      add\n      0x40\n      mstore\n      dup1\n      0x00\n      dup2\n      mstore\n      pop\n      jump(tag_78)\n    tag_77:\n        /* \"contracts/ERC1155.sol\":14204:14211  baseURI */\n      dup1\n        /* \"contracts/ERC1155.sol\":14213:14226  id.toString() */\n      tag_79\n        /* \"contracts/ERC1155.sol\":14213:14215  id */\n      dup5\n        /* \"contracts/ERC1155.sol\":14213:14224  id.toString */\n      tag_80\n        /* \"contracts/ERC1155.sol\":14213:14226  id.toString() */\n      jump\t// in\n    tag_79:\n        /* \"contracts/ERC1155.sol\":14187:14227  abi.encodePacked(baseURI, id.toString()) */\n      add(0x20, mload(0x40))\n      tag_81\n      swap3\n      swap2\n      swap1\n      tag_82\n      jump\t// in\n    tag_81:\n      mload(0x40)\n      0x20\n      dup2\n      dup4\n      sub\n      sub\n      dup2\n      mstore\n      swap1\n      0x40\n      mstore\n        /* \"contracts/ERC1155.sol\":14152:14233  bytes(baseURI).length > 0 ? string(abi.encodePacked(baseURI, id.toString())) : \"\" */\n    tag_78:\n        /* \"contracts/ERC1155.sol\":14145:14233  return bytes(baseURI).length > 0 ? string(abi.encodePacked(baseURI, id.toString())) : \"\" */\n      swap2\n      pop\n      pop\n        /* \"contracts/ERC1155.sol\":13921:14241  function uri(uint256 id) public view virtual override returns (string memory) {... */\n      swap2\n      swap1\n      pop\n      jump\t// out\n        /* \"contracts/ERC1155.sol\":6047:7285  function safeBatchTransferFrom(... */\n    tag_38:\n        /* \"contracts/ERC1155.sol\":6258:6274  address operator */\n      0x00\n        /* \"contracts/ERC1155.sol\":6277:6287  msg.sender */\n      caller\n        /* \"contracts/ERC1155.sol\":6258:6287  address operator = msg.sender */\n      swap1\n      pop\n        /* \"contracts/ERC1155.sol\":6378:6386  operator */\n      dup1\n        /* \"contracts/ERC1155.sol\":6370:6386  from == operator */\n      0xffffffffffffffffffffffffffffffffffffffff\n      and\n        /* \"contracts/ERC1155.sol\":6370:6374  from */\n      dup7\n        /* \"contracts/ERC1155.sol\":6370:6386  from == operator */\n      0xffffffffffffffffffffffffffffffffffffffff\n      and\n      eq\n        /* \"contracts/ERC1155.sol\":6370:6422  from == operator || isApprovedForAll(from, operator) */\n      dup1\n      tag_84\n      jumpi\n      pop\n        /* \"contracts/ERC1155.sol\":6390:6422  isApprovedForAll(from, operator) */\n      tag_85\n        /* \"contracts/ERC1155.sol\":6407:6411  from */\n      dup7\n        /* \"contracts/ERC1155.sol\":6413:6421  operator */\n      dup3\n        /* \"contracts/ERC1155.sol\":6390:6406  isApprovedForAll */\n      tag_55\n        /* \"contracts/ERC1155.sol\":6390:6422  isApprovedForAll(from, operator) */\n      jump\t// in\n    tag_85:\n        /* \"contracts/ERC1155.sol\":6370:6422  from == operator || isApprovedForAll(from, operator) */\n    tag_84:\n        /* \"contracts/ERC1155.sol\":6348:6497  require(... */\n      tag_86\n      jumpi\n      mload(0x40)\n      0x08c379a000000000000000000000000000000000000000000000000000000000\n      dup2\n      mstore\n      0x04\n      add\n      tag_87\n      swap1\n      tag_88\n      jump\t// in\n    tag_87:\n      mload(0x40)\n      dup1\n      swap2\n      sub\n      swap1\n      revert\n    tag_86:\n        /* \"contracts/ERC1155.sol\":6530:6537  amounts */\n      dup3\n        /* \"contracts/ERC1155.sol\":6530:6544  amounts.length */\n      mload\n        /* \"contracts/ERC1155.sol\":6516:6519  ids */\n      dup5\n        /* \"contracts/ERC1155.sol\":6516:6526  ids.length */\n      mload\n        /* \"contracts/ERC1155.sol\":6516:6544  ids.length == amounts.length */\n      eq\n        /* \"contracts/ERC1155.sol\":6508:6589  require(ids.length == amounts.length, \"ERC1155: ids and amounts length mismatch\") */\n      tag_89\n      jumpi\n      mload(0x40)\n      0x08c379a000000000000000000000000000000000000000000000000000000000\n      dup2\n      mstore\n      0x04\n      add\n      tag_90\n      swap1\n      tag_91\n      jump\t// in\n    tag_90:\n      mload(0x40)\n      dup1\n      swap2\n      sub\n      swap1\n      revert\n    tag_89:\n        /* \"contracts/ERC1155.sol\":6622:6623  0 */\n      0x00\n        /* \"contracts/ERC1155.sol\":6608:6624  to != address(0) */\n      0xffffffffffffffffffffffffffffffffffffffff\n      and\n        /* \"contracts/ERC1155.sol\":6608:6610  to */\n      dup6\n        /* \"contracts/ERC1155.sol\":6608:6624  to != address(0) */\n      0xffffffffffffffffffffffffffffffffffffffff\n      and\n      sub\n        /* \"contracts/ERC1155.sol\":6600:6666  require(to != address(0), \"ERC1155: transfer to the zero address\") */\n      tag_92\n      jumpi\n      mload(0x40)\n      0x08c379a000000000000000000000000000000000000000000000000000000000\n      dup2\n      mstore\n      0x04\n      add\n      tag_93\n      swap1\n      tag_94\n      jump\t// in\n    tag_93:\n      mload(0x40)\n      dup1\n      swap2\n      sub\n      swap1\n      revert\n    tag_92:\n        /* \"contracts/ERC1155.sol\":6681:6690  uint256 i */\n      0x00\n        /* \"contracts/ERC1155.sol\":6693:6694  0 */\n      0x00\n        /* \"contracts/ERC1155.sol\":6681:6694  uint256 i = 0 */\n      swap1\n      pop\n        /* \"contracts/ERC1155.sol\":6677:7094  for(uint256 i = 0;i< ids.length;++i){... */\n    tag_95:\n        /* \"contracts/ERC1155.sol\":6698:6701  ids */\n      dup5\n        /* \"contracts/ERC1155.sol\":6698:6708  ids.length */\n      mload\n        /* \"contracts/ERC1155.sol\":6695:6696  i */\n      dup2\n        /* \"contracts/ERC1155.sol\":6695:6708  i< ids.length */\n      lt\n        /* \"contracts/ERC1155.sol\":6677:7094  for(uint256 i = 0;i< ids.length;++i){... */\n      iszero\n      tag_96\n      jumpi\n        /* \"contracts/ERC1155.sol\":6728:6738  uint256 id */\n      0x00\n        /* \"contracts/ERC1155.sol\":6741:6744  ids */\n      dup6\n        /* \"contracts/ERC1155.sol\":6745:6746  i */\n      dup3\n        /* \"contracts/ERC1155.sol\":6741:6747  ids[i] */\n      dup2\n      mload\n      dup2\n      lt\n      tag_98\n      jumpi\n      tag_99\n      tag_100\n      jump\t// in\n    tag_99:\n    tag_98:\n      0x20\n      mul\n      0x20\n      add\n      add\n      mload\n        /* \"contracts/ERC1155.sol\":6728:6747  uint256 id = ids[i] */\n      swap1\n      pop\n        /* \"contracts/ERC1155.sol\":6762:6776  uint256 amount */\n      0x00\n        /* \"contracts/ERC1155.sol\":6779:6786  amounts */\n      dup6\n        /* \"contracts/ERC1155.sol\":6787:6788  i */\n      dup4\n        /* \"contracts/ERC1155.sol\":6779:6789  amounts[i] */\n      dup2\n      mload\n      dup2\n      lt\n      tag_101\n      jumpi\n      tag_102\n      tag_100\n      jump\t// in\n    tag_102:\n    tag_101:\n      0x20\n      mul\n      0x20\n      add\n      add\n      mload\n        /* \"contracts/ERC1155.sol\":6762:6789  uint256 amount = amounts[i] */\n      swap1\n      pop\n        /* \"contracts/ERC1155.sol\":6804:6823  uint256 fromBalance */\n      0x00\n        /* \"contracts/ERC1155.sol\":6826:6835  _balances */\n      0x02\n        /* \"contracts/ERC1155.sol\":6826:6839  _balances[id] */\n      0x00\n        /* \"contracts/ERC1155.sol\":6836:6838  id */\n      dup5\n        /* \"contracts/ERC1155.sol\":6826:6839  _balances[id] */\n      dup2\n      mstore\n      0x20\n      add\n      swap1\n      dup2\n      mstore\n      0x20\n      add\n      0x00\n      keccak256\n        /* \"contracts/ERC1155.sol\":6826:6845  _balances[id][from] */\n      0x00\n        /* \"contracts/ERC1155.sol\":6840:6844  from */\n      dup12\n        /* \"contracts/ERC1155.sol\":6826:6845  _balances[id][from] */\n      0xffffffffffffffffffffffffffffffffffffffff\n      and\n      0xffffffffffffffffffffffffffffffffffffffff\n      and\n      dup2\n      mstore\n      0x20\n      add\n      swap1\n      dup2\n      mstore\n      0x20\n      add\n      0x00\n      keccak256\n      sload\n        /* \"contracts/ERC1155.sol\":6804:6845  uint256 fromBalance = _balances[id][from] */\n      swap1\n      pop\n        /* \"contracts/ERC1155.sol\":6882:6888  amount */\n      dup2\n        /* \"contracts/ERC1155.sol\":6868:6879  fromBalance */\n      dup2\n        /* \"contracts/ERC1155.sol\":6868:6888  fromBalance >=amount */\n      lt\n      iszero\n        /* \"contracts/ERC1155.sol\":6860:6935  require(fromBalance >=amount, \"ERC1155: insufficient balance for transfer\") */\n      tag_103\n      jumpi\n      mload(0x40)\n      0x08c379a000000000000000000000000000000000000000000000000000000000\n      dup2\n      mstore\n      0x04\n      add\n      tag_104\n      swap1\n      tag_105\n      jump\t// in\n    tag_104:\n      mload(0x40)\n      dup1\n      swap2\n      sub\n      swap1\n      revert\n    tag_103:\n        /* \"contracts/ERC1155.sol\":7014:7020  amount */\n      dup2\n        /* \"contracts/ERC1155.sol\":7000:7011  fromBalance */\n      dup2\n        /* \"contracts/ERC1155.sol\":7000:7020  fromBalance - amount */\n      sub\n        /* \"contracts/ERC1155.sol\":6978:6987  _balances */\n      0x02\n        /* \"contracts/ERC1155.sol\":6978:6991  _balances[id] */\n      0x00\n        /* \"contracts/ERC1155.sol\":6988:6990  id */\n      dup6\n        /* \"contracts/ERC1155.sol\":6978:6991  _balances[id] */\n      dup2\n      mstore\n      0x20\n      add\n      swap1\n      dup2\n      mstore\n      0x20\n      add\n      0x00\n      keccak256\n        /* \"contracts/ERC1155.sol\":6978:6997  _balances[id][from] */\n      0x00\n        /* \"contracts/ERC1155.sol\":6992:6996  from */\n      dup13\n        /* \"contracts/ERC1155.sol\":6978:6997  _balances[id][from] */\n      0xffffffffffffffffffffffffffffffffffffffff\n      and\n      0xffffffffffffffffffffffffffffffffffffffff\n      and\n      dup2\n      mstore\n      0x20\n      add\n      swap1\n      dup2\n      mstore\n      0x20\n      add\n      0x00\n      keccak256\n        /* \"contracts/ERC1155.sol\":6978:7020  _balances[id][from] = fromBalance - amount */\n      dup2\n      swap1\n      sstore\n      pop\n        /* \"contracts/ERC1155.sol\":7061:7067  amount */\n      dup2\n        /* \"contracts/ERC1155.sol\":7039:7048  _balances */\n      0x02\n        /* \"contracts/ERC1155.sol\":7039:7052  _balances[id] */\n      0x00\n        /* \"contracts/ERC1155.sol\":7049:7051  id */\n      dup6\n        /* \"contracts/ERC1155.sol\":7039:7052  _balances[id] */\n      dup2\n      mstore\n      0x20\n      add\n      swap1\n      dup2\n      mstore\n      0x20\n      add\n      0x00\n      keccak256\n        /* \"contracts/ERC1155.sol\":7039:7056  _balances[id][to] */\n      0x00\n        /* \"contracts/ERC1155.sol\":7053:7055  to */\n      dup12\n        /* \"contracts/ERC1155.sol\":7039:7056  _balances[id][to] */\n      0xffffffffffffffffffffffffffffffffffffffff\n      and\n      0xffffffffffffffffffffffffffffffffffffffff\n      and\n      dup2\n      mstore\n      0x20\n      add\n      swap1\n      dup2\n      mstore\n      0x20\n      add\n      0x00\n      keccak256\n      0x00\n        /* \"contracts/ERC1155.sol\":7039:7067  _balances[id][to] +=  amount */\n      dup3\n      dup3\n      sload\n      add\n      swap3\n      pop\n      pop\n      dup2\n      swap1\n      sstore\n      pop\n        /* \"contracts/ERC1155.sol\":6713:7094  {... */\n      pop\n      pop\n      pop\n        /* \"contracts/ERC1155.sol\":6709:6712  ++i */\n      dup1\n      0x01\n      add\n      swap1\n      pop\n        /* \"contracts/ERC1155.sol\":6677:7094  for(uint256 i = 0;i< ids.length;++i){... */\n      jump(tag_95)\n    tag_96:\n      pop\n        /* \"contracts/ERC1155.sol\":7141:7143  to */\n      dup5\n        /* \"contracts/ERC1155.sol\":7111:7158  TransferBatch(operator, from, to, ids, amounts) */\n      0xffffffffffffffffffffffffffffffffffffffff\n      and\n        /* \"contracts/ERC1155.sol\":7135:7139  from */\n      dup7\n        /* \"contracts/ERC1155.sol\":7111:7158  TransferBatch(operator, from, to, ids, amounts) */\n      0xffffffffffffffffffffffffffffffffffffffff\n      and\n        /* \"contracts/ERC1155.sol\":7125:7133  operator */\n      dup3\n        /* \"contracts/ERC1155.sol\":7111:7158  TransferBatch(operator, from, to, ids, amounts) */\n      0xffffffffffffffffffffffffffffffffffffffff\n      and\n      0x4a39dc06d4c0dbc64b70af90fd698a233a518aa5d07e595d983b8c0526c8f7fb\n        /* \"contracts/ERC1155.sol\":7145:7148  ids */\n      dup8\n        /* \"contracts/ERC1155.sol\":7150:7157  amounts */\n      dup8\n        /* \"contracts/ERC1155.sol\":7111:7158  TransferBatch(operator, from, to, ids, amounts) */\n      mload(0x40)\n      tag_106\n      swap3\n      swap2\n      swap1\n      tag_107\n      jump\t// in\n    tag_106:\n      mload(0x40)\n      dup1\n      swap2\n      sub\n      swap1\n      log4\n        /* \"contracts/ERC1155.sol\":7196:7271  _doSafeBatchTransferAcceptanceCheck(operator, from, to, ids, amounts, data) */\n      tag_108\n        /* \"contracts/ERC1155.sol\":7232:7240  operator */\n      dup2\n        /* \"contracts/ERC1155.sol\":7242:7246  from */\n      dup8\n        /* \"contracts/ERC1155.sol\":7248:7250  to */\n      dup8\n        /* \"contracts/ERC1155.sol\":7252:7255  ids */\n      dup8\n        /* \"contracts/ERC1155.sol\":7257:7264  amounts */\n      dup8\n        /* \"contracts/ERC1155.sol\":7266:7270  data */\n      dup8\n        /* \"contracts/ERC1155.sol\":7196:7231  _doSafeBatchTransferAcceptanceCheck */\n      tag_109\n        /* \"contracts/ERC1155.sol\":7196:7271  _doSafeBatchTransferAcceptanceCheck(operator, from, to, ids, amounts, data) */\n      jump\t// in\n    tag_108:\n        /* \"contracts/ERC1155.sol\":6247:7285  {... */\n      pop\n        /* \"contracts/ERC1155.sol\":6047:7285  function safeBatchTransferFrom(... */\n      pop\n      pop\n      pop\n      pop\n      pop\n      jump\t// out\n        /* \"contracts/ERC1155.sol\":2054:2718  function balanceOfBatch(address[] memory accounts,uint256[] memory ids) public view virtual override returns(uint256[] memory){... */\n    tag_42:\n        /* \"contracts/ERC1155.sol\":2163:2179  uint256[] memory */\n      0x60\n        /* \"contracts/ERC1155.sol\":2219:2222  ids */\n      dup2\n        /* \"contracts/ERC1155.sol\":2219:2229  ids.length */\n      mload\n        /* \"contracts/ERC1155.sol\":2200:2208  accounts */\n      dup4\n        /* \"contracts/ERC1155.sol\":2200:2215  accounts.length */\n      mload\n        /* \"contracts/ERC1155.sol\":2200:2229  accounts.length == ids.length */\n      eq\n        /* \"contracts/ERC1155.sol\":2192:2275  require(accounts.length == ids.length, \"ERC1155: accounts and ids length mismatch\") */\n      tag_111\n      jumpi\n      mload(0x40)\n      0x08c379a000000000000000000000000000000000000000000000000000000000\n      dup2\n      mstore\n      0x04\n      add\n      tag_112\n      swap1\n      tag_113\n      jump\t// in\n    tag_112:\n      mload(0x40)\n      dup1\n      swap2\n      sub\n      swap1\n      revert\n    tag_111:\n        /* \"contracts/ERC1155.sol\":2479:2509  uint256[] memory batchBalances */\n      0x00\n        /* \"contracts/ERC1155.sol\":2526:2534  accounts */\n      dup4\n        /* \"contracts/ERC1155.sol\":2526:2541  accounts.length */\n      mload\n        /* \"contracts/ERC1155.sol\":2512:2542  new uint256[](accounts.length) */\n      0xffffffffffffffff\n      dup2\n      gt\n      iszero\n      tag_114\n      jumpi\n      tag_115\n      tag_116\n      jump\t// in\n    tag_115:\n    tag_114:\n      mload(0x40)\n      swap1\n      dup1\n      dup3\n      mstore\n      dup1\n      0x20\n      mul\n      0x20\n      add\n      dup3\n      add\n      0x40\n      mstore\n      dup1\n      iszero\n      tag_117\n      jumpi\n      dup2\n      0x20\n      add\n      0x20\n      dup3\n      mul\n      dup1\n      calldatasize\n      dup4\n      calldatacopy\n      dup1\n      dup3\n      add\n      swap2\n      pop\n      pop\n      swap1\n      pop\n    tag_117:\n      pop\n        /* \"contracts/ERC1155.sol\":2479:2542  uint256[] memory batchBalances = new uint256[](accounts.length) */\n      swap1\n      pop\n        /* \"contracts/ERC1155.sol\":2559:2568  uint256 i */\n      0x00\n        /* \"contracts/ERC1155.sol\":2571:2572  0 */\n      0x00\n        /* \"contracts/ERC1155.sol\":2559:2572  uint256 i = 0 */\n      swap1\n      pop\n        /* \"contracts/ERC1155.sol\":2554:2678  for (uint256 i = 0; i < accounts.length; i++) {... */\n    tag_118:\n        /* \"contracts/ERC1155.sol\":2578:2586  accounts */\n      dup5\n        /* \"contracts/ERC1155.sol\":2578:2593  accounts.length */\n      mload\n        /* \"contracts/ERC1155.sol\":2574:2575  i */\n      dup2\n        /* \"contracts/ERC1155.sol\":2574:2593  i < accounts.length */\n      lt\n        /* \"contracts/ERC1155.sol\":2554:2678  for (uint256 i = 0; i < accounts.length; i++) {... */\n      iszero\n      tag_119\n      jumpi\n        /* \"contracts/ERC1155.sol\":2635:2665  balanceOf(accounts[i], ids[i]) */\n      tag_121\n        /* \"contracts/ERC1155.sol\":2645:2653  accounts */\n      dup6\n        /* \"contracts/ERC1155.sol\":2654:2655  i */\n      dup3\n        /* \"contracts/ERC1155.sol\":2645:2656  accounts[i] */\n      dup2\n      mload\n      dup2\n      lt\n      tag_122\n      jumpi\n      tag_123\n      tag_100\n      jump\t// in\n    tag_123:\n    tag_122:\n      0x20\n      mul\n      0x20\n      add\n      add\n      mload\n        /* \"contracts/ERC1155.sol\":2658:2661  ids */\n      dup6\n        /* \"contracts/ERC1155.sol\":2662:2663  i */\n      dup4\n        /* \"contracts/ERC1155.sol\":2658:2664  ids[i] */\n      dup2\n      mload\n      dup2\n      lt\n      tag_124\n      jumpi\n      tag_125\n      tag_100\n      jump\t// in\n    tag_125:\n    tag_124:\n      0x20\n      mul\n      0x20\n      add\n      add\n      mload\n        /* \"contracts/ERC1155.sol\":2635:2644  balanceOf */\n      tag_17\n        /* \"contracts/ERC1155.sol\":2635:2665  balanceOf(accounts[i], ids[i]) */\n      jump\t// in\n    tag_121:\n        /* \"contracts/ERC1155.sol\":2616:2629  batchBalances */\n      dup3\n        /* \"contracts/ERC1155.sol\":2630:2631  i */\n      dup3\n        /* \"contracts/ERC1155.sol\":2616:2632  batchBalances[i] */\n      dup2\n      mload\n      dup2\n      lt\n      tag_126\n      jumpi\n      tag_127\n      tag_100\n      jump\t// in\n    tag_127:\n    tag_126:\n      0x20\n      mul\n      0x20\n      add\n      add\n        /* \"contracts/ERC1155.sol\":2616:2665  batchBalances[i] = balanceOf(accounts[i], ids[i]) */\n      dup2\n      dup2\n      mstore\n      pop\n      pop\n        /* \"contracts/ERC1155.sol\":2595:2598  i++ */\n      dup1\n      dup1\n      0x01\n      add\n      swap2\n      pop\n      pop\n        /* \"contracts/ERC1155.sol\":2554:2678  for (uint256 i = 0; i < accounts.length; i++) {... */\n      jump(tag_118)\n    tag_119:\n      pop\n        /* \"contracts/ERC1155.sol\":2696:2709  batchBalances */\n      dup1\n        /* \"contracts/ERC1155.sol\":2689:2709  return batchBalances */\n      swap2\n      pop\n      pop\n        /* \"contracts/ERC1155.sol\":2054:2718  function balanceOfBatch(address[] memory accounts,uint256[] memory ids) public view virtual override returns(uint256[] memory){... */\n      swap3\n      swap2\n      pop\n      pop\n      jump\t// out\n        /* \"contracts/ERC1155.sol\":479:499  string public symbol */\n    tag_46:\n      0x01\n      dup1\n      sload\n      tag_128\n      swap1\n      tag_69\n      jump\t// in\n    tag_128:\n      dup1\n      0x1f\n      add\n      0x20\n      dup1\n      swap2\n      div\n      mul\n      0x20\n      add\n      mload(0x40)\n      swap1\n      dup2\n      add\n      0x40\n      mstore\n      dup1\n      swap3\n      swap2\n      swap1\n      dup2\n      dup2\n      mstore\n      0x20\n      add\n      dup3\n      dup1\n      sload\n      tag_129\n      swap1\n      tag_69\n      jump\t// in\n    tag_129:\n      dup1\n      iszero\n      tag_130\n      jumpi\n      dup1\n      0x1f\n      lt\n      tag_131\n      jumpi\n      0x0100\n      dup1\n      dup4\n      sload\n      div\n      mul\n      dup4\n      mstore\n      swap2\n      0x20\n      add\n      swap2\n      jump(tag_130)\n    tag_131:\n      dup3\n      add\n      swap2\n      swap1\n      0x00\n      mstore\n      keccak256(0x00, 0x20)\n      swap1\n    tag_132:\n      dup2\n      sload\n      dup2\n      mstore\n      swap1\n      0x01\n      add\n      swap1\n      0x20\n      add\n      dup1\n      dup4\n      gt\n      tag_132\n      jumpi\n      dup3\n      swap1\n      sub\n      0x1f\n      and\n      dup3\n      add\n      swap2\n    tag_130:\n      pop\n      pop\n      pop\n      pop\n      pop\n      dup2\n      jump\t// out\n        /* \"contracts/ERC1155.sol\":2924:3227  function setApprovalForAll(address operator,bool approved) public virtual override {... */\n    tag_51:\n        /* \"contracts/ERC1155.sol\":3040:3048  operator */\n      dup2\n        /* \"contracts/ERC1155.sol\":3026:3048  msg.sender != operator */\n      0xffffffffffffffffffffffffffffffffffffffff\n      and\n        /* \"contracts/ERC1155.sol\":3026:3036  msg.sender */\n      caller\n        /* \"contracts/ERC1155.sol\":3026:3048  msg.sender != operator */\n      0xffffffffffffffffffffffffffffffffffffffff\n      and\n      sub\n        /* \"contracts/ERC1155.sol\":3018:3094  require(msg.sender != operator, \"ERC1155: setting approval status for self\") */\n      tag_134\n      jumpi\n      mload(0x40)\n      0x08c379a000000000000000000000000000000000000000000000000000000000\n      dup2\n      mstore\n      0x04\n      add\n      tag_135\n      swap1\n      tag_136\n      jump\t// in\n    tag_135:\n      mload(0x40)\n      dup1\n      swap2\n      sub\n      swap1\n      revert\n    tag_134:\n        /* \"contracts/ERC1155.sol\":3148:3156  approved */\n      dup1\n        /* \"contracts/ERC1155.sol\":3105:3123  _operatorApprovals */\n      0x03\n        /* \"contracts/ERC1155.sol\":3105:3135  _operatorApprovals[msg.sender] */\n      0x00\n        /* \"contracts/ERC1155.sol\":3124:3134  msg.sender */\n      caller\n        /* \"contracts/ERC1155.sol\":3105:3135  _operatorApprovals[msg.sender] */\n      0xffffffffffffffffffffffffffffffffffffffff\n      and\n      0xffffffffffffffffffffffffffffffffffffffff\n      and\n      dup2\n      mstore\n      0x20\n      add\n      swap1\n      dup2\n      mstore\n      0x20\n      add\n      0x00\n      keccak256\n        /* \"contracts/ERC1155.sol\":3105:3145  _operatorApprovals[msg.sender][operator] */\n      0x00\n        /* \"contracts/ERC1155.sol\":3136:3144  operator */\n      dup5\n        /* \"contracts/ERC1155.sol\":3105:3145  _operatorApprovals[msg.sender][operator] */\n      0xffffffffffffffffffffffffffffffffffffffff\n      and\n      0xffffffffffffffffffffffffffffffffffffffff\n      and\n      dup2\n      mstore\n      0x20\n      add\n      swap1\n      dup2\n      mstore\n      0x20\n      add\n      0x00\n      keccak256\n      0x00\n        /* \"contracts/ERC1155.sol\":3105:3156  _operatorApprovals[msg.sender][operator] = approved */\n      0x0100\n      exp\n      dup2\n      sload\n      dup2\n      0xff\n      mul\n      not\n      and\n      swap1\n      dup4\n      iszero\n      iszero\n      mul\n      or\n      swap1\n      sstore\n      pop\n        /* \"contracts/ERC1155.sol\":3199:3207  operator */\n      dup2\n        /* \"contracts/ERC1155.sol\":3172:3218  ApprovalForAll(msg.sender, operator, approved) */\n      0xffffffffffffffffffffffffffffffffffffffff\n      and\n        /* \"contracts/ERC1155.sol\":3187:3197  msg.sender */\n      caller\n        /* \"contracts/ERC1155.sol\":3172:3218  ApprovalForAll(msg.sender, operator, approved) */\n      0xffffffffffffffffffffffffffffffffffffffff\n      and\n      0x17307eab39ab6107e8899845ad3d59bd9653f200f220920489ca2b5937696c31\n        /* \"contracts/ERC1155.sol\":3209:3217  approved */\n      dup4\n        /* \"contracts/ERC1155.sol\":3172:3218  ApprovalForAll(msg.sender, operator, approved) */\n      mload(0x40)\n      tag_137\n      swap2\n      swap1\n      tag_25\n      jump\t// in\n    tag_137:\n      mload(0x40)\n      dup1\n      swap2\n      sub\n      swap1\n      log3\n        /* \"contracts/ERC1155.sol\":2924:3227  function setApprovalForAll(address operator,bool approved) public virtual override {... */\n      pop\n      pop\n      jump\t// out\n        /* \"contracts/ERC1155.sol\":3288:3455  function isApprovedForAll(address account,address operator) public view virtual override returns(bool){... */\n    tag_55:\n        /* \"contracts/ERC1155.sol\":3385:3389  bool */\n      0x00\n        /* \"contracts/ERC1155.sol\":3409:3427  _operatorApprovals */\n      0x03\n        /* \"contracts/ERC1155.sol\":3409:3436  _operatorApprovals[account] */\n      0x00\n        /* \"contracts/ERC1155.sol\":3428:3435  account */\n      dup5\n        /* \"contracts/ERC1155.sol\":3409:3436  _operatorApprovals[account] */\n      0xffffffffffffffffffffffffffffffffffffffff\n      and\n      0xffffffffffffffffffffffffffffffffffffffff\n      and\n      dup2\n      mstore\n      0x20\n      add\n      swap1\n      dup2\n      mstore\n      0x20\n      add\n      0x00\n      keccak256\n        /* \"contracts/ERC1155.sol\":3409:3446  _operatorApprovals[account][operator] */\n      0x00\n        /* \"contracts/ERC1155.sol\":3437:3445  operator */\n      dup4\n        /* \"contracts/ERC1155.sol\":3409:3446  _operatorApprovals[account][operator] */\n      0xffffffffffffffffffffffffffffffffffffffff\n      and\n      0xffffffffffffffffffffffffffffffffffffffff\n      and\n      dup2\n      mstore\n      0x20\n      add\n      swap1\n      dup2\n      mstore\n      0x20\n      add\n      0x00\n      keccak256\n      0x00\n      swap1\n      sload\n      swap1\n      0x0100\n      exp\n      swap1\n      div\n      0xff\n      and\n        /* \"contracts/ERC1155.sol\":3402:3446  return _operatorApprovals[account][operator] */\n      swap1\n      pop\n        /* \"contracts/ERC1155.sol\":3288:3455  function isApprovedForAll(address account,address operator) public view virtual override returns(bool){... */\n      swap3\n      swap2\n      pop\n      pop\n      jump\t// out\n        /* \"contracts/ERC1155.sol\":3815:5621  function safeTransferFrom(address from,address to,uint256 id,uint256 amount,bytes memory data) public virtual override {... */\n    tag_60:\n        /* \"contracts/ERC1155.sol\":3994:4010  address operator */\n      0x00\n        /* \"contracts/ERC1155.sol\":4013:4023  msg.sender */\n      caller\n        /* \"contracts/ERC1155.sol\":3994:4023  address operator = msg.sender */\n      swap1\n      pop\n        /* \"contracts/ERC1155.sol\":4050:4058  operator */\n      dup1\n        /* \"contracts/ERC1155.sol\":4042:4058  from == operator */\n      0xffffffffffffffffffffffffffffffffffffffff\n      and\n        /* \"contracts/ERC1155.sol\":4042:4046  from */\n      dup7\n        /* \"contracts/ERC1155.sol\":4042:4058  from == operator */\n      0xffffffffffffffffffffffffffffffffffffffff\n      and\n      eq\n        /* \"contracts/ERC1155.sol\":4042:4093  from == operator || isApprovedForAll(from,operator) */\n      dup1\n      tag_140\n      jumpi\n      pop\n        /* \"contracts/ERC1155.sol\":4062:4093  isApprovedForAll(from,operator) */\n      tag_141\n        /* \"contracts/ERC1155.sol\":4079:4083  from */\n      dup7\n        /* \"contracts/ERC1155.sol\":4084:4092  operator */\n      dup3\n        /* \"contracts/ERC1155.sol\":4062:4078  isApprovedForAll */\n      tag_55\n        /* \"contracts/ERC1155.sol\":4062:4093  isApprovedForAll(from,operator) */\n      jump\t// in\n    tag_141:\n        /* \"contracts/ERC1155.sol\":4042:4093  from == operator || isApprovedForAll(from,operator) */\n    tag_140:\n        /* \"contracts/ERC1155.sol\":4034:4164  require(from == operator || isApprovedForAll(from,operator),... */\n      tag_142\n      jumpi\n      mload(0x40)\n      0x08c379a000000000000000000000000000000000000000000000000000000000\n      dup2\n      mstore\n      0x04\n      add\n      tag_143\n      swap1\n      tag_88\n      jump\t// in\n    tag_143:\n      mload(0x40)\n      dup1\n      swap2\n      sub\n      swap1\n      revert\n    tag_142:\n        /* \"contracts/ERC1155.sol\":4237:4238  0 */\n      0x00\n        /* \"contracts/ERC1155.sol\":4223:4239  to != address(0) */\n      0xffffffffffffffffffffffffffffffffffffffff\n      and\n        /* \"contracts/ERC1155.sol\":4223:4225  to */\n      dup6\n        /* \"contracts/ERC1155.sol\":4223:4239  to != address(0) */\n      0xffffffffffffffffffffffffffffffffffffffff\n      and\n      sub\n        /* \"contracts/ERC1155.sol\":4215:4281  require(to != address(0), \"ERC1155: transfer to the zero address\") */\n      tag_144\n      jumpi\n      mload(0x40)\n      0x08c379a000000000000000000000000000000000000000000000000000000000\n      dup2\n      mstore\n      0x04\n      add\n      tag_145\n      swap1\n      tag_94\n      jump\t// in\n    tag_145:\n      mload(0x40)\n      dup1\n      swap2\n      sub\n      swap1\n      revert\n    tag_144:\n        /* \"contracts/ERC1155.sol\":5130:5149  uint256 fromBalance */\n      0x00\n        /* \"contracts/ERC1155.sol\":5152:5161  _balances */\n      0x02\n        /* \"contracts/ERC1155.sol\":5152:5165  _balances[id] */\n      0x00\n        /* \"contracts/ERC1155.sol\":5162:5164  id */\n      dup7\n        /* \"contracts/ERC1155.sol\":5152:5165  _balances[id] */\n      dup2\n      mstore\n      0x20\n      add\n      swap1\n      dup2\n      mstore\n      0x20\n      add\n      0x00\n      keccak256\n        /* \"contracts/ERC1155.sol\":5152:5171  _balances[id][from] */\n      0x00\n        /* \"contracts/ERC1155.sol\":5166:5170  from */\n      dup9\n        /* \"contracts/ERC1155.sol\":5152:5171  _balances[id][from] */\n      0xffffffffffffffffffffffffffffffffffffffff\n      and\n      0xffffffffffffffffffffffffffffffffffffffff\n      and\n      dup2\n      mstore\n      0x20\n      add\n      swap1\n      dup2\n      mstore\n      0x20\n      add\n      0x00\n      keccak256\n      sload\n        /* \"contracts/ERC1155.sol\":5130:5171  uint256 fromBalance = _balances[id][from] */\n      swap1\n      pop\n        /* \"contracts/ERC1155.sol\":5205:5211  amount */\n      dup4\n        /* \"contracts/ERC1155.sol\":5190:5201  fromBalance */\n      dup2\n        /* \"contracts/ERC1155.sol\":5190:5211  fromBalance >= amount */\n      lt\n      iszero\n        /* \"contracts/ERC1155.sol\":5182:5258  require(fromBalance >= amount, \"ERC1155: insufficient balance for transfer\") */\n      tag_146\n      jumpi\n      mload(0x40)\n      0x08c379a000000000000000000000000000000000000000000000000000000000\n      dup2\n      mstore\n      0x04\n      add\n      tag_147\n      swap1\n      tag_105\n      jump\t// in\n    tag_147:\n      mload(0x40)\n      dup1\n      swap2\n      sub\n      swap1\n      revert\n    tag_146:\n        /* \"contracts/ERC1155.sol\":5358:5364  amount */\n      dup4\n        /* \"contracts/ERC1155.sol\":5344:5355  fromBalance */\n      dup2\n        /* \"contracts/ERC1155.sol\":5344:5364  fromBalance - amount */\n      sub\n        /* \"contracts/ERC1155.sol\":5322:5331  _balances */\n      0x02\n        /* \"contracts/ERC1155.sol\":5322:5335  _balances[id] */\n      0x00\n        /* \"contracts/ERC1155.sol\":5332:5334  id */\n      dup8\n        /* \"contracts/ERC1155.sol\":5322:5335  _balances[id] */\n      dup2\n      mstore\n      0x20\n      add\n      swap1\n      dup2\n      mstore\n      0x20\n      add\n      0x00\n      keccak256\n        /* \"contracts/ERC1155.sol\":5322:5341  _balances[id][from] */\n      0x00\n        /* \"contracts/ERC1155.sol\":5336:5340  from */\n      dup10\n        /* \"contracts/ERC1155.sol\":5322:5341  _balances[id][from] */\n      0xffffffffffffffffffffffffffffffffffffffff\n      and\n      0xffffffffffffffffffffffffffffffffffffffff\n      and\n      dup2\n      mstore\n      0x20\n      add\n      swap1\n      dup2\n      mstore\n      0x20\n      add\n      0x00\n      keccak256\n        /* \"contracts/ERC1155.sol\":5322:5364  _balances[id][from] = fromBalance - amount */\n      dup2\n      swap1\n      sstore\n      pop\n        /* \"contracts/ERC1155.sol\":5407:5413  amount */\n      dup4\n        /* \"contracts/ERC1155.sol\":5386:5395  _balances */\n      0x02\n        /* \"contracts/ERC1155.sol\":5386:5399  _balances[id] */\n      0x00\n        /* \"contracts/ERC1155.sol\":5396:5398  id */\n      dup8\n        /* \"contracts/ERC1155.sol\":5386:5399  _balances[id] */\n      dup2\n      mstore\n      0x20\n      add\n      swap1\n      dup2\n      mstore\n      0x20\n      add\n      0x00\n      keccak256\n        /* \"contracts/ERC1155.sol\":5386:5403  _balances[id][to] */\n      0x00\n        /* \"contracts/ERC1155.sol\":5400:5402  to */\n      dup9\n        /* \"contracts/ERC1155.sol\":5386:5403  _balances[id][to] */\n      0xffffffffffffffffffffffffffffffffffffffff\n      and\n      0xffffffffffffffffffffffffffffffffffffffff\n      and\n      dup2\n      mstore\n      0x20\n      add\n      swap1\n      dup2\n      mstore\n      0x20\n      add\n      0x00\n      keccak256\n      0x00\n        /* \"contracts/ERC1155.sol\":5386:5413  _balances[id][to] += amount */\n      dup3\n      dup3\n      sload\n      tag_148\n      swap2\n      swap1\n      tag_149\n      jump\t// in\n    tag_148:\n      swap3\n      pop\n      pop\n      dup2\n      swap1\n      sstore\n      pop\n        /* \"contracts/ERC1155.sol\":5486:5488  to */\n      dup6\n        /* \"contracts/ERC1155.sol\":5455:5501  TransferSingle(operator, from, to, id, amount) */\n      0xffffffffffffffffffffffffffffffffffffffff\n      and\n        /* \"contracts/ERC1155.sol\":5480:5484  from */\n      dup8\n        /* \"contracts/ERC1155.sol\":5455:5501  TransferSingle(operator, from, to, id, amount) */\n      0xffffffffffffffffffffffffffffffffffffffff\n      and\n        /* \"contracts/ERC1155.sol\":5470:5478  operator */\n      dup4\n        /* \"contracts/ERC1155.sol\":5455:5501  TransferSingle(operator, from, to, id, amount) */\n      0xffffffffffffffffffffffffffffffffffffffff\n      and\n      0xc3d58168c5ae7397731d063d5bbf3d657854427343f4c083240f7aacaa2d0f62\n        /* \"contracts/ERC1155.sol\":5490:5492  id */\n      dup9\n        /* \"contracts/ERC1155.sol\":5494:5500  amount */\n      dup9\n        /* \"contracts/ERC1155.sol\":5455:5501  TransferSingle(operator, from, to, id, amount) */\n      mload(0x40)\n      tag_150\n      swap3\n      swap2\n      swap1\n      tag_151\n      jump\t// in\n    tag_150:\n      mload(0x40)\n      dup1\n      swap2\n      sub\n      swap1\n      log4\n        /* \"contracts/ERC1155.sol\":5538:5606  _doSafeTransferAcceptanceCheck(operator, from, to, id, amount, data) */\n      tag_152\n        /* \"contracts/ERC1155.sol\":5569:5577  operator */\n      dup3\n        /* \"contracts/ERC1155.sol\":5579:5583  from */\n      dup9\n        /* \"contracts/ERC1155.sol\":5585:5587  to */\n      dup9\n        /* \"contracts/ERC1155.sol\":5589:5591  id */\n      dup9\n        /* \"contracts/ERC1155.sol\":5593:5599  amount */\n      dup9\n        /* \"contracts/ERC1155.sol\":5601:5605  data */\n      dup9\n        /* \"contracts/ERC1155.sol\":5538:5568  _doSafeTransferAcceptanceCheck */\n      tag_153\n        /* \"contracts/ERC1155.sol\":5538:5606  _doSafeTransferAcceptanceCheck(operator, from, to, id, amount, data) */\n      jump\t// in\n    tag_152:\n        /* \"contracts/ERC1155.sol\":3934:5621  {... */\n      pop\n      pop\n        /* \"contracts/ERC1155.sol\":3815:5621  function safeTransferFrom(address from,address to,uint256 id,uint256 amount,bytes memory data) public virtual override {... */\n      pop\n      pop\n      pop\n      pop\n      pop\n      jump\t// out\n        /* \"contracts/ERC1155.sol\":14370:14464  function _baseURI() internal view virtual returns (string memory) {... */\n    tag_76:\n        /* \"contracts/ERC1155.sol\":14421:14434  string memory */\n      0x60\n        /* \"contracts/ERC1155.sol\":14447:14456  return \"\" */\n      mload(0x40)\n      dup1\n      0x20\n      add\n      0x40\n      mstore\n      dup1\n      0x00\n      dup2\n      mstore\n      pop\n      swap1\n      pop\n        /* \"contracts/ERC1155.sol\":14370:14464  function _baseURI() internal view virtual returns (string memory) {... */\n      swap1\n      jump\t// out\n        /* \"contracts/String.sol\":408:1131  function toString(uint256 value) internal pure returns (string memory) {... */\n    tag_80:\n        /* \"contracts/String.sol\":464:477  string memory */\n      0x60\n        /* \"contracts/String.sol\":694:695  0 */\n      0x00\n        /* \"contracts/String.sol\":685:690  value */\n      dup3\n        /* \"contracts/String.sol\":685:695  value == 0 */\n      sub\n        /* \"contracts/String.sol\":681:734  if (value == 0) {... */\n      tag_156\n      jumpi\n        /* \"contracts/String.sol\":712:722  return \"0\" */\n      mload(0x40)\n      dup1\n      0x40\n      add\n      0x40\n      mstore\n      dup1\n      0x01\n      dup2\n      mstore\n      0x20\n      add\n      0x3000000000000000000000000000000000000000000000000000000000000000\n      dup2\n      mstore\n      pop\n      swap1\n      pop\n      jump(tag_155)\n        /* \"contracts/String.sol\":681:734  if (value == 0) {... */\n    tag_156:\n        /* \"contracts/String.sol\":744:756  uint256 temp */\n      0x00\n        /* \"contracts/String.sol\":759:764  value */\n      dup3\n        /* \"contracts/String.sol\":744:764  uint256 temp = value */\n      swap1\n      pop\n        /* \"contracts/String.sol\":775:789  uint256 digits */\n      0x00\n        /* \"contracts/String.sol\":800:878  while (temp != 0) {... */\n    tag_157:\n        /* \"contracts/String.sol\":815:816  0 */\n      0x00\n        /* \"contracts/String.sol\":807:811  temp */\n      dup3\n        /* \"contracts/String.sol\":807:816  temp != 0 */\n      eq\n        /* \"contracts/String.sol\":800:878  while (temp != 0) {... */\n      tag_158\n      jumpi\n        /* \"contracts/String.sol\":833:841  digits++ */\n      dup1\n      dup1\n      tag_159\n      swap1\n      tag_160\n      jump\t// in\n    tag_159:\n      swap2\n      pop\n      pop\n        /* \"contracts/String.sol\":864:866  10 */\n      0x0a\n        /* \"contracts/String.sol\":856:866  temp /= 10 */\n      dup3\n      tag_161\n      swap2\n      swap1\n      tag_162\n      jump\t// in\n    tag_161:\n      swap2\n      pop\n        /* \"contracts/String.sol\":800:878  while (temp != 0) {... */\n      jump(tag_157)\n    tag_158:\n        /* \"contracts/String.sol\":888:907  bytes memory buffer */\n      0x00\n        /* \"contracts/String.sol\":920:926  digits */\n      dup2\n        /* \"contracts/String.sol\":910:927  new bytes(digits) */\n      0xffffffffffffffff\n      dup2\n      gt\n      iszero\n      tag_163\n      jumpi\n      tag_164\n      tag_116\n      jump\t// in\n    tag_164:\n    tag_163:\n      mload(0x40)\n      swap1\n      dup1\n      dup3\n      mstore\n      dup1\n      0x1f\n      add\n      not(0x1f)\n      and\n      0x20\n      add\n      dup3\n      add\n      0x40\n      mstore\n      dup1\n      iszero\n      tag_165\n      jumpi\n      dup2\n      0x20\n      add\n      0x01\n      dup3\n      mul\n      dup1\n      calldatasize\n      dup4\n      calldatacopy\n      dup1\n      dup3\n      add\n      swap2\n      pop\n      pop\n      swap1\n      pop\n    tag_165:\n      pop\n        /* \"contracts/String.sol\":888:927  bytes memory buffer = new bytes(digits) */\n      swap1\n      pop\n        /* \"contracts/String.sol\":938:1092  while (value != 0) {... */\n    tag_166:\n        /* \"contracts/String.sol\":954:955  0 */\n      0x00\n        /* \"contracts/String.sol\":945:950  value */\n      dup6\n        /* \"contracts/String.sol\":945:955  value != 0 */\n      eq\n        /* \"contracts/String.sol\":938:1092  while (value != 0) {... */\n      tag_167\n      jumpi\n        /* \"contracts/String.sol\":982:983  1 */\n      0x01\n        /* \"contracts/String.sol\":972:983  digits -= 1 */\n      dup3\n      tag_168\n      swap2\n      swap1\n      tag_169\n      jump\t// in\n    tag_168:\n      swap2\n      pop\n        /* \"contracts/String.sol\":1049:1051  10 */\n      0x0a\n        /* \"contracts/String.sol\":1041:1046  value */\n      dup6\n        /* \"contracts/String.sol\":1041:1051  value % 10 */\n      tag_170\n      swap2\n      swap1\n      tag_171\n      jump\t// in\n    tag_170:\n        /* \"contracts/String.sol\":1028:1030  48 */\n      0x30\n        /* \"contracts/String.sol\":1028:1052  48 + uint256(value % 10) */\n      tag_172\n      swap2\n      swap1\n      tag_149\n      jump\t// in\n    tag_172:\n        /* \"contracts/String.sol\":1015:1054  bytes1(uint8(48 + uint256(value % 10))) */\n      0xf8\n      shl\n        /* \"contracts/String.sol\":998:1004  buffer */\n      dup2\n        /* \"contracts/String.sol\":1005:1011  digits */\n      dup4\n        /* \"contracts/String.sol\":998:1012  buffer[digits] */\n      dup2\n      mload\n      dup2\n      lt\n      tag_173\n      jumpi\n      tag_174\n      tag_100\n      jump\t// in\n    tag_174:\n    tag_173:\n      0x20\n      add\n      add\n        /* \"contracts/String.sol\":998:1054  buffer[digits] = bytes1(uint8(48 + uint256(value % 10))) */\n      swap1\n      not(0xffffffffffffffffffffffffffffffffffffffffffffffffffffffffffffff)\n      and\n      swap1\n      dup2\n      0x00\n      byte\n      swap1\n      mstore8\n      pop\n        /* \"contracts/String.sol\":1078:1080  10 */\n      0x0a\n        /* \"contracts/String.sol\":1069:1080  value /= 10 */\n      dup6\n      tag_175\n      swap2\n      swap1\n      tag_162\n      jump\t// in\n    tag_175:\n      swap5\n      pop\n        /* \"contracts/String.sol\":938:1092  while (value != 0) {... */\n      jump(tag_166)\n    tag_167:\n        /* \"contracts/String.sol\":1116:1122  buffer */\n      dup1\n        /* \"contracts/String.sol\":1102:1123  return string(buffer) */\n      swap4\n      pop\n      pop\n      pop\n      pop\n        /* \"contracts/String.sol\":408:1131  function toString(uint256 value) internal pure returns (string memory) {... */\n    tag_155:\n      swap2\n      swap1\n      pop\n      jump\t// out\n        /* \"contracts/ERC1155.sol\":12505:13321  function _doSafeBatchTransferAcceptanceCheck(... */\n    tag_109:\n        /* \"contracts/ERC1155.sol\":12762:12763  0 */\n      0x00\n        /* \"contracts/ERC1155.sol\":12745:12747  to */\n      dup5\n        /* \"contracts/ERC1155.sol\":12745:12759  to.code.length */\n      0xffffffffffffffffffffffffffffffffffffffff\n      and\n      extcodesize\n        /* \"contracts/ERC1155.sol\":12745:12763  to.code.length > 0 */\n      gt\n        /* \"contracts/ERC1155.sol\":12741:13314  if (to.code.length > 0) {... */\n      iszero\n      tag_177\n      jumpi\n        /* \"contracts/ERC1155.sol\":12801:12803  to */\n      dup4\n        /* \"contracts/ERC1155.sol\":12784:12827  IERC1155Receiver(to).onERC1155BatchReceived */\n      0xffffffffffffffffffffffffffffffffffffffff\n      and\n      0xbc197c81\n        /* \"contracts/ERC1155.sol\":12828:12836  operator */\n      dup8\n        /* \"contracts/ERC1155.sol\":12838:12842  from */\n      dup8\n        /* \"contracts/ERC1155.sol\":12844:12847  ids */\n      dup7\n        /* \"contracts/ERC1155.sol\":12849:12856  amounts */\n      dup7\n        /* \"contracts/ERC1155.sol\":12858:12862  data */\n      dup7\n        /* \"contracts/ERC1155.sol\":12784:12863  IERC1155Receiver(to).onERC1155BatchReceived(operator, from, ids, amounts, data) */\n      mload(0x40)\n      dup7\n      0xffffffff\n      and\n      0xe0\n      shl\n      dup2\n      mstore\n      0x04\n      add\n      tag_178\n      swap6\n      swap5\n      swap4\n      swap3\n      swap2\n      swap1\n      tag_179\n      jump\t// in\n    tag_178:\n      0x20\n      mload(0x40)\n      dup1\n      dup4\n      sub\n      dup2\n      0x00\n      dup8\n      gas\n      call\n      swap3\n      pop\n      pop\n      pop\n      dup1\n      iszero\n      tag_180\n      jumpi\n      pop\n      mload(0x40)\n      returndatasize\n      not(0x1f)\n      0x1f\n      dup3\n      add\n      and\n      dup3\n      add\n      dup1\n      0x40\n      mstore\n      pop\n      dup2\n      add\n      swap1\n      tag_181\n      swap2\n      swap1\n      tag_182\n      jump\t// in\n    tag_181:\n      0x01\n    tag_180:\n        /* \"contracts/ERC1155.sol\":12780:13303  try IERC1155Receiver(to).onERC1155BatchReceived(operator, from, ids, amounts, data) returns (... */\n      tag_183\n      jumpi\n      tag_187\n      tag_188\n      jump\t// in\n    tag_187:\n      dup1\n      0x08c379a0\n      sub\n      tag_186\n      jumpi\n      pop\n      tag_189\n      tag_190\n      jump\t// in\n    tag_189:\n      dup1\n      tag_191\n      jumpi\n      pop\n      jump(tag_185)\n    tag_191:\n        /* \"contracts/ERC1155.sol\":13176:13182  reason */\n      dup1\n        /* \"contracts/ERC1155.sol\":13169:13183  revert(reason) */\n      mload(0x40)\n      0x08c379a000000000000000000000000000000000000000000000000000000000\n      dup2\n      mstore\n      0x04\n      add\n      tag_192\n      swap2\n      swap1\n      tag_29\n      jump\t// in\n    tag_192:\n      mload(0x40)\n      dup1\n      swap2\n      sub\n      swap1\n      revert\n        /* \"contracts/ERC1155.sol\":12780:13303  try IERC1155Receiver(to).onERC1155BatchReceived(operator, from, ids, amounts, data) returns (... */\n    tag_186:\n      pop\n    tag_185:\n        /* \"contracts/ERC1155.sol\":13225:13287  revert(\"ERC1155: transfer to non-ERC1155Receiver implementer\") */\n      mload(0x40)\n      0x08c379a000000000000000000000000000000000000000000000000000000000\n      dup2\n      mstore\n      0x04\n      add\n      tag_193\n      swap1\n      tag_194\n      jump\t// in\n    tag_193:\n      mload(0x40)\n      dup1\n      swap2\n      sub\n      swap1\n      revert\n        /* \"contracts/ERC1155.sol\":12780:13303  try IERC1155Receiver(to).onERC1155BatchReceived(operator, from, ids, amounts, data) returns (... */\n    tag_183:\n        /* \"contracts/ERC1155.sol\":12957:13005  IERC1155Receiver.onERC1155BatchReceived.selector */\n      shl(0xe0, 0xbc197c81)\n        /* \"contracts/ERC1155.sol\":12945:13005  response != IERC1155Receiver.onERC1155BatchReceived.selector */\n      not(0xffffffffffffffffffffffffffffffffffffffffffffffffffffffff)\n      and\n        /* \"contracts/ERC1155.sol\":12945:12953  response */\n      dup2\n        /* \"contracts/ERC1155.sol\":12945:13005  response != IERC1155Receiver.onERC1155BatchReceived.selector */\n      not(0xffffffffffffffffffffffffffffffffffffffffffffffffffffffff)\n      and\n      eq\n        /* \"contracts/ERC1155.sol\":12941:13100  if (response != IERC1155Receiver.onERC1155BatchReceived.selector) {... */\n      tag_196\n      jumpi\n        /* \"contracts/ERC1155.sol\":13030:13080  revert(\"ERC1155: ERC1155Receiver rejected tokens\") */\n      mload(0x40)\n      0x08c379a000000000000000000000000000000000000000000000000000000000\n      dup2\n      mstore\n      0x04\n      add\n      tag_197\n      swap1\n      tag_198\n      jump\t// in\n    tag_197:\n      mload(0x40)\n      dup1\n      swap2\n      sub\n      swap1\n      revert\n        /* \"contracts/ERC1155.sol\":12941:13100  if (response != IERC1155Receiver.onERC1155BatchReceived.selector) {... */\n    tag_196:\n        /* \"contracts/ERC1155.sol\":12864:13115  returns (... */\n      pop\n        /* \"contracts/ERC1155.sol\":12741:13314  if (to.code.length > 0) {... */\n    tag_177:\n        /* \"contracts/ERC1155.sol\":12505:13321  function _doSafeBatchTransferAcceptanceCheck(... */\n      pop\n      pop\n      pop\n      pop\n      pop\n      pop\n      jump\t// out\n        /* \"contracts/ERC1155.sol\":11700:12447  function _doSafeTransferAcceptanceCheck(... */\n    tag_153:\n        /* \"contracts/ERC1155.sol\":11932:11933  0 */\n      0x00\n        /* \"contracts/ERC1155.sol\":11915:11917  to */\n      dup5\n        /* \"contracts/ERC1155.sol\":11915:11929  to.code.length */\n      0xffffffffffffffffffffffffffffffffffffffff\n      and\n      extcodesize\n        /* \"contracts/ERC1155.sol\":11915:11933  to.code.length > 0 */\n      gt\n        /* \"contracts/ERC1155.sol\":11911:12440  if (to.code.length > 0) {... */\n      iszero\n      tag_200\n      jumpi\n        /* \"contracts/ERC1155.sol\":11971:11973  to */\n      dup4\n        /* \"contracts/ERC1155.sol\":11954:11992  IERC1155Receiver(to).onERC1155Received */\n      0xffffffffffffffffffffffffffffffffffffffff\n      and\n      0xf23a6e61\n        /* \"contracts/ERC1155.sol\":11993:12001  operator */\n      dup8\n        /* \"contracts/ERC1155.sol\":12003:12007  from */\n      dup8\n        /* \"contracts/ERC1155.sol\":12009:12011  id */\n      dup7\n        /* \"contracts/ERC1155.sol\":12013:12019  amount */\n      dup7\n        /* \"contracts/ERC1155.sol\":12021:12025  data */\n      dup7\n        /* \"contracts/ERC1155.sol\":11954:12026  IERC1155Receiver(to).onERC1155Received(operator, from, id, amount, data) */\n      mload(0x40)\n      dup7\n      0xffffffff\n      and\n      0xe0\n      shl\n      dup2\n      mstore\n      0x04\n      add\n      tag_201\n      swap6\n      swap5\n      swap4\n      swap3\n      swap2\n      swap1\n      tag_202\n      jump\t// in\n    tag_201:\n      0x20\n      mload(0x40)\n      dup1\n      dup4\n      sub\n      dup2\n      0x00\n      dup8\n      gas\n      call\n      swap3\n      pop\n      pop\n      pop\n      dup1\n      iszero\n      tag_203\n      jumpi\n      pop\n      mload(0x40)\n      returndatasize\n      not(0x1f)\n      0x1f\n      dup3\n      add\n      and\n      dup3\n      add\n      dup1\n      0x40\n      mstore\n      pop\n      dup2\n      add\n      swap1\n      tag_204\n      swap2\n      swap1\n      tag_182\n      jump\t// in\n    tag_204:\n      0x01\n    tag_203:\n        /* \"contracts/ERC1155.sol\":11950:12429  try IERC1155Receiver(to).onERC1155Received(operator, from, id, amount, data) returns (bytes4 response) {... */\n      tag_205\n      jumpi\n      tag_209\n      tag_188\n      jump\t// in\n    tag_209:\n      dup1\n      0x08c379a0\n      sub\n      tag_208\n      jumpi\n      pop\n      tag_210\n      tag_190\n      jump\t// in\n    tag_210:\n      dup1\n      tag_211\n      jumpi\n      pop\n      jump(tag_207)\n    tag_211:\n        /* \"contracts/ERC1155.sol\":12302:12308  reason */\n      dup1\n        /* \"contracts/ERC1155.sol\":12295:12309  revert(reason) */\n      mload(0x40)\n      0x08c379a000000000000000000000000000000000000000000000000000000000\n      dup2\n      mstore\n      0x04\n      add\n      tag_212\n      swap2\n      swap1\n      tag_29\n      jump\t// in\n    tag_212:\n      mload(0x40)\n      dup1\n      swap2\n      sub\n      swap1\n      revert\n        /* \"contracts/ERC1155.sol\":11950:12429  try IERC1155Receiver(to).onERC1155Received(operator, from, id, amount, data) returns (bytes4 response) {... */\n    tag_208:\n      pop\n    tag_207:\n        /* \"contracts/ERC1155.sol\":12351:12413  revert(\"ERC1155: transfer to non-ERC1155Receiver implementer\") */\n      mload(0x40)\n      0x08c379a000000000000000000000000000000000000000000000000000000000\n      dup2\n      mstore\n      0x04\n      add\n      tag_213\n      swap1\n      tag_194\n      jump\t// in\n    tag_213:\n      mload(0x40)\n      dup1\n      swap2\n      sub\n      swap1\n      revert\n        /* \"contracts/ERC1155.sol\":11950:12429  try IERC1155Receiver(to).onERC1155Received(operator, from, id, amount, data) returns (bytes4 response) {... */\n    tag_205:\n        /* \"contracts/ERC1155.sol\":12088:12131  IERC1155Receiver.onERC1155Received.selector */\n      shl(0xe0, 0xf23a6e61)\n        /* \"contracts/ERC1155.sol\":12076:12131  response != IERC1155Receiver.onERC1155Received.selector */\n      not(0xffffffffffffffffffffffffffffffffffffffffffffffffffffffff)\n      and\n        /* \"contracts/ERC1155.sol\":12076:12084  response */\n      dup2\n        /* \"contracts/ERC1155.sol\":12076:12131  response != IERC1155Receiver.onERC1155Received.selector */\n      not(0xffffffffffffffffffffffffffffffffffffffffffffffffffffffff)\n      and\n      eq\n        /* \"contracts/ERC1155.sol\":12072:12226  if (response != IERC1155Receiver.onERC1155Received.selector) {... */\n      tag_215\n      jumpi\n        /* \"contracts/ERC1155.sol\":12156:12206  revert(\"ERC1155: ERC1155Receiver rejected tokens\") */\n      mload(0x40)\n      0x08c379a000000000000000000000000000000000000000000000000000000000\n      dup2\n      mstore\n      0x04\n      add\n      tag_216\n      swap1\n      tag_198\n      jump\t// in\n    tag_216:\n      mload(0x40)\n      dup1\n      swap2\n      sub\n      swap1\n      revert\n        /* \"contracts/ERC1155.sol\":12072:12226  if (response != IERC1155Receiver.onERC1155Received.selector) {... */\n    tag_215:\n        /* \"contracts/ERC1155.sol\":12027:12241  returns (bytes4 response) {... */\n      pop\n        /* \"contracts/ERC1155.sol\":11911:12440  if (to.code.length > 0) {... */\n    tag_200:\n        /* \"contracts/ERC1155.sol\":11700:12447  function _doSafeTransferAcceptanceCheck(... */\n      pop\n      pop\n      pop\n      pop\n      pop\n      pop\n      jump\t// out\n        /* \"#utility.yul\":7:82   */\n    tag_217:\n        /* \"#utility.yul\":40:46   */\n      0x00\n        /* \"#utility.yul\":73:75   */\n      0x40\n        /* \"#utility.yul\":67:76   */\n      mload\n        /* \"#utility.yul\":57:76   */\n      swap1\n      pop\n        /* \"#utility.yul\":7:82   */\n      swap1\n      jump\t// out\n        /* \"#utility.yul\":88:205   */\n    tag_218:\n        /* \"#utility.yul\":197:198   */\n      0x00\n        /* \"#utility.yul\":194:195   */\n      0x00\n        /* \"#utility.yul\":187:199   */\n      revert\n        /* \"#utility.yul\":211:328   */\n    tag_219:\n        /* \"#utility.yul\":320:321   */\n      0x00\n        /* \"#utility.yul\":317:318   */\n      0x00\n        /* \"#utility.yul\":310:322   */\n      revert\n        /* \"#utility.yul\":334:460   */\n    tag_220:\n        /* \"#utility.yul\":371:378   */\n      0x00\n        /* \"#utility.yul\":411:453   */\n      0xffffffffffffffffffffffffffffffffffffffff\n        /* \"#utility.yul\":404:409   */\n      dup3\n        /* \"#utility.yul\":400:454   */\n      and\n        /* \"#utility.yul\":389:454   */\n      swap1\n      pop\n        /* \"#utility.yul\":334:460   */\n      swap2\n      swap1\n      pop\n      jump\t// out\n        /* \"#utility.yul\":466:562   */\n    tag_221:\n        /* \"#utility.yul\":503:510   */\n      0x00\n        /* \"#utility.yul\":532:556   */\n      tag_297\n        /* \"#utility.yul\":550:555   */\n      dup3\n        /* \"#utility.yul\":532:556   */\n      tag_220\n      jump\t// in\n    tag_297:\n        /* \"#utility.yul\":521:556   */\n      swap1\n      pop\n        /* \"#utility.yul\":466:562   */\n      swap2\n      swap1\n      pop\n      jump\t// out\n        /* \"#utility.yul\":568:690   */\n    tag_222:\n        /* \"#utility.yul\":641:665   */\n      tag_299\n        /* \"#utility.yul\":659:664   */\n      dup2\n        /* \"#utility.yul\":641:665   */\n      tag_221\n      jump\t// in\n    tag_299:\n        /* \"#utility.yul\":634:639   */\n      dup2\n        /* \"#utility.yul\":631:666   */\n      eq\n        /* \"#utility.yul\":621:684   */\n      tag_300\n      jumpi\n        /* \"#utility.yul\":680:681   */\n      0x00\n        /* \"#utility.yul\":677:678   */\n      0x00\n        /* \"#utility.yul\":670:682   */\n      revert\n        /* \"#utility.yul\":621:684   */\n    tag_300:\n        /* \"#utility.yul\":568:690   */\n      pop\n      jump\t// out\n        /* \"#utility.yul\":696:835   */\n    tag_223:\n        /* \"#utility.yul\":742:747   */\n      0x00\n        /* \"#utility.yul\":780:786   */\n      dup2\n        /* \"#utility.yul\":767:787   */\n      calldataload\n        /* \"#utility.yul\":758:787   */\n      swap1\n      pop\n        /* \"#utility.yul\":796:829   */\n      tag_302\n        /* \"#utility.yul\":823:828   */\n      dup2\n        /* \"#utility.yul\":796:829   */\n      tag_222\n      jump\t// in\n    tag_302:\n        /* \"#utility.yul\":696:835   */\n      swap3\n      swap2\n      pop\n      pop\n      jump\t// out\n        /* \"#utility.yul\":841:918   */\n    tag_224:\n        /* \"#utility.yul\":878:885   */\n      0x00\n        /* \"#utility.yul\":907:912   */\n      dup2\n        /* \"#utility.yul\":896:912   */\n      swap1\n      pop\n        /* \"#utility.yul\":841:918   */\n      swap2\n      swap1\n      pop\n      jump\t// out\n        /* \"#utility.yul\":924:1046   */\n    tag_225:\n        /* \"#utility.yul\":997:1021   */\n      tag_305\n        /* \"#utility.yul\":1015:1020   */\n      dup2\n        /* \"#utility.yul\":997:1021   */\n      tag_224\n      jump\t// in\n    tag_305:\n        /* \"#utility.yul\":990:995   */\n      dup2\n        /* \"#utility.yul\":987:1022   */\n      eq\n        /* \"#utility.yul\":977:1040   */\n      tag_306\n      jumpi\n        /* \"#utility.yul\":1036:1037   */\n      0x00\n        /* \"#utility.yul\":1033:1034   */\n      0x00\n        /* \"#utility.yul\":1026:1038   */\n      revert\n        /* \"#utility.yul\":977:1040   */\n    tag_306:\n        /* \"#utility.yul\":924:1046   */\n      pop\n      jump\t// out\n        /* \"#utility.yul\":1052:1191   */\n    tag_226:\n        /* \"#utility.yul\":1098:1103   */\n      0x00\n        /* \"#utility.yul\":1136:1142   */\n      dup2\n        /* \"#utility.yul\":1123:1143   */\n      calldataload\n        /* \"#utility.yul\":1114:1143   */\n      swap1\n      pop\n        /* \"#utility.yul\":1152:1185   */\n      tag_308\n        /* \"#utility.yul\":1179:1184   */\n      dup2\n        /* \"#utility.yul\":1152:1185   */\n      tag_225\n      jump\t// in\n    tag_308:\n        /* \"#utility.yul\":1052:1191   */\n      swap3\n      swap2\n      pop\n      pop\n      jump\t// out\n        /* \"#utility.yul\":1197:1671   */\n    tag_16:\n        /* \"#utility.yul\":1265:1271   */\n      0x00\n        /* \"#utility.yul\":1273:1279   */\n      0x00\n        /* \"#utility.yul\":1322:1324   */\n      0x40\n        /* \"#utility.yul\":1310:1319   */\n      dup4\n        /* \"#utility.yul\":1301:1308   */\n      dup6\n        /* \"#utility.yul\":1297:1320   */\n      sub\n        /* \"#utility.yul\":1293:1325   */\n      slt\n        /* \"#utility.yul\":1290:1409   */\n      iszero\n      tag_310\n      jumpi\n        /* \"#utility.yul\":1328:1407   */\n      tag_311\n      tag_218\n      jump\t// in\n    tag_311:\n        /* \"#utility.yul\":1290:1409   */\n    tag_310:\n        /* \"#utility.yul\":1448:1449   */\n      0x00\n        /* \"#utility.yul\":1473:1526   */\n      tag_312\n        /* \"#utility.yul\":1518:1525   */\n      dup6\n        /* \"#utility.yul\":1509:1515   */\n      dup3\n        /* \"#utility.yul\":1498:1507   */\n      dup7\n        /* \"#utility.yul\":1494:1516   */\n      add\n        /* \"#utility.yul\":1473:1526   */\n      tag_223\n      jump\t// in\n    tag_312:\n        /* \"#utility.yul\":1463:1526   */\n      swap3\n      pop\n        /* \"#utility.yul\":1419:1536   */\n      pop\n        /* \"#utility.yul\":1575:1577   */\n      0x20\n        /* \"#utility.yul\":1601:1654   */\n      tag_313\n        /* \"#utility.yul\":1646:1653   */\n      dup6\n        /* \"#utility.yul\":1637:1643   */\n      dup3\n        /* \"#utility.yul\":1626:1635   */\n      dup7\n        /* \"#utility.yul\":1622:1644   */\n      add\n        /* \"#utility.yul\":1601:1654   */\n      tag_226\n      jump\t// in\n    tag_313:\n        /* \"#utility.yul\":1591:1654   */\n      swap2\n      pop\n        /* \"#utility.yul\":1546:1664   */\n      pop\n        /* \"#utility.yul\":1197:1671   */\n      swap3\n      pop\n      swap3\n      swap1\n      pop\n      jump\t// out\n        /* \"#utility.yul\":1677:1795   */\n    tag_227:\n        /* \"#utility.yul\":1764:1788   */\n      tag_315\n        /* \"#utility.yul\":1782:1787   */\n      dup2\n        /* \"#utility.yul\":1764:1788   */\n      tag_224\n      jump\t// in\n    tag_315:\n        /* \"#utility.yul\":1759:1762   */\n      dup3\n        /* \"#utility.yul\":1752:1789   */\n      mstore\n        /* \"#utility.yul\":1677:1795   */\n      pop\n      pop\n      jump\t// out\n        /* \"#utility.yul\":1801:2023   */\n    tag_19:\n        /* \"#utility.yul\":1894:1898   */\n      0x00\n        /* \"#utility.yul\":1932:1934   */\n      0x20\n        /* \"#utility.yul\":1921:1930   */\n      dup3\n        /* \"#utility.yul\":1917:1935   */\n      add\n        /* \"#utility.yul\":1909:1935   */\n      swap1\n      pop\n        /* \"#utility.yul\":1945:2016   */\n      tag_317\n        /* \"#utility.yul\":2013:2014   */\n      0x00\n        /* \"#utility.yul\":2002:2011   */\n      dup4\n        /* \"#utility.yul\":1998:2015   */\n      add\n        /* \"#utility.yul\":1989:1995   */\n      dup5\n        /* \"#utility.yul\":1945:2016   */\n      tag_227\n      jump\t// in\n    tag_317:\n        /* \"#utility.yul\":1801:2023   */\n      swap3\n      swap2\n      pop\n      pop\n      jump\t// out\n        /* \"#utility.yul\":2029:2178   */\n    tag_228:\n        /* \"#utility.yul\":2065:2072   */\n      0x00\n        /* \"#utility.yul\":2105:2171   */\n      0xffffffff00000000000000000000000000000000000000000000000000000000\n        /* \"#utility.yul\":2098:2103   */\n      dup3\n        /* \"#utility.yul\":2094:2172   */\n      and\n        /* \"#utility.yul\":2083:2172   */\n      swap1\n      pop\n        /* \"#utility.yul\":2029:2178   */\n      swap2\n      swap1\n      pop\n      jump\t// out\n        /* \"#utility.yul\":2184:2304   */\n    tag_229:\n        /* \"#utility.yul\":2256:2279   */\n      tag_320\n        /* \"#utility.yul\":2273:2278   */\n      dup2\n        /* \"#utility.yul\":2256:2279   */\n      tag_228\n      jump\t// in\n    tag_320:\n        /* \"#utility.yul\":2249:2254   */\n      dup2\n        /* \"#utility.yul\":2246:2280   */\n      eq\n        /* \"#utility.yul\":2236:2298   */\n      tag_321\n      jumpi\n        /* \"#utility.yul\":2294:2295   */\n      0x00\n        /* \"#utility.yul\":2291:2292   */\n      0x00\n        /* \"#utility.yul\":2284:2296   */\n      revert\n        /* \"#utility.yul\":2236:2298   */\n    tag_321:\n        /* \"#utility.yul\":2184:2304   */\n      pop\n      jump\t// out\n        /* \"#utility.yul\":2310:2447   */\n    tag_230:\n        /* \"#utility.yul\":2355:2360   */\n      0x00\n        /* \"#utility.yul\":2393:2399   */\n      dup2\n        /* \"#utility.yul\":2380:2400   */\n      calldataload\n        /* \"#utility.yul\":2371:2400   */\n      swap1\n      pop\n        /* \"#utility.yul\":2409:2441   */\n      tag_323\n        /* \"#utility.yul\":2435:2440   */\n      dup2\n        /* \"#utility.yul\":2409:2441   */\n      tag_229\n      jump\t// in\n    tag_323:\n        /* \"#utility.yul\":2310:2447   */\n      swap3\n      swap2\n      pop\n      pop\n      jump\t// out\n        /* \"#utility.yul\":2453:2780   */\n    tag_22:\n        /* \"#utility.yul\":2511:2517   */\n      0x00\n        /* \"#utility.yul\":2560:2562   */\n      0x20\n        /* \"#utility.yul\":2548:2557   */\n      dup3\n        /* \"#utility.yul\":2539:2546   */\n      dup5\n        /* \"#utility.yul\":2535:2558   */\n      sub\n        /* \"#utility.yul\":2531:2563   */\n      slt\n        /* \"#utility.yul\":2528:2647   */\n      iszero\n      tag_325\n      jumpi\n        /* \"#utility.yul\":2566:2645   */\n      tag_326\n      tag_218\n      jump\t// in\n    tag_326:\n        /* \"#utility.yul\":2528:2647   */\n    tag_325:\n        /* \"#utility.yul\":2686:2687   */\n      0x00\n        /* \"#utility.yul\":2711:2763   */\n      tag_327\n        /* \"#utility.yul\":2755:2762   */\n      dup5\n        /* \"#utility.yul\":2746:2752   */\n      dup3\n        /* \"#utility.yul\":2735:2744   */\n      dup6\n        /* \"#utility.yul\":2731:2753   */\n      add\n        /* \"#utility.yul\":2711:2763   */\n      tag_230\n      jump\t// in\n    tag_327:\n        /* \"#utility.yul\":2701:2763   */\n      swap2\n      pop\n        /* \"#utility.yul\":2657:2773   */\n      pop\n        /* \"#utility.yul\":2453:2780   */\n      swap3\n      swap2\n      pop\n      pop\n      jump\t// out\n        /* \"#utility.yul\":2786:2876   */\n    tag_231:\n        /* \"#utility.yul\":2820:2827   */\n      0x00\n        /* \"#utility.yul\":2863:2868   */\n      dup2\n        /* \"#utility.yul\":2856:2869   */\n      iszero\n        /* \"#utility.yul\":2849:2870   */\n      iszero\n        /* \"#utility.yul\":2838:2870   */\n      swap1\n      pop\n        /* \"#utility.yul\":2786:2876   */\n      swap2\n      swap1\n      pop\n      jump\t// out\n        /* \"#utility.yul\":2882:2991   */\n    tag_232:\n        /* \"#utility.yul\":2963:2984   */\n      tag_330\n        /* \"#utility.yul\":2978:2983   */\n      dup2\n        /* \"#utility.yul\":2963:2984   */\n      tag_231\n      jump\t// in\n    tag_330:\n        /* \"#utility.yul\":2958:2961   */\n      dup3\n        /* \"#utility.yul\":2951:2985   */\n      mstore\n        /* \"#utility.yul\":2882:2991   */\n      pop\n      pop\n      jump\t// out\n        /* \"#utility.yul\":2997:3207   */\n    tag_25:\n        /* \"#utility.yul\":3084:3088   */\n      0x00\n        /* \"#utility.yul\":3122:3124   */\n      0x20\n        /* \"#utility.yul\":3111:3120   */\n      dup3\n        /* \"#utility.yul\":3107:3125   */\n      add\n        /* \"#utility.yul\":3099:3125   */\n      swap1\n      pop\n        /* \"#utility.yul\":3135:3200   */\n      tag_332\n        /* \"#utility.yul\":3197:3198   */\n      0x00\n        /* \"#utility.yul\":3186:3195   */\n      dup4\n        /* \"#utility.yul\":3182:3199   */\n      add\n        /* \"#utility.yul\":3173:3179   */\n      dup5\n        /* \"#utility.yul\":3135:3200   */\n      tag_232\n      jump\t// in\n    tag_332:\n        /* \"#utility.yul\":2997:3207   */\n      swap3\n      swap2\n      pop\n      pop\n      jump\t// out\n        /* \"#utility.yul\":3213:3312   */\n    tag_233:\n        /* \"#utility.yul\":3265:3271   */\n      0x00\n        /* \"#utility.yul\":3299:3304   */\n      dup2\n        /* \"#utility.yul\":3293:3305   */\n      mload\n        /* \"#utility.yul\":3283:3305   */\n      swap1\n      pop\n        /* \"#utility.yul\":3213:3312   */\n      swap2\n      swap1\n      pop\n      jump\t// out\n        /* \"#utility.yul\":3318:3487   */\n    tag_234:\n        /* \"#utility.yul\":3402:3413   */\n      0x00\n        /* \"#utility.yul\":3436:3442   */\n      dup3\n        /* \"#utility.yul\":3431:3434   */\n      dup3\n        /* \"#utility.yul\":3424:3443   */\n      mstore\n        /* \"#utility.yul\":3476:3480   */\n      0x20\n        /* \"#utility.yul\":3471:3474   */\n      dup3\n        /* \"#utility.yul\":3467:3481   */\n      add\n        /* \"#utility.yul\":3452:3481   */\n      swap1\n      pop\n        /* \"#utility.yul\":3318:3487   */\n      swap3\n      swap2\n      pop\n      pop\n      jump\t// out\n        /* \"#utility.yul\":3493:3632   */\n    tag_235:\n        /* \"#utility.yul\":3582:3588   */\n      dup3\n        /* \"#utility.yul\":3577:3580   */\n      dup2\n        /* \"#utility.yul\":3572:3575   */\n      dup4\n        /* \"#utility.yul\":3566:3589   */\n      mcopy\n        /* \"#utility.yul\":3623:3624   */\n      0x00\n        /* \"#utility.yul\":3614:3620   */\n      dup4\n        /* \"#utility.yul\":3609:3612   */\n      dup4\n        /* \"#utility.yul\":3605:3621   */\n      add\n        /* \"#utility.yul\":3598:3625   */\n      mstore\n        /* \"#utility.yul\":3493:3632   */\n      pop\n      pop\n      pop\n      jump\t// out\n        /* \"#utility.yul\":3638:3740   */\n    tag_236:\n        /* \"#utility.yul\":3679:3685   */\n      0x00\n        /* \"#utility.yul\":3730:3732   */\n      0x1f\n        /* \"#utility.yul\":3726:3733   */\n      not\n        /* \"#utility.yul\":3721:3723   */\n      0x1f\n        /* \"#utility.yul\":3714:3719   */\n      dup4\n        /* \"#utility.yul\":3710:3724   */\n      add\n        /* \"#utility.yul\":3706:3734   */\n      and\n        /* \"#utility.yul\":3696:3734   */\n      swap1\n      pop\n        /* \"#utility.yul\":3638:3740   */\n      swap2\n      swap1\n      pop\n      jump\t// out\n        /* \"#utility.yul\":3746:4123   */\n    tag_237:\n        /* \"#utility.yul\":3834:3837   */\n      0x00\n        /* \"#utility.yul\":3862:3901   */\n      tag_338\n        /* \"#utility.yul\":3895:3900   */\n      dup3\n        /* \"#utility.yul\":3862:3901   */\n      tag_233\n      jump\t// in\n    tag_338:\n        /* \"#utility.yul\":3917:3988   */\n      tag_339\n        /* \"#utility.yul\":3981:3987   */\n      dup2\n        /* \"#utility.yul\":3976:3979   */\n      dup6\n        /* \"#utility.yul\":3917:3988   */\n      tag_234\n      jump\t// in\n    tag_339:\n        /* \"#utility.yul\":3910:3988   */\n      swap4\n      pop\n        /* \"#utility.yul\":3997:4062   */\n      tag_340\n        /* \"#utility.yul\":4055:4061   */\n      dup2\n        /* \"#utility.yul\":4050:4053   */\n      dup6\n        /* \"#utility.yul\":4043:4047   */\n      0x20\n        /* \"#utility.yul\":4036:4041   */\n      dup7\n        /* \"#utility.yul\":4032:4048   */\n      add\n        /* \"#utility.yul\":3997:4062   */\n      tag_235\n      jump\t// in\n    tag_340:\n        /* \"#utility.yul\":4087:4116   */\n      tag_341\n        /* \"#utility.yul\":4109:4115   */\n      dup2\n        /* \"#utility.yul\":4087:4116   */\n      tag_236\n      jump\t// in\n    tag_341:\n        /* \"#utility.yul\":4082:4085   */\n      dup5\n        /* \"#utility.yul\":4078:4117   */\n      add\n        /* \"#utility.yul\":4071:4117   */\n      swap2\n      pop\n        /* \"#utility.yul\":3838:4123   */\n      pop\n        /* \"#utility.yul\":3746:4123   */\n      swap3\n      swap2\n      pop\n      pop\n      jump\t// out\n        /* \"#utility.yul\":4129:4442   */\n    tag_29:\n        /* \"#utility.yul\":4242:4246   */\n      0x00\n        /* \"#utility.yul\":4280:4282   */\n      0x20\n        /* \"#utility.yul\":4269:4278   */\n      dup3\n        /* \"#utility.yul\":4265:4283   */\n      add\n        /* \"#utility.yul\":4257:4283   */\n      swap1\n      pop\n        /* \"#utility.yul\":4329:4338   */\n      dup2\n        /* \"#utility.yul\":4323:4327   */\n      dup2\n        /* \"#utility.yul\":4319:4339   */\n      sub\n        /* \"#utility.yul\":4315:4316   */\n      0x00\n        /* \"#utility.yul\":4304:4313   */\n      dup4\n        /* \"#utility.yul\":4300:4317   */\n      add\n        /* \"#utility.yul\":4293:4340   */\n      mstore\n        /* \"#utility.yul\":4357:4435   */\n      tag_343\n        /* \"#utility.yul\":4430:4434   */\n      dup2\n        /* \"#utility.yul\":4421:4427   */\n      dup5\n        /* \"#utility.yul\":4357:4435   */\n      tag_237\n      jump\t// in\n    tag_343:\n        /* \"#utility.yul\":4349:4435   */\n      swap1\n      pop\n        /* \"#utility.yul\":4129:4442   */\n      swap3\n      swap2\n      pop\n      pop\n      jump\t// out\n        /* \"#utility.yul\":4448:4777   */\n    tag_32:\n        /* \"#utility.yul\":4507:4513   */\n      0x00\n        /* \"#utility.yul\":4556:4558   */\n      0x20\n        /* \"#utility.yul\":4544:4553   */\n      dup3\n        /* \"#utility.yul\":4535:4542   */\n      dup5\n        /* \"#utility.yul\":4531:4554   */\n      sub\n        /* \"#utility.yul\":4527:4559   */\n      slt\n        /* \"#utility.yul\":4524:4643   */\n      iszero\n      tag_345\n      jumpi\n        /* \"#utility.yul\":4562:4641   */\n      tag_346\n      tag_218\n      jump\t// in\n    tag_346:\n        /* \"#utility.yul\":4524:4643   */\n    tag_345:\n        /* \"#utility.yul\":4682:4683   */\n      0x00\n        /* \"#utility.yul\":4707:4760   */\n      tag_347\n        /* \"#utility.yul\":4752:4759   */\n      dup5\n        /* \"#utility.yul\":4743:4749   */\n      dup3\n        /* \"#utility.yul\":4732:4741   */\n      dup6\n        /* \"#utility.yul\":4728:4750   */\n      add\n        /* \"#utility.yul\":4707:4760   */\n      tag_226\n      jump\t// in\n    tag_347:\n        /* \"#utility.yul\":4697:4760   */\n      swap2\n      pop\n        /* \"#utility.yul\":4653:4770   */\n      pop\n        /* \"#utility.yul\":4448:4777   */\n      swap3\n      swap2\n      pop\n      pop\n      jump\t// out\n        /* \"#utility.yul\":4783:4900   */\n    tag_238:\n        /* \"#utility.yul\":4892:4893   */\n      0x00\n        /* \"#utility.yul\":4889:4890   */\n      0x00\n        /* \"#utility.yul\":4882:4894   */\n      revert\n        /* \"#utility.yul\":4906:5086   */\n    tag_116:\n        /* \"#utility.yul\":4954:5031   */\n      0x4e487b7100000000000000000000000000000000000000000000000000000000\n        /* \"#utility.yul\":4951:4952   */\n      0x00\n        /* \"#utility.yul\":4944:5032   */\n      mstore\n        /* \"#utility.yul\":5051:5055   */\n      0x41\n        /* \"#utility.yul\":5048:5049   */\n      0x04\n        /* \"#utility.yul\":5041:5056   */\n      mstore\n        /* \"#utility.yul\":5075:5079   */\n      0x24\n        /* \"#utility.yul\":5072:5073   */\n      0x00\n        /* \"#utility.yul\":5065:5080   */\n      revert\n        /* \"#utility.yul\":5092:5373   */\n    tag_239:\n        /* \"#utility.yul\":5175:5202   */\n      tag_351\n        /* \"#utility.yul\":5197:5201   */\n      dup3\n        /* \"#utility.yul\":5175:5202   */\n      tag_236\n      jump\t// in\n    tag_351:\n        /* \"#utility.yul\":5167:5173   */\n      dup2\n        /* \"#utility.yul\":5163:5203   */\n      add\n        /* \"#utility.yul\":5305:5311   */\n      dup2\n        /* \"#utility.yul\":5293:5303   */\n      dup2\n        /* \"#utility.yul\":5290:5312   */\n      lt\n        /* \"#utility.yul\":5269:5287   */\n      0xffffffffffffffff\n        /* \"#utility.yul\":5257:5267   */\n      dup3\n        /* \"#utility.yul\":5254:5288   */\n      gt\n        /* \"#utility.yul\":5251:5313   */\n      or\n        /* \"#utility.yul\":5248:5336   */\n      iszero\n      tag_352\n      jumpi\n        /* \"#utility.yul\":5316:5334   */\n      tag_353\n      tag_116\n      jump\t// in\n    tag_353:\n        /* \"#utility.yul\":5248:5336   */\n    tag_352:\n        /* \"#utility.yul\":5356:5366   */\n      dup1\n        /* \"#utility.yul\":5352:5354   */\n      0x40\n        /* \"#utility.yul\":5345:5367   */\n      mstore\n        /* \"#utility.yul\":5135:5373   */\n      pop\n        /* \"#utility.yul\":5092:5373   */\n      pop\n      pop\n      jump\t// out\n        /* \"#utility.yul\":5379:5508   */\n    tag_240:\n        /* \"#utility.yul\":5413:5419   */\n      0x00\n        /* \"#utility.yul\":5440:5460   */\n      tag_355\n      tag_217\n      jump\t// in\n    tag_355:\n        /* \"#utility.yul\":5430:5460   */\n      swap1\n      pop\n        /* \"#utility.yul\":5469:5502   */\n      tag_356\n        /* \"#utility.yul\":5497:5501   */\n      dup3\n        /* \"#utility.yul\":5489:5495   */\n      dup3\n        /* \"#utility.yul\":5469:5502   */\n      tag_239\n      jump\t// in\n    tag_356:\n        /* \"#utility.yul\":5379:5508   */\n      swap2\n      swap1\n      pop\n      jump\t// out\n        /* \"#utility.yul\":5514:5825   */\n    tag_241:\n        /* \"#utility.yul\":5591:5595   */\n      0x00\n        /* \"#utility.yul\":5681:5699   */\n      0xffffffffffffffff\n        /* \"#utility.yul\":5673:5679   */\n      dup3\n        /* \"#utility.yul\":5670:5700   */\n      gt\n        /* \"#utility.yul\":5667:5723   */\n      iszero\n      tag_358\n      jumpi\n        /* \"#utility.yul\":5703:5721   */\n      tag_359\n      tag_116\n      jump\t// in\n    tag_359:\n        /* \"#utility.yul\":5667:5723   */\n    tag_358:\n        /* \"#utility.yul\":5753:5757   */\n      0x20\n        /* \"#utility.yul\":5745:5751   */\n      dup3\n        /* \"#utility.yul\":5741:5758   */\n      mul\n        /* \"#utility.yul\":5733:5758   */\n      swap1\n      pop\n        /* \"#utility.yul\":5813:5817   */\n      0x20\n        /* \"#utility.yul\":5807:5811   */\n      dup2\n        /* \"#utility.yul\":5803:5818   */\n      add\n        /* \"#utility.yul\":5795:5818   */\n      swap1\n      pop\n        /* \"#utility.yul\":5514:5825   */\n      swap2\n      swap1\n      pop\n      jump\t// out\n        /* \"#utility.yul\":5831:5948   */\n    tag_242:\n        /* \"#utility.yul\":5940:5941   */\n      0x00\n        /* \"#utility.yul\":5937:5938   */\n      0x00\n        /* \"#utility.yul\":5930:5942   */\n      revert\n        /* \"#utility.yul\":5971:6681   */\n    tag_243:\n        /* \"#utility.yul\":6067:6072   */\n      0x00\n        /* \"#utility.yul\":6092:6173   */\n      tag_362\n        /* \"#utility.yul\":6108:6172   */\n      tag_363\n        /* \"#utility.yul\":6165:6171   */\n      dup5\n        /* \"#utility.yul\":6108:6172   */\n      tag_241\n      jump\t// in\n    tag_363:\n        /* \"#utility.yul\":6092:6173   */\n      tag_240\n      jump\t// in\n    tag_362:\n        /* \"#utility.yul\":6083:6173   */\n      swap1\n      pop\n        /* \"#utility.yul\":6193:6198   */\n      dup1\n        /* \"#utility.yul\":6222:6228   */\n      dup4\n        /* \"#utility.yul\":6215:6220   */\n      dup3\n        /* \"#utility.yul\":6208:6229   */\n      mstore\n        /* \"#utility.yul\":6256:6260   */\n      0x20\n        /* \"#utility.yul\":6249:6254   */\n      dup3\n        /* \"#utility.yul\":6245:6261   */\n      add\n        /* \"#utility.yul\":6238:6261   */\n      swap1\n      pop\n        /* \"#utility.yul\":6309:6313   */\n      0x20\n        /* \"#utility.yul\":6301:6307   */\n      dup5\n        /* \"#utility.yul\":6297:6314   */\n      mul\n        /* \"#utility.yul\":6289:6295   */\n      dup4\n        /* \"#utility.yul\":6285:6315   */\n      add\n        /* \"#utility.yul\":6338:6341   */\n      dup6\n        /* \"#utility.yul\":6330:6336   */\n      dup2\n        /* \"#utility.yul\":6327:6342   */\n      gt\n        /* \"#utility.yul\":6324:6446   */\n      iszero\n      tag_364\n      jumpi\n        /* \"#utility.yul\":6357:6436   */\n      tag_365\n      tag_242\n      jump\t// in\n    tag_365:\n        /* \"#utility.yul\":6324:6446   */\n    tag_364:\n        /* \"#utility.yul\":6472:6478   */\n      dup4\n        /* \"#utility.yul\":6455:6675   */\n    tag_366:\n        /* \"#utility.yul\":6489:6495   */\n      dup2\n        /* \"#utility.yul\":6484:6487   */\n      dup2\n        /* \"#utility.yul\":6481:6496   */\n      lt\n        /* \"#utility.yul\":6455:6675   */\n      iszero\n      tag_368\n      jumpi\n        /* \"#utility.yul\":6564:6567   */\n      dup1\n        /* \"#utility.yul\":6593:6630   */\n      tag_369\n        /* \"#utility.yul\":6626:6629   */\n      dup9\n        /* \"#utility.yul\":6614:6624   */\n      dup3\n        /* \"#utility.yul\":6593:6630   */\n      tag_226\n      jump\t// in\n    tag_369:\n        /* \"#utility.yul\":6588:6591   */\n      dup5\n        /* \"#utility.yul\":6581:6631   */\n      mstore\n        /* \"#utility.yul\":6660:6664   */\n      0x20\n        /* \"#utility.yul\":6655:6658   */\n      dup5\n        /* \"#utility.yul\":6651:6665   */\n      add\n        /* \"#utility.yul\":6644:6665   */\n      swap4\n      pop\n        /* \"#utility.yul\":6531:6675   */\n      pop\n        /* \"#utility.yul\":6515:6519   */\n      0x20\n        /* \"#utility.yul\":6510:6513   */\n      dup2\n        /* \"#utility.yul\":6506:6520   */\n      add\n        /* \"#utility.yul\":6499:6520   */\n      swap1\n      pop\n        /* \"#utility.yul\":6455:6675   */\n      jump(tag_366)\n    tag_368:\n        /* \"#utility.yul\":6459:6480   */\n      pop\n        /* \"#utility.yul\":6073:6681   */\n      pop\n      pop\n        /* \"#utility.yul\":5971:6681   */\n      swap4\n      swap3\n      pop\n      pop\n      pop\n      jump\t// out\n        /* \"#utility.yul\":6704:7074   */\n    tag_244:\n        /* \"#utility.yul\":6775:6780   */\n      0x00\n        /* \"#utility.yul\":6824:6827   */\n      dup3\n        /* \"#utility.yul\":6817:6821   */\n      0x1f\n        /* \"#utility.yul\":6809:6815   */\n      dup4\n        /* \"#utility.yul\":6805:6822   */\n      add\n        /* \"#utility.yul\":6801:6828   */\n      slt\n        /* \"#utility.yul\":6791:6913   */\n      tag_371\n      jumpi\n        /* \"#utility.yul\":6832:6911   */\n      tag_372\n      tag_238\n      jump\t// in\n    tag_372:\n        /* \"#utility.yul\":6791:6913   */\n    tag_371:\n        /* \"#utility.yul\":6949:6955   */\n      dup2\n        /* \"#utility.yul\":6936:6956   */\n      calldataload\n        /* \"#utility.yul\":6974:7068   */\n      tag_373\n        /* \"#utility.yul\":7064:7067   */\n      dup5\n        /* \"#utility.yul\":7056:7062   */\n      dup3\n        /* \"#utility.yul\":7049:7053   */\n      0x20\n        /* \"#utility.yul\":7041:7047   */\n      dup7\n        /* \"#utility.yul\":7037:7054   */\n      add\n        /* \"#utility.yul\":6974:7068   */\n      tag_243\n      jump\t// in\n    tag_373:\n        /* \"#utility.yul\":6965:7068   */\n      swap2\n      pop\n        /* \"#utility.yul\":6781:7074   */\n      pop\n        /* \"#utility.yul\":6704:7074   */\n      swap3\n      swap2\n      pop\n      pop\n      jump\t// out\n        /* \"#utility.yul\":7080:7197   */\n    tag_245:\n        /* \"#utility.yul\":7189:7190   */\n      0x00\n        /* \"#utility.yul\":7186:7187   */\n      0x00\n        /* \"#utility.yul\":7179:7191   */\n      revert\n        /* \"#utility.yul\":7203:7510   */\n    tag_246:\n        /* \"#utility.yul\":7264:7268   */\n      0x00\n        /* \"#utility.yul\":7354:7372   */\n      0xffffffffffffffff\n        /* \"#utility.yul\":7346:7352   */\n      dup3\n        /* \"#utility.yul\":7343:7373   */\n      gt\n        /* \"#utility.yul\":7340:7396   */\n      iszero\n      tag_376\n      jumpi\n        /* \"#utility.yul\":7376:7394   */\n      tag_377\n      tag_116\n      jump\t// in\n    tag_377:\n        /* \"#utility.yul\":7340:7396   */\n    tag_376:\n        /* \"#utility.yul\":7414:7443   */\n      tag_378\n        /* \"#utility.yul\":7436:7442   */\n      dup3\n        /* \"#utility.yul\":7414:7443   */\n      tag_236\n      jump\t// in\n    tag_378:\n        /* \"#utility.yul\":7406:7443   */\n      swap1\n      pop\n        /* \"#utility.yul\":7498:7502   */\n      0x20\n        /* \"#utility.yul\":7492:7496   */\n      dup2\n        /* \"#utility.yul\":7488:7503   */\n      add\n        /* \"#utility.yul\":7480:7503   */\n      swap1\n      pop\n        /* \"#utility.yul\":7203:7510   */\n      swap2\n      swap1\n      pop\n      jump\t// out\n        /* \"#utility.yul\":7516:7664   */\n    tag_247:\n        /* \"#utility.yul\":7614:7620   */\n      dup3\n        /* \"#utility.yul\":7609:7612   */\n      dup2\n        /* \"#utility.yul\":7604:7607   */\n      dup4\n        /* \"#utility.yul\":7591:7621   */\n      calldatacopy\n        /* \"#utility.yul\":7655:7656   */\n      0x00\n        /* \"#utility.yul\":7646:7652   */\n      dup4\n        /* \"#utility.yul\":7641:7644   */\n      dup4\n        /* \"#utility.yul\":7637:7653   */\n      add\n        /* \"#utility.yul\":7630:7657   */\n      mstore\n        /* \"#utility.yul\":7516:7664   */\n      pop\n      pop\n      pop\n      jump\t// out\n        /* \"#utility.yul\":7670:8093   */\n    tag_248:\n        /* \"#utility.yul\":7747:7752   */\n      0x00\n        /* \"#utility.yul\":7772:7837   */\n      tag_381\n        /* \"#utility.yul\":7788:7836   */\n      tag_382\n        /* \"#utility.yul\":7829:7835   */\n      dup5\n        /* \"#utility.yul\":7788:7836   */\n      tag_246\n      jump\t// in\n    tag_382:\n        /* \"#utility.yul\":7772:7837   */\n      tag_240\n      jump\t// in\n    tag_381:\n        /* \"#utility.yul\":7763:7837   */\n      swap1\n      pop\n        /* \"#utility.yul\":7860:7866   */\n      dup3\n        /* \"#utility.yul\":7853:7858   */\n      dup2\n        /* \"#utility.yul\":7846:7867   */\n      mstore\n        /* \"#utility.yul\":7898:7902   */\n      0x20\n        /* \"#utility.yul\":7891:7896   */\n      dup2\n        /* \"#utility.yul\":7887:7903   */\n      add\n        /* \"#utility.yul\":7936:7939   */\n      dup5\n        /* \"#utility.yul\":7927:7933   */\n      dup5\n        /* \"#utility.yul\":7922:7925   */\n      dup5\n        /* \"#utility.yul\":7918:7934   */\n      add\n        /* \"#utility.yul\":7915:7940   */\n      gt\n        /* \"#utility.yul\":7912:8024   */\n      iszero\n      tag_383\n      jumpi\n        /* \"#utility.yul\":7943:8022   */\n      tag_384\n      tag_245\n      jump\t// in\n    tag_384:\n        /* \"#utility.yul\":7912:8024   */\n    tag_383:\n        /* \"#utility.yul\":8033:8087   */\n      tag_385\n        /* \"#utility.yul\":8080:8086   */\n      dup5\n        /* \"#utility.yul\":8075:8078   */\n      dup3\n        /* \"#utility.yul\":8070:8073   */\n      dup6\n        /* \"#utility.yul\":8033:8087   */\n      tag_247\n      jump\t// in\n    tag_385:\n        /* \"#utility.yul\":7753:8093   */\n      pop\n        /* \"#utility.yul\":7670:8093   */\n      swap4\n      swap3\n      pop\n      pop\n      pop\n      jump\t// out\n        /* \"#utility.yul\":8112:8450   */\n    tag_249:\n        /* \"#utility.yul\":8167:8172   */\n      0x00\n        /* \"#utility.yul\":8216:8219   */\n      dup3\n        /* \"#utility.yul\":8209:8213   */\n      0x1f\n        /* \"#utility.yul\":8201:8207   */\n      dup4\n        /* \"#utility.yul\":8197:8214   */\n      add\n        /* \"#utility.yul\":8193:8220   */\n      slt\n        /* \"#utility.yul\":8183:8305   */\n      tag_387\n      jumpi\n        /* \"#utility.yul\":8224:8303   */\n      tag_388\n      tag_238\n      jump\t// in\n    tag_388:\n        /* \"#utility.yul\":8183:8305   */\n    tag_387:\n        /* \"#utility.yul\":8341:8347   */\n      dup2\n        /* \"#utility.yul\":8328:8348   */\n      calldataload\n        /* \"#utility.yul\":8366:8444   */\n      tag_389\n        /* \"#utility.yul\":8440:8443   */\n      dup5\n        /* \"#utility.yul\":8432:8438   */\n      dup3\n        /* \"#utility.yul\":8425:8429   */\n      0x20\n        /* \"#utility.yul\":8417:8423   */\n      dup7\n        /* \"#utility.yul\":8413:8430   */\n      add\n        /* \"#utility.yul\":8366:8444   */\n      tag_248\n      jump\t// in\n    tag_389:\n        /* \"#utility.yul\":8357:8444   */\n      swap2\n      pop\n        /* \"#utility.yul\":8173:8450   */\n      pop\n        /* \"#utility.yul\":8112:8450   */\n      swap3\n      swap2\n      pop\n      pop\n      jump\t// out\n        /* \"#utility.yul\":8456:9965   */\n    tag_37:\n        /* \"#utility.yul\":8610:8616   */\n      0x00\n        /* \"#utility.yul\":8618:8624   */\n      0x00\n        /* \"#utility.yul\":8626:8632   */\n      0x00\n        /* \"#utility.yul\":8634:8640   */\n      0x00\n        /* \"#utility.yul\":8642:8648   */\n      0x00\n        /* \"#utility.yul\":8691:8694   */\n      0xa0\n        /* \"#utility.yul\":8679:8688   */\n      dup7\n        /* \"#utility.yul\":8670:8677   */\n      dup9\n        /* \"#utility.yul\":8666:8689   */\n      sub\n        /* \"#utility.yul\":8662:8695   */\n      slt\n        /* \"#utility.yul\":8659:8779   */\n      iszero\n      tag_391\n      jumpi\n        /* \"#utility.yul\":8698:8777   */\n      tag_392\n      tag_218\n      jump\t// in\n    tag_392:\n        /* \"#utility.yul\":8659:8779   */\n    tag_391:\n        /* \"#utility.yul\":8818:8819   */\n      0x00\n        /* \"#utility.yul\":8843:8896   */\n      tag_393\n        /* \"#utility.yul\":8888:8895   */\n      dup9\n        /* \"#utility.yul\":8879:8885   */\n      dup3\n        /* \"#utility.yul\":8868:8877   */\n      dup10\n        /* \"#utility.yul\":8864:8886   */\n      add\n        /* \"#utility.yul\":8843:8896   */\n      tag_223\n      jump\t// in\n    tag_393:\n        /* \"#utility.yul\":8833:8896   */\n      swap6\n      pop\n        /* \"#utility.yul\":8789:8906   */\n      pop\n        /* \"#utility.yul\":8945:8947   */\n      0x20\n        /* \"#utility.yul\":8971:9024   */\n      tag_394\n        /* \"#utility.yul\":9016:9023   */\n      dup9\n        /* \"#utility.yul\":9007:9013   */\n      dup3\n        /* \"#utility.yul\":8996:9005   */\n      dup10\n        /* \"#utility.yul\":8992:9014   */\n      add\n        /* \"#utility.yul\":8971:9024   */\n      tag_223\n      jump\t// in\n    tag_394:\n        /* \"#utility.yul\":8961:9024   */\n      swap5\n      pop\n        /* \"#utility.yul\":8916:9034   */\n      pop\n        /* \"#utility.yul\":9101:9103   */\n      0x40\n        /* \"#utility.yul\":9090:9099   */\n      dup7\n        /* \"#utility.yul\":9086:9104   */\n      add\n        /* \"#utility.yul\":9073:9105   */\n      calldataload\n        /* \"#utility.yul\":9132:9150   */\n      0xffffffffffffffff\n        /* \"#utility.yul\":9124:9130   */\n      dup2\n        /* \"#utility.yul\":9121:9151   */\n      gt\n        /* \"#utility.yul\":9118:9235   */\n      iszero\n      tag_395\n      jumpi\n        /* \"#utility.yul\":9154:9233   */\n      tag_396\n      tag_219\n      jump\t// in\n    tag_396:\n        /* \"#utility.yul\":9118:9235   */\n    tag_395:\n        /* \"#utility.yul\":9259:9337   */\n      tag_397\n        /* \"#utility.yul\":9329:9336   */\n      dup9\n        /* \"#utility.yul\":9320:9326   */\n      dup3\n        /* \"#utility.yul\":9309:9318   */\n      dup10\n        /* \"#utility.yul\":9305:9327   */\n      add\n        /* \"#utility.yul\":9259:9337   */\n      tag_244\n      jump\t// in\n    tag_397:\n        /* \"#utility.yul\":9249:9337   */\n      swap4\n      pop\n        /* \"#utility.yul\":9044:9347   */\n      pop\n        /* \"#utility.yul\":9414:9416   */\n      0x60\n        /* \"#utility.yul\":9403:9412   */\n      dup7\n        /* \"#utility.yul\":9399:9417   */\n      add\n        /* \"#utility.yul\":9386:9418   */\n      calldataload\n        /* \"#utility.yul\":9445:9463   */\n      0xffffffffffffffff\n        /* \"#utility.yul\":9437:9443   */\n      dup2\n        /* \"#utility.yul\":9434:9464   */\n      gt\n        /* \"#utility.yul\":9431:9548   */\n      iszero\n      tag_398\n      jumpi\n        /* \"#utility.yul\":9467:9546   */\n      tag_399\n      tag_219\n      jump\t// in\n    tag_399:\n        /* \"#utility.yul\":9431:9548   */\n    tag_398:\n        /* \"#utility.yul\":9572:9650   */\n      tag_400\n        /* \"#utility.yul\":9642:9649   */\n      dup9\n        /* \"#utility.yul\":9633:9639   */\n      dup3\n        /* \"#utility.yul\":9622:9631   */\n      dup10\n        /* \"#utility.yul\":9618:9640   */\n      add\n        /* \"#utility.yul\":9572:9650   */\n      tag_244\n      jump\t// in\n    tag_400:\n        /* \"#utility.yul\":9562:9650   */\n      swap3\n      pop\n        /* \"#utility.yul\":9357:9660   */\n      pop\n        /* \"#utility.yul\":9727:9730   */\n      0x80\n        /* \"#utility.yul\":9716:9725   */\n      dup7\n        /* \"#utility.yul\":9712:9731   */\n      add\n        /* \"#utility.yul\":9699:9732   */\n      calldataload\n        /* \"#utility.yul\":9759:9777   */\n      0xffffffffffffffff\n        /* \"#utility.yul\":9751:9757   */\n      dup2\n        /* \"#utility.yul\":9748:9778   */\n      gt\n        /* \"#utility.yul\":9745:9862   */\n      iszero\n      tag_401\n      jumpi\n        /* \"#utility.yul\":9781:9860   */\n      tag_402\n      tag_219\n      jump\t// in\n    tag_402:\n        /* \"#utility.yul\":9745:9862   */\n    tag_401:\n        /* \"#utility.yul\":9886:9948   */\n      tag_403\n        /* \"#utility.yul\":9940:9947   */\n      dup9\n        /* \"#utility.yul\":9931:9937   */\n      dup3\n        /* \"#utility.yul\":9920:9929   */\n      dup10\n        /* \"#utility.yul\":9916:9938   */\n      add\n        /* \"#utility.yul\":9886:9948   */\n      tag_249\n      jump\t// in\n    tag_403:\n        /* \"#utility.yul\":9876:9948   */\n      swap2\n      pop\n        /* \"#utility.yul\":9670:9958   */\n      pop\n        /* \"#utility.yul\":8456:9965   */\n      swap3\n      swap6\n      pop\n      swap3\n      swap6\n      swap1\n      swap4\n      pop\n      jump\t// out\n        /* \"#utility.yul\":9971:10282   */\n    tag_250:\n        /* \"#utility.yul\":10048:10052   */\n      0x00\n        /* \"#utility.yul\":10138:10156   */\n      0xffffffffffffffff\n        /* \"#utility.yul\":10130:10136   */\n      dup3\n        /* \"#utility.yul\":10127:10157   */\n      gt\n        /* \"#utility.yul\":10124:10180   */\n      iszero\n      tag_405\n      jumpi\n        /* \"#utility.yul\":10160:10178   */\n      tag_406\n      tag_116\n      jump\t// in\n    tag_406:\n        /* \"#utility.yul\":10124:10180   */\n    tag_405:\n        /* \"#utility.yul\":10210:10214   */\n      0x20\n        /* \"#utility.yul\":10202:10208   */\n      dup3\n        /* \"#utility.yul\":10198:10215   */\n      mul\n        /* \"#utility.yul\":10190:10215   */\n      swap1\n      pop\n        /* \"#utility.yul\":10270:10274   */\n      0x20\n        /* \"#utility.yul\":10264:10268   */\n      dup2\n        /* \"#utility.yul\":10260:10275   */\n      add\n        /* \"#utility.yul\":10252:10275   */\n      swap1\n      pop\n        /* \"#utility.yul\":9971:10282   */\n      swap2\n      swap1\n      pop\n      jump\t// out\n        /* \"#utility.yul\":10305:11015   */\n    tag_251:\n        /* \"#utility.yul\":10401:10406   */\n      0x00\n        /* \"#utility.yul\":10426:10507   */\n      tag_408\n        /* \"#utility.yul\":10442:10506   */\n      tag_409\n        /* \"#utility.yul\":10499:10505   */\n      dup5\n        /* \"#utility.yul\":10442:10506   */\n      tag_250\n      jump\t// in\n    tag_409:\n        /* \"#utility.yul\":10426:10507   */\n      tag_240\n      jump\t// in\n    tag_408:\n        /* \"#utility.yul\":10417:10507   */\n      swap1\n      pop\n        /* \"#utility.yul\":10527:10532   */\n      dup1\n        /* \"#utility.yul\":10556:10562   */\n      dup4\n        /* \"#utility.yul\":10549:10554   */\n      dup3\n        /* \"#utility.yul\":10542:10563   */\n      mstore\n        /* \"#utility.yul\":10590:10594   */\n      0x20\n        /* \"#utility.yul\":10583:10588   */\n      dup3\n        /* \"#utility.yul\":10579:10595   */\n      add\n        /* \"#utility.yul\":10572:10595   */\n      swap1\n      pop\n        /* \"#utility.yul\":10643:10647   */\n      0x20\n        /* \"#utility.yul\":10635:10641   */\n      dup5\n        /* \"#utility.yul\":10631:10648   */\n      mul\n        /* \"#utility.yul\":10623:10629   */\n      dup4\n        /* \"#utility.yul\":10619:10649   */\n      add\n        /* \"#utility.yul\":10672:10675   */\n      dup6\n        /* \"#utility.yul\":10664:10670   */\n      dup2\n        /* \"#utility.yul\":10661:10676   */\n      gt\n        /* \"#utility.yul\":10658:10780   */\n      iszero\n      tag_410\n      jumpi\n        /* \"#utility.yul\":10691:10770   */\n      tag_411\n      tag_242\n      jump\t// in\n    tag_411:\n        /* \"#utility.yul\":10658:10780   */\n    tag_410:\n        /* \"#utility.yul\":10806:10812   */\n      dup4\n        /* \"#utility.yul\":10789:11009   */\n    tag_412:\n        /* \"#utility.yul\":10823:10829   */\n      dup2\n        /* \"#utility.yul\":10818:10821   */\n      dup2\n        /* \"#utility.yul\":10815:10830   */\n      lt\n        /* \"#utility.yul\":10789:11009   */\n      iszero\n      tag_414\n      jumpi\n        /* \"#utility.yul\":10898:10901   */\n      dup1\n        /* \"#utility.yul\":10927:10964   */\n      tag_415\n        /* \"#utility.yul\":10960:10963   */\n      dup9\n        /* \"#utility.yul\":10948:10958   */\n      dup3\n        /* \"#utility.yul\":10927:10964   */\n      tag_223\n      jump\t// in\n    tag_415:\n        /* \"#utility.yul\":10922:10925   */\n      dup5\n        /* \"#utility.yul\":10915:10965   */\n      mstore\n        /* \"#utility.yul\":10994:10998   */\n      0x20\n        /* \"#utility.yul\":10989:10992   */\n      dup5\n        /* \"#utility.yul\":10985:10999   */\n      add\n        /* \"#utility.yul\":10978:10999   */\n      swap4\n      pop\n        /* \"#utility.yul\":10865:11009   */\n      pop\n        /* \"#utility.yul\":10849:10853   */\n      0x20\n        /* \"#utility.yul\":10844:10847   */\n      dup2\n        /* \"#utility.yul\":10840:10854   */\n      add\n        /* \"#utility.yul\":10833:10854   */\n      swap1\n      pop\n        /* \"#utility.yul\":10789:11009   */\n      jump(tag_412)\n    tag_414:\n        /* \"#utility.yul\":10793:10814   */\n      pop\n        /* \"#utility.yul\":10407:11015   */\n      pop\n      pop\n        /* \"#utility.yul\":10305:11015   */\n      swap4\n      swap3\n      pop\n      pop\n      pop\n      jump\t// out\n        /* \"#utility.yul\":11038:11408   */\n    tag_252:\n        /* \"#utility.yul\":11109:11114   */\n      0x00\n        /* \"#utility.yul\":11158:11161   */\n      dup3\n        /* \"#utility.yul\":11151:11155   */\n      0x1f\n        /* \"#utility.yul\":11143:11149   */\n      dup4\n        /* \"#utility.yul\":11139:11156   */\n      add\n        /* \"#utility.yul\":11135:11162   */\n      slt\n        /* \"#utility.yul\":11125:11247   */\n      tag_417\n      jumpi\n        /* \"#utility.yul\":11166:11245   */\n      tag_418\n      tag_238\n      jump\t// in\n    tag_418:\n        /* \"#utility.yul\":11125:11247   */\n    tag_417:\n        /* \"#utility.yul\":11283:11289   */\n      dup2\n        /* \"#utility.yul\":11270:11290   */\n      calldataload\n        /* \"#utility.yul\":11308:11402   */\n      tag_419\n        /* \"#utility.yul\":11398:11401   */\n      dup5\n        /* \"#utility.yul\":11390:11396   */\n      dup3\n        /* \"#utility.yul\":11383:11387   */\n      0x20\n        /* \"#utility.yul\":11375:11381   */\n      dup7\n        /* \"#utility.yul\":11371:11388   */\n      add\n        /* \"#utility.yul\":11308:11402   */\n      tag_251\n      jump\t// in\n    tag_419:\n        /* \"#utility.yul\":11299:11402   */\n      swap2\n      pop\n        /* \"#utility.yul\":11115:11408   */\n      pop\n        /* \"#utility.yul\":11038:11408   */\n      swap3\n      swap2\n      pop\n      pop\n      jump\t// out\n        /* \"#utility.yul\":11414:12308   */\n    tag_41:\n        /* \"#utility.yul\":11532:11538   */\n      0x00\n        /* \"#utility.yul\":11540:11546   */\n      0x00\n        /* \"#utility.yul\":11589:11591   */\n      0x40\n        /* \"#utility.yul\":11577:11586   */\n      dup4\n        /* \"#utility.yul\":11568:11575   */\n      dup6\n        /* \"#utility.yul\":11564:11587   */\n      sub\n        /* \"#utility.yul\":11560:11592   */\n      slt\n        /* \"#utility.yul\":11557:11676   */\n      iszero\n      tag_421\n      jumpi\n        /* \"#utility.yul\":11595:11674   */\n      tag_422\n      tag_218\n      jump\t// in\n    tag_422:\n        /* \"#utility.yul\":11557:11676   */\n    tag_421:\n        /* \"#utility.yul\":11743:11744   */\n      0x00\n        /* \"#utility.yul\":11732:11741   */\n      dup4\n        /* \"#utility.yul\":11728:11745   */\n      add\n        /* \"#utility.yul\":11715:11746   */\n      calldataload\n        /* \"#utility.yul\":11773:11791   */\n      0xffffffffffffffff\n        /* \"#utility.yul\":11765:11771   */\n      dup2\n        /* \"#utility.yul\":11762:11792   */\n      gt\n        /* \"#utility.yul\":11759:11876   */\n      iszero\n      tag_423\n      jumpi\n        /* \"#utility.yul\":11795:11874   */\n      tag_424\n      tag_219\n      jump\t// in\n    tag_424:\n        /* \"#utility.yul\":11759:11876   */\n    tag_423:\n        /* \"#utility.yul\":11900:11978   */\n      tag_425\n        /* \"#utility.yul\":11970:11977   */\n      dup6\n        /* \"#utility.yul\":11961:11967   */\n      dup3\n        /* \"#utility.yul\":11950:11959   */\n      dup7\n        /* \"#utility.yul\":11946:11968   */\n      add\n        /* \"#utility.yul\":11900:11978   */\n      tag_252\n      jump\t// in\n    tag_425:\n        /* \"#utility.yul\":11890:11978   */\n      swap3\n      pop\n        /* \"#utility.yul\":11686:11988   */\n      pop\n        /* \"#utility.yul\":12055:12057   */\n      0x20\n        /* \"#utility.yul\":12044:12053   */\n      dup4\n        /* \"#utility.yul\":12040:12058   */\n      add\n        /* \"#utility.yul\":12027:12059   */\n      calldataload\n        /* \"#utility.yul\":12086:12104   */\n      0xffffffffffffffff\n        /* \"#utility.yul\":12078:12084   */\n      dup2\n        /* \"#utility.yul\":12075:12105   */\n      gt\n        /* \"#utility.yul\":12072:12189   */\n      iszero\n      tag_426\n      jumpi\n        /* \"#utility.yul\":12108:12187   */\n      tag_427\n      tag_219\n      jump\t// in\n    tag_427:\n        /* \"#utility.yul\":12072:12189   */\n    tag_426:\n        /* \"#utility.yul\":12213:12291   */\n      tag_428\n        /* \"#utility.yul\":12283:12290   */\n      dup6\n        /* \"#utility.yul\":12274:12280   */\n      dup3\n        /* \"#utility.yul\":12263:12272   */\n      dup7\n        /* \"#utility.yul\":12259:12281   */\n      add\n        /* \"#utility.yul\":12213:12291   */\n      tag_244\n      jump\t// in\n    tag_428:\n        /* \"#utility.yul\":12203:12291   */\n      swap2\n      pop\n        /* \"#utility.yul\":11998:12301   */\n      pop\n        /* \"#utility.yul\":11414:12308   */\n      swap3\n      pop\n      swap3\n      swap1\n      pop\n      jump\t// out\n        /* \"#utility.yul\":12314:12428   */\n    tag_253:\n        /* \"#utility.yul\":12381:12387   */\n      0x00\n        /* \"#utility.yul\":12415:12420   */\n      dup2\n        /* \"#utility.yul\":12409:12421   */\n      mload\n        /* \"#utility.yul\":12399:12421   */\n      swap1\n      pop\n        /* \"#utility.yul\":12314:12428   */\n      swap2\n      swap1\n      pop\n      jump\t// out\n        /* \"#utility.yul\":12434:12618   */\n    tag_254:\n        /* \"#utility.yul\":12533:12544   */\n      0x00\n        /* \"#utility.yul\":12567:12573   */\n      dup3\n        /* \"#utility.yul\":12562:12565   */\n      dup3\n        /* \"#utility.yul\":12555:12574   */\n      mstore\n        /* \"#utility.yul\":12607:12611   */\n      0x20\n        /* \"#utility.yul\":12602:12605   */\n      dup3\n        /* \"#utility.yul\":12598:12612   */\n      add\n        /* \"#utility.yul\":12583:12612   */\n      swap1\n      pop\n        /* \"#utility.yul\":12434:12618   */\n      swap3\n      swap2\n      pop\n      pop\n      jump\t// out\n        /* \"#utility.yul\":12624:12756   */\n    tag_255:\n        /* \"#utility.yul\":12691:12695   */\n      0x00\n        /* \"#utility.yul\":12714:12717   */\n      dup2\n        /* \"#utility.yul\":12706:12717   */\n      swap1\n      pop\n        /* \"#utility.yul\":12744:12748   */\n      0x20\n        /* \"#utility.yul\":12739:12742   */\n      dup3\n        /* \"#utility.yul\":12735:12749   */\n      add\n        /* \"#utility.yul\":12727:12749   */\n      swap1\n      pop\n        /* \"#utility.yul\":12624:12756   */\n      swap2\n      swap1\n      pop\n      jump\t// out\n        /* \"#utility.yul\":12762:12870   */\n    tag_256:\n        /* \"#utility.yul\":12839:12863   */\n      tag_433\n        /* \"#utility.yul\":12857:12862   */\n      dup2\n        /* \"#utility.yul\":12839:12863   */\n      tag_224\n      jump\t// in\n    tag_433:\n        /* \"#utility.yul\":12834:12837   */\n      dup3\n        /* \"#utility.yul\":12827:12864   */\n      mstore\n        /* \"#utility.yul\":12762:12870   */\n      pop\n      pop\n      jump\t// out\n        /* \"#utility.yul\":12876:13055   */\n    tag_257:\n        /* \"#utility.yul\":12945:12955   */\n      0x00\n        /* \"#utility.yul\":12966:13012   */\n      tag_435\n        /* \"#utility.yul\":13008:13011   */\n      dup4\n        /* \"#utility.yul\":13000:13006   */\n      dup4\n        /* \"#utility.yul\":12966:13012   */\n      tag_256\n      jump\t// in\n    tag_435:\n        /* \"#utility.yul\":13044:13048   */\n      0x20\n        /* \"#utility.yul\":13039:13042   */\n      dup4\n        /* \"#utility.yul\":13035:13049   */\n      add\n        /* \"#utility.yul\":13021:13049   */\n      swap1\n      pop\n        /* \"#utility.yul\":12876:13055   */\n      swap3\n      swap2\n      pop\n      pop\n      jump\t// out\n        /* \"#utility.yul\":13061:13174   */\n    tag_258:\n        /* \"#utility.yul\":13131:13135   */\n      0x00\n        /* \"#utility.yul\":13163:13167   */\n      0x20\n        /* \"#utility.yul\":13158:13161   */\n      dup3\n        /* \"#utility.yul\":13154:13168   */\n      add\n        /* \"#utility.yul\":13146:13168   */\n      swap1\n      pop\n        /* \"#utility.yul\":13061:13174   */\n      swap2\n      swap1\n      pop\n      jump\t// out\n        /* \"#utility.yul\":13210:13942   */\n    tag_259:\n        /* \"#utility.yul\":13329:13332   */\n      0x00\n        /* \"#utility.yul\":13358:13412   */\n      tag_438\n        /* \"#utility.yul\":13406:13411   */\n      dup3\n        /* \"#utility.yul\":13358:13412   */\n      tag_253\n      jump\t// in\n    tag_438:\n        /* \"#utility.yul\":13428:13514   */\n      tag_439\n        /* \"#utility.yul\":13507:13513   */\n      dup2\n        /* \"#utility.yul\":13502:13505   */\n      dup6\n        /* \"#utility.yul\":13428:13514   */\n      tag_254\n      jump\t// in\n    tag_439:\n        /* \"#utility.yul\":13421:13514   */\n      swap4\n      pop\n        /* \"#utility.yul\":13538:13594   */\n      tag_440\n        /* \"#utility.yul\":13588:13593   */\n      dup4\n        /* \"#utility.yul\":13538:13594   */\n      tag_255\n      jump\t// in\n    tag_440:\n        /* \"#utility.yul\":13617:13624   */\n      dup1\n        /* \"#utility.yul\":13648:13649   */\n      0x00\n        /* \"#utility.yul\":13633:13917   */\n    tag_441:\n        /* \"#utility.yul\":13658:13664   */\n      dup4\n        /* \"#utility.yul\":13655:13656   */\n      dup2\n        /* \"#utility.yul\":13652:13665   */\n      lt\n        /* \"#utility.yul\":13633:13917   */\n      iszero\n      tag_443\n      jumpi\n        /* \"#utility.yul\":13734:13740   */\n      dup2\n        /* \"#utility.yul\":13728:13741   */\n      mload\n        /* \"#utility.yul\":13761:13824   */\n      tag_444\n        /* \"#utility.yul\":13820:13823   */\n      dup9\n        /* \"#utility.yul\":13805:13818   */\n      dup3\n        /* \"#utility.yul\":13761:13824   */\n      tag_257\n      jump\t// in\n    tag_444:\n        /* \"#utility.yul\":13754:13824   */\n      swap8\n      pop\n        /* \"#utility.yul\":13847:13907   */\n      tag_445\n        /* \"#utility.yul\":13900:13906   */\n      dup4\n        /* \"#utility.yul\":13847:13907   */\n      tag_258\n      jump\t// in\n    tag_445:\n        /* \"#utility.yul\":13837:13907   */\n      swap3\n      pop\n        /* \"#utility.yul\":13693:13917   */\n      pop\n        /* \"#utility.yul\":13680:13681   */\n      0x01\n        /* \"#utility.yul\":13677:13678   */\n      dup2\n        /* \"#utility.yul\":13673:13682   */\n      add\n        /* \"#utility.yul\":13668:13682   */\n      swap1\n      pop\n        /* \"#utility.yul\":13633:13917   */\n      jump(tag_441)\n    tag_443:\n        /* \"#utility.yul\":13637:13651   */\n      pop\n        /* \"#utility.yul\":13933:13936   */\n      dup6\n        /* \"#utility.yul\":13926:13936   */\n      swap4\n      pop\n        /* \"#utility.yul\":13334:13942   */\n      pop\n      pop\n      pop\n        /* \"#utility.yul\":13210:13942   */\n      swap3\n      swap2\n      pop\n      pop\n      jump\t// out\n        /* \"#utility.yul\":13948:14321   */\n    tag_44:\n        /* \"#utility.yul\":14091:14095   */\n      0x00\n        /* \"#utility.yul\":14129:14131   */\n      0x20\n        /* \"#utility.yul\":14118:14127   */\n      dup3\n        /* \"#utility.yul\":14114:14132   */\n      add\n        /* \"#utility.yul\":14106:14132   */\n      swap1\n      pop\n        /* \"#utility.yul\":14178:14187   */\n      dup2\n        /* \"#utility.yul\":14172:14176   */\n      dup2\n        /* \"#utility.yul\":14168:14188   */\n      sub\n        /* \"#utility.yul\":14164:14165   */\n      0x00\n        /* \"#utility.yul\":14153:14162   */\n      dup4\n        /* \"#utility.yul\":14149:14166   */\n      add\n        /* \"#utility.yul\":14142:14189   */\n      mstore\n        /* \"#utility.yul\":14206:14314   */\n      tag_447\n        /* \"#utility.yul\":14309:14313   */\n      dup2\n        /* \"#utility.yul\":14300:14306   */\n      dup5\n        /* \"#utility.yul\":14206:14314   */\n      tag_259\n      jump\t// in\n    tag_447:\n        /* \"#utility.yul\":14198:14314   */\n      swap1\n      pop\n        /* \"#utility.yul\":13948:14321   */\n      swap3\n      swap2\n      pop\n      pop\n      jump\t// out\n        /* \"#utility.yul\":14327:14443   */\n    tag_260:\n        /* \"#utility.yul\":14397:14418   */\n      tag_449\n        /* \"#utility.yul\":14412:14417   */\n      dup2\n        /* \"#utility.yul\":14397:14418   */\n      tag_231\n      jump\t// in\n    tag_449:\n        /* \"#utility.yul\":14390:14395   */\n      dup2\n        /* \"#utility.yul\":14387:14419   */\n      eq\n        /* \"#utility.yul\":14377:14437   */\n      tag_450\n      jumpi\n        /* \"#utility.yul\":14433:14434   */\n      0x00\n        /* \"#utility.yul\":14430:14431   */\n      0x00\n        /* \"#utility.yul\":14423:14435   */\n      revert\n        /* \"#utility.yul\":14377:14437   */\n    tag_450:\n        /* \"#utility.yul\":14327:14443   */\n      pop\n      jump\t// out\n        /* \"#utility.yul\":14449:14582   */\n    tag_261:\n        /* \"#utility.yul\":14492:14497   */\n      0x00\n        /* \"#utility.yul\":14530:14536   */\n      dup2\n        /* \"#utility.yul\":14517:14537   */\n      calldataload\n        /* \"#utility.yul\":14508:14537   */\n      swap1\n      pop\n        /* \"#utility.yul\":14546:14576   */\n      tag_452\n        /* \"#utility.yul\":14570:14575   */\n      dup2\n        /* \"#utility.yul\":14546:14576   */\n      tag_260\n      jump\t// in\n    tag_452:\n        /* \"#utility.yul\":14449:14582   */\n      swap3\n      swap2\n      pop\n      pop\n      jump\t// out\n        /* \"#utility.yul\":14588:15056   */\n    tag_50:\n        /* \"#utility.yul\":14653:14659   */\n      0x00\n        /* \"#utility.yul\":14661:14667   */\n      0x00\n        /* \"#utility.yul\":14710:14712   */\n      0x40\n        /* \"#utility.yul\":14698:14707   */\n      dup4\n        /* \"#utility.yul\":14689:14696   */\n      dup6\n        /* \"#utility.yul\":14685:14708   */\n      sub\n        /* \"#utility.yul\":14681:14713   */\n      slt\n        /* \"#utility.yul\":14678:14797   */\n      iszero\n      tag_454\n      jumpi\n        /* \"#utility.yul\":14716:14795   */\n      tag_455\n      tag_218\n      jump\t// in\n    tag_455:\n        /* \"#utility.yul\":14678:14797   */\n    tag_454:\n        /* \"#utility.yul\":14836:14837   */\n      0x00\n        /* \"#utility.yul\":14861:14914   */\n      tag_456\n        /* \"#utility.yul\":14906:14913   */\n      dup6\n        /* \"#utility.yul\":14897:14903   */\n      dup3\n        /* \"#utility.yul\":14886:14895   */\n      dup7\n        /* \"#utility.yul\":14882:14904   */\n      add\n        /* \"#utility.yul\":14861:14914   */\n      tag_223\n      jump\t// in\n    tag_456:\n        /* \"#utility.yul\":14851:14914   */\n      swap3\n      pop\n        /* \"#utility.yul\":14807:14924   */\n      pop\n        /* \"#utility.yul\":14963:14965   */\n      0x20\n        /* \"#utility.yul\":14989:15039   */\n      tag_457\n        /* \"#utility.yul\":15031:15038   */\n      dup6\n        /* \"#utility.yul\":15022:15028   */\n      dup3\n        /* \"#utility.yul\":15011:15020   */\n      dup7\n        /* \"#utility.yul\":15007:15029   */\n      add\n        /* \"#utility.yul\":14989:15039   */\n      tag_261\n      jump\t// in\n    tag_457:\n        /* \"#utility.yul\":14979:15039   */\n      swap2\n      pop\n        /* \"#utility.yul\":14934:15049   */\n      pop\n        /* \"#utility.yul\":14588:15056   */\n      swap3\n      pop\n      swap3\n      swap1\n      pop\n      jump\t// out\n        /* \"#utility.yul\":15062:15536   */\n    tag_54:\n        /* \"#utility.yul\":15130:15136   */\n      0x00\n        /* \"#utility.yul\":15138:15144   */\n      0x00\n        /* \"#utility.yul\":15187:15189   */\n      0x40\n        /* \"#utility.yul\":15175:15184   */\n      dup4\n        /* \"#utility.yul\":15166:15173   */\n      dup6\n        /* \"#utility.yul\":15162:15185   */\n      sub\n        /* \"#utility.yul\":15158:15190   */\n      slt\n        /* \"#utility.yul\":15155:15274   */\n      iszero\n      tag_459\n      jumpi\n        /* \"#utility.yul\":15193:15272   */\n      tag_460\n      tag_218\n      jump\t// in\n    tag_460:\n        /* \"#utility.yul\":15155:15274   */\n    tag_459:\n        /* \"#utility.yul\":15313:15314   */\n      0x00\n        /* \"#utility.yul\":15338:15391   */\n      tag_461\n        /* \"#utility.yul\":15383:15390   */\n      dup6\n        /* \"#utility.yul\":15374:15380   */\n      dup3\n        /* \"#utility.yul\":15363:15372   */\n      dup7\n        /* \"#utility.yul\":15359:15381   */\n      add\n        /* \"#utility.yul\":15338:15391   */\n      tag_223\n      jump\t// in\n    tag_461:\n        /* \"#utility.yul\":15328:15391   */\n      swap3\n      pop\n        /* \"#utility.yul\":15284:15401   */\n      pop\n        /* \"#utility.yul\":15440:15442   */\n      0x20\n        /* \"#utility.yul\":15466:15519   */\n      tag_462\n        /* \"#utility.yul\":15511:15518   */\n      dup6\n        /* \"#utility.yul\":15502:15508   */\n      dup3\n        /* \"#utility.yul\":15491:15500   */\n      dup7\n        /* \"#utility.yul\":15487:15509   */\n      add\n        /* \"#utility.yul\":15466:15519   */\n      tag_223\n      jump\t// in\n    tag_462:\n        /* \"#utility.yul\":15456:15519   */\n      swap2\n      pop\n        /* \"#utility.yul\":15411:15529   */\n      pop\n        /* \"#utility.yul\":15062:15536   */\n      swap3\n      pop\n      swap3\n      swap1\n      pop\n      jump\t// out\n        /* \"#utility.yul\":15542:16631   */\n    tag_59:\n        /* \"#utility.yul\":15646:15652   */\n      0x00\n        /* \"#utility.yul\":15654:15660   */\n      0x00\n        /* \"#utility.yul\":15662:15668   */\n      0x00\n        /* \"#utility.yul\":15670:15676   */\n      0x00\n        /* \"#utility.yul\":15678:15684   */\n      0x00\n        /* \"#utility.yul\":15727:15730   */\n      0xa0\n        /* \"#utility.yul\":15715:15724   */\n      dup7\n        /* \"#utility.yul\":15706:15713   */\n      dup9\n        /* \"#utility.yul\":15702:15725   */\n      sub\n        /* \"#utility.yul\":15698:15731   */\n      slt\n        /* \"#utility.yul\":15695:15815   */\n      iszero\n      tag_464\n      jumpi\n        /* \"#utility.yul\":15734:15813   */\n      tag_465\n      tag_218\n      jump\t// in\n    tag_465:\n        /* \"#utility.yul\":15695:15815   */\n    tag_464:\n        /* \"#utility.yul\":15854:15855   */\n      0x00\n        /* \"#utility.yul\":15879:15932   */\n      tag_466\n        /* \"#utility.yul\":15924:15931   */\n      dup9\n        /* \"#utility.yul\":15915:15921   */\n      dup3\n        /* \"#utility.yul\":15904:15913   */\n      dup10\n        /* \"#utility.yul\":15900:15922   */\n      add\n        /* \"#utility.yul\":15879:15932   */\n      tag_223\n      jump\t// in\n    tag_466:\n        /* \"#utility.yul\":15869:15932   */\n      swap6\n      pop\n        /* \"#utility.yul\":15825:15942   */\n      pop\n        /* \"#utility.yul\":15981:15983   */\n      0x20\n        /* \"#utility.yul\":16007:16060   */\n      tag_467\n        /* \"#utility.yul\":16052:16059   */\n      dup9\n        /* \"#utility.yul\":16043:16049   */\n      dup3\n        /* \"#utility.yul\":16032:16041   */\n      dup10\n        /* \"#utility.yul\":16028:16050   */\n      add\n        /* \"#utility.yul\":16007:16060   */\n      tag_223\n      jump\t// in\n    tag_467:\n        /* \"#utility.yul\":15997:16060   */\n      swap5\n      pop\n        /* \"#utility.yul\":15952:16070   */\n      pop\n        /* \"#utility.yul\":16109:16111   */\n      0x40\n        /* \"#utility.yul\":16135:16188   */\n      tag_468\n        /* \"#utility.yul\":16180:16187   */\n      dup9\n        /* \"#utility.yul\":16171:16177   */\n      dup3\n        /* \"#utility.yul\":16160:16169   */\n      dup10\n        /* \"#utility.yul\":16156:16178   */\n      add\n        /* \"#utility.yul\":16135:16188   */\n      tag_226\n      jump\t// in\n    tag_468:\n        /* \"#utility.yul\":16125:16188   */\n      swap4\n      pop\n        /* \"#utility.yul\":16080:16198   */\n      pop\n        /* \"#utility.yul\":16237:16239   */\n      0x60\n        /* \"#utility.yul\":16263:16316   */\n      tag_469\n        /* \"#utility.yul\":16308:16315   */\n      dup9\n        /* \"#utility.yul\":16299:16305   */\n      dup3\n        /* \"#utility.yul\":16288:16297   */\n      dup10\n        /* \"#utility.yul\":16284:16306   */\n      add\n        /* \"#utility.yul\":16263:16316   */\n      tag_226\n      jump\t// in\n    tag_469:\n        /* \"#utility.yul\":16253:16316   */\n      swap3\n      pop\n        /* \"#utility.yul\":16208:16326   */\n      pop\n        /* \"#utility.yul\":16393:16396   */\n      0x80\n        /* \"#utility.yul\":16382:16391   */\n      dup7\n        /* \"#utility.yul\":16378:16397   */\n      add\n        /* \"#utility.yul\":16365:16398   */\n      calldataload\n        /* \"#utility.yul\":16425:16443   */\n      0xffffffffffffffff\n        /* \"#utility.yul\":16417:16423   */\n      dup2\n        /* \"#utility.yul\":16414:16444   */\n      gt\n        /* \"#utility.yul\":16411:16528   */\n      iszero\n      tag_470\n      jumpi\n        /* \"#utility.yul\":16447:16526   */\n      tag_471\n      tag_219\n      jump\t// in\n    tag_471:\n        /* \"#utility.yul\":16411:16528   */\n    tag_470:\n        /* \"#utility.yul\":16552:16614   */\n      tag_472\n        /* \"#utility.yul\":16606:16613   */\n      dup9\n        /* \"#utility.yul\":16597:16603   */\n      dup3\n        /* \"#utility.yul\":16586:16595   */\n      dup10\n        /* \"#utility.yul\":16582:16604   */\n      add\n        /* \"#utility.yul\":16552:16614   */\n      tag_249\n      jump\t// in\n    tag_472:\n        /* \"#utility.yul\":16542:16614   */\n      swap2\n      pop\n        /* \"#utility.yul\":16336:16624   */\n      pop\n        /* \"#utility.yul\":15542:16631   */\n      swap3\n      swap6\n      pop\n      swap3\n      swap6\n      swap1\n      swap4\n      pop\n      jump\t// out\n        /* \"#utility.yul\":16637:16865   */\n    tag_262:\n        /* \"#utility.yul\":16777:16811   */\n      0x455243313135353a61646472657373207a65726f206973206e6f742061207661\n        /* \"#utility.yul\":16773:16774   */\n      0x00\n        /* \"#utility.yul\":16765:16771   */\n      dup3\n        /* \"#utility.yul\":16761:16775   */\n      add\n        /* \"#utility.yul\":16754:16812   */\n      mstore\n        /* \"#utility.yul\":16846:16857   */\n      0x6c6964206f776e65720000000000000000000000000000000000000000000000\n        /* \"#utility.yul\":16841:16843   */\n      0x20\n        /* \"#utility.yul\":16833:16839   */\n      dup3\n        /* \"#utility.yul\":16829:16844   */\n      add\n        /* \"#utility.yul\":16822:16858   */\n      mstore\n        /* \"#utility.yul\":16637:16865   */\n      pop\n      jump\t// out\n        /* \"#utility.yul\":16871:17237   */\n    tag_263:\n        /* \"#utility.yul\":17013:17016   */\n      0x00\n        /* \"#utility.yul\":17034:17101   */\n      tag_475\n        /* \"#utility.yul\":17098:17100   */\n      0x29\n        /* \"#utility.yul\":17093:17096   */\n      dup4\n        /* \"#utility.yul\":17034:17101   */\n      tag_234\n      jump\t// in\n    tag_475:\n        /* \"#utility.yul\":17027:17101   */\n      swap2\n      pop\n        /* \"#utility.yul\":17110:17203   */\n      tag_476\n        /* \"#utility.yul\":17199:17202   */\n      dup3\n        /* \"#utility.yul\":17110:17203   */\n      tag_262\n      jump\t// in\n    tag_476:\n        /* \"#utility.yul\":17228:17230   */\n      0x40\n        /* \"#utility.yul\":17223:17226   */\n      dup3\n        /* \"#utility.yul\":17219:17231   */\n      add\n        /* \"#utility.yul\":17212:17231   */\n      swap1\n      pop\n        /* \"#utility.yul\":16871:17237   */\n      swap2\n      swap1\n      pop\n      jump\t// out\n        /* \"#utility.yul\":17243:17662   */\n    tag_64:\n        /* \"#utility.yul\":17409:17413   */\n      0x00\n        /* \"#utility.yul\":17447:17449   */\n      0x20\n        /* \"#utility.yul\":17436:17445   */\n      dup3\n        /* \"#utility.yul\":17432:17450   */\n      add\n        /* \"#utility.yul\":17424:17450   */\n      swap1\n      pop\n        /* \"#utility.yul\":17496:17505   */\n      dup2\n        /* \"#utility.yul\":17490:17494   */\n      dup2\n        /* \"#utility.yul\":17486:17506   */\n      sub\n        /* \"#utility.yul\":17482:17483   */\n      0x00\n        /* \"#utility.yul\":17471:17480   */\n      dup4\n        /* \"#utility.yul\":17467:17484   */\n      add\n        /* \"#utility.yul\":17460:17507   */\n      mstore\n        /* \"#utility.yul\":17524:17655   */\n      tag_478\n        /* \"#utility.yul\":17650:17654   */\n      dup2\n        /* \"#utility.yul\":17524:17655   */\n      tag_263\n      jump\t// in\n    tag_478:\n        /* \"#utility.yul\":17516:17655   */\n      swap1\n      pop\n        /* \"#utility.yul\":17243:17662   */\n      swap2\n      swap1\n      pop\n      jump\t// out\n        /* \"#utility.yul\":17668:17848   */\n    tag_264:\n        /* \"#utility.yul\":17716:17793   */\n      0x4e487b7100000000000000000000000000000000000000000000000000000000\n        /* \"#utility.yul\":17713:17714   */\n      0x00\n        /* \"#utility.yul\":17706:17794   */\n      mstore\n        /* \"#utility.yul\":17813:17817   */\n      0x22\n        /* \"#utility.yul\":17810:17811   */\n      0x04\n        /* \"#utility.yul\":17803:17818   */\n      mstore\n        /* \"#utility.yul\":17837:17841   */\n      0x24\n        /* \"#utility.yul\":17834:17835   */\n      0x00\n        /* \"#utility.yul\":17827:17842   */\n      revert\n        /* \"#utility.yul\":17854:18174   */\n    tag_69:\n        /* \"#utility.yul\":17898:17904   */\n      0x00\n        /* \"#utility.yul\":17935:17936   */\n      0x02\n        /* \"#utility.yul\":17929:17933   */\n      dup3\n        /* \"#utility.yul\":17925:17937   */\n      div\n        /* \"#utility.yul\":17915:17937   */\n      swap1\n      pop\n        /* \"#utility.yul\":17982:17983   */\n      0x01\n        /* \"#utility.yul\":17976:17980   */\n      dup3\n        /* \"#utility.yul\":17972:17984   */\n      and\n        /* \"#utility.yul\":18003:18021   */\n      dup1\n        /* \"#utility.yul\":17993:18074   */\n      tag_481\n      jumpi\n        /* \"#utility.yul\":18059:18063   */\n      0x7f\n        /* \"#utility.yul\":18051:18057   */\n      dup3\n        /* \"#utility.yul\":18047:18064   */\n      and\n        /* \"#utility.yul\":18037:18064   */\n      swap2\n      pop\n        /* \"#utility.yul\":17993:18074   */\n    tag_481:\n        /* \"#utility.yul\":18121:18123   */\n      0x20\n        /* \"#utility.yul\":18113:18119   */\n      dup3\n        /* \"#utility.yul\":18110:18124   */\n      lt\n        /* \"#utility.yul\":18090:18108   */\n      dup2\n        /* \"#utility.yul\":18087:18125   */\n      sub\n        /* \"#utility.yul\":18084:18168   */\n      tag_482\n      jumpi\n        /* \"#utility.yul\":18140:18158   */\n      tag_483\n      tag_264\n      jump\t// in\n    tag_483:\n        /* \"#utility.yul\":18084:18168   */\n    tag_482:\n        /* \"#utility.yul\":17905:18174   */\n      pop\n        /* \"#utility.yul\":17854:18174   */\n      swap2\n      swap1\n      pop\n      jump\t// out\n        /* \"#utility.yul\":18180:18328   */\n    tag_265:\n        /* \"#utility.yul\":18282:18293   */\n      0x00\n        /* \"#utility.yul\":18319:18322   */\n      dup2\n        /* \"#utility.yul\":18304:18322   */\n      swap1\n      pop\n        /* \"#utility.yul\":18180:18328   */\n      swap3\n      swap2\n      pop\n      pop\n      jump\t// out\n        /* \"#utility.yul\":18334:18724   */\n    tag_266:\n        /* \"#utility.yul\":18440:18443   */\n      0x00\n        /* \"#utility.yul\":18468:18507   */\n      tag_486\n        /* \"#utility.yul\":18501:18506   */\n      dup3\n        /* \"#utility.yul\":18468:18507   */\n      tag_233\n      jump\t// in\n    tag_486:\n        /* \"#utility.yul\":18523:18612   */\n      tag_487\n        /* \"#utility.yul\":18605:18611   */\n      dup2\n        /* \"#utility.yul\":18600:18603   */\n      dup6\n        /* \"#utility.yul\":18523:18612   */\n      tag_265\n      jump\t// in\n    tag_487:\n        /* \"#utility.yul\":18516:18612   */\n      swap4\n      pop\n        /* \"#utility.yul\":18621:18686   */\n      tag_488\n        /* \"#utility.yul\":18679:18685   */\n      dup2\n        /* \"#utility.yul\":18674:18677   */\n      dup6\n        /* \"#utility.yul\":18667:18671   */\n      0x20\n        /* \"#utility.yul\":18660:18665   */\n      dup7\n        /* \"#utility.yul\":18656:18672   */\n      add\n        /* \"#utility.yul\":18621:18686   */\n      tag_235\n      jump\t// in\n    tag_488:\n        /* \"#utility.yul\":18711:18717   */\n      dup1\n        /* \"#utility.yul\":18706:18709   */\n      dup5\n        /* \"#utility.yul\":18702:18718   */\n      add\n        /* \"#utility.yul\":18695:18718   */\n      swap2\n      pop\n        /* \"#utility.yul\":18444:18724   */\n      pop\n        /* \"#utility.yul\":18334:18724   */\n      swap3\n      swap2\n      pop\n      pop\n      jump\t// out\n        /* \"#utility.yul\":18730:19165   */\n    tag_82:\n        /* \"#utility.yul\":18910:18913   */\n      0x00\n        /* \"#utility.yul\":18932:19027   */\n      tag_490\n        /* \"#utility.yul\":19023:19026   */\n      dup3\n        /* \"#utility.yul\":19014:19020   */\n      dup6\n        /* \"#utility.yul\":18932:19027   */\n      tag_266\n      jump\t// in\n    tag_490:\n        /* \"#utility.yul\":18925:19027   */\n      swap2\n      pop\n        /* \"#utility.yul\":19044:19139   */\n      tag_491\n        /* \"#utility.yul\":19135:19138   */\n      dup3\n        /* \"#utility.yul\":19126:19132   */\n      dup5\n        /* \"#utility.yul\":19044:19139   */\n      tag_266\n      jump\t// in\n    tag_491:\n        /* \"#utility.yul\":19037:19139   */\n      swap2\n      pop\n        /* \"#utility.yul\":19156:19159   */\n      dup2\n        /* \"#utility.yul\":19149:19159   */\n      swap1\n      pop\n        /* \"#utility.yul\":18730:19165   */\n      swap4\n      swap3\n      pop\n      pop\n      pop\n      jump\t// out\n        /* \"#utility.yul\":19171:19405   */\n    tag_267:\n        /* \"#utility.yul\":19311:19345   */\n      0x455243313135353a2063616c6c6572206973206e6f7420746f6b656e206f776e\n        /* \"#utility.yul\":19307:19308   */\n      0x00\n        /* \"#utility.yul\":19299:19305   */\n      dup3\n        /* \"#utility.yul\":19295:19309   */\n      add\n        /* \"#utility.yul\":19288:19346   */\n      mstore\n        /* \"#utility.yul\":19380:19397   */\n      0x6572206e6f7220617070726f7665640000000000000000000000000000000000\n        /* \"#utility.yul\":19375:19377   */\n      0x20\n        /* \"#utility.yul\":19367:19373   */\n      dup3\n        /* \"#utility.yul\":19363:19378   */\n      add\n        /* \"#utility.yul\":19356:19398   */\n      mstore\n        /* \"#utility.yul\":19171:19405   */\n      pop\n      jump\t// out\n        /* \"#utility.yul\":19411:19777   */\n    tag_268:\n        /* \"#utility.yul\":19553:19556   */\n      0x00\n        /* \"#utility.yul\":19574:19641   */\n      tag_494\n        /* \"#utility.yul\":19638:19640   */\n      0x2f\n        /* \"#utility.yul\":19633:19636   */\n      dup4\n        /* \"#utility.yul\":19574:19641   */\n      tag_234\n      jump\t// in\n    tag_494:\n        /* \"#utility.yul\":19567:19641   */\n      swap2\n      pop\n        /* \"#utility.yul\":19650:19743   */\n      tag_495\n        /* \"#utility.yul\":19739:19742   */\n      dup3\n        /* \"#utility.yul\":19650:19743   */\n      tag_267\n      jump\t// in\n    tag_495:\n        /* \"#utility.yul\":19768:19770   */\n      0x40\n        /* \"#utility.yul\":19763:19766   */\n      dup3\n        /* \"#utility.yul\":19759:19771   */\n      add\n        /* \"#utility.yul\":19752:19771   */\n      swap1\n      pop\n        /* \"#utility.yul\":19411:19777   */\n      swap2\n      swap1\n      pop\n      jump\t// out\n        /* \"#utility.yul\":19783:20202   */\n    tag_88:\n        /* \"#utility.yul\":19949:19953   */\n      0x00\n        /* \"#utility.yul\":19987:19989   */\n      0x20\n        /* \"#utility.yul\":19976:19985   */\n      dup3\n        /* \"#utility.yul\":19972:19990   */\n      add\n        /* \"#utility.yul\":19964:19990   */\n      swap1\n      pop\n        /* \"#utility.yul\":20036:20045   */\n      dup2\n        /* \"#utility.yul\":20030:20034   */\n      dup2\n        /* \"#utility.yul\":20026:20046   */\n      sub\n        /* \"#utility.yul\":20022:20023   */\n      0x00\n        /* \"#utility.yul\":20011:20020   */\n      dup4\n        /* \"#utility.yul\":20007:20024   */\n      add\n        /* \"#utility.yul\":20000:20047   */\n      mstore\n        /* \"#utility.yul\":20064:20195   */\n      tag_497\n        /* \"#utility.yul\":20190:20194   */\n      dup2\n        /* \"#utility.yul\":20064:20195   */\n      tag_268\n      jump\t// in\n    tag_497:\n        /* \"#utility.yul\":20056:20195   */\n      swap1\n      pop\n        /* \"#utility.yul\":19783:20202   */\n      swap2\n      swap1\n      pop\n      jump\t// out\n        /* \"#utility.yul\":20208:20435   */\n    tag_269:\n        /* \"#utility.yul\":20348:20382   */\n      0x455243313135353a2069647320616e6420616d6f756e7473206c656e67746820\n        /* \"#utility.yul\":20344:20345   */\n      0x00\n        /* \"#utility.yul\":20336:20342   */\n      dup3\n        /* \"#utility.yul\":20332:20346   */\n      add\n        /* \"#utility.yul\":20325:20383   */\n      mstore\n        /* \"#utility.yul\":20417:20427   */\n      0x6d69736d61746368000000000000000000000000000000000000000000000000\n        /* \"#utility.yul\":20412:20414   */\n      0x20\n        /* \"#utility.yul\":20404:20410   */\n      dup3\n        /* \"#utility.yul\":20400:20415   */\n      add\n        /* \"#utility.yul\":20393:20428   */\n      mstore\n        /* \"#utility.yul\":20208:20435   */\n      pop\n      jump\t// out\n        /* \"#utility.yul\":20441:20807   */\n    tag_270:\n        /* \"#utility.yul\":20583:20586   */\n      0x00\n        /* \"#utility.yul\":20604:20671   */\n      tag_500\n        /* \"#utility.yul\":20668:20670   */\n      0x28\n        /* \"#utility.yul\":20663:20666   */\n      dup4\n        /* \"#utility.yul\":20604:20671   */\n      tag_234\n      jump\t// in\n    tag_500:\n        /* \"#utility.yul\":20597:20671   */\n      swap2\n      pop\n        /* \"#utility.yul\":20680:20773   */\n      tag_501\n        /* \"#utility.yul\":20769:20772   */\n      dup3\n        /* \"#utility.yul\":20680:20773   */\n      tag_269\n      jump\t// in\n    tag_501:\n        /* \"#utility.yul\":20798:20800   */\n      0x40\n        /* \"#utility.yul\":20793:20796   */\n      dup3\n        /* \"#utility.yul\":20789:20801   */\n      add\n        /* \"#utility.yul\":20782:20801   */\n      swap1\n      pop\n        /* \"#utility.yul\":20441:20807   */\n      swap2\n      swap1\n      pop\n      jump\t// out\n        /* \"#utility.yul\":20813:21232   */\n    tag_91:\n        /* \"#utility.yul\":20979:20983   */\n      0x00\n        /* \"#utility.yul\":21017:21019   */\n      0x20\n        /* \"#utility.yul\":21006:21015   */\n      dup3\n        /* \"#utility.yul\":21002:21020   */\n      add\n        /* \"#utility.yul\":20994:21020   */\n      swap1\n      pop\n        /* \"#utility.yul\":21066:21075   */\n      dup2\n        /* \"#utility.yul\":21060:21064   */\n      dup2\n        /* \"#utility.yul\":21056:21076   */\n      sub\n        /* \"#utility.yul\":21052:21053   */\n      0x00\n        /* \"#utility.yul\":21041:21050   */\n      dup4\n        /* \"#utility.yul\":21037:21054   */\n      add\n        /* \"#utility.yul\":21030:21077   */\n      mstore\n        /* \"#utility.yul\":21094:21225   */\n      tag_503\n        /* \"#utility.yul\":21220:21224   */\n      dup2\n        /* \"#utility.yul\":21094:21225   */\n      tag_270\n      jump\t// in\n    tag_503:\n        /* \"#utility.yul\":21086:21225   */\n      swap1\n      pop\n        /* \"#utility.yul\":20813:21232   */\n      swap2\n      swap1\n      pop\n      jump\t// out\n        /* \"#utility.yul\":21238:21462   */\n    tag_271:\n        /* \"#utility.yul\":21378:21412   */\n      0x455243313135353a207472616e7366657220746f20746865207a65726f206164\n        /* \"#utility.yul\":21374:21375   */\n      0x00\n        /* \"#utility.yul\":21366:21372   */\n      dup3\n        /* \"#utility.yul\":21362:21376   */\n      add\n        /* \"#utility.yul\":21355:21413   */\n      mstore\n        /* \"#utility.yul\":21447:21454   */\n      0x6472657373000000000000000000000000000000000000000000000000000000\n        /* \"#utility.yul\":21442:21444   */\n      0x20\n        /* \"#utility.yul\":21434:21440   */\n      dup3\n        /* \"#utility.yul\":21430:21445   */\n      add\n        /* \"#utility.yul\":21423:21455   */\n      mstore\n        /* \"#utility.yul\":21238:21462   */\n      pop\n      jump\t// out\n        /* \"#utility.yul\":21468:21834   */\n    tag_272:\n        /* \"#utility.yul\":21610:21613   */\n      0x00\n        /* \"#utility.yul\":21631:21698   */\n      tag_506\n        /* \"#utility.yul\":21695:21697   */\n      0x25\n        /* \"#utility.yul\":21690:21693   */\n      dup4\n        /* \"#utility.yul\":21631:21698   */\n      tag_234\n      jump\t// in\n    tag_506:\n        /* \"#utility.yul\":21624:21698   */\n      swap2\n      pop\n        /* \"#utility.yul\":21707:21800   */\n      tag_507\n        /* \"#utility.yul\":21796:21799   */\n      dup3\n        /* \"#utility.yul\":21707:21800   */\n      tag_271\n      jump\t// in\n    tag_507:\n        /* \"#utility.yul\":21825:21827   */\n      0x40\n        /* \"#utility.yul\":21820:21823   */\n      dup3\n        /* \"#utility.yul\":21816:21828   */\n      add\n        /* \"#utility.yul\":21809:21828   */\n      swap1\n      pop\n        /* \"#utility.yul\":21468:21834   */\n      swap2\n      swap1\n      pop\n      jump\t// out\n        /* \"#utility.yul\":21840:22259   */\n    tag_94:\n        /* \"#utility.yul\":22006:22010   */\n      0x00\n        /* \"#utility.yul\":22044:22046   */\n      0x20\n        /* \"#utility.yul\":22033:22042   */\n      dup3\n        /* \"#utility.yul\":22029:22047   */\n      add\n        /* \"#utility.yul\":22021:22047   */\n      swap1\n      pop\n        /* \"#utility.yul\":22093:22102   */\n      dup2\n        /* \"#utility.yul\":22087:22091   */\n      dup2\n        /* \"#utility.yul\":22083:22103   */\n      sub\n        /* \"#utility.yul\":22079:22080   */\n      0x00\n        /* \"#utility.yul\":22068:22077   */\n      dup4\n        /* \"#utility.yul\":22064:22081   */\n      add\n        /* \"#utility.yul\":22057:22104   */\n      mstore\n        /* \"#utility.yul\":22121:22252   */\n      tag_509\n        /* \"#utility.yul\":22247:22251   */\n      dup2\n        /* \"#utility.yul\":22121:22252   */\n      tag_272\n      jump\t// in\n    tag_509:\n        /* \"#utility.yul\":22113:22252   */\n      swap1\n      pop\n        /* \"#utility.yul\":21840:22259   */\n      swap2\n      swap1\n      pop\n      jump\t// out\n        /* \"#utility.yul\":22265:22445   */\n    tag_100:\n        /* \"#utility.yul\":22313:22390   */\n      0x4e487b7100000000000000000000000000000000000000000000000000000000\n        /* \"#utility.yul\":22310:22311   */\n      0x00\n        /* \"#utility.yul\":22303:22391   */\n      mstore\n        /* \"#utility.yul\":22410:22414   */\n      0x32\n        /* \"#utility.yul\":22407:22408   */\n      0x04\n        /* \"#utility.yul\":22400:22415   */\n      mstore\n        /* \"#utility.yul\":22434:22438   */\n      0x24\n        /* \"#utility.yul\":22431:22432   */\n      0x00\n        /* \"#utility.yul\":22424:22439   */\n      revert\n        /* \"#utility.yul\":22451:22680   */\n    tag_273:\n        /* \"#utility.yul\":22591:22625   */\n      0x455243313135353a20696e73756666696369656e742062616c616e636520666f\n        /* \"#utility.yul\":22587:22588   */\n      0x00\n        /* \"#utility.yul\":22579:22585   */\n      dup3\n        /* \"#utility.yul\":22575:22589   */\n      add\n        /* \"#utility.yul\":22568:22626   */\n      mstore\n        /* \"#utility.yul\":22660:22672   */\n      0x72207472616e7366657200000000000000000000000000000000000000000000\n        /* \"#utility.yul\":22655:22657   */\n      0x20\n        /* \"#utility.yul\":22647:22653   */\n      dup3\n        /* \"#utility.yul\":22643:22658   */\n      add\n        /* \"#utility.yul\":22636:22673   */\n      mstore\n        /* \"#utility.yul\":22451:22680   */\n      pop\n      jump\t// out\n        /* \"#utility.yul\":22686:23052   */\n    tag_274:\n        /* \"#utility.yul\":22828:22831   */\n      0x00\n        /* \"#utility.yul\":22849:22916   */\n      tag_513\n        /* \"#utility.yul\":22913:22915   */\n      0x2a\n        /* \"#utility.yul\":22908:22911   */\n      dup4\n        /* \"#utility.yul\":22849:22916   */\n      tag_234\n      jump\t// in\n    tag_513:\n        /* \"#utility.yul\":22842:22916   */\n      swap2\n      pop\n        /* \"#utility.yul\":22925:23018   */\n      tag_514\n        /* \"#utility.yul\":23014:23017   */\n      dup3\n        /* \"#utility.yul\":22925:23018   */\n      tag_273\n      jump\t// in\n    tag_514:\n        /* \"#utility.yul\":23043:23045   */\n      0x40\n        /* \"#utility.yul\":23038:23041   */\n      dup3\n        /* \"#utility.yul\":23034:23046   */\n      add\n        /* \"#utility.yul\":23027:23046   */\n      swap1\n      pop\n        /* \"#utility.yul\":22686:23052   */\n      swap2\n      swap1\n      pop\n      jump\t// out\n        /* \"#utility.yul\":23058:23477   */\n    tag_105:\n        /* \"#utility.yul\":23224:23228   */\n      0x00\n        /* \"#utility.yul\":23262:23264   */\n      0x20\n        /* \"#utility.yul\":23251:23260   */\n      dup3\n        /* \"#utility.yul\":23247:23265   */\n      add\n        /* \"#utility.yul\":23239:23265   */\n      swap1\n      pop\n        /* \"#utility.yul\":23311:23320   */\n      dup2\n        /* \"#utility.yul\":23305:23309   */\n      dup2\n        /* \"#utility.yul\":23301:23321   */\n      sub\n        /* \"#utility.yul\":23297:23298   */\n      0x00\n        /* \"#utility.yul\":23286:23295   */\n      dup4\n        /* \"#utility.yul\":23282:23299   */\n      add\n        /* \"#utility.yul\":23275:23322   */\n      mstore\n        /* \"#utility.yul\":23339:23470   */\n      tag_516\n        /* \"#utility.yul\":23465:23469   */\n      dup2\n        /* \"#utility.yul\":23339:23470   */\n      tag_274\n      jump\t// in\n    tag_516:\n        /* \"#utility.yul\":23331:23470   */\n      swap1\n      pop\n        /* \"#utility.yul\":23058:23477   */\n      swap2\n      swap1\n      pop\n      jump\t// out\n        /* \"#utility.yul\":23483:24117   */\n    tag_107:\n        /* \"#utility.yul\":23704:23708   */\n      0x00\n        /* \"#utility.yul\":23742:23744   */\n      0x40\n        /* \"#utility.yul\":23731:23740   */\n      dup3\n        /* \"#utility.yul\":23727:23745   */\n      add\n        /* \"#utility.yul\":23719:23745   */\n      swap1\n      pop\n        /* \"#utility.yul\":23791:23800   */\n      dup2\n        /* \"#utility.yul\":23785:23789   */\n      dup2\n        /* \"#utility.yul\":23781:23801   */\n      sub\n        /* \"#utility.yul\":23777:23778   */\n      0x00\n        /* \"#utility.yul\":23766:23775   */\n      dup4\n        /* \"#utility.yul\":23762:23779   */\n      add\n        /* \"#utility.yul\":23755:23802   */\n      mstore\n        /* \"#utility.yul\":23819:23927   */\n      tag_518\n        /* \"#utility.yul\":23922:23926   */\n      dup2\n        /* \"#utility.yul\":23913:23919   */\n      dup6\n        /* \"#utility.yul\":23819:23927   */\n      tag_259\n      jump\t// in\n    tag_518:\n        /* \"#utility.yul\":23811:23927   */\n      swap1\n      pop\n        /* \"#utility.yul\":23974:23983   */\n      dup2\n        /* \"#utility.yul\":23968:23972   */\n      dup2\n        /* \"#utility.yul\":23964:23984   */\n      sub\n        /* \"#utility.yul\":23959:23961   */\n      0x20\n        /* \"#utility.yul\":23948:23957   */\n      dup4\n        /* \"#utility.yul\":23944:23962   */\n      add\n        /* \"#utility.yul\":23937:23985   */\n      mstore\n        /* \"#utility.yul\":24002:24110   */\n      tag_519\n        /* \"#utility.yul\":24105:24109   */\n      dup2\n        /* \"#utility.yul\":24096:24102   */\n      dup5\n        /* \"#utility.yul\":24002:24110   */\n      tag_259\n      jump\t// in\n    tag_519:\n        /* \"#utility.yul\":23994:24110   */\n      swap1\n      pop\n        /* \"#utility.yul\":23483:24117   */\n      swap4\n      swap3\n      pop\n      pop\n      pop\n      jump\t// out\n        /* \"#utility.yul\":24123:24351   */\n    tag_275:\n        /* \"#utility.yul\":24263:24297   */\n      0x455243313135353a206163636f756e747320616e6420696473206c656e677468\n        /* \"#utility.yul\":24259:24260   */\n      0x00\n        /* \"#utility.yul\":24251:24257   */\n      dup3\n        /* \"#utility.yul\":24247:24261   */\n      add\n        /* \"#utility.yul\":24240:24298   */\n      mstore\n        /* \"#utility.yul\":24332:24343   */\n      0x206d69736d617463680000000000000000000000000000000000000000000000\n        /* \"#utility.yul\":24327:24329   */\n      0x20\n        /* \"#utility.yul\":24319:24325   */\n      dup3\n        /* \"#utility.yul\":24315:24330   */\n      add\n        /* \"#utility.yul\":24308:24344   */\n      mstore\n        /* \"#utility.yul\":24123:24351   */\n      pop\n      jump\t// out\n        /* \"#utility.yul\":24357:24723   */\n    tag_276:\n        /* \"#utility.yul\":24499:24502   */\n      0x00\n        /* \"#utility.yul\":24520:24587   */\n      tag_522\n        /* \"#utility.yul\":24584:24586   */\n      0x29\n        /* \"#utility.yul\":24579:24582   */\n      dup4\n        /* \"#utility.yul\":24520:24587   */\n      tag_234\n      jump\t// in\n    tag_522:\n        /* \"#utility.yul\":24513:24587   */\n      swap2\n      pop\n        /* \"#utility.yul\":24596:24689   */\n      tag_523\n        /* \"#utility.yul\":24685:24688   */\n      dup3\n        /* \"#utility.yul\":24596:24689   */\n      tag_275\n      jump\t// in\n    tag_523:\n        /* \"#utility.yul\":24714:24716   */\n      0x40\n        /* \"#utility.yul\":24709:24712   */\n      dup3\n        /* \"#utility.yul\":24705:24717   */\n      add\n        /* \"#utility.yul\":24698:24717   */\n      swap1\n      pop\n        /* \"#utility.yul\":24357:24723   */\n      swap2\n      swap1\n      pop\n      jump\t// out\n        /* \"#utility.yul\":24729:25148   */\n    tag_113:\n        /* \"#utility.yul\":24895:24899   */\n      0x00\n        /* \"#utility.yul\":24933:24935   */\n      0x20\n        /* \"#utility.yul\":24922:24931   */\n      dup3\n        /* \"#utility.yul\":24918:24936   */\n      add\n        /* \"#utility.yul\":24910:24936   */\n      swap1\n      pop\n        /* \"#utility.yul\":24982:24991   */\n      dup2\n        /* \"#utility.yul\":24976:24980   */\n      dup2\n        /* \"#utility.yul\":24972:24992   */\n      sub\n        /* \"#utility.yul\":24968:24969   */\n      0x00\n        /* \"#utility.yul\":24957:24966   */\n      dup4\n        /* \"#utility.yul\":24953:24970   */\n      add\n        /* \"#utility.yul\":24946:24993   */\n      mstore\n        /* \"#utility.yul\":25010:25141   */\n      tag_525\n        /* \"#utility.yul\":25136:25140   */\n      dup2\n        /* \"#utility.yul\":25010:25141   */\n      tag_276\n      jump\t// in\n    tag_525:\n        /* \"#utility.yul\":25002:25141   */\n      swap1\n      pop\n        /* \"#utility.yul\":24729:25148   */\n      swap2\n      swap1\n      pop\n      jump\t// out\n        /* \"#utility.yul\":25154:25382   */\n    tag_277:\n        /* \"#utility.yul\":25294:25328   */\n      0x455243313135353a2073657474696e6720617070726f76616c20737461747573\n        /* \"#utility.yul\":25290:25291   */\n      0x00\n        /* \"#utility.yul\":25282:25288   */\n      dup3\n        /* \"#utility.yul\":25278:25292   */\n      add\n        /* \"#utility.yul\":25271:25329   */\n      mstore\n        /* \"#utility.yul\":25363:25374   */\n      0x20666f722073656c660000000000000000000000000000000000000000000000\n        /* \"#utility.yul\":25358:25360   */\n      0x20\n        /* \"#utility.yul\":25350:25356   */\n      dup3\n        /* \"#utility.yul\":25346:25361   */\n      add\n        /* \"#utility.yul\":25339:25375   */\n      mstore\n        /* \"#utility.yul\":25154:25382   */\n      pop\n      jump\t// out\n        /* \"#utility.yul\":25388:25754   */\n    tag_278:\n        /* \"#utility.yul\":25530:25533   */\n      0x00\n        /* \"#utility.yul\":25551:25618   */\n      tag_528\n        /* \"#utility.yul\":25615:25617   */\n      0x29\n        /* \"#utility.yul\":25610:25613   */\n      dup4\n        /* \"#utility.yul\":25551:25618   */\n      tag_234\n      jump\t// in\n    tag_528:\n        /* \"#utility.yul\":25544:25618   */\n      swap2\n      pop\n        /* \"#utility.yul\":25627:25720   */\n      tag_529\n        /* \"#utility.yul\":25716:25719   */\n      dup3\n        /* \"#utility.yul\":25627:25720   */\n      tag_277\n      jump\t// in\n    tag_529:\n        /* \"#utility.yul\":25745:25747   */\n      0x40\n        /* \"#utility.yul\":25740:25743   */\n      dup3\n        /* \"#utility.yul\":25736:25748   */\n      add\n        /* \"#utility.yul\":25729:25748   */\n      swap1\n      pop\n        /* \"#utility.yul\":25388:25754   */\n      swap2\n      swap1\n      pop\n      jump\t// out\n        /* \"#utility.yul\":25760:26179   */\n    tag_136:\n        /* \"#utility.yul\":25926:25930   */\n      0x00\n        /* \"#utility.yul\":25964:25966   */\n      0x20\n        /* \"#utility.yul\":25953:25962   */\n      dup3\n        /* \"#utility.yul\":25949:25967   */\n      add\n        /* \"#utility.yul\":25941:25967   */\n      swap1\n      pop\n        /* \"#utility.yul\":26013:26022   */\n      dup2\n        /* \"#utility.yul\":26007:26011   */\n      dup2\n        /* \"#utility.yul\":26003:26023   */\n      sub\n        /* \"#utility.yul\":25999:26000   */\n      0x00\n        /* \"#utility.yul\":25988:25997   */\n      dup4\n        /* \"#utility.yul\":25984:26001   */\n      add\n        /* \"#utility.yul\":25977:26024   */\n      mstore\n        /* \"#utility.yul\":26041:26172   */\n      tag_531\n        /* \"#utility.yul\":26167:26171   */\n      dup2\n        /* \"#utility.yul\":26041:26172   */\n      tag_278\n      jump\t// in\n    tag_531:\n        /* \"#utility.yul\":26033:26172   */\n      swap1\n      pop\n        /* \"#utility.yul\":25760:26179   */\n      swap2\n      swap1\n      pop\n      jump\t// out\n        /* \"#utility.yul\":26185:26365   */\n    tag_279:\n        /* \"#utility.yul\":26233:26310   */\n      0x4e487b7100000000000000000000000000000000000000000000000000000000\n        /* \"#utility.yul\":26230:26231   */\n      0x00\n        /* \"#utility.yul\":26223:26311   */\n      mstore\n        /* \"#utility.yul\":26330:26334   */\n      0x11\n        /* \"#utility.yul\":26327:26328   */\n      0x04\n        /* \"#utility.yul\":26320:26335   */\n      mstore\n        /* \"#utility.yul\":26354:26358   */\n      0x24\n        /* \"#utility.yul\":26351:26352   */\n      0x00\n        /* \"#utility.yul\":26344:26359   */\n      revert\n        /* \"#utility.yul\":26371:26562   */\n    tag_149:\n        /* \"#utility.yul\":26411:26414   */\n      0x00\n        /* \"#utility.yul\":26430:26450   */\n      tag_534\n        /* \"#utility.yul\":26448:26449   */\n      dup3\n        /* \"#utility.yul\":26430:26450   */\n      tag_224\n      jump\t// in\n    tag_534:\n        /* \"#utility.yul\":26425:26450   */\n      swap2\n      pop\n        /* \"#utility.yul\":26464:26484   */\n      tag_535\n        /* \"#utility.yul\":26482:26483   */\n      dup4\n        /* \"#utility.yul\":26464:26484   */\n      tag_224\n      jump\t// in\n    tag_535:\n        /* \"#utility.yul\":26459:26484   */\n      swap3\n      pop\n        /* \"#utility.yul\":26507:26508   */\n      dup3\n        /* \"#utility.yul\":26504:26505   */\n      dup3\n        /* \"#utility.yul\":26500:26509   */\n      add\n        /* \"#utility.yul\":26493:26509   */\n      swap1\n      pop\n        /* \"#utility.yul\":26528:26531   */\n      dup1\n        /* \"#utility.yul\":26525:26526   */\n      dup3\n        /* \"#utility.yul\":26522:26532   */\n      gt\n        /* \"#utility.yul\":26519:26555   */\n      iszero\n      tag_536\n      jumpi\n        /* \"#utility.yul\":26535:26553   */\n      tag_537\n      tag_279\n      jump\t// in\n    tag_537:\n        /* \"#utility.yul\":26519:26555   */\n    tag_536:\n        /* \"#utility.yul\":26371:26562   */\n      swap3\n      swap2\n      pop\n      pop\n      jump\t// out\n        /* \"#utility.yul\":26568:26900   */\n    tag_151:\n        /* \"#utility.yul\":26689:26693   */\n      0x00\n        /* \"#utility.yul\":26727:26729   */\n      0x40\n        /* \"#utility.yul\":26716:26725   */\n      dup3\n        /* \"#utility.yul\":26712:26730   */\n      add\n        /* \"#utility.yul\":26704:26730   */\n      swap1\n      pop\n        /* \"#utility.yul\":26740:26811   */\n      tag_539\n        /* \"#utility.yul\":26808:26809   */\n      0x00\n        /* \"#utility.yul\":26797:26806   */\n      dup4\n        /* \"#utility.yul\":26793:26810   */\n      add\n        /* \"#utility.yul\":26784:26790   */\n      dup6\n        /* \"#utility.yul\":26740:26811   */\n      tag_227\n      jump\t// in\n    tag_539:\n        /* \"#utility.yul\":26821:26893   */\n      tag_540\n        /* \"#utility.yul\":26889:26891   */\n      0x20\n        /* \"#utility.yul\":26878:26887   */\n      dup4\n        /* \"#utility.yul\":26874:26892   */\n      add\n        /* \"#utility.yul\":26865:26871   */\n      dup5\n        /* \"#utility.yul\":26821:26893   */\n      tag_227\n      jump\t// in\n    tag_540:\n        /* \"#utility.yul\":26568:26900   */\n      swap4\n      swap3\n      pop\n      pop\n      pop\n      jump\t// out\n        /* \"#utility.yul\":26906:27139   */\n    tag_160:\n        /* \"#utility.yul\":26945:26948   */\n      0x00\n        /* \"#utility.yul\":26968:26992   */\n      tag_542\n        /* \"#utility.yul\":26986:26991   */\n      dup3\n        /* \"#utility.yul\":26968:26992   */\n      tag_224\n      jump\t// in\n    tag_542:\n        /* \"#utility.yul\":26959:26992   */\n      swap2\n      pop\n        /* \"#utility.yul\":27014:27080   */\n      0xffffffffffffffffffffffffffffffffffffffffffffffffffffffffffffffff\n        /* \"#utility.yul\":27007:27012   */\n      dup3\n        /* \"#utility.yul\":27004:27081   */\n      sub\n        /* \"#utility.yul\":27001:27104   */\n      tag_543\n      jumpi\n        /* \"#utility.yul\":27084:27102   */\n      tag_544\n      tag_279\n      jump\t// in\n    tag_544:\n        /* \"#utility.yul\":27001:27104   */\n    tag_543:\n        /* \"#utility.yul\":27131:27132   */\n      0x01\n        /* \"#utility.yul\":27124:27129   */\n      dup3\n        /* \"#utility.yul\":27120:27133   */\n      add\n        /* \"#utility.yul\":27113:27133   */\n      swap1\n      pop\n        /* \"#utility.yul\":26906:27139   */\n      swap2\n      swap1\n      pop\n      jump\t// out\n        /* \"#utility.yul\":27145:27325   */\n    tag_280:\n        /* \"#utility.yul\":27193:27270   */\n      0x4e487b7100000000000000000000000000000000000000000000000000000000\n        /* \"#utility.yul\":27190:27191   */\n      0x00\n        /* \"#utility.yul\":27183:27271   */\n      mstore\n        /* \"#utility.yul\":27290:27294   */\n      0x12\n        /* \"#utility.yul\":27287:27288   */\n      0x04\n        /* \"#utility.yul\":27280:27295   */\n      mstore\n        /* \"#utility.yul\":27314:27318   */\n      0x24\n        /* \"#utility.yul\":27311:27312   */\n      0x00\n        /* \"#utility.yul\":27304:27319   */\n      revert\n        /* \"#utility.yul\":27331:27516   */\n    tag_162:\n        /* \"#utility.yul\":27371:27372   */\n      0x00\n        /* \"#utility.yul\":27388:27408   */\n      tag_547\n        /* \"#utility.yul\":27406:27407   */\n      dup3\n        /* \"#utility.yul\":27388:27408   */\n      tag_224\n      jump\t// in\n    tag_547:\n        /* \"#utility.yul\":27383:27408   */\n      swap2\n      pop\n        /* \"#utility.yul\":27422:27442   */\n      tag_548\n        /* \"#utility.yul\":27440:27441   */\n      dup4\n        /* \"#utility.yul\":27422:27442   */\n      tag_224\n      jump\t// in\n    tag_548:\n        /* \"#utility.yul\":27417:27442   */\n      swap3\n      pop\n        /* \"#utility.yul\":27461:27462   */\n      dup3\n        /* \"#utility.yul\":27451:27486   */\n      tag_549\n      jumpi\n        /* \"#utility.yul\":27466:27484   */\n      tag_550\n      tag_280\n      jump\t// in\n    tag_550:\n        /* \"#utility.yul\":27451:27486   */\n    tag_549:\n        /* \"#utility.yul\":27508:27509   */\n      dup3\n        /* \"#utility.yul\":27505:27506   */\n      dup3\n        /* \"#utility.yul\":27501:27510   */\n      div\n        /* \"#utility.yul\":27496:27510   */\n      swap1\n      pop\n        /* \"#utility.yul\":27331:27516   */\n      swap3\n      swap2\n      pop\n      pop\n      jump\t// out\n        /* \"#utility.yul\":27522:27716   */\n    tag_169:\n        /* \"#utility.yul\":27562:27566   */\n      0x00\n        /* \"#utility.yul\":27582:27602   */\n      tag_552\n        /* \"#utility.yul\":27600:27601   */\n      dup3\n        /* \"#utility.yul\":27582:27602   */\n      tag_224\n      jump\t// in\n    tag_552:\n        /* \"#utility.yul\":27577:27602   */\n      swap2\n      pop\n        /* \"#utility.yul\":27616:27636   */\n      tag_553\n        /* \"#utility.yul\":27634:27635   */\n      dup4\n        /* \"#utility.yul\":27616:27636   */\n      tag_224\n      jump\t// in\n    tag_553:\n        /* \"#utility.yul\":27611:27636   */\n      swap3\n      pop\n        /* \"#utility.yul\":27660:27661   */\n      dup3\n        /* \"#utility.yul\":27657:27658   */\n      dup3\n        /* \"#utility.yul\":27653:27662   */\n      sub\n        /* \"#utility.yul\":27645:27662   */\n      swap1\n      pop\n        /* \"#utility.yul\":27684:27685   */\n      dup2\n        /* \"#utility.yul\":27678:27682   */\n      dup2\n        /* \"#utility.yul\":27675:27686   */\n      gt\n        /* \"#utility.yul\":27672:27709   */\n      iszero\n      tag_554\n      jumpi\n        /* \"#utility.yul\":27689:27707   */\n      tag_555\n      tag_279\n      jump\t// in\n    tag_555:\n        /* \"#utility.yul\":27672:27709   */\n    tag_554:\n        /* \"#utility.yul\":27522:27716   */\n      swap3\n      swap2\n      pop\n      pop\n      jump\t// out\n        /* \"#utility.yul\":27722:27898   */\n    tag_171:\n        /* \"#utility.yul\":27754:27755   */\n      0x00\n        /* \"#utility.yul\":27771:27791   */\n      tag_557\n        /* \"#utility.yul\":27789:27790   */\n      dup3\n        /* \"#utility.yul\":27771:27791   */\n      tag_224\n      jump\t// in\n    tag_557:\n        /* \"#utility.yul\":27766:27791   */\n      swap2\n      pop\n        /* \"#utility.yul\":27805:27825   */\n      tag_558\n        /* \"#utility.yul\":27823:27824   */\n      dup4\n        /* \"#utility.yul\":27805:27825   */\n      tag_224\n      jump\t// in\n    tag_558:\n        /* \"#utility.yul\":27800:27825   */\n      swap3\n      pop\n        /* \"#utility.yul\":27844:27845   */\n      dup3\n        /* \"#utility.yul\":27834:27869   */\n      tag_559\n      jumpi\n        /* \"#utility.yul\":27849:27867   */\n      tag_560\n      tag_280\n      jump\t// in\n    tag_560:\n        /* \"#utility.yul\":27834:27869   */\n    tag_559:\n        /* \"#utility.yul\":27890:27891   */\n      dup3\n        /* \"#utility.yul\":27887:27888   */\n      dup3\n        /* \"#utility.yul\":27883:27892   */\n      mod\n        /* \"#utility.yul\":27878:27892   */\n      swap1\n      pop\n        /* \"#utility.yul\":27722:27898   */\n      swap3\n      swap2\n      pop\n      pop\n      jump\t// out\n        /* \"#utility.yul\":27904:28022   */\n    tag_281:\n        /* \"#utility.yul\":27991:28015   */\n      tag_562\n        /* \"#utility.yul\":28009:28014   */\n      dup2\n        /* \"#utility.yul\":27991:28015   */\n      tag_221\n      jump\t// in\n    tag_562:\n        /* \"#utility.yul\":27986:27989   */\n      dup3\n        /* \"#utility.yul\":27979:28016   */\n      mstore\n        /* \"#utility.yul\":27904:28022   */\n      pop\n      pop\n      jump\t// out\n        /* \"#utility.yul\":28028:28126   */\n    tag_282:\n        /* \"#utility.yul\":28079:28085   */\n      0x00\n        /* \"#utility.yul\":28113:28118   */\n      dup2\n        /* \"#utility.yul\":28107:28119   */\n      mload\n        /* \"#utility.yul\":28097:28119   */\n      swap1\n      pop\n        /* \"#utility.yul\":28028:28126   */\n      swap2\n      swap1\n      pop\n      jump\t// out\n        /* \"#utility.yul\":28132:28300   */\n    tag_283:\n        /* \"#utility.yul\":28215:28226   */\n      0x00\n        /* \"#utility.yul\":28249:28255   */\n      dup3\n        /* \"#utility.yul\":28244:28247   */\n      dup3\n        /* \"#utility.yul\":28237:28256   */\n      mstore\n        /* \"#utility.yul\":28289:28293   */\n      0x20\n        /* \"#utility.yul\":28284:28287   */\n      dup3\n        /* \"#utility.yul\":28280:28294   */\n      add\n        /* \"#utility.yul\":28265:28294   */\n      swap1\n      pop\n        /* \"#utility.yul\":28132:28300   */\n      swap3\n      swap2\n      pop\n      pop\n      jump\t// out\n        /* \"#utility.yul\":28306:28679   */\n    tag_284:\n        /* \"#utility.yul\":28392:28395   */\n      0x00\n        /* \"#utility.yul\":28420:28458   */\n      tag_566\n        /* \"#utility.yul\":28452:28457   */\n      dup3\n        /* \"#utility.yul\":28420:28458   */\n      tag_282\n      jump\t// in\n    tag_566:\n        /* \"#utility.yul\":28474:28544   */\n      tag_567\n        /* \"#utility.yul\":28537:28543   */\n      dup2\n        /* \"#utility.yul\":28532:28535   */\n      dup6\n        /* \"#utility.yul\":28474:28544   */\n      tag_283\n      jump\t// in\n    tag_567:\n        /* \"#utility.yul\":28467:28544   */\n      swap4\n      pop\n        /* \"#utility.yul\":28553:28618   */\n      tag_568\n        /* \"#utility.yul\":28611:28617   */\n      dup2\n        /* \"#utility.yul\":28606:28609   */\n      dup6\n        /* \"#utility.yul\":28599:28603   */\n      0x20\n        /* \"#utility.yul\":28592:28597   */\n      dup7\n        /* \"#utility.yul\":28588:28604   */\n      add\n        /* \"#utility.yul\":28553:28618   */\n      tag_235\n      jump\t// in\n    tag_568:\n        /* \"#utility.yul\":28643:28672   */\n      tag_569\n        /* \"#utility.yul\":28665:28671   */\n      dup2\n        /* \"#utility.yul\":28643:28672   */\n      tag_236\n      jump\t// in\n    tag_569:\n        /* \"#utility.yul\":28638:28641   */\n      dup5\n        /* \"#utility.yul\":28634:28673   */\n      add\n        /* \"#utility.yul\":28627:28673   */\n      swap2\n      pop\n        /* \"#utility.yul\":28396:28679   */\n      pop\n        /* \"#utility.yul\":28306:28679   */\n      swap3\n      swap2\n      pop\n      pop\n      jump\t// out\n        /* \"#utility.yul\":28685:29738   */\n    tag_179:\n        /* \"#utility.yul\":29008:29012   */\n      0x00\n        /* \"#utility.yul\":29046:29049   */\n      0xa0\n        /* \"#utility.yul\":29035:29044   */\n      dup3\n        /* \"#utility.yul\":29031:29050   */\n      add\n        /* \"#utility.yul\":29023:29050   */\n      swap1\n      pop\n        /* \"#utility.yul\":29060:29131   */\n      tag_571\n        /* \"#utility.yul\":29128:29129   */\n      0x00\n        /* \"#utility.yul\":29117:29126   */\n      dup4\n        /* \"#utility.yul\":29113:29130   */\n      add\n        /* \"#utility.yul\":29104:29110   */\n      dup9\n        /* \"#utility.yul\":29060:29131   */\n      tag_281\n      jump\t// in\n    tag_571:\n        /* \"#utility.yul\":29141:29213   */\n      tag_572\n        /* \"#utility.yul\":29209:29211   */\n      0x20\n        /* \"#utility.yul\":29198:29207   */\n      dup4\n        /* \"#utility.yul\":29194:29212   */\n      add\n        /* \"#utility.yul\":29185:29191   */\n      dup8\n        /* \"#utility.yul\":29141:29213   */\n      tag_281\n      jump\t// in\n    tag_572:\n        /* \"#utility.yul\":29260:29269   */\n      dup2\n        /* \"#utility.yul\":29254:29258   */\n      dup2\n        /* \"#utility.yul\":29250:29270   */\n      sub\n        /* \"#utility.yul\":29245:29247   */\n      0x40\n        /* \"#utility.yul\":29234:29243   */\n      dup4\n        /* \"#utility.yul\":29230:29248   */\n      add\n        /* \"#utility.yul\":29223:29271   */\n      mstore\n        /* \"#utility.yul\":29288:29396   */\n      tag_573\n        /* \"#utility.yul\":29391:29395   */\n      dup2\n        /* \"#utility.yul\":29382:29388   */\n      dup7\n        /* \"#utility.yul\":29288:29396   */\n      tag_259\n      jump\t// in\n    tag_573:\n        /* \"#utility.yul\":29280:29396   */\n      swap1\n      pop\n        /* \"#utility.yul\":29443:29452   */\n      dup2\n        /* \"#utility.yul\":29437:29441   */\n      dup2\n        /* \"#utility.yul\":29433:29453   */\n      sub\n        /* \"#utility.yul\":29428:29430   */\n      0x60\n        /* \"#utility.yul\":29417:29426   */\n      dup4\n        /* \"#utility.yul\":29413:29431   */\n      add\n        /* \"#utility.yul\":29406:29454   */\n      mstore\n        /* \"#utility.yul\":29471:29579   */\n      tag_574\n        /* \"#utility.yul\":29574:29578   */\n      dup2\n        /* \"#utility.yul\":29565:29571   */\n      dup6\n        /* \"#utility.yul\":29471:29579   */\n      tag_259\n      jump\t// in\n    tag_574:\n        /* \"#utility.yul\":29463:29579   */\n      swap1\n      pop\n        /* \"#utility.yul\":29627:29636   */\n      dup2\n        /* \"#utility.yul\":29621:29625   */\n      dup2\n        /* \"#utility.yul\":29617:29637   */\n      sub\n        /* \"#utility.yul\":29611:29614   */\n      0x80\n        /* \"#utility.yul\":29600:29609   */\n      dup4\n        /* \"#utility.yul\":29596:29615   */\n      add\n        /* \"#utility.yul\":29589:29638   */\n      mstore\n        /* \"#utility.yul\":29655:29731   */\n      tag_575\n        /* \"#utility.yul\":29726:29730   */\n      dup2\n        /* \"#utility.yul\":29717:29723   */\n      dup5\n        /* \"#utility.yul\":29655:29731   */\n      tag_284\n      jump\t// in\n    tag_575:\n        /* \"#utility.yul\":29647:29731   */\n      swap1\n      pop\n        /* \"#utility.yul\":28685:29738   */\n      swap7\n      swap6\n      pop\n      pop\n      pop\n      pop\n      pop\n      pop\n      jump\t// out\n        /* \"#utility.yul\":29744:29885   */\n    tag_285:\n        /* \"#utility.yul\":29800:29805   */\n      0x00\n        /* \"#utility.yul\":29831:29837   */\n      dup2\n        /* \"#utility.yul\":29825:29838   */\n      mload\n        /* \"#utility.yul\":29816:29838   */\n      swap1\n      pop\n        /* \"#utility.yul\":29847:29879   */\n      tag_577\n        /* \"#utility.yul\":29873:29878   */\n      dup2\n        /* \"#utility.yul\":29847:29879   */\n      tag_229\n      jump\t// in\n    tag_577:\n        /* \"#utility.yul\":29744:29885   */\n      swap3\n      swap2\n      pop\n      pop\n      jump\t// out\n        /* \"#utility.yul\":29891:30240   */\n    tag_182:\n        /* \"#utility.yul\":29960:29966   */\n      0x00\n        /* \"#utility.yul\":30009:30011   */\n      0x20\n        /* \"#utility.yul\":29997:30006   */\n      dup3\n        /* \"#utility.yul\":29988:29995   */\n      dup5\n        /* \"#utility.yul\":29984:30007   */\n      sub\n        /* \"#utility.yul\":29980:30012   */\n      slt\n        /* \"#utility.yul\":29977:30096   */\n      iszero\n      tag_579\n      jumpi\n        /* \"#utility.yul\":30015:30094   */\n      tag_580\n      tag_218\n      jump\t// in\n    tag_580:\n        /* \"#utility.yul\":29977:30096   */\n    tag_579:\n        /* \"#utility.yul\":30135:30136   */\n      0x00\n        /* \"#utility.yul\":30160:30223   */\n      tag_581\n        /* \"#utility.yul\":30215:30222   */\n      dup5\n        /* \"#utility.yul\":30206:30212   */\n      dup3\n        /* \"#utility.yul\":30195:30204   */\n      dup6\n        /* \"#utility.yul\":30191:30213   */\n      add\n        /* \"#utility.yul\":30160:30223   */\n      tag_285\n      jump\t// in\n    tag_581:\n        /* \"#utility.yul\":30150:30223   */\n      swap2\n      pop\n        /* \"#utility.yul\":30106:30233   */\n      pop\n        /* \"#utility.yul\":29891:30240   */\n      swap3\n      swap2\n      pop\n      pop\n      jump\t// out\n        /* \"#utility.yul\":30246:30352   */\n    tag_286:\n        /* \"#utility.yul\":30290:30298   */\n      0x00\n        /* \"#utility.yul\":30339:30344   */\n      dup2\n        /* \"#utility.yul\":30334:30337   */\n      0xe0\n        /* \"#utility.yul\":30330:30345   */\n      shr\n        /* \"#utility.yul\":30309:30345   */\n      swap1\n      pop\n        /* \"#utility.yul\":30246:30352   */\n      swap2\n      swap1\n      pop\n      jump\t// out\n        /* \"#utility.yul\":30358:30541   */\n    tag_188:\n        /* \"#utility.yul\":30393:30396   */\n      0x00\n        /* \"#utility.yul\":30431:30432   */\n      0x03\n        /* \"#utility.yul\":30413:30429   */\n      returndatasize\n        /* \"#utility.yul\":30410:30433   */\n      gt\n        /* \"#utility.yul\":30407:30535   */\n      iszero\n      tag_584\n      jumpi\n        /* \"#utility.yul\":30469:30470   */\n      0x04\n        /* \"#utility.yul\":30466:30467   */\n      0x00\n        /* \"#utility.yul\":30463:30464   */\n      0x00\n        /* \"#utility.yul\":30448:30471   */\n      returndatacopy\n        /* \"#utility.yul\":30491:30525   */\n      tag_585\n        /* \"#utility.yul\":30522:30523   */\n      0x00\n        /* \"#utility.yul\":30516:30524   */\n      mload\n        /* \"#utility.yul\":30491:30525   */\n      tag_286\n      jump\t// in\n    tag_585:\n        /* \"#utility.yul\":30484:30525   */\n      swap1\n      pop\n        /* \"#utility.yul\":30407:30535   */\n    tag_584:\n        /* \"#utility.yul\":30358:30541   */\n      swap1\n      jump\t// out\n        /* \"#utility.yul\":30547:31258   */\n    tag_190:\n        /* \"#utility.yul\":30586:30589   */\n      0x00\n        /* \"#utility.yul\":30624:30628   */\n      0x44\n        /* \"#utility.yul\":30606:30622   */\n      returndatasize\n        /* \"#utility.yul\":30603:30629   */\n      lt\n        /* \"#utility.yul\":30632:30637   */\n      tag_586\n        /* \"#utility.yul\":30600:30639   */\n      jumpi\n        /* \"#utility.yul\":30661:30681   */\n      tag_588\n      tag_217\n      jump\t// in\n    tag_588:\n        /* \"#utility.yul\":30736:30737   */\n      0x04\n        /* \"#utility.yul\":30718:30734   */\n      returndatasize\n        /* \"#utility.yul\":30714:30738   */\n      sub\n        /* \"#utility.yul\":30711:30712   */\n      0x04\n        /* \"#utility.yul\":30705:30709   */\n      dup3\n        /* \"#utility.yul\":30690:30739   */\n      returndatacopy\n        /* \"#utility.yul\":30769:30773   */\n      dup1\n        /* \"#utility.yul\":30763:30774   */\n      mload\n        /* \"#utility.yul\":30868:30884   */\n      returndatasize\n        /* \"#utility.yul\":30861:30865   */\n      0x24\n        /* \"#utility.yul\":30853:30859   */\n      dup3\n        /* \"#utility.yul\":30849:30866   */\n      add\n        /* \"#utility.yul\":30846:30885   */\n      gt\n        /* \"#utility.yul\":30813:30831   */\n      0xffffffffffffffff\n        /* \"#utility.yul\":30805:30811   */\n      dup3\n        /* \"#utility.yul\":30802:30832   */\n      gt\n        /* \"#utility.yul\":30786:30899   */\n      or\n        /* \"#utility.yul\":30783:30929   */\n      iszero\n      tag_589\n      jumpi\n        /* \"#utility.yul\":30914:30919   */\n      pop\n      pop\n      jump(tag_586)\n        /* \"#utility.yul\":30783:30929   */\n    tag_589:\n        /* \"#utility.yul\":30960:30966   */\n      dup1\n        /* \"#utility.yul\":30954:30958   */\n      dup3\n        /* \"#utility.yul\":30950:30967   */\n      add\n        /* \"#utility.yul\":30996:30999   */\n      dup1\n        /* \"#utility.yul\":30990:31000   */\n      mload\n        /* \"#utility.yul\":31023:31041   */\n      0xffffffffffffffff\n        /* \"#utility.yul\":31015:31021   */\n      dup2\n        /* \"#utility.yul\":31012:31042   */\n      gt\n        /* \"#utility.yul\":31009:31052   */\n      iszero\n      tag_590\n      jumpi\n        /* \"#utility.yul\":31045:31050   */\n      pop\n      pop\n      pop\n      pop\n      jump(tag_586)\n        /* \"#utility.yul\":31009:31052   */\n    tag_590:\n        /* \"#utility.yul\":31093:31099   */\n      dup1\n        /* \"#utility.yul\":31086:31090   */\n      0x20\n        /* \"#utility.yul\":31081:31084   */\n      dup4\n        /* \"#utility.yul\":31077:31091   */\n      add\n        /* \"#utility.yul\":31073:31100   */\n      add\n        /* \"#utility.yul\":31152:31153   */\n      0x04\n        /* \"#utility.yul\":31134:31150   */\n      returndatasize\n        /* \"#utility.yul\":31130:31154   */\n      sub\n        /* \"#utility.yul\":31124:31128   */\n      dup6\n        /* \"#utility.yul\":31120:31155   */\n      add\n        /* \"#utility.yul\":31115:31118   */\n      dup2\n        /* \"#utility.yul\":31112:31156   */\n      gt\n        /* \"#utility.yul\":31109:31166   */\n      iszero\n      tag_591\n      jumpi\n        /* \"#utility.yul\":31159:31164   */\n      pop\n      pop\n      pop\n      pop\n      pop\n      jump(tag_586)\n        /* \"#utility.yul\":31109:31166   */\n    tag_591:\n        /* \"#utility.yul\":31176:31233   */\n      tag_592\n        /* \"#utility.yul\":31224:31230   */\n      dup3\n        /* \"#utility.yul\":31218:31222   */\n      0x20\n        /* \"#utility.yul\":31214:31231   */\n      add\n        /* \"#utility.yul\":31206:31212   */\n      dup6\n        /* \"#utility.yul\":31202:31232   */\n      add\n        /* \"#utility.yul\":31196:31200   */\n      dup7\n        /* \"#utility.yul\":31176:31233   */\n      tag_239\n      jump\t// in\n    tag_592:\n        /* \"#utility.yul\":31249:31252   */\n      dup3\n        /* \"#utility.yul\":31242:31252   */\n      swap6\n      pop\n        /* \"#utility.yul\":30590:31258   */\n      pop\n      pop\n      pop\n      pop\n      pop\n        /* \"#utility.yul\":30547:31258   */\n    tag_586:\n      swap1\n      jump\t// out\n        /* \"#utility.yul\":31264:31503   */\n    tag_287:\n        /* \"#utility.yul\":31404:31438   */\n      0x455243313135353a207472616e7366657220746f206e6f6e2d45524331313535\n        /* \"#utility.yul\":31400:31401   */\n      0x00\n        /* \"#utility.yul\":31392:31398   */\n      dup3\n        /* \"#utility.yul\":31388:31402   */\n      add\n        /* \"#utility.yul\":31381:31439   */\n      mstore\n        /* \"#utility.yul\":31473:31495   */\n      0x526563656976657220696d706c656d656e746572000000000000000000000000\n        /* \"#utility.yul\":31468:31470   */\n      0x20\n        /* \"#utility.yul\":31460:31466   */\n      dup3\n        /* \"#utility.yul\":31456:31471   */\n      add\n        /* \"#utility.yul\":31449:31496   */\n      mstore\n        /* \"#utility.yul\":31264:31503   */\n      pop\n      jump\t// out\n        /* \"#utility.yul\":31509:31875   */\n    tag_288:\n        /* \"#utility.yul\":31651:31654   */\n      0x00\n        /* \"#utility.yul\":31672:31739   */\n      tag_595\n        /* \"#utility.yul\":31736:31738   */\n      0x34\n        /* \"#utility.yul\":31731:31734   */\n      dup4\n        /* \"#utility.yul\":31672:31739   */\n      tag_234\n      jump\t// in\n    tag_595:\n        /* \"#utility.yul\":31665:31739   */\n      swap2\n      pop\n        /* \"#utility.yul\":31748:31841   */\n      tag_596\n        /* \"#utility.yul\":31837:31840   */\n      dup3\n        /* \"#utility.yul\":31748:31841   */\n      tag_287\n      jump\t// in\n    tag_596:\n        /* \"#utility.yul\":31866:31868   */\n      0x40\n        /* \"#utility.yul\":31861:31864   */\n      dup3\n        /* \"#utility.yul\":31857:31869   */\n      add\n        /* \"#utility.yul\":31850:31869   */\n      swap1\n      pop\n        /* \"#utility.yul\":31509:31875   */\n      swap2\n      swap1\n      pop\n      jump\t// out\n        /* \"#utility.yul\":31881:32300   */\n    tag_194:\n        /* \"#utility.yul\":32047:32051   */\n      0x00\n        /* \"#utility.yul\":32085:32087   */\n      0x20\n        /* \"#utility.yul\":32074:32083   */\n      dup3\n        /* \"#utility.yul\":32070:32088   */\n      add\n        /* \"#utility.yul\":32062:32088   */\n      swap1\n      pop\n        /* \"#utility.yul\":32134:32143   */\n      dup2\n        /* \"#utility.yul\":32128:32132   */\n      dup2\n        /* \"#utility.yul\":32124:32144   */\n      sub\n        /* \"#utility.yul\":32120:32121   */\n      0x00\n        /* \"#utility.yul\":32109:32118   */\n      dup4\n        /* \"#utility.yul\":32105:32122   */\n      add\n        /* \"#utility.yul\":32098:32145   */\n      mstore\n        /* \"#utility.yul\":32162:32293   */\n      tag_598\n        /* \"#utility.yul\":32288:32292   */\n      dup2\n        /* \"#utility.yul\":32162:32293   */\n      tag_288\n      jump\t// in\n    tag_598:\n        /* \"#utility.yul\":32154:32293   */\n      swap1\n      pop\n        /* \"#utility.yul\":31881:32300   */\n      swap2\n      swap1\n      pop\n      jump\t// out\n        /* \"#utility.yul\":32306:32533   */\n    tag_289:\n        /* \"#utility.yul\":32446:32480   */\n      0x455243313135353a204552433131353552656365697665722072656a65637465\n        /* \"#utility.yul\":32442:32443   */\n      0x00\n        /* \"#utility.yul\":32434:32440   */\n      dup3\n        /* \"#utility.yul\":32430:32444   */\n      add\n        /* \"#utility.yul\":32423:32481   */\n      mstore\n        /* \"#utility.yul\":32515:32525   */\n      0x6420746f6b656e73000000000000000000000000000000000000000000000000\n        /* \"#utility.yul\":32510:32512   */\n      0x20\n        /* \"#utility.yul\":32502:32508   */\n      dup3\n        /* \"#utility.yul\":32498:32513   */\n      add\n        /* \"#utility.yul\":32491:32526   */\n      mstore\n        /* \"#utility.yul\":32306:32533   */\n      pop\n      jump\t// out\n        /* \"#utility.yul\":32539:32905   */\n    tag_290:\n        /* \"#utility.yul\":32681:32684   */\n      0x00\n        /* \"#utility.yul\":32702:32769   */\n      tag_601\n        /* \"#utility.yul\":32766:32768   */\n      0x28\n        /* \"#utility.yul\":32761:32764   */\n      dup4\n        /* \"#utility.yul\":32702:32769   */\n      tag_234\n      jump\t// in\n    tag_601:\n        /* \"#utility.yul\":32695:32769   */\n      swap2\n      pop\n        /* \"#utility.yul\":32778:32871   */\n      tag_602\n        /* \"#utility.yul\":32867:32870   */\n      dup3\n        /* \"#utility.yul\":32778:32871   */\n      tag_289\n      jump\t// in\n    tag_602:\n        /* \"#utility.yul\":32896:32898   */\n      0x40\n        /* \"#utility.yul\":32891:32894   */\n      dup3\n        /* \"#utility.yul\":32887:32899   */\n      add\n        /* \"#utility.yul\":32880:32899   */\n      swap1\n      pop\n        /* \"#utility.yul\":32539:32905   */\n      swap2\n      swap1\n      pop\n      jump\t// out\n        /* \"#utility.yul\":32911:33330   */\n    tag_198:\n        /* \"#utility.yul\":33077:33081   */\n      0x00\n        /* \"#utility.yul\":33115:33117   */\n      0x20\n        /* \"#utility.yul\":33104:33113   */\n      dup3\n        /* \"#utility.yul\":33100:33118   */\n      add\n        /* \"#utility.yul\":33092:33118   */\n      swap1\n      pop\n        /* \"#utility.yul\":33164:33173   */\n      dup2\n        /* \"#utility.yul\":33158:33162   */\n      dup2\n        /* \"#utility.yul\":33154:33174   */\n      sub\n        /* \"#utility.yul\":33150:33151   */\n      0x00\n        /* \"#utility.yul\":33139:33148   */\n      dup4\n        /* \"#utility.yul\":33135:33152   */\n      add\n        /* \"#utility.yul\":33128:33175   */\n      mstore\n        /* \"#utility.yul\":33192:33323   */\n      tag_604\n        /* \"#utility.yul\":33318:33322   */\n      dup2\n        /* \"#utility.yul\":33192:33323   */\n      tag_290\n      jump\t// in\n    tag_604:\n        /* \"#utility.yul\":33184:33323   */\n      swap1\n      pop\n        /* \"#utility.yul\":32911:33330   */\n      swap2\n      swap1\n      pop\n      jump\t// out\n        /* \"#utility.yul\":33336:34087   */\n    tag_202:\n        /* \"#utility.yul\":33559:33563   */\n      0x00\n        /* \"#utility.yul\":33597:33600   */\n      0xa0\n        /* \"#utility.yul\":33586:33595   */\n      dup3\n        /* \"#utility.yul\":33582:33601   */\n      add\n        /* \"#utility.yul\":33574:33601   */\n      swap1\n      pop\n        /* \"#utility.yul\":33611:33682   */\n      tag_606\n        /* \"#utility.yul\":33679:33680   */\n      0x00\n        /* \"#utility.yul\":33668:33677   */\n      dup4\n        /* \"#utility.yul\":33664:33681   */\n      add\n        /* \"#utility.yul\":33655:33661   */\n      dup9\n        /* \"#utility.yul\":33611:33682   */\n      tag_281\n      jump\t// in\n    tag_606:\n        /* \"#utility.yul\":33692:33764   */\n      tag_607\n        /* \"#utility.yul\":33760:33762   */\n      0x20\n        /* \"#utility.yul\":33749:33758   */\n      dup4\n        /* \"#utility.yul\":33745:33763   */\n      add\n        /* \"#utility.yul\":33736:33742   */\n      dup8\n        /* \"#utility.yul\":33692:33764   */\n      tag_281\n      jump\t// in\n    tag_607:\n        /* \"#utility.yul\":33774:33846   */\n      tag_608\n        /* \"#utility.yul\":33842:33844   */\n      0x40\n        /* \"#utility.yul\":33831:33840   */\n      dup4\n        /* \"#utility.yul\":33827:33845   */\n      add\n        /* \"#utility.yul\":33818:33824   */\n      dup7\n        /* \"#utility.yul\":33774:33846   */\n      tag_227\n      jump\t// in\n    tag_608:\n        /* \"#utility.yul\":33856:33928   */\n      tag_609\n        /* \"#utility.yul\":33924:33926   */\n      0x60\n        /* \"#utility.yul\":33913:33922   */\n      dup4\n        /* \"#utility.yul\":33909:33927   */\n      add\n        /* \"#utility.yul\":33900:33906   */\n      dup6\n        /* \"#utility.yul\":33856:33928   */\n      tag_227\n      jump\t// in\n    tag_609:\n        /* \"#utility.yul\":33976:33985   */\n      dup2\n        /* \"#utility.yul\":33970:33974   */\n      dup2\n        /* \"#utility.yul\":33966:33986   */\n      sub\n        /* \"#utility.yul\":33960:33963   */\n      0x80\n        /* \"#utility.yul\":33949:33958   */\n      dup4\n        /* \"#utility.yul\":33945:33964   */\n      add\n        /* \"#utility.yul\":33938:33987   */\n      mstore\n        /* \"#utility.yul\":34004:34080   */\n      tag_610\n        /* \"#utility.yul\":34075:34079   */\n      dup2\n        /* \"#utility.yul\":34066:34072   */\n      dup5\n        /* \"#utility.yul\":34004:34080   */\n      tag_284\n      jump\t// in\n    tag_610:\n        /* \"#utility.yul\":33996:34080   */\n      swap1\n      pop\n        /* \"#utility.yul\":33336:34087   */\n      swap7\n      swap6\n      pop\n      pop\n      pop\n      pop\n      pop\n      pop\n      jump\t// out\n\n    auxdata: 0xa26469706673582212202a6071c43d359da0667dbff9f37b08dc01f87dfd228473e14f44778e8732db1464736f6c634300081e0033\n}\n",
				"bytecode": {
					"linkReferences": {},
					"object": "608060405234801561000f575f5ffd5b50604051612b48380380612b48833981810160405281019061003191906101a4565b815f908161003f919061042a565b50806001908161004f919061042a565b5050506104f9565b5f604051905090565b5f5ffd5b5f5ffd5b5f5ffd5b5f5ffd5b5f601f19601f8301169050919050565b7f4e487b71000000000000000000000000000000000000000000000000000000005f52604160045260245ffd5b6100b682610070565b810181811067ffffffffffffffff821117156100d5576100d4610080565b5b80604052505050565b5f6100e7610057565b90506100f382826100ad565b919050565b5f67ffffffffffffffff82111561011257610111610080565b5b61011b82610070565b9050602081019050919050565b8281835e5f83830152505050565b5f610148610143846100f8565b6100de565b9050828152602081018484840111156101645761016361006c565b5b61016f848285610128565b509392505050565b5f82601f83011261018b5761018a610068565b5b815161019b848260208601610136565b91505092915050565b5f5f604083850312156101ba576101b9610060565b5b5f83015167ffffffffffffffff8111156101d7576101d6610064565b5b6101e385828601610177565b925050602083015167ffffffffffffffff81111561020457610203610064565b5b61021085828601610177565b9150509250929050565b5f81519050919050565b7f4e487b71000000000000000000000000000000000000000000000000000000005f52602260045260245ffd5b5f600282049050600182168061026857607f821691505b60208210810361027b5761027a610224565b5b50919050565b5f819050815f5260205f209050919050565b5f6020601f8301049050919050565b5f82821b905092915050565b5f600883026102dd7fffffffffffffffffffffffffffffffffffffffffffffffffffffffffffffffff826102a2565b6102e786836102a2565b95508019841693508086168417925050509392505050565b5f819050919050565b5f819050919050565b5f61032b610326610321846102ff565b610308565b6102ff565b9050919050565b5f819050919050565b61034483610311565b61035861035082610332565b8484546102ae565b825550505050565b5f5f905090565b61036f610360565b61037a81848461033b565b505050565b5b8181101561039d576103925f82610367565b600181019050610380565b5050565b601f8211156103e2576103b381610281565b6103bc84610293565b810160208510156103cb578190505b6103df6103d785610293565b83018261037f565b50505b505050565b5f82821c905092915050565b5f6104025f19846008026103e7565b1980831691505092915050565b5f61041a83836103f3565b9150826002028217905092915050565b6104338261021a565b67ffffffffffffffff81111561044c5761044b610080565b5b6104568254610251565b6104618282856103a1565b5f60209050601f831160018114610492575f8415610480578287015190505b61048a858261040f565b8655506104f1565b601f1984166104a086610281565b5f5b828110156104c7578489015182556001820191506020850194506020810190506104a2565b868310156104e457848901516104e0601f8916826103f3565b8355505b6001600288020188555050505b505050505050565b612642806105065f395ff3fe608060405234801561000f575f5ffd5b506004361061009b575f3560e01c80634e1273f4116100645780634e1273f41461016957806395d89b4114610199578063a22cb465146101b7578063e985e9c5146101d3578063f242432a146102035761009b565b8062fdd58e1461009f57806301ffc9a7146100cf57806306fdde03146100ff5780630e89341c1461011d5780632eb2c2d61461014d575b5f5ffd5b6100b960048036038101906100b49190611477565b61021f565b6040516100c691906114c4565b60405180910390f35b6100e960048036038101906100e49190611532565b6102e3565b6040516100f69190611577565b60405180910390f35b61010761041c565b6040516101149190611600565b60405180910390f35b61013760048036038101906101329190611620565b6104a7565b6040516101449190611600565b60405180910390f35b6101676004803603810190610162919061183b565b610503565b005b610183600480360381019061017e91906119c6565b610864565b6040516101909190611af3565b60405180910390f35b6101a161097a565b6040516101ae9190611600565b60405180910390f35b6101d160048036038101906101cc9190611b3d565b610a06565b005b6101ed60048036038101906101e89190611b7b565b610b6c565b6040516101fa9190611577565b60405180910390f35b61021d60048036038101906102189190611bb9565b610bfa565b005b5f5f73ffffffffffffffffffffffffffffffffffffffff168373ffffffffffffffffffffffffffffffffffffffff160361028e576040517f08c379a000000000000000000000000000000000000000000000000000000000815260040161028590611cbc565b60405180910390fd5b60025f8381526020019081526020015f205f8473ffffffffffffffffffffffffffffffffffffffff1673ffffffffffffffffffffffffffffffffffffffff1681526020019081526020015f2054905092915050565b5f7fd9b67a26000000000000000000000000000000000000000000000000000000007bffffffffffffffffffffffffffffffffffffffffffffffffffffffff1916827bffffffffffffffffffffffffffffffffffffffffffffffffffffffff191614806103ad57507f0e89341c000000000000000000000000000000000000000000000000000000007bffffffffffffffffffffffffffffffffffffffffffffffffffffffff1916827bffffffffffffffffffffffffffffffffffffffffffffffffffffffff1916145b8061041557507f01ffc9a7000000000000000000000000000000000000000000000000000000007bffffffffffffffffffffffffffffffffffffffffffffffffffffffff1916827bffffffffffffffffffffffffffffffffffffffffffffffffffffffff1916145b9050919050565b5f805461042890611d07565b80601f016020809104026020016040519081016040528092919081815260200182805461045490611d07565b801561049f5780601f106104765761010080835404028352916020019161049f565b820191905f5260205f20905b81548152906001019060200180831161048257829003601f168201915b505050505081565b60605f6104b2610ec8565b90505f8151116104d05760405180602001604052805f8152506104fb565b806104da84610ede565b6040516020016104eb929190611d71565b6040516020818303038152906040525b915050919050565b5f3390508073ffffffffffffffffffffffffffffffffffffffff168673ffffffffffffffffffffffffffffffffffffffff16148061054757506105468682610b6c565b5b610586576040517f08c379a000000000000000000000000000000000000000000000000000000000815260040161057d90611e04565b60405180910390fd5b82518451146105ca576040517f08c379a00000000000000000000000000000000000000000000000000000000081526004016105c190611e92565b60405180910390fd5b5f73ffffffffffffffffffffffffffffffffffffffff168573ffffffffffffffffffffffffffffffffffffffff1603610638576040517f08c379a000000000000000000000000000000000000000000000000000000000815260040161062f90611f20565b60405180910390fd5b5f5f90505b84518110156107cf575f85828151811061065a57610659611f3e565b5b602002602001015190505f85838151811061067857610677611f3e565b5b602002602001015190505f60025f8481526020019081526020015f205f8b73ffffffffffffffffffffffffffffffffffffffff1673ffffffffffffffffffffffffffffffffffffffff1681526020019081526020015f2054905081811015610715576040517f08c379a000000000000000000000000000000000000000000000000000000000815260040161070c90611fdb565b60405180910390fd5b81810360025f8581526020019081526020015f205f8c73ffffffffffffffffffffffffffffffffffffffff1673ffffffffffffffffffffffffffffffffffffffff1681526020019081526020015f20819055508160025f8581526020019081526020015f205f8b73ffffffffffffffffffffffffffffffffffffffff1673ffffffffffffffffffffffffffffffffffffffff1681526020019081526020015f205f828254019250508190555050505080600101905061063d565b508473ffffffffffffffffffffffffffffffffffffffff168673ffffffffffffffffffffffffffffffffffffffff168273ffffffffffffffffffffffffffffffffffffffff167f4a39dc06d4c0dbc64b70af90fd698a233a518aa5d07e595d983b8c0526c8f7fb8787604051610846929190611ff9565b60405180910390a461085c818787878787611037565b505050505050565b606081518351146108aa576040517f08c379a00000000000000000000000000000000000000000000000000000000081526004016108a19061209e565b60405180910390fd5b5f835167ffffffffffffffff8111156108c6576108c561164f565b5b6040519080825280602002602001820160405280156108f45781602001602082028036833780820191505090505b5090505f5f90505b845181101561096f5761094385828151811061091b5761091a611f3e565b5b602002602001015185838151811061093657610935611f3e565b5b602002602001015161021f565b82828151811061095657610955611f3e565b5b60200260200101818152505080806001019150506108fc565b508091505092915050565b6001805461098790611d07565b80601f01602080910402602001604051908101604052809291908181526020018280546109b390611d07565b80156109fe5780601f106109d5576101008083540402835291602001916109fe565b820191905f5260205f20905b8154815290600101906020018083116109e157829003601f168201915b505050505081565b8173ffffffffffffffffffffffffffffffffffffffff163373ffffffffffffffffffffffffffffffffffffffff1603610a74576040517f08c379a0000000000000000000000000000000000000000000000000000000008152600401610a6b9061212c565b60405180910390fd5b8060035f3373ffffffffffffffffffffffffffffffffffffffff1673ffffffffffffffffffffffffffffffffffffffff1681526020019081526020015f205f8473ffffffffffffffffffffffffffffffffffffffff1673ffffffffffffffffffffffffffffffffffffffff1681526020019081526020015f205f6101000a81548160ff0219169083151502179055508173ffffffffffffffffffffffffffffffffffffffff163373ffffffffffffffffffffffffffffffffffffffff167f17307eab39ab6107e8899845ad3d59bd9653f200f220920489ca2b5937696c3183604051610b609190611577565b60405180910390a35050565b5f60035f8473ffffffffffffffffffffffffffffffffffffffff1673ffffffffffffffffffffffffffffffffffffffff1681526020019081526020015f205f8373ffffffffffffffffffffffffffffffffffffffff1673ffffffffffffffffffffffffffffffffffffffff1681526020019081526020015f205f9054906101000a900460ff16905092915050565b5f3390508073ffffffffffffffffffffffffffffffffffffffff168673ffffffffffffffffffffffffffffffffffffffff161480610c3e5750610c3d8682610b6c565b5b610c7d576040517f08c379a0000000000000000000000000000000000000000000000000000000008152600401610c7490611e04565b60405180910390fd5b5f73ffffffffffffffffffffffffffffffffffffffff168573ffffffffffffffffffffffffffffffffffffffff1603610ceb576040517f08c379a0000000000000000000000000000000000000000000000000000000008152600401610ce290611f20565b60405180910390fd5b5f60025f8681526020019081526020015f205f8873ffffffffffffffffffffffffffffffffffffffff1673ffffffffffffffffffffffffffffffffffffffff1681526020019081526020015f2054905083811015610d7e576040517f08c379a0000000000000000000000000000000000000000000000000000000008152600401610d7590611fdb565b60405180910390fd5b83810360025f8781526020019081526020015f205f8973ffffffffffffffffffffffffffffffffffffffff1673ffffffffffffffffffffffffffffffffffffffff1681526020019081526020015f20819055508360025f8781526020019081526020015f205f8873ffffffffffffffffffffffffffffffffffffffff1673ffffffffffffffffffffffffffffffffffffffff1681526020019081526020015f205f828254610e2c9190612177565b925050819055508573ffffffffffffffffffffffffffffffffffffffff168773ffffffffffffffffffffffffffffffffffffffff168373ffffffffffffffffffffffffffffffffffffffff167fc3d58168c5ae7397731d063d5bbf3d657854427343f4c083240f7aacaa2d0f628888604051610ea99291906121aa565b60405180910390a4610ebf828888888888611208565b50505050505050565b606060405180602001604052805f815250905090565b60605f8203610f24576040518060400160405280600181526020017f30000000000000000000000000000000000000000000000000000000000000008152509050611032565b5f8290505f5b5f8214610f53578080610f3c906121d1565b915050600a82610f4c9190612245565b9150610f2a565b5f8167ffffffffffffffff811115610f6e57610f6d61164f565b5b6040519080825280601f01601f191660200182016040528015610fa05781602001600182028036833780820191505090505b5090505b5f851461102b57600182610fb89190612275565b9150600a85610fc791906122a8565b6030610fd39190612177565b60f81b818381518110610fe957610fe8611f3e565b5b60200101907effffffffffffffffffffffffffffffffffffffffffffffffffffffffffffff191690815f1a905350600a856110249190612245565b9450610fa4565b8093505050505b919050565b5f8473ffffffffffffffffffffffffffffffffffffffff163b1115611200578373ffffffffffffffffffffffffffffffffffffffff1663bc197c8187878686866040518663ffffffff1660e01b8152600401611097959493929190612339565b6020604051808303815f875af19250505080156110d257506040513d601f19601f820116820180604052508101906110cf91906123b3565b60015b611177576110de6123ea565b806308c379a00361113a57506110f2612409565b806110fd575061113c565b806040517f08c379a00000000000000000000000000000000000000000000000000000000081526004016111319190611600565b60405180910390fd5b505b6040517f08c379a000000000000000000000000000000000000000000000000000000000815260040161116e90612508565b60405180910390fd5b63bc197c8160e01b7bffffffffffffffffffffffffffffffffffffffffffffffffffffffff1916817bffffffffffffffffffffffffffffffffffffffffffffffffffffffff1916146111fe576040517f08c379a00000000000000000000000000000000000000000000000000000000081526004016111f590612596565b60405180910390fd5b505b505050505050565b5f8473ffffffffffffffffffffffffffffffffffffffff163b11156113d1578373ffffffffffffffffffffffffffffffffffffffff1663f23a6e6187878686866040518663ffffffff1660e01b81526004016112689594939291906125b4565b6020604051808303815f875af19250505080156112a357506040513d601f19601f820116820180604052508101906112a091906123b3565b60015b611348576112af6123ea565b806308c379a00361130b57506112c3612409565b806112ce575061130d565b806040517f08c379a00000000000000000000000000000000000000000000000000000000081526004016113029190611600565b60405180910390fd5b505b6040517f08c379a000000000000000000000000000000000000000000000000000000000815260040161133f90612508565b60405180910390fd5b63f23a6e6160e01b7bffffffffffffffffffffffffffffffffffffffffffffffffffffffff1916817bffffffffffffffffffffffffffffffffffffffffffffffffffffffff1916146113cf576040517f08c379a00000000000000000000000000000000000000000000000000000000081526004016113c690612596565b60405180910390fd5b505b505050505050565b5f604051905090565b5f5ffd5b5f5ffd5b5f73ffffffffffffffffffffffffffffffffffffffff82169050919050565b5f611413826113ea565b9050919050565b61142381611409565b811461142d575f5ffd5b50565b5f8135905061143e8161141a565b92915050565b5f819050919050565b61145681611444565b8114611460575f5ffd5b50565b5f813590506114718161144d565b92915050565b5f5f6040838503121561148d5761148c6113e2565b5b5f61149a85828601611430565b92505060206114ab85828601611463565b9150509250929050565b6114be81611444565b82525050565b5f6020820190506114d75f8301846114b5565b92915050565b5f7fffffffff0000000000000000000000000000000000000000000000000000000082169050919050565b611511816114dd565b811461151b575f5ffd5b50565b5f8135905061152c81611508565b92915050565b5f60208284031215611547576115466113e2565b5b5f6115548482850161151e565b91505092915050565b5f8115159050919050565b6115718161155d565b82525050565b5f60208201905061158a5f830184611568565b92915050565b5f81519050919050565b5f82825260208201905092915050565b8281835e5f83830152505050565b5f601f19601f8301169050919050565b5f6115d282611590565b6115dc818561159a565b93506115ec8185602086016115aa565b6115f5816115b8565b840191505092915050565b5f6020820190508181035f83015261161881846115c8565b905092915050565b5f60208284031215611635576116346113e2565b5b5f61164284828501611463565b91505092915050565b5f5ffd5b7f4e487b71000000000000000000000000000000000000000000000000000000005f52604160045260245ffd5b611685826115b8565b810181811067ffffffffffffffff821117156116a4576116a361164f565b5b80604052505050565b5f6116b66113d9565b90506116c2828261167c565b919050565b5f67ffffffffffffffff8211156116e1576116e061164f565b5b602082029050602081019050919050565b5f5ffd5b5f611708611703846116c7565b6116ad565b9050808382526020820190506020840283018581111561172b5761172a6116f2565b5b835b8181101561175457806117408882611463565b84526020840193505060208101905061172d565b5050509392505050565b5f82601f8301126117725761177161164b565b5b81356117828482602086016116f6565b91505092915050565b5f5ffd5b5f67ffffffffffffffff8211156117a9576117a861164f565b5b6117b2826115b8565b9050602081019050919050565b828183375f83830152505050565b5f6117df6117da8461178f565b6116ad565b9050828152602081018484840111156117fb576117fa61178b565b5b6118068482856117bf565b509392505050565b5f82601f8301126118225761182161164b565b5b81356118328482602086016117cd565b91505092915050565b5f5f5f5f5f60a08688031215611854576118536113e2565b5b5f61186188828901611430565b955050602061187288828901611430565b945050604086013567ffffffffffffffff811115611893576118926113e6565b5b61189f8882890161175e565b935050606086013567ffffffffffffffff8111156118c0576118bf6113e6565b5b6118cc8882890161175e565b925050608086013567ffffffffffffffff8111156118ed576118ec6113e6565b5b6118f98882890161180e565b9150509295509295909350565b5f67ffffffffffffffff8211156119205761191f61164f565b5b602082029050602081019050919050565b5f61194361193e84611906565b6116ad565b90508083825260208201905060208402830185811115611966576119656116f2565b5b835b8181101561198f578061197b8882611430565b845260208401935050602081019050611968565b5050509392505050565b5f82601f8301126119ad576119ac61164b565b5b81356119bd848260208601611931565b91505092915050565b5f5f604083850312156119dc576119db6113e2565b5b5f83013567ffffffffffffffff8111156119f9576119f86113e6565b5b611a0585828601611999565b925050602083013567ffffffffffffffff811115611a2657611a256113e6565b5b611a328582860161175e565b9150509250929050565b5f81519050919050565b5f82825260208201905092915050565b5f819050602082019050919050565b611a6e81611444565b82525050565b5f611a7f8383611a65565b60208301905092915050565b5f602082019050919050565b5f611aa182611a3c565b611aab8185611a46565b9350611ab683611a56565b805f5b83811015611ae6578151611acd8882611a74565b9750611ad883611a8b565b925050600181019050611ab9565b5085935050505092915050565b5f6020820190508181035f830152611b0b8184611a97565b905092915050565b611b1c8161155d565b8114611b26575f5ffd5b50565b5f81359050611b3781611b13565b92915050565b5f5f60408385031215611b5357611b526113e2565b5b5f611b6085828601611430565b9250506020611b7185828601611b29565b9150509250929050565b5f5f60408385031215611b9157611b906113e2565b5b5f611b9e85828601611430565b9250506020611baf85828601611430565b9150509250929050565b5f5f5f5f5f60a08688031215611bd257611bd16113e2565b5b5f611bdf88828901611430565b9550506020611bf088828901611430565b9450506040611c0188828901611463565b9350506060611c1288828901611463565b925050608086013567ffffffffffffffff811115611c3357611c326113e6565b5b611c3f8882890161180e565b9150509295509295909350565b7f455243313135353a61646472657373207a65726f206973206e6f7420612076615f8201527f6c6964206f776e65720000000000000000000000000000000000000000000000602082015250565b5f611ca660298361159a565b9150611cb182611c4c565b604082019050919050565b5f6020820190508181035f830152611cd381611c9a565b9050919050565b7f4e487b71000000000000000000000000000000000000000000000000000000005f52602260045260245ffd5b5f6002820490506001821680611d1e57607f821691505b602082108103611d3157611d30611cda565b5b50919050565b5f81905092915050565b5f611d4b82611590565b611d558185611d37565b9350611d658185602086016115aa565b80840191505092915050565b5f611d7c8285611d41565b9150611d888284611d41565b91508190509392505050565b7f455243313135353a2063616c6c6572206973206e6f7420746f6b656e206f776e5f8201527f6572206e6f7220617070726f7665640000000000000000000000000000000000602082015250565b5f611dee602f8361159a565b9150611df982611d94565b604082019050919050565b5f6020820190508181035f830152611e1b81611de2565b9050919050565b7f455243313135353a2069647320616e6420616d6f756e7473206c656e677468205f8201527f6d69736d61746368000000000000000000000000000000000000000000000000602082015250565b5f611e7c60288361159a565b9150611e8782611e22565b604082019050919050565b5f6020820190508181035f830152611ea981611e70565b9050919050565b7f455243313135353a207472616e7366657220746f20746865207a65726f2061645f8201527f6472657373000000000000000000000000000000000000000000000000000000602082015250565b5f611f0a60258361159a565b9150611f1582611eb0565b604082019050919050565b5f6020820190508181035f830152611f3781611efe565b9050919050565b7f4e487b71000000000000000000000000000000000000000000000000000000005f52603260045260245ffd5b7f455243313135353a20696e73756666696369656e742062616c616e636520666f5f8201527f72207472616e7366657200000000000000000000000000000000000000000000602082015250565b5f611fc5602a8361159a565b9150611fd082611f6b565b604082019050919050565b5f6020820190508181035f830152611ff281611fb9565b9050919050565b5f6040820190508181035f8301526120118185611a97565b905081810360208301526120258184611a97565b90509392505050565b7f455243313135353a206163636f756e747320616e6420696473206c656e6774685f8201527f206d69736d617463680000000000000000000000000000000000000000000000602082015250565b5f61208860298361159a565b91506120938261202e565b604082019050919050565b5f6020820190508181035f8301526120b58161207c565b9050919050565b7f455243313135353a2073657474696e6720617070726f76616c207374617475735f8201527f20666f722073656c660000000000000000000000000000000000000000000000602082015250565b5f61211660298361159a565b9150612121826120bc565b604082019050919050565b5f6020820190508181035f8301526121438161210a565b9050919050565b7f4e487b71000000000000000000000000000000000000000000000000000000005f52601160045260245ffd5b5f61218182611444565b915061218c83611444565b92508282019050808211156121a4576121a361214a565b5b92915050565b5f6040820190506121bd5f8301856114b5565b6121ca60208301846114b5565b9392505050565b5f6121db82611444565b91507fffffffffffffffffffffffffffffffffffffffffffffffffffffffffffffffff820361220d5761220c61214a565b5b600182019050919050565b7f4e487b71000000000000000000000000000000000000000000000000000000005f52601260045260245ffd5b5f61224f82611444565b915061225a83611444565b92508261226a57612269612218565b5b828204905092915050565b5f61227f82611444565b915061228a83611444565b92508282039050818111156122a2576122a161214a565b5b92915050565b5f6122b282611444565b91506122bd83611444565b9250826122cd576122cc612218565b5b828206905092915050565b6122e181611409565b82525050565b5f81519050919050565b5f82825260208201905092915050565b5f61230b826122e7565b61231581856122f1565b93506123258185602086016115aa565b61232e816115b8565b840191505092915050565b5f60a08201905061234c5f8301886122d8565b61235960208301876122d8565b818103604083015261236b8186611a97565b9050818103606083015261237f8185611a97565b905081810360808301526123938184612301565b90509695505050505050565b5f815190506123ad81611508565b92915050565b5f602082840312156123c8576123c76113e2565b5b5f6123d58482850161239f565b91505092915050565b5f8160e01c9050919050565b5f60033d11156124065760045f5f3e6124035f516123de565b90505b90565b5f60443d106124955761241a6113d9565b60043d036004823e80513d602482011167ffffffffffffffff82111715612442575050612495565b808201805167ffffffffffffffff8111156124605750505050612495565b80602083010160043d03850181111561247d575050505050612495565b61248c8260200185018661167c565b82955050505050505b90565b7f455243313135353a207472616e7366657220746f206e6f6e2d455243313135355f8201527f526563656976657220696d706c656d656e746572000000000000000000000000602082015250565b5f6124f260348361159a565b91506124fd82612498565b604082019050919050565b5f6020820190508181035f83015261251f816124e6565b9050919050565b7f455243313135353a204552433131353552656365697665722072656a656374655f8201527f6420746f6b656e73000000000000000000000000000000000000000000000000602082015250565b5f61258060288361159a565b915061258b82612526565b604082019050919050565b5f6020820190508181035f8301526125ad81612574565b9050919050565b5f60a0820190506125c75f8301886122d8565b6125d460208301876122d8565b6125e160408301866114b5565b6125ee60608301856114b5565b81810360808301526126008184612301565b9050969550505050505056fea26469706673582212202a6071c43d359da0667dbff9f37b08dc01f87dfd228473e14f44778e8732db1464736f6c634300081e0033",
					"opcodes": "PUSH1 0x80 PUSH1 0x40 MSTORE CALLVALUE DUP1 ISZERO PUSH2 0xF JUMPI PUSH0 PUSH0 REVERT JUMPDEST POP PUSH1 0x40 MLOAD PUSH2 0x2B48 CODESIZE SUB DUP1 PUSH2 0x2B48 DUP4 CODECOPY DUP2 DUP2 ADD PUSH1 0x40 MSTORE DUP2 ADD SWAP1 PUSH2 0x31 SWAP2 SWAP1 PUSH2 0x1A4 JUMP JUMPDEST DUP2 PUSH0 SWAP1 DUP2 PUSH2 0x3F SWAP2 SWAP1 PUSH2 0x42A JUMP JUMPDEST POP DUP1 PUSH1 0x1 SWAP1 DUP2 PUSH2 0x4F SWAP2 SWAP1 PUSH2 0x42A JUMP JUMPDEST POP POP POP PUSH2 0x4F9 JUMP JUMPDEST PUSH0 PUSH1 0x40 MLOAD SWAP1 POP SWAP1 JUMP JUMPDEST PUSH0 PUSH0 REVERT JUMPDEST PUSH0 PUSH0 REVERT JUMPDEST PUSH0 PUSH0 REVERT JUMPDEST PUSH0 PUSH0 REVERT JUMPDEST PUSH0 PUSH1 0x1F NOT PUSH1 0x1F DUP4 ADD AND SWAP1 POP SWAP2 SWAP1 POP JUMP JUMPDEST PUSH32 0x4E487B7100000000000000000000000000000000000000000000000000000000 PUSH0 MSTORE PUSH1 0x41 PUSH1 0x4 MSTORE PUSH1 0x24 PUSH0 REVERT JUMPDEST PUSH2 0xB6 DUP3 PUSH2 0x70 JUMP JUMPDEST DUP2 ADD DUP2 DUP2 LT PUSH8 0xFFFFFFFFFFFFFFFF DUP3 GT OR ISZERO PUSH2 0xD5 JUMPI PUSH2 0xD4 PUSH2 0x80 JUMP JUMPDEST JUMPDEST DUP1 PUSH1 0x40 MSTORE POP POP POP JUMP JUMPDEST PUSH0 PUSH2 0xE7 PUSH2 0x57 JUMP JUMPDEST SWAP1 POP PUSH2 0xF3 DUP3 DUP3 PUSH2 0xAD JUMP JUMPDEST SWAP2 SWAP1 POP JUMP JUMPDEST PUSH0 PUSH8 0xFFFFFFFFFFFFFFFF DUP3 GT ISZERO PUSH2 0x112 JUMPI PUSH2 0x111 PUSH2 0x80 JUMP JUMPDEST JUMPDEST PUSH2 0x11B DUP3 PUSH2 0x70 JUMP JUMPDEST SWAP1 POP PUSH1 0x20 DUP2 ADD SWAP1 POP SWAP2 SWAP1 POP JUMP JUMPDEST DUP3 DUP2 DUP4 MCOPY PUSH0 DUP4 DUP4 ADD MSTORE POP POP POP JUMP JUMPDEST PUSH0 PUSH2 0x148 PUSH2 0x143 DUP5 PUSH2 0xF8 JUMP JUMPDEST PUSH2 0xDE JUMP JUMPDEST SWAP1 POP DUP3 DUP2 MSTORE PUSH1 0x20 DUP2 ADD DUP5 DUP5 DUP5 ADD GT ISZERO PUSH2 0x164 JUMPI PUSH2 0x163 PUSH2 0x6C JUMP JUMPDEST JUMPDEST PUSH2 0x16F DUP5 DUP3 DUP6 PUSH2 0x128 JUMP JUMPDEST POP SWAP4 SWAP3 POP POP POP JUMP JUMPDEST PUSH0 DUP3 PUSH1 0x1F DUP4 ADD SLT PUSH2 0x18B JUMPI PUSH2 0x18A PUSH2 0x68 JUMP JUMPDEST JUMPDEST DUP2 MLOAD PUSH2 0x19B DUP5 DUP3 PUSH1 0x20 DUP7 ADD PUSH2 0x136 JUMP JUMPDEST SWAP2 POP POP SWAP3 SWAP2 POP POP JUMP JUMPDEST PUSH0 PUSH0 PUSH1 0x40 DUP4 DUP6 SUB SLT ISZERO PUSH2 0x1BA JUMPI PUSH2 0x1B9 PUSH2 0x60 JUMP JUMPDEST JUMPDEST PUSH0 DUP4 ADD MLOAD PUSH8 0xFFFFFFFFFFFFFFFF DUP2 GT ISZERO PUSH2 0x1D7 JUMPI PUSH2 0x1D6 PUSH2 0x64 JUMP JUMPDEST JUMPDEST PUSH2 0x1E3 DUP6 DUP3 DUP7 ADD PUSH2 0x177 JUMP JUMPDEST SWAP3 POP POP PUSH1 0x20 DUP4 ADD MLOAD PUSH8 0xFFFFFFFFFFFFFFFF DUP2 GT ISZERO PUSH2 0x204 JUMPI PUSH2 0x203 PUSH2 0x64 JUMP JUMPDEST JUMPDEST PUSH2 0x210 DUP6 DUP3 DUP7 ADD PUSH2 0x177 JUMP JUMPDEST SWAP2 POP POP SWAP3 POP SWAP3 SWAP1 POP JUMP JUMPDEST PUSH0 DUP2 MLOAD SWAP1 POP SWAP2 SWAP1 POP JUMP JUMPDEST PUSH32 0x4E487B7100000000000000000000000000000000000000000000000000000000 PUSH0 MSTORE PUSH1 0x22 PUSH1 0x4 MSTORE PUSH1 0x24 PUSH0 REVERT JUMPDEST PUSH0 PUSH1 0x2 DUP3 DIV SWAP1 POP PUSH1 0x1 DUP3 AND DUP1 PUSH2 0x268 JUMPI PUSH1 0x7F DUP3 AND SWAP2 POP JUMPDEST PUSH1 0x20 DUP3 LT DUP2 SUB PUSH2 0x27B JUMPI PUSH2 0x27A PUSH2 0x224 JUMP JUMPDEST JUMPDEST POP SWAP2 SWAP1 POP JUMP JUMPDEST PUSH0 DUP2 SWAP1 POP DUP2 PUSH0 MSTORE PUSH1 0x20 PUSH0 KECCAK256 SWAP1 POP SWAP2 SWAP1 POP JUMP JUMPDEST PUSH0 PUSH1 0x20 PUSH1 0x1F DUP4 ADD DIV SWAP1 POP SWAP2 SWAP1 POP JUMP JUMPDEST PUSH0 DUP3 DUP3 SHL SWAP1 POP SWAP3 SWAP2 POP POP JUMP JUMPDEST PUSH0 PUSH1 0x8 DUP4 MUL PUSH2 0x2DD PUSH32 0xFFFFFFFFFFFFFFFFFFFFFFFFFFFFFFFFFFFFFFFFFFFFFFFFFFFFFFFFFFFFFFFF DUP3 PUSH2 0x2A2 JUMP JUMPDEST PUSH2 0x2E7 DUP7 DUP4 PUSH2 0x2A2 JUMP JUMPDEST SWAP6 POP DUP1 NOT DUP5 AND SWAP4 POP DUP1 DUP7 AND DUP5 OR SWAP3 POP POP POP SWAP4 SWAP3 POP POP POP JUMP JUMPDEST PUSH0 DUP2 SWAP1 POP SWAP2 SWAP1 POP JUMP JUMPDEST PUSH0 DUP2 SWAP1 POP SWAP2 SWAP1 POP JUMP JUMPDEST PUSH0 PUSH2 0x32B PUSH2 0x326 PUSH2 0x321 DUP5 PUSH2 0x2FF JUMP JUMPDEST PUSH2 0x308 JUMP JUMPDEST PUSH2 0x2FF JUMP JUMPDEST SWAP1 POP SWAP2 SWAP1 POP JUMP JUMPDEST PUSH0 DUP2 SWAP1 POP SWAP2 SWAP1 POP JUMP JUMPDEST PUSH2 0x344 DUP4 PUSH2 0x311 JUMP JUMPDEST PUSH2 0x358 PUSH2 0x350 DUP3 PUSH2 0x332 JUMP JUMPDEST DUP5 DUP5 SLOAD PUSH2 0x2AE JUMP JUMPDEST DUP3 SSTORE POP POP POP POP JUMP JUMPDEST PUSH0 PUSH0 SWAP1 POP SWAP1 JUMP JUMPDEST PUSH2 0x36F PUSH2 0x360 JUMP JUMPDEST PUSH2 0x37A DUP2 DUP5 DUP5 PUSH2 0x33B JUMP JUMPDEST POP POP POP JUMP JUMPDEST JUMPDEST DUP2 DUP2 LT ISZERO PUSH2 0x39D JUMPI PUSH2 0x392 PUSH0 DUP3 PUSH2 0x367 JUMP JUMPDEST PUSH1 0x1 DUP2 ADD SWAP1 POP PUSH2 0x380 JUMP JUMPDEST POP POP JUMP JUMPDEST PUSH1 0x1F DUP3 GT ISZERO PUSH2 0x3E2 JUMPI PUSH2 0x3B3 DUP2 PUSH2 0x281 JUMP JUMPDEST PUSH2 0x3BC DUP5 PUSH2 0x293 JUMP JUMPDEST DUP2 ADD PUSH1 0x20 DUP6 LT ISZERO PUSH2 0x3CB JUMPI DUP2 SWAP1 POP JUMPDEST PUSH2 0x3DF PUSH2 0x3D7 DUP6 PUSH2 0x293 JUMP JUMPDEST DUP4 ADD DUP3 PUSH2 0x37F JUMP JUMPDEST POP POP JUMPDEST POP POP POP JUMP JUMPDEST PUSH0 DUP3 DUP3 SHR SWAP1 POP SWAP3 SWAP2 POP POP JUMP JUMPDEST PUSH0 PUSH2 0x402 PUSH0 NOT DUP5 PUSH1 0x8 MUL PUSH2 0x3E7 JUMP JUMPDEST NOT DUP1 DUP4 AND SWAP2 POP POP SWAP3 SWAP2 POP POP JUMP JUMPDEST PUSH0 PUSH2 0x41A DUP4 DUP4 PUSH2 0x3F3 JUMP JUMPDEST SWAP2 POP DUP3 PUSH1 0x2 MUL DUP3 OR SWAP1 POP SWAP3 SWAP2 POP POP JUMP JUMPDEST PUSH2 0x433 DUP3 PUSH2 0x21A JUMP JUMPDEST PUSH8 0xFFFFFFFFFFFFFFFF DUP2 GT ISZERO PUSH2 0x44C JUMPI PUSH2 0x44B PUSH2 0x80 JUMP JUMPDEST JUMPDEST PUSH2 0x456 DUP3 SLOAD PUSH2 0x251 JUMP JUMPDEST PUSH2 0x461 DUP3 DUP3 DUP6 PUSH2 0x3A1 JUMP JUMPDEST PUSH0 PUSH1 0x20 SWAP1 POP PUSH1 0x1F DUP4 GT PUSH1 0x1 DUP2 EQ PUSH2 0x492 JUMPI PUSH0 DUP5 ISZERO PUSH2 0x480 JUMPI DUP3 DUP8 ADD MLOAD SWAP1 POP JUMPDEST PUSH2 0x48A DUP6 DUP3 PUSH2 0x40F JUMP JUMPDEST DUP7 SSTORE POP PUSH2 0x4F1 JUMP JUMPDEST PUSH1 0x1F NOT DUP5 AND PUSH2 0x4A0 DUP7 PUSH2 0x281 JUMP JUMPDEST PUSH0 JUMPDEST DUP3 DUP2 LT ISZERO PUSH2 0x4C7 JUMPI DUP5 DUP10 ADD MLOAD DUP3 SSTORE PUSH1 0x1 DUP3 ADD SWAP2 POP PUSH1 0x20 DUP6 ADD SWAP5 POP PUSH1 0x20 DUP2 ADD SWAP1 POP PUSH2 0x4A2 JUMP JUMPDEST DUP7 DUP4 LT ISZERO PUSH2 0x4E4 JUMPI DUP5 DUP10 ADD MLOAD PUSH2 0x4E0 PUSH1 0x1F DUP10 AND DUP3 PUSH2 0x3F3 JUMP JUMPDEST DUP4 SSTORE POP JUMPDEST PUSH1 0x1 PUSH1 0x2 DUP9 MUL ADD DUP9 SSTORE POP POP POP JUMPDEST POP POP POP POP POP POP JUMP JUMPDEST PUSH2 0x2642 DUP1 PUSH2 0x506 PUSH0 CODECOPY PUSH0 RETURN INVALID PUSH1 0x80 PUSH1 0x40 MSTORE CALLVALUE DUP1 ISZERO PUSH2 0xF JUMPI PUSH0 PUSH0 REVERT JUMPDEST POP PUSH1 0x4 CALLDATASIZE LT PUSH2 0x9B JUMPI PUSH0 CALLDATALOAD PUSH1 0xE0 SHR DUP1 PUSH4 0x4E1273F4 GT PUSH2 0x64 JUMPI DUP1 PUSH4 0x4E1273F4 EQ PUSH2 0x169 JUMPI DUP1 PUSH4 0x95D89B41 EQ PUSH2 0x199 JUMPI DUP1 PUSH4 0xA22CB465 EQ PUSH2 0x1B7 JUMPI DUP1 PUSH4 0xE985E9C5 EQ PUSH2 0x1D3 JUMPI DUP1 PUSH4 0xF242432A EQ PUSH2 0x203 JUMPI PUSH2 0x9B JUMP JUMPDEST DUP1 PUSH3 0xFDD58E EQ PUSH2 0x9F JUMPI DUP1 PUSH4 0x1FFC9A7 EQ PUSH2 0xCF JUMPI DUP1 PUSH4 0x6FDDE03 EQ PUSH2 0xFF JUMPI DUP1 PUSH4 0xE89341C EQ PUSH2 0x11D JUMPI DUP1 PUSH4 0x2EB2C2D6 EQ PUSH2 0x14D JUMPI JUMPDEST PUSH0 PUSH0 REVERT JUMPDEST PUSH2 0xB9 PUSH1 0x4 DUP1 CALLDATASIZE SUB DUP2 ADD SWAP1 PUSH2 0xB4 SWAP2 SWAP1 PUSH2 0x1477 JUMP JUMPDEST PUSH2 0x21F JUMP JUMPDEST PUSH1 0x40 MLOAD PUSH2 0xC6 SWAP2 SWAP1 PUSH2 0x14C4 JUMP JUMPDEST PUSH1 0x40 MLOAD DUP1 SWAP2 SUB SWAP1 RETURN JUMPDEST PUSH2 0xE9 PUSH1 0x4 DUP1 CALLDATASIZE SUB DUP2 ADD SWAP1 PUSH2 0xE4 SWAP2 SWAP1 PUSH2 0x1532 JUMP JUMPDEST PUSH2 0x2E3 JUMP JUMPDEST PUSH1 0x40 MLOAD PUSH2 0xF6 SWAP2 SWAP1 PUSH2 0x1577 JUMP JUMPDEST PUSH1 0x40 MLOAD DUP1 SWAP2 SUB SWAP1 RETURN JUMPDEST PUSH2 0x107 PUSH2 0x41C JUMP JUMPDEST PUSH1 0x40 MLOAD PUSH2 0x114 SWAP2 SWAP1 PUSH2 0x1600 JUMP JUMPDEST PUSH1 0x40 MLOAD DUP1 SWAP2 SUB SWAP1 RETURN JUMPDEST PUSH2 0x137 PUSH1 0x4 DUP1 CALLDATASIZE SUB DUP2 ADD SWAP1 PUSH2 0x132 SWAP2 SWAP1 PUSH2 0x1620 JUMP JUMPDEST PUSH2 0x4A7 JUMP JUMPDEST PUSH1 0x40 MLOAD PUSH2 0x144 SWAP2 SWAP1 PUSH2 0x1600 JUMP JUMPDEST PUSH1 0x40 MLOAD DUP1 SWAP2 SUB SWAP1 RETURN JUMPDEST PUSH2 0x167 PUSH1 0x4 DUP1 CALLDATASIZE SUB DUP2 ADD SWAP1 PUSH2 0x162 SWAP2 SWAP1 PUSH2 0x183B JUMP JUMPDEST PUSH2 0x503 JUMP JUMPDEST STOP JUMPDEST PUSH2 0x183 PUSH1 0x4 DUP1 CALLDATASIZE SUB DUP2 ADD SWAP1 PUSH2 0x17E SWAP2 SWAP1 PUSH2 0x19C6 JUMP JUMPDEST PUSH2 0x864 JUMP JUMPDEST PUSH1 0x40 MLOAD PUSH2 0x190 SWAP2 SWAP1 PUSH2 0x1AF3 JUMP JUMPDEST PUSH1 0x40 MLOAD DUP1 SWAP2 SUB SWAP1 RETURN JUMPDEST PUSH2 0x1A1 PUSH2 0x97A JUMP JUMPDEST PUSH1 0x40 MLOAD PUSH2 0x1AE SWAP2 SWAP1 PUSH2 0x1600 JUMP JUMPDEST PUSH1 0x40 MLOAD DUP1 SWAP2 SUB SWAP1 RETURN JUMPDEST PUSH2 0x1D1 PUSH1 0x4 DUP1 CALLDATASIZE SUB DUP2 ADD SWAP1 PUSH2 0x1CC SWAP2 SWAP1 PUSH2 0x1B3D JUMP JUMPDEST PUSH2 0xA06 JUMP JUMPDEST STOP JUMPDEST PUSH2 0x1ED PUSH1 0x4 DUP1 CALLDATASIZE SUB DUP2 ADD SWAP1 PUSH2 0x1E8 SWAP2 SWAP1 PUSH2 0x1B7B JUMP JUMPDEST PUSH2 0xB6C JUMP JUMPDEST PUSH1 0x40 MLOAD PUSH2 0x1FA SWAP2 SWAP1 PUSH2 0x1577 JUMP JUMPDEST PUSH1 0x40 MLOAD DUP1 SWAP2 SUB SWAP1 RETURN JUMPDEST PUSH2 0x21D PUSH1 0x4 DUP1 CALLDATASIZE SUB DUP2 ADD SWAP1 PUSH2 0x218 SWAP2 SWAP1 PUSH2 0x1BB9 JUMP JUMPDEST PUSH2 0xBFA JUMP JUMPDEST STOP JUMPDEST PUSH0 PUSH0 PUSH20 0xFFFFFFFFFFFFFFFFFFFFFFFFFFFFFFFFFFFFFFFF AND DUP4 PUSH20 0xFFFFFFFFFFFFFFFFFFFFFFFFFFFFFFFFFFFFFFFF AND SUB PUSH2 0x28E JUMPI PUSH1 0x40 MLOAD PUSH32 0x8C379A000000000000000000000000000000000000000000000000000000000 DUP2 MSTORE PUSH1 0x4 ADD PUSH2 0x285 SWAP1 PUSH2 0x1CBC JUMP JUMPDEST PUSH1 0x40 MLOAD DUP1 SWAP2 SUB SWAP1 REVERT JUMPDEST PUSH1 0x2 PUSH0 DUP4 DUP2 MSTORE PUSH1 0x20 ADD SWAP1 DUP2 MSTORE PUSH1 0x20 ADD PUSH0 KECCAK256 PUSH0 DUP5 PUSH20 0xFFFFFFFFFFFFFFFFFFFFFFFFFFFFFFFFFFFFFFFF AND PUSH20 0xFFFFFFFFFFFFFFFFFFFFFFFFFFFFFFFFFFFFFFFF AND DUP2 MSTORE PUSH1 0x20 ADD SWAP1 DUP2 MSTORE PUSH1 0x20 ADD PUSH0 KECCAK256 SLOAD SWAP1 POP SWAP3 SWAP2 POP POP JUMP JUMPDEST PUSH0 PUSH32 0xD9B67A2600000000000000000000000000000000000000000000000000000000 PUSH28 0xFFFFFFFFFFFFFFFFFFFFFFFFFFFFFFFFFFFFFFFFFFFFFFFFFFFFFFFF NOT AND DUP3 PUSH28 0xFFFFFFFFFFFFFFFFFFFFFFFFFFFFFFFFFFFFFFFFFFFFFFFFFFFFFFFF NOT AND EQ DUP1 PUSH2 0x3AD JUMPI POP PUSH32 0xE89341C00000000000000000000000000000000000000000000000000000000 PUSH28 0xFFFFFFFFFFFFFFFFFFFFFFFFFFFFFFFFFFFFFFFFFFFFFFFFFFFFFFFF NOT AND DUP3 PUSH28 0xFFFFFFFFFFFFFFFFFFFFFFFFFFFFFFFFFFFFFFFFFFFFFFFFFFFFFFFF NOT AND EQ JUMPDEST DUP1 PUSH2 0x415 JUMPI POP PUSH32 0x1FFC9A700000000000000000000000000000000000000000000000000000000 PUSH28 0xFFFFFFFFFFFFFFFFFFFFFFFFFFFFFFFFFFFFFFFFFFFFFFFFFFFFFFFF NOT AND DUP3 PUSH28 0xFFFFFFFFFFFFFFFFFFFFFFFFFFFFFFFFFFFFFFFFFFFFFFFFFFFFFFFF NOT AND EQ JUMPDEST SWAP1 POP SWAP2 SWAP1 POP JUMP JUMPDEST PUSH0 DUP1 SLOAD PUSH2 0x428 SWAP1 PUSH2 0x1D07 JUMP JUMPDEST DUP1 PUSH1 0x1F ADD PUSH1 0x20 DUP1 SWAP2 DIV MUL PUSH1 0x20 ADD PUSH1 0x40 MLOAD SWAP1 DUP2 ADD PUSH1 0x40 MSTORE DUP1 SWAP3 SWAP2 SWAP1 DUP2 DUP2 MSTORE PUSH1 0x20 ADD DUP3 DUP1 SLOAD PUSH2 0x454 SWAP1 PUSH2 0x1D07 JUMP JUMPDEST DUP1 ISZERO PUSH2 0x49F JUMPI DUP1 PUSH1 0x1F LT PUSH2 0x476 JUMPI PUSH2 0x100 DUP1 DUP4 SLOAD DIV MUL DUP4 MSTORE SWAP2 PUSH1 0x20 ADD SWAP2 PUSH2 0x49F JUMP JUMPDEST DUP3 ADD SWAP2 SWAP1 PUSH0 MSTORE PUSH1 0x20 PUSH0 KECCAK256 SWAP1 JUMPDEST DUP2 SLOAD DUP2 MSTORE SWAP1 PUSH1 0x1 ADD SWAP1 PUSH1 0x20 ADD DUP1 DUP4 GT PUSH2 0x482 JUMPI DUP3 SWAP1 SUB PUSH1 0x1F AND DUP3 ADD SWAP2 JUMPDEST POP POP POP POP POP DUP2 JUMP JUMPDEST PUSH1 0x60 PUSH0 PUSH2 0x4B2 PUSH2 0xEC8 JUMP JUMPDEST SWAP1 POP PUSH0 DUP2 MLOAD GT PUSH2 0x4D0 JUMPI PUSH1 0x40 MLOAD DUP1 PUSH1 0x20 ADD PUSH1 0x40 MSTORE DUP1 PUSH0 DUP2 MSTORE POP PUSH2 0x4FB JUMP JUMPDEST DUP1 PUSH2 0x4DA DUP5 PUSH2 0xEDE JUMP JUMPDEST PUSH1 0x40 MLOAD PUSH1 0x20 ADD PUSH2 0x4EB SWAP3 SWAP2 SWAP1 PUSH2 0x1D71 JUMP JUMPDEST PUSH1 0x40 MLOAD PUSH1 0x20 DUP2 DUP4 SUB SUB DUP2 MSTORE SWAP1 PUSH1 0x40 MSTORE JUMPDEST SWAP2 POP POP SWAP2 SWAP1 POP JUMP JUMPDEST PUSH0 CALLER SWAP1 POP DUP1 PUSH20 0xFFFFFFFFFFFFFFFFFFFFFFFFFFFFFFFFFFFFFFFF AND DUP7 PUSH20 0xFFFFFFFFFFFFFFFFFFFFFFFFFFFFFFFFFFFFFFFF AND EQ DUP1 PUSH2 0x547 JUMPI POP PUSH2 0x546 DUP7 DUP3 PUSH2 0xB6C JUMP JUMPDEST JUMPDEST PUSH2 0x586 JUMPI PUSH1 0x40 MLOAD PUSH32 0x8C379A000000000000000000000000000000000000000000000000000000000 DUP2 MSTORE PUSH1 0x4 ADD PUSH2 0x57D SWAP1 PUSH2 0x1E04 JUMP JUMPDEST PUSH1 0x40 MLOAD DUP1 SWAP2 SUB SWAP1 REVERT JUMPDEST DUP3 MLOAD DUP5 MLOAD EQ PUSH2 0x5CA JUMPI PUSH1 0x40 MLOAD PUSH32 0x8C379A000000000000000000000000000000000000000000000000000000000 DUP2 MSTORE PUSH1 0x4 ADD PUSH2 0x5C1 SWAP1 PUSH2 0x1E92 JUMP JUMPDEST PUSH1 0x40 MLOAD DUP1 SWAP2 SUB SWAP1 REVERT JUMPDEST PUSH0 PUSH20 0xFFFFFFFFFFFFFFFFFFFFFFFFFFFFFFFFFFFFFFFF AND DUP6 PUSH20 0xFFFFFFFFFFFFFFFFFFFFFFFFFFFFFFFFFFFFFFFF AND SUB PUSH2 0x638 JUMPI PUSH1 0x40 MLOAD PUSH32 0x8C379A000000000000000000000000000000000000000000000000000000000 DUP2 MSTORE PUSH1 0x4 ADD PUSH2 0x62F SWAP1 PUSH2 0x1F20 JUMP JUMPDEST PUSH1 0x40 MLOAD DUP1 SWAP2 SUB SWAP1 REVERT JUMPDEST PUSH0 PUSH0 SWAP1 POP JUMPDEST DUP5 MLOAD DUP2 LT ISZERO PUSH2 0x7CF JUMPI PUSH0 DUP6 DUP3 DUP2 MLOAD DUP2 LT PUSH2 0x65A JUMPI PUSH2 0x659 PUSH2 0x1F3E JUMP JUMPDEST JUMPDEST PUSH1 0x20 MUL PUSH1 0x20 ADD ADD MLOAD SWAP1 POP PUSH0 DUP6 DUP4 DUP2 MLOAD DUP2 LT PUSH2 0x678 JUMPI PUSH2 0x677 PUSH2 0x1F3E JUMP JUMPDEST JUMPDEST PUSH1 0x20 MUL PUSH1 0x20 ADD ADD MLOAD SWAP1 POP PUSH0 PUSH1 0x2 PUSH0 DUP5 DUP2 MSTORE PUSH1 0x20 ADD SWAP1 DUP2 MSTORE PUSH1 0x20 ADD PUSH0 KECCAK256 PUSH0 DUP12 PUSH20 0xFFFFFFFFFFFFFFFFFFFFFFFFFFFFFFFFFFFFFFFF AND PUSH20 0xFFFFFFFFFFFFFFFFFFFFFFFFFFFFFFFFFFFFFFFF AND DUP2 MSTORE PUSH1 0x20 ADD SWAP1 DUP2 MSTORE PUSH1 0x20 ADD PUSH0 KECCAK256 SLOAD SWAP1 POP DUP2 DUP2 LT ISZERO PUSH2 0x715 JUMPI PUSH1 0x40 MLOAD PUSH32 0x8C379A000000000000000000000000000000000000000000000000000000000 DUP2 MSTORE PUSH1 0x4 ADD PUSH2 0x70C SWAP1 PUSH2 0x1FDB JUMP JUMPDEST PUSH1 0x40 MLOAD DUP1 SWAP2 SUB SWAP1 REVERT JUMPDEST DUP2 DUP2 SUB PUSH1 0x2 PUSH0 DUP6 DUP2 MSTORE PUSH1 0x20 ADD SWAP1 DUP2 MSTORE PUSH1 0x20 ADD PUSH0 KECCAK256 PUSH0 DUP13 PUSH20 0xFFFFFFFFFFFFFFFFFFFFFFFFFFFFFFFFFFFFFFFF AND PUSH20 0xFFFFFFFFFFFFFFFFFFFFFFFFFFFFFFFFFFFFFFFF AND DUP2 MSTORE PUSH1 0x20 ADD SWAP1 DUP2 MSTORE PUSH1 0x20 ADD PUSH0 KECCAK256 DUP2 SWAP1 SSTORE POP DUP2 PUSH1 0x2 PUSH0 DUP6 DUP2 MSTORE PUSH1 0x20 ADD SWAP1 DUP2 MSTORE PUSH1 0x20 ADD PUSH0 KECCAK256 PUSH0 DUP12 PUSH20 0xFFFFFFFFFFFFFFFFFFFFFFFFFFFFFFFFFFFFFFFF AND PUSH20 0xFFFFFFFFFFFFFFFFFFFFFFFFFFFFFFFFFFFFFFFF AND DUP2 MSTORE PUSH1 0x20 ADD SWAP1 DUP2 MSTORE PUSH1 0x20 ADD PUSH0 KECCAK256 PUSH0 DUP3 DUP3 SLOAD ADD SWAP3 POP POP DUP2 SWAP1 SSTORE POP POP POP POP DUP1 PUSH1 0x1 ADD SWAP1 POP PUSH2 0x63D JUMP JUMPDEST POP DUP5 PUSH20 0xFFFFFFFFFFFFFFFFFFFFFFFFFFFFFFFFFFFFFFFF AND DUP7 PUSH20 0xFFFFFFFFFFFFFFFFFFFFFFFFFFFFFFFFFFFFFFFF AND DUP3 PUSH20 0xFFFFFFFFFFFFFFFFFFFFFFFFFFFFFFFFFFFFFFFF AND PUSH32 0x4A39DC06D4C0DBC64B70AF90FD698A233A518AA5D07E595D983B8C0526C8F7FB DUP8 DUP8 PUSH1 0x40 MLOAD PUSH2 0x846 SWAP3 SWAP2 SWAP1 PUSH2 0x1FF9 JUMP JUMPDEST PUSH1 0x40 MLOAD DUP1 SWAP2 SUB SWAP1 LOG4 PUSH2 0x85C DUP2 DUP8 DUP8 DUP8 DUP8 DUP8 PUSH2 0x1037 JUMP JUMPDEST POP POP POP POP POP POP JUMP JUMPDEST PUSH1 0x60 DUP2 MLOAD DUP4 MLOAD EQ PUSH2 0x8AA JUMPI PUSH1 0x40 MLOAD PUSH32 0x8C379A000000000000000000000000000000000000000000000000000000000 DUP2 MSTORE PUSH1 0x4 ADD PUSH2 0x8A1 SWAP1 PUSH2 0x209E JUMP JUMPDEST PUSH1 0x40 MLOAD DUP1 SWAP2 SUB SWAP1 REVERT JUMPDEST PUSH0 DUP4 MLOAD PUSH8 0xFFFFFFFFFFFFFFFF DUP2 GT ISZERO PUSH2 0x8C6 JUMPI PUSH2 0x8C5 PUSH2 0x164F JUMP JUMPDEST JUMPDEST PUSH1 0x40 MLOAD SWAP1 DUP1 DUP3 MSTORE DUP1 PUSH1 0x20 MUL PUSH1 0x20 ADD DUP3 ADD PUSH1 0x40 MSTORE DUP1 ISZERO PUSH2 0x8F4 JUMPI DUP2 PUSH1 0x20 ADD PUSH1 0x20 DUP3 MUL DUP1 CALLDATASIZE DUP4 CALLDATACOPY DUP1 DUP3 ADD SWAP2 POP POP SWAP1 POP JUMPDEST POP SWAP1 POP PUSH0 PUSH0 SWAP1 POP JUMPDEST DUP5 MLOAD DUP2 LT ISZERO PUSH2 0x96F JUMPI PUSH2 0x943 DUP6 DUP3 DUP2 MLOAD DUP2 LT PUSH2 0x91B JUMPI PUSH2 0x91A PUSH2 0x1F3E JUMP JUMPDEST JUMPDEST PUSH1 0x20 MUL PUSH1 0x20 ADD ADD MLOAD DUP6 DUP4 DUP2 MLOAD DUP2 LT PUSH2 0x936 JUMPI PUSH2 0x935 PUSH2 0x1F3E JUMP JUMPDEST JUMPDEST PUSH1 0x20 MUL PUSH1 0x20 ADD ADD MLOAD PUSH2 0x21F JUMP JUMPDEST DUP3 DUP3 DUP2 MLOAD DUP2 LT PUSH2 0x956 JUMPI PUSH2 0x955 PUSH2 0x1F3E JUMP JUMPDEST JUMPDEST PUSH1 0x20 MUL PUSH1 0x20 ADD ADD DUP2 DUP2 MSTORE POP POP DUP1 DUP1 PUSH1 0x1 ADD SWAP2 POP POP PUSH2 0x8FC JUMP JUMPDEST POP DUP1 SWAP2 POP POP SWAP3 SWAP2 POP POP JUMP JUMPDEST PUSH1 0x1 DUP1 SLOAD PUSH2 0x987 SWAP1 PUSH2 0x1D07 JUMP JUMPDEST DUP1 PUSH1 0x1F ADD PUSH1 0x20 DUP1 SWAP2 DIV MUL PUSH1 0x20 ADD PUSH1 0x40 MLOAD SWAP1 DUP2 ADD PUSH1 0x40 MSTORE DUP1 SWAP3 SWAP2 SWAP1 DUP2 DUP2 MSTORE PUSH1 0x20 ADD DUP3 DUP1 SLOAD PUSH2 0x9B3 SWAP1 PUSH2 0x1D07 JUMP JUMPDEST DUP1 ISZERO PUSH2 0x9FE JUMPI DUP1 PUSH1 0x1F LT PUSH2 0x9D5 JUMPI PUSH2 0x100 DUP1 DUP4 SLOAD DIV MUL DUP4 MSTORE SWAP2 PUSH1 0x20 ADD SWAP2 PUSH2 0x9FE JUMP JUMPDEST DUP3 ADD SWAP2 SWAP1 PUSH0 MSTORE PUSH1 0x20 PUSH0 KECCAK256 SWAP1 JUMPDEST DUP2 SLOAD DUP2 MSTORE SWAP1 PUSH1 0x1 ADD SWAP1 PUSH1 0x20 ADD DUP1 DUP4 GT PUSH2 0x9E1 JUMPI DUP3 SWAP1 SUB PUSH1 0x1F AND DUP3 ADD SWAP2 JUMPDEST POP POP POP POP POP DUP2 JUMP JUMPDEST DUP2 PUSH20 0xFFFFFFFFFFFFFFFFFFFFFFFFFFFFFFFFFFFFFFFF AND CALLER PUSH20 0xFFFFFFFFFFFFFFFFFFFFFFFFFFFFFFFFFFFFFFFF AND SUB PUSH2 0xA74 JUMPI PUSH1 0x40 MLOAD PUSH32 0x8C379A000000000000000000000000000000000000000000000000000000000 DUP2 MSTORE PUSH1 0x4 ADD PUSH2 0xA6B SWAP1 PUSH2 0x212C JUMP JUMPDEST PUSH1 0x40 MLOAD DUP1 SWAP2 SUB SWAP1 REVERT JUMPDEST DUP1 PUSH1 0x3 PUSH0 CALLER PUSH20 0xFFFFFFFFFFFFFFFFFFFFFFFFFFFFFFFFFFFFFFFF AND PUSH20 0xFFFFFFFFFFFFFFFFFFFFFFFFFFFFFFFFFFFFFFFF AND DUP2 MSTORE PUSH1 0x20 ADD SWAP1 DUP2 MSTORE PUSH1 0x20 ADD PUSH0 KECCAK256 PUSH0 DUP5 PUSH20 0xFFFFFFFFFFFFFFFFFFFFFFFFFFFFFFFFFFFFFFFF AND PUSH20 0xFFFFFFFFFFFFFFFFFFFFFFFFFFFFFFFFFFFFFFFF AND DUP2 MSTORE PUSH1 0x20 ADD SWAP1 DUP2 MSTORE PUSH1 0x20 ADD PUSH0 KECCAK256 PUSH0 PUSH2 0x100 EXP DUP2 SLOAD DUP2 PUSH1 0xFF MUL NOT AND SWAP1 DUP4 ISZERO ISZERO MUL OR SWAP1 SSTORE POP DUP2 PUSH20 0xFFFFFFFFFFFFFFFFFFFFFFFFFFFFFFFFFFFFFFFF AND CALLER PUSH20 0xFFFFFFFFFFFFFFFFFFFFFFFFFFFFFFFFFFFFFFFF AND PUSH32 0x17307EAB39AB6107E8899845AD3D59BD9653F200F220920489CA2B5937696C31 DUP4 PUSH1 0x40 MLOAD PUSH2 0xB60 SWAP2 SWAP1 PUSH2 0x1577 JUMP JUMPDEST PUSH1 0x40 MLOAD DUP1 SWAP2 SUB SWAP1 LOG3 POP POP JUMP JUMPDEST PUSH0 PUSH1 0x3 PUSH0 DUP5 PUSH20 0xFFFFFFFFFFFFFFFFFFFFFFFFFFFFFFFFFFFFFFFF AND PUSH20 0xFFFFFFFFFFFFFFFFFFFFFFFFFFFFFFFFFFFFFFFF AND DUP2 MSTORE PUSH1 0x20 ADD SWAP1 DUP2 MSTORE PUSH1 0x20 ADD PUSH0 KECCAK256 PUSH0 DUP4 PUSH20 0xFFFFFFFFFFFFFFFFFFFFFFFFFFFFFFFFFFFFFFFF AND PUSH20 0xFFFFFFFFFFFFFFFFFFFFFFFFFFFFFFFFFFFFFFFF AND DUP2 MSTORE PUSH1 0x20 ADD SWAP1 DUP2 MSTORE PUSH1 0x20 ADD PUSH0 KECCAK256 PUSH0 SWAP1 SLOAD SWAP1 PUSH2 0x100 EXP SWAP1 DIV PUSH1 0xFF AND SWAP1 POP SWAP3 SWAP2 POP POP JUMP JUMPDEST PUSH0 CALLER SWAP1 POP DUP1 PUSH20 0xFFFFFFFFFFFFFFFFFFFFFFFFFFFFFFFFFFFFFFFF AND DUP7 PUSH20 0xFFFFFFFFFFFFFFFFFFFFFFFFFFFFFFFFFFFFFFFF AND EQ DUP1 PUSH2 0xC3E JUMPI POP PUSH2 0xC3D DUP7 DUP3 PUSH2 0xB6C JUMP JUMPDEST JUMPDEST PUSH2 0xC7D JUMPI PUSH1 0x40 MLOAD PUSH32 0x8C379A000000000000000000000000000000000000000000000000000000000 DUP2 MSTORE PUSH1 0x4 ADD PUSH2 0xC74 SWAP1 PUSH2 0x1E04 JUMP JUMPDEST PUSH1 0x40 MLOAD DUP1 SWAP2 SUB SWAP1 REVERT JUMPDEST PUSH0 PUSH20 0xFFFFFFFFFFFFFFFFFFFFFFFFFFFFFFFFFFFFFFFF AND DUP6 PUSH20 0xFFFFFFFFFFFFFFFFFFFFFFFFFFFFFFFFFFFFFFFF AND SUB PUSH2 0xCEB JUMPI PUSH1 0x40 MLOAD PUSH32 0x8C379A000000000000000000000000000000000000000000000000000000000 DUP2 MSTORE PUSH1 0x4 ADD PUSH2 0xCE2 SWAP1 PUSH2 0x1F20 JUMP JUMPDEST PUSH1 0x40 MLOAD DUP1 SWAP2 SUB SWAP1 REVERT JUMPDEST PUSH0 PUSH1 0x2 PUSH0 DUP7 DUP2 MSTORE PUSH1 0x20 ADD SWAP1 DUP2 MSTORE PUSH1 0x20 ADD PUSH0 KECCAK256 PUSH0 DUP9 PUSH20 0xFFFFFFFFFFFFFFFFFFFFFFFFFFFFFFFFFFFFFFFF AND PUSH20 0xFFFFFFFFFFFFFFFFFFFFFFFFFFFFFFFFFFFFFFFF AND DUP2 MSTORE PUSH1 0x20 ADD SWAP1 DUP2 MSTORE PUSH1 0x20 ADD PUSH0 KECCAK256 SLOAD SWAP1 POP DUP4 DUP2 LT ISZERO PUSH2 0xD7E JUMPI PUSH1 0x40 MLOAD PUSH32 0x8C379A000000000000000000000000000000000000000000000000000000000 DUP2 MSTORE PUSH1 0x4 ADD PUSH2 0xD75 SWAP1 PUSH2 0x1FDB JUMP JUMPDEST PUSH1 0x40 MLOAD DUP1 SWAP2 SUB SWAP1 REVERT JUMPDEST DUP4 DUP2 SUB PUSH1 0x2 PUSH0 DUP8 DUP2 MSTORE PUSH1 0x20 ADD SWAP1 DUP2 MSTORE PUSH1 0x20 ADD PUSH0 KECCAK256 PUSH0 DUP10 PUSH20 0xFFFFFFFFFFFFFFFFFFFFFFFFFFFFFFFFFFFFFFFF AND PUSH20 0xFFFFFFFFFFFFFFFFFFFFFFFFFFFFFFFFFFFFFFFF AND DUP2 MSTORE PUSH1 0x20 ADD SWAP1 DUP2 MSTORE PUSH1 0x20 ADD PUSH0 KECCAK256 DUP2 SWAP1 SSTORE POP DUP4 PUSH1 0x2 PUSH0 DUP8 DUP2 MSTORE PUSH1 0x20 ADD SWAP1 DUP2 MSTORE PUSH1 0x20 ADD PUSH0 KECCAK256 PUSH0 DUP9 PUSH20 0xFFFFFFFFFFFFFFFFFFFFFFFFFFFFFFFFFFFFFFFF AND PUSH20 0xFFFFFFFFFFFFFFFFFFFFFFFFFFFFFFFFFFFFFFFF AND DUP2 MSTORE PUSH1 0x20 ADD SWAP1 DUP2 MSTORE PUSH1 0x20 ADD PUSH0 KECCAK256 PUSH0 DUP3 DUP3 SLOAD PUSH2 0xE2C SWAP2 SWAP1 PUSH2 0x2177 JUMP JUMPDEST SWAP3 POP POP DUP2 SWAP1 SSTORE POP DUP6 PUSH20 0xFFFFFFFFFFFFFFFFFFFFFFFFFFFFFFFFFFFFFFFF AND DUP8 PUSH20 0xFFFFFFFFFFFFFFFFFFFFFFFFFFFFFFFFFFFFFFFF AND DUP4 PUSH20 0xFFFFFFFFFFFFFFFFFFFFFFFFFFFFFFFFFFFFFFFF AND PUSH32 0xC3D58168C5AE7397731D063D5BBF3D657854427343F4C083240F7AACAA2D0F62 DUP9 DUP9 PUSH1 0x40 MLOAD PUSH2 0xEA9 SWAP3 SWAP2 SWAP1 PUSH2 0x21AA JUMP JUMPDEST PUSH1 0x40 MLOAD DUP1 SWAP2 SUB SWAP1 LOG4 PUSH2 0xEBF DUP3 DUP9 DUP9 DUP9 DUP9 DUP9 PUSH2 0x1208 JUMP JUMPDEST POP POP POP POP POP POP POP JUMP JUMPDEST PUSH1 0x60 PUSH1 0x40 MLOAD DUP1 PUSH1 0x20 ADD PUSH1 0x40 MSTORE DUP1 PUSH0 DUP2 MSTORE POP SWAP1 POP SWAP1 JUMP JUMPDEST PUSH1 0x60 PUSH0 DUP3 SUB PUSH2 0xF24 JUMPI PUSH1 0x40 MLOAD DUP1 PUSH1 0x40 ADD PUSH1 0x40 MSTORE DUP1 PUSH1 0x1 DUP2 MSTORE PUSH1 0x20 ADD PUSH32 0x3000000000000000000000000000000000000000000000000000000000000000 DUP2 MSTORE POP SWAP1 POP PUSH2 0x1032 JUMP JUMPDEST PUSH0 DUP3 SWAP1 POP PUSH0 JUMPDEST PUSH0 DUP3 EQ PUSH2 0xF53 JUMPI DUP1 DUP1 PUSH2 0xF3C SWAP1 PUSH2 0x21D1 JUMP JUMPDEST SWAP2 POP POP PUSH1 0xA DUP3 PUSH2 0xF4C SWAP2 SWAP1 PUSH2 0x2245 JUMP JUMPDEST SWAP2 POP PUSH2 0xF2A JUMP JUMPDEST PUSH0 DUP2 PUSH8 0xFFFFFFFFFFFFFFFF DUP2 GT ISZERO PUSH2 0xF6E JUMPI PUSH2 0xF6D PUSH2 0x164F JUMP JUMPDEST JUMPDEST PUSH1 0x40 MLOAD SWAP1 DUP1 DUP3 MSTORE DUP1 PUSH1 0x1F ADD PUSH1 0x1F NOT AND PUSH1 0x20 ADD DUP3 ADD PUSH1 0x40 MSTORE DUP1 ISZERO PUSH2 0xFA0 JUMPI DUP2 PUSH1 0x20 ADD PUSH1 0x1 DUP3 MUL DUP1 CALLDATASIZE DUP4 CALLDATACOPY DUP1 DUP3 ADD SWAP2 POP POP SWAP1 POP JUMPDEST POP SWAP1 POP JUMPDEST PUSH0 DUP6 EQ PUSH2 0x102B JUMPI PUSH1 0x1 DUP3 PUSH2 0xFB8 SWAP2 SWAP1 PUSH2 0x2275 JUMP JUMPDEST SWAP2 POP PUSH1 0xA DUP6 PUSH2 0xFC7 SWAP2 SWAP1 PUSH2 0x22A8 JUMP JUMPDEST PUSH1 0x30 PUSH2 0xFD3 SWAP2 SWAP1 PUSH2 0x2177 JUMP JUMPDEST PUSH1 0xF8 SHL DUP2 DUP4 DUP2 MLOAD DUP2 LT PUSH2 0xFE9 JUMPI PUSH2 0xFE8 PUSH2 0x1F3E JUMP JUMPDEST JUMPDEST PUSH1 0x20 ADD ADD SWAP1 PUSH31 0xFFFFFFFFFFFFFFFFFFFFFFFFFFFFFFFFFFFFFFFFFFFFFFFFFFFFFFFFFFFFFF NOT AND SWAP1 DUP2 PUSH0 BYTE SWAP1 MSTORE8 POP PUSH1 0xA DUP6 PUSH2 0x1024 SWAP2 SWAP1 PUSH2 0x2245 JUMP JUMPDEST SWAP5 POP PUSH2 0xFA4 JUMP JUMPDEST DUP1 SWAP4 POP POP POP POP JUMPDEST SWAP2 SWAP1 POP JUMP JUMPDEST PUSH0 DUP5 PUSH20 0xFFFFFFFFFFFFFFFFFFFFFFFFFFFFFFFFFFFFFFFF AND EXTCODESIZE GT ISZERO PUSH2 0x1200 JUMPI DUP4 PUSH20 0xFFFFFFFFFFFFFFFFFFFFFFFFFFFFFFFFFFFFFFFF AND PUSH4 0xBC197C81 DUP8 DUP8 DUP7 DUP7 DUP7 PUSH1 0x40 MLOAD DUP7 PUSH4 0xFFFFFFFF AND PUSH1 0xE0 SHL DUP2 MSTORE PUSH1 0x4 ADD PUSH2 0x1097 SWAP6 SWAP5 SWAP4 SWAP3 SWAP2 SWAP1 PUSH2 0x2339 JUMP JUMPDEST PUSH1 0x20 PUSH1 0x40 MLOAD DUP1 DUP4 SUB DUP2 PUSH0 DUP8 GAS CALL SWAP3 POP POP POP DUP1 ISZERO PUSH2 0x10D2 JUMPI POP PUSH1 0x40 MLOAD RETURNDATASIZE PUSH1 0x1F NOT PUSH1 0x1F DUP3 ADD AND DUP3 ADD DUP1 PUSH1 0x40 MSTORE POP DUP2 ADD SWAP1 PUSH2 0x10CF SWAP2 SWAP1 PUSH2 0x23B3 JUMP JUMPDEST PUSH1 0x1 JUMPDEST PUSH2 0x1177 JUMPI PUSH2 0x10DE PUSH2 0x23EA JUMP JUMPDEST DUP1 PUSH4 0x8C379A0 SUB PUSH2 0x113A JUMPI POP PUSH2 0x10F2 PUSH2 0x2409 JUMP JUMPDEST DUP1 PUSH2 0x10FD JUMPI POP PUSH2 0x113C JUMP JUMPDEST DUP1 PUSH1 0x40 MLOAD PUSH32 0x8C379A000000000000000000000000000000000000000000000000000000000 DUP2 MSTORE PUSH1 0x4 ADD PUSH2 0x1131 SWAP2 SWAP1 PUSH2 0x1600 JUMP JUMPDEST PUSH1 0x40 MLOAD DUP1 SWAP2 SUB SWAP1 REVERT JUMPDEST POP JUMPDEST PUSH1 0x40 MLOAD PUSH32 0x8C379A000000000000000000000000000000000000000000000000000000000 DUP2 MSTORE PUSH1 0x4 ADD PUSH2 0x116E SWAP1 PUSH2 0x2508 JUMP JUMPDEST PUSH1 0x40 MLOAD DUP1 SWAP2 SUB SWAP1 REVERT JUMPDEST PUSH4 0xBC197C81 PUSH1 0xE0 SHL PUSH28 0xFFFFFFFFFFFFFFFFFFFFFFFFFFFFFFFFFFFFFFFFFFFFFFFFFFFFFFFF NOT AND DUP2 PUSH28 0xFFFFFFFFFFFFFFFFFFFFFFFFFFFFFFFFFFFFFFFFFFFFFFFFFFFFFFFF NOT AND EQ PUSH2 0x11FE JUMPI PUSH1 0x40 MLOAD PUSH32 0x8C379A000000000000000000000000000000000000000000000000000000000 DUP2 MSTORE PUSH1 0x4 ADD PUSH2 0x11F5 SWAP1 PUSH2 0x2596 JUMP JUMPDEST PUSH1 0x40 MLOAD DUP1 SWAP2 SUB SWAP1 REVERT JUMPDEST POP JUMPDEST POP POP POP POP POP POP JUMP JUMPDEST PUSH0 DUP5 PUSH20 0xFFFFFFFFFFFFFFFFFFFFFFFFFFFFFFFFFFFFFFFF AND EXTCODESIZE GT ISZERO PUSH2 0x13D1 JUMPI DUP4 PUSH20 0xFFFFFFFFFFFFFFFFFFFFFFFFFFFFFFFFFFFFFFFF AND PUSH4 0xF23A6E61 DUP8 DUP8 DUP7 DUP7 DUP7 PUSH1 0x40 MLOAD DUP7 PUSH4 0xFFFFFFFF AND PUSH1 0xE0 SHL DUP2 MSTORE PUSH1 0x4 ADD PUSH2 0x1268 SWAP6 SWAP5 SWAP4 SWAP3 SWAP2 SWAP1 PUSH2 0x25B4 JUMP JUMPDEST PUSH1 0x20 PUSH1 0x40 MLOAD DUP1 DUP4 SUB DUP2 PUSH0 DUP8 GAS CALL SWAP3 POP POP POP DUP1 ISZERO PUSH2 0x12A3 JUMPI POP PUSH1 0x40 MLOAD RETURNDATASIZE PUSH1 0x1F NOT PUSH1 0x1F DUP3 ADD AND DUP3 ADD DUP1 PUSH1 0x40 MSTORE POP DUP2 ADD SWAP1 PUSH2 0x12A0 SWAP2 SWAP1 PUSH2 0x23B3 JUMP JUMPDEST PUSH1 0x1 JUMPDEST PUSH2 0x1348 JUMPI PUSH2 0x12AF PUSH2 0x23EA JUMP JUMPDEST DUP1 PUSH4 0x8C379A0 SUB PUSH2 0x130B JUMPI POP PUSH2 0x12C3 PUSH2 0x2409 JUMP JUMPDEST DUP1 PUSH2 0x12CE JUMPI POP PUSH2 0x130D JUMP JUMPDEST DUP1 PUSH1 0x40 MLOAD PUSH32 0x8C379A000000000000000000000000000000000000000000000000000000000 DUP2 MSTORE PUSH1 0x4 ADD PUSH2 0x1302 SWAP2 SWAP1 PUSH2 0x1600 JUMP JUMPDEST PUSH1 0x40 MLOAD DUP1 SWAP2 SUB SWAP1 REVERT JUMPDEST POP JUMPDEST PUSH1 0x40 MLOAD PUSH32 0x8C379A000000000000000000000000000000000000000000000000000000000 DUP2 MSTORE PUSH1 0x4 ADD PUSH2 0x133F SWAP1 PUSH2 0x2508 JUMP JUMPDEST PUSH1 0x40 MLOAD DUP1 SWAP2 SUB SWAP1 REVERT JUMPDEST PUSH4 0xF23A6E61 PUSH1 0xE0 SHL PUSH28 0xFFFFFFFFFFFFFFFFFFFFFFFFFFFFFFFFFFFFFFFFFFFFFFFFFFFFFFFF NOT AND DUP2 PUSH28 0xFFFFFFFFFFFFFFFFFFFFFFFFFFFFFFFFFFFFFFFFFFFFFFFFFFFFFFFF NOT AND EQ PUSH2 0x13CF JUMPI PUSH1 0x40 MLOAD PUSH32 0x8C379A000000000000000000000000000000000000000000000000000000000 DUP2 MSTORE PUSH1 0x4 ADD PUSH2 0x13C6 SWAP1 PUSH2 0x2596 JUMP JUMPDEST PUSH1 0x40 MLOAD DUP1 SWAP2 SUB SWAP1 REVERT JUMPDEST POP JUMPDEST POP POP POP POP POP POP JUMP JUMPDEST PUSH0 PUSH1 0x40 MLOAD SWAP1 POP SWAP1 JUMP JUMPDEST PUSH0 PUSH0 REVERT JUMPDEST PUSH0 PUSH0 REVERT JUMPDEST PUSH0 PUSH20 0xFFFFFFFFFFFFFFFFFFFFFFFFFFFFFFFFFFFFFFFF DUP3 AND SWAP1 POP SWAP2 SWAP1 POP JUMP JUMPDEST PUSH0 PUSH2 0x1413 DUP3 PUSH2 0x13EA JUMP JUMPDEST SWAP1 POP SWAP2 SWAP1 POP JUMP JUMPDEST PUSH2 0x1423 DUP2 PUSH2 0x1409 JUMP JUMPDEST DUP2 EQ PUSH2 0x142D JUMPI PUSH0 PUSH0 REVERT JUMPDEST POP JUMP JUMPDEST PUSH0 DUP2 CALLDATALOAD SWAP1 POP PUSH2 0x143E DUP2 PUSH2 0x141A JUMP JUMPDEST SWAP3 SWAP2 POP POP JUMP JUMPDEST PUSH0 DUP2 SWAP1 POP SWAP2 SWAP1 POP JUMP JUMPDEST PUSH2 0x1456 DUP2 PUSH2 0x1444 JUMP JUMPDEST DUP2 EQ PUSH2 0x1460 JUMPI PUSH0 PUSH0 REVERT JUMPDEST POP JUMP JUMPDEST PUSH0 DUP2 CALLDATALOAD SWAP1 POP PUSH2 0x1471 DUP2 PUSH2 0x144D JUMP JUMPDEST SWAP3 SWAP2 POP POP JUMP JUMPDEST PUSH0 PUSH0 PUSH1 0x40 DUP4 DUP6 SUB SLT ISZERO PUSH2 0x148D JUMPI PUSH2 0x148C PUSH2 0x13E2 JUMP JUMPDEST JUMPDEST PUSH0 PUSH2 0x149A DUP6 DUP3 DUP7 ADD PUSH2 0x1430 JUMP JUMPDEST SWAP3 POP POP PUSH1 0x20 PUSH2 0x14AB DUP6 DUP3 DUP7 ADD PUSH2 0x1463 JUMP JUMPDEST SWAP2 POP POP SWAP3 POP SWAP3 SWAP1 POP JUMP JUMPDEST PUSH2 0x14BE DUP2 PUSH2 0x1444 JUMP JUMPDEST DUP3 MSTORE POP POP JUMP JUMPDEST PUSH0 PUSH1 0x20 DUP3 ADD SWAP1 POP PUSH2 0x14D7 PUSH0 DUP4 ADD DUP5 PUSH2 0x14B5 JUMP JUMPDEST SWAP3 SWAP2 POP POP JUMP JUMPDEST PUSH0 PUSH32 0xFFFFFFFF00000000000000000000000000000000000000000000000000000000 DUP3 AND SWAP1 POP SWAP2 SWAP1 POP JUMP JUMPDEST PUSH2 0x1511 DUP2 PUSH2 0x14DD JUMP JUMPDEST DUP2 EQ PUSH2 0x151B JUMPI PUSH0 PUSH0 REVERT JUMPDEST POP JUMP JUMPDEST PUSH0 DUP2 CALLDATALOAD SWAP1 POP PUSH2 0x152C DUP2 PUSH2 0x1508 JUMP JUMPDEST SWAP3 SWAP2 POP POP JUMP JUMPDEST PUSH0 PUSH1 0x20 DUP3 DUP5 SUB SLT ISZERO PUSH2 0x1547 JUMPI PUSH2 0x1546 PUSH2 0x13E2 JUMP JUMPDEST JUMPDEST PUSH0 PUSH2 0x1554 DUP5 DUP3 DUP6 ADD PUSH2 0x151E JUMP JUMPDEST SWAP2 POP POP SWAP3 SWAP2 POP POP JUMP JUMPDEST PUSH0 DUP2 ISZERO ISZERO SWAP1 POP SWAP2 SWAP1 POP JUMP JUMPDEST PUSH2 0x1571 DUP2 PUSH2 0x155D JUMP JUMPDEST DUP3 MSTORE POP POP JUMP JUMPDEST PUSH0 PUSH1 0x20 DUP3 ADD SWAP1 POP PUSH2 0x158A PUSH0 DUP4 ADD DUP5 PUSH2 0x1568 JUMP JUMPDEST SWAP3 SWAP2 POP POP JUMP JUMPDEST PUSH0 DUP2 MLOAD SWAP1 POP SWAP2 SWAP1 POP JUMP JUMPDEST PUSH0 DUP3 DUP3 MSTORE PUSH1 0x20 DUP3 ADD SWAP1 POP SWAP3 SWAP2 POP POP JUMP JUMPDEST DUP3 DUP2 DUP4 MCOPY PUSH0 DUP4 DUP4 ADD MSTORE POP POP POP JUMP JUMPDEST PUSH0 PUSH1 0x1F NOT PUSH1 0x1F DUP4 ADD AND SWAP1 POP SWAP2 SWAP1 POP JUMP JUMPDEST PUSH0 PUSH2 0x15D2 DUP3 PUSH2 0x1590 JUMP JUMPDEST PUSH2 0x15DC DUP2 DUP6 PUSH2 0x159A JUMP JUMPDEST SWAP4 POP PUSH2 0x15EC DUP2 DUP6 PUSH1 0x20 DUP7 ADD PUSH2 0x15AA JUMP JUMPDEST PUSH2 0x15F5 DUP2 PUSH2 0x15B8 JUMP JUMPDEST DUP5 ADD SWAP2 POP POP SWAP3 SWAP2 POP POP JUMP JUMPDEST PUSH0 PUSH1 0x20 DUP3 ADD SWAP1 POP DUP2 DUP2 SUB PUSH0 DUP4 ADD MSTORE PUSH2 0x1618 DUP2 DUP5 PUSH2 0x15C8 JUMP JUMPDEST SWAP1 POP SWAP3 SWAP2 POP POP JUMP JUMPDEST PUSH0 PUSH1 0x20 DUP3 DUP5 SUB SLT ISZERO PUSH2 0x1635 JUMPI PUSH2 0x1634 PUSH2 0x13E2 JUMP JUMPDEST JUMPDEST PUSH0 PUSH2 0x1642 DUP5 DUP3 DUP6 ADD PUSH2 0x1463 JUMP JUMPDEST SWAP2 POP POP SWAP3 SWAP2 POP POP JUMP JUMPDEST PUSH0 PUSH0 REVERT JUMPDEST PUSH32 0x4E487B7100000000000000000000000000000000000000000000000000000000 PUSH0 MSTORE PUSH1 0x41 PUSH1 0x4 MSTORE PUSH1 0x24 PUSH0 REVERT JUMPDEST PUSH2 0x1685 DUP3 PUSH2 0x15B8 JUMP JUMPDEST DUP2 ADD DUP2 DUP2 LT PUSH8 0xFFFFFFFFFFFFFFFF DUP3 GT OR ISZERO PUSH2 0x16A4 JUMPI PUSH2 0x16A3 PUSH2 0x164F JUMP JUMPDEST JUMPDEST DUP1 PUSH1 0x40 MSTORE POP POP POP JUMP JUMPDEST PUSH0 PUSH2 0x16B6 PUSH2 0x13D9 JUMP JUMPDEST SWAP1 POP PUSH2 0x16C2 DUP3 DUP3 PUSH2 0x167C JUMP JUMPDEST SWAP2 SWAP1 POP JUMP JUMPDEST PUSH0 PUSH8 0xFFFFFFFFFFFFFFFF DUP3 GT ISZERO PUSH2 0x16E1 JUMPI PUSH2 0x16E0 PUSH2 0x164F JUMP JUMPDEST JUMPDEST PUSH1 0x20 DUP3 MUL SWAP1 POP PUSH1 0x20 DUP2 ADD SWAP1 POP SWAP2 SWAP1 POP JUMP JUMPDEST PUSH0 PUSH0 REVERT JUMPDEST PUSH0 PUSH2 0x1708 PUSH2 0x1703 DUP5 PUSH2 0x16C7 JUMP JUMPDEST PUSH2 0x16AD JUMP JUMPDEST SWAP1 POP DUP1 DUP4 DUP3 MSTORE PUSH1 0x20 DUP3 ADD SWAP1 POP PUSH1 0x20 DUP5 MUL DUP4 ADD DUP6 DUP2 GT ISZERO PUSH2 0x172B JUMPI PUSH2 0x172A PUSH2 0x16F2 JUMP JUMPDEST JUMPDEST DUP4 JUMPDEST DUP2 DUP2 LT ISZERO PUSH2 0x1754 JUMPI DUP1 PUSH2 0x1740 DUP9 DUP3 PUSH2 0x1463 JUMP JUMPDEST DUP5 MSTORE PUSH1 0x20 DUP5 ADD SWAP4 POP POP PUSH1 0x20 DUP2 ADD SWAP1 POP PUSH2 0x172D JUMP JUMPDEST POP POP POP SWAP4 SWAP3 POP POP POP JUMP JUMPDEST PUSH0 DUP3 PUSH1 0x1F DUP4 ADD SLT PUSH2 0x1772 JUMPI PUSH2 0x1771 PUSH2 0x164B JUMP JUMPDEST JUMPDEST DUP2 CALLDATALOAD PUSH2 0x1782 DUP5 DUP3 PUSH1 0x20 DUP7 ADD PUSH2 0x16F6 JUMP JUMPDEST SWAP2 POP POP SWAP3 SWAP2 POP POP JUMP JUMPDEST PUSH0 PUSH0 REVERT JUMPDEST PUSH0 PUSH8 0xFFFFFFFFFFFFFFFF DUP3 GT ISZERO PUSH2 0x17A9 JUMPI PUSH2 0x17A8 PUSH2 0x164F JUMP JUMPDEST JUMPDEST PUSH2 0x17B2 DUP3 PUSH2 0x15B8 JUMP JUMPDEST SWAP1 POP PUSH1 0x20 DUP2 ADD SWAP1 POP SWAP2 SWAP1 POP JUMP JUMPDEST DUP3 DUP2 DUP4 CALLDATACOPY PUSH0 DUP4 DUP4 ADD MSTORE POP POP POP JUMP JUMPDEST PUSH0 PUSH2 0x17DF PUSH2 0x17DA DUP5 PUSH2 0x178F JUMP JUMPDEST PUSH2 0x16AD JUMP JUMPDEST SWAP1 POP DUP3 DUP2 MSTORE PUSH1 0x20 DUP2 ADD DUP5 DUP5 DUP5 ADD GT ISZERO PUSH2 0x17FB JUMPI PUSH2 0x17FA PUSH2 0x178B JUMP JUMPDEST JUMPDEST PUSH2 0x1806 DUP5 DUP3 DUP6 PUSH2 0x17BF JUMP JUMPDEST POP SWAP4 SWAP3 POP POP POP JUMP JUMPDEST PUSH0 DUP3 PUSH1 0x1F DUP4 ADD SLT PUSH2 0x1822 JUMPI PUSH2 0x1821 PUSH2 0x164B JUMP JUMPDEST JUMPDEST DUP2 CALLDATALOAD PUSH2 0x1832 DUP5 DUP3 PUSH1 0x20 DUP7 ADD PUSH2 0x17CD JUMP JUMPDEST SWAP2 POP POP SWAP3 SWAP2 POP POP JUMP JUMPDEST PUSH0 PUSH0 PUSH0 PUSH0 PUSH0 PUSH1 0xA0 DUP7 DUP9 SUB SLT ISZERO PUSH2 0x1854 JUMPI PUSH2 0x1853 PUSH2 0x13E2 JUMP JUMPDEST JUMPDEST PUSH0 PUSH2 0x1861 DUP9 DUP3 DUP10 ADD PUSH2 0x1430 JUMP JUMPDEST SWAP6 POP POP PUSH1 0x20 PUSH2 0x1872 DUP9 DUP3 DUP10 ADD PUSH2 0x1430 JUMP JUMPDEST SWAP5 POP POP PUSH1 0x40 DUP7 ADD CALLDATALOAD PUSH8 0xFFFFFFFFFFFFFFFF DUP2 GT ISZERO PUSH2 0x1893 JUMPI PUSH2 0x1892 PUSH2 0x13E6 JUMP JUMPDEST JUMPDEST PUSH2 0x189F DUP9 DUP3 DUP10 ADD PUSH2 0x175E JUMP JUMPDEST SWAP4 POP POP PUSH1 0x60 DUP7 ADD CALLDATALOAD PUSH8 0xFFFFFFFFFFFFFFFF DUP2 GT ISZERO PUSH2 0x18C0 JUMPI PUSH2 0x18BF PUSH2 0x13E6 JUMP JUMPDEST JUMPDEST PUSH2 0x18CC DUP9 DUP3 DUP10 ADD PUSH2 0x175E JUMP JUMPDEST SWAP3 POP POP PUSH1 0x80 DUP7 ADD CALLDATALOAD PUSH8 0xFFFFFFFFFFFFFFFF DUP2 GT ISZERO PUSH2 0x18ED JUMPI PUSH2 0x18EC PUSH2 0x13E6 JUMP JUMPDEST JUMPDEST PUSH2 0x18F9 DUP9 DUP3 DUP10 ADD PUSH2 0x180E JUMP JUMPDEST SWAP2 POP POP SWAP3 SWAP6 POP SWAP3 SWAP6 SWAP1 SWAP4 POP JUMP JUMPDEST PUSH0 PUSH8 0xFFFFFFFFFFFFFFFF DUP3 GT ISZERO PUSH2 0x1920 JUMPI PUSH2 0x191F PUSH2 0x164F JUMP JUMPDEST JUMPDEST PUSH1 0x20 DUP3 MUL SWAP1 POP PUSH1 0x20 DUP2 ADD SWAP1 POP SWAP2 SWAP1 POP JUMP JUMPDEST PUSH0 PUSH2 0x1943 PUSH2 0x193E DUP5 PUSH2 0x1906 JUMP JUMPDEST PUSH2 0x16AD JUMP JUMPDEST SWAP1 POP DUP1 DUP4 DUP3 MSTORE PUSH1 0x20 DUP3 ADD SWAP1 POP PUSH1 0x20 DUP5 MUL DUP4 ADD DUP6 DUP2 GT ISZERO PUSH2 0x1966 JUMPI PUSH2 0x1965 PUSH2 0x16F2 JUMP JUMPDEST JUMPDEST DUP4 JUMPDEST DUP2 DUP2 LT ISZERO PUSH2 0x198F JUMPI DUP1 PUSH2 0x197B DUP9 DUP3 PUSH2 0x1430 JUMP JUMPDEST DUP5 MSTORE PUSH1 0x20 DUP5 ADD SWAP4 POP POP PUSH1 0x20 DUP2 ADD SWAP1 POP PUSH2 0x1968 JUMP JUMPDEST POP POP POP SWAP4 SWAP3 POP POP POP JUMP JUMPDEST PUSH0 DUP3 PUSH1 0x1F DUP4 ADD SLT PUSH2 0x19AD JUMPI PUSH2 0x19AC PUSH2 0x164B JUMP JUMPDEST JUMPDEST DUP2 CALLDATALOAD PUSH2 0x19BD DUP5 DUP3 PUSH1 0x20 DUP7 ADD PUSH2 0x1931 JUMP JUMPDEST SWAP2 POP POP SWAP3 SWAP2 POP POP JUMP JUMPDEST PUSH0 PUSH0 PUSH1 0x40 DUP4 DUP6 SUB SLT ISZERO PUSH2 0x19DC JUMPI PUSH2 0x19DB PUSH2 0x13E2 JUMP JUMPDEST JUMPDEST PUSH0 DUP4 ADD CALLDATALOAD PUSH8 0xFFFFFFFFFFFFFFFF DUP2 GT ISZERO PUSH2 0x19F9 JUMPI PUSH2 0x19F8 PUSH2 0x13E6 JUMP JUMPDEST JUMPDEST PUSH2 0x1A05 DUP6 DUP3 DUP7 ADD PUSH2 0x1999 JUMP JUMPDEST SWAP3 POP POP PUSH1 0x20 DUP4 ADD CALLDATALOAD PUSH8 0xFFFFFFFFFFFFFFFF DUP2 GT ISZERO PUSH2 0x1A26 JUMPI PUSH2 0x1A25 PUSH2 0x13E6 JUMP JUMPDEST JUMPDEST PUSH2 0x1A32 DUP6 DUP3 DUP7 ADD PUSH2 0x175E JUMP JUMPDEST SWAP2 POP POP SWAP3 POP SWAP3 SWAP1 POP JUMP JUMPDEST PUSH0 DUP2 MLOAD SWAP1 POP SWAP2 SWAP1 POP JUMP JUMPDEST PUSH0 DUP3 DUP3 MSTORE PUSH1 0x20 DUP3 ADD SWAP1 POP SWAP3 SWAP2 POP POP JUMP JUMPDEST PUSH0 DUP2 SWAP1 POP PUSH1 0x20 DUP3 ADD SWAP1 POP SWAP2 SWAP1 POP JUMP JUMPDEST PUSH2 0x1A6E DUP2 PUSH2 0x1444 JUMP JUMPDEST DUP3 MSTORE POP POP JUMP JUMPDEST PUSH0 PUSH2 0x1A7F DUP4 DUP4 PUSH2 0x1A65 JUMP JUMPDEST PUSH1 0x20 DUP4 ADD SWAP1 POP SWAP3 SWAP2 POP POP JUMP JUMPDEST PUSH0 PUSH1 0x20 DUP3 ADD SWAP1 POP SWAP2 SWAP1 POP JUMP JUMPDEST PUSH0 PUSH2 0x1AA1 DUP3 PUSH2 0x1A3C JUMP JUMPDEST PUSH2 0x1AAB DUP2 DUP6 PUSH2 0x1A46 JUMP JUMPDEST SWAP4 POP PUSH2 0x1AB6 DUP4 PUSH2 0x1A56 JUMP JUMPDEST DUP1 PUSH0 JUMPDEST DUP4 DUP2 LT ISZERO PUSH2 0x1AE6 JUMPI DUP2 MLOAD PUSH2 0x1ACD DUP9 DUP3 PUSH2 0x1A74 JUMP JUMPDEST SWAP8 POP PUSH2 0x1AD8 DUP4 PUSH2 0x1A8B JUMP JUMPDEST SWAP3 POP POP PUSH1 0x1 DUP2 ADD SWAP1 POP PUSH2 0x1AB9 JUMP JUMPDEST POP DUP6 SWAP4 POP POP POP POP SWAP3 SWAP2 POP POP JUMP JUMPDEST PUSH0 PUSH1 0x20 DUP3 ADD SWAP1 POP DUP2 DUP2 SUB PUSH0 DUP4 ADD MSTORE PUSH2 0x1B0B DUP2 DUP5 PUSH2 0x1A97 JUMP JUMPDEST SWAP1 POP SWAP3 SWAP2 POP POP JUMP JUMPDEST PUSH2 0x1B1C DUP2 PUSH2 0x155D JUMP JUMPDEST DUP2 EQ PUSH2 0x1B26 JUMPI PUSH0 PUSH0 REVERT JUMPDEST POP JUMP JUMPDEST PUSH0 DUP2 CALLDATALOAD SWAP1 POP PUSH2 0x1B37 DUP2 PUSH2 0x1B13 JUMP JUMPDEST SWAP3 SWAP2 POP POP JUMP JUMPDEST PUSH0 PUSH0 PUSH1 0x40 DUP4 DUP6 SUB SLT ISZERO PUSH2 0x1B53 JUMPI PUSH2 0x1B52 PUSH2 0x13E2 JUMP JUMPDEST JUMPDEST PUSH0 PUSH2 0x1B60 DUP6 DUP3 DUP7 ADD PUSH2 0x1430 JUMP JUMPDEST SWAP3 POP POP PUSH1 0x20 PUSH2 0x1B71 DUP6 DUP3 DUP7 ADD PUSH2 0x1B29 JUMP JUMPDEST SWAP2 POP POP SWAP3 POP SWAP3 SWAP1 POP JUMP JUMPDEST PUSH0 PUSH0 PUSH1 0x40 DUP4 DUP6 SUB SLT ISZERO PUSH2 0x1B91 JUMPI PUSH2 0x1B90 PUSH2 0x13E2 JUMP JUMPDEST JUMPDEST PUSH0 PUSH2 0x1B9E DUP6 DUP3 DUP7 ADD PUSH2 0x1430 JUMP JUMPDEST SWAP3 POP POP PUSH1 0x20 PUSH2 0x1BAF DUP6 DUP3 DUP7 ADD PUSH2 0x1430 JUMP JUMPDEST SWAP2 POP POP SWAP3 POP SWAP3 SWAP1 POP JUMP JUMPDEST PUSH0 PUSH0 PUSH0 PUSH0 PUSH0 PUSH1 0xA0 DUP7 DUP9 SUB SLT ISZERO PUSH2 0x1BD2 JUMPI PUSH2 0x1BD1 PUSH2 0x13E2 JUMP JUMPDEST JUMPDEST PUSH0 PUSH2 0x1BDF DUP9 DUP3 DUP10 ADD PUSH2 0x1430 JUMP JUMPDEST SWAP6 POP POP PUSH1 0x20 PUSH2 0x1BF0 DUP9 DUP3 DUP10 ADD PUSH2 0x1430 JUMP JUMPDEST SWAP5 POP POP PUSH1 0x40 PUSH2 0x1C01 DUP9 DUP3 DUP10 ADD PUSH2 0x1463 JUMP JUMPDEST SWAP4 POP POP PUSH1 0x60 PUSH2 0x1C12 DUP9 DUP3 DUP10 ADD PUSH2 0x1463 JUMP JUMPDEST SWAP3 POP POP PUSH1 0x80 DUP7 ADD CALLDATALOAD PUSH8 0xFFFFFFFFFFFFFFFF DUP2 GT ISZERO PUSH2 0x1C33 JUMPI PUSH2 0x1C32 PUSH2 0x13E6 JUMP JUMPDEST JUMPDEST PUSH2 0x1C3F DUP9 DUP3 DUP10 ADD PUSH2 0x180E JUMP JUMPDEST SWAP2 POP POP SWAP3 SWAP6 POP SWAP3 SWAP6 SWAP1 SWAP4 POP JUMP JUMPDEST PUSH32 0x455243313135353A61646472657373207A65726F206973206E6F742061207661 PUSH0 DUP3 ADD MSTORE PUSH32 0x6C6964206F776E65720000000000000000000000000000000000000000000000 PUSH1 0x20 DUP3 ADD MSTORE POP JUMP JUMPDEST PUSH0 PUSH2 0x1CA6 PUSH1 0x29 DUP4 PUSH2 0x159A JUMP JUMPDEST SWAP2 POP PUSH2 0x1CB1 DUP3 PUSH2 0x1C4C JUMP JUMPDEST PUSH1 0x40 DUP3 ADD SWAP1 POP SWAP2 SWAP1 POP JUMP JUMPDEST PUSH0 PUSH1 0x20 DUP3 ADD SWAP1 POP DUP2 DUP2 SUB PUSH0 DUP4 ADD MSTORE PUSH2 0x1CD3 DUP2 PUSH2 0x1C9A JUMP JUMPDEST SWAP1 POP SWAP2 SWAP1 POP JUMP JUMPDEST PUSH32 0x4E487B7100000000000000000000000000000000000000000000000000000000 PUSH0 MSTORE PUSH1 0x22 PUSH1 0x4 MSTORE PUSH1 0x24 PUSH0 REVERT JUMPDEST PUSH0 PUSH1 0x2 DUP3 DIV SWAP1 POP PUSH1 0x1 DUP3 AND DUP1 PUSH2 0x1D1E JUMPI PUSH1 0x7F DUP3 AND SWAP2 POP JUMPDEST PUSH1 0x20 DUP3 LT DUP2 SUB PUSH2 0x1D31 JUMPI PUSH2 0x1D30 PUSH2 0x1CDA JUMP JUMPDEST JUMPDEST POP SWAP2 SWAP1 POP JUMP JUMPDEST PUSH0 DUP2 SWAP1 POP SWAP3 SWAP2 POP POP JUMP JUMPDEST PUSH0 PUSH2 0x1D4B DUP3 PUSH2 0x1590 JUMP JUMPDEST PUSH2 0x1D55 DUP2 DUP6 PUSH2 0x1D37 JUMP JUMPDEST SWAP4 POP PUSH2 0x1D65 DUP2 DUP6 PUSH1 0x20 DUP7 ADD PUSH2 0x15AA JUMP JUMPDEST DUP1 DUP5 ADD SWAP2 POP POP SWAP3 SWAP2 POP POP JUMP JUMPDEST PUSH0 PUSH2 0x1D7C DUP3 DUP6 PUSH2 0x1D41 JUMP JUMPDEST SWAP2 POP PUSH2 0x1D88 DUP3 DUP5 PUSH2 0x1D41 JUMP JUMPDEST SWAP2 POP DUP2 SWAP1 POP SWAP4 SWAP3 POP POP POP JUMP JUMPDEST PUSH32 0x455243313135353A2063616C6C6572206973206E6F7420746F6B656E206F776E PUSH0 DUP3 ADD MSTORE PUSH32 0x6572206E6F7220617070726F7665640000000000000000000000000000000000 PUSH1 0x20 DUP3 ADD MSTORE POP JUMP JUMPDEST PUSH0 PUSH2 0x1DEE PUSH1 0x2F DUP4 PUSH2 0x159A JUMP JUMPDEST SWAP2 POP PUSH2 0x1DF9 DUP3 PUSH2 0x1D94 JUMP JUMPDEST PUSH1 0x40 DUP3 ADD SWAP1 POP SWAP2 SWAP1 POP JUMP JUMPDEST PUSH0 PUSH1 0x20 DUP3 ADD SWAP1 POP DUP2 DUP2 SUB PUSH0 DUP4 ADD MSTORE PUSH2 0x1E1B DUP2 PUSH2 0x1DE2 JUMP JUMPDEST SWAP1 POP SWAP2 SWAP1 POP JUMP JUMPDEST PUSH32 0x455243313135353A2069647320616E6420616D6F756E7473206C656E67746820 PUSH0 DUP3 ADD MSTORE PUSH32 0x6D69736D61746368000000000000000000000000000000000000000000000000 PUSH1 0x20 DUP3 ADD MSTORE POP JUMP JUMPDEST PUSH0 PUSH2 0x1E7C PUSH1 0x28 DUP4 PUSH2 0x159A JUMP JUMPDEST SWAP2 POP PUSH2 0x1E87 DUP3 PUSH2 0x1E22 JUMP JUMPDEST PUSH1 0x40 DUP3 ADD SWAP1 POP SWAP2 SWAP1 POP JUMP JUMPDEST PUSH0 PUSH1 0x20 DUP3 ADD SWAP1 POP DUP2 DUP2 SUB PUSH0 DUP4 ADD MSTORE PUSH2 0x1EA9 DUP2 PUSH2 0x1E70 JUMP JUMPDEST SWAP1 POP SWAP2 SWAP1 POP JUMP JUMPDEST PUSH32 0x455243313135353A207472616E7366657220746F20746865207A65726F206164 PUSH0 DUP3 ADD MSTORE PUSH32 0x6472657373000000000000000000000000000000000000000000000000000000 PUSH1 0x20 DUP3 ADD MSTORE POP JUMP JUMPDEST PUSH0 PUSH2 0x1F0A PUSH1 0x25 DUP4 PUSH2 0x159A JUMP JUMPDEST SWAP2 POP PUSH2 0x1F15 DUP3 PUSH2 0x1EB0 JUMP JUMPDEST PUSH1 0x40 DUP3 ADD SWAP1 POP SWAP2 SWAP1 POP JUMP JUMPDEST PUSH0 PUSH1 0x20 DUP3 ADD SWAP1 POP DUP2 DUP2 SUB PUSH0 DUP4 ADD MSTORE PUSH2 0x1F37 DUP2 PUSH2 0x1EFE JUMP JUMPDEST SWAP1 POP SWAP2 SWAP1 POP JUMP JUMPDEST PUSH32 0x4E487B7100000000000000000000000000000000000000000000000000000000 PUSH0 MSTORE PUSH1 0x32 PUSH1 0x4 MSTORE PUSH1 0x24 PUSH0 REVERT JUMPDEST PUSH32 0x455243313135353A20696E73756666696369656E742062616C616E636520666F PUSH0 DUP3 ADD MSTORE PUSH32 0x72207472616E7366657200000000000000000000000000000000000000000000 PUSH1 0x20 DUP3 ADD MSTORE POP JUMP JUMPDEST PUSH0 PUSH2 0x1FC5 PUSH1 0x2A DUP4 PUSH2 0x159A JUMP JUMPDEST SWAP2 POP PUSH2 0x1FD0 DUP3 PUSH2 0x1F6B JUMP JUMPDEST PUSH1 0x40 DUP3 ADD SWAP1 POP SWAP2 SWAP1 POP JUMP JUMPDEST PUSH0 PUSH1 0x20 DUP3 ADD SWAP1 POP DUP2 DUP2 SUB PUSH0 DUP4 ADD MSTORE PUSH2 0x1FF2 DUP2 PUSH2 0x1FB9 JUMP JUMPDEST SWAP1 POP SWAP2 SWAP1 POP JUMP JUMPDEST PUSH0 PUSH1 0x40 DUP3 ADD SWAP1 POP DUP2 DUP2 SUB PUSH0 DUP4 ADD MSTORE PUSH2 0x2011 DUP2 DUP6 PUSH2 0x1A97 JUMP JUMPDEST SWAP1 POP DUP2 DUP2 SUB PUSH1 0x20 DUP4 ADD MSTORE PUSH2 0x2025 DUP2 DUP5 PUSH2 0x1A97 JUMP JUMPDEST SWAP1 POP SWAP4 SWAP3 POP POP POP JUMP JUMPDEST PUSH32 0x455243313135353A206163636F756E747320616E6420696473206C656E677468 PUSH0 DUP3 ADD MSTORE PUSH32 0x206D69736D617463680000000000000000000000000000000000000000000000 PUSH1 0x20 DUP3 ADD MSTORE POP JUMP JUMPDEST PUSH0 PUSH2 0x2088 PUSH1 0x29 DUP4 PUSH2 0x159A JUMP JUMPDEST SWAP2 POP PUSH2 0x2093 DUP3 PUSH2 0x202E JUMP JUMPDEST PUSH1 0x40 DUP3 ADD SWAP1 POP SWAP2 SWAP1 POP JUMP JUMPDEST PUSH0 PUSH1 0x20 DUP3 ADD SWAP1 POP DUP2 DUP2 SUB PUSH0 DUP4 ADD MSTORE PUSH2 0x20B5 DUP2 PUSH2 0x207C JUMP JUMPDEST SWAP1 POP SWAP2 SWAP1 POP JUMP JUMPDEST PUSH32 0x455243313135353A2073657474696E6720617070726F76616C20737461747573 PUSH0 DUP3 ADD MSTORE PUSH32 0x20666F722073656C660000000000000000000000000000000000000000000000 PUSH1 0x20 DUP3 ADD MSTORE POP JUMP JUMPDEST PUSH0 PUSH2 0x2116 PUSH1 0x29 DUP4 PUSH2 0x159A JUMP JUMPDEST SWAP2 POP PUSH2 0x2121 DUP3 PUSH2 0x20BC JUMP JUMPDEST PUSH1 0x40 DUP3 ADD SWAP1 POP SWAP2 SWAP1 POP JUMP JUMPDEST PUSH0 PUSH1 0x20 DUP3 ADD SWAP1 POP DUP2 DUP2 SUB PUSH0 DUP4 ADD MSTORE PUSH2 0x2143 DUP2 PUSH2 0x210A JUMP JUMPDEST SWAP1 POP SWAP2 SWAP1 POP JUMP JUMPDEST PUSH32 0x4E487B7100000000000000000000000000000000000000000000000000000000 PUSH0 MSTORE PUSH1 0x11 PUSH1 0x4 MSTORE PUSH1 0x24 PUSH0 REVERT JUMPDEST PUSH0 PUSH2 0x2181 DUP3 PUSH2 0x1444 JUMP JUMPDEST SWAP2 POP PUSH2 0x218C DUP4 PUSH2 0x1444 JUMP JUMPDEST SWAP3 POP DUP3 DUP3 ADD SWAP1 POP DUP1 DUP3 GT ISZERO PUSH2 0x21A4 JUMPI PUSH2 0x21A3 PUSH2 0x214A JUMP JUMPDEST JUMPDEST SWAP3 SWAP2 POP POP JUMP JUMPDEST PUSH0 PUSH1 0x40 DUP3 ADD SWAP1 POP PUSH2 0x21BD PUSH0 DUP4 ADD DUP6 PUSH2 0x14B5 JUMP JUMPDEST PUSH2 0x21CA PUSH1 0x20 DUP4 ADD DUP5 PUSH2 0x14B5 JUMP JUMPDEST SWAP4 SWAP3 POP POP POP JUMP JUMPDEST PUSH0 PUSH2 0x21DB DUP3 PUSH2 0x1444 JUMP JUMPDEST SWAP2 POP PUSH32 0xFFFFFFFFFFFFFFFFFFFFFFFFFFFFFFFFFFFFFFFFFFFFFFFFFFFFFFFFFFFFFFFF DUP3 SUB PUSH2 0x220D JUMPI PUSH2 0x220C PUSH2 0x214A JUMP JUMPDEST JUMPDEST PUSH1 0x1 DUP3 ADD SWAP1 POP SWAP2 SWAP1 POP JUMP JUMPDEST PUSH32 0x4E487B7100000000000000000000000000000000000000000000000000000000 PUSH0 MSTORE PUSH1 0x12 PUSH1 0x4 MSTORE PUSH1 0x24 PUSH0 REVERT JUMPDEST PUSH0 PUSH2 0x224F DUP3 PUSH2 0x1444 JUMP JUMPDEST SWAP2 POP PUSH2 0x225A DUP4 PUSH2 0x1444 JUMP JUMPDEST SWAP3 POP DUP3 PUSH2 0x226A JUMPI PUSH2 0x2269 PUSH2 0x2218 JUMP JUMPDEST JUMPDEST DUP3 DUP3 DIV SWAP1 POP SWAP3 SWAP2 POP POP JUMP JUMPDEST PUSH0 PUSH2 0x227F DUP3 PUSH2 0x1444 JUMP JUMPDEST SWAP2 POP PUSH2 0x228A DUP4 PUSH2 0x1444 JUMP JUMPDEST SWAP3 POP DUP3 DUP3 SUB SWAP1 POP DUP2 DUP2 GT ISZERO PUSH2 0x22A2 JUMPI PUSH2 0x22A1 PUSH2 0x214A JUMP JUMPDEST JUMPDEST SWAP3 SWAP2 POP POP JUMP JUMPDEST PUSH0 PUSH2 0x22B2 DUP3 PUSH2 0x1444 JUMP JUMPDEST SWAP2 POP PUSH2 0x22BD DUP4 PUSH2 0x1444 JUMP JUMPDEST SWAP3 POP DUP3 PUSH2 0x22CD JUMPI PUSH2 0x22CC PUSH2 0x2218 JUMP JUMPDEST JUMPDEST DUP3 DUP3 MOD SWAP1 POP SWAP3 SWAP2 POP POP JUMP JUMPDEST PUSH2 0x22E1 DUP2 PUSH2 0x1409 JUMP JUMPDEST DUP3 MSTORE POP POP JUMP JUMPDEST PUSH0 DUP2 MLOAD SWAP1 POP SWAP2 SWAP1 POP JUMP JUMPDEST PUSH0 DUP3 DUP3 MSTORE PUSH1 0x20 DUP3 ADD SWAP1 POP SWAP3 SWAP2 POP POP JUMP JUMPDEST PUSH0 PUSH2 0x230B DUP3 PUSH2 0x22E7 JUMP JUMPDEST PUSH2 0x2315 DUP2 DUP6 PUSH2 0x22F1 JUMP JUMPDEST SWAP4 POP PUSH2 0x2325 DUP2 DUP6 PUSH1 0x20 DUP7 ADD PUSH2 0x15AA JUMP JUMPDEST PUSH2 0x232E DUP2 PUSH2 0x15B8 JUMP JUMPDEST DUP5 ADD SWAP2 POP POP SWAP3 SWAP2 POP POP JUMP JUMPDEST PUSH0 PUSH1 0xA0 DUP3 ADD SWAP1 POP PUSH2 0x234C PUSH0 DUP4 ADD DUP9 PUSH2 0x22D8 JUMP JUMPDEST PUSH2 0x2359 PUSH1 0x20 DUP4 ADD DUP8 PUSH2 0x22D8 JUMP JUMPDEST DUP2 DUP2 SUB PUSH1 0x40 DUP4 ADD MSTORE PUSH2 0x236B DUP2 DUP7 PUSH2 0x1A97 JUMP JUMPDEST SWAP1 POP DUP2 DUP2 SUB PUSH1 0x60 DUP4 ADD MSTORE PUSH2 0x237F DUP2 DUP6 PUSH2 0x1A97 JUMP JUMPDEST SWAP1 POP DUP2 DUP2 SUB PUSH1 0x80 DUP4 ADD MSTORE PUSH2 0x2393 DUP2 DUP5 PUSH2 0x2301 JUMP JUMPDEST SWAP1 POP SWAP7 SWAP6 POP POP POP POP POP POP JUMP JUMPDEST PUSH0 DUP2 MLOAD SWAP1 POP PUSH2 0x23AD DUP2 PUSH2 0x1508 JUMP JUMPDEST SWAP3 SWAP2 POP POP JUMP JUMPDEST PUSH0 PUSH1 0x20 DUP3 DUP5 SUB SLT ISZERO PUSH2 0x23C8 JUMPI PUSH2 0x23C7 PUSH2 0x13E2 JUMP JUMPDEST JUMPDEST PUSH0 PUSH2 0x23D5 DUP5 DUP3 DUP6 ADD PUSH2 0x239F JUMP JUMPDEST SWAP2 POP POP SWAP3 SWAP2 POP POP JUMP JUMPDEST PUSH0 DUP2 PUSH1 0xE0 SHR SWAP1 POP SWAP2 SWAP1 POP JUMP JUMPDEST PUSH0 PUSH1 0x3 RETURNDATASIZE GT ISZERO PUSH2 0x2406 JUMPI PUSH1 0x4 PUSH0 PUSH0 RETURNDATACOPY PUSH2 0x2403 PUSH0 MLOAD PUSH2 0x23DE JUMP JUMPDEST SWAP1 POP JUMPDEST SWAP1 JUMP JUMPDEST PUSH0 PUSH1 0x44 RETURNDATASIZE LT PUSH2 0x2495 JUMPI PUSH2 0x241A PUSH2 0x13D9 JUMP JUMPDEST PUSH1 0x4 RETURNDATASIZE SUB PUSH1 0x4 DUP3 RETURNDATACOPY DUP1 MLOAD RETURNDATASIZE PUSH1 0x24 DUP3 ADD GT PUSH8 0xFFFFFFFFFFFFFFFF DUP3 GT OR ISZERO PUSH2 0x2442 JUMPI POP POP PUSH2 0x2495 JUMP JUMPDEST DUP1 DUP3 ADD DUP1 MLOAD PUSH8 0xFFFFFFFFFFFFFFFF DUP2 GT ISZERO PUSH2 0x2460 JUMPI POP POP POP POP PUSH2 0x2495 JUMP JUMPDEST DUP1 PUSH1 0x20 DUP4 ADD ADD PUSH1 0x4 RETURNDATASIZE SUB DUP6 ADD DUP2 GT ISZERO PUSH2 0x247D JUMPI POP POP POP POP POP PUSH2 0x2495 JUMP JUMPDEST PUSH2 0x248C DUP3 PUSH1 0x20 ADD DUP6 ADD DUP7 PUSH2 0x167C JUMP JUMPDEST DUP3 SWAP6 POP POP POP POP POP POP JUMPDEST SWAP1 JUMP JUMPDEST PUSH32 0x455243313135353A207472616E7366657220746F206E6F6E2D45524331313535 PUSH0 DUP3 ADD MSTORE PUSH32 0x526563656976657220696D706C656D656E746572000000000000000000000000 PUSH1 0x20 DUP3 ADD MSTORE POP JUMP JUMPDEST PUSH0 PUSH2 0x24F2 PUSH1 0x34 DUP4 PUSH2 0x159A JUMP JUMPDEST SWAP2 POP PUSH2 0x24FD DUP3 PUSH2 0x2498 JUMP JUMPDEST PUSH1 0x40 DUP3 ADD SWAP1 POP SWAP2 SWAP1 POP JUMP JUMPDEST PUSH0 PUSH1 0x20 DUP3 ADD SWAP1 POP DUP2 DUP2 SUB PUSH0 DUP4 ADD MSTORE PUSH2 0x251F DUP2 PUSH2 0x24E6 JUMP JUMPDEST SWAP1 POP SWAP2 SWAP1 POP JUMP JUMPDEST PUSH32 0x455243313135353A204552433131353552656365697665722072656A65637465 PUSH0 DUP3 ADD MSTORE PUSH32 0x6420746F6B656E73000000000000000000000000000000000000000000000000 PUSH1 0x20 DUP3 ADD MSTORE POP JUMP JUMPDEST PUSH0 PUSH2 0x2580 PUSH1 0x28 DUP4 PUSH2 0x159A JUMP JUMPDEST SWAP2 POP PUSH2 0x258B DUP3 PUSH2 0x2526 JUMP JUMPDEST PUSH1 0x40 DUP3 ADD SWAP1 POP SWAP2 SWAP1 POP JUMP JUMPDEST PUSH0 PUSH1 0x20 DUP3 ADD SWAP1 POP DUP2 DUP2 SUB PUSH0 DUP4 ADD MSTORE PUSH2 0x25AD DUP2 PUSH2 0x2574 JUMP JUMPDEST SWAP1 POP SWAP2 SWAP1 POP JUMP JUMPDEST PUSH0 PUSH1 0xA0 DUP3 ADD SWAP1 POP PUSH2 0x25C7 PUSH0 DUP4 ADD DUP9 PUSH2 0x22D8 JUMP JUMPDEST PUSH2 0x25D4 PUSH1 0x20 DUP4 ADD DUP8 PUSH2 0x22D8 JUMP JUMPDEST PUSH2 0x25E1 PUSH1 0x40 DUP4 ADD DUP7 PUSH2 0x14B5 JUMP JUMPDEST PUSH2 0x25EE PUSH1 0x60 DUP4 ADD DUP6 PUSH2 0x14B5 JUMP JUMPDEST DUP2 DUP2 SUB PUSH1 0x80 DUP4 ADD MSTORE PUSH2 0x2600 DUP2 DUP5 PUSH2 0x2301 JUMP JUMPDEST SWAP1 POP SWAP7 SWAP6 POP POP POP POP POP POP JUMP INVALID LOG2 PUSH5 0x6970667358 0x22 SLT KECCAK256 0x2A PUSH1 0x71 0xC4 RETURNDATASIZE CALLDATALOAD SWAP14 LOG0 PUSH7 0x7DBFF9F37B08DC ADD EXTCALL PUSH30 0xFD228473E14F44778E8732DB1464736F6C634300081E0033000000000000 "
				},
				"gasEstimates": {
					"creation": {
						"codeDepositCost": "1958800",
						"executionCost": "infinite",
						"totalCost": "infinite"
					},
					"external": {
						"balanceOf(address,uint256)": "infinite",
						"balanceOfBatch(address[],uint256[])": "infinite",
						"isApprovedForAll(address,address)": "infinite",
						"name()": "infinite",
						"safeBatchTransferFrom(address,address,uint256[],uint256[],bytes)": "infinite",
						"safeTransferFrom(address,address,uint256,uint256,bytes)": "infinite",
						"setApprovalForAll(address,bool)": "infinite",
						"supportsInterface(bytes4)": "744",
						"symbol()": "infinite",
						"uri(uint256)": "infinite"
					},
					"internal": {
						"_baseURI()": "infinite",
						"_burn(address,uint256,uint256)": "infinite",
						"_burnBatch(address,uint256[] memory,uint256[] memory)": "infinite",
						"_doSafeBatchTransferAcceptanceCheck(address,address,address,uint256[] memory,uint256[] memory,bytes memory)": "infinite",
						"_doSafeTransferAcceptanceCheck(address,address,address,uint256,uint256,bytes memory)": "infinite",
						"_mint(address,uint256,uint256,bytes memory)": "infinite",
						"_mintBatch(address,uint256[] memory,uint256[] memory,bytes memory)": "infinite"
					}
				},
				"methodIdentifiers": {
					"balanceOf(address,uint256)": "00fdd58e",
					"balanceOfBatch(address[],uint256[])": "4e1273f4",
					"isApprovedForAll(address,address)": "e985e9c5",
					"name()": "06fdde03",
					"safeBatchTransferFrom(address,address,uint256[],uint256[],bytes)": "2eb2c2d6",
					"safeTransferFrom(address,address,uint256,uint256,bytes)": "f242432a",
					"setApprovalForAll(address,bool)": "a22cb465",
					"supportsInterface(bytes4)": "01ffc9a7",
					"symbol()": "95d89b41",
					"uri(uint256)": "0e89341c"
				}
			},
			"storageLayout": {
				"storage": [
					{
						"astId": 18,
						"contract": "contracts/ERC1155.sol:ERC1155",
						"label": "name",
						"offset": 0,
						"slot": "0",
						"type": "t_string_storage"
					},
					{
						"astId": 20,
						"contract": "contracts/ERC1155.sol:ERC1155",
						"label": "symbol",
						"offset": 0,
						"slot": "1",
						"type": "t_string_storage"
					},
					{
						"astId": 26,
						"contract": "contracts/ERC1155.sol:ERC1155",
						"label": "_balances",
						"offset": 0,
						"slot": "2",
						"type": "t_mapping(t_uint256,t_mapping(t_address,t_uint256))"
					},
					{
						"astId": 32,
						"contract": "contracts/ERC1155.sol:ERC1155",
						"label": "_operatorApprovals",
						"offset": 0,
						"slot": "3",
						"type": "t_mapping(t_address,t_mapping(t_address,t_bool))"
					}
				],
				"types": {
					"t_address": {
						"encoding": "inplace",
						"label": "address",
						"numberOfBytes": "20"
					},
					"t_bool": {
						"encoding": "inplace",
						"label": "bool",
						"numberOfBytes": "1"
					},
					"t_mapping(t_address,t_bool)": {
						"encoding": "mapping",
						"key": "t_address",
						"label": "mapping(address => bool)",
						"numberOfBytes": "32",
						"value": "t_bool"
					},
					"t_mapping(t_address,t_mapping(t_address,t_bool))": {
						"encoding": "mapping",
						"key": "t_address",
						"label": "mapping(address => mapping(address => bool))",
						"numberOfBytes": "32",
						"value": "t_mapping(t_address,t_bool)"
					},
					"t_mapping(t_address,t_uint256)": {
						"encoding": "mapping",
						"key": "t_address",
						"label": "mapping(address => uint256)",
						"numberOfBytes": "32",
						"value": "t_uint256"
					},
					"t_mapping(t_uint256,t_mapping(t_address,t_uint256))": {
						"encoding": "mapping",
						"key": "t_uint256",
						"label": "mapping(uint256 => mapping(address => uint256))",
						"numberOfBytes": "32",
						"value": "t_mapping(t_address,t_uint256)"
					},
					"t_string_storage": {
						"encoding": "bytes",
						"label": "string",
						"numberOfBytes": "32"
					},
					"t_uint256": {
						"encoding": "inplace",
						"label": "uint256",
						"numberOfBytes": "32"
					}
				}
			},
			"userdoc": {
				"kind": "user",
				"methods": {
					"constructor": {
						"notice": "构造函数，初始化`name` 和`symbol`, uri_"
					}
				},
				"version": 1
			}
		}
	}
}