{
	"contracts/ERC4626.sol": {
		"ERC4626": {
			"abi": [
				{
					"inputs": [
						{
							"internalType": "contract ERC20",
							"name": "asset_",
							"type": "address"
						},
						{
							"internalType": "string",
							"name": "name_",
							"type": "string"
						},
						{
							"internalType": "string",
							"name": "symbol_",
							"type": "string"
						}
					],
					"stateMutability": "nonpayable",
					"type": "constructor"
				},
				{
					"inputs": [
						{
							"internalType": "address",
							"name": "spender",
							"type": "address"
						},
						{
							"internalType": "uint256",
							"name": "allowance",
							"type": "uint256"
						},
						{
							"internalType": "uint256",
							"name": "needed",
							"type": "uint256"
						}
					],
					"name": "ERC20InsufficientAllowance",
					"type": "error"
				},
				{
					"inputs": [
						{
							"internalType": "address",
							"name": "sender",
							"type": "address"
						},
						{
							"internalType": "uint256",
							"name": "balance",
							"type": "uint256"
						},
						{
							"internalType": "uint256",
							"name": "needed",
							"type": "uint256"
						}
					],
					"name": "ERC20InsufficientBalance",
					"type": "error"
				},
				{
					"inputs": [
						{
							"internalType": "address",
							"name": "approver",
							"type": "address"
						}
					],
					"name": "ERC20InvalidApprover",
					"type": "error"
				},
				{
					"inputs": [
						{
							"internalType": "address",
							"name": "receiver",
							"type": "address"
						}
					],
					"name": "ERC20InvalidReceiver",
					"type": "error"
				},
				{
					"inputs": [
						{
							"internalType": "address",
							"name": "sender",
							"type": "address"
						}
					],
					"name": "ERC20InvalidSender",
					"type": "error"
				},
				{
					"inputs": [
						{
							"internalType": "address",
							"name": "spender",
							"type": "address"
						}
					],
					"name": "ERC20InvalidSpender",
					"type": "error"
				},
				{
					"anonymous": false,
					"inputs": [
						{
							"indexed": true,
							"internalType": "address",
							"name": "owner",
							"type": "address"
						},
						{
							"indexed": true,
							"internalType": "address",
							"name": "spender",
							"type": "address"
						},
						{
							"indexed": false,
							"internalType": "uint256",
							"name": "value",
							"type": "uint256"
						}
					],
					"name": "Approval",
					"type": "event"
				},
				{
					"anonymous": false,
					"inputs": [
						{
							"indexed": true,
							"internalType": "address",
							"name": "sender",
							"type": "address"
						},
						{
							"indexed": true,
							"internalType": "address",
							"name": "owner",
							"type": "address"
						},
						{
							"indexed": false,
							"internalType": "uint256",
							"name": "assets",
							"type": "uint256"
						},
						{
							"indexed": false,
							"internalType": "uint256",
							"name": "shares",
							"type": "uint256"
						}
					],
					"name": "Deposit",
					"type": "event"
				},
				{
					"anonymous": false,
					"inputs": [
						{
							"indexed": true,
							"internalType": "address",
							"name": "from",
							"type": "address"
						},
						{
							"indexed": true,
							"internalType": "address",
							"name": "to",
							"type": "address"
						},
						{
							"indexed": false,
							"internalType": "uint256",
							"name": "value",
							"type": "uint256"
						}
					],
					"name": "Transfer",
					"type": "event"
				},
				{
					"anonymous": false,
					"inputs": [
						{
							"indexed": true,
							"internalType": "address",
							"name": "sender",
							"type": "address"
						},
						{
							"indexed": true,
							"internalType": "address",
							"name": "receiver",
							"type": "address"
						},
						{
							"indexed": true,
							"internalType": "address",
							"name": "owner",
							"type": "address"
						},
						{
							"indexed": false,
							"internalType": "uint256",
							"name": "assets",
							"type": "uint256"
						},
						{
							"indexed": false,
							"internalType": "uint256",
							"name": "shares",
							"type": "uint256"
						}
					],
					"name": "Withdraw",
					"type": "event"
				},
				{
					"inputs": [
						{
							"internalType": "address",
							"name": "owner",
							"type": "address"
						},
						{
							"internalType": "address",
							"name": "spender",
							"type": "address"
						}
					],
					"name": "allowance",
					"outputs": [
						{
							"internalType": "uint256",
							"name": "",
							"type": "uint256"
						}
					],
					"stateMutability": "view",
					"type": "function"
				},
				{
					"inputs": [
						{
							"internalType": "address",
							"name": "spender",
							"type": "address"
						},
						{
							"internalType": "uint256",
							"name": "value",
							"type": "uint256"
						}
					],
					"name": "approve",
					"outputs": [
						{
							"internalType": "bool",
							"name": "",
							"type": "bool"
						}
					],
					"stateMutability": "nonpayable",
					"type": "function"
				},
				{
					"inputs": [],
					"name": "asset",
					"outputs": [
						{
							"internalType": "address",
							"name": "",
							"type": "address"
						}
					],
					"stateMutability": "view",
					"type": "function"
				},
				{
					"inputs": [
						{
							"internalType": "address",
							"name": "account",
							"type": "address"
						}
					],
					"name": "balanceOf",
					"outputs": [
						{
							"internalType": "uint256",
							"name": "",
							"type": "uint256"
						}
					],
					"stateMutability": "view",
					"type": "function"
				},
				{
					"inputs": [
						{
							"internalType": "uint256",
							"name": "shares",
							"type": "uint256"
						}
					],
					"name": "convertToAssets",
					"outputs": [
						{
							"internalType": "uint256",
							"name": "",
							"type": "uint256"
						}
					],
					"stateMutability": "view",
					"type": "function"
				},
				{
					"inputs": [
						{
							"internalType": "uint256",
							"name": "assets",
							"type": "uint256"
						}
					],
					"name": "convertToShares",
					"outputs": [
						{
							"internalType": "uint256",
							"name": "",
							"type": "uint256"
						}
					],
					"stateMutability": "view",
					"type": "function"
				},
				{
					"inputs": [],
					"name": "decimals",
					"outputs": [
						{
							"internalType": "uint8",
							"name": "",
							"type": "uint8"
						}
					],
					"stateMutability": "view",
					"type": "function"
				},
				{
					"inputs": [
						{
							"internalType": "uint256",
							"name": "assets",
							"type": "uint256"
						},
						{
							"internalType": "address",
							"name": "receiver",
							"type": "address"
						}
					],
					"name": "deposit",
					"outputs": [
						{
							"internalType": "uint256",
							"name": "shares",
							"type": "uint256"
						}
					],
					"stateMutability": "nonpayable",
					"type": "function"
				},
				{
					"inputs": [
						{
							"internalType": "address",
							"name": "",
							"type": "address"
						}
					],
					"name": "maxDeposit",
					"outputs": [
						{
							"internalType": "uint256",
							"name": "",
							"type": "uint256"
						}
					],
					"stateMutability": "view",
					"type": "function"
				},
				{
					"inputs": [
						{
							"internalType": "address",
							"name": "",
							"type": "address"
						}
					],
					"name": "maxMint",
					"outputs": [
						{
							"internalType": "uint256",
							"name": "",
							"type": "uint256"
						}
					],
					"stateMutability": "view",
					"type": "function"
				},
				{
					"inputs": [
						{
							"internalType": "address",
							"name": "owner",
							"type": "address"
						}
					],
					"name": "maxRedeem",
					"outputs": [
						{
							"internalType": "uint256",
							"name": "",
							"type": "uint256"
						}
					],
					"stateMutability": "view",
					"type": "function"
				},
				{
					"inputs": [
						{
							"internalType": "address",
							"name": "owner",
							"type": "address"
						}
					],
					"name": "maxWithdraw",
					"outputs": [
						{
							"internalType": "uint256",
							"name": "",
							"type": "uint256"
						}
					],
					"stateMutability": "view",
					"type": "function"
				},
				{
					"inputs": [
						{
							"internalType": "uint256",
							"name": "shares",
							"type": "uint256"
						},
						{
							"internalType": "address",
							"name": "receiver",
							"type": "address"
						}
					],
					"name": "mint",
					"outputs": [
						{
							"internalType": "uint256",
							"name": "assets",
							"type": "uint256"
						}
					],
					"stateMutability": "nonpayable",
					"type": "function"
				},
				{
					"inputs": [],
					"name": "name",
					"outputs": [
						{
							"internalType": "string",
							"name": "",
							"type": "string"
						}
					],
					"stateMutability": "view",
					"type": "function"
				},
				{
					"inputs": [
						{
							"internalType": "uint256",
							"name": "assets",
							"type": "uint256"
						}
					],
					"name": "previewDeposit",
					"outputs": [
						{
							"internalType": "uint256",
							"name": "",
							"type": "uint256"
						}
					],
					"stateMutability": "view",
					"type": "function"
				},
				{
					"inputs": [
						{
							"internalType": "uint256",
							"name": "shares",
							"type": "uint256"
						}
					],
					"name": "previewMint",
					"outputs": [
						{
							"internalType": "uint256",
							"name": "",
							"type": "uint256"
						}
					],
					"stateMutability": "view",
					"type": "function"
				},
				{
					"inputs": [
						{
							"internalType": "uint256",
							"name": "shares",
							"type": "uint256"
						}
					],
					"name": "previewRedeem",
					"outputs": [
						{
							"internalType": "uint256",
							"name": "",
							"type": "uint256"
						}
					],
					"stateMutability": "view",
					"type": "function"
				},
				{
					"inputs": [
						{
							"internalType": "uint256",
							"name": "assets",
							"type": "uint256"
						}
					],
					"name": "previewWithdraw",
					"outputs": [
						{
							"internalType": "uint256",
							"name": "",
							"type": "uint256"
						}
					],
					"stateMutability": "view",
					"type": "function"
				},
				{
					"inputs": [
						{
							"internalType": "uint256",
							"name": "shares",
							"type": "uint256"
						},
						{
							"internalType": "address",
							"name": "receiver",
							"type": "address"
						},
						{
							"internalType": "address",
							"name": "owner",
							"type": "address"
						}
					],
					"name": "redeem",
					"outputs": [
						{
							"internalType": "uint256",
							"name": "assets",
							"type": "uint256"
						}
					],
					"stateMutability": "nonpayable",
					"type": "function"
				},
				{
					"inputs": [],
					"name": "symbol",
					"outputs": [
						{
							"internalType": "string",
							"name": "",
							"type": "string"
						}
					],
					"stateMutability": "view",
					"type": "function"
				},
				{
					"inputs": [],
					"name": "totalAssets",
					"outputs": [
						{
							"internalType": "uint256",
							"name": "",
							"type": "uint256"
						}
					],
					"stateMutability": "view",
					"type": "function"
				},
				{
					"inputs": [],
					"name": "totalSupply",
					"outputs": [
						{
							"internalType": "uint256",
							"name": "",
							"type": "uint256"
						}
					],
					"stateMutability": "view",
					"type": "function"
				},
				{
					"inputs": [
						{
							"internalType": "address",
							"name": "to",
							"type": "address"
						},
						{
							"internalType": "uint256",
							"name": "value",
							"type": "uint256"
						}
					],
					"name": "transfer",
					"outputs": [
						{
							"internalType": "bool",
							"name": "",
							"type": "bool"
						}
					],
					"stateMutability": "nonpayable",
					"type": "function"
				},
				{
					"inputs": [
						{
							"internalType": "address",
							"name": "from",
							"type": "address"
						},
						{
							"internalType": "address",
							"name": "to",
							"type": "address"
						},
						{
							"internalType": "uint256",
							"name": "value",
							"type": "uint256"
						}
					],
					"name": "transferFrom",
					"outputs": [
						{
							"internalType": "bool",
							"name": "",
							"type": "bool"
						}
					],
					"stateMutability": "nonpayable",
					"type": "function"
				},
				{
					"inputs": [
						{
							"internalType": "uint256",
							"name": "assets",
							"type": "uint256"
						},
						{
							"internalType": "address",
							"name": "receiver",
							"type": "address"
						},
						{
							"internalType": "address",
							"name": "owner",
							"type": "address"
						}
					],
					"name": "withdraw",
					"outputs": [
						{
							"internalType": "uint256",
							"name": "shares",
							"type": "uint256"
						}
					],
					"stateMutability": "nonpayable",
					"type": "function"
				}
			],
			"devdoc": {
				"details": "ERC4626 \"代币化金库标准\"合约，仅供教学使用，不要用于生产",
				"errors": {
					"ERC20InsufficientAllowance(address,uint256,uint256)": [
						{
							"details": "Indicates a failure with the `spender`’s `allowance`. Used in transfers.",
							"params": {
								"allowance": "Amount of tokens a `spender` is allowed to operate with.",
								"needed": "Minimum amount required to perform a transfer.",
								"spender": "Address that may be allowed to operate on tokens without being their owner."
							}
						}
					],
					"ERC20InsufficientBalance(address,uint256,uint256)": [
						{
							"details": "Indicates an error related to the current `balance` of a `sender`. Used in transfers.",
							"params": {
								"balance": "Current balance for the interacting account.",
								"needed": "Minimum amount required to perform a transfer.",
								"sender": "Address whose tokens are being transferred."
							}
						}
					],
					"ERC20InvalidApprover(address)": [
						{
							"details": "Indicates a failure with the `approver` of a token to be approved. Used in approvals.",
							"params": {
								"approver": "Address initiating an approval operation."
							}
						}
					],
					"ERC20InvalidReceiver(address)": [
						{
							"details": "Indicates a failure with the token `receiver`. Used in transfers.",
							"params": {
								"receiver": "Address to which tokens are being transferred."
							}
						}
					],
					"ERC20InvalidSender(address)": [
						{
							"details": "Indicates a failure with the token `sender`. Used in transfers.",
							"params": {
								"sender": "Address whose tokens are being transferred."
							}
						}
					],
					"ERC20InvalidSpender(address)": [
						{
							"details": "Indicates a failure with the `spender` to be approved. Used in approvals.",
							"params": {
								"spender": "Address that may be allowed to operate on tokens without being their owner."
							}
						}
					]
				},
				"events": {
					"Approval(address,address,uint256)": {
						"details": "Emitted when the allowance of a `spender` for an `owner` is set by a call to {approve}. `value` is the new allowance."
					},
					"Transfer(address,address,uint256)": {
						"details": "Emitted when `value` tokens are moved from one account (`from`) to another (`to`). Note that `value` may be zero."
					}
				},
				"kind": "dev",
				"methods": {
					"allowance(address,address)": {
						"details": "Returns the remaining number of tokens that `spender` will be allowed to spend on behalf of `owner` through {transferFrom}. This is zero by default. This value changes when {approve} or {transferFrom} are called."
					},
					"approve(address,uint256)": {
						"details": "See {IERC20-approve}. NOTE: If `value` is the maximum `uint256`, the allowance is not updated on `transferFrom`. This is semantically equivalent to an infinite approval. Requirements: - `spender` cannot be the zero address."
					},
					"asset()": {
						"details": "See {IERC4626-asset}. 返回管理的ERC20 代币地址"
					},
					"balanceOf(address)": {
						"details": "Returns the value of tokens owned by `account`."
					},
					"convertToAssets(uint256)": {
						"details": "返回利用一定数额金库额度可以换取的基础资产 - 不要包含费用 - 不包含滑点 - 不能revert"
					},
					"convertToShares(uint256)": {
						"details": "返回利用一定数额基础资产可以换取的金库额度 - 不要包含费用 - 不包含滑点 - 不能revert"
					},
					"maxMint(address)": {
						"details": "See {IERC4626-maxMint}. "
					},
					"maxRedeem(address)": {
						"details": "See {IERC4626-maxRedeem}. "
					},
					"maxWithdraw(address)": {
						"details": "See {IERC4626-maxWithdraw}. "
					},
					"name()": {
						"details": "Returns the name of the token."
					},
					"previewDeposit(uint256)": {
						"details": "用于链上和链下用户在当前链上环境模拟存款一定数额的基础资产能够获得的金库额度 - 返回值要接近且不大于在同一交易进行存款得到的金库额度 - 不要考虑 maxDeposit 等限制，假设用户的存款交易会成功 - 要考虑费用 - 不能revert NOTE: 可以利用 convertToAssets 和 previewDeposit 返回值的差值来计算滑点"
					},
					"previewMint(uint256)": {
						"details": "See {IERC4626-previewMint}. "
					},
					"previewRedeem(uint256)": {
						"details": "See {IERC4626-previewRedeem}. "
					},
					"previewWithdraw(uint256)": {
						"details": "See {IERC4626-previewWithdraw}. "
					},
					"symbol()": {
						"details": "Returns the symbol of the token, usually a shorter version of the name."
					},
					"totalSupply()": {
						"details": "Returns the value of tokens in existence."
					},
					"transfer(address,uint256)": {
						"details": "See {IERC20-transfer}. Requirements: - `to` cannot be the zero address. - the caller must have a balance of at least `value`."
					},
					"transferFrom(address,address,uint256)": {
						"details": "See {IERC20-transferFrom}. Skips emitting an {Approval} event indicating an allowance update. This is not required by the ERC. See {xref-ERC20-_approve-address-address-uint256-bool-}[_approve]. NOTE: Does not update the allowance if the current allowance is the maximum `uint256`. Requirements: - `from` and `to` cannot be the zero address. - `from` must have a balance of at least `value`. - the caller must have allowance for ``from``'s tokens of at least `value`."
					},
					"withdraw(uint256,address,address)": {
						"details": "提款函数: owner 地址销毁 share 单位的金库额度，然后合约将 assets 单位的基础资产发送给 receiver 地址 - 释放 Withdraw 事件 - 如果全部基础资产不能提取，将revert"
					}
				},
				"version": 1
			},
			"evm": {
				"assembly": "    /* \"contracts/ERC4626.sol\":727:9188  contract ERC4626 is ERC20, IERC4626 {... */\n  mstore(0x40, 0xc0)\n    /* \"contracts/ERC4626.sol\":1124:1428  constructor(... */\n  callvalue\n  dup1\n  iszero\n  tag_1\n  jumpi\n  revert(0x00, 0x00)\ntag_1:\n  pop\n  mload(0x40)\n  sub(codesize, bytecodeSize)\n  dup1\n  bytecodeSize\n  dup4\n  codecopy\n  dup2\n  dup2\n  add\n  0x40\n  mstore\n  dup2\n  add\n  swap1\n  tag_2\n  swap2\n  swap1\n  tag_3\n  jump\t// in\ntag_2:\n    /* \"contracts/ERC4626.sol\":1230:1235  name_ */\n  dup2\n    /* \"contracts/ERC4626.sol\":1237:1244  symbol_ */\n  dup2\n    /* \"@openzeppelin/contracts/token/ERC20/ERC20.sol\":1656:1661  name_ */\n  dup2\n    /* \"@openzeppelin/contracts/token/ERC20/ERC20.sol\":1648:1653  _name */\n  0x03\n    /* \"@openzeppelin/contracts/token/ERC20/ERC20.sol\":1648:1661  _name = name_ */\n  swap1\n  dup2\n  tag_7\n  swap2\n  swap1\n  tag_8\n  jump\t// in\ntag_7:\n  pop\n    /* \"@openzeppelin/contracts/token/ERC20/ERC20.sol\":1681:1688  symbol_ */\n  dup1\n    /* \"@openzeppelin/contracts/token/ERC20/ERC20.sol\":1671:1678  _symbol */\n  0x04\n    /* \"@openzeppelin/contracts/token/ERC20/ERC20.sol\":1671:1688  _symbol = symbol_ */\n  swap1\n  dup2\n  tag_9\n  swap2\n  swap1\n  tag_8\n  jump\t// in\ntag_9:\n  pop\n    /* \"@openzeppelin/contracts/token/ERC20/ERC20.sol\":1582:1695  constructor(string memory name_, string memory symbol_) {... */\n  pop\n  pop\n    /* \"contracts/ERC4626.sol\":1265:1271  asset_ */\n  dup3\n    /* \"contracts/ERC4626.sol\":1256:1271  _asset = asset_ */\n  0xffffffffffffffffffffffffffffffffffffffff\n  and\n  0x80\n  dup2\n  0xffffffffffffffffffffffffffffffffffffffff\n  and\n  dup2\n  mstore\n  pop\n  pop\n    /* \"contracts/ERC4626.sol\":1301:1307  asset_ */\n  dup3\n    /* \"contracts/ERC4626.sol\":1301:1316  asset_.decimals */\n  0xffffffffffffffffffffffffffffffffffffffff\n  and\n  0x313ce567\n    /* \"contracts/ERC4626.sol\":1301:1318  asset_.decimals() */\n  mload(0x40)\n  dup2\n  0xffffffff\n  and\n  0xe0\n  shl\n  dup2\n  mstore\n  0x04\n  add\n  0x20\n  mload(0x40)\n  dup1\n  dup4\n  sub\n  dup2\n  dup7\n  gas\n  staticcall\n  iszero\n  dup1\n  iszero\n  tag_12\n  jumpi\n  returndatacopy(0x00, 0x00, returndatasize)\n  revert(0x00, returndatasize)\ntag_12:\n  pop\n  pop\n  pop\n  pop\n  mload(0x40)\n  returndatasize\n  not(0x1f)\n  0x1f\n  dup3\n  add\n  and\n  dup3\n  add\n  dup1\n  0x40\n  mstore\n  pop\n  dup2\n  add\n  swap1\n  tag_13\n  swap2\n  swap1\n  tag_14\n  jump\t// in\ntag_13:\n    /* \"contracts/ERC4626.sol\":1289:1318  _decimals = asset_.decimals() */\n  0xff\n  and\n  0xa0\n  dup2\n  0xff\n  and\n  dup2\n  mstore\n  pop\n  pop\n    /* \"contracts/ERC4626.sol\":1124:1428  constructor(... */\n  pop\n  pop\n  pop\n    /* \"contracts/ERC4626.sol\":727:9188  contract ERC4626 is ERC20, IERC4626 {... */\n  jump(tag_15)\n    /* \"#utility.yul\":7:82   */\ntag_16:\n    /* \"#utility.yul\":40:46   */\n  0x00\n    /* \"#utility.yul\":73:75   */\n  0x40\n    /* \"#utility.yul\":67:76   */\n  mload\n    /* \"#utility.yul\":57:76   */\n  swap1\n  pop\n    /* \"#utility.yul\":7:82   */\n  swap1\n  jump\t// out\n    /* \"#utility.yul\":88:205   */\ntag_17:\n    /* \"#utility.yul\":197:198   */\n  0x00\n    /* \"#utility.yul\":194:195   */\n  0x00\n    /* \"#utility.yul\":187:199   */\n  revert\n    /* \"#utility.yul\":211:328   */\ntag_18:\n    /* \"#utility.yul\":320:321   */\n  0x00\n    /* \"#utility.yul\":317:318   */\n  0x00\n    /* \"#utility.yul\":310:322   */\n  revert\n    /* \"#utility.yul\":334:460   */\ntag_19:\n    /* \"#utility.yul\":371:378   */\n  0x00\n    /* \"#utility.yul\":411:453   */\n  0xffffffffffffffffffffffffffffffffffffffff\n    /* \"#utility.yul\":404:409   */\n  dup3\n    /* \"#utility.yul\":400:454   */\n  and\n    /* \"#utility.yul\":389:454   */\n  swap1\n  pop\n    /* \"#utility.yul\":334:460   */\n  swap2\n  swap1\n  pop\n  jump\t// out\n    /* \"#utility.yul\":466:562   */\ntag_20:\n    /* \"#utility.yul\":503:510   */\n  0x00\n    /* \"#utility.yul\":532:556   */\n  tag_62\n    /* \"#utility.yul\":550:555   */\n  dup3\n    /* \"#utility.yul\":532:556   */\n  tag_19\n  jump\t// in\ntag_62:\n    /* \"#utility.yul\":521:556   */\n  swap1\n  pop\n    /* \"#utility.yul\":466:562   */\n  swap2\n  swap1\n  pop\n  jump\t// out\n    /* \"#utility.yul\":568:677   */\ntag_21:\n    /* \"#utility.yul\":618:625   */\n  0x00\n    /* \"#utility.yul\":647:671   */\n  tag_64\n    /* \"#utility.yul\":665:670   */\n  dup3\n    /* \"#utility.yul\":647:671   */\n  tag_20\n  jump\t// in\ntag_64:\n    /* \"#utility.yul\":636:671   */\n  swap1\n  pop\n    /* \"#utility.yul\":568:677   */\n  swap2\n  swap1\n  pop\n  jump\t// out\n    /* \"#utility.yul\":683:831   */\ntag_22:\n    /* \"#utility.yul\":769:806   */\n  tag_66\n    /* \"#utility.yul\":800:805   */\n  dup2\n    /* \"#utility.yul\":769:806   */\n  tag_21\n  jump\t// in\ntag_66:\n    /* \"#utility.yul\":762:767   */\n  dup2\n    /* \"#utility.yul\":759:807   */\n  eq\n    /* \"#utility.yul\":749:825   */\n  tag_67\n  jumpi\n    /* \"#utility.yul\":821:822   */\n  0x00\n    /* \"#utility.yul\":818:819   */\n  0x00\n    /* \"#utility.yul\":811:823   */\n  revert\n    /* \"#utility.yul\":749:825   */\ntag_67:\n    /* \"#utility.yul\":683:831   */\n  pop\n  jump\t// out\n    /* \"#utility.yul\":837:1006   */\ntag_23:\n    /* \"#utility.yul\":907:912   */\n  0x00\n    /* \"#utility.yul\":938:944   */\n  dup2\n    /* \"#utility.yul\":932:945   */\n  mload\n    /* \"#utility.yul\":923:945   */\n  swap1\n  pop\n    /* \"#utility.yul\":954:1000   */\n  tag_69\n    /* \"#utility.yul\":994:999   */\n  dup2\n    /* \"#utility.yul\":954:1000   */\n  tag_22\n  jump\t// in\ntag_69:\n    /* \"#utility.yul\":837:1006   */\n  swap3\n  swap2\n  pop\n  pop\n  jump\t// out\n    /* \"#utility.yul\":1012:1129   */\ntag_24:\n    /* \"#utility.yul\":1121:1122   */\n  0x00\n    /* \"#utility.yul\":1118:1119   */\n  0x00\n    /* \"#utility.yul\":1111:1123   */\n  revert\n    /* \"#utility.yul\":1135:1252   */\ntag_25:\n    /* \"#utility.yul\":1244:1245   */\n  0x00\n    /* \"#utility.yul\":1241:1242   */\n  0x00\n    /* \"#utility.yul\":1234:1246   */\n  revert\n    /* \"#utility.yul\":1258:1360   */\ntag_26:\n    /* \"#utility.yul\":1299:1305   */\n  0x00\n    /* \"#utility.yul\":1350:1352   */\n  0x1f\n    /* \"#utility.yul\":1346:1353   */\n  not\n    /* \"#utility.yul\":1341:1343   */\n  0x1f\n    /* \"#utility.yul\":1334:1339   */\n  dup4\n    /* \"#utility.yul\":1330:1344   */\n  add\n    /* \"#utility.yul\":1326:1354   */\n  and\n    /* \"#utility.yul\":1316:1354   */\n  swap1\n  pop\n    /* \"#utility.yul\":1258:1360   */\n  swap2\n  swap1\n  pop\n  jump\t// out\n    /* \"#utility.yul\":1366:1546   */\ntag_27:\n    /* \"#utility.yul\":1414:1491   */\n  0x4e487b7100000000000000000000000000000000000000000000000000000000\n    /* \"#utility.yul\":1411:1412   */\n  0x00\n    /* \"#utility.yul\":1404:1492   */\n  mstore\n    /* \"#utility.yul\":1511:1515   */\n  0x41\n    /* \"#utility.yul\":1508:1509   */\n  0x04\n    /* \"#utility.yul\":1501:1516   */\n  mstore\n    /* \"#utility.yul\":1535:1539   */\n  0x24\n    /* \"#utility.yul\":1532:1533   */\n  0x00\n    /* \"#utility.yul\":1525:1540   */\n  revert\n    /* \"#utility.yul\":1552:1833   */\ntag_28:\n    /* \"#utility.yul\":1635:1662   */\n  tag_75\n    /* \"#utility.yul\":1657:1661   */\n  dup3\n    /* \"#utility.yul\":1635:1662   */\n  tag_26\n  jump\t// in\ntag_75:\n    /* \"#utility.yul\":1627:1633   */\n  dup2\n    /* \"#utility.yul\":1623:1663   */\n  add\n    /* \"#utility.yul\":1765:1771   */\n  dup2\n    /* \"#utility.yul\":1753:1763   */\n  dup2\n    /* \"#utility.yul\":1750:1772   */\n  lt\n    /* \"#utility.yul\":1729:1747   */\n  0xffffffffffffffff\n    /* \"#utility.yul\":1717:1727   */\n  dup3\n    /* \"#utility.yul\":1714:1748   */\n  gt\n    /* \"#utility.yul\":1711:1773   */\n  or\n    /* \"#utility.yul\":1708:1796   */\n  iszero\n  tag_76\n  jumpi\n    /* \"#utility.yul\":1776:1794   */\n  tag_77\n  tag_27\n  jump\t// in\ntag_77:\n    /* \"#utility.yul\":1708:1796   */\ntag_76:\n    /* \"#utility.yul\":1816:1826   */\n  dup1\n    /* \"#utility.yul\":1812:1814   */\n  0x40\n    /* \"#utility.yul\":1805:1827   */\n  mstore\n    /* \"#utility.yul\":1595:1833   */\n  pop\n    /* \"#utility.yul\":1552:1833   */\n  pop\n  pop\n  jump\t// out\n    /* \"#utility.yul\":1839:1968   */\ntag_29:\n    /* \"#utility.yul\":1873:1879   */\n  0x00\n    /* \"#utility.yul\":1900:1920   */\n  tag_79\n  tag_16\n  jump\t// in\ntag_79:\n    /* \"#utility.yul\":1890:1920   */\n  swap1\n  pop\n    /* \"#utility.yul\":1929:1962   */\n  tag_80\n    /* \"#utility.yul\":1957:1961   */\n  dup3\n    /* \"#utility.yul\":1949:1955   */\n  dup3\n    /* \"#utility.yul\":1929:1962   */\n  tag_28\n  jump\t// in\ntag_80:\n    /* \"#utility.yul\":1839:1968   */\n  swap2\n  swap1\n  pop\n  jump\t// out\n    /* \"#utility.yul\":1974:2282   */\ntag_30:\n    /* \"#utility.yul\":2036:2040   */\n  0x00\n    /* \"#utility.yul\":2126:2144   */\n  0xffffffffffffffff\n    /* \"#utility.yul\":2118:2124   */\n  dup3\n    /* \"#utility.yul\":2115:2145   */\n  gt\n    /* \"#utility.yul\":2112:2168   */\n  iszero\n  tag_82\n  jumpi\n    /* \"#utility.yul\":2148:2166   */\n  tag_83\n  tag_27\n  jump\t// in\ntag_83:\n    /* \"#utility.yul\":2112:2168   */\ntag_82:\n    /* \"#utility.yul\":2186:2215   */\n  tag_84\n    /* \"#utility.yul\":2208:2214   */\n  dup3\n    /* \"#utility.yul\":2186:2215   */\n  tag_26\n  jump\t// in\ntag_84:\n    /* \"#utility.yul\":2178:2215   */\n  swap1\n  pop\n    /* \"#utility.yul\":2270:2274   */\n  0x20\n    /* \"#utility.yul\":2264:2268   */\n  dup2\n    /* \"#utility.yul\":2260:2275   */\n  add\n    /* \"#utility.yul\":2252:2275   */\n  swap1\n  pop\n    /* \"#utility.yul\":1974:2282   */\n  swap2\n  swap1\n  pop\n  jump\t// out\n    /* \"#utility.yul\":2288:2427   */\ntag_31:\n    /* \"#utility.yul\":2377:2383   */\n  dup3\n    /* \"#utility.yul\":2372:2375   */\n  dup2\n    /* \"#utility.yul\":2367:2370   */\n  dup4\n    /* \"#utility.yul\":2361:2384   */\n  mcopy\n    /* \"#utility.yul\":2418:2419   */\n  0x00\n    /* \"#utility.yul\":2409:2415   */\n  dup4\n    /* \"#utility.yul\":2404:2407   */\n  dup4\n    /* \"#utility.yul\":2400:2416   */\n  add\n    /* \"#utility.yul\":2393:2420   */\n  mstore\n    /* \"#utility.yul\":2288:2427   */\n  pop\n  pop\n  pop\n  jump\t// out\n    /* \"#utility.yul\":2433:2867   */\ntag_32:\n    /* \"#utility.yul\":2522:2527   */\n  0x00\n    /* \"#utility.yul\":2547:2613   */\n  tag_87\n    /* \"#utility.yul\":2563:2612   */\n  tag_88\n    /* \"#utility.yul\":2605:2611   */\n  dup5\n    /* \"#utility.yul\":2563:2612   */\n  tag_30\n  jump\t// in\ntag_88:\n    /* \"#utility.yul\":2547:2613   */\n  tag_29\n  jump\t// in\ntag_87:\n    /* \"#utility.yul\":2538:2613   */\n  swap1\n  pop\n    /* \"#utility.yul\":2636:2642   */\n  dup3\n    /* \"#utility.yul\":2629:2634   */\n  dup2\n    /* \"#utility.yul\":2622:2643   */\n  mstore\n    /* \"#utility.yul\":2674:2678   */\n  0x20\n    /* \"#utility.yul\":2667:2672   */\n  dup2\n    /* \"#utility.yul\":2663:2679   */\n  add\n    /* \"#utility.yul\":2712:2715   */\n  dup5\n    /* \"#utility.yul\":2703:2709   */\n  dup5\n    /* \"#utility.yul\":2698:2701   */\n  dup5\n    /* \"#utility.yul\":2694:2710   */\n  add\n    /* \"#utility.yul\":2691:2716   */\n  gt\n    /* \"#utility.yul\":2688:2800   */\n  iszero\n  tag_89\n  jumpi\n    /* \"#utility.yul\":2719:2798   */\n  tag_90\n  tag_25\n  jump\t// in\ntag_90:\n    /* \"#utility.yul\":2688:2800   */\ntag_89:\n    /* \"#utility.yul\":2809:2861   */\n  tag_91\n    /* \"#utility.yul\":2854:2860   */\n  dup5\n    /* \"#utility.yul\":2849:2852   */\n  dup3\n    /* \"#utility.yul\":2844:2847   */\n  dup6\n    /* \"#utility.yul\":2809:2861   */\n  tag_31\n  jump\t// in\ntag_91:\n    /* \"#utility.yul\":2528:2867   */\n  pop\n    /* \"#utility.yul\":2433:2867   */\n  swap4\n  swap3\n  pop\n  pop\n  pop\n  jump\t// out\n    /* \"#utility.yul\":2887:3242   */\ntag_33:\n    /* \"#utility.yul\":2954:2959   */\n  0x00\n    /* \"#utility.yul\":3003:3006   */\n  dup3\n    /* \"#utility.yul\":2996:3000   */\n  0x1f\n    /* \"#utility.yul\":2988:2994   */\n  dup4\n    /* \"#utility.yul\":2984:3001   */\n  add\n    /* \"#utility.yul\":2980:3007   */\n  slt\n    /* \"#utility.yul\":2970:3092   */\n  tag_93\n  jumpi\n    /* \"#utility.yul\":3011:3090   */\n  tag_94\n  tag_24\n  jump\t// in\ntag_94:\n    /* \"#utility.yul\":2970:3092   */\ntag_93:\n    /* \"#utility.yul\":3121:3127   */\n  dup2\n    /* \"#utility.yul\":3115:3128   */\n  mload\n    /* \"#utility.yul\":3146:3236   */\n  tag_95\n    /* \"#utility.yul\":3232:3235   */\n  dup5\n    /* \"#utility.yul\":3224:3230   */\n  dup3\n    /* \"#utility.yul\":3217:3221   */\n  0x20\n    /* \"#utility.yul\":3209:3215   */\n  dup7\n    /* \"#utility.yul\":3205:3222   */\n  add\n    /* \"#utility.yul\":3146:3236   */\n  tag_32\n  jump\t// in\ntag_95:\n    /* \"#utility.yul\":3137:3236   */\n  swap2\n  pop\n    /* \"#utility.yul\":2960:3242   */\n  pop\n    /* \"#utility.yul\":2887:3242   */\n  swap3\n  swap2\n  pop\n  pop\n  jump\t// out\n    /* \"#utility.yul\":3248:4283   */\ntag_3:\n    /* \"#utility.yul\":3369:3375   */\n  0x00\n    /* \"#utility.yul\":3377:3383   */\n  0x00\n    /* \"#utility.yul\":3385:3391   */\n  0x00\n    /* \"#utility.yul\":3434:3436   */\n  0x60\n    /* \"#utility.yul\":3422:3431   */\n  dup5\n    /* \"#utility.yul\":3413:3420   */\n  dup7\n    /* \"#utility.yul\":3409:3432   */\n  sub\n    /* \"#utility.yul\":3405:3437   */\n  slt\n    /* \"#utility.yul\":3402:3521   */\n  iszero\n  tag_97\n  jumpi\n    /* \"#utility.yul\":3440:3519   */\n  tag_98\n  tag_17\n  jump\t// in\ntag_98:\n    /* \"#utility.yul\":3402:3521   */\ntag_97:\n    /* \"#utility.yul\":3560:3561   */\n  0x00\n    /* \"#utility.yul\":3585:3662   */\n  tag_99\n    /* \"#utility.yul\":3654:3661   */\n  dup7\n    /* \"#utility.yul\":3645:3651   */\n  dup3\n    /* \"#utility.yul\":3634:3643   */\n  dup8\n    /* \"#utility.yul\":3630:3652   */\n  add\n    /* \"#utility.yul\":3585:3662   */\n  tag_23\n  jump\t// in\ntag_99:\n    /* \"#utility.yul\":3575:3662   */\n  swap4\n  pop\n    /* \"#utility.yul\":3531:3672   */\n  pop\n    /* \"#utility.yul\":3732:3734   */\n  0x20\n    /* \"#utility.yul\":3721:3730   */\n  dup5\n    /* \"#utility.yul\":3717:3735   */\n  add\n    /* \"#utility.yul\":3711:3736   */\n  mload\n    /* \"#utility.yul\":3763:3781   */\n  0xffffffffffffffff\n    /* \"#utility.yul\":3755:3761   */\n  dup2\n    /* \"#utility.yul\":3752:3782   */\n  gt\n    /* \"#utility.yul\":3749:3866   */\n  iszero\n  tag_100\n  jumpi\n    /* \"#utility.yul\":3785:3864   */\n  tag_101\n  tag_18\n  jump\t// in\ntag_101:\n    /* \"#utility.yul\":3749:3866   */\ntag_100:\n    /* \"#utility.yul\":3890:3964   */\n  tag_102\n    /* \"#utility.yul\":3956:3963   */\n  dup7\n    /* \"#utility.yul\":3947:3953   */\n  dup3\n    /* \"#utility.yul\":3936:3945   */\n  dup8\n    /* \"#utility.yul\":3932:3954   */\n  add\n    /* \"#utility.yul\":3890:3964   */\n  tag_33\n  jump\t// in\ntag_102:\n    /* \"#utility.yul\":3880:3964   */\n  swap3\n  pop\n    /* \"#utility.yul\":3682:3974   */\n  pop\n    /* \"#utility.yul\":4034:4036   */\n  0x40\n    /* \"#utility.yul\":4023:4032   */\n  dup5\n    /* \"#utility.yul\":4019:4037   */\n  add\n    /* \"#utility.yul\":4013:4038   */\n  mload\n    /* \"#utility.yul\":4065:4083   */\n  0xffffffffffffffff\n    /* \"#utility.yul\":4057:4063   */\n  dup2\n    /* \"#utility.yul\":4054:4084   */\n  gt\n    /* \"#utility.yul\":4051:4168   */\n  iszero\n  tag_103\n  jumpi\n    /* \"#utility.yul\":4087:4166   */\n  tag_104\n  tag_18\n  jump\t// in\ntag_104:\n    /* \"#utility.yul\":4051:4168   */\ntag_103:\n    /* \"#utility.yul\":4192:4266   */\n  tag_105\n    /* \"#utility.yul\":4258:4265   */\n  dup7\n    /* \"#utility.yul\":4249:4255   */\n  dup3\n    /* \"#utility.yul\":4238:4247   */\n  dup8\n    /* \"#utility.yul\":4234:4256   */\n  add\n    /* \"#utility.yul\":4192:4266   */\n  tag_33\n  jump\t// in\ntag_105:\n    /* \"#utility.yul\":4182:4266   */\n  swap2\n  pop\n    /* \"#utility.yul\":3984:4276   */\n  pop\n    /* \"#utility.yul\":3248:4283   */\n  swap3\n  pop\n  swap3\n  pop\n  swap3\n  jump\t// out\n    /* \"#utility.yul\":4289:4388   */\ntag_34:\n    /* \"#utility.yul\":4341:4347   */\n  0x00\n    /* \"#utility.yul\":4375:4380   */\n  dup2\n    /* \"#utility.yul\":4369:4381   */\n  mload\n    /* \"#utility.yul\":4359:4381   */\n  swap1\n  pop\n    /* \"#utility.yul\":4289:4388   */\n  swap2\n  swap1\n  pop\n  jump\t// out\n    /* \"#utility.yul\":4394:4574   */\ntag_35:\n    /* \"#utility.yul\":4442:4519   */\n  0x4e487b7100000000000000000000000000000000000000000000000000000000\n    /* \"#utility.yul\":4439:4440   */\n  0x00\n    /* \"#utility.yul\":4432:4520   */\n  mstore\n    /* \"#utility.yul\":4539:4543   */\n  0x22\n    /* \"#utility.yul\":4536:4537   */\n  0x04\n    /* \"#utility.yul\":4529:4544   */\n  mstore\n    /* \"#utility.yul\":4563:4567   */\n  0x24\n    /* \"#utility.yul\":4560:4561   */\n  0x00\n    /* \"#utility.yul\":4553:4568   */\n  revert\n    /* \"#utility.yul\":4580:4900   */\ntag_36:\n    /* \"#utility.yul\":4624:4630   */\n  0x00\n    /* \"#utility.yul\":4661:4662   */\n  0x02\n    /* \"#utility.yul\":4655:4659   */\n  dup3\n    /* \"#utility.yul\":4651:4663   */\n  div\n    /* \"#utility.yul\":4641:4663   */\n  swap1\n  pop\n    /* \"#utility.yul\":4708:4709   */\n  0x01\n    /* \"#utility.yul\":4702:4706   */\n  dup3\n    /* \"#utility.yul\":4698:4710   */\n  and\n    /* \"#utility.yul\":4729:4747   */\n  dup1\n    /* \"#utility.yul\":4719:4800   */\n  tag_109\n  jumpi\n    /* \"#utility.yul\":4785:4789   */\n  0x7f\n    /* \"#utility.yul\":4777:4783   */\n  dup3\n    /* \"#utility.yul\":4773:4790   */\n  and\n    /* \"#utility.yul\":4763:4790   */\n  swap2\n  pop\n    /* \"#utility.yul\":4719:4800   */\ntag_109:\n    /* \"#utility.yul\":4847:4849   */\n  0x20\n    /* \"#utility.yul\":4839:4845   */\n  dup3\n    /* \"#utility.yul\":4836:4850   */\n  lt\n    /* \"#utility.yul\":4816:4834   */\n  dup2\n    /* \"#utility.yul\":4813:4851   */\n  sub\n    /* \"#utility.yul\":4810:4894   */\n  tag_110\n  jumpi\n    /* \"#utility.yul\":4866:4884   */\n  tag_111\n  tag_35\n  jump\t// in\ntag_111:\n    /* \"#utility.yul\":4810:4894   */\ntag_110:\n    /* \"#utility.yul\":4631:4900   */\n  pop\n    /* \"#utility.yul\":4580:4900   */\n  swap2\n  swap1\n  pop\n  jump\t// out\n    /* \"#utility.yul\":4906:5047   */\ntag_37:\n    /* \"#utility.yul\":4955:4959   */\n  0x00\n    /* \"#utility.yul\":4978:4981   */\n  dup2\n    /* \"#utility.yul\":4970:4981   */\n  swap1\n  pop\n    /* \"#utility.yul\":5001:5004   */\n  dup2\n    /* \"#utility.yul\":4998:4999   */\n  0x00\n    /* \"#utility.yul\":4991:5005   */\n  mstore\n    /* \"#utility.yul\":5035:5039   */\n  0x20\n    /* \"#utility.yul\":5032:5033   */\n  0x00\n    /* \"#utility.yul\":5022:5040   */\n  keccak256\n    /* \"#utility.yul\":5014:5040   */\n  swap1\n  pop\n    /* \"#utility.yul\":4906:5047   */\n  swap2\n  swap1\n  pop\n  jump\t// out\n    /* \"#utility.yul\":5053:5146   */\ntag_38:\n    /* \"#utility.yul\":5090:5096   */\n  0x00\n    /* \"#utility.yul\":5137:5139   */\n  0x20\n    /* \"#utility.yul\":5132:5134   */\n  0x1f\n    /* \"#utility.yul\":5125:5130   */\n  dup4\n    /* \"#utility.yul\":5121:5135   */\n  add\n    /* \"#utility.yul\":5117:5140   */\n  div\n    /* \"#utility.yul\":5107:5140   */\n  swap1\n  pop\n    /* \"#utility.yul\":5053:5146   */\n  swap2\n  swap1\n  pop\n  jump\t// out\n    /* \"#utility.yul\":5152:5259   */\ntag_39:\n    /* \"#utility.yul\":5196:5204   */\n  0x00\n    /* \"#utility.yul\":5246:5251   */\n  dup3\n    /* \"#utility.yul\":5240:5244   */\n  dup3\n    /* \"#utility.yul\":5236:5252   */\n  shl\n    /* \"#utility.yul\":5215:5252   */\n  swap1\n  pop\n    /* \"#utility.yul\":5152:5259   */\n  swap3\n  swap2\n  pop\n  pop\n  jump\t// out\n    /* \"#utility.yul\":5265:5658   */\ntag_40:\n    /* \"#utility.yul\":5334:5340   */\n  0x00\n    /* \"#utility.yul\":5384:5385   */\n  0x08\n    /* \"#utility.yul\":5372:5382   */\n  dup4\n    /* \"#utility.yul\":5368:5386   */\n  mul\n    /* \"#utility.yul\":5407:5504   */\n  tag_116\n    /* \"#utility.yul\":5437:5503   */\n  0xffffffffffffffffffffffffffffffffffffffffffffffffffffffffffffffff\n    /* \"#utility.yul\":5426:5435   */\n  dup3\n    /* \"#utility.yul\":5407:5504   */\n  tag_39\n  jump\t// in\ntag_116:\n    /* \"#utility.yul\":5525:5564   */\n  tag_117\n    /* \"#utility.yul\":5555:5563   */\n  dup7\n    /* \"#utility.yul\":5544:5553   */\n  dup4\n    /* \"#utility.yul\":5525:5564   */\n  tag_39\n  jump\t// in\ntag_117:\n    /* \"#utility.yul\":5513:5564   */\n  swap6\n  pop\n    /* \"#utility.yul\":5597:5601   */\n  dup1\n    /* \"#utility.yul\":5593:5602   */\n  not\n    /* \"#utility.yul\":5586:5591   */\n  dup5\n    /* \"#utility.yul\":5582:5603   */\n  and\n    /* \"#utility.yul\":5573:5603   */\n  swap4\n  pop\n    /* \"#utility.yul\":5646:5650   */\n  dup1\n    /* \"#utility.yul\":5636:5644   */\n  dup7\n    /* \"#utility.yul\":5632:5651   */\n  and\n    /* \"#utility.yul\":5625:5630   */\n  dup5\n    /* \"#utility.yul\":5622:5652   */\n  or\n    /* \"#utility.yul\":5612:5652   */\n  swap3\n  pop\n    /* \"#utility.yul\":5341:5658   */\n  pop\n  pop\n    /* \"#utility.yul\":5265:5658   */\n  swap4\n  swap3\n  pop\n  pop\n  pop\n  jump\t// out\n    /* \"#utility.yul\":5664:5741   */\ntag_41:\n    /* \"#utility.yul\":5701:5708   */\n  0x00\n    /* \"#utility.yul\":5730:5735   */\n  dup2\n    /* \"#utility.yul\":5719:5735   */\n  swap1\n  pop\n    /* \"#utility.yul\":5664:5741   */\n  swap2\n  swap1\n  pop\n  jump\t// out\n    /* \"#utility.yul\":5747:5807   */\ntag_42:\n    /* \"#utility.yul\":5775:5778   */\n  0x00\n    /* \"#utility.yul\":5796:5801   */\n  dup2\n    /* \"#utility.yul\":5789:5801   */\n  swap1\n  pop\n    /* \"#utility.yul\":5747:5807   */\n  swap2\n  swap1\n  pop\n  jump\t// out\n    /* \"#utility.yul\":5813:5955   */\ntag_43:\n    /* \"#utility.yul\":5863:5872   */\n  0x00\n    /* \"#utility.yul\":5896:5949   */\n  tag_121\n    /* \"#utility.yul\":5914:5948   */\n  tag_122\n    /* \"#utility.yul\":5923:5947   */\n  tag_123\n    /* \"#utility.yul\":5941:5946   */\n  dup5\n    /* \"#utility.yul\":5923:5947   */\n  tag_41\n  jump\t// in\ntag_123:\n    /* \"#utility.yul\":5914:5948   */\n  tag_42\n  jump\t// in\ntag_122:\n    /* \"#utility.yul\":5896:5949   */\n  tag_41\n  jump\t// in\ntag_121:\n    /* \"#utility.yul\":5883:5949   */\n  swap1\n  pop\n    /* \"#utility.yul\":5813:5955   */\n  swap2\n  swap1\n  pop\n  jump\t// out\n    /* \"#utility.yul\":5961:6036   */\ntag_44:\n    /* \"#utility.yul\":6004:6007   */\n  0x00\n    /* \"#utility.yul\":6025:6030   */\n  dup2\n    /* \"#utility.yul\":6018:6030   */\n  swap1\n  pop\n    /* \"#utility.yul\":5961:6036   */\n  swap2\n  swap1\n  pop\n  jump\t// out\n    /* \"#utility.yul\":6042:6311   */\ntag_45:\n    /* \"#utility.yul\":6152:6191   */\n  tag_126\n    /* \"#utility.yul\":6183:6190   */\n  dup4\n    /* \"#utility.yul\":6152:6191   */\n  tag_43\n  jump\t// in\ntag_126:\n    /* \"#utility.yul\":6213:6304   */\n  tag_127\n    /* \"#utility.yul\":6262:6303   */\n  tag_128\n    /* \"#utility.yul\":6286:6302   */\n  dup3\n    /* \"#utility.yul\":6262:6303   */\n  tag_44\n  jump\t// in\ntag_128:\n    /* \"#utility.yul\":6254:6260   */\n  dup5\n    /* \"#utility.yul\":6247:6251   */\n  dup5\n    /* \"#utility.yul\":6241:6252   */\n  sload\n    /* \"#utility.yul\":6213:6304   */\n  tag_40\n  jump\t// in\ntag_127:\n    /* \"#utility.yul\":6207:6211   */\n  dup3\n    /* \"#utility.yul\":6200:6305   */\n  sstore\n    /* \"#utility.yul\":6118:6311   */\n  pop\n    /* \"#utility.yul\":6042:6311   */\n  pop\n  pop\n  pop\n  jump\t// out\n    /* \"#utility.yul\":6317:6390   */\ntag_46:\n    /* \"#utility.yul\":6362:6365   */\n  0x00\n    /* \"#utility.yul\":6383:6384   */\n  0x00\n    /* \"#utility.yul\":6376:6384   */\n  swap1\n  pop\n    /* \"#utility.yul\":6317:6390   */\n  swap1\n  jump\t// out\n    /* \"#utility.yul\":6396:6585   */\ntag_47:\n    /* \"#utility.yul\":6473:6505   */\n  tag_131\n  tag_46\n  jump\t// in\ntag_131:\n    /* \"#utility.yul\":6514:6579   */\n  tag_132\n    /* \"#utility.yul\":6572:6578   */\n  dup2\n    /* \"#utility.yul\":6564:6570   */\n  dup5\n    /* \"#utility.yul\":6558:6562   */\n  dup5\n    /* \"#utility.yul\":6514:6579   */\n  tag_45\n  jump\t// in\ntag_132:\n    /* \"#utility.yul\":6449:6585   */\n  pop\n    /* \"#utility.yul\":6396:6585   */\n  pop\n  pop\n  jump\t// out\n    /* \"#utility.yul\":6591:6777   */\ntag_48:\n    /* \"#utility.yul\":6651:6771   */\ntag_134:\n    /* \"#utility.yul\":6668:6671   */\n  dup2\n    /* \"#utility.yul\":6661:6666   */\n  dup2\n    /* \"#utility.yul\":6658:6672   */\n  lt\n    /* \"#utility.yul\":6651:6771   */\n  iszero\n  tag_136\n  jumpi\n    /* \"#utility.yul\":6722:6761   */\n  tag_137\n    /* \"#utility.yul\":6759:6760   */\n  0x00\n    /* \"#utility.yul\":6752:6757   */\n  dup3\n    /* \"#utility.yul\":6722:6761   */\n  tag_47\n  jump\t// in\ntag_137:\n    /* \"#utility.yul\":6695:6696   */\n  0x01\n    /* \"#utility.yul\":6688:6693   */\n  dup2\n    /* \"#utility.yul\":6684:6697   */\n  add\n    /* \"#utility.yul\":6675:6697   */\n  swap1\n  pop\n    /* \"#utility.yul\":6651:6771   */\n  jump(tag_134)\ntag_136:\n    /* \"#utility.yul\":6591:6777   */\n  pop\n  pop\n  jump\t// out\n    /* \"#utility.yul\":6783:7326   */\ntag_49:\n    /* \"#utility.yul\":6884:6886   */\n  0x1f\n    /* \"#utility.yul\":6879:6882   */\n  dup3\n    /* \"#utility.yul\":6876:6887   */\n  gt\n    /* \"#utility.yul\":6873:7319   */\n  iszero\n  tag_139\n  jumpi\n    /* \"#utility.yul\":6918:6956   */\n  tag_140\n    /* \"#utility.yul\":6950:6955   */\n  dup2\n    /* \"#utility.yul\":6918:6956   */\n  tag_37\n  jump\t// in\ntag_140:\n    /* \"#utility.yul\":7002:7031   */\n  tag_141\n    /* \"#utility.yul\":7020:7030   */\n  dup5\n    /* \"#utility.yul\":7002:7031   */\n  tag_38\n  jump\t// in\ntag_141:\n    /* \"#utility.yul\":6992:7000   */\n  dup2\n    /* \"#utility.yul\":6988:7032   */\n  add\n    /* \"#utility.yul\":7185:7187   */\n  0x20\n    /* \"#utility.yul\":7173:7183   */\n  dup6\n    /* \"#utility.yul\":7170:7188   */\n  lt\n    /* \"#utility.yul\":7167:7216   */\n  iszero\n  tag_142\n  jumpi\n    /* \"#utility.yul\":7206:7214   */\n  dup2\n    /* \"#utility.yul\":7191:7214   */\n  swap1\n  pop\n    /* \"#utility.yul\":7167:7216   */\ntag_142:\n    /* \"#utility.yul\":7229:7309   */\n  tag_143\n    /* \"#utility.yul\":7285:7307   */\n  tag_144\n    /* \"#utility.yul\":7303:7306   */\n  dup6\n    /* \"#utility.yul\":7285:7307   */\n  tag_38\n  jump\t// in\ntag_144:\n    /* \"#utility.yul\":7275:7283   */\n  dup4\n    /* \"#utility.yul\":7271:7308   */\n  add\n    /* \"#utility.yul\":7258:7269   */\n  dup3\n    /* \"#utility.yul\":7229:7309   */\n  tag_48\n  jump\t// in\ntag_143:\n    /* \"#utility.yul\":6888:7319   */\n  pop\n  pop\n    /* \"#utility.yul\":6873:7319   */\ntag_139:\n    /* \"#utility.yul\":6783:7326   */\n  pop\n  pop\n  pop\n  jump\t// out\n    /* \"#utility.yul\":7332:7449   */\ntag_50:\n    /* \"#utility.yul\":7386:7394   */\n  0x00\n    /* \"#utility.yul\":7436:7441   */\n  dup3\n    /* \"#utility.yul\":7430:7434   */\n  dup3\n    /* \"#utility.yul\":7426:7442   */\n  shr\n    /* \"#utility.yul\":7405:7442   */\n  swap1\n  pop\n    /* \"#utility.yul\":7332:7449   */\n  swap3\n  swap2\n  pop\n  pop\n  jump\t// out\n    /* \"#utility.yul\":7455:7624   */\ntag_51:\n    /* \"#utility.yul\":7499:7505   */\n  0x00\n    /* \"#utility.yul\":7532:7583   */\n  tag_147\n    /* \"#utility.yul\":7580:7581   */\n  0x00\n    /* \"#utility.yul\":7576:7582   */\n  not\n    /* \"#utility.yul\":7568:7573   */\n  dup5\n    /* \"#utility.yul\":7565:7566   */\n  0x08\n    /* \"#utility.yul\":7561:7574   */\n  mul\n    /* \"#utility.yul\":7532:7583   */\n  tag_50\n  jump\t// in\ntag_147:\n    /* \"#utility.yul\":7528:7584   */\n  not\n    /* \"#utility.yul\":7613:7617   */\n  dup1\n    /* \"#utility.yul\":7607:7611   */\n  dup4\n    /* \"#utility.yul\":7603:7618   */\n  and\n    /* \"#utility.yul\":7593:7618   */\n  swap2\n  pop\n    /* \"#utility.yul\":7506:7624   */\n  pop\n    /* \"#utility.yul\":7455:7624   */\n  swap3\n  swap2\n  pop\n  pop\n  jump\t// out\n    /* \"#utility.yul\":7629:7924   */\ntag_52:\n    /* \"#utility.yul\":7705:7709   */\n  0x00\n    /* \"#utility.yul\":7851:7880   */\n  tag_149\n    /* \"#utility.yul\":7876:7879   */\n  dup4\n    /* \"#utility.yul\":7870:7874   */\n  dup4\n    /* \"#utility.yul\":7851:7880   */\n  tag_51\n  jump\t// in\ntag_149:\n    /* \"#utility.yul\":7843:7880   */\n  swap2\n  pop\n    /* \"#utility.yul\":7913:7916   */\n  dup3\n    /* \"#utility.yul\":7910:7911   */\n  0x02\n    /* \"#utility.yul\":7906:7917   */\n  mul\n    /* \"#utility.yul\":7900:7904   */\n  dup3\n    /* \"#utility.yul\":7897:7918   */\n  or\n    /* \"#utility.yul\":7889:7918   */\n  swap1\n  pop\n    /* \"#utility.yul\":7629:7924   */\n  swap3\n  swap2\n  pop\n  pop\n  jump\t// out\n    /* \"#utility.yul\":7929:9324   */\ntag_8:\n    /* \"#utility.yul\":8046:8083   */\n  tag_151\n    /* \"#utility.yul\":8079:8082   */\n  dup3\n    /* \"#utility.yul\":8046:8083   */\n  tag_34\n  jump\t// in\ntag_151:\n    /* \"#utility.yul\":8148:8166   */\n  0xffffffffffffffff\n    /* \"#utility.yul\":8140:8146   */\n  dup2\n    /* \"#utility.yul\":8137:8167   */\n  gt\n    /* \"#utility.yul\":8134:8190   */\n  iszero\n  tag_152\n  jumpi\n    /* \"#utility.yul\":8170:8188   */\n  tag_153\n  tag_27\n  jump\t// in\ntag_153:\n    /* \"#utility.yul\":8134:8190   */\ntag_152:\n    /* \"#utility.yul\":8214:8252   */\n  tag_154\n    /* \"#utility.yul\":8246:8250   */\n  dup3\n    /* \"#utility.yul\":8240:8251   */\n  sload\n    /* \"#utility.yul\":8214:8252   */\n  tag_36\n  jump\t// in\ntag_154:\n    /* \"#utility.yul\":8299:8366   */\n  tag_155\n    /* \"#utility.yul\":8359:8365   */\n  dup3\n    /* \"#utility.yul\":8351:8357   */\n  dup3\n    /* \"#utility.yul\":8345:8349   */\n  dup6\n    /* \"#utility.yul\":8299:8366   */\n  tag_49\n  jump\t// in\ntag_155:\n    /* \"#utility.yul\":8393:8394   */\n  0x00\n    /* \"#utility.yul\":8417:8421   */\n  0x20\n    /* \"#utility.yul\":8404:8421   */\n  swap1\n  pop\n    /* \"#utility.yul\":8449:8451   */\n  0x1f\n    /* \"#utility.yul\":8441:8447   */\n  dup4\n    /* \"#utility.yul\":8438:8452   */\n  gt\n    /* \"#utility.yul\":8466:8467   */\n  0x01\n    /* \"#utility.yul\":8461:9079   */\n  dup2\n  eq\n  tag_157\n  jumpi\n    /* \"#utility.yul\":9123:9124   */\n  0x00\n    /* \"#utility.yul\":9140:9146   */\n  dup5\n    /* \"#utility.yul\":9137:9214   */\n  iszero\n  tag_158\n  jumpi\n    /* \"#utility.yul\":9189:9198   */\n  dup3\n    /* \"#utility.yul\":9184:9187   */\n  dup8\n    /* \"#utility.yul\":9180:9199   */\n  add\n    /* \"#utility.yul\":9174:9200   */\n  mload\n    /* \"#utility.yul\":9165:9200   */\n  swap1\n  pop\n    /* \"#utility.yul\":9137:9214   */\ntag_158:\n    /* \"#utility.yul\":9240:9307   */\n  tag_159\n    /* \"#utility.yul\":9300:9306   */\n  dup6\n    /* \"#utility.yul\":9293:9298   */\n  dup3\n    /* \"#utility.yul\":9240:9307   */\n  tag_52\n  jump\t// in\ntag_159:\n    /* \"#utility.yul\":9234:9238   */\n  dup7\n    /* \"#utility.yul\":9227:9308   */\n  sstore\n    /* \"#utility.yul\":9096:9318   */\n  pop\n    /* \"#utility.yul\":8431:9318   */\n  jump(tag_156)\n    /* \"#utility.yul\":8461:9079   */\ntag_157:\n    /* \"#utility.yul\":8513:8517   */\n  0x1f\n    /* \"#utility.yul\":8509:8518   */\n  not\n    /* \"#utility.yul\":8501:8507   */\n  dup5\n    /* \"#utility.yul\":8497:8519   */\n  and\n    /* \"#utility.yul\":8547:8584   */\n  tag_160\n    /* \"#utility.yul\":8579:8583   */\n  dup7\n    /* \"#utility.yul\":8547:8584   */\n  tag_37\n  jump\t// in\ntag_160:\n    /* \"#utility.yul\":8606:8607   */\n  0x00\n    /* \"#utility.yul\":8620:8828   */\ntag_161:\n    /* \"#utility.yul\":8634:8641   */\n  dup3\n    /* \"#utility.yul\":8631:8632   */\n  dup2\n    /* \"#utility.yul\":8628:8642   */\n  lt\n    /* \"#utility.yul\":8620:8828   */\n  iszero\n  tag_163\n  jumpi\n    /* \"#utility.yul\":8713:8722   */\n  dup5\n    /* \"#utility.yul\":8708:8711   */\n  dup10\n    /* \"#utility.yul\":8704:8723   */\n  add\n    /* \"#utility.yul\":8698:8724   */\n  mload\n    /* \"#utility.yul\":8690:8696   */\n  dup3\n    /* \"#utility.yul\":8683:8725   */\n  sstore\n    /* \"#utility.yul\":8764:8765   */\n  0x01\n    /* \"#utility.yul\":8756:8762   */\n  dup3\n    /* \"#utility.yul\":8752:8766   */\n  add\n    /* \"#utility.yul\":8742:8766   */\n  swap2\n  pop\n    /* \"#utility.yul\":8811:8813   */\n  0x20\n    /* \"#utility.yul\":8800:8809   */\n  dup6\n    /* \"#utility.yul\":8796:8814   */\n  add\n    /* \"#utility.yul\":8783:8814   */\n  swap5\n  pop\n    /* \"#utility.yul\":8657:8661   */\n  0x20\n    /* \"#utility.yul\":8654:8655   */\n  dup2\n    /* \"#utility.yul\":8650:8662   */\n  add\n    /* \"#utility.yul\":8645:8662   */\n  swap1\n  pop\n    /* \"#utility.yul\":8620:8828   */\n  jump(tag_161)\ntag_163:\n    /* \"#utility.yul\":8856:8862   */\n  dup7\n    /* \"#utility.yul\":8847:8854   */\n  dup4\n    /* \"#utility.yul\":8844:8863   */\n  lt\n    /* \"#utility.yul\":8841:9020   */\n  iszero\n  tag_164\n  jumpi\n    /* \"#utility.yul\":8914:8923   */\n  dup5\n    /* \"#utility.yul\":8909:8912   */\n  dup10\n    /* \"#utility.yul\":8905:8924   */\n  add\n    /* \"#utility.yul\":8899:8925   */\n  mload\n    /* \"#utility.yul\":8957:9005   */\n  tag_165\n    /* \"#utility.yul\":8999:9003   */\n  0x1f\n    /* \"#utility.yul\":8991:8997   */\n  dup10\n    /* \"#utility.yul\":8987:9004   */\n  and\n    /* \"#utility.yul\":8976:8985   */\n  dup3\n    /* \"#utility.yul\":8957:9005   */\n  tag_51\n  jump\t// in\ntag_165:\n    /* \"#utility.yul\":8949:8955   */\n  dup4\n    /* \"#utility.yul\":8942:9006   */\n  sstore\n    /* \"#utility.yul\":8864:9020   */\n  pop\n    /* \"#utility.yul\":8841:9020   */\ntag_164:\n    /* \"#utility.yul\":9066:9067   */\n  0x01\n    /* \"#utility.yul\":9062:9063   */\n  0x02\n    /* \"#utility.yul\":9054:9060   */\n  dup9\n    /* \"#utility.yul\":9050:9064   */\n  mul\n    /* \"#utility.yul\":9046:9068   */\n  add\n    /* \"#utility.yul\":9040:9044   */\n  dup9\n    /* \"#utility.yul\":9033:9069   */\n  sstore\n    /* \"#utility.yul\":8468:9079   */\n  pop\n  pop\n  pop\n    /* \"#utility.yul\":8431:9318   */\ntag_156:\n  pop\n    /* \"#utility.yul\":8021:9324   */\n  pop\n  pop\n  pop\n    /* \"#utility.yul\":7929:9324   */\n  pop\n  pop\n  jump\t// out\n    /* \"#utility.yul\":9330:9416   */\ntag_53:\n    /* \"#utility.yul\":9365:9372   */\n  0x00\n    /* \"#utility.yul\":9405:9409   */\n  0xff\n    /* \"#utility.yul\":9398:9403   */\n  dup3\n    /* \"#utility.yul\":9394:9410   */\n  and\n    /* \"#utility.yul\":9383:9410   */\n  swap1\n  pop\n    /* \"#utility.yul\":9330:9416   */\n  swap2\n  swap1\n  pop\n  jump\t// out\n    /* \"#utility.yul\":9422:9540   */\ntag_54:\n    /* \"#utility.yul\":9493:9515   */\n  tag_168\n    /* \"#utility.yul\":9509:9514   */\n  dup2\n    /* \"#utility.yul\":9493:9515   */\n  tag_53\n  jump\t// in\ntag_168:\n    /* \"#utility.yul\":9486:9491   */\n  dup2\n    /* \"#utility.yul\":9483:9516   */\n  eq\n    /* \"#utility.yul\":9473:9534   */\n  tag_169\n  jumpi\n    /* \"#utility.yul\":9530:9531   */\n  0x00\n    /* \"#utility.yul\":9527:9528   */\n  0x00\n    /* \"#utility.yul\":9520:9532   */\n  revert\n    /* \"#utility.yul\":9473:9534   */\ntag_169:\n    /* \"#utility.yul\":9422:9540   */\n  pop\n  jump\t// out\n    /* \"#utility.yul\":9546:9685   */\ntag_55:\n    /* \"#utility.yul\":9601:9606   */\n  0x00\n    /* \"#utility.yul\":9632:9638   */\n  dup2\n    /* \"#utility.yul\":9626:9639   */\n  mload\n    /* \"#utility.yul\":9617:9639   */\n  swap1\n  pop\n    /* \"#utility.yul\":9648:9679   */\n  tag_171\n    /* \"#utility.yul\":9673:9678   */\n  dup2\n    /* \"#utility.yul\":9648:9679   */\n  tag_54\n  jump\t// in\ntag_171:\n    /* \"#utility.yul\":9546:9685   */\n  swap3\n  swap2\n  pop\n  pop\n  jump\t// out\n    /* \"#utility.yul\":9691:10038   */\ntag_14:\n    /* \"#utility.yul\":9759:9765   */\n  0x00\n    /* \"#utility.yul\":9808:9810   */\n  0x20\n    /* \"#utility.yul\":9796:9805   */\n  dup3\n    /* \"#utility.yul\":9787:9794   */\n  dup5\n    /* \"#utility.yul\":9783:9806   */\n  sub\n    /* \"#utility.yul\":9779:9811   */\n  slt\n    /* \"#utility.yul\":9776:9895   */\n  iszero\n  tag_173\n  jumpi\n    /* \"#utility.yul\":9814:9893   */\n  tag_174\n  tag_17\n  jump\t// in\ntag_174:\n    /* \"#utility.yul\":9776:9895   */\ntag_173:\n    /* \"#utility.yul\":9934:9935   */\n  0x00\n    /* \"#utility.yul\":9959:10021   */\n  tag_175\n    /* \"#utility.yul\":10013:10020   */\n  dup5\n    /* \"#utility.yul\":10004:10010   */\n  dup3\n    /* \"#utility.yul\":9993:10002   */\n  dup6\n    /* \"#utility.yul\":9989:10011   */\n  add\n    /* \"#utility.yul\":9959:10021   */\n  tag_55\n  jump\t// in\ntag_175:\n    /* \"#utility.yul\":9949:10021   */\n  swap2\n  pop\n    /* \"#utility.yul\":9905:10031   */\n  pop\n    /* \"#utility.yul\":9691:10038   */\n  swap3\n  swap2\n  pop\n  pop\n  jump\t// out\n    /* \"contracts/ERC4626.sol\":727:9188  contract ERC4626 is ERC20, IERC4626 {... */\ntag_15:\n  mload(0x80)\n  mload(0xa0)\n  codecopy(0x00, dataOffset(sub_0), dataSize(sub_0))\n  0x00\n  assignImmutable(\"0x28d661cc9d988d5307f207b74b6d74cee4476610b1bde926474d3f5b95354fd2\")\n  0x00\n  assignImmutable(\"0xd73e0b65d8a88e087fe45492939659264b6eeb687212994f56dac859eedb899a\")\n  return(0x00, dataSize(sub_0))\nstop\n\nsub_0: assembly {\n        /* \"contracts/ERC4626.sol\":727:9188  contract ERC4626 is ERC20, IERC4626 {... */\n      mstore(0x40, 0x80)\n      callvalue\n      dup1\n      iszero\n      tag_1\n      jumpi\n      revert(0x00, 0x00)\n    tag_1:\n      pop\n      jumpi(tag_2, lt(calldatasize, 0x04))\n      shr(0xe0, calldataload(0x00))\n      dup1\n      0x70a08231\n      gt\n      tag_28\n      jumpi\n      dup1\n      0xba087652\n      gt\n      tag_29\n      jumpi\n      dup1\n      0xce96cb77\n      gt\n      tag_30\n      jumpi\n      dup1\n      0xce96cb77\n      eq\n      tag_24\n      jumpi\n      dup1\n      0xd905777e\n      eq\n      tag_25\n      jumpi\n      dup1\n      0xdd62ed3e\n      eq\n      tag_26\n      jumpi\n      dup1\n      0xef8b30f7\n      eq\n      tag_27\n      jumpi\n      jump(tag_2)\n    tag_30:\n      dup1\n      0xba087652\n      eq\n      tag_21\n      jumpi\n      dup1\n      0xc63d75b6\n      eq\n      tag_22\n      jumpi\n      dup1\n      0xc6e6f592\n      eq\n      tag_23\n      jumpi\n      jump(tag_2)\n    tag_29:\n      dup1\n      0x70a08231\n      eq\n      tag_15\n      jumpi\n      dup1\n      0x94bf804d\n      eq\n      tag_16\n      jumpi\n      dup1\n      0x95d89b41\n      eq\n      tag_17\n      jumpi\n      dup1\n      0xa9059cbb\n      eq\n      tag_18\n      jumpi\n      dup1\n      0xb3d7f6b9\n      eq\n      tag_19\n      jumpi\n      dup1\n      0xb460af94\n      eq\n      tag_20\n      jumpi\n      jump(tag_2)\n    tag_28:\n      dup1\n      0x23b872dd\n      gt\n      tag_31\n      jumpi\n      dup1\n      0x23b872dd\n      eq\n      tag_9\n      jumpi\n      dup1\n      0x313ce567\n      eq\n      tag_10\n      jumpi\n      dup1\n      0x38d52e0f\n      eq\n      tag_11\n      jumpi\n      dup1\n      0x402d267d\n      eq\n      tag_12\n      jumpi\n      dup1\n      0x4cdad506\n      eq\n      tag_13\n      jumpi\n      dup1\n      0x6e553f65\n      eq\n      tag_14\n      jumpi\n      jump(tag_2)\n    tag_31:\n      dup1\n      0x01e1d114\n      eq\n      tag_3\n      jumpi\n      dup1\n      0x06fdde03\n      eq\n      tag_4\n      jumpi\n      dup1\n      0x07a2d13a\n      eq\n      tag_5\n      jumpi\n      dup1\n      0x095ea7b3\n      eq\n      tag_6\n      jumpi\n      dup1\n      0x0a28a477\n      eq\n      tag_7\n      jumpi\n      dup1\n      0x18160ddd\n      eq\n      tag_8\n      jumpi\n    tag_2:\n      revert(0x00, 0x00)\n        /* \"contracts/ERC4626.sol\":5590:5975  function totalAssets() public view virtual returns (uint256){... */\n    tag_3:\n      tag_32\n      tag_33\n      jump\t// in\n    tag_32:\n      mload(0x40)\n      tag_34\n      swap2\n      swap1\n      tag_35\n      jump\t// in\n    tag_34:\n      mload(0x40)\n      dup1\n      swap2\n      sub\n      swap1\n      return\n        /* \"@openzeppelin/contracts/token/ERC20/ERC20.sol\":1760:1849  function name() public view virtual returns (string memory) {... */\n    tag_4:\n      tag_36\n      tag_37\n      jump\t// in\n    tag_36:\n      mload(0x40)\n      tag_38\n      swap2\n      swap1\n      tag_39\n      jump\t// in\n    tag_38:\n      mload(0x40)\n      dup1\n      swap2\n      sub\n      swap1\n      return\n        /* \"contracts/ERC4626.sol\":6535:6852  function convertToAssets(uint256 shares) public view virtual returns (uint256) {... */\n    tag_5:\n      tag_40\n      0x04\n      dup1\n      calldatasize\n      sub\n      dup2\n      add\n      swap1\n      tag_41\n      swap2\n      swap1\n      tag_42\n      jump\t// in\n    tag_41:\n      tag_43\n      jump\t// in\n    tag_40:\n      mload(0x40)\n      tag_44\n      swap2\n      swap1\n      tag_35\n      jump\t// in\n    tag_44:\n      mload(0x40)\n      dup1\n      swap2\n      sub\n      swap1\n      return\n        /* \"@openzeppelin/contracts/token/ERC20/ERC20.sol\":3902:4088  function approve(address spender, uint256 value) public virtual returns (bool) {... */\n    tag_6:\n      tag_45\n      0x04\n      dup1\n      calldatasize\n      sub\n      dup2\n      add\n      swap1\n      tag_46\n      swap2\n      swap1\n      tag_47\n      jump\t// in\n    tag_46:\n      tag_48\n      jump\t// in\n    tag_45:\n      mload(0x40)\n      tag_49\n      swap2\n      swap1\n      tag_50\n      jump\t// in\n    tag_49:\n      mload(0x40)\n      dup1\n      swap2\n      sub\n      swap1\n      return\n        /* \"contracts/ERC4626.sol\":7387:7513  function previewWithdraw(uint256 assets) public view virtual returns (uint256) {... */\n    tag_7:\n      tag_51\n      0x04\n      dup1\n      calldatasize\n      sub\n      dup2\n      add\n      swap1\n      tag_52\n      swap2\n      swap1\n      tag_42\n      jump\t// in\n    tag_52:\n      tag_53\n      jump\t// in\n    tag_51:\n      mload(0x40)\n      tag_54\n      swap2\n      swap1\n      tag_35\n      jump\t// in\n    tag_54:\n      mload(0x40)\n      dup1\n      swap2\n      sub\n      swap1\n      return\n        /* \"@openzeppelin/contracts/token/ERC20/ERC20.sol\":2803:2900  function totalSupply() public view virtual returns (uint256) {... */\n    tag_8:\n      tag_55\n      tag_56\n      jump\t// in\n    tag_55:\n      mload(0x40)\n      tag_57\n      swap2\n      swap1\n      tag_35\n      jump\t// in\n    tag_57:\n      mload(0x40)\n      dup1\n      swap2\n      sub\n      swap1\n      return\n        /* \"@openzeppelin/contracts/token/ERC20/ERC20.sol\":4680:4924  function transferFrom(address from, address to, uint256 value) public virtual returns (bool) {... */\n    tag_9:\n      tag_58\n      0x04\n      dup1\n      calldatasize\n      sub\n      dup2\n      add\n      swap1\n      tag_59\n      swap2\n      swap1\n      tag_60\n      jump\t// in\n    tag_59:\n      tag_61\n      jump\t// in\n    tag_58:\n      mload(0x40)\n      tag_62\n      swap2\n      swap1\n      tag_50\n      jump\t// in\n    tag_62:\n      mload(0x40)\n      dup1\n      swap2\n      sub\n      swap1\n      return\n        /* \"contracts/ERC4626.sol\":1815:1936  function decimals() public view virtual override(IERC20Metadata, ERC20) returns (uint8) {... */\n    tag_10:\n      tag_63\n      tag_64\n      jump\t// in\n    tag_63:\n      mload(0x40)\n      tag_65\n      swap2\n      swap1\n      tag_66\n      jump\t// in\n    tag_65:\n      mload(0x40)\n      dup1\n      swap2\n      sub\n      swap1\n      return\n        /* \"contracts/ERC4626.sol\":1506:1671  function asset() public view virtual override returns (address) {... */\n    tag_11:\n      tag_67\n      tag_68\n      jump\t// in\n    tag_67:\n      mload(0x40)\n      tag_69\n      swap2\n      swap1\n      tag_70\n      jump\t// in\n    tag_69:\n      mload(0x40)\n      dup1\n      swap2\n      sub\n      swap1\n      return\n        /* \"contracts/ERC4626.sol\":8288:8396  function maxDeposit(address) public view virtual returns (uint256) {... */\n    tag_12:\n      tag_71\n      0x04\n      dup1\n      calldatasize\n      sub\n      dup2\n      add\n      swap1\n      tag_72\n      swap2\n      swap1\n      tag_73\n      jump\t// in\n    tag_72:\n      tag_74\n      jump\t// in\n    tag_71:\n      mload(0x40)\n      tag_75\n      swap2\n      swap1\n      tag_35\n      jump\t// in\n    tag_75:\n      mload(0x40)\n      dup1\n      swap2\n      sub\n      swap1\n      return\n        /* \"contracts/ERC4626.sol\":7618:7742  function previewRedeem(uint256 shares) public view virtual returns (uint256) {... */\n    tag_13:\n      tag_76\n      0x04\n      dup1\n      calldatasize\n      sub\n      dup2\n      add\n      swap1\n      tag_77\n      swap2\n      swap1\n      tag_42\n      jump\t// in\n    tag_77:\n      tag_78\n      jump\t// in\n    tag_76:\n      mload(0x40)\n      tag_79\n      swap2\n      swap1\n      tag_35\n      jump\t// in\n    tag_79:\n      mload(0x40)\n      dup1\n      swap2\n      sub\n      swap1\n      return\n        /* \"contracts/ERC4626.sol\":2397:3315  function deposit(uint256 assets,address receiver) public virtual returns (uint256 shares){... */\n    tag_14:\n      tag_80\n      0x04\n      dup1\n      calldatasize\n      sub\n      dup2\n      add\n      swap1\n      tag_81\n      swap2\n      swap1\n      tag_82\n      jump\t// in\n    tag_81:\n      tag_83\n      jump\t// in\n    tag_80:\n      mload(0x40)\n      tag_84\n      swap2\n      swap1\n      tag_35\n      jump\t// in\n    tag_84:\n      mload(0x40)\n      dup1\n      swap2\n      sub\n      swap1\n      return\n        /* \"@openzeppelin/contracts/token/ERC20/ERC20.sol\":2933:3049  function balanceOf(address account) public view virtual returns (uint256) {... */\n    tag_15:\n      tag_85\n      0x04\n      dup1\n      calldatasize\n      sub\n      dup2\n      add\n      swap1\n      tag_86\n      swap2\n      swap1\n      tag_73\n      jump\t// in\n    tag_86:\n      tag_87\n      jump\t// in\n    tag_85:\n      mload(0x40)\n      tag_88\n      swap2\n      swap1\n      tag_35\n      jump\t// in\n    tag_88:\n      mload(0x40)\n      dup1\n      swap2\n      sub\n      swap1\n      return\n        /* \"contracts/ERC4626.sol\":3617:4060  function mint(uint256 shares, address receiver) public virtual returns (uint256 assets) {... */\n    tag_16:\n      tag_89\n      0x04\n      dup1\n      calldatasize\n      sub\n      dup2\n      add\n      swap1\n      tag_90\n      swap2\n      swap1\n      tag_82\n      jump\t// in\n    tag_90:\n      tag_91\n      jump\t// in\n    tag_89:\n      mload(0x40)\n      tag_92\n      swap2\n      swap1\n      tag_35\n      jump\t// in\n    tag_92:\n      mload(0x40)\n      dup1\n      swap2\n      sub\n      swap1\n      return\n        /* \"@openzeppelin/contracts/token/ERC20/ERC20.sol\":1962:2055  function symbol() public view virtual returns (string memory) {... */\n    tag_17:\n      tag_93\n      tag_94\n      jump\t// in\n    tag_93:\n      mload(0x40)\n      tag_95\n      swap2\n      swap1\n      tag_39\n      jump\t// in\n    tag_95:\n      mload(0x40)\n      dup1\n      swap2\n      sub\n      swap1\n      return\n        /* \"@openzeppelin/contracts/token/ERC20/ERC20.sol\":3244:3422  function transfer(address to, uint256 value) public virtual returns (bool) {... */\n    tag_18:\n      tag_96\n      0x04\n      dup1\n      calldatasize\n      sub\n      dup2\n      add\n      swap1\n      tag_97\n      swap2\n      swap1\n      tag_47\n      jump\t// in\n    tag_97:\n      tag_98\n      jump\t// in\n    tag_96:\n      mload(0x40)\n      tag_99\n      swap2\n      swap1\n      tag_50\n      jump\t// in\n    tag_99:\n      mload(0x40)\n      dup1\n      swap2\n      sub\n      swap1\n      return\n        /* \"contracts/ERC4626.sol\":7149:7271  function previewMint(uint256 shares) public view virtual returns (uint256) {... */\n    tag_19:\n      tag_100\n      0x04\n      dup1\n      calldatasize\n      sub\n      dup2\n      add\n      swap1\n      tag_101\n      swap2\n      swap1\n      tag_42\n      jump\t// in\n    tag_101:\n      tag_102\n      jump\t// in\n    tag_100:\n      mload(0x40)\n      tag_103\n      swap2\n      swap1\n      tag_35\n      jump\t// in\n    tag_103:\n      mload(0x40)\n      dup1\n      swap2\n      sub\n      swap1\n      return\n        /* \"contracts/ERC4626.sol\":4079:4730  function withdraw(... */\n    tag_20:\n      tag_104\n      0x04\n      dup1\n      calldatasize\n      sub\n      dup2\n      add\n      swap1\n      tag_105\n      swap2\n      swap1\n      tag_106\n      jump\t// in\n    tag_105:\n      tag_107\n      jump\t// in\n    tag_104:\n      mload(0x40)\n      tag_108\n      swap2\n      swap1\n      tag_35\n      jump\t// in\n    tag_108:\n      mload(0x40)\n      dup1\n      swap2\n      sub\n      swap1\n      return\n        /* \"contracts/ERC4626.sol\":4750:5404  function redeem(... */\n    tag_21:\n      tag_109\n      0x04\n      dup1\n      calldatasize\n      sub\n      dup2\n      add\n      swap1\n      tag_110\n      swap2\n      swap1\n      tag_106\n      jump\t// in\n    tag_110:\n      tag_111\n      jump\t// in\n    tag_109:\n      mload(0x40)\n      tag_112\n      swap2\n      swap1\n      tag_35\n      jump\t// in\n    tag_112:\n      mload(0x40)\n      dup1\n      swap2\n      sub\n      swap1\n      return\n        /* \"contracts/ERC4626.sol\":8442:8547  function maxMint(address) public view virtual returns (uint256) {... */\n    tag_22:\n      tag_113\n      0x04\n      dup1\n      calldatasize\n      sub\n      dup2\n      add\n      swap1\n      tag_114\n      swap2\n      swap1\n      tag_73\n      jump\t// in\n    tag_114:\n      tag_115\n      jump\t// in\n    tag_113:\n      mload(0x40)\n      tag_116\n      swap2\n      swap1\n      tag_35\n      jump\t// in\n    tag_116:\n      mload(0x40)\n      dup1\n      swap2\n      sub\n      swap1\n      return\n        /* \"contracts/ERC4626.sol\":6111:6511  function convertToShares(uint256 assets) public view virtual returns (uint256) {... */\n    tag_23:\n      tag_117\n      0x04\n      dup1\n      calldatasize\n      sub\n      dup2\n      add\n      swap1\n      tag_118\n      swap2\n      swap1\n      tag_42\n      jump\t// in\n    tag_118:\n      tag_119\n      jump\t// in\n    tag_117:\n      mload(0x40)\n      tag_120\n      swap2\n      swap1\n      tag_35\n      jump\t// in\n    tag_120:\n      mload(0x40)\n      dup1\n      swap2\n      sub\n      swap1\n      return\n        /* \"contracts/ERC4626.sol\":8638:8889  function maxWithdraw(address owner) public view virtual returns (uint256) {... */\n    tag_24:\n      tag_121\n      0x04\n      dup1\n      calldatasize\n      sub\n      dup2\n      add\n      swap1\n      tag_122\n      swap2\n      swap1\n      tag_73\n      jump\t// in\n    tag_122:\n      tag_123\n      jump\t// in\n    tag_121:\n      mload(0x40)\n      tag_124\n      swap2\n      swap1\n      tag_35\n      jump\t// in\n    tag_124:\n      mload(0x40)\n      dup1\n      swap2\n      sub\n      swap1\n      return\n        /* \"contracts/ERC4626.sol\":8941:9179  function maxRedeem(address owner) public view virtual returns (uint256) {... */\n    tag_25:\n      tag_125\n      0x04\n      dup1\n      calldatasize\n      sub\n      dup2\n      add\n      swap1\n      tag_126\n      swap2\n      swap1\n      tag_73\n      jump\t// in\n    tag_126:\n      tag_127\n      jump\t// in\n    tag_125:\n      mload(0x40)\n      tag_128\n      swap2\n      swap1\n      tag_35\n      jump\t// in\n    tag_128:\n      mload(0x40)\n      dup1\n      swap2\n      sub\n      swap1\n      return\n        /* \"@openzeppelin/contracts/token/ERC20/ERC20.sol\":3455:3595  function allowance(address owner, address spender) public view virtual returns (uint256) {... */\n    tag_26:\n      tag_129\n      0x04\n      dup1\n      calldatasize\n      sub\n      dup2\n      add\n      swap1\n      tag_130\n      swap2\n      swap1\n      tag_131\n      jump\t// in\n    tag_130:\n      tag_132\n      jump\t// in\n    tag_129:\n      mload(0x40)\n      tag_133\n      swap2\n      swap1\n      tag_35\n      jump\t// in\n    tag_133:\n      mload(0x40)\n      dup1\n      swap2\n      sub\n      swap1\n      return\n        /* \"contracts/ERC4626.sol\":6924:7049  function previewDeposit(uint256 assets) public view virtual returns (uint256) {... */\n    tag_27:\n      tag_134\n      0x04\n      dup1\n      calldatasize\n      sub\n      dup2\n      add\n      swap1\n      tag_135\n      swap2\n      swap1\n      tag_42\n      jump\t// in\n    tag_135:\n      tag_136\n      jump\t// in\n    tag_134:\n      mload(0x40)\n      tag_137\n      swap2\n      swap1\n      tag_35\n      jump\t// in\n    tag_137:\n      mload(0x40)\n      dup1\n      swap2\n      sub\n      swap1\n      return\n        /* \"contracts/ERC4626.sol\":5590:5975  function totalAssets() public view virtual returns (uint256){... */\n    tag_33:\n        /* \"contracts/ERC4626.sol\":5642:5649  uint256 */\n      0x00\n        /* \"contracts/ERC4626.sol\":5937:5943  _asset */\n      immutable(\"0xd73e0b65d8a88e087fe45492939659264b6eeb687212994f56dac859eedb899a\")\n        /* \"contracts/ERC4626.sol\":5937:5953  _asset.balanceOf */\n      0xffffffffffffffffffffffffffffffffffffffff\n      and\n      0x70a08231\n        /* \"contracts/ERC4626.sol\":5962:5966  this */\n      address\n        /* \"contracts/ERC4626.sol\":5937:5968  _asset.balanceOf(address(this)) */\n      mload(0x40)\n      dup3\n      0xffffffff\n      and\n      0xe0\n      shl\n      dup2\n      mstore\n      0x04\n      add\n      tag_139\n      swap2\n      swap1\n      tag_70\n      jump\t// in\n    tag_139:\n      0x20\n      mload(0x40)\n      dup1\n      dup4\n      sub\n      dup2\n      dup7\n      gas\n      staticcall\n      iszero\n      dup1\n      iszero\n      tag_141\n      jumpi\n      returndatacopy(0x00, 0x00, returndatasize)\n      revert(0x00, returndatasize)\n    tag_141:\n      pop\n      pop\n      pop\n      pop\n      mload(0x40)\n      returndatasize\n      not(0x1f)\n      0x1f\n      dup3\n      add\n      and\n      dup3\n      add\n      dup1\n      0x40\n      mstore\n      pop\n      dup2\n      add\n      swap1\n      tag_142\n      swap2\n      swap1\n      tag_143\n      jump\t// in\n    tag_142:\n        /* \"contracts/ERC4626.sol\":5930:5968  return _asset.balanceOf(address(this)) */\n      swap1\n      pop\n        /* \"contracts/ERC4626.sol\":5590:5975  function totalAssets() public view virtual returns (uint256){... */\n      swap1\n      jump\t// out\n        /* \"@openzeppelin/contracts/token/ERC20/ERC20.sol\":1760:1849  function name() public view virtual returns (string memory) {... */\n    tag_37:\n        /* \"@openzeppelin/contracts/token/ERC20/ERC20.sol\":1805:1818  string memory */\n      0x60\n        /* \"@openzeppelin/contracts/token/ERC20/ERC20.sol\":1837:1842  _name */\n      0x03\n        /* \"@openzeppelin/contracts/token/ERC20/ERC20.sol\":1830:1842  return _name */\n      dup1\n      sload\n      tag_145\n      swap1\n      tag_146\n      jump\t// in\n    tag_145:\n      dup1\n      0x1f\n      add\n      0x20\n      dup1\n      swap2\n      div\n      mul\n      0x20\n      add\n      mload(0x40)\n      swap1\n      dup2\n      add\n      0x40\n      mstore\n      dup1\n      swap3\n      swap2\n      swap1\n      dup2\n      dup2\n      mstore\n      0x20\n      add\n      dup3\n      dup1\n      sload\n      tag_147\n      swap1\n      tag_146\n      jump\t// in\n    tag_147:\n      dup1\n      iszero\n      tag_148\n      jumpi\n      dup1\n      0x1f\n      lt\n      tag_149\n      jumpi\n      0x0100\n      dup1\n      dup4\n      sload\n      div\n      mul\n      dup4\n      mstore\n      swap2\n      0x20\n      add\n      swap2\n      jump(tag_148)\n    tag_149:\n      dup3\n      add\n      swap2\n      swap1\n      0x00\n      mstore\n      keccak256(0x00, 0x20)\n      swap1\n    tag_150:\n      dup2\n      sload\n      dup2\n      mstore\n      swap1\n      0x01\n      add\n      swap1\n      0x20\n      add\n      dup1\n      dup4\n      gt\n      tag_150\n      jumpi\n      dup3\n      swap1\n      sub\n      0x1f\n      and\n      dup3\n      add\n      swap2\n    tag_148:\n      pop\n      pop\n      pop\n      pop\n      pop\n      swap1\n      pop\n        /* \"@openzeppelin/contracts/token/ERC20/ERC20.sol\":1760:1849  function name() public view virtual returns (string memory) {... */\n      swap1\n      jump\t// out\n        /* \"contracts/ERC4626.sol\":6535:6852  function convertToAssets(uint256 shares) public view virtual returns (uint256) {... */\n    tag_43:\n        /* \"contracts/ERC4626.sol\":6605:6612  uint256 */\n      0x00\n        /* \"contracts/ERC4626.sol\":6624:6638  uint256 supply */\n      0x00\n        /* \"contracts/ERC4626.sol\":6641:6654  totalSupply() */\n      tag_152\n        /* \"contracts/ERC4626.sol\":6641:6652  totalSupply */\n      tag_56\n        /* \"contracts/ERC4626.sol\":6641:6654  totalSupply() */\n      jump\t// in\n    tag_152:\n        /* \"contracts/ERC4626.sol\":6624:6654  uint256 supply = totalSupply() */\n      swap1\n      pop\n        /* \"contracts/ERC4626.sol\":6801:6802  0 */\n      0x00\n        /* \"contracts/ERC4626.sol\":6791:6797  supply */\n      dup2\n        /* \"contracts/ERC4626.sol\":6791:6802  supply == 0 */\n      eq\n        /* \"contracts/ERC4626.sol\":6791:6845  supply == 0 ? shares : shares * totalAssets() / supply */\n      tag_153\n      jumpi\n        /* \"contracts/ERC4626.sol\":6839:6845  supply */\n      dup1\n        /* \"contracts/ERC4626.sol\":6823:6836  totalAssets() */\n      tag_154\n        /* \"contracts/ERC4626.sol\":6823:6834  totalAssets */\n      tag_33\n        /* \"contracts/ERC4626.sol\":6823:6836  totalAssets() */\n      jump\t// in\n    tag_154:\n        /* \"contracts/ERC4626.sol\":6814:6820  shares */\n      dup5\n        /* \"contracts/ERC4626.sol\":6814:6836  shares * totalAssets() */\n      tag_155\n      swap2\n      swap1\n      tag_156\n      jump\t// in\n    tag_155:\n        /* \"contracts/ERC4626.sol\":6814:6845  shares * totalAssets() / supply */\n      tag_157\n      swap2\n      swap1\n      tag_158\n      jump\t// in\n    tag_157:\n        /* \"contracts/ERC4626.sol\":6791:6845  supply == 0 ? shares : shares * totalAssets() / supply */\n      jump(tag_159)\n    tag_153:\n        /* \"contracts/ERC4626.sol\":6805:6811  shares */\n      dup3\n        /* \"contracts/ERC4626.sol\":6791:6845  supply == 0 ? shares : shares * totalAssets() / supply */\n    tag_159:\n        /* \"contracts/ERC4626.sol\":6784:6845  return supply == 0 ? shares : shares * totalAssets() / supply */\n      swap2\n      pop\n      pop\n        /* \"contracts/ERC4626.sol\":6535:6852  function convertToAssets(uint256 shares) public view virtual returns (uint256) {... */\n      swap2\n      swap1\n      pop\n      jump\t// out\n        /* \"@openzeppelin/contracts/token/ERC20/ERC20.sol\":3902:4088  function approve(address spender, uint256 value) public virtual returns (bool) {... */\n    tag_48:\n        /* \"@openzeppelin/contracts/token/ERC20/ERC20.sol\":3975:3979  bool */\n      0x00\n        /* \"@openzeppelin/contracts/token/ERC20/ERC20.sol\":3991:4004  address owner */\n      0x00\n        /* \"@openzeppelin/contracts/token/ERC20/ERC20.sol\":4007:4019  _msgSender() */\n      tag_161\n        /* \"@openzeppelin/contracts/token/ERC20/ERC20.sol\":4007:4017  _msgSender */\n      tag_162\n        /* \"@openzeppelin/contracts/token/ERC20/ERC20.sol\":4007:4019  _msgSender() */\n      jump\t// in\n    tag_161:\n        /* \"@openzeppelin/contracts/token/ERC20/ERC20.sol\":3991:4019  address owner = _msgSender() */\n      swap1\n      pop\n        /* \"@openzeppelin/contracts/token/ERC20/ERC20.sol\":4029:4060  _approve(owner, spender, value) */\n      tag_163\n        /* \"@openzeppelin/contracts/token/ERC20/ERC20.sol\":4038:4043  owner */\n      dup2\n        /* \"@openzeppelin/contracts/token/ERC20/ERC20.sol\":4045:4052  spender */\n      dup6\n        /* \"@openzeppelin/contracts/token/ERC20/ERC20.sol\":4054:4059  value */\n      dup6\n        /* \"@openzeppelin/contracts/token/ERC20/ERC20.sol\":4029:4037  _approve */\n      tag_164\n        /* \"@openzeppelin/contracts/token/ERC20/ERC20.sol\":4029:4060  _approve(owner, spender, value) */\n      jump\t// in\n    tag_163:\n        /* \"@openzeppelin/contracts/token/ERC20/ERC20.sol\":4077:4081  true */\n      0x01\n        /* \"@openzeppelin/contracts/token/ERC20/ERC20.sol\":4070:4081  return true */\n      swap2\n      pop\n      pop\n        /* \"@openzeppelin/contracts/token/ERC20/ERC20.sol\":3902:4088  function approve(address spender, uint256 value) public virtual returns (bool) {... */\n      swap3\n      swap2\n      pop\n      pop\n      jump\t// out\n        /* \"contracts/ERC4626.sol\":7387:7513  function previewWithdraw(uint256 assets) public view virtual returns (uint256) {... */\n    tag_53:\n        /* \"contracts/ERC4626.sol\":7457:7464  uint256 */\n      0x00\n        /* \"contracts/ERC4626.sol\":7483:7506  convertToShares(assets) */\n      tag_166\n        /* \"contracts/ERC4626.sol\":7499:7505  assets */\n      dup3\n        /* \"contracts/ERC4626.sol\":7483:7498  convertToShares */\n      tag_119\n        /* \"contracts/ERC4626.sol\":7483:7506  convertToShares(assets) */\n      jump\t// in\n    tag_166:\n        /* \"contracts/ERC4626.sol\":7476:7506  return convertToShares(assets) */\n      swap1\n      pop\n        /* \"contracts/ERC4626.sol\":7387:7513  function previewWithdraw(uint256 assets) public view virtual returns (uint256) {... */\n      swap2\n      swap1\n      pop\n      jump\t// out\n        /* \"@openzeppelin/contracts/token/ERC20/ERC20.sol\":2803:2900  function totalSupply() public view virtual returns (uint256) {... */\n    tag_56:\n        /* \"@openzeppelin/contracts/token/ERC20/ERC20.sol\":2855:2862  uint256 */\n      0x00\n        /* \"@openzeppelin/contracts/token/ERC20/ERC20.sol\":2881:2893  _totalSupply */\n      sload(0x02)\n        /* \"@openzeppelin/contracts/token/ERC20/ERC20.sol\":2874:2893  return _totalSupply */\n      swap1\n      pop\n        /* \"@openzeppelin/contracts/token/ERC20/ERC20.sol\":2803:2900  function totalSupply() public view virtual returns (uint256) {... */\n      swap1\n      jump\t// out\n        /* \"@openzeppelin/contracts/token/ERC20/ERC20.sol\":4680:4924  function transferFrom(address from, address to, uint256 value) public virtual returns (bool) {... */\n    tag_61:\n        /* \"@openzeppelin/contracts/token/ERC20/ERC20.sol\":4767:4771  bool */\n      0x00\n        /* \"@openzeppelin/contracts/token/ERC20/ERC20.sol\":4783:4798  address spender */\n      0x00\n        /* \"@openzeppelin/contracts/token/ERC20/ERC20.sol\":4801:4813  _msgSender() */\n      tag_169\n        /* \"@openzeppelin/contracts/token/ERC20/ERC20.sol\":4801:4811  _msgSender */\n      tag_162\n        /* \"@openzeppelin/contracts/token/ERC20/ERC20.sol\":4801:4813  _msgSender() */\n      jump\t// in\n    tag_169:\n        /* \"@openzeppelin/contracts/token/ERC20/ERC20.sol\":4783:4813  address spender = _msgSender() */\n      swap1\n      pop\n        /* \"@openzeppelin/contracts/token/ERC20/ERC20.sol\":4823:4860  _spendAllowance(from, spender, value) */\n      tag_170\n        /* \"@openzeppelin/contracts/token/ERC20/ERC20.sol\":4839:4843  from */\n      dup6\n        /* \"@openzeppelin/contracts/token/ERC20/ERC20.sol\":4845:4852  spender */\n      dup3\n        /* \"@openzeppelin/contracts/token/ERC20/ERC20.sol\":4854:4859  value */\n      dup6\n        /* \"@openzeppelin/contracts/token/ERC20/ERC20.sol\":4823:4838  _spendAllowance */\n      tag_171\n        /* \"@openzeppelin/contracts/token/ERC20/ERC20.sol\":4823:4860  _spendAllowance(from, spender, value) */\n      jump\t// in\n    tag_170:\n        /* \"@openzeppelin/contracts/token/ERC20/ERC20.sol\":4870:4896  _transfer(from, to, value) */\n      tag_172\n        /* \"@openzeppelin/contracts/token/ERC20/ERC20.sol\":4880:4884  from */\n      dup6\n        /* \"@openzeppelin/contracts/token/ERC20/ERC20.sol\":4886:4888  to */\n      dup6\n        /* \"@openzeppelin/contracts/token/ERC20/ERC20.sol\":4890:4895  value */\n      dup6\n        /* \"@openzeppelin/contracts/token/ERC20/ERC20.sol\":4870:4879  _transfer */\n      tag_173\n        /* \"@openzeppelin/contracts/token/ERC20/ERC20.sol\":4870:4896  _transfer(from, to, value) */\n      jump\t// in\n    tag_172:\n        /* \"@openzeppelin/contracts/token/ERC20/ERC20.sol\":4913:4917  true */\n      0x01\n        /* \"@openzeppelin/contracts/token/ERC20/ERC20.sol\":4906:4917  return true */\n      swap2\n      pop\n      pop\n        /* \"@openzeppelin/contracts/token/ERC20/ERC20.sol\":4680:4924  function transferFrom(address from, address to, uint256 value) public virtual returns (bool) {... */\n      swap4\n      swap3\n      pop\n      pop\n      pop\n      jump\t// out\n        /* \"contracts/ERC4626.sol\":1815:1936  function decimals() public view virtual override(IERC20Metadata, ERC20) returns (uint8) {... */\n    tag_64:\n        /* \"contracts/ERC4626.sol\":1896:1901  uint8 */\n      0x00\n        /* \"contracts/ERC4626.sol\":1920:1929  _decimals */\n      immutable(\"0x28d661cc9d988d5307f207b74b6d74cee4476610b1bde926474d3f5b95354fd2\")\n        /* \"contracts/ERC4626.sol\":1913:1929  return _decimals */\n      swap1\n      pop\n        /* \"contracts/ERC4626.sol\":1815:1936  function decimals() public view virtual override(IERC20Metadata, ERC20) returns (uint8) {... */\n      swap1\n      jump\t// out\n        /* \"contracts/ERC4626.sol\":1506:1671  function asset() public view virtual override returns (address) {... */\n    tag_68:\n        /* \"contracts/ERC4626.sol\":1561:1568  address */\n      0x00\n        /* \"contracts/ERC4626.sol\":1595:1601  _asset */\n      immutable(\"0xd73e0b65d8a88e087fe45492939659264b6eeb687212994f56dac859eedb899a\")\n        /* \"contracts/ERC4626.sol\":1580:1602  return address(_asset) */\n      swap1\n      pop\n        /* \"contracts/ERC4626.sol\":1506:1671  function asset() public view virtual override returns (address) {... */\n      swap1\n      jump\t// out\n        /* \"contracts/ERC4626.sol\":8288:8396  function maxDeposit(address) public view virtual returns (uint256) {... */\n    tag_74:\n        /* \"contracts/ERC4626.sol\":8346:8353  uint256 */\n      0x00\n        /* \"contracts/ERC4626.sol\":8372:8389  type(uint256).max */\n      0xffffffffffffffffffffffffffffffffffffffffffffffffffffffffffffffff\n        /* \"contracts/ERC4626.sol\":8365:8389  return type(uint256).max */\n      swap1\n      pop\n        /* \"contracts/ERC4626.sol\":8288:8396  function maxDeposit(address) public view virtual returns (uint256) {... */\n      swap2\n      swap1\n      pop\n      jump\t// out\n        /* \"contracts/ERC4626.sol\":7618:7742  function previewRedeem(uint256 shares) public view virtual returns (uint256) {... */\n    tag_78:\n        /* \"contracts/ERC4626.sol\":7686:7693  uint256 */\n      0x00\n        /* \"contracts/ERC4626.sol\":7712:7735  convertToAssets(shares) */\n      tag_178\n        /* \"contracts/ERC4626.sol\":7728:7734  shares */\n      dup3\n        /* \"contracts/ERC4626.sol\":7712:7727  convertToAssets */\n      tag_43\n        /* \"contracts/ERC4626.sol\":7712:7735  convertToAssets(shares) */\n      jump\t// in\n    tag_178:\n        /* \"contracts/ERC4626.sol\":7705:7735  return convertToAssets(shares) */\n      swap1\n      pop\n        /* \"contracts/ERC4626.sol\":7618:7742  function previewRedeem(uint256 shares) public view virtual returns (uint256) {... */\n      swap2\n      swap1\n      pop\n      jump\t// out\n        /* \"contracts/ERC4626.sol\":2397:3315  function deposit(uint256 assets,address receiver) public virtual returns (uint256 shares){... */\n    tag_83:\n        /* \"contracts/ERC4626.sol\":2471:2485  uint256 shares */\n      0x00\n        /* \"contracts/ERC4626.sol\":2571:2593  previewDeposit(assets) */\n      tag_180\n        /* \"contracts/ERC4626.sol\":2586:2592  assets */\n      dup4\n        /* \"contracts/ERC4626.sol\":2571:2585  previewDeposit */\n      tag_136\n        /* \"contracts/ERC4626.sol\":2571:2593  previewDeposit(assets) */\n      jump\t// in\n    tag_180:\n        /* \"contracts/ERC4626.sol\":2562:2593  shares = previewDeposit(assets) */\n      swap1\n      pop\n        /* \"contracts/ERC4626.sol\":3128:3134  _asset */\n      immutable(\"0xd73e0b65d8a88e087fe45492939659264b6eeb687212994f56dac859eedb899a\")\n        /* \"contracts/ERC4626.sol\":3128:3147  _asset.transferFrom */\n      0xffffffffffffffffffffffffffffffffffffffff\n      and\n      0x23b872dd\n        /* \"contracts/ERC4626.sol\":3148:3158  msg.sender */\n      caller\n        /* \"contracts/ERC4626.sol\":3168:3172  this */\n      address\n        /* \"contracts/ERC4626.sol\":3175:3181  assets */\n      dup7\n        /* \"contracts/ERC4626.sol\":3128:3182  _asset.transferFrom(msg.sender, address(this), assets) */\n      mload(0x40)\n      dup5\n      0xffffffff\n      and\n      0xe0\n      shl\n      dup2\n      mstore\n      0x04\n      add\n      tag_181\n      swap4\n      swap3\n      swap2\n      swap1\n      tag_182\n      jump\t// in\n    tag_181:\n      0x20\n      mload(0x40)\n      dup1\n      dup4\n      sub\n      dup2\n      0x00\n      dup8\n      gas\n      call\n      iszero\n      dup1\n      iszero\n      tag_184\n      jumpi\n      returndatacopy(0x00, 0x00, returndatasize)\n      revert(0x00, returndatasize)\n    tag_184:\n      pop\n      pop\n      pop\n      pop\n      mload(0x40)\n      returndatasize\n      not(0x1f)\n      0x1f\n      dup3\n      add\n      and\n      dup3\n      add\n      dup1\n      0x40\n      mstore\n      pop\n      dup2\n      add\n      swap1\n      tag_185\n      swap2\n      swap1\n      tag_186\n      jump\t// in\n    tag_185:\n      pop\n        /* \"contracts/ERC4626.sol\":3192:3215  _mint(receiver, shares) */\n      tag_187\n        /* \"contracts/ERC4626.sol\":3198:3206  receiver */\n      dup3\n        /* \"contracts/ERC4626.sol\":3208:3214  shares */\n      dup3\n        /* \"contracts/ERC4626.sol\":3192:3197  _mint */\n      tag_188\n        /* \"contracts/ERC4626.sol\":3192:3215  _mint(receiver, shares) */\n      jump\t// in\n    tag_187:\n        /* \"contracts/ERC4626.sol\":3283:3291  receiver */\n      dup2\n        /* \"contracts/ERC4626.sol\":3263:3308  Deposit(msg.sender, receiver, assets, shares) */\n      0xffffffffffffffffffffffffffffffffffffffff\n      and\n        /* \"contracts/ERC4626.sol\":3271:3281  msg.sender */\n      caller\n        /* \"contracts/ERC4626.sol\":3263:3308  Deposit(msg.sender, receiver, assets, shares) */\n      0xffffffffffffffffffffffffffffffffffffffff\n      and\n      0xdcbc1c05240f31ff3ad067ef1ee35ce4997762752e3a095284754544f4c709d7\n        /* \"contracts/ERC4626.sol\":3293:3299  assets */\n      dup6\n        /* \"contracts/ERC4626.sol\":3301:3307  shares */\n      dup5\n        /* \"contracts/ERC4626.sol\":3263:3308  Deposit(msg.sender, receiver, assets, shares) */\n      mload(0x40)\n      tag_189\n      swap3\n      swap2\n      swap1\n      tag_190\n      jump\t// in\n    tag_189:\n      mload(0x40)\n      dup1\n      swap2\n      sub\n      swap1\n      log3\n        /* \"contracts/ERC4626.sol\":2397:3315  function deposit(uint256 assets,address receiver) public virtual returns (uint256 shares){... */\n      swap3\n      swap2\n      pop\n      pop\n      jump\t// out\n        /* \"@openzeppelin/contracts/token/ERC20/ERC20.sol\":2933:3049  function balanceOf(address account) public view virtual returns (uint256) {... */\n    tag_87:\n        /* \"@openzeppelin/contracts/token/ERC20/ERC20.sol\":2998:3005  uint256 */\n      0x00\n        /* \"@openzeppelin/contracts/token/ERC20/ERC20.sol\":3024:3033  _balances */\n      0x00\n        /* \"@openzeppelin/contracts/token/ERC20/ERC20.sol\":3024:3042  _balances[account] */\n      0x00\n        /* \"@openzeppelin/contracts/token/ERC20/ERC20.sol\":3034:3041  account */\n      dup4\n        /* \"@openzeppelin/contracts/token/ERC20/ERC20.sol\":3024:3042  _balances[account] */\n      0xffffffffffffffffffffffffffffffffffffffff\n      and\n      0xffffffffffffffffffffffffffffffffffffffff\n      and\n      dup2\n      mstore\n      0x20\n      add\n      swap1\n      dup2\n      mstore\n      0x20\n      add\n      0x00\n      keccak256\n      sload\n        /* \"@openzeppelin/contracts/token/ERC20/ERC20.sol\":3017:3042  return _balances[account] */\n      swap1\n      pop\n        /* \"@openzeppelin/contracts/token/ERC20/ERC20.sol\":2933:3049  function balanceOf(address account) public view virtual returns (uint256) {... */\n      swap2\n      swap1\n      pop\n      jump\t// out\n        /* \"contracts/ERC4626.sol\":3617:4060  function mint(uint256 shares, address receiver) public virtual returns (uint256 assets) {... */\n    tag_91:\n        /* \"contracts/ERC4626.sol\":3689:3703  uint256 assets */\n      0x00\n        /* \"contracts/ERC4626.sol\":3796:3815  previewMint(shares) */\n      tag_193\n        /* \"contracts/ERC4626.sol\":3808:3814  shares */\n      dup4\n        /* \"contracts/ERC4626.sol\":3796:3807  previewMint */\n      tag_102\n        /* \"contracts/ERC4626.sol\":3796:3815  previewMint(shares) */\n      jump\t// in\n    tag_193:\n        /* \"contracts/ERC4626.sol\":3787:3815  assets = previewMint(shares) */\n      swap1\n      pop\n        /* \"contracts/ERC4626.sol\":3873:3879  _asset */\n      immutable(\"0xd73e0b65d8a88e087fe45492939659264b6eeb687212994f56dac859eedb899a\")\n        /* \"contracts/ERC4626.sol\":3873:3892  _asset.transferFrom */\n      0xffffffffffffffffffffffffffffffffffffffff\n      and\n      0x23b872dd\n        /* \"contracts/ERC4626.sol\":3893:3903  msg.sender */\n      caller\n        /* \"contracts/ERC4626.sol\":3913:3917  this */\n      address\n        /* \"contracts/ERC4626.sol\":3920:3926  assets */\n      dup5\n        /* \"contracts/ERC4626.sol\":3873:3927  _asset.transferFrom(msg.sender, address(this), assets) */\n      mload(0x40)\n      dup5\n      0xffffffff\n      and\n      0xe0\n      shl\n      dup2\n      mstore\n      0x04\n      add\n      tag_194\n      swap4\n      swap3\n      swap2\n      swap1\n      tag_182\n      jump\t// in\n    tag_194:\n      0x20\n      mload(0x40)\n      dup1\n      dup4\n      sub\n      dup2\n      0x00\n      dup8\n      gas\n      call\n      iszero\n      dup1\n      iszero\n      tag_196\n      jumpi\n      returndatacopy(0x00, 0x00, returndatasize)\n      revert(0x00, returndatasize)\n    tag_196:\n      pop\n      pop\n      pop\n      pop\n      mload(0x40)\n      returndatasize\n      not(0x1f)\n      0x1f\n      dup3\n      add\n      and\n      dup3\n      add\n      dup1\n      0x40\n      mstore\n      pop\n      dup2\n      add\n      swap1\n      tag_197\n      swap2\n      swap1\n      tag_186\n      jump\t// in\n    tag_197:\n      pop\n        /* \"contracts/ERC4626.sol\":3937:3960  _mint(receiver, shares) */\n      tag_198\n        /* \"contracts/ERC4626.sol\":3943:3951  receiver */\n      dup3\n        /* \"contracts/ERC4626.sol\":3953:3959  shares */\n      dup5\n        /* \"contracts/ERC4626.sol\":3937:3942  _mint */\n      tag_188\n        /* \"contracts/ERC4626.sol\":3937:3960  _mint(receiver, shares) */\n      jump\t// in\n    tag_198:\n        /* \"contracts/ERC4626.sol\":4028:4036  receiver */\n      dup2\n        /* \"contracts/ERC4626.sol\":4008:4053  Deposit(msg.sender, receiver, assets, shares) */\n      0xffffffffffffffffffffffffffffffffffffffff\n      and\n        /* \"contracts/ERC4626.sol\":4016:4026  msg.sender */\n      caller\n        /* \"contracts/ERC4626.sol\":4008:4053  Deposit(msg.sender, receiver, assets, shares) */\n      0xffffffffffffffffffffffffffffffffffffffff\n      and\n      0xdcbc1c05240f31ff3ad067ef1ee35ce4997762752e3a095284754544f4c709d7\n        /* \"contracts/ERC4626.sol\":4038:4044  assets */\n      dup4\n        /* \"contracts/ERC4626.sol\":4046:4052  shares */\n      dup7\n        /* \"contracts/ERC4626.sol\":4008:4053  Deposit(msg.sender, receiver, assets, shares) */\n      mload(0x40)\n      tag_199\n      swap3\n      swap2\n      swap1\n      tag_190\n      jump\t// in\n    tag_199:\n      mload(0x40)\n      dup1\n      swap2\n      sub\n      swap1\n      log3\n        /* \"contracts/ERC4626.sol\":3617:4060  function mint(uint256 shares, address receiver) public virtual returns (uint256 assets) {... */\n      swap3\n      swap2\n      pop\n      pop\n      jump\t// out\n        /* \"@openzeppelin/contracts/token/ERC20/ERC20.sol\":1962:2055  function symbol() public view virtual returns (string memory) {... */\n    tag_94:\n        /* \"@openzeppelin/contracts/token/ERC20/ERC20.sol\":2009:2022  string memory */\n      0x60\n        /* \"@openzeppelin/contracts/token/ERC20/ERC20.sol\":2041:2048  _symbol */\n      0x04\n        /* \"@openzeppelin/contracts/token/ERC20/ERC20.sol\":2034:2048  return _symbol */\n      dup1\n      sload\n      tag_201\n      swap1\n      tag_146\n      jump\t// in\n    tag_201:\n      dup1\n      0x1f\n      add\n      0x20\n      dup1\n      swap2\n      div\n      mul\n      0x20\n      add\n      mload(0x40)\n      swap1\n      dup2\n      add\n      0x40\n      mstore\n      dup1\n      swap3\n      swap2\n      swap1\n      dup2\n      dup2\n      mstore\n      0x20\n      add\n      dup3\n      dup1\n      sload\n      tag_202\n      swap1\n      tag_146\n      jump\t// in\n    tag_202:\n      dup1\n      iszero\n      tag_203\n      jumpi\n      dup1\n      0x1f\n      lt\n      tag_204\n      jumpi\n      0x0100\n      dup1\n      dup4\n      sload\n      div\n      mul\n      dup4\n      mstore\n      swap2\n      0x20\n      add\n      swap2\n      jump(tag_203)\n    tag_204:\n      dup3\n      add\n      swap2\n      swap1\n      0x00\n      mstore\n      keccak256(0x00, 0x20)\n      swap1\n    tag_205:\n      dup2\n      sload\n      dup2\n      mstore\n      swap1\n      0x01\n      add\n      swap1\n      0x20\n      add\n      dup1\n      dup4\n      gt\n      tag_205\n      jumpi\n      dup3\n      swap1\n      sub\n      0x1f\n      and\n      dup3\n      add\n      swap2\n    tag_203:\n      pop\n      pop\n      pop\n      pop\n      pop\n      swap1\n      pop\n        /* \"@openzeppelin/contracts/token/ERC20/ERC20.sol\":1962:2055  function symbol() public view virtual returns (string memory) {... */\n      swap1\n      jump\t// out\n        /* \"@openzeppelin/contracts/token/ERC20/ERC20.sol\":3244:3422  function transfer(address to, uint256 value) public virtual returns (bool) {... */\n    tag_98:\n        /* \"@openzeppelin/contracts/token/ERC20/ERC20.sol\":3313:3317  bool */\n      0x00\n        /* \"@openzeppelin/contracts/token/ERC20/ERC20.sol\":3329:3342  address owner */\n      0x00\n        /* \"@openzeppelin/contracts/token/ERC20/ERC20.sol\":3345:3357  _msgSender() */\n      tag_207\n        /* \"@openzeppelin/contracts/token/ERC20/ERC20.sol\":3345:3355  _msgSender */\n      tag_162\n        /* \"@openzeppelin/contracts/token/ERC20/ERC20.sol\":3345:3357  _msgSender() */\n      jump\t// in\n    tag_207:\n        /* \"@openzeppelin/contracts/token/ERC20/ERC20.sol\":3329:3357  address owner = _msgSender() */\n      swap1\n      pop\n        /* \"@openzeppelin/contracts/token/ERC20/ERC20.sol\":3367:3394  _transfer(owner, to, value) */\n      tag_208\n        /* \"@openzeppelin/contracts/token/ERC20/ERC20.sol\":3377:3382  owner */\n      dup2\n        /* \"@openzeppelin/contracts/token/ERC20/ERC20.sol\":3384:3386  to */\n      dup6\n        /* \"@openzeppelin/contracts/token/ERC20/ERC20.sol\":3388:3393  value */\n      dup6\n        /* \"@openzeppelin/contracts/token/ERC20/ERC20.sol\":3367:3376  _transfer */\n      tag_173\n        /* \"@openzeppelin/contracts/token/ERC20/ERC20.sol\":3367:3394  _transfer(owner, to, value) */\n      jump\t// in\n    tag_208:\n        /* \"@openzeppelin/contracts/token/ERC20/ERC20.sol\":3411:3415  true */\n      0x01\n        /* \"@openzeppelin/contracts/token/ERC20/ERC20.sol\":3404:3415  return true */\n      swap2\n      pop\n      pop\n        /* \"@openzeppelin/contracts/token/ERC20/ERC20.sol\":3244:3422  function transfer(address to, uint256 value) public virtual returns (bool) {... */\n      swap3\n      swap2\n      pop\n      pop\n      jump\t// out\n        /* \"contracts/ERC4626.sol\":7149:7271  function previewMint(uint256 shares) public view virtual returns (uint256) {... */\n    tag_102:\n        /* \"contracts/ERC4626.sol\":7215:7222  uint256 */\n      0x00\n        /* \"contracts/ERC4626.sol\":7241:7264  convertToAssets(shares) */\n      tag_210\n        /* \"contracts/ERC4626.sol\":7257:7263  shares */\n      dup3\n        /* \"contracts/ERC4626.sol\":7241:7256  convertToAssets */\n      tag_43\n        /* \"contracts/ERC4626.sol\":7241:7264  convertToAssets(shares) */\n      jump\t// in\n    tag_210:\n        /* \"contracts/ERC4626.sol\":7234:7264  return convertToAssets(shares) */\n      swap1\n      pop\n        /* \"contracts/ERC4626.sol\":7149:7271  function previewMint(uint256 shares) public view virtual returns (uint256) {... */\n      swap2\n      swap1\n      pop\n      jump\t// out\n        /* \"contracts/ERC4626.sol\":4079:4730  function withdraw(... */\n    tag_107:\n        /* \"contracts/ERC4626.sol\":4204:4218  uint256 shares */\n      0x00\n        /* \"contracts/ERC4626.sol\":4306:4329  previewWithdraw(assets) */\n      tag_212\n        /* \"contracts/ERC4626.sol\":4322:4328  assets */\n      dup5\n        /* \"contracts/ERC4626.sol\":4306:4321  previewWithdraw */\n      tag_53\n        /* \"contracts/ERC4626.sol\":4306:4329  previewWithdraw(assets) */\n      jump\t// in\n    tag_212:\n        /* \"contracts/ERC4626.sol\":4297:4329  shares = previewWithdraw(assets) */\n      swap1\n      pop\n        /* \"contracts/ERC4626.sol\":4423:4428  owner */\n      dup2\n        /* \"contracts/ERC4626.sol\":4409:4428  msg.sender != owner */\n      0xffffffffffffffffffffffffffffffffffffffff\n      and\n        /* \"contracts/ERC4626.sol\":4409:4419  msg.sender */\n      caller\n        /* \"contracts/ERC4626.sol\":4409:4428  msg.sender != owner */\n      0xffffffffffffffffffffffffffffffffffffffff\n      and\n      eq\n        /* \"contracts/ERC4626.sol\":4405:4497  if (msg.sender != owner) {... */\n      tag_213\n      jumpi\n        /* \"contracts/ERC4626.sol\":4444:4486  _spendAllowance(owner, msg.sender, shares) */\n      tag_214\n        /* \"contracts/ERC4626.sol\":4460:4465  owner */\n      dup3\n        /* \"contracts/ERC4626.sol\":4467:4477  msg.sender */\n      caller\n        /* \"contracts/ERC4626.sol\":4479:4485  shares */\n      dup4\n        /* \"contracts/ERC4626.sol\":4444:4459  _spendAllowance */\n      tag_171\n        /* \"contracts/ERC4626.sol\":4444:4486  _spendAllowance(owner, msg.sender, shares) */\n      jump\t// in\n    tag_214:\n        /* \"contracts/ERC4626.sol\":4405:4497  if (msg.sender != owner) {... */\n    tag_213:\n        /* \"contracts/ERC4626.sol\":4555:4575  _burn(owner, shares) */\n      tag_215\n        /* \"contracts/ERC4626.sol\":4561:4566  owner */\n      dup3\n        /* \"contracts/ERC4626.sol\":4568:4574  shares */\n      dup3\n        /* \"contracts/ERC4626.sol\":4555:4560  _burn */\n      tag_216\n        /* \"contracts/ERC4626.sol\":4555:4575  _burn(owner, shares) */\n      jump\t// in\n    tag_215:\n        /* \"contracts/ERC4626.sol\":4585:4591  _asset */\n      immutable(\"0xd73e0b65d8a88e087fe45492939659264b6eeb687212994f56dac859eedb899a\")\n        /* \"contracts/ERC4626.sol\":4585:4600  _asset.transfer */\n      0xffffffffffffffffffffffffffffffffffffffff\n      and\n      0xa9059cbb\n        /* \"contracts/ERC4626.sol\":4601:4609  receiver */\n      dup5\n        /* \"contracts/ERC4626.sol\":4611:4617  assets */\n      dup7\n        /* \"contracts/ERC4626.sol\":4585:4618  _asset.transfer(receiver, assets) */\n      mload(0x40)\n      dup4\n      0xffffffff\n      and\n      0xe0\n      shl\n      dup2\n      mstore\n      0x04\n      add\n      tag_217\n      swap3\n      swap2\n      swap1\n      tag_218\n      jump\t// in\n    tag_217:\n      0x20\n      mload(0x40)\n      dup1\n      dup4\n      sub\n      dup2\n      0x00\n      dup8\n      gas\n      call\n      iszero\n      dup1\n      iszero\n      tag_220\n      jumpi\n      returndatacopy(0x00, 0x00, returndatasize)\n      revert(0x00, returndatasize)\n    tag_220:\n      pop\n      pop\n      pop\n      pop\n      mload(0x40)\n      returndatasize\n      not(0x1f)\n      0x1f\n      dup3\n      add\n      and\n      dup3\n      add\n      dup1\n      0x40\n      mstore\n      pop\n      dup2\n      add\n      swap1\n      tag_221\n      swap2\n      swap1\n      tag_186\n      jump\t// in\n    tag_221:\n      pop\n        /* \"contracts/ERC4626.sol\":4700:4705  owner */\n      dup2\n        /* \"contracts/ERC4626.sol\":4669:4722  Withdraw(msg.sender, receiver, owner, assets, shares) */\n      0xffffffffffffffffffffffffffffffffffffffff\n      and\n        /* \"contracts/ERC4626.sol\":4690:4698  receiver */\n      dup4\n        /* \"contracts/ERC4626.sol\":4669:4722  Withdraw(msg.sender, receiver, owner, assets, shares) */\n      0xffffffffffffffffffffffffffffffffffffffff\n      and\n        /* \"contracts/ERC4626.sol\":4678:4688  msg.sender */\n      caller\n        /* \"contracts/ERC4626.sol\":4669:4722  Withdraw(msg.sender, receiver, owner, assets, shares) */\n      0xffffffffffffffffffffffffffffffffffffffff\n      and\n      0xfbde797d201c681b91056529119e0b02407c7bb96a4a2c75c01fc9667232c8db\n        /* \"contracts/ERC4626.sol\":4707:4713  assets */\n      dup8\n        /* \"contracts/ERC4626.sol\":4715:4721  shares */\n      dup6\n        /* \"contracts/ERC4626.sol\":4669:4722  Withdraw(msg.sender, receiver, owner, assets, shares) */\n      mload(0x40)\n      tag_222\n      swap3\n      swap2\n      swap1\n      tag_190\n      jump\t// in\n    tag_222:\n      mload(0x40)\n      dup1\n      swap2\n      sub\n      swap1\n      log4\n        /* \"contracts/ERC4626.sol\":4079:4730  function withdraw(... */\n      swap4\n      swap3\n      pop\n      pop\n      pop\n      jump\t// out\n        /* \"contracts/ERC4626.sol\":4750:5404  function redeem(... */\n    tag_111:\n        /* \"contracts/ERC4626.sol\":4869:4883  uint256 assets */\n      0x00\n        /* \"contracts/ERC4626.sol\":4975:4996  previewRedeem(shares) */\n      tag_224\n        /* \"contracts/ERC4626.sol\":4989:4995  shares */\n      dup5\n        /* \"contracts/ERC4626.sol\":4975:4988  previewRedeem */\n      tag_78\n        /* \"contracts/ERC4626.sol\":4975:4996  previewRedeem(shares) */\n      jump\t// in\n    tag_224:\n        /* \"contracts/ERC4626.sol\":4966:4996  assets = previewRedeem(shares) */\n      swap1\n      pop\n        /* \"contracts/ERC4626.sol\":5091:5096  owner */\n      dup2\n        /* \"contracts/ERC4626.sol\":5077:5096  msg.sender != owner */\n      0xffffffffffffffffffffffffffffffffffffffff\n      and\n        /* \"contracts/ERC4626.sol\":5077:5087  msg.sender */\n      caller\n        /* \"contracts/ERC4626.sol\":5077:5096  msg.sender != owner */\n      0xffffffffffffffffffffffffffffffffffffffff\n      and\n      eq\n        /* \"contracts/ERC4626.sol\":5073:5165  if (msg.sender != owner) {... */\n      tag_225\n      jumpi\n        /* \"contracts/ERC4626.sol\":5112:5154  _spendAllowance(owner, msg.sender, shares) */\n      tag_226\n        /* \"contracts/ERC4626.sol\":5128:5133  owner */\n      dup3\n        /* \"contracts/ERC4626.sol\":5135:5145  msg.sender */\n      caller\n        /* \"contracts/ERC4626.sol\":5147:5153  shares */\n      dup7\n        /* \"contracts/ERC4626.sol\":5112:5127  _spendAllowance */\n      tag_171\n        /* \"contracts/ERC4626.sol\":5112:5154  _spendAllowance(owner, msg.sender, shares) */\n      jump\t// in\n    tag_226:\n        /* \"contracts/ERC4626.sol\":5073:5165  if (msg.sender != owner) {... */\n    tag_225:\n        /* \"contracts/ERC4626.sol\":5224:5244  _burn(owner, shares) */\n      tag_227\n        /* \"contracts/ERC4626.sol\":5230:5235  owner */\n      dup3\n        /* \"contracts/ERC4626.sol\":5237:5243  shares */\n      dup6\n        /* \"contracts/ERC4626.sol\":5224:5229  _burn */\n      tag_216\n        /* \"contracts/ERC4626.sol\":5224:5244  _burn(owner, shares) */\n      jump\t// in\n    tag_227:\n        /* \"contracts/ERC4626.sol\":5254:5260  _asset */\n      immutable(\"0xd73e0b65d8a88e087fe45492939659264b6eeb687212994f56dac859eedb899a\")\n        /* \"contracts/ERC4626.sol\":5254:5269  _asset.transfer */\n      0xffffffffffffffffffffffffffffffffffffffff\n      and\n      0xa9059cbb\n        /* \"contracts/ERC4626.sol\":5270:5278  receiver */\n      dup5\n        /* \"contracts/ERC4626.sol\":5280:5286  assets */\n      dup4\n        /* \"contracts/ERC4626.sol\":5254:5287  _asset.transfer(receiver, assets) */\n      mload(0x40)\n      dup4\n      0xffffffff\n      and\n      0xe0\n      shl\n      dup2\n      mstore\n      0x04\n      add\n      tag_228\n      swap3\n      swap2\n      swap1\n      tag_218\n      jump\t// in\n    tag_228:\n      0x20\n      mload(0x40)\n      dup1\n      dup4\n      sub\n      dup2\n      0x00\n      dup8\n      gas\n      call\n      iszero\n      dup1\n      iszero\n      tag_230\n      jumpi\n      returndatacopy(0x00, 0x00, returndatasize)\n      revert(0x00, returndatasize)\n    tag_230:\n      pop\n      pop\n      pop\n      pop\n      mload(0x40)\n      returndatasize\n      not(0x1f)\n      0x1f\n      dup3\n      add\n      and\n      dup3\n      add\n      dup1\n      0x40\n      mstore\n      pop\n      dup2\n      add\n      swap1\n      tag_231\n      swap2\n      swap1\n      tag_186\n      jump\t// in\n    tag_231:\n      pop\n        /* \"contracts/ERC4626.sol\":5375:5380  owner */\n      dup2\n        /* \"contracts/ERC4626.sol\":5344:5397  Withdraw(msg.sender, receiver, owner, assets, shares) */\n      0xffffffffffffffffffffffffffffffffffffffff\n      and\n        /* \"contracts/ERC4626.sol\":5365:5373  receiver */\n      dup4\n        /* \"contracts/ERC4626.sol\":5344:5397  Withdraw(msg.sender, receiver, owner, assets, shares) */\n      0xffffffffffffffffffffffffffffffffffffffff\n      and\n        /* \"contracts/ERC4626.sol\":5353:5363  msg.sender */\n      caller\n        /* \"contracts/ERC4626.sol\":5344:5397  Withdraw(msg.sender, receiver, owner, assets, shares) */\n      0xffffffffffffffffffffffffffffffffffffffff\n      and\n      0xfbde797d201c681b91056529119e0b02407c7bb96a4a2c75c01fc9667232c8db\n        /* \"contracts/ERC4626.sol\":5382:5388  assets */\n      dup5\n        /* \"contracts/ERC4626.sol\":5390:5396  shares */\n      dup9\n        /* \"contracts/ERC4626.sol\":5344:5397  Withdraw(msg.sender, receiver, owner, assets, shares) */\n      mload(0x40)\n      tag_232\n      swap3\n      swap2\n      swap1\n      tag_190\n      jump\t// in\n    tag_232:\n      mload(0x40)\n      dup1\n      swap2\n      sub\n      swap1\n      log4\n        /* \"contracts/ERC4626.sol\":4750:5404  function redeem(... */\n      swap4\n      swap3\n      pop\n      pop\n      pop\n      jump\t// out\n        /* \"contracts/ERC4626.sol\":8442:8547  function maxMint(address) public view virtual returns (uint256) {... */\n    tag_115:\n        /* \"contracts/ERC4626.sol\":8497:8504  uint256 */\n      0x00\n        /* \"contracts/ERC4626.sol\":8523:8540  type(uint256).max */\n      0xffffffffffffffffffffffffffffffffffffffffffffffffffffffffffffffff\n        /* \"contracts/ERC4626.sol\":8516:8540  return type(uint256).max */\n      swap1\n      pop\n        /* \"contracts/ERC4626.sol\":8442:8547  function maxMint(address) public view virtual returns (uint256) {... */\n      swap2\n      swap1\n      pop\n      jump\t// out\n        /* \"contracts/ERC4626.sol\":6111:6511  function convertToShares(uint256 assets) public view virtual returns (uint256) {... */\n    tag_119:\n        /* \"contracts/ERC4626.sol\":6181:6188  uint256 */\n      0x00\n        /* \"contracts/ERC4626.sol\":6200:6214  uint256 supply */\n      0x00\n        /* \"contracts/ERC4626.sol\":6217:6230  totalSupply() */\n      tag_235\n        /* \"contracts/ERC4626.sol\":6217:6228  totalSupply */\n      tag_56\n        /* \"contracts/ERC4626.sol\":6217:6230  totalSupply() */\n      jump\t// in\n    tag_235:\n        /* \"contracts/ERC4626.sol\":6200:6230  uint256 supply = totalSupply() */\n      swap1\n      pop\n        /* \"contracts/ERC4626.sol\":6460:6461  0 */\n      0x00\n        /* \"contracts/ERC4626.sol\":6450:6456  supply */\n      dup2\n        /* \"contracts/ERC4626.sol\":6450:6461  supply == 0 */\n      eq\n        /* \"contracts/ERC4626.sol\":6450:6504  supply == 0 ? assets : assets * supply / totalAssets() */\n      tag_236\n      jumpi\n        /* \"contracts/ERC4626.sol\":6491:6504  totalAssets() */\n      tag_237\n        /* \"contracts/ERC4626.sol\":6491:6502  totalAssets */\n      tag_33\n        /* \"contracts/ERC4626.sol\":6491:6504  totalAssets() */\n      jump\t// in\n    tag_237:\n        /* \"contracts/ERC4626.sol\":6482:6488  supply */\n      dup2\n        /* \"contracts/ERC4626.sol\":6473:6479  assets */\n      dup5\n        /* \"contracts/ERC4626.sol\":6473:6488  assets * supply */\n      tag_238\n      swap2\n      swap1\n      tag_156\n      jump\t// in\n    tag_238:\n        /* \"contracts/ERC4626.sol\":6473:6504  assets * supply / totalAssets() */\n      tag_239\n      swap2\n      swap1\n      tag_158\n      jump\t// in\n    tag_239:\n        /* \"contracts/ERC4626.sol\":6450:6504  supply == 0 ? assets : assets * supply / totalAssets() */\n      jump(tag_240)\n    tag_236:\n        /* \"contracts/ERC4626.sol\":6464:6470  assets */\n      dup3\n        /* \"contracts/ERC4626.sol\":6450:6504  supply == 0 ? assets : assets * supply / totalAssets() */\n    tag_240:\n        /* \"contracts/ERC4626.sol\":6443:6504  return supply == 0 ? assets : assets * supply / totalAssets() */\n      swap2\n      pop\n      pop\n        /* \"contracts/ERC4626.sol\":6111:6511  function convertToShares(uint256 assets) public view virtual returns (uint256) {... */\n      swap2\n      swap1\n      pop\n      jump\t// out\n        /* \"contracts/ERC4626.sol\":8638:8889  function maxWithdraw(address owner) public view virtual returns (uint256) {... */\n    tag_123:\n        /* \"contracts/ERC4626.sol\":8703:8710  uint256 */\n      0x00\n        /* \"contracts/ERC4626.sol\":8849:8882  convertToAssets(balanceOf(owner)) */\n      tag_242\n        /* \"contracts/ERC4626.sol\":8865:8881  balanceOf(owner) */\n      tag_243\n        /* \"contracts/ERC4626.sol\":8875:8880  owner */\n      dup4\n        /* \"contracts/ERC4626.sol\":8865:8874  balanceOf */\n      tag_87\n        /* \"contracts/ERC4626.sol\":8865:8881  balanceOf(owner) */\n      jump\t// in\n    tag_243:\n        /* \"contracts/ERC4626.sol\":8849:8864  convertToAssets */\n      tag_43\n        /* \"contracts/ERC4626.sol\":8849:8882  convertToAssets(balanceOf(owner)) */\n      jump\t// in\n    tag_242:\n        /* \"contracts/ERC4626.sol\":8842:8882  return convertToAssets(balanceOf(owner)) */\n      swap1\n      pop\n        /* \"contracts/ERC4626.sol\":8638:8889  function maxWithdraw(address owner) public view virtual returns (uint256) {... */\n      swap2\n      swap1\n      pop\n      jump\t// out\n        /* \"contracts/ERC4626.sol\":8941:9179  function maxRedeem(address owner) public view virtual returns (uint256) {... */\n    tag_127:\n        /* \"contracts/ERC4626.sol\":9004:9011  uint256 */\n      0x00\n        /* \"contracts/ERC4626.sol\":9156:9172  balanceOf(owner) */\n      tag_245\n        /* \"contracts/ERC4626.sol\":9166:9171  owner */\n      dup3\n        /* \"contracts/ERC4626.sol\":9156:9165  balanceOf */\n      tag_87\n        /* \"contracts/ERC4626.sol\":9156:9172  balanceOf(owner) */\n      jump\t// in\n    tag_245:\n        /* \"contracts/ERC4626.sol\":9149:9172  return balanceOf(owner) */\n      swap1\n      pop\n        /* \"contracts/ERC4626.sol\":8941:9179  function maxRedeem(address owner) public view virtual returns (uint256) {... */\n      swap2\n      swap1\n      pop\n      jump\t// out\n        /* \"@openzeppelin/contracts/token/ERC20/ERC20.sol\":3455:3595  function allowance(address owner, address spender) public view virtual returns (uint256) {... */\n    tag_132:\n        /* \"@openzeppelin/contracts/token/ERC20/ERC20.sol\":3535:3542  uint256 */\n      0x00\n        /* \"@openzeppelin/contracts/token/ERC20/ERC20.sol\":3561:3572  _allowances */\n      0x01\n        /* \"@openzeppelin/contracts/token/ERC20/ERC20.sol\":3561:3579  _allowances[owner] */\n      0x00\n        /* \"@openzeppelin/contracts/token/ERC20/ERC20.sol\":3573:3578  owner */\n      dup5\n        /* \"@openzeppelin/contracts/token/ERC20/ERC20.sol\":3561:3579  _allowances[owner] */\n      0xffffffffffffffffffffffffffffffffffffffff\n      and\n      0xffffffffffffffffffffffffffffffffffffffff\n      and\n      dup2\n      mstore\n      0x20\n      add\n      swap1\n      dup2\n      mstore\n      0x20\n      add\n      0x00\n      keccak256\n        /* \"@openzeppelin/contracts/token/ERC20/ERC20.sol\":3561:3588  _allowances[owner][spender] */\n      0x00\n        /* \"@openzeppelin/contracts/token/ERC20/ERC20.sol\":3580:3587  spender */\n      dup4\n        /* \"@openzeppelin/contracts/token/ERC20/ERC20.sol\":3561:3588  _allowances[owner][spender] */\n      0xffffffffffffffffffffffffffffffffffffffff\n      and\n      0xffffffffffffffffffffffffffffffffffffffff\n      and\n      dup2\n      mstore\n      0x20\n      add\n      swap1\n      dup2\n      mstore\n      0x20\n      add\n      0x00\n      keccak256\n      sload\n        /* \"@openzeppelin/contracts/token/ERC20/ERC20.sol\":3554:3588  return _allowances[owner][spender] */\n      swap1\n      pop\n        /* \"@openzeppelin/contracts/token/ERC20/ERC20.sol\":3455:3595  function allowance(address owner, address spender) public view virtual returns (uint256) {... */\n      swap3\n      swap2\n      pop\n      pop\n      jump\t// out\n        /* \"contracts/ERC4626.sol\":6924:7049  function previewDeposit(uint256 assets) public view virtual returns (uint256) {... */\n    tag_136:\n        /* \"contracts/ERC4626.sol\":6993:7000  uint256 */\n      0x00\n        /* \"contracts/ERC4626.sol\":7019:7042  convertToShares(assets) */\n      tag_248\n        /* \"contracts/ERC4626.sol\":7035:7041  assets */\n      dup3\n        /* \"contracts/ERC4626.sol\":7019:7034  convertToShares */\n      tag_119\n        /* \"contracts/ERC4626.sol\":7019:7042  convertToShares(assets) */\n      jump\t// in\n    tag_248:\n        /* \"contracts/ERC4626.sol\":7012:7042  return convertToShares(assets) */\n      swap1\n      pop\n        /* \"contracts/ERC4626.sol\":6924:7049  function previewDeposit(uint256 assets) public view virtual returns (uint256) {... */\n      swap2\n      swap1\n      pop\n      jump\t// out\n        /* \"@openzeppelin/contracts/utils/Context.sol\":656:752  function _msgSender() internal view virtual returns (address) {... */\n    tag_162:\n        /* \"@openzeppelin/contracts/utils/Context.sol\":709:716  address */\n      0x00\n        /* \"@openzeppelin/contracts/utils/Context.sol\":735:745  msg.sender */\n      caller\n        /* \"@openzeppelin/contracts/utils/Context.sol\":728:745  return msg.sender */\n      swap1\n      pop\n        /* \"@openzeppelin/contracts/utils/Context.sol\":656:752  function _msgSender() internal view virtual returns (address) {... */\n      swap1\n      jump\t// out\n        /* \"@openzeppelin/contracts/token/ERC20/ERC20.sol\":8630:8758  function _approve(address owner, address spender, uint256 value) internal {... */\n    tag_164:\n        /* \"@openzeppelin/contracts/token/ERC20/ERC20.sol\":8714:8751  _approve(owner, spender, value, true) */\n      tag_251\n        /* \"@openzeppelin/contracts/token/ERC20/ERC20.sol\":8723:8728  owner */\n      dup4\n        /* \"@openzeppelin/contracts/token/ERC20/ERC20.sol\":8730:8737  spender */\n      dup4\n        /* \"@openzeppelin/contracts/token/ERC20/ERC20.sol\":8739:8744  value */\n      dup4\n        /* \"@openzeppelin/contracts/token/ERC20/ERC20.sol\":8746:8750  true */\n      0x01\n        /* \"@openzeppelin/contracts/token/ERC20/ERC20.sol\":8714:8722  _approve */\n      tag_252\n        /* \"@openzeppelin/contracts/token/ERC20/ERC20.sol\":8714:8751  _approve(owner, spender, value, true) */\n      jump\t// in\n    tag_251:\n        /* \"@openzeppelin/contracts/token/ERC20/ERC20.sol\":8630:8758  function _approve(address owner, address spender, uint256 value) internal {... */\n      pop\n      pop\n      pop\n      jump\t// out\n        /* \"@openzeppelin/contracts/token/ERC20/ERC20.sol\":10319:10795  function _spendAllowance(address owner, address spender, uint256 value) internal virtual {... */\n    tag_171:\n        /* \"@openzeppelin/contracts/token/ERC20/ERC20.sol\":10418:10442  uint256 currentAllowance */\n      0x00\n        /* \"@openzeppelin/contracts/token/ERC20/ERC20.sol\":10445:10470  allowance(owner, spender) */\n      tag_254\n        /* \"@openzeppelin/contracts/token/ERC20/ERC20.sol\":10455:10460  owner */\n      dup5\n        /* \"@openzeppelin/contracts/token/ERC20/ERC20.sol\":10462:10469  spender */\n      dup5\n        /* \"@openzeppelin/contracts/token/ERC20/ERC20.sol\":10445:10454  allowance */\n      tag_132\n        /* \"@openzeppelin/contracts/token/ERC20/ERC20.sol\":10445:10470  allowance(owner, spender) */\n      jump\t// in\n    tag_254:\n        /* \"@openzeppelin/contracts/token/ERC20/ERC20.sol\":10418:10470  uint256 currentAllowance = allowance(owner, spender) */\n      swap1\n      pop\n        /* \"@openzeppelin/contracts/token/ERC20/ERC20.sol\":10503:10520  type(uint256).max */\n      0xffffffffffffffffffffffffffffffffffffffffffffffffffffffffffffffff\n        /* \"@openzeppelin/contracts/token/ERC20/ERC20.sol\":10484:10500  currentAllowance */\n      dup2\n        /* \"@openzeppelin/contracts/token/ERC20/ERC20.sol\":10484:10520  currentAllowance < type(uint256).max */\n      lt\n        /* \"@openzeppelin/contracts/token/ERC20/ERC20.sol\":10480:10789  if (currentAllowance < type(uint256).max) {... */\n      iszero\n      tag_255\n      jumpi\n        /* \"@openzeppelin/contracts/token/ERC20/ERC20.sol\":10559:10564  value */\n      dup2\n        /* \"@openzeppelin/contracts/token/ERC20/ERC20.sol\":10540:10556  currentAllowance */\n      dup2\n        /* \"@openzeppelin/contracts/token/ERC20/ERC20.sol\":10540:10564  currentAllowance < value */\n      lt\n        /* \"@openzeppelin/contracts/token/ERC20/ERC20.sol\":10536:10666  if (currentAllowance < value) {... */\n      iszero\n      tag_256\n      jumpi\n        /* \"@openzeppelin/contracts/token/ERC20/ERC20.sol\":10618:10625  spender */\n      dup3\n        /* \"@openzeppelin/contracts/token/ERC20/ERC20.sol\":10627:10643  currentAllowance */\n      dup2\n        /* \"@openzeppelin/contracts/token/ERC20/ERC20.sol\":10645:10650  value */\n      dup4\n        /* \"@openzeppelin/contracts/token/ERC20/ERC20.sol\":10591:10651  ERC20InsufficientAllowance(spender, currentAllowance, value) */\n      mload(0x40)\n      0xfb8f41b200000000000000000000000000000000000000000000000000000000\n      dup2\n      mstore\n      0x04\n      add\n      tag_257\n      swap4\n      swap3\n      swap2\n      swap1\n      tag_258\n      jump\t// in\n    tag_257:\n      mload(0x40)\n      dup1\n      swap2\n      sub\n      swap1\n      revert\n        /* \"@openzeppelin/contracts/token/ERC20/ERC20.sol\":10536:10666  if (currentAllowance < value) {... */\n    tag_256:\n        /* \"@openzeppelin/contracts/token/ERC20/ERC20.sol\":10707:10764  _approve(owner, spender, currentAllowance - value, false) */\n      tag_259\n        /* \"@openzeppelin/contracts/token/ERC20/ERC20.sol\":10716:10721  owner */\n      dup5\n        /* \"@openzeppelin/contracts/token/ERC20/ERC20.sol\":10723:10730  spender */\n      dup5\n        /* \"@openzeppelin/contracts/token/ERC20/ERC20.sol\":10751:10756  value */\n      dup5\n        /* \"@openzeppelin/contracts/token/ERC20/ERC20.sol\":10732:10748  currentAllowance */\n      dup5\n        /* \"@openzeppelin/contracts/token/ERC20/ERC20.sol\":10732:10756  currentAllowance - value */\n      sub\n        /* \"@openzeppelin/contracts/token/ERC20/ERC20.sol\":10758:10763  false */\n      0x00\n        /* \"@openzeppelin/contracts/token/ERC20/ERC20.sol\":10707:10715  _approve */\n      tag_252\n        /* \"@openzeppelin/contracts/token/ERC20/ERC20.sol\":10707:10764  _approve(owner, spender, currentAllowance - value, false) */\n      jump\t// in\n    tag_259:\n        /* \"@openzeppelin/contracts/token/ERC20/ERC20.sol\":10480:10789  if (currentAllowance < type(uint256).max) {... */\n    tag_255:\n        /* \"@openzeppelin/contracts/token/ERC20/ERC20.sol\":10408:10795  {... */\n      pop\n        /* \"@openzeppelin/contracts/token/ERC20/ERC20.sol\":10319:10795  function _spendAllowance(address owner, address spender, uint256 value) internal virtual {... */\n      pop\n      pop\n      pop\n      jump\t// out\n        /* \"@openzeppelin/contracts/token/ERC20/ERC20.sol\":5297:5597  function _transfer(address from, address to, uint256 value) internal {... */\n    tag_173:\n        /* \"@openzeppelin/contracts/token/ERC20/ERC20.sol\":5396:5397  0 */\n      0x00\n        /* \"@openzeppelin/contracts/token/ERC20/ERC20.sol\":5380:5398  from == address(0) */\n      0xffffffffffffffffffffffffffffffffffffffff\n      and\n        /* \"@openzeppelin/contracts/token/ERC20/ERC20.sol\":5380:5384  from */\n      dup4\n        /* \"@openzeppelin/contracts/token/ERC20/ERC20.sol\":5380:5398  from == address(0) */\n      0xffffffffffffffffffffffffffffffffffffffff\n      and\n      sub\n        /* \"@openzeppelin/contracts/token/ERC20/ERC20.sol\":5376:5462  if (from == address(0)) {... */\n      tag_261\n      jumpi\n        /* \"@openzeppelin/contracts/token/ERC20/ERC20.sol\":5448:5449  0 */\n      0x00\n        /* \"@openzeppelin/contracts/token/ERC20/ERC20.sol\":5421:5451  ERC20InvalidSender(address(0)) */\n      mload(0x40)\n      0x96c6fd1e00000000000000000000000000000000000000000000000000000000\n      dup2\n      mstore\n      0x04\n      add\n      tag_262\n      swap2\n      swap1\n      tag_70\n      jump\t// in\n    tag_262:\n      mload(0x40)\n      dup1\n      swap2\n      sub\n      swap1\n      revert\n        /* \"@openzeppelin/contracts/token/ERC20/ERC20.sol\":5376:5462  if (from == address(0)) {... */\n    tag_261:\n        /* \"@openzeppelin/contracts/token/ERC20/ERC20.sol\":5489:5490  0 */\n      0x00\n        /* \"@openzeppelin/contracts/token/ERC20/ERC20.sol\":5475:5491  to == address(0) */\n      0xffffffffffffffffffffffffffffffffffffffff\n      and\n        /* \"@openzeppelin/contracts/token/ERC20/ERC20.sol\":5475:5477  to */\n      dup3\n        /* \"@openzeppelin/contracts/token/ERC20/ERC20.sol\":5475:5491  to == address(0) */\n      0xffffffffffffffffffffffffffffffffffffffff\n      and\n      sub\n        /* \"@openzeppelin/contracts/token/ERC20/ERC20.sol\":5471:5557  if (to == address(0)) {... */\n      tag_263\n      jumpi\n        /* \"@openzeppelin/contracts/token/ERC20/ERC20.sol\":5543:5544  0 */\n      0x00\n        /* \"@openzeppelin/contracts/token/ERC20/ERC20.sol\":5514:5546  ERC20InvalidReceiver(address(0)) */\n      mload(0x40)\n      0xec442f0500000000000000000000000000000000000000000000000000000000\n      dup2\n      mstore\n      0x04\n      add\n      tag_264\n      swap2\n      swap1\n      tag_70\n      jump\t// in\n    tag_264:\n      mload(0x40)\n      dup1\n      swap2\n      sub\n      swap1\n      revert\n        /* \"@openzeppelin/contracts/token/ERC20/ERC20.sol\":5471:5557  if (to == address(0)) {... */\n    tag_263:\n        /* \"@openzeppelin/contracts/token/ERC20/ERC20.sol\":5566:5590  _update(from, to, value) */\n      tag_265\n        /* \"@openzeppelin/contracts/token/ERC20/ERC20.sol\":5574:5578  from */\n      dup4\n        /* \"@openzeppelin/contracts/token/ERC20/ERC20.sol\":5580:5582  to */\n      dup4\n        /* \"@openzeppelin/contracts/token/ERC20/ERC20.sol\":5584:5589  value */\n      dup4\n        /* \"@openzeppelin/contracts/token/ERC20/ERC20.sol\":5566:5573  _update */\n      tag_266\n        /* \"@openzeppelin/contracts/token/ERC20/ERC20.sol\":5566:5590  _update(from, to, value) */\n      jump\t// in\n    tag_265:\n        /* \"@openzeppelin/contracts/token/ERC20/ERC20.sol\":5297:5597  function _transfer(address from, address to, uint256 value) internal {... */\n      pop\n      pop\n      pop\n      jump\t// out\n        /* \"@openzeppelin/contracts/token/ERC20/ERC20.sol\":7362:7570  function _mint(address account, uint256 value) internal {... */\n    tag_188:\n        /* \"@openzeppelin/contracts/token/ERC20/ERC20.sol\":7451:7452  0 */\n      0x00\n        /* \"@openzeppelin/contracts/token/ERC20/ERC20.sol\":7432:7453  account == address(0) */\n      0xffffffffffffffffffffffffffffffffffffffff\n      and\n        /* \"@openzeppelin/contracts/token/ERC20/ERC20.sol\":7432:7439  account */\n      dup3\n        /* \"@openzeppelin/contracts/token/ERC20/ERC20.sol\":7432:7453  account == address(0) */\n      0xffffffffffffffffffffffffffffffffffffffff\n      and\n      sub\n        /* \"@openzeppelin/contracts/token/ERC20/ERC20.sol\":7428:7519  if (account == address(0)) {... */\n      tag_268\n      jumpi\n        /* \"@openzeppelin/contracts/token/ERC20/ERC20.sol\":7505:7506  0 */\n      0x00\n        /* \"@openzeppelin/contracts/token/ERC20/ERC20.sol\":7476:7508  ERC20InvalidReceiver(address(0)) */\n      mload(0x40)\n      0xec442f0500000000000000000000000000000000000000000000000000000000\n      dup2\n      mstore\n      0x04\n      add\n      tag_269\n      swap2\n      swap1\n      tag_70\n      jump\t// in\n    tag_269:\n      mload(0x40)\n      dup1\n      swap2\n      sub\n      swap1\n      revert\n        /* \"@openzeppelin/contracts/token/ERC20/ERC20.sol\":7428:7519  if (account == address(0)) {... */\n    tag_268:\n        /* \"@openzeppelin/contracts/token/ERC20/ERC20.sol\":7528:7563  _update(address(0), account, value) */\n      tag_270\n        /* \"@openzeppelin/contracts/token/ERC20/ERC20.sol\":7544:7545  0 */\n      0x00\n        /* \"@openzeppelin/contracts/token/ERC20/ERC20.sol\":7548:7555  account */\n      dup4\n        /* \"@openzeppelin/contracts/token/ERC20/ERC20.sol\":7557:7562  value */\n      dup4\n        /* \"@openzeppelin/contracts/token/ERC20/ERC20.sol\":7528:7535  _update */\n      tag_266\n        /* \"@openzeppelin/contracts/token/ERC20/ERC20.sol\":7528:7563  _update(address(0), account, value) */\n      jump\t// in\n    tag_270:\n        /* \"@openzeppelin/contracts/token/ERC20/ERC20.sol\":7362:7570  function _mint(address account, uint256 value) internal {... */\n      pop\n      pop\n      jump\t// out\n        /* \"@openzeppelin/contracts/token/ERC20/ERC20.sol\":7888:8094  function _burn(address account, uint256 value) internal {... */\n    tag_216:\n        /* \"@openzeppelin/contracts/token/ERC20/ERC20.sol\":7977:7978  0 */\n      0x00\n        /* \"@openzeppelin/contracts/token/ERC20/ERC20.sol\":7958:7979  account == address(0) */\n      0xffffffffffffffffffffffffffffffffffffffff\n      and\n        /* \"@openzeppelin/contracts/token/ERC20/ERC20.sol\":7958:7965  account */\n      dup3\n        /* \"@openzeppelin/contracts/token/ERC20/ERC20.sol\":7958:7979  account == address(0) */\n      0xffffffffffffffffffffffffffffffffffffffff\n      and\n      sub\n        /* \"@openzeppelin/contracts/token/ERC20/ERC20.sol\":7954:8043  if (account == address(0)) {... */\n      tag_272\n      jumpi\n        /* \"@openzeppelin/contracts/token/ERC20/ERC20.sol\":8029:8030  0 */\n      0x00\n        /* \"@openzeppelin/contracts/token/ERC20/ERC20.sol\":8002:8032  ERC20InvalidSender(address(0)) */\n      mload(0x40)\n      0x96c6fd1e00000000000000000000000000000000000000000000000000000000\n      dup2\n      mstore\n      0x04\n      add\n      tag_273\n      swap2\n      swap1\n      tag_70\n      jump\t// in\n    tag_273:\n      mload(0x40)\n      dup1\n      swap2\n      sub\n      swap1\n      revert\n        /* \"@openzeppelin/contracts/token/ERC20/ERC20.sol\":7954:8043  if (account == address(0)) {... */\n    tag_272:\n        /* \"@openzeppelin/contracts/token/ERC20/ERC20.sol\":8052:8087  _update(account, address(0), value) */\n      tag_274\n        /* \"@openzeppelin/contracts/token/ERC20/ERC20.sol\":8060:8067  account */\n      dup3\n        /* \"@openzeppelin/contracts/token/ERC20/ERC20.sol\":8077:8078  0 */\n      0x00\n        /* \"@openzeppelin/contracts/token/ERC20/ERC20.sol\":8081:8086  value */\n      dup4\n        /* \"@openzeppelin/contracts/token/ERC20/ERC20.sol\":8052:8059  _update */\n      tag_266\n        /* \"@openzeppelin/contracts/token/ERC20/ERC20.sol\":8052:8087  _update(account, address(0), value) */\n      jump\t// in\n    tag_274:\n        /* \"@openzeppelin/contracts/token/ERC20/ERC20.sol\":7888:8094  function _burn(address account, uint256 value) internal {... */\n      pop\n      pop\n      jump\t// out\n        /* \"@openzeppelin/contracts/token/ERC20/ERC20.sol\":9605:10037  function _approve(address owner, address spender, uint256 value, bool emitEvent) internal virtual {... */\n    tag_252:\n        /* \"@openzeppelin/contracts/token/ERC20/ERC20.sol\":9734:9735  0 */\n      0x00\n        /* \"@openzeppelin/contracts/token/ERC20/ERC20.sol\":9717:9736  owner == address(0) */\n      0xffffffffffffffffffffffffffffffffffffffff\n      and\n        /* \"@openzeppelin/contracts/token/ERC20/ERC20.sol\":9717:9722  owner */\n      dup5\n        /* \"@openzeppelin/contracts/token/ERC20/ERC20.sol\":9717:9736  owner == address(0) */\n      0xffffffffffffffffffffffffffffffffffffffff\n      and\n      sub\n        /* \"@openzeppelin/contracts/token/ERC20/ERC20.sol\":9713:9802  if (owner == address(0)) {... */\n      tag_276\n      jumpi\n        /* \"@openzeppelin/contracts/token/ERC20/ERC20.sol\":9788:9789  0 */\n      0x00\n        /* \"@openzeppelin/contracts/token/ERC20/ERC20.sol\":9759:9791  ERC20InvalidApprover(address(0)) */\n      mload(0x40)\n      0xe602df0500000000000000000000000000000000000000000000000000000000\n      dup2\n      mstore\n      0x04\n      add\n      tag_277\n      swap2\n      swap1\n      tag_70\n      jump\t// in\n    tag_277:\n      mload(0x40)\n      dup1\n      swap2\n      sub\n      swap1\n      revert\n        /* \"@openzeppelin/contracts/token/ERC20/ERC20.sol\":9713:9802  if (owner == address(0)) {... */\n    tag_276:\n        /* \"@openzeppelin/contracts/token/ERC20/ERC20.sol\":9834:9835  0 */\n      0x00\n        /* \"@openzeppelin/contracts/token/ERC20/ERC20.sol\":9815:9836  spender == address(0) */\n      0xffffffffffffffffffffffffffffffffffffffff\n      and\n        /* \"@openzeppelin/contracts/token/ERC20/ERC20.sol\":9815:9822  spender */\n      dup4\n        /* \"@openzeppelin/contracts/token/ERC20/ERC20.sol\":9815:9836  spender == address(0) */\n      0xffffffffffffffffffffffffffffffffffffffff\n      and\n      sub\n        /* \"@openzeppelin/contracts/token/ERC20/ERC20.sol\":9811:9901  if (spender == address(0)) {... */\n      tag_278\n      jumpi\n        /* \"@openzeppelin/contracts/token/ERC20/ERC20.sol\":9887:9888  0 */\n      0x00\n        /* \"@openzeppelin/contracts/token/ERC20/ERC20.sol\":9859:9890  ERC20InvalidSpender(address(0)) */\n      mload(0x40)\n      0x94280d6200000000000000000000000000000000000000000000000000000000\n      dup2\n      mstore\n      0x04\n      add\n      tag_279\n      swap2\n      swap1\n      tag_70\n      jump\t// in\n    tag_279:\n      mload(0x40)\n      dup1\n      swap2\n      sub\n      swap1\n      revert\n        /* \"@openzeppelin/contracts/token/ERC20/ERC20.sol\":9811:9901  if (spender == address(0)) {... */\n    tag_278:\n        /* \"@openzeppelin/contracts/token/ERC20/ERC20.sol\":9940:9945  value */\n      dup2\n        /* \"@openzeppelin/contracts/token/ERC20/ERC20.sol\":9910:9921  _allowances */\n      0x01\n        /* \"@openzeppelin/contracts/token/ERC20/ERC20.sol\":9910:9928  _allowances[owner] */\n      0x00\n        /* \"@openzeppelin/contracts/token/ERC20/ERC20.sol\":9922:9927  owner */\n      dup7\n        /* \"@openzeppelin/contracts/token/ERC20/ERC20.sol\":9910:9928  _allowances[owner] */\n      0xffffffffffffffffffffffffffffffffffffffff\n      and\n      0xffffffffffffffffffffffffffffffffffffffff\n      and\n      dup2\n      mstore\n      0x20\n      add\n      swap1\n      dup2\n      mstore\n      0x20\n      add\n      0x00\n      keccak256\n        /* \"@openzeppelin/contracts/token/ERC20/ERC20.sol\":9910:9937  _allowances[owner][spender] */\n      0x00\n        /* \"@openzeppelin/contracts/token/ERC20/ERC20.sol\":9929:9936  spender */\n      dup6\n        /* \"@openzeppelin/contracts/token/ERC20/ERC20.sol\":9910:9937  _allowances[owner][spender] */\n      0xffffffffffffffffffffffffffffffffffffffff\n      and\n      0xffffffffffffffffffffffffffffffffffffffff\n      and\n      dup2\n      mstore\n      0x20\n      add\n      swap1\n      dup2\n      mstore\n      0x20\n      add\n      0x00\n      keccak256\n        /* \"@openzeppelin/contracts/token/ERC20/ERC20.sol\":9910:9945  _allowances[owner][spender] = value */\n      dup2\n      swap1\n      sstore\n      pop\n        /* \"@openzeppelin/contracts/token/ERC20/ERC20.sol\":9959:9968  emitEvent */\n      dup1\n        /* \"@openzeppelin/contracts/token/ERC20/ERC20.sol\":9955:10031  if (emitEvent) {... */\n      iszero\n      tag_280\n      jumpi\n        /* \"@openzeppelin/contracts/token/ERC20/ERC20.sol\":10005:10012  spender */\n      dup3\n        /* \"@openzeppelin/contracts/token/ERC20/ERC20.sol\":9989:10020  Approval(owner, spender, value) */\n      0xffffffffffffffffffffffffffffffffffffffff\n      and\n        /* \"@openzeppelin/contracts/token/ERC20/ERC20.sol\":9998:10003  owner */\n      dup5\n        /* \"@openzeppelin/contracts/token/ERC20/ERC20.sol\":9989:10020  Approval(owner, spender, value) */\n      0xffffffffffffffffffffffffffffffffffffffff\n      and\n      0x8c5be1e5ebec7d5bd14f71427d1e84f3dd0314c0f7b2291e5b200ac8c7c3b925\n        /* \"@openzeppelin/contracts/token/ERC20/ERC20.sol\":10014:10019  value */\n      dup5\n        /* \"@openzeppelin/contracts/token/ERC20/ERC20.sol\":9989:10020  Approval(owner, spender, value) */\n      mload(0x40)\n      tag_281\n      swap2\n      swap1\n      tag_35\n      jump\t// in\n    tag_281:\n      mload(0x40)\n      dup1\n      swap2\n      sub\n      swap1\n      log3\n        /* \"@openzeppelin/contracts/token/ERC20/ERC20.sol\":9955:10031  if (emitEvent) {... */\n    tag_280:\n        /* \"@openzeppelin/contracts/token/ERC20/ERC20.sol\":9605:10037  function _approve(address owner, address spender, uint256 value, bool emitEvent) internal virtual {... */\n      pop\n      pop\n      pop\n      pop\n      jump\t// out\n        /* \"@openzeppelin/contracts/token/ERC20/ERC20.sol\":5912:7019  function _update(address from, address to, uint256 value) internal virtual {... */\n    tag_266:\n        /* \"@openzeppelin/contracts/token/ERC20/ERC20.sol\":6017:6018  0 */\n      0x00\n        /* \"@openzeppelin/contracts/token/ERC20/ERC20.sol\":6001:6019  from == address(0) */\n      0xffffffffffffffffffffffffffffffffffffffff\n      and\n        /* \"@openzeppelin/contracts/token/ERC20/ERC20.sol\":6001:6005  from */\n      dup4\n        /* \"@openzeppelin/contracts/token/ERC20/ERC20.sol\":6001:6019  from == address(0) */\n      0xffffffffffffffffffffffffffffffffffffffff\n      and\n      sub\n        /* \"@openzeppelin/contracts/token/ERC20/ERC20.sol\":5997:6537  if (from == address(0)) {... */\n      tag_283\n      jumpi\n        /* \"@openzeppelin/contracts/token/ERC20/ERC20.sol\":6153:6158  value */\n      dup1\n        /* \"@openzeppelin/contracts/token/ERC20/ERC20.sol\":6137:6149  _totalSupply */\n      0x02\n      0x00\n        /* \"@openzeppelin/contracts/token/ERC20/ERC20.sol\":6137:6158  _totalSupply += value */\n      dup3\n      dup3\n      sload\n      tag_284\n      swap2\n      swap1\n      tag_285\n      jump\t// in\n    tag_284:\n      swap3\n      pop\n      pop\n      dup2\n      swap1\n      sstore\n      pop\n        /* \"@openzeppelin/contracts/token/ERC20/ERC20.sol\":5997:6537  if (from == address(0)) {... */\n      jump(tag_286)\n    tag_283:\n        /* \"@openzeppelin/contracts/token/ERC20/ERC20.sol\":6189:6208  uint256 fromBalance */\n      0x00\n        /* \"@openzeppelin/contracts/token/ERC20/ERC20.sol\":6211:6220  _balances */\n      0x00\n        /* \"@openzeppelin/contracts/token/ERC20/ERC20.sol\":6211:6226  _balances[from] */\n      0x00\n        /* \"@openzeppelin/contracts/token/ERC20/ERC20.sol\":6221:6225  from */\n      dup6\n        /* \"@openzeppelin/contracts/token/ERC20/ERC20.sol\":6211:6226  _balances[from] */\n      0xffffffffffffffffffffffffffffffffffffffff\n      and\n      0xffffffffffffffffffffffffffffffffffffffff\n      and\n      dup2\n      mstore\n      0x20\n      add\n      swap1\n      dup2\n      mstore\n      0x20\n      add\n      0x00\n      keccak256\n      sload\n        /* \"@openzeppelin/contracts/token/ERC20/ERC20.sol\":6189:6226  uint256 fromBalance = _balances[from] */\n      swap1\n      pop\n        /* \"@openzeppelin/contracts/token/ERC20/ERC20.sol\":6258:6263  value */\n      dup2\n        /* \"@openzeppelin/contracts/token/ERC20/ERC20.sol\":6244:6255  fromBalance */\n      dup2\n        /* \"@openzeppelin/contracts/token/ERC20/ERC20.sol\":6244:6263  fromBalance < value */\n      lt\n        /* \"@openzeppelin/contracts/token/ERC20/ERC20.sol\":6240:6355  if (fromBalance < value) {... */\n      iszero\n      tag_287\n      jumpi\n        /* \"@openzeppelin/contracts/token/ERC20/ERC20.sol\":6315:6319  from */\n      dup4\n        /* \"@openzeppelin/contracts/token/ERC20/ERC20.sol\":6321:6332  fromBalance */\n      dup2\n        /* \"@openzeppelin/contracts/token/ERC20/ERC20.sol\":6334:6339  value */\n      dup4\n        /* \"@openzeppelin/contracts/token/ERC20/ERC20.sol\":6290:6340  ERC20InsufficientBalance(from, fromBalance, value) */\n      mload(0x40)\n      0xe450d38c00000000000000000000000000000000000000000000000000000000\n      dup2\n      mstore\n      0x04\n      add\n      tag_288\n      swap4\n      swap3\n      swap2\n      swap1\n      tag_258\n      jump\t// in\n    tag_288:\n      mload(0x40)\n      dup1\n      swap2\n      sub\n      swap1\n      revert\n        /* \"@openzeppelin/contracts/token/ERC20/ERC20.sol\":6240:6355  if (fromBalance < value) {... */\n    tag_287:\n        /* \"@openzeppelin/contracts/token/ERC20/ERC20.sol\":6507:6512  value */\n      dup2\n        /* \"@openzeppelin/contracts/token/ERC20/ERC20.sol\":6493:6504  fromBalance */\n      dup2\n        /* \"@openzeppelin/contracts/token/ERC20/ERC20.sol\":6493:6512  fromBalance - value */\n      sub\n        /* \"@openzeppelin/contracts/token/ERC20/ERC20.sol\":6475:6484  _balances */\n      0x00\n        /* \"@openzeppelin/contracts/token/ERC20/ERC20.sol\":6475:6490  _balances[from] */\n      0x00\n        /* \"@openzeppelin/contracts/token/ERC20/ERC20.sol\":6485:6489  from */\n      dup7\n        /* \"@openzeppelin/contracts/token/ERC20/ERC20.sol\":6475:6490  _balances[from] */\n      0xffffffffffffffffffffffffffffffffffffffff\n      and\n      0xffffffffffffffffffffffffffffffffffffffff\n      and\n      dup2\n      mstore\n      0x20\n      add\n      swap1\n      dup2\n      mstore\n      0x20\n      add\n      0x00\n      keccak256\n        /* \"@openzeppelin/contracts/token/ERC20/ERC20.sol\":6475:6512  _balances[from] = fromBalance - value */\n      dup2\n      swap1\n      sstore\n      pop\n        /* \"@openzeppelin/contracts/token/ERC20/ERC20.sol\":6175:6537  {... */\n      pop\n        /* \"@openzeppelin/contracts/token/ERC20/ERC20.sol\":5997:6537  if (from == address(0)) {... */\n    tag_286:\n        /* \"@openzeppelin/contracts/token/ERC20/ERC20.sol\":6565:6566  0 */\n      0x00\n        /* \"@openzeppelin/contracts/token/ERC20/ERC20.sol\":6551:6567  to == address(0) */\n      0xffffffffffffffffffffffffffffffffffffffff\n      and\n        /* \"@openzeppelin/contracts/token/ERC20/ERC20.sol\":6551:6553  to */\n      dup3\n        /* \"@openzeppelin/contracts/token/ERC20/ERC20.sol\":6551:6567  to == address(0) */\n      0xffffffffffffffffffffffffffffffffffffffff\n      and\n      sub\n        /* \"@openzeppelin/contracts/token/ERC20/ERC20.sol\":6547:6972  if (to == address(0)) {... */\n      tag_289\n      jumpi\n        /* \"@openzeppelin/contracts/token/ERC20/ERC20.sol\":6730:6735  value */\n      dup1\n        /* \"@openzeppelin/contracts/token/ERC20/ERC20.sol\":6714:6726  _totalSupply */\n      0x02\n      0x00\n        /* \"@openzeppelin/contracts/token/ERC20/ERC20.sol\":6714:6735  _totalSupply -= value */\n      dup3\n      dup3\n      sload\n      sub\n      swap3\n      pop\n      pop\n      dup2\n      swap1\n      sstore\n      pop\n        /* \"@openzeppelin/contracts/token/ERC20/ERC20.sol\":6547:6972  if (to == address(0)) {... */\n      jump(tag_290)\n    tag_289:\n        /* \"@openzeppelin/contracts/token/ERC20/ERC20.sol\":6942:6947  value */\n      dup1\n        /* \"@openzeppelin/contracts/token/ERC20/ERC20.sol\":6925:6934  _balances */\n      0x00\n        /* \"@openzeppelin/contracts/token/ERC20/ERC20.sol\":6925:6938  _balances[to] */\n      0x00\n        /* \"@openzeppelin/contracts/token/ERC20/ERC20.sol\":6935:6937  to */\n      dup5\n        /* \"@openzeppelin/contracts/token/ERC20/ERC20.sol\":6925:6938  _balances[to] */\n      0xffffffffffffffffffffffffffffffffffffffff\n      and\n      0xffffffffffffffffffffffffffffffffffffffff\n      and\n      dup2\n      mstore\n      0x20\n      add\n      swap1\n      dup2\n      mstore\n      0x20\n      add\n      0x00\n      keccak256\n      0x00\n        /* \"@openzeppelin/contracts/token/ERC20/ERC20.sol\":6925:6947  _balances[to] += value */\n      dup3\n      dup3\n      sload\n      add\n      swap3\n      pop\n      pop\n      dup2\n      swap1\n      sstore\n      pop\n        /* \"@openzeppelin/contracts/token/ERC20/ERC20.sol\":6547:6972  if (to == address(0)) {... */\n    tag_290:\n        /* \"@openzeppelin/contracts/token/ERC20/ERC20.sol\":7002:7004  to */\n      dup2\n        /* \"@openzeppelin/contracts/token/ERC20/ERC20.sol\":6987:7012  Transfer(from, to, value) */\n      0xffffffffffffffffffffffffffffffffffffffff\n      and\n        /* \"@openzeppelin/contracts/token/ERC20/ERC20.sol\":6996:7000  from */\n      dup4\n        /* \"@openzeppelin/contracts/token/ERC20/ERC20.sol\":6987:7012  Transfer(from, to, value) */\n      0xffffffffffffffffffffffffffffffffffffffff\n      and\n      0xddf252ad1be2c89b69c2b068fc378daa952ba7f163c4a11628f55a4df523b3ef\n        /* \"@openzeppelin/contracts/token/ERC20/ERC20.sol\":7006:7011  value */\n      dup4\n        /* \"@openzeppelin/contracts/token/ERC20/ERC20.sol\":6987:7012  Transfer(from, to, value) */\n      mload(0x40)\n      tag_291\n      swap2\n      swap1\n      tag_35\n      jump\t// in\n    tag_291:\n      mload(0x40)\n      dup1\n      swap2\n      sub\n      swap1\n      log3\n        /* \"@openzeppelin/contracts/token/ERC20/ERC20.sol\":5912:7019  function _update(address from, address to, uint256 value) internal virtual {... */\n      pop\n      pop\n      pop\n      jump\t// out\n        /* \"#utility.yul\":7:84   */\n    tag_292:\n        /* \"#utility.yul\":44:51   */\n      0x00\n        /* \"#utility.yul\":73:78   */\n      dup2\n        /* \"#utility.yul\":62:78   */\n      swap1\n      pop\n        /* \"#utility.yul\":7:84   */\n      swap2\n      swap1\n      pop\n      jump\t// out\n        /* \"#utility.yul\":90:208   */\n    tag_293:\n        /* \"#utility.yul\":177:201   */\n      tag_322\n        /* \"#utility.yul\":195:200   */\n      dup2\n        /* \"#utility.yul\":177:201   */\n      tag_292\n      jump\t// in\n    tag_322:\n        /* \"#utility.yul\":172:175   */\n      dup3\n        /* \"#utility.yul\":165:202   */\n      mstore\n        /* \"#utility.yul\":90:208   */\n      pop\n      pop\n      jump\t// out\n        /* \"#utility.yul\":214:436   */\n    tag_35:\n        /* \"#utility.yul\":307:311   */\n      0x00\n        /* \"#utility.yul\":345:347   */\n      0x20\n        /* \"#utility.yul\":334:343   */\n      dup3\n        /* \"#utility.yul\":330:348   */\n      add\n        /* \"#utility.yul\":322:348   */\n      swap1\n      pop\n        /* \"#utility.yul\":358:429   */\n      tag_324\n        /* \"#utility.yul\":426:427   */\n      0x00\n        /* \"#utility.yul\":415:424   */\n      dup4\n        /* \"#utility.yul\":411:428   */\n      add\n        /* \"#utility.yul\":402:408   */\n      dup5\n        /* \"#utility.yul\":358:429   */\n      tag_293\n      jump\t// in\n    tag_324:\n        /* \"#utility.yul\":214:436   */\n      swap3\n      swap2\n      pop\n      pop\n      jump\t// out\n        /* \"#utility.yul\":442:541   */\n    tag_294:\n        /* \"#utility.yul\":494:500   */\n      0x00\n        /* \"#utility.yul\":528:533   */\n      dup2\n        /* \"#utility.yul\":522:534   */\n      mload\n        /* \"#utility.yul\":512:534   */\n      swap1\n      pop\n        /* \"#utility.yul\":442:541   */\n      swap2\n      swap1\n      pop\n      jump\t// out\n        /* \"#utility.yul\":547:716   */\n    tag_295:\n        /* \"#utility.yul\":631:642   */\n      0x00\n        /* \"#utility.yul\":665:671   */\n      dup3\n        /* \"#utility.yul\":660:663   */\n      dup3\n        /* \"#utility.yul\":653:672   */\n      mstore\n        /* \"#utility.yul\":705:709   */\n      0x20\n        /* \"#utility.yul\":700:703   */\n      dup3\n        /* \"#utility.yul\":696:710   */\n      add\n        /* \"#utility.yul\":681:710   */\n      swap1\n      pop\n        /* \"#utility.yul\":547:716   */\n      swap3\n      swap2\n      pop\n      pop\n      jump\t// out\n        /* \"#utility.yul\":722:861   */\n    tag_296:\n        /* \"#utility.yul\":811:817   */\n      dup3\n        /* \"#utility.yul\":806:809   */\n      dup2\n        /* \"#utility.yul\":801:804   */\n      dup4\n        /* \"#utility.yul\":795:818   */\n      mcopy\n        /* \"#utility.yul\":852:853   */\n      0x00\n        /* \"#utility.yul\":843:849   */\n      dup4\n        /* \"#utility.yul\":838:841   */\n      dup4\n        /* \"#utility.yul\":834:850   */\n      add\n        /* \"#utility.yul\":827:854   */\n      mstore\n        /* \"#utility.yul\":722:861   */\n      pop\n      pop\n      pop\n      jump\t// out\n        /* \"#utility.yul\":867:969   */\n    tag_297:\n        /* \"#utility.yul\":908:914   */\n      0x00\n        /* \"#utility.yul\":959:961   */\n      0x1f\n        /* \"#utility.yul\":955:962   */\n      not\n        /* \"#utility.yul\":950:952   */\n      0x1f\n        /* \"#utility.yul\":943:948   */\n      dup4\n        /* \"#utility.yul\":939:953   */\n      add\n        /* \"#utility.yul\":935:963   */\n      and\n        /* \"#utility.yul\":925:963   */\n      swap1\n      pop\n        /* \"#utility.yul\":867:969   */\n      swap2\n      swap1\n      pop\n      jump\t// out\n        /* \"#utility.yul\":975:1352   */\n    tag_298:\n        /* \"#utility.yul\":1063:1066   */\n      0x00\n        /* \"#utility.yul\":1091:1130   */\n      tag_330\n        /* \"#utility.yul\":1124:1129   */\n      dup3\n        /* \"#utility.yul\":1091:1130   */\n      tag_294\n      jump\t// in\n    tag_330:\n        /* \"#utility.yul\":1146:1217   */\n      tag_331\n        /* \"#utility.yul\":1210:1216   */\n      dup2\n        /* \"#utility.yul\":1205:1208   */\n      dup6\n        /* \"#utility.yul\":1146:1217   */\n      tag_295\n      jump\t// in\n    tag_331:\n        /* \"#utility.yul\":1139:1217   */\n      swap4\n      pop\n        /* \"#utility.yul\":1226:1291   */\n      tag_332\n        /* \"#utility.yul\":1284:1290   */\n      dup2\n        /* \"#utility.yul\":1279:1282   */\n      dup6\n        /* \"#utility.yul\":1272:1276   */\n      0x20\n        /* \"#utility.yul\":1265:1270   */\n      dup7\n        /* \"#utility.yul\":1261:1277   */\n      add\n        /* \"#utility.yul\":1226:1291   */\n      tag_296\n      jump\t// in\n    tag_332:\n        /* \"#utility.yul\":1316:1345   */\n      tag_333\n        /* \"#utility.yul\":1338:1344   */\n      dup2\n        /* \"#utility.yul\":1316:1345   */\n      tag_297\n      jump\t// in\n    tag_333:\n        /* \"#utility.yul\":1311:1314   */\n      dup5\n        /* \"#utility.yul\":1307:1346   */\n      add\n        /* \"#utility.yul\":1300:1346   */\n      swap2\n      pop\n        /* \"#utility.yul\":1067:1352   */\n      pop\n        /* \"#utility.yul\":975:1352   */\n      swap3\n      swap2\n      pop\n      pop\n      jump\t// out\n        /* \"#utility.yul\":1358:1671   */\n    tag_39:\n        /* \"#utility.yul\":1471:1475   */\n      0x00\n        /* \"#utility.yul\":1509:1511   */\n      0x20\n        /* \"#utility.yul\":1498:1507   */\n      dup3\n        /* \"#utility.yul\":1494:1512   */\n      add\n        /* \"#utility.yul\":1486:1512   */\n      swap1\n      pop\n        /* \"#utility.yul\":1558:1567   */\n      dup2\n        /* \"#utility.yul\":1552:1556   */\n      dup2\n        /* \"#utility.yul\":1548:1568   */\n      sub\n        /* \"#utility.yul\":1544:1545   */\n      0x00\n        /* \"#utility.yul\":1533:1542   */\n      dup4\n        /* \"#utility.yul\":1529:1546   */\n      add\n        /* \"#utility.yul\":1522:1569   */\n      mstore\n        /* \"#utility.yul\":1586:1664   */\n      tag_335\n        /* \"#utility.yul\":1659:1663   */\n      dup2\n        /* \"#utility.yul\":1650:1656   */\n      dup5\n        /* \"#utility.yul\":1586:1664   */\n      tag_298\n      jump\t// in\n    tag_335:\n        /* \"#utility.yul\":1578:1664   */\n      swap1\n      pop\n        /* \"#utility.yul\":1358:1671   */\n      swap3\n      swap2\n      pop\n      pop\n      jump\t// out\n        /* \"#utility.yul\":1758:1875   */\n    tag_300:\n        /* \"#utility.yul\":1867:1868   */\n      0x00\n        /* \"#utility.yul\":1864:1865   */\n      0x00\n        /* \"#utility.yul\":1857:1869   */\n      revert\n        /* \"#utility.yul\":2004:2126   */\n    tag_302:\n        /* \"#utility.yul\":2077:2101   */\n      tag_340\n        /* \"#utility.yul\":2095:2100   */\n      dup2\n        /* \"#utility.yul\":2077:2101   */\n      tag_292\n      jump\t// in\n    tag_340:\n        /* \"#utility.yul\":2070:2075   */\n      dup2\n        /* \"#utility.yul\":2067:2102   */\n      eq\n        /* \"#utility.yul\":2057:2120   */\n      tag_341\n      jumpi\n        /* \"#utility.yul\":2116:2117   */\n      0x00\n        /* \"#utility.yul\":2113:2114   */\n      0x00\n        /* \"#utility.yul\":2106:2118   */\n      revert\n        /* \"#utility.yul\":2057:2120   */\n    tag_341:\n        /* \"#utility.yul\":2004:2126   */\n      pop\n      jump\t// out\n        /* \"#utility.yul\":2132:2271   */\n    tag_303:\n        /* \"#utility.yul\":2178:2183   */\n      0x00\n        /* \"#utility.yul\":2216:2222   */\n      dup2\n        /* \"#utility.yul\":2203:2223   */\n      calldataload\n        /* \"#utility.yul\":2194:2223   */\n      swap1\n      pop\n        /* \"#utility.yul\":2232:2265   */\n      tag_343\n        /* \"#utility.yul\":2259:2264   */\n      dup2\n        /* \"#utility.yul\":2232:2265   */\n      tag_302\n      jump\t// in\n    tag_343:\n        /* \"#utility.yul\":2132:2271   */\n      swap3\n      swap2\n      pop\n      pop\n      jump\t// out\n        /* \"#utility.yul\":2277:2606   */\n    tag_42:\n        /* \"#utility.yul\":2336:2342   */\n      0x00\n        /* \"#utility.yul\":2385:2387   */\n      0x20\n        /* \"#utility.yul\":2373:2382   */\n      dup3\n        /* \"#utility.yul\":2364:2371   */\n      dup5\n        /* \"#utility.yul\":2360:2383   */\n      sub\n        /* \"#utility.yul\":2356:2388   */\n      slt\n        /* \"#utility.yul\":2353:2472   */\n      iszero\n      tag_345\n      jumpi\n        /* \"#utility.yul\":2391:2470   */\n      tag_346\n      tag_300\n      jump\t// in\n    tag_346:\n        /* \"#utility.yul\":2353:2472   */\n    tag_345:\n        /* \"#utility.yul\":2511:2512   */\n      0x00\n        /* \"#utility.yul\":2536:2589   */\n      tag_347\n        /* \"#utility.yul\":2581:2588   */\n      dup5\n        /* \"#utility.yul\":2572:2578   */\n      dup3\n        /* \"#utility.yul\":2561:2570   */\n      dup6\n        /* \"#utility.yul\":2557:2579   */\n      add\n        /* \"#utility.yul\":2536:2589   */\n      tag_303\n      jump\t// in\n    tag_347:\n        /* \"#utility.yul\":2526:2589   */\n      swap2\n      pop\n        /* \"#utility.yul\":2482:2599   */\n      pop\n        /* \"#utility.yul\":2277:2606   */\n      swap3\n      swap2\n      pop\n      pop\n      jump\t// out\n        /* \"#utility.yul\":2612:2738   */\n    tag_304:\n        /* \"#utility.yul\":2649:2656   */\n      0x00\n        /* \"#utility.yul\":2689:2731   */\n      0xffffffffffffffffffffffffffffffffffffffff\n        /* \"#utility.yul\":2682:2687   */\n      dup3\n        /* \"#utility.yul\":2678:2732   */\n      and\n        /* \"#utility.yul\":2667:2732   */\n      swap1\n      pop\n        /* \"#utility.yul\":2612:2738   */\n      swap2\n      swap1\n      pop\n      jump\t// out\n        /* \"#utility.yul\":2744:2840   */\n    tag_305:\n        /* \"#utility.yul\":2781:2788   */\n      0x00\n        /* \"#utility.yul\":2810:2834   */\n      tag_350\n        /* \"#utility.yul\":2828:2833   */\n      dup3\n        /* \"#utility.yul\":2810:2834   */\n      tag_304\n      jump\t// in\n    tag_350:\n        /* \"#utility.yul\":2799:2834   */\n      swap1\n      pop\n        /* \"#utility.yul\":2744:2840   */\n      swap2\n      swap1\n      pop\n      jump\t// out\n        /* \"#utility.yul\":2846:2968   */\n    tag_306:\n        /* \"#utility.yul\":2919:2943   */\n      tag_352\n        /* \"#utility.yul\":2937:2942   */\n      dup2\n        /* \"#utility.yul\":2919:2943   */\n      tag_305\n      jump\t// in\n    tag_352:\n        /* \"#utility.yul\":2912:2917   */\n      dup2\n        /* \"#utility.yul\":2909:2944   */\n      eq\n        /* \"#utility.yul\":2899:2962   */\n      tag_353\n      jumpi\n        /* \"#utility.yul\":2958:2959   */\n      0x00\n        /* \"#utility.yul\":2955:2956   */\n      0x00\n        /* \"#utility.yul\":2948:2960   */\n      revert\n        /* \"#utility.yul\":2899:2962   */\n    tag_353:\n        /* \"#utility.yul\":2846:2968   */\n      pop\n      jump\t// out\n        /* \"#utility.yul\":2974:3113   */\n    tag_307:\n        /* \"#utility.yul\":3020:3025   */\n      0x00\n        /* \"#utility.yul\":3058:3064   */\n      dup2\n        /* \"#utility.yul\":3045:3065   */\n      calldataload\n        /* \"#utility.yul\":3036:3065   */\n      swap1\n      pop\n        /* \"#utility.yul\":3074:3107   */\n      tag_355\n        /* \"#utility.yul\":3101:3106   */\n      dup2\n        /* \"#utility.yul\":3074:3107   */\n      tag_306\n      jump\t// in\n    tag_355:\n        /* \"#utility.yul\":2974:3113   */\n      swap3\n      swap2\n      pop\n      pop\n      jump\t// out\n        /* \"#utility.yul\":3119:3593   */\n    tag_47:\n        /* \"#utility.yul\":3187:3193   */\n      0x00\n        /* \"#utility.yul\":3195:3201   */\n      0x00\n        /* \"#utility.yul\":3244:3246   */\n      0x40\n        /* \"#utility.yul\":3232:3241   */\n      dup4\n        /* \"#utility.yul\":3223:3230   */\n      dup6\n        /* \"#utility.yul\":3219:3242   */\n      sub\n        /* \"#utility.yul\":3215:3247   */\n      slt\n        /* \"#utility.yul\":3212:3331   */\n      iszero\n      tag_357\n      jumpi\n        /* \"#utility.yul\":3250:3329   */\n      tag_358\n      tag_300\n      jump\t// in\n    tag_358:\n        /* \"#utility.yul\":3212:3331   */\n    tag_357:\n        /* \"#utility.yul\":3370:3371   */\n      0x00\n        /* \"#utility.yul\":3395:3448   */\n      tag_359\n        /* \"#utility.yul\":3440:3447   */\n      dup6\n        /* \"#utility.yul\":3431:3437   */\n      dup3\n        /* \"#utility.yul\":3420:3429   */\n      dup7\n        /* \"#utility.yul\":3416:3438   */\n      add\n        /* \"#utility.yul\":3395:3448   */\n      tag_307\n      jump\t// in\n    tag_359:\n        /* \"#utility.yul\":3385:3448   */\n      swap3\n      pop\n        /* \"#utility.yul\":3341:3458   */\n      pop\n        /* \"#utility.yul\":3497:3499   */\n      0x20\n        /* \"#utility.yul\":3523:3576   */\n      tag_360\n        /* \"#utility.yul\":3568:3575   */\n      dup6\n        /* \"#utility.yul\":3559:3565   */\n      dup3\n        /* \"#utility.yul\":3548:3557   */\n      dup7\n        /* \"#utility.yul\":3544:3566   */\n      add\n        /* \"#utility.yul\":3523:3576   */\n      tag_303\n      jump\t// in\n    tag_360:\n        /* \"#utility.yul\":3513:3576   */\n      swap2\n      pop\n        /* \"#utility.yul\":3468:3586   */\n      pop\n        /* \"#utility.yul\":3119:3593   */\n      swap3\n      pop\n      swap3\n      swap1\n      pop\n      jump\t// out\n        /* \"#utility.yul\":3599:3689   */\n    tag_308:\n        /* \"#utility.yul\":3633:3640   */\n      0x00\n        /* \"#utility.yul\":3676:3681   */\n      dup2\n        /* \"#utility.yul\":3669:3682   */\n      iszero\n        /* \"#utility.yul\":3662:3683   */\n      iszero\n        /* \"#utility.yul\":3651:3683   */\n      swap1\n      pop\n        /* \"#utility.yul\":3599:3689   */\n      swap2\n      swap1\n      pop\n      jump\t// out\n        /* \"#utility.yul\":3695:3804   */\n    tag_309:\n        /* \"#utility.yul\":3776:3797   */\n      tag_363\n        /* \"#utility.yul\":3791:3796   */\n      dup2\n        /* \"#utility.yul\":3776:3797   */\n      tag_308\n      jump\t// in\n    tag_363:\n        /* \"#utility.yul\":3771:3774   */\n      dup3\n        /* \"#utility.yul\":3764:3798   */\n      mstore\n        /* \"#utility.yul\":3695:3804   */\n      pop\n      pop\n      jump\t// out\n        /* \"#utility.yul\":3810:4020   */\n    tag_50:\n        /* \"#utility.yul\":3897:3901   */\n      0x00\n        /* \"#utility.yul\":3935:3937   */\n      0x20\n        /* \"#utility.yul\":3924:3933   */\n      dup3\n        /* \"#utility.yul\":3920:3938   */\n      add\n        /* \"#utility.yul\":3912:3938   */\n      swap1\n      pop\n        /* \"#utility.yul\":3948:4013   */\n      tag_365\n        /* \"#utility.yul\":4010:4011   */\n      0x00\n        /* \"#utility.yul\":3999:4008   */\n      dup4\n        /* \"#utility.yul\":3995:4012   */\n      add\n        /* \"#utility.yul\":3986:3992   */\n      dup5\n        /* \"#utility.yul\":3948:4013   */\n      tag_309\n      jump\t// in\n    tag_365:\n        /* \"#utility.yul\":3810:4020   */\n      swap3\n      swap2\n      pop\n      pop\n      jump\t// out\n        /* \"#utility.yul\":4026:4645   */\n    tag_60:\n        /* \"#utility.yul\":4103:4109   */\n      0x00\n        /* \"#utility.yul\":4111:4117   */\n      0x00\n        /* \"#utility.yul\":4119:4125   */\n      0x00\n        /* \"#utility.yul\":4168:4170   */\n      0x60\n        /* \"#utility.yul\":4156:4165   */\n      dup5\n        /* \"#utility.yul\":4147:4154   */\n      dup7\n        /* \"#utility.yul\":4143:4166   */\n      sub\n        /* \"#utility.yul\":4139:4171   */\n      slt\n        /* \"#utility.yul\":4136:4255   */\n      iszero\n      tag_367\n      jumpi\n        /* \"#utility.yul\":4174:4253   */\n      tag_368\n      tag_300\n      jump\t// in\n    tag_368:\n        /* \"#utility.yul\":4136:4255   */\n    tag_367:\n        /* \"#utility.yul\":4294:4295   */\n      0x00\n        /* \"#utility.yul\":4319:4372   */\n      tag_369\n        /* \"#utility.yul\":4364:4371   */\n      dup7\n        /* \"#utility.yul\":4355:4361   */\n      dup3\n        /* \"#utility.yul\":4344:4353   */\n      dup8\n        /* \"#utility.yul\":4340:4362   */\n      add\n        /* \"#utility.yul\":4319:4372   */\n      tag_307\n      jump\t// in\n    tag_369:\n        /* \"#utility.yul\":4309:4372   */\n      swap4\n      pop\n        /* \"#utility.yul\":4265:4382   */\n      pop\n        /* \"#utility.yul\":4421:4423   */\n      0x20\n        /* \"#utility.yul\":4447:4500   */\n      tag_370\n        /* \"#utility.yul\":4492:4499   */\n      dup7\n        /* \"#utility.yul\":4483:4489   */\n      dup3\n        /* \"#utility.yul\":4472:4481   */\n      dup8\n        /* \"#utility.yul\":4468:4490   */\n      add\n        /* \"#utility.yul\":4447:4500   */\n      tag_307\n      jump\t// in\n    tag_370:\n        /* \"#utility.yul\":4437:4500   */\n      swap3\n      pop\n        /* \"#utility.yul\":4392:4510   */\n      pop\n        /* \"#utility.yul\":4549:4551   */\n      0x40\n        /* \"#utility.yul\":4575:4628   */\n      tag_371\n        /* \"#utility.yul\":4620:4627   */\n      dup7\n        /* \"#utility.yul\":4611:4617   */\n      dup3\n        /* \"#utility.yul\":4600:4609   */\n      dup8\n        /* \"#utility.yul\":4596:4618   */\n      add\n        /* \"#utility.yul\":4575:4628   */\n      tag_303\n      jump\t// in\n    tag_371:\n        /* \"#utility.yul\":4565:4628   */\n      swap2\n      pop\n        /* \"#utility.yul\":4520:4638   */\n      pop\n        /* \"#utility.yul\":4026:4645   */\n      swap3\n      pop\n      swap3\n      pop\n      swap3\n      jump\t// out\n        /* \"#utility.yul\":4651:4737   */\n    tag_310:\n        /* \"#utility.yul\":4686:4693   */\n      0x00\n        /* \"#utility.yul\":4726:4730   */\n      0xff\n        /* \"#utility.yul\":4719:4724   */\n      dup3\n        /* \"#utility.yul\":4715:4731   */\n      and\n        /* \"#utility.yul\":4704:4731   */\n      swap1\n      pop\n        /* \"#utility.yul\":4651:4737   */\n      swap2\n      swap1\n      pop\n      jump\t// out\n        /* \"#utility.yul\":4743:4855   */\n    tag_311:\n        /* \"#utility.yul\":4826:4848   */\n      tag_374\n        /* \"#utility.yul\":4842:4847   */\n      dup2\n        /* \"#utility.yul\":4826:4848   */\n      tag_310\n      jump\t// in\n    tag_374:\n        /* \"#utility.yul\":4821:4824   */\n      dup3\n        /* \"#utility.yul\":4814:4849   */\n      mstore\n        /* \"#utility.yul\":4743:4855   */\n      pop\n      pop\n      jump\t// out\n        /* \"#utility.yul\":4861:5075   */\n    tag_66:\n        /* \"#utility.yul\":4950:4954   */\n      0x00\n        /* \"#utility.yul\":4988:4990   */\n      0x20\n        /* \"#utility.yul\":4977:4986   */\n      dup3\n        /* \"#utility.yul\":4973:4991   */\n      add\n        /* \"#utility.yul\":4965:4991   */\n      swap1\n      pop\n        /* \"#utility.yul\":5001:5068   */\n      tag_376\n        /* \"#utility.yul\":5065:5066   */\n      0x00\n        /* \"#utility.yul\":5054:5063   */\n      dup4\n        /* \"#utility.yul\":5050:5067   */\n      add\n        /* \"#utility.yul\":5041:5047   */\n      dup5\n        /* \"#utility.yul\":5001:5068   */\n      tag_311\n      jump\t// in\n    tag_376:\n        /* \"#utility.yul\":4861:5075   */\n      swap3\n      swap2\n      pop\n      pop\n      jump\t// out\n        /* \"#utility.yul\":5081:5199   */\n    tag_312:\n        /* \"#utility.yul\":5168:5192   */\n      tag_378\n        /* \"#utility.yul\":5186:5191   */\n      dup2\n        /* \"#utility.yul\":5168:5192   */\n      tag_305\n      jump\t// in\n    tag_378:\n        /* \"#utility.yul\":5163:5166   */\n      dup3\n        /* \"#utility.yul\":5156:5193   */\n      mstore\n        /* \"#utility.yul\":5081:5199   */\n      pop\n      pop\n      jump\t// out\n        /* \"#utility.yul\":5205:5427   */\n    tag_70:\n        /* \"#utility.yul\":5298:5302   */\n      0x00\n        /* \"#utility.yul\":5336:5338   */\n      0x20\n        /* \"#utility.yul\":5325:5334   */\n      dup3\n        /* \"#utility.yul\":5321:5339   */\n      add\n        /* \"#utility.yul\":5313:5339   */\n      swap1\n      pop\n        /* \"#utility.yul\":5349:5420   */\n      tag_380\n        /* \"#utility.yul\":5417:5418   */\n      0x00\n        /* \"#utility.yul\":5406:5415   */\n      dup4\n        /* \"#utility.yul\":5402:5419   */\n      add\n        /* \"#utility.yul\":5393:5399   */\n      dup5\n        /* \"#utility.yul\":5349:5420   */\n      tag_312\n      jump\t// in\n    tag_380:\n        /* \"#utility.yul\":5205:5427   */\n      swap3\n      swap2\n      pop\n      pop\n      jump\t// out\n        /* \"#utility.yul\":5433:5762   */\n    tag_73:\n        /* \"#utility.yul\":5492:5498   */\n      0x00\n        /* \"#utility.yul\":5541:5543   */\n      0x20\n        /* \"#utility.yul\":5529:5538   */\n      dup3\n        /* \"#utility.yul\":5520:5527   */\n      dup5\n        /* \"#utility.yul\":5516:5539   */\n      sub\n        /* \"#utility.yul\":5512:5544   */\n      slt\n        /* \"#utility.yul\":5509:5628   */\n      iszero\n      tag_382\n      jumpi\n        /* \"#utility.yul\":5547:5626   */\n      tag_383\n      tag_300\n      jump\t// in\n    tag_383:\n        /* \"#utility.yul\":5509:5628   */\n    tag_382:\n        /* \"#utility.yul\":5667:5668   */\n      0x00\n        /* \"#utility.yul\":5692:5745   */\n      tag_384\n        /* \"#utility.yul\":5737:5744   */\n      dup5\n        /* \"#utility.yul\":5728:5734   */\n      dup3\n        /* \"#utility.yul\":5717:5726   */\n      dup6\n        /* \"#utility.yul\":5713:5735   */\n      add\n        /* \"#utility.yul\":5692:5745   */\n      tag_307\n      jump\t// in\n    tag_384:\n        /* \"#utility.yul\":5682:5745   */\n      swap2\n      pop\n        /* \"#utility.yul\":5638:5755   */\n      pop\n        /* \"#utility.yul\":5433:5762   */\n      swap3\n      swap2\n      pop\n      pop\n      jump\t// out\n        /* \"#utility.yul\":5768:6242   */\n    tag_82:\n        /* \"#utility.yul\":5836:5842   */\n      0x00\n        /* \"#utility.yul\":5844:5850   */\n      0x00\n        /* \"#utility.yul\":5893:5895   */\n      0x40\n        /* \"#utility.yul\":5881:5890   */\n      dup4\n        /* \"#utility.yul\":5872:5879   */\n      dup6\n        /* \"#utility.yul\":5868:5891   */\n      sub\n        /* \"#utility.yul\":5864:5896   */\n      slt\n        /* \"#utility.yul\":5861:5980   */\n      iszero\n      tag_386\n      jumpi\n        /* \"#utility.yul\":5899:5978   */\n      tag_387\n      tag_300\n      jump\t// in\n    tag_387:\n        /* \"#utility.yul\":5861:5980   */\n    tag_386:\n        /* \"#utility.yul\":6019:6020   */\n      0x00\n        /* \"#utility.yul\":6044:6097   */\n      tag_388\n        /* \"#utility.yul\":6089:6096   */\n      dup6\n        /* \"#utility.yul\":6080:6086   */\n      dup3\n        /* \"#utility.yul\":6069:6078   */\n      dup7\n        /* \"#utility.yul\":6065:6087   */\n      add\n        /* \"#utility.yul\":6044:6097   */\n      tag_303\n      jump\t// in\n    tag_388:\n        /* \"#utility.yul\":6034:6097   */\n      swap3\n      pop\n        /* \"#utility.yul\":5990:6107   */\n      pop\n        /* \"#utility.yul\":6146:6148   */\n      0x20\n        /* \"#utility.yul\":6172:6225   */\n      tag_389\n        /* \"#utility.yul\":6217:6224   */\n      dup6\n        /* \"#utility.yul\":6208:6214   */\n      dup3\n        /* \"#utility.yul\":6197:6206   */\n      dup7\n        /* \"#utility.yul\":6193:6215   */\n      add\n        /* \"#utility.yul\":6172:6225   */\n      tag_307\n      jump\t// in\n    tag_389:\n        /* \"#utility.yul\":6162:6225   */\n      swap2\n      pop\n        /* \"#utility.yul\":6117:6235   */\n      pop\n        /* \"#utility.yul\":5768:6242   */\n      swap3\n      pop\n      swap3\n      swap1\n      pop\n      jump\t// out\n        /* \"#utility.yul\":6248:6867   */\n    tag_106:\n        /* \"#utility.yul\":6325:6331   */\n      0x00\n        /* \"#utility.yul\":6333:6339   */\n      0x00\n        /* \"#utility.yul\":6341:6347   */\n      0x00\n        /* \"#utility.yul\":6390:6392   */\n      0x60\n        /* \"#utility.yul\":6378:6387   */\n      dup5\n        /* \"#utility.yul\":6369:6376   */\n      dup7\n        /* \"#utility.yul\":6365:6388   */\n      sub\n        /* \"#utility.yul\":6361:6393   */\n      slt\n        /* \"#utility.yul\":6358:6477   */\n      iszero\n      tag_391\n      jumpi\n        /* \"#utility.yul\":6396:6475   */\n      tag_392\n      tag_300\n      jump\t// in\n    tag_392:\n        /* \"#utility.yul\":6358:6477   */\n    tag_391:\n        /* \"#utility.yul\":6516:6517   */\n      0x00\n        /* \"#utility.yul\":6541:6594   */\n      tag_393\n        /* \"#utility.yul\":6586:6593   */\n      dup7\n        /* \"#utility.yul\":6577:6583   */\n      dup3\n        /* \"#utility.yul\":6566:6575   */\n      dup8\n        /* \"#utility.yul\":6562:6584   */\n      add\n        /* \"#utility.yul\":6541:6594   */\n      tag_303\n      jump\t// in\n    tag_393:\n        /* \"#utility.yul\":6531:6594   */\n      swap4\n      pop\n        /* \"#utility.yul\":6487:6604   */\n      pop\n        /* \"#utility.yul\":6643:6645   */\n      0x20\n        /* \"#utility.yul\":6669:6722   */\n      tag_394\n        /* \"#utility.yul\":6714:6721   */\n      dup7\n        /* \"#utility.yul\":6705:6711   */\n      dup3\n        /* \"#utility.yul\":6694:6703   */\n      dup8\n        /* \"#utility.yul\":6690:6712   */\n      add\n        /* \"#utility.yul\":6669:6722   */\n      tag_307\n      jump\t// in\n    tag_394:\n        /* \"#utility.yul\":6659:6722   */\n      swap3\n      pop\n        /* \"#utility.yul\":6614:6732   */\n      pop\n        /* \"#utility.yul\":6771:6773   */\n      0x40\n        /* \"#utility.yul\":6797:6850   */\n      tag_395\n        /* \"#utility.yul\":6842:6849   */\n      dup7\n        /* \"#utility.yul\":6833:6839   */\n      dup3\n        /* \"#utility.yul\":6822:6831   */\n      dup8\n        /* \"#utility.yul\":6818:6840   */\n      add\n        /* \"#utility.yul\":6797:6850   */\n      tag_307\n      jump\t// in\n    tag_395:\n        /* \"#utility.yul\":6787:6850   */\n      swap2\n      pop\n        /* \"#utility.yul\":6742:6860   */\n      pop\n        /* \"#utility.yul\":6248:6867   */\n      swap3\n      pop\n      swap3\n      pop\n      swap3\n      jump\t// out\n        /* \"#utility.yul\":6873:7347   */\n    tag_131:\n        /* \"#utility.yul\":6941:6947   */\n      0x00\n        /* \"#utility.yul\":6949:6955   */\n      0x00\n        /* \"#utility.yul\":6998:7000   */\n      0x40\n        /* \"#utility.yul\":6986:6995   */\n      dup4\n        /* \"#utility.yul\":6977:6984   */\n      dup6\n        /* \"#utility.yul\":6973:6996   */\n      sub\n        /* \"#utility.yul\":6969:7001   */\n      slt\n        /* \"#utility.yul\":6966:7085   */\n      iszero\n      tag_397\n      jumpi\n        /* \"#utility.yul\":7004:7083   */\n      tag_398\n      tag_300\n      jump\t// in\n    tag_398:\n        /* \"#utility.yul\":6966:7085   */\n    tag_397:\n        /* \"#utility.yul\":7124:7125   */\n      0x00\n        /* \"#utility.yul\":7149:7202   */\n      tag_399\n        /* \"#utility.yul\":7194:7201   */\n      dup6\n        /* \"#utility.yul\":7185:7191   */\n      dup3\n        /* \"#utility.yul\":7174:7183   */\n      dup7\n        /* \"#utility.yul\":7170:7192   */\n      add\n        /* \"#utility.yul\":7149:7202   */\n      tag_307\n      jump\t// in\n    tag_399:\n        /* \"#utility.yul\":7139:7202   */\n      swap3\n      pop\n        /* \"#utility.yul\":7095:7212   */\n      pop\n        /* \"#utility.yul\":7251:7253   */\n      0x20\n        /* \"#utility.yul\":7277:7330   */\n      tag_400\n        /* \"#utility.yul\":7322:7329   */\n      dup6\n        /* \"#utility.yul\":7313:7319   */\n      dup3\n        /* \"#utility.yul\":7302:7311   */\n      dup7\n        /* \"#utility.yul\":7298:7320   */\n      add\n        /* \"#utility.yul\":7277:7330   */\n      tag_307\n      jump\t// in\n    tag_400:\n        /* \"#utility.yul\":7267:7330   */\n      swap2\n      pop\n        /* \"#utility.yul\":7222:7340   */\n      pop\n        /* \"#utility.yul\":6873:7347   */\n      swap3\n      pop\n      swap3\n      swap1\n      pop\n      jump\t// out\n        /* \"#utility.yul\":7353:7496   */\n    tag_313:\n        /* \"#utility.yul\":7410:7415   */\n      0x00\n        /* \"#utility.yul\":7441:7447   */\n      dup2\n        /* \"#utility.yul\":7435:7448   */\n      mload\n        /* \"#utility.yul\":7426:7448   */\n      swap1\n      pop\n        /* \"#utility.yul\":7457:7490   */\n      tag_402\n        /* \"#utility.yul\":7484:7489   */\n      dup2\n        /* \"#utility.yul\":7457:7490   */\n      tag_302\n      jump\t// in\n    tag_402:\n        /* \"#utility.yul\":7353:7496   */\n      swap3\n      swap2\n      pop\n      pop\n      jump\t// out\n        /* \"#utility.yul\":7502:7853   */\n    tag_143:\n        /* \"#utility.yul\":7572:7578   */\n      0x00\n        /* \"#utility.yul\":7621:7623   */\n      0x20\n        /* \"#utility.yul\":7609:7618   */\n      dup3\n        /* \"#utility.yul\":7600:7607   */\n      dup5\n        /* \"#utility.yul\":7596:7619   */\n      sub\n        /* \"#utility.yul\":7592:7624   */\n      slt\n        /* \"#utility.yul\":7589:7708   */\n      iszero\n      tag_404\n      jumpi\n        /* \"#utility.yul\":7627:7706   */\n      tag_405\n      tag_300\n      jump\t// in\n    tag_405:\n        /* \"#utility.yul\":7589:7708   */\n    tag_404:\n        /* \"#utility.yul\":7747:7748   */\n      0x00\n        /* \"#utility.yul\":7772:7836   */\n      tag_406\n        /* \"#utility.yul\":7828:7835   */\n      dup5\n        /* \"#utility.yul\":7819:7825   */\n      dup3\n        /* \"#utility.yul\":7808:7817   */\n      dup6\n        /* \"#utility.yul\":7804:7826   */\n      add\n        /* \"#utility.yul\":7772:7836   */\n      tag_313\n      jump\t// in\n    tag_406:\n        /* \"#utility.yul\":7762:7836   */\n      swap2\n      pop\n        /* \"#utility.yul\":7718:7846   */\n      pop\n        /* \"#utility.yul\":7502:7853   */\n      swap3\n      swap2\n      pop\n      pop\n      jump\t// out\n        /* \"#utility.yul\":7859:8039   */\n    tag_314:\n        /* \"#utility.yul\":7907:7984   */\n      0x4e487b7100000000000000000000000000000000000000000000000000000000\n        /* \"#utility.yul\":7904:7905   */\n      0x00\n        /* \"#utility.yul\":7897:7985   */\n      mstore\n        /* \"#utility.yul\":8004:8008   */\n      0x22\n        /* \"#utility.yul\":8001:8002   */\n      0x04\n        /* \"#utility.yul\":7994:8009   */\n      mstore\n        /* \"#utility.yul\":8028:8032   */\n      0x24\n        /* \"#utility.yul\":8025:8026   */\n      0x00\n        /* \"#utility.yul\":8018:8033   */\n      revert\n        /* \"#utility.yul\":8045:8365   */\n    tag_146:\n        /* \"#utility.yul\":8089:8095   */\n      0x00\n        /* \"#utility.yul\":8126:8127   */\n      0x02\n        /* \"#utility.yul\":8120:8124   */\n      dup3\n        /* \"#utility.yul\":8116:8128   */\n      div\n        /* \"#utility.yul\":8106:8128   */\n      swap1\n      pop\n        /* \"#utility.yul\":8173:8174   */\n      0x01\n        /* \"#utility.yul\":8167:8171   */\n      dup3\n        /* \"#utility.yul\":8163:8175   */\n      and\n        /* \"#utility.yul\":8194:8212   */\n      dup1\n        /* \"#utility.yul\":8184:8265   */\n      tag_409\n      jumpi\n        /* \"#utility.yul\":8250:8254   */\n      0x7f\n        /* \"#utility.yul\":8242:8248   */\n      dup3\n        /* \"#utility.yul\":8238:8255   */\n      and\n        /* \"#utility.yul\":8228:8255   */\n      swap2\n      pop\n        /* \"#utility.yul\":8184:8265   */\n    tag_409:\n        /* \"#utility.yul\":8312:8314   */\n      0x20\n        /* \"#utility.yul\":8304:8310   */\n      dup3\n        /* \"#utility.yul\":8301:8315   */\n      lt\n        /* \"#utility.yul\":8281:8299   */\n      dup2\n        /* \"#utility.yul\":8278:8316   */\n      sub\n        /* \"#utility.yul\":8275:8359   */\n      tag_410\n      jumpi\n        /* \"#utility.yul\":8331:8349   */\n      tag_411\n      tag_314\n      jump\t// in\n    tag_411:\n        /* \"#utility.yul\":8275:8359   */\n    tag_410:\n        /* \"#utility.yul\":8096:8365   */\n      pop\n        /* \"#utility.yul\":8045:8365   */\n      swap2\n      swap1\n      pop\n      jump\t// out\n        /* \"#utility.yul\":8371:8551   */\n    tag_315:\n        /* \"#utility.yul\":8419:8496   */\n      0x4e487b7100000000000000000000000000000000000000000000000000000000\n        /* \"#utility.yul\":8416:8417   */\n      0x00\n        /* \"#utility.yul\":8409:8497   */\n      mstore\n        /* \"#utility.yul\":8516:8520   */\n      0x11\n        /* \"#utility.yul\":8513:8514   */\n      0x04\n        /* \"#utility.yul\":8506:8521   */\n      mstore\n        /* \"#utility.yul\":8540:8544   */\n      0x24\n        /* \"#utility.yul\":8537:8538   */\n      0x00\n        /* \"#utility.yul\":8530:8545   */\n      revert\n        /* \"#utility.yul\":8557:8967   */\n    tag_156:\n        /* \"#utility.yul\":8597:8604   */\n      0x00\n        /* \"#utility.yul\":8620:8640   */\n      tag_414\n        /* \"#utility.yul\":8638:8639   */\n      dup3\n        /* \"#utility.yul\":8620:8640   */\n      tag_292\n      jump\t// in\n    tag_414:\n        /* \"#utility.yul\":8615:8640   */\n      swap2\n      pop\n        /* \"#utility.yul\":8654:8674   */\n      tag_415\n        /* \"#utility.yul\":8672:8673   */\n      dup4\n        /* \"#utility.yul\":8654:8674   */\n      tag_292\n      jump\t// in\n    tag_415:\n        /* \"#utility.yul\":8649:8674   */\n      swap3\n      pop\n        /* \"#utility.yul\":8709:8710   */\n      dup3\n        /* \"#utility.yul\":8706:8707   */\n      dup3\n        /* \"#utility.yul\":8702:8711   */\n      mul\n        /* \"#utility.yul\":8731:8761   */\n      tag_416\n        /* \"#utility.yul\":8749:8760   */\n      dup2\n        /* \"#utility.yul\":8731:8761   */\n      tag_292\n      jump\t// in\n    tag_416:\n        /* \"#utility.yul\":8720:8761   */\n      swap2\n      pop\n        /* \"#utility.yul\":8910:8911   */\n      dup3\n        /* \"#utility.yul\":8901:8908   */\n      dup3\n        /* \"#utility.yul\":8897:8912   */\n      div\n        /* \"#utility.yul\":8894:8895   */\n      dup5\n        /* \"#utility.yul\":8891:8913   */\n      eq\n        /* \"#utility.yul\":8871:8872   */\n      dup4\n        /* \"#utility.yul\":8864:8873   */\n      iszero\n        /* \"#utility.yul\":8844:8927   */\n      or\n        /* \"#utility.yul\":8821:8960   */\n      tag_417\n      jumpi\n        /* \"#utility.yul\":8940:8958   */\n      tag_418\n      tag_315\n      jump\t// in\n    tag_418:\n        /* \"#utility.yul\":8821:8960   */\n    tag_417:\n        /* \"#utility.yul\":8605:8967   */\n      pop\n        /* \"#utility.yul\":8557:8967   */\n      swap3\n      swap2\n      pop\n      pop\n      jump\t// out\n        /* \"#utility.yul\":8973:9153   */\n    tag_316:\n        /* \"#utility.yul\":9021:9098   */\n      0x4e487b7100000000000000000000000000000000000000000000000000000000\n        /* \"#utility.yul\":9018:9019   */\n      0x00\n        /* \"#utility.yul\":9011:9099   */\n      mstore\n        /* \"#utility.yul\":9118:9122   */\n      0x12\n        /* \"#utility.yul\":9115:9116   */\n      0x04\n        /* \"#utility.yul\":9108:9123   */\n      mstore\n        /* \"#utility.yul\":9142:9146   */\n      0x24\n        /* \"#utility.yul\":9139:9140   */\n      0x00\n        /* \"#utility.yul\":9132:9147   */\n      revert\n        /* \"#utility.yul\":9159:9344   */\n    tag_158:\n        /* \"#utility.yul\":9199:9200   */\n      0x00\n        /* \"#utility.yul\":9216:9236   */\n      tag_421\n        /* \"#utility.yul\":9234:9235   */\n      dup3\n        /* \"#utility.yul\":9216:9236   */\n      tag_292\n      jump\t// in\n    tag_421:\n        /* \"#utility.yul\":9211:9236   */\n      swap2\n      pop\n        /* \"#utility.yul\":9250:9270   */\n      tag_422\n        /* \"#utility.yul\":9268:9269   */\n      dup4\n        /* \"#utility.yul\":9250:9270   */\n      tag_292\n      jump\t// in\n    tag_422:\n        /* \"#utility.yul\":9245:9270   */\n      swap3\n      pop\n        /* \"#utility.yul\":9289:9290   */\n      dup3\n        /* \"#utility.yul\":9279:9314   */\n      tag_423\n      jumpi\n        /* \"#utility.yul\":9294:9312   */\n      tag_424\n      tag_316\n      jump\t// in\n    tag_424:\n        /* \"#utility.yul\":9279:9314   */\n    tag_423:\n        /* \"#utility.yul\":9336:9337   */\n      dup3\n        /* \"#utility.yul\":9333:9334   */\n      dup3\n        /* \"#utility.yul\":9329:9338   */\n      div\n        /* \"#utility.yul\":9324:9338   */\n      swap1\n      pop\n        /* \"#utility.yul\":9159:9344   */\n      swap3\n      swap2\n      pop\n      pop\n      jump\t// out\n        /* \"#utility.yul\":9350:9792   */\n    tag_182:\n        /* \"#utility.yul\":9499:9503   */\n      0x00\n        /* \"#utility.yul\":9537:9539   */\n      0x60\n        /* \"#utility.yul\":9526:9535   */\n      dup3\n        /* \"#utility.yul\":9522:9540   */\n      add\n        /* \"#utility.yul\":9514:9540   */\n      swap1\n      pop\n        /* \"#utility.yul\":9550:9621   */\n      tag_426\n        /* \"#utility.yul\":9618:9619   */\n      0x00\n        /* \"#utility.yul\":9607:9616   */\n      dup4\n        /* \"#utility.yul\":9603:9620   */\n      add\n        /* \"#utility.yul\":9594:9600   */\n      dup7\n        /* \"#utility.yul\":9550:9621   */\n      tag_312\n      jump\t// in\n    tag_426:\n        /* \"#utility.yul\":9631:9703   */\n      tag_427\n        /* \"#utility.yul\":9699:9701   */\n      0x20\n        /* \"#utility.yul\":9688:9697   */\n      dup4\n        /* \"#utility.yul\":9684:9702   */\n      add\n        /* \"#utility.yul\":9675:9681   */\n      dup6\n        /* \"#utility.yul\":9631:9703   */\n      tag_312\n      jump\t// in\n    tag_427:\n        /* \"#utility.yul\":9713:9785   */\n      tag_428\n        /* \"#utility.yul\":9781:9783   */\n      0x40\n        /* \"#utility.yul\":9770:9779   */\n      dup4\n        /* \"#utility.yul\":9766:9784   */\n      add\n        /* \"#utility.yul\":9757:9763   */\n      dup5\n        /* \"#utility.yul\":9713:9785   */\n      tag_293\n      jump\t// in\n    tag_428:\n        /* \"#utility.yul\":9350:9792   */\n      swap5\n      swap4\n      pop\n      pop\n      pop\n      pop\n      jump\t// out\n        /* \"#utility.yul\":9798:9914   */\n    tag_317:\n        /* \"#utility.yul\":9868:9889   */\n      tag_430\n        /* \"#utility.yul\":9883:9888   */\n      dup2\n        /* \"#utility.yul\":9868:9889   */\n      tag_308\n      jump\t// in\n    tag_430:\n        /* \"#utility.yul\":9861:9866   */\n      dup2\n        /* \"#utility.yul\":9858:9890   */\n      eq\n        /* \"#utility.yul\":9848:9908   */\n      tag_431\n      jumpi\n        /* \"#utility.yul\":9904:9905   */\n      0x00\n        /* \"#utility.yul\":9901:9902   */\n      0x00\n        /* \"#utility.yul\":9894:9906   */\n      revert\n        /* \"#utility.yul\":9848:9908   */\n    tag_431:\n        /* \"#utility.yul\":9798:9914   */\n      pop\n      jump\t// out\n        /* \"#utility.yul\":9920:10057   */\n    tag_318:\n        /* \"#utility.yul\":9974:9979   */\n      0x00\n        /* \"#utility.yul\":10005:10011   */\n      dup2\n        /* \"#utility.yul\":9999:10012   */\n      mload\n        /* \"#utility.yul\":9990:10012   */\n      swap1\n      pop\n        /* \"#utility.yul\":10021:10051   */\n      tag_433\n        /* \"#utility.yul\":10045:10050   */\n      dup2\n        /* \"#utility.yul\":10021:10051   */\n      tag_317\n      jump\t// in\n    tag_433:\n        /* \"#utility.yul\":9920:10057   */\n      swap3\n      swap2\n      pop\n      pop\n      jump\t// out\n        /* \"#utility.yul\":10063:10408   */\n    tag_186:\n        /* \"#utility.yul\":10130:10136   */\n      0x00\n        /* \"#utility.yul\":10179:10181   */\n      0x20\n        /* \"#utility.yul\":10167:10176   */\n      dup3\n        /* \"#utility.yul\":10158:10165   */\n      dup5\n        /* \"#utility.yul\":10154:10177   */\n      sub\n        /* \"#utility.yul\":10150:10182   */\n      slt\n        /* \"#utility.yul\":10147:10266   */\n      iszero\n      tag_435\n      jumpi\n        /* \"#utility.yul\":10185:10264   */\n      tag_436\n      tag_300\n      jump\t// in\n    tag_436:\n        /* \"#utility.yul\":10147:10266   */\n    tag_435:\n        /* \"#utility.yul\":10305:10306   */\n      0x00\n        /* \"#utility.yul\":10330:10391   */\n      tag_437\n        /* \"#utility.yul\":10383:10390   */\n      dup5\n        /* \"#utility.yul\":10374:10380   */\n      dup3\n        /* \"#utility.yul\":10363:10372   */\n      dup6\n        /* \"#utility.yul\":10359:10381   */\n      add\n        /* \"#utility.yul\":10330:10391   */\n      tag_318\n      jump\t// in\n    tag_437:\n        /* \"#utility.yul\":10320:10391   */\n      swap2\n      pop\n        /* \"#utility.yul\":10276:10401   */\n      pop\n        /* \"#utility.yul\":10063:10408   */\n      swap3\n      swap2\n      pop\n      pop\n      jump\t// out\n        /* \"#utility.yul\":10414:10746   */\n    tag_190:\n        /* \"#utility.yul\":10535:10539   */\n      0x00\n        /* \"#utility.yul\":10573:10575   */\n      0x40\n        /* \"#utility.yul\":10562:10571   */\n      dup3\n        /* \"#utility.yul\":10558:10576   */\n      add\n        /* \"#utility.yul\":10550:10576   */\n      swap1\n      pop\n        /* \"#utility.yul\":10586:10657   */\n      tag_439\n        /* \"#utility.yul\":10654:10655   */\n      0x00\n        /* \"#utility.yul\":10643:10652   */\n      dup4\n        /* \"#utility.yul\":10639:10656   */\n      add\n        /* \"#utility.yul\":10630:10636   */\n      dup6\n        /* \"#utility.yul\":10586:10657   */\n      tag_293\n      jump\t// in\n    tag_439:\n        /* \"#utility.yul\":10667:10739   */\n      tag_440\n        /* \"#utility.yul\":10735:10737   */\n      0x20\n        /* \"#utility.yul\":10724:10733   */\n      dup4\n        /* \"#utility.yul\":10720:10738   */\n      add\n        /* \"#utility.yul\":10711:10717   */\n      dup5\n        /* \"#utility.yul\":10667:10739   */\n      tag_293\n      jump\t// in\n    tag_440:\n        /* \"#utility.yul\":10414:10746   */\n      swap4\n      swap3\n      pop\n      pop\n      pop\n      jump\t// out\n        /* \"#utility.yul\":10752:11084   */\n    tag_218:\n        /* \"#utility.yul\":10873:10877   */\n      0x00\n        /* \"#utility.yul\":10911:10913   */\n      0x40\n        /* \"#utility.yul\":10900:10909   */\n      dup3\n        /* \"#utility.yul\":10896:10914   */\n      add\n        /* \"#utility.yul\":10888:10914   */\n      swap1\n      pop\n        /* \"#utility.yul\":10924:10995   */\n      tag_442\n        /* \"#utility.yul\":10992:10993   */\n      0x00\n        /* \"#utility.yul\":10981:10990   */\n      dup4\n        /* \"#utility.yul\":10977:10994   */\n      add\n        /* \"#utility.yul\":10968:10974   */\n      dup6\n        /* \"#utility.yul\":10924:10995   */\n      tag_312\n      jump\t// in\n    tag_442:\n        /* \"#utility.yul\":11005:11077   */\n      tag_443\n        /* \"#utility.yul\":11073:11075   */\n      0x20\n        /* \"#utility.yul\":11062:11071   */\n      dup4\n        /* \"#utility.yul\":11058:11076   */\n      add\n        /* \"#utility.yul\":11049:11055   */\n      dup5\n        /* \"#utility.yul\":11005:11077   */\n      tag_293\n      jump\t// in\n    tag_443:\n        /* \"#utility.yul\":10752:11084   */\n      swap4\n      swap3\n      pop\n      pop\n      pop\n      jump\t// out\n        /* \"#utility.yul\":11090:11532   */\n    tag_258:\n        /* \"#utility.yul\":11239:11243   */\n      0x00\n        /* \"#utility.yul\":11277:11279   */\n      0x60\n        /* \"#utility.yul\":11266:11275   */\n      dup3\n        /* \"#utility.yul\":11262:11280   */\n      add\n        /* \"#utility.yul\":11254:11280   */\n      swap1\n      pop\n        /* \"#utility.yul\":11290:11361   */\n      tag_445\n        /* \"#utility.yul\":11358:11359   */\n      0x00\n        /* \"#utility.yul\":11347:11356   */\n      dup4\n        /* \"#utility.yul\":11343:11360   */\n      add\n        /* \"#utility.yul\":11334:11340   */\n      dup7\n        /* \"#utility.yul\":11290:11361   */\n      tag_312\n      jump\t// in\n    tag_445:\n        /* \"#utility.yul\":11371:11443   */\n      tag_446\n        /* \"#utility.yul\":11439:11441   */\n      0x20\n        /* \"#utility.yul\":11428:11437   */\n      dup4\n        /* \"#utility.yul\":11424:11442   */\n      add\n        /* \"#utility.yul\":11415:11421   */\n      dup6\n        /* \"#utility.yul\":11371:11443   */\n      tag_293\n      jump\t// in\n    tag_446:\n        /* \"#utility.yul\":11453:11525   */\n      tag_447\n        /* \"#utility.yul\":11521:11523   */\n      0x40\n        /* \"#utility.yul\":11510:11519   */\n      dup4\n        /* \"#utility.yul\":11506:11524   */\n      add\n        /* \"#utility.yul\":11497:11503   */\n      dup5\n        /* \"#utility.yul\":11453:11525   */\n      tag_293\n      jump\t// in\n    tag_447:\n        /* \"#utility.yul\":11090:11532   */\n      swap5\n      swap4\n      pop\n      pop\n      pop\n      pop\n      jump\t// out\n        /* \"#utility.yul\":11538:11729   */\n    tag_285:\n        /* \"#utility.yul\":11578:11581   */\n      0x00\n        /* \"#utility.yul\":11597:11617   */\n      tag_449\n        /* \"#utility.yul\":11615:11616   */\n      dup3\n        /* \"#utility.yul\":11597:11617   */\n      tag_292\n      jump\t// in\n    tag_449:\n        /* \"#utility.yul\":11592:11617   */\n      swap2\n      pop\n        /* \"#utility.yul\":11631:11651   */\n      tag_450\n        /* \"#utility.yul\":11649:11650   */\n      dup4\n        /* \"#utility.yul\":11631:11651   */\n      tag_292\n      jump\t// in\n    tag_450:\n        /* \"#utility.yul\":11626:11651   */\n      swap3\n      pop\n        /* \"#utility.yul\":11674:11675   */\n      dup3\n        /* \"#utility.yul\":11671:11672   */\n      dup3\n        /* \"#utility.yul\":11667:11676   */\n      add\n        /* \"#utility.yul\":11660:11676   */\n      swap1\n      pop\n        /* \"#utility.yul\":11695:11698   */\n      dup1\n        /* \"#utility.yul\":11692:11693   */\n      dup3\n        /* \"#utility.yul\":11689:11699   */\n      gt\n        /* \"#utility.yul\":11686:11722   */\n      iszero\n      tag_451\n      jumpi\n        /* \"#utility.yul\":11702:11720   */\n      tag_452\n      tag_315\n      jump\t// in\n    tag_452:\n        /* \"#utility.yul\":11686:11722   */\n    tag_451:\n        /* \"#utility.yul\":11538:11729   */\n      swap3\n      swap2\n      pop\n      pop\n      jump\t// out\n\n    auxdata: 0xa26469706673582212201e45beb9b553253bfd91fc1703a14f2615bbeb74419c538a5e4d1794e4f567f364736f6c634300081e0033\n}\n",
				"bytecode": {
					"linkReferences": {},
					"object": "60c060405234801561000f575f5ffd5b5060405161232b38038061232b833981810160405281019061003191906102c3565b81818160039081610042919061055b565b508060049081610052919061055b565b5050508273ffffffffffffffffffffffffffffffffffffffff1660808173ffffffffffffffffffffffffffffffffffffffff16815250508273ffffffffffffffffffffffffffffffffffffffff1663313ce5676040518163ffffffff1660e01b8152600401602060405180830381865afa1580156100d2573d5f5f3e3d5ffd5b505050506040513d601f19601f820116820180604052508101906100f69190610660565b60ff1660a08160ff168152505050505061068b565b5f604051905090565b5f5ffd5b5f5ffd5b5f73ffffffffffffffffffffffffffffffffffffffff82169050919050565b5f6101458261011c565b9050919050565b5f6101568261013b565b9050919050565b6101668161014c565b8114610170575f5ffd5b50565b5f815190506101818161015d565b92915050565b5f5ffd5b5f5ffd5b5f601f19601f8301169050919050565b7f4e487b71000000000000000000000000000000000000000000000000000000005f52604160045260245ffd5b6101d58261018f565b810181811067ffffffffffffffff821117156101f4576101f361019f565b5b80604052505050565b5f61020661010b565b905061021282826101cc565b919050565b5f67ffffffffffffffff8211156102315761023061019f565b5b61023a8261018f565b9050602081019050919050565b8281835e5f83830152505050565b5f61026761026284610217565b6101fd565b9050828152602081018484840111156102835761028261018b565b5b61028e848285610247565b509392505050565b5f82601f8301126102aa576102a9610187565b5b81516102ba848260208601610255565b91505092915050565b5f5f5f606084860312156102da576102d9610114565b5b5f6102e786828701610173565b935050602084015167ffffffffffffffff81111561030857610307610118565b5b61031486828701610296565b925050604084015167ffffffffffffffff81111561033557610334610118565b5b61034186828701610296565b9150509250925092565b5f81519050919050565b7f4e487b71000000000000000000000000000000000000000000000000000000005f52602260045260245ffd5b5f600282049050600182168061039957607f821691505b6020821081036103ac576103ab610355565b5b50919050565b5f819050815f5260205f209050919050565b5f6020601f8301049050919050565b5f82821b905092915050565b5f6008830261040e7fffffffffffffffffffffffffffffffffffffffffffffffffffffffffffffffff826103d3565b61041886836103d3565b95508019841693508086168417925050509392505050565b5f819050919050565b5f819050919050565b5f61045c61045761045284610430565b610439565b610430565b9050919050565b5f819050919050565b61047583610442565b61048961048182610463565b8484546103df565b825550505050565b5f5f905090565b6104a0610491565b6104ab81848461046c565b505050565b5b818110156104ce576104c35f82610498565b6001810190506104b1565b5050565b601f821115610513576104e4816103b2565b6104ed846103c4565b810160208510156104fc578190505b610510610508856103c4565b8301826104b0565b50505b505050565b5f82821c905092915050565b5f6105335f1984600802610518565b1980831691505092915050565b5f61054b8383610524565b9150826002028217905092915050565b6105648261034b565b67ffffffffffffffff81111561057d5761057c61019f565b5b6105878254610382565b6105928282856104d2565b5f60209050601f8311600181146105c3575f84156105b1578287015190505b6105bb8582610540565b865550610622565b601f1984166105d1866103b2565b5f5b828110156105f8578489015182556001820191506020850194506020810190506105d3565b868310156106155784890151610611601f891682610524565b8355505b6001600288020188555050505b505050505050565b5f60ff82169050919050565b61063f8161062a565b8114610649575f5ffd5b50565b5f8151905061065a81610636565b92915050565b5f6020828403121561067557610674610114565b5b5f6106828482850161064c565b91505092915050565b60805160a051611c5c6106cf5f395f61079401525f81816105bc015281816107bb015281816108270152818161098d01528181610bba0152610d300152611c5c5ff3fe608060405234801561000f575f5ffd5b5060043610610171575f3560e01c806370a08231116100dc578063ba08765211610095578063ce96cb771161006f578063ce96cb77146104f9578063d905777e14610529578063dd62ed3e14610559578063ef8b30f71461058957610171565b8063ba08765214610469578063c63d75b614610499578063c6e6f592146104c957610171565b806370a082311461035b57806394bf804d1461038b57806395d89b41146103bb578063a9059cbb146103d9578063b3d7f6b914610409578063b460af941461043957610171565b806323b872dd1161012e57806323b872dd1461025f578063313ce5671461028f57806338d52e0f146102ad578063402d267d146102cb5780634cdad506146102fb5780636e553f651461032b57610171565b806301e1d1141461017557806306fdde031461019357806307a2d13a146101b1578063095ea7b3146101e15780630a28a4771461021157806318160ddd14610241575b5f5ffd5b61017d6105b9565b60405161018a919061160f565b60405180910390f35b61019b610657565b6040516101a89190611698565b60405180910390f35b6101cb60048036038101906101c691906116e6565b6106e7565b6040516101d8919061160f565b60405180910390f35b6101fb60048036038101906101f6919061176b565b610727565b60405161020891906117c3565b60405180910390f35b61022b600480360381019061022691906116e6565b610749565b604051610238919061160f565b60405180910390f35b61024961075a565b604051610256919061160f565b60405180910390f35b610279600480360381019061027491906117dc565b610763565b60405161028691906117c3565b60405180910390f35b610297610791565b6040516102a49190611847565b60405180910390f35b6102b56107b8565b6040516102c2919061186f565b60405180910390f35b6102e560048036038101906102e09190611888565b6107df565b6040516102f2919061160f565b60405180910390f35b610315600480360381019061031091906116e6565b610808565b604051610322919061160f565b60405180910390f35b610345600480360381019061034091906118b3565b610819565b604051610352919061160f565b60405180910390f35b61037560048036038101906103709190611888565b61093a565b604051610382919061160f565b60405180910390f35b6103a560048036038101906103a091906118b3565b61097f565b6040516103b2919061160f565b60405180910390f35b6103c3610aa0565b6040516103d09190611698565b60405180910390f35b6103f360048036038101906103ee919061176b565b610b30565b60405161040091906117c3565b60405180910390f35b610423600480360381019061041e91906116e6565b610b52565b604051610430919061160f565b60405180910390f35b610453600480360381019061044e91906118f1565b610b63565b604051610460919061160f565b60405180910390f35b610483600480360381019061047e91906118f1565b610cd9565b604051610490919061160f565b60405180910390f35b6104b360048036038101906104ae9190611888565b610e4f565b6040516104c0919061160f565b60405180910390f35b6104e360048036038101906104de91906116e6565b610e78565b6040516104f0919061160f565b60405180910390f35b610513600480360381019061050e9190611888565b610eb8565b604051610520919061160f565b60405180910390f35b610543600480360381019061053e9190611888565b610ed1565b604051610550919061160f565b60405180910390f35b610573600480360381019061056e9190611941565b610ee2565b604051610580919061160f565b60405180910390f35b6105a3600480360381019061059e91906116e6565b610f64565b6040516105b0919061160f565b60405180910390f35b5f7f000000000000000000000000000000000000000000000000000000000000000073ffffffffffffffffffffffffffffffffffffffff166370a08231306040518263ffffffff1660e01b8152600401610613919061186f565b602060405180830381865afa15801561062e573d5f5f3e3d5ffd5b505050506040513d601f19601f820116820180604052508101906106529190611993565b905090565b606060038054610666906119eb565b80601f0160208091040260200160405190810160405280929190818152602001828054610692906119eb565b80156106dd5780601f106106b4576101008083540402835291602001916106dd565b820191905f5260205f20905b8154815290600101906020018083116106c057829003601f168201915b5050505050905090565b5f5f6106f161075a565b90505f811461071d57806107036105b9565b8461070e9190611a48565b6107189190611ab6565b61071f565b825b915050919050565b5f5f610731610f75565b905061073e818585610f7c565b600191505092915050565b5f61075382610e78565b9050919050565b5f600254905090565b5f5f61076d610f75565b905061077a858285610f8e565b610785858585611021565b60019150509392505050565b5f7f0000000000000000000000000000000000000000000000000000000000000000905090565b5f7f0000000000000000000000000000000000000000000000000000000000000000905090565b5f7fffffffffffffffffffffffffffffffffffffffffffffffffffffffffffffffff9050919050565b5f610812826106e7565b9050919050565b5f61082383610f64565b90507f000000000000000000000000000000000000000000000000000000000000000073ffffffffffffffffffffffffffffffffffffffff166323b872dd3330866040518463ffffffff1660e01b815260040161088293929190611ae6565b6020604051808303815f875af115801561089e573d5f5f3e3d5ffd5b505050506040513d601f19601f820116820180604052508101906108c29190611b45565b506108cd8282611111565b8173ffffffffffffffffffffffffffffffffffffffff163373ffffffffffffffffffffffffffffffffffffffff167fdcbc1c05240f31ff3ad067ef1ee35ce4997762752e3a095284754544f4c709d7858460405161092c929190611b70565b60405180910390a392915050565b5f5f5f8373ffffffffffffffffffffffffffffffffffffffff1673ffffffffffffffffffffffffffffffffffffffff1681526020019081526020015f20549050919050565b5f61098983610b52565b90507f000000000000000000000000000000000000000000000000000000000000000073ffffffffffffffffffffffffffffffffffffffff166323b872dd3330846040518463ffffffff1660e01b81526004016109e893929190611ae6565b6020604051808303815f875af1158015610a04573d5f5f3e3d5ffd5b505050506040513d601f19601f82011682018060405250810190610a289190611b45565b50610a338284611111565b8173ffffffffffffffffffffffffffffffffffffffff163373ffffffffffffffffffffffffffffffffffffffff167fdcbc1c05240f31ff3ad067ef1ee35ce4997762752e3a095284754544f4c709d78386604051610a92929190611b70565b60405180910390a392915050565b606060048054610aaf906119eb565b80601f0160208091040260200160405190810160405280929190818152602001828054610adb906119eb565b8015610b265780601f10610afd57610100808354040283529160200191610b26565b820191905f5260205f20905b815481529060010190602001808311610b0957829003601f168201915b5050505050905090565b5f5f610b3a610f75565b9050610b47818585611021565b600191505092915050565b5f610b5c826106e7565b9050919050565b5f610b6d84610749565b90508173ffffffffffffffffffffffffffffffffffffffff163373ffffffffffffffffffffffffffffffffffffffff1614610bae57610bad823383610f8e565b5b610bb88282611190565b7f000000000000000000000000000000000000000000000000000000000000000073ffffffffffffffffffffffffffffffffffffffff1663a9059cbb84866040518363ffffffff1660e01b8152600401610c13929190611b97565b6020604051808303815f875af1158015610c2f573d5f5f3e3d5ffd5b505050506040513d601f19601f82011682018060405250810190610c539190611b45565b508173ffffffffffffffffffffffffffffffffffffffff168373ffffffffffffffffffffffffffffffffffffffff163373ffffffffffffffffffffffffffffffffffffffff167ffbde797d201c681b91056529119e0b02407c7bb96a4a2c75c01fc9667232c8db8785604051610cca929190611b70565b60405180910390a49392505050565b5f610ce384610808565b90508173ffffffffffffffffffffffffffffffffffffffff163373ffffffffffffffffffffffffffffffffffffffff1614610d2457610d23823386610f8e565b5b610d2e8285611190565b7f000000000000000000000000000000000000000000000000000000000000000073ffffffffffffffffffffffffffffffffffffffff1663a9059cbb84836040518363ffffffff1660e01b8152600401610d89929190611b97565b6020604051808303815f875af1158015610da5573d5f5f3e3d5ffd5b505050506040513d601f19601f82011682018060405250810190610dc99190611b45565b508173ffffffffffffffffffffffffffffffffffffffff168373ffffffffffffffffffffffffffffffffffffffff163373ffffffffffffffffffffffffffffffffffffffff167ffbde797d201c681b91056529119e0b02407c7bb96a4a2c75c01fc9667232c8db8488604051610e40929190611b70565b60405180910390a49392505050565b5f7fffffffffffffffffffffffffffffffffffffffffffffffffffffffffffffffff9050919050565b5f5f610e8261075a565b90505f8114610eae57610e936105b9565b8184610e9f9190611a48565b610ea99190611ab6565b610eb0565b825b915050919050565b5f610eca610ec58361093a565b6106e7565b9050919050565b5f610edb8261093a565b9050919050565b5f60015f8473ffffffffffffffffffffffffffffffffffffffff1673ffffffffffffffffffffffffffffffffffffffff1681526020019081526020015f205f8373ffffffffffffffffffffffffffffffffffffffff1673ffffffffffffffffffffffffffffffffffffffff1681526020019081526020015f2054905092915050565b5f610f6e82610e78565b9050919050565b5f33905090565b610f89838383600161120f565b505050565b5f610f998484610ee2565b90507fffffffffffffffffffffffffffffffffffffffffffffffffffffffffffffffff81101561101b578181101561100c578281836040517ffb8f41b200000000000000000000000000000000000000000000000000000000815260040161100393929190611bbe565b60405180910390fd5b61101a84848484035f61120f565b5b50505050565b5f73ffffffffffffffffffffffffffffffffffffffff168373ffffffffffffffffffffffffffffffffffffffff1603611091575f6040517f96c6fd1e000000000000000000000000000000000000000000000000000000008152600401611088919061186f565b60405180910390fd5b5f73ffffffffffffffffffffffffffffffffffffffff168273ffffffffffffffffffffffffffffffffffffffff1603611101575f6040517fec442f050000000000000000000000000000000000000000000000000000000081526004016110f8919061186f565b60405180910390fd5b61110c8383836113de565b505050565b5f73ffffffffffffffffffffffffffffffffffffffff168273ffffffffffffffffffffffffffffffffffffffff1603611181575f6040517fec442f05000000000000000000000000000000000000000000000000000000008152600401611178919061186f565b60405180910390fd5b61118c5f83836113de565b5050565b5f73ffffffffffffffffffffffffffffffffffffffff168273ffffffffffffffffffffffffffffffffffffffff1603611200575f6040517f96c6fd1e0000000000000000000000000000000000000000000000000000000081526004016111f7919061186f565b60405180910390fd5b61120b825f836113de565b5050565b5f73ffffffffffffffffffffffffffffffffffffffff168473ffffffffffffffffffffffffffffffffffffffff160361127f575f6040517fe602df05000000000000000000000000000000000000000000000000000000008152600401611276919061186f565b60405180910390fd5b5f73ffffffffffffffffffffffffffffffffffffffff168373ffffffffffffffffffffffffffffffffffffffff16036112ef575f6040517f94280d620000000000000000000000000000000000000000000000000000000081526004016112e6919061186f565b60405180910390fd5b8160015f8673ffffffffffffffffffffffffffffffffffffffff1673ffffffffffffffffffffffffffffffffffffffff1681526020019081526020015f205f8573ffffffffffffffffffffffffffffffffffffffff1673ffffffffffffffffffffffffffffffffffffffff1681526020019081526020015f208190555080156113d8578273ffffffffffffffffffffffffffffffffffffffff168473ffffffffffffffffffffffffffffffffffffffff167f8c5be1e5ebec7d5bd14f71427d1e84f3dd0314c0f7b2291e5b200ac8c7c3b925846040516113cf919061160f565b60405180910390a35b50505050565b5f73ffffffffffffffffffffffffffffffffffffffff168373ffffffffffffffffffffffffffffffffffffffff160361142e578060025f8282546114229190611bf3565b925050819055506114fc565b5f5f5f8573ffffffffffffffffffffffffffffffffffffffff1673ffffffffffffffffffffffffffffffffffffffff1681526020019081526020015f20549050818110156114b7578381836040517fe450d38c0000000000000000000000000000000000000000000000000000000081526004016114ae93929190611bbe565b60405180910390fd5b8181035f5f8673ffffffffffffffffffffffffffffffffffffffff1673ffffffffffffffffffffffffffffffffffffffff1681526020019081526020015f2081905550505b5f73ffffffffffffffffffffffffffffffffffffffff168273ffffffffffffffffffffffffffffffffffffffff1603611543578060025f828254039250508190555061158d565b805f5f8473ffffffffffffffffffffffffffffffffffffffff1673ffffffffffffffffffffffffffffffffffffffff1681526020019081526020015f205f82825401925050819055505b8173ffffffffffffffffffffffffffffffffffffffff168373ffffffffffffffffffffffffffffffffffffffff167fddf252ad1be2c89b69c2b068fc378daa952ba7f163c4a11628f55a4df523b3ef836040516115ea919061160f565b60405180910390a3505050565b5f819050919050565b611609816115f7565b82525050565b5f6020820190506116225f830184611600565b92915050565b5f81519050919050565b5f82825260208201905092915050565b8281835e5f83830152505050565b5f601f19601f8301169050919050565b5f61166a82611628565b6116748185611632565b9350611684818560208601611642565b61168d81611650565b840191505092915050565b5f6020820190508181035f8301526116b08184611660565b905092915050565b5f5ffd5b6116c5816115f7565b81146116cf575f5ffd5b50565b5f813590506116e0816116bc565b92915050565b5f602082840312156116fb576116fa6116b8565b5b5f611708848285016116d2565b91505092915050565b5f73ffffffffffffffffffffffffffffffffffffffff82169050919050565b5f61173a82611711565b9050919050565b61174a81611730565b8114611754575f5ffd5b50565b5f8135905061176581611741565b92915050565b5f5f60408385031215611781576117806116b8565b5b5f61178e85828601611757565b925050602061179f858286016116d2565b9150509250929050565b5f8115159050919050565b6117bd816117a9565b82525050565b5f6020820190506117d65f8301846117b4565b92915050565b5f5f5f606084860312156117f3576117f26116b8565b5b5f61180086828701611757565b935050602061181186828701611757565b9250506040611822868287016116d2565b9150509250925092565b5f60ff82169050919050565b6118418161182c565b82525050565b5f60208201905061185a5f830184611838565b92915050565b61186981611730565b82525050565b5f6020820190506118825f830184611860565b92915050565b5f6020828403121561189d5761189c6116b8565b5b5f6118aa84828501611757565b91505092915050565b5f5f604083850312156118c9576118c86116b8565b5b5f6118d6858286016116d2565b92505060206118e785828601611757565b9150509250929050565b5f5f5f60608486031215611908576119076116b8565b5b5f611915868287016116d2565b935050602061192686828701611757565b925050604061193786828701611757565b9150509250925092565b5f5f60408385031215611957576119566116b8565b5b5f61196485828601611757565b925050602061197585828601611757565b9150509250929050565b5f8151905061198d816116bc565b92915050565b5f602082840312156119a8576119a76116b8565b5b5f6119b58482850161197f565b91505092915050565b7f4e487b71000000000000000000000000000000000000000000000000000000005f52602260045260245ffd5b5f6002820490506001821680611a0257607f821691505b602082108103611a1557611a146119be565b5b50919050565b7f4e487b71000000000000000000000000000000000000000000000000000000005f52601160045260245ffd5b5f611a52826115f7565b9150611a5d836115f7565b9250828202611a6b816115f7565b91508282048414831517611a8257611a81611a1b565b5b5092915050565b7f4e487b71000000000000000000000000000000000000000000000000000000005f52601260045260245ffd5b5f611ac0826115f7565b9150611acb836115f7565b925082611adb57611ada611a89565b5b828204905092915050565b5f606082019050611af95f830186611860565b611b066020830185611860565b611b136040830184611600565b949350505050565b611b24816117a9565b8114611b2e575f5ffd5b50565b5f81519050611b3f81611b1b565b92915050565b5f60208284031215611b5a57611b596116b8565b5b5f611b6784828501611b31565b91505092915050565b5f604082019050611b835f830185611600565b611b906020830184611600565b9392505050565b5f604082019050611baa5f830185611860565b611bb76020830184611600565b9392505050565b5f606082019050611bd15f830186611860565b611bde6020830185611600565b611beb6040830184611600565b949350505050565b5f611bfd826115f7565b9150611c08836115f7565b9250828201905080821115611c2057611c1f611a1b565b5b9291505056fea26469706673582212201e45beb9b553253bfd91fc1703a14f2615bbeb74419c538a5e4d1794e4f567f364736f6c634300081e0033",
					"opcodes": "PUSH1 0xC0 PUSH1 0x40 MSTORE CALLVALUE DUP1 ISZERO PUSH2 0xF JUMPI PUSH0 PUSH0 REVERT JUMPDEST POP PUSH1 0x40 MLOAD PUSH2 0x232B CODESIZE SUB DUP1 PUSH2 0x232B DUP4 CODECOPY DUP2 DUP2 ADD PUSH1 0x40 MSTORE DUP2 ADD SWAP1 PUSH2 0x31 SWAP2 SWAP1 PUSH2 0x2C3 JUMP JUMPDEST DUP2 DUP2 DUP2 PUSH1 0x3 SWAP1 DUP2 PUSH2 0x42 SWAP2 SWAP1 PUSH2 0x55B JUMP JUMPDEST POP DUP1 PUSH1 0x4 SWAP1 DUP2 PUSH2 0x52 SWAP2 SWAP1 PUSH2 0x55B JUMP JUMPDEST POP POP POP DUP3 PUSH20 0xFFFFFFFFFFFFFFFFFFFFFFFFFFFFFFFFFFFFFFFF AND PUSH1 0x80 DUP2 PUSH20 0xFFFFFFFFFFFFFFFFFFFFFFFFFFFFFFFFFFFFFFFF AND DUP2 MSTORE POP POP DUP3 PUSH20 0xFFFFFFFFFFFFFFFFFFFFFFFFFFFFFFFFFFFFFFFF AND PUSH4 0x313CE567 PUSH1 0x40 MLOAD DUP2 PUSH4 0xFFFFFFFF AND PUSH1 0xE0 SHL DUP2 MSTORE PUSH1 0x4 ADD PUSH1 0x20 PUSH1 0x40 MLOAD DUP1 DUP4 SUB DUP2 DUP7 GAS STATICCALL ISZERO DUP1 ISZERO PUSH2 0xD2 JUMPI RETURNDATASIZE PUSH0 PUSH0 RETURNDATACOPY RETURNDATASIZE PUSH0 REVERT JUMPDEST POP POP POP POP PUSH1 0x40 MLOAD RETURNDATASIZE PUSH1 0x1F NOT PUSH1 0x1F DUP3 ADD AND DUP3 ADD DUP1 PUSH1 0x40 MSTORE POP DUP2 ADD SWAP1 PUSH2 0xF6 SWAP2 SWAP1 PUSH2 0x660 JUMP JUMPDEST PUSH1 0xFF AND PUSH1 0xA0 DUP2 PUSH1 0xFF AND DUP2 MSTORE POP POP POP POP POP PUSH2 0x68B JUMP JUMPDEST PUSH0 PUSH1 0x40 MLOAD SWAP1 POP SWAP1 JUMP JUMPDEST PUSH0 PUSH0 REVERT JUMPDEST PUSH0 PUSH0 REVERT JUMPDEST PUSH0 PUSH20 0xFFFFFFFFFFFFFFFFFFFFFFFFFFFFFFFFFFFFFFFF DUP3 AND SWAP1 POP SWAP2 SWAP1 POP JUMP JUMPDEST PUSH0 PUSH2 0x145 DUP3 PUSH2 0x11C JUMP JUMPDEST SWAP1 POP SWAP2 SWAP1 POP JUMP JUMPDEST PUSH0 PUSH2 0x156 DUP3 PUSH2 0x13B JUMP JUMPDEST SWAP1 POP SWAP2 SWAP1 POP JUMP JUMPDEST PUSH2 0x166 DUP2 PUSH2 0x14C JUMP JUMPDEST DUP2 EQ PUSH2 0x170 JUMPI PUSH0 PUSH0 REVERT JUMPDEST POP JUMP JUMPDEST PUSH0 DUP2 MLOAD SWAP1 POP PUSH2 0x181 DUP2 PUSH2 0x15D JUMP JUMPDEST SWAP3 SWAP2 POP POP JUMP JUMPDEST PUSH0 PUSH0 REVERT JUMPDEST PUSH0 PUSH0 REVERT JUMPDEST PUSH0 PUSH1 0x1F NOT PUSH1 0x1F DUP4 ADD AND SWAP1 POP SWAP2 SWAP1 POP JUMP JUMPDEST PUSH32 0x4E487B7100000000000000000000000000000000000000000000000000000000 PUSH0 MSTORE PUSH1 0x41 PUSH1 0x4 MSTORE PUSH1 0x24 PUSH0 REVERT JUMPDEST PUSH2 0x1D5 DUP3 PUSH2 0x18F JUMP JUMPDEST DUP2 ADD DUP2 DUP2 LT PUSH8 0xFFFFFFFFFFFFFFFF DUP3 GT OR ISZERO PUSH2 0x1F4 JUMPI PUSH2 0x1F3 PUSH2 0x19F JUMP JUMPDEST JUMPDEST DUP1 PUSH1 0x40 MSTORE POP POP POP JUMP JUMPDEST PUSH0 PUSH2 0x206 PUSH2 0x10B JUMP JUMPDEST SWAP1 POP PUSH2 0x212 DUP3 DUP3 PUSH2 0x1CC JUMP JUMPDEST SWAP2 SWAP1 POP JUMP JUMPDEST PUSH0 PUSH8 0xFFFFFFFFFFFFFFFF DUP3 GT ISZERO PUSH2 0x231 JUMPI PUSH2 0x230 PUSH2 0x19F JUMP JUMPDEST JUMPDEST PUSH2 0x23A DUP3 PUSH2 0x18F JUMP JUMPDEST SWAP1 POP PUSH1 0x20 DUP2 ADD SWAP1 POP SWAP2 SWAP1 POP JUMP JUMPDEST DUP3 DUP2 DUP4 MCOPY PUSH0 DUP4 DUP4 ADD MSTORE POP POP POP JUMP JUMPDEST PUSH0 PUSH2 0x267 PUSH2 0x262 DUP5 PUSH2 0x217 JUMP JUMPDEST PUSH2 0x1FD JUMP JUMPDEST SWAP1 POP DUP3 DUP2 MSTORE PUSH1 0x20 DUP2 ADD DUP5 DUP5 DUP5 ADD GT ISZERO PUSH2 0x283 JUMPI PUSH2 0x282 PUSH2 0x18B JUMP JUMPDEST JUMPDEST PUSH2 0x28E DUP5 DUP3 DUP6 PUSH2 0x247 JUMP JUMPDEST POP SWAP4 SWAP3 POP POP POP JUMP JUMPDEST PUSH0 DUP3 PUSH1 0x1F DUP4 ADD SLT PUSH2 0x2AA JUMPI PUSH2 0x2A9 PUSH2 0x187 JUMP JUMPDEST JUMPDEST DUP2 MLOAD PUSH2 0x2BA DUP5 DUP3 PUSH1 0x20 DUP7 ADD PUSH2 0x255 JUMP JUMPDEST SWAP2 POP POP SWAP3 SWAP2 POP POP JUMP JUMPDEST PUSH0 PUSH0 PUSH0 PUSH1 0x60 DUP5 DUP7 SUB SLT ISZERO PUSH2 0x2DA JUMPI PUSH2 0x2D9 PUSH2 0x114 JUMP JUMPDEST JUMPDEST PUSH0 PUSH2 0x2E7 DUP7 DUP3 DUP8 ADD PUSH2 0x173 JUMP JUMPDEST SWAP4 POP POP PUSH1 0x20 DUP5 ADD MLOAD PUSH8 0xFFFFFFFFFFFFFFFF DUP2 GT ISZERO PUSH2 0x308 JUMPI PUSH2 0x307 PUSH2 0x118 JUMP JUMPDEST JUMPDEST PUSH2 0x314 DUP7 DUP3 DUP8 ADD PUSH2 0x296 JUMP JUMPDEST SWAP3 POP POP PUSH1 0x40 DUP5 ADD MLOAD PUSH8 0xFFFFFFFFFFFFFFFF DUP2 GT ISZERO PUSH2 0x335 JUMPI PUSH2 0x334 PUSH2 0x118 JUMP JUMPDEST JUMPDEST PUSH2 0x341 DUP7 DUP3 DUP8 ADD PUSH2 0x296 JUMP JUMPDEST SWAP2 POP POP SWAP3 POP SWAP3 POP SWAP3 JUMP JUMPDEST PUSH0 DUP2 MLOAD SWAP1 POP SWAP2 SWAP1 POP JUMP JUMPDEST PUSH32 0x4E487B7100000000000000000000000000000000000000000000000000000000 PUSH0 MSTORE PUSH1 0x22 PUSH1 0x4 MSTORE PUSH1 0x24 PUSH0 REVERT JUMPDEST PUSH0 PUSH1 0x2 DUP3 DIV SWAP1 POP PUSH1 0x1 DUP3 AND DUP1 PUSH2 0x399 JUMPI PUSH1 0x7F DUP3 AND SWAP2 POP JUMPDEST PUSH1 0x20 DUP3 LT DUP2 SUB PUSH2 0x3AC JUMPI PUSH2 0x3AB PUSH2 0x355 JUMP JUMPDEST JUMPDEST POP SWAP2 SWAP1 POP JUMP JUMPDEST PUSH0 DUP2 SWAP1 POP DUP2 PUSH0 MSTORE PUSH1 0x20 PUSH0 KECCAK256 SWAP1 POP SWAP2 SWAP1 POP JUMP JUMPDEST PUSH0 PUSH1 0x20 PUSH1 0x1F DUP4 ADD DIV SWAP1 POP SWAP2 SWAP1 POP JUMP JUMPDEST PUSH0 DUP3 DUP3 SHL SWAP1 POP SWAP3 SWAP2 POP POP JUMP JUMPDEST PUSH0 PUSH1 0x8 DUP4 MUL PUSH2 0x40E PUSH32 0xFFFFFFFFFFFFFFFFFFFFFFFFFFFFFFFFFFFFFFFFFFFFFFFFFFFFFFFFFFFFFFFF DUP3 PUSH2 0x3D3 JUMP JUMPDEST PUSH2 0x418 DUP7 DUP4 PUSH2 0x3D3 JUMP JUMPDEST SWAP6 POP DUP1 NOT DUP5 AND SWAP4 POP DUP1 DUP7 AND DUP5 OR SWAP3 POP POP POP SWAP4 SWAP3 POP POP POP JUMP JUMPDEST PUSH0 DUP2 SWAP1 POP SWAP2 SWAP1 POP JUMP JUMPDEST PUSH0 DUP2 SWAP1 POP SWAP2 SWAP1 POP JUMP JUMPDEST PUSH0 PUSH2 0x45C PUSH2 0x457 PUSH2 0x452 DUP5 PUSH2 0x430 JUMP JUMPDEST PUSH2 0x439 JUMP JUMPDEST PUSH2 0x430 JUMP JUMPDEST SWAP1 POP SWAP2 SWAP1 POP JUMP JUMPDEST PUSH0 DUP2 SWAP1 POP SWAP2 SWAP1 POP JUMP JUMPDEST PUSH2 0x475 DUP4 PUSH2 0x442 JUMP JUMPDEST PUSH2 0x489 PUSH2 0x481 DUP3 PUSH2 0x463 JUMP JUMPDEST DUP5 DUP5 SLOAD PUSH2 0x3DF JUMP JUMPDEST DUP3 SSTORE POP POP POP POP JUMP JUMPDEST PUSH0 PUSH0 SWAP1 POP SWAP1 JUMP JUMPDEST PUSH2 0x4A0 PUSH2 0x491 JUMP JUMPDEST PUSH2 0x4AB DUP2 DUP5 DUP5 PUSH2 0x46C JUMP JUMPDEST POP POP POP JUMP JUMPDEST JUMPDEST DUP2 DUP2 LT ISZERO PUSH2 0x4CE JUMPI PUSH2 0x4C3 PUSH0 DUP3 PUSH2 0x498 JUMP JUMPDEST PUSH1 0x1 DUP2 ADD SWAP1 POP PUSH2 0x4B1 JUMP JUMPDEST POP POP JUMP JUMPDEST PUSH1 0x1F DUP3 GT ISZERO PUSH2 0x513 JUMPI PUSH2 0x4E4 DUP2 PUSH2 0x3B2 JUMP JUMPDEST PUSH2 0x4ED DUP5 PUSH2 0x3C4 JUMP JUMPDEST DUP2 ADD PUSH1 0x20 DUP6 LT ISZERO PUSH2 0x4FC JUMPI DUP2 SWAP1 POP JUMPDEST PUSH2 0x510 PUSH2 0x508 DUP6 PUSH2 0x3C4 JUMP JUMPDEST DUP4 ADD DUP3 PUSH2 0x4B0 JUMP JUMPDEST POP POP JUMPDEST POP POP POP JUMP JUMPDEST PUSH0 DUP3 DUP3 SHR SWAP1 POP SWAP3 SWAP2 POP POP JUMP JUMPDEST PUSH0 PUSH2 0x533 PUSH0 NOT DUP5 PUSH1 0x8 MUL PUSH2 0x518 JUMP JUMPDEST NOT DUP1 DUP4 AND SWAP2 POP POP SWAP3 SWAP2 POP POP JUMP JUMPDEST PUSH0 PUSH2 0x54B DUP4 DUP4 PUSH2 0x524 JUMP JUMPDEST SWAP2 POP DUP3 PUSH1 0x2 MUL DUP3 OR SWAP1 POP SWAP3 SWAP2 POP POP JUMP JUMPDEST PUSH2 0x564 DUP3 PUSH2 0x34B JUMP JUMPDEST PUSH8 0xFFFFFFFFFFFFFFFF DUP2 GT ISZERO PUSH2 0x57D JUMPI PUSH2 0x57C PUSH2 0x19F JUMP JUMPDEST JUMPDEST PUSH2 0x587 DUP3 SLOAD PUSH2 0x382 JUMP JUMPDEST PUSH2 0x592 DUP3 DUP3 DUP6 PUSH2 0x4D2 JUMP JUMPDEST PUSH0 PUSH1 0x20 SWAP1 POP PUSH1 0x1F DUP4 GT PUSH1 0x1 DUP2 EQ PUSH2 0x5C3 JUMPI PUSH0 DUP5 ISZERO PUSH2 0x5B1 JUMPI DUP3 DUP8 ADD MLOAD SWAP1 POP JUMPDEST PUSH2 0x5BB DUP6 DUP3 PUSH2 0x540 JUMP JUMPDEST DUP7 SSTORE POP PUSH2 0x622 JUMP JUMPDEST PUSH1 0x1F NOT DUP5 AND PUSH2 0x5D1 DUP7 PUSH2 0x3B2 JUMP JUMPDEST PUSH0 JUMPDEST DUP3 DUP2 LT ISZERO PUSH2 0x5F8 JUMPI DUP5 DUP10 ADD MLOAD DUP3 SSTORE PUSH1 0x1 DUP3 ADD SWAP2 POP PUSH1 0x20 DUP6 ADD SWAP5 POP PUSH1 0x20 DUP2 ADD SWAP1 POP PUSH2 0x5D3 JUMP JUMPDEST DUP7 DUP4 LT ISZERO PUSH2 0x615 JUMPI DUP5 DUP10 ADD MLOAD PUSH2 0x611 PUSH1 0x1F DUP10 AND DUP3 PUSH2 0x524 JUMP JUMPDEST DUP4 SSTORE POP JUMPDEST PUSH1 0x1 PUSH1 0x2 DUP9 MUL ADD DUP9 SSTORE POP POP POP JUMPDEST POP POP POP POP POP POP JUMP JUMPDEST PUSH0 PUSH1 0xFF DUP3 AND SWAP1 POP SWAP2 SWAP1 POP JUMP JUMPDEST PUSH2 0x63F DUP2 PUSH2 0x62A JUMP JUMPDEST DUP2 EQ PUSH2 0x649 JUMPI PUSH0 PUSH0 REVERT JUMPDEST POP JUMP JUMPDEST PUSH0 DUP2 MLOAD SWAP1 POP PUSH2 0x65A DUP2 PUSH2 0x636 JUMP JUMPDEST SWAP3 SWAP2 POP POP JUMP JUMPDEST PUSH0 PUSH1 0x20 DUP3 DUP5 SUB SLT ISZERO PUSH2 0x675 JUMPI PUSH2 0x674 PUSH2 0x114 JUMP JUMPDEST JUMPDEST PUSH0 PUSH2 0x682 DUP5 DUP3 DUP6 ADD PUSH2 0x64C JUMP JUMPDEST SWAP2 POP POP SWAP3 SWAP2 POP POP JUMP JUMPDEST PUSH1 0x80 MLOAD PUSH1 0xA0 MLOAD PUSH2 0x1C5C PUSH2 0x6CF PUSH0 CODECOPY PUSH0 PUSH2 0x794 ADD MSTORE PUSH0 DUP2 DUP2 PUSH2 0x5BC ADD MSTORE DUP2 DUP2 PUSH2 0x7BB ADD MSTORE DUP2 DUP2 PUSH2 0x827 ADD MSTORE DUP2 DUP2 PUSH2 0x98D ADD MSTORE DUP2 DUP2 PUSH2 0xBBA ADD MSTORE PUSH2 0xD30 ADD MSTORE PUSH2 0x1C5C PUSH0 RETURN INVALID PUSH1 0x80 PUSH1 0x40 MSTORE CALLVALUE DUP1 ISZERO PUSH2 0xF JUMPI PUSH0 PUSH0 REVERT JUMPDEST POP PUSH1 0x4 CALLDATASIZE LT PUSH2 0x171 JUMPI PUSH0 CALLDATALOAD PUSH1 0xE0 SHR DUP1 PUSH4 0x70A08231 GT PUSH2 0xDC JUMPI DUP1 PUSH4 0xBA087652 GT PUSH2 0x95 JUMPI DUP1 PUSH4 0xCE96CB77 GT PUSH2 0x6F JUMPI DUP1 PUSH4 0xCE96CB77 EQ PUSH2 0x4F9 JUMPI DUP1 PUSH4 0xD905777E EQ PUSH2 0x529 JUMPI DUP1 PUSH4 0xDD62ED3E EQ PUSH2 0x559 JUMPI DUP1 PUSH4 0xEF8B30F7 EQ PUSH2 0x589 JUMPI PUSH2 0x171 JUMP JUMPDEST DUP1 PUSH4 0xBA087652 EQ PUSH2 0x469 JUMPI DUP1 PUSH4 0xC63D75B6 EQ PUSH2 0x499 JUMPI DUP1 PUSH4 0xC6E6F592 EQ PUSH2 0x4C9 JUMPI PUSH2 0x171 JUMP JUMPDEST DUP1 PUSH4 0x70A08231 EQ PUSH2 0x35B JUMPI DUP1 PUSH4 0x94BF804D EQ PUSH2 0x38B JUMPI DUP1 PUSH4 0x95D89B41 EQ PUSH2 0x3BB JUMPI DUP1 PUSH4 0xA9059CBB EQ PUSH2 0x3D9 JUMPI DUP1 PUSH4 0xB3D7F6B9 EQ PUSH2 0x409 JUMPI DUP1 PUSH4 0xB460AF94 EQ PUSH2 0x439 JUMPI PUSH2 0x171 JUMP JUMPDEST DUP1 PUSH4 0x23B872DD GT PUSH2 0x12E JUMPI DUP1 PUSH4 0x23B872DD EQ PUSH2 0x25F JUMPI DUP1 PUSH4 0x313CE567 EQ PUSH2 0x28F JUMPI DUP1 PUSH4 0x38D52E0F EQ PUSH2 0x2AD JUMPI DUP1 PUSH4 0x402D267D EQ PUSH2 0x2CB JUMPI DUP1 PUSH4 0x4CDAD506 EQ PUSH2 0x2FB JUMPI DUP1 PUSH4 0x6E553F65 EQ PUSH2 0x32B JUMPI PUSH2 0x171 JUMP JUMPDEST DUP1 PUSH4 0x1E1D114 EQ PUSH2 0x175 JUMPI DUP1 PUSH4 0x6FDDE03 EQ PUSH2 0x193 JUMPI DUP1 PUSH4 0x7A2D13A EQ PUSH2 0x1B1 JUMPI DUP1 PUSH4 0x95EA7B3 EQ PUSH2 0x1E1 JUMPI DUP1 PUSH4 0xA28A477 EQ PUSH2 0x211 JUMPI DUP1 PUSH4 0x18160DDD EQ PUSH2 0x241 JUMPI JUMPDEST PUSH0 PUSH0 REVERT JUMPDEST PUSH2 0x17D PUSH2 0x5B9 JUMP JUMPDEST PUSH1 0x40 MLOAD PUSH2 0x18A SWAP2 SWAP1 PUSH2 0x160F JUMP JUMPDEST PUSH1 0x40 MLOAD DUP1 SWAP2 SUB SWAP1 RETURN JUMPDEST PUSH2 0x19B PUSH2 0x657 JUMP JUMPDEST PUSH1 0x40 MLOAD PUSH2 0x1A8 SWAP2 SWAP1 PUSH2 0x1698 JUMP JUMPDEST PUSH1 0x40 MLOAD DUP1 SWAP2 SUB SWAP1 RETURN JUMPDEST PUSH2 0x1CB PUSH1 0x4 DUP1 CALLDATASIZE SUB DUP2 ADD SWAP1 PUSH2 0x1C6 SWAP2 SWAP1 PUSH2 0x16E6 JUMP JUMPDEST PUSH2 0x6E7 JUMP JUMPDEST PUSH1 0x40 MLOAD PUSH2 0x1D8 SWAP2 SWAP1 PUSH2 0x160F JUMP JUMPDEST PUSH1 0x40 MLOAD DUP1 SWAP2 SUB SWAP1 RETURN JUMPDEST PUSH2 0x1FB PUSH1 0x4 DUP1 CALLDATASIZE SUB DUP2 ADD SWAP1 PUSH2 0x1F6 SWAP2 SWAP1 PUSH2 0x176B JUMP JUMPDEST PUSH2 0x727 JUMP JUMPDEST PUSH1 0x40 MLOAD PUSH2 0x208 SWAP2 SWAP1 PUSH2 0x17C3 JUMP JUMPDEST PUSH1 0x40 MLOAD DUP1 SWAP2 SUB SWAP1 RETURN JUMPDEST PUSH2 0x22B PUSH1 0x4 DUP1 CALLDATASIZE SUB DUP2 ADD SWAP1 PUSH2 0x226 SWAP2 SWAP1 PUSH2 0x16E6 JUMP JUMPDEST PUSH2 0x749 JUMP JUMPDEST PUSH1 0x40 MLOAD PUSH2 0x238 SWAP2 SWAP1 PUSH2 0x160F JUMP JUMPDEST PUSH1 0x40 MLOAD DUP1 SWAP2 SUB SWAP1 RETURN JUMPDEST PUSH2 0x249 PUSH2 0x75A JUMP JUMPDEST PUSH1 0x40 MLOAD PUSH2 0x256 SWAP2 SWAP1 PUSH2 0x160F JUMP JUMPDEST PUSH1 0x40 MLOAD DUP1 SWAP2 SUB SWAP1 RETURN JUMPDEST PUSH2 0x279 PUSH1 0x4 DUP1 CALLDATASIZE SUB DUP2 ADD SWAP1 PUSH2 0x274 SWAP2 SWAP1 PUSH2 0x17DC JUMP JUMPDEST PUSH2 0x763 JUMP JUMPDEST PUSH1 0x40 MLOAD PUSH2 0x286 SWAP2 SWAP1 PUSH2 0x17C3 JUMP JUMPDEST PUSH1 0x40 MLOAD DUP1 SWAP2 SUB SWAP1 RETURN JUMPDEST PUSH2 0x297 PUSH2 0x791 JUMP JUMPDEST PUSH1 0x40 MLOAD PUSH2 0x2A4 SWAP2 SWAP1 PUSH2 0x1847 JUMP JUMPDEST PUSH1 0x40 MLOAD DUP1 SWAP2 SUB SWAP1 RETURN JUMPDEST PUSH2 0x2B5 PUSH2 0x7B8 JUMP JUMPDEST PUSH1 0x40 MLOAD PUSH2 0x2C2 SWAP2 SWAP1 PUSH2 0x186F JUMP JUMPDEST PUSH1 0x40 MLOAD DUP1 SWAP2 SUB SWAP1 RETURN JUMPDEST PUSH2 0x2E5 PUSH1 0x4 DUP1 CALLDATASIZE SUB DUP2 ADD SWAP1 PUSH2 0x2E0 SWAP2 SWAP1 PUSH2 0x1888 JUMP JUMPDEST PUSH2 0x7DF JUMP JUMPDEST PUSH1 0x40 MLOAD PUSH2 0x2F2 SWAP2 SWAP1 PUSH2 0x160F JUMP JUMPDEST PUSH1 0x40 MLOAD DUP1 SWAP2 SUB SWAP1 RETURN JUMPDEST PUSH2 0x315 PUSH1 0x4 DUP1 CALLDATASIZE SUB DUP2 ADD SWAP1 PUSH2 0x310 SWAP2 SWAP1 PUSH2 0x16E6 JUMP JUMPDEST PUSH2 0x808 JUMP JUMPDEST PUSH1 0x40 MLOAD PUSH2 0x322 SWAP2 SWAP1 PUSH2 0x160F JUMP JUMPDEST PUSH1 0x40 MLOAD DUP1 SWAP2 SUB SWAP1 RETURN JUMPDEST PUSH2 0x345 PUSH1 0x4 DUP1 CALLDATASIZE SUB DUP2 ADD SWAP1 PUSH2 0x340 SWAP2 SWAP1 PUSH2 0x18B3 JUMP JUMPDEST PUSH2 0x819 JUMP JUMPDEST PUSH1 0x40 MLOAD PUSH2 0x352 SWAP2 SWAP1 PUSH2 0x160F JUMP JUMPDEST PUSH1 0x40 MLOAD DUP1 SWAP2 SUB SWAP1 RETURN JUMPDEST PUSH2 0x375 PUSH1 0x4 DUP1 CALLDATASIZE SUB DUP2 ADD SWAP1 PUSH2 0x370 SWAP2 SWAP1 PUSH2 0x1888 JUMP JUMPDEST PUSH2 0x93A JUMP JUMPDEST PUSH1 0x40 MLOAD PUSH2 0x382 SWAP2 SWAP1 PUSH2 0x160F JUMP JUMPDEST PUSH1 0x40 MLOAD DUP1 SWAP2 SUB SWAP1 RETURN JUMPDEST PUSH2 0x3A5 PUSH1 0x4 DUP1 CALLDATASIZE SUB DUP2 ADD SWAP1 PUSH2 0x3A0 SWAP2 SWAP1 PUSH2 0x18B3 JUMP JUMPDEST PUSH2 0x97F JUMP JUMPDEST PUSH1 0x40 MLOAD PUSH2 0x3B2 SWAP2 SWAP1 PUSH2 0x160F JUMP JUMPDEST PUSH1 0x40 MLOAD DUP1 SWAP2 SUB SWAP1 RETURN JUMPDEST PUSH2 0x3C3 PUSH2 0xAA0 JUMP JUMPDEST PUSH1 0x40 MLOAD PUSH2 0x3D0 SWAP2 SWAP1 PUSH2 0x1698 JUMP JUMPDEST PUSH1 0x40 MLOAD DUP1 SWAP2 SUB SWAP1 RETURN JUMPDEST PUSH2 0x3F3 PUSH1 0x4 DUP1 CALLDATASIZE SUB DUP2 ADD SWAP1 PUSH2 0x3EE SWAP2 SWAP1 PUSH2 0x176B JUMP JUMPDEST PUSH2 0xB30 JUMP JUMPDEST PUSH1 0x40 MLOAD PUSH2 0x400 SWAP2 SWAP1 PUSH2 0x17C3 JUMP JUMPDEST PUSH1 0x40 MLOAD DUP1 SWAP2 SUB SWAP1 RETURN JUMPDEST PUSH2 0x423 PUSH1 0x4 DUP1 CALLDATASIZE SUB DUP2 ADD SWAP1 PUSH2 0x41E SWAP2 SWAP1 PUSH2 0x16E6 JUMP JUMPDEST PUSH2 0xB52 JUMP JUMPDEST PUSH1 0x40 MLOAD PUSH2 0x430 SWAP2 SWAP1 PUSH2 0x160F JUMP JUMPDEST PUSH1 0x40 MLOAD DUP1 SWAP2 SUB SWAP1 RETURN JUMPDEST PUSH2 0x453 PUSH1 0x4 DUP1 CALLDATASIZE SUB DUP2 ADD SWAP1 PUSH2 0x44E SWAP2 SWAP1 PUSH2 0x18F1 JUMP JUMPDEST PUSH2 0xB63 JUMP JUMPDEST PUSH1 0x40 MLOAD PUSH2 0x460 SWAP2 SWAP1 PUSH2 0x160F JUMP JUMPDEST PUSH1 0x40 MLOAD DUP1 SWAP2 SUB SWAP1 RETURN JUMPDEST PUSH2 0x483 PUSH1 0x4 DUP1 CALLDATASIZE SUB DUP2 ADD SWAP1 PUSH2 0x47E SWAP2 SWAP1 PUSH2 0x18F1 JUMP JUMPDEST PUSH2 0xCD9 JUMP JUMPDEST PUSH1 0x40 MLOAD PUSH2 0x490 SWAP2 SWAP1 PUSH2 0x160F JUMP JUMPDEST PUSH1 0x40 MLOAD DUP1 SWAP2 SUB SWAP1 RETURN JUMPDEST PUSH2 0x4B3 PUSH1 0x4 DUP1 CALLDATASIZE SUB DUP2 ADD SWAP1 PUSH2 0x4AE SWAP2 SWAP1 PUSH2 0x1888 JUMP JUMPDEST PUSH2 0xE4F JUMP JUMPDEST PUSH1 0x40 MLOAD PUSH2 0x4C0 SWAP2 SWAP1 PUSH2 0x160F JUMP JUMPDEST PUSH1 0x40 MLOAD DUP1 SWAP2 SUB SWAP1 RETURN JUMPDEST PUSH2 0x4E3 PUSH1 0x4 DUP1 CALLDATASIZE SUB DUP2 ADD SWAP1 PUSH2 0x4DE SWAP2 SWAP1 PUSH2 0x16E6 JUMP JUMPDEST PUSH2 0xE78 JUMP JUMPDEST PUSH1 0x40 MLOAD PUSH2 0x4F0 SWAP2 SWAP1 PUSH2 0x160F JUMP JUMPDEST PUSH1 0x40 MLOAD DUP1 SWAP2 SUB SWAP1 RETURN JUMPDEST PUSH2 0x513 PUSH1 0x4 DUP1 CALLDATASIZE SUB DUP2 ADD SWAP1 PUSH2 0x50E SWAP2 SWAP1 PUSH2 0x1888 JUMP JUMPDEST PUSH2 0xEB8 JUMP JUMPDEST PUSH1 0x40 MLOAD PUSH2 0x520 SWAP2 SWAP1 PUSH2 0x160F JUMP JUMPDEST PUSH1 0x40 MLOAD DUP1 SWAP2 SUB SWAP1 RETURN JUMPDEST PUSH2 0x543 PUSH1 0x4 DUP1 CALLDATASIZE SUB DUP2 ADD SWAP1 PUSH2 0x53E SWAP2 SWAP1 PUSH2 0x1888 JUMP JUMPDEST PUSH2 0xED1 JUMP JUMPDEST PUSH1 0x40 MLOAD PUSH2 0x550 SWAP2 SWAP1 PUSH2 0x160F JUMP JUMPDEST PUSH1 0x40 MLOAD DUP1 SWAP2 SUB SWAP1 RETURN JUMPDEST PUSH2 0x573 PUSH1 0x4 DUP1 CALLDATASIZE SUB DUP2 ADD SWAP1 PUSH2 0x56E SWAP2 SWAP1 PUSH2 0x1941 JUMP JUMPDEST PUSH2 0xEE2 JUMP JUMPDEST PUSH1 0x40 MLOAD PUSH2 0x580 SWAP2 SWAP1 PUSH2 0x160F JUMP JUMPDEST PUSH1 0x40 MLOAD DUP1 SWAP2 SUB SWAP1 RETURN JUMPDEST PUSH2 0x5A3 PUSH1 0x4 DUP1 CALLDATASIZE SUB DUP2 ADD SWAP1 PUSH2 0x59E SWAP2 SWAP1 PUSH2 0x16E6 JUMP JUMPDEST PUSH2 0xF64 JUMP JUMPDEST PUSH1 0x40 MLOAD PUSH2 0x5B0 SWAP2 SWAP1 PUSH2 0x160F JUMP JUMPDEST PUSH1 0x40 MLOAD DUP1 SWAP2 SUB SWAP1 RETURN JUMPDEST PUSH0 PUSH32 0x0 PUSH20 0xFFFFFFFFFFFFFFFFFFFFFFFFFFFFFFFFFFFFFFFF AND PUSH4 0x70A08231 ADDRESS PUSH1 0x40 MLOAD DUP3 PUSH4 0xFFFFFFFF AND PUSH1 0xE0 SHL DUP2 MSTORE PUSH1 0x4 ADD PUSH2 0x613 SWAP2 SWAP1 PUSH2 0x186F JUMP JUMPDEST PUSH1 0x20 PUSH1 0x40 MLOAD DUP1 DUP4 SUB DUP2 DUP7 GAS STATICCALL ISZERO DUP1 ISZERO PUSH2 0x62E JUMPI RETURNDATASIZE PUSH0 PUSH0 RETURNDATACOPY RETURNDATASIZE PUSH0 REVERT JUMPDEST POP POP POP POP PUSH1 0x40 MLOAD RETURNDATASIZE PUSH1 0x1F NOT PUSH1 0x1F DUP3 ADD AND DUP3 ADD DUP1 PUSH1 0x40 MSTORE POP DUP2 ADD SWAP1 PUSH2 0x652 SWAP2 SWAP1 PUSH2 0x1993 JUMP JUMPDEST SWAP1 POP SWAP1 JUMP JUMPDEST PUSH1 0x60 PUSH1 0x3 DUP1 SLOAD PUSH2 0x666 SWAP1 PUSH2 0x19EB JUMP JUMPDEST DUP1 PUSH1 0x1F ADD PUSH1 0x20 DUP1 SWAP2 DIV MUL PUSH1 0x20 ADD PUSH1 0x40 MLOAD SWAP1 DUP2 ADD PUSH1 0x40 MSTORE DUP1 SWAP3 SWAP2 SWAP1 DUP2 DUP2 MSTORE PUSH1 0x20 ADD DUP3 DUP1 SLOAD PUSH2 0x692 SWAP1 PUSH2 0x19EB JUMP JUMPDEST DUP1 ISZERO PUSH2 0x6DD JUMPI DUP1 PUSH1 0x1F LT PUSH2 0x6B4 JUMPI PUSH2 0x100 DUP1 DUP4 SLOAD DIV MUL DUP4 MSTORE SWAP2 PUSH1 0x20 ADD SWAP2 PUSH2 0x6DD JUMP JUMPDEST DUP3 ADD SWAP2 SWAP1 PUSH0 MSTORE PUSH1 0x20 PUSH0 KECCAK256 SWAP1 JUMPDEST DUP2 SLOAD DUP2 MSTORE SWAP1 PUSH1 0x1 ADD SWAP1 PUSH1 0x20 ADD DUP1 DUP4 GT PUSH2 0x6C0 JUMPI DUP3 SWAP1 SUB PUSH1 0x1F AND DUP3 ADD SWAP2 JUMPDEST POP POP POP POP POP SWAP1 POP SWAP1 JUMP JUMPDEST PUSH0 PUSH0 PUSH2 0x6F1 PUSH2 0x75A JUMP JUMPDEST SWAP1 POP PUSH0 DUP2 EQ PUSH2 0x71D JUMPI DUP1 PUSH2 0x703 PUSH2 0x5B9 JUMP JUMPDEST DUP5 PUSH2 0x70E SWAP2 SWAP1 PUSH2 0x1A48 JUMP JUMPDEST PUSH2 0x718 SWAP2 SWAP1 PUSH2 0x1AB6 JUMP JUMPDEST PUSH2 0x71F JUMP JUMPDEST DUP3 JUMPDEST SWAP2 POP POP SWAP2 SWAP1 POP JUMP JUMPDEST PUSH0 PUSH0 PUSH2 0x731 PUSH2 0xF75 JUMP JUMPDEST SWAP1 POP PUSH2 0x73E DUP2 DUP6 DUP6 PUSH2 0xF7C JUMP JUMPDEST PUSH1 0x1 SWAP2 POP POP SWAP3 SWAP2 POP POP JUMP JUMPDEST PUSH0 PUSH2 0x753 DUP3 PUSH2 0xE78 JUMP JUMPDEST SWAP1 POP SWAP2 SWAP1 POP JUMP JUMPDEST PUSH0 PUSH1 0x2 SLOAD SWAP1 POP SWAP1 JUMP JUMPDEST PUSH0 PUSH0 PUSH2 0x76D PUSH2 0xF75 JUMP JUMPDEST SWAP1 POP PUSH2 0x77A DUP6 DUP3 DUP6 PUSH2 0xF8E JUMP JUMPDEST PUSH2 0x785 DUP6 DUP6 DUP6 PUSH2 0x1021 JUMP JUMPDEST PUSH1 0x1 SWAP2 POP POP SWAP4 SWAP3 POP POP POP JUMP JUMPDEST PUSH0 PUSH32 0x0 SWAP1 POP SWAP1 JUMP JUMPDEST PUSH0 PUSH32 0x0 SWAP1 POP SWAP1 JUMP JUMPDEST PUSH0 PUSH32 0xFFFFFFFFFFFFFFFFFFFFFFFFFFFFFFFFFFFFFFFFFFFFFFFFFFFFFFFFFFFFFFFF SWAP1 POP SWAP2 SWAP1 POP JUMP JUMPDEST PUSH0 PUSH2 0x812 DUP3 PUSH2 0x6E7 JUMP JUMPDEST SWAP1 POP SWAP2 SWAP1 POP JUMP JUMPDEST PUSH0 PUSH2 0x823 DUP4 PUSH2 0xF64 JUMP JUMPDEST SWAP1 POP PUSH32 0x0 PUSH20 0xFFFFFFFFFFFFFFFFFFFFFFFFFFFFFFFFFFFFFFFF AND PUSH4 0x23B872DD CALLER ADDRESS DUP7 PUSH1 0x40 MLOAD DUP5 PUSH4 0xFFFFFFFF AND PUSH1 0xE0 SHL DUP2 MSTORE PUSH1 0x4 ADD PUSH2 0x882 SWAP4 SWAP3 SWAP2 SWAP1 PUSH2 0x1AE6 JUMP JUMPDEST PUSH1 0x20 PUSH1 0x40 MLOAD DUP1 DUP4 SUB DUP2 PUSH0 DUP8 GAS CALL ISZERO DUP1 ISZERO PUSH2 0x89E JUMPI RETURNDATASIZE PUSH0 PUSH0 RETURNDATACOPY RETURNDATASIZE PUSH0 REVERT JUMPDEST POP POP POP POP PUSH1 0x40 MLOAD RETURNDATASIZE PUSH1 0x1F NOT PUSH1 0x1F DUP3 ADD AND DUP3 ADD DUP1 PUSH1 0x40 MSTORE POP DUP2 ADD SWAP1 PUSH2 0x8C2 SWAP2 SWAP1 PUSH2 0x1B45 JUMP JUMPDEST POP PUSH2 0x8CD DUP3 DUP3 PUSH2 0x1111 JUMP JUMPDEST DUP2 PUSH20 0xFFFFFFFFFFFFFFFFFFFFFFFFFFFFFFFFFFFFFFFF AND CALLER PUSH20 0xFFFFFFFFFFFFFFFFFFFFFFFFFFFFFFFFFFFFFFFF AND PUSH32 0xDCBC1C05240F31FF3AD067EF1EE35CE4997762752E3A095284754544F4C709D7 DUP6 DUP5 PUSH1 0x40 MLOAD PUSH2 0x92C SWAP3 SWAP2 SWAP1 PUSH2 0x1B70 JUMP JUMPDEST PUSH1 0x40 MLOAD DUP1 SWAP2 SUB SWAP1 LOG3 SWAP3 SWAP2 POP POP JUMP JUMPDEST PUSH0 PUSH0 PUSH0 DUP4 PUSH20 0xFFFFFFFFFFFFFFFFFFFFFFFFFFFFFFFFFFFFFFFF AND PUSH20 0xFFFFFFFFFFFFFFFFFFFFFFFFFFFFFFFFFFFFFFFF AND DUP2 MSTORE PUSH1 0x20 ADD SWAP1 DUP2 MSTORE PUSH1 0x20 ADD PUSH0 KECCAK256 SLOAD SWAP1 POP SWAP2 SWAP1 POP JUMP JUMPDEST PUSH0 PUSH2 0x989 DUP4 PUSH2 0xB52 JUMP JUMPDEST SWAP1 POP PUSH32 0x0 PUSH20 0xFFFFFFFFFFFFFFFFFFFFFFFFFFFFFFFFFFFFFFFF AND PUSH4 0x23B872DD CALLER ADDRESS DUP5 PUSH1 0x40 MLOAD DUP5 PUSH4 0xFFFFFFFF AND PUSH1 0xE0 SHL DUP2 MSTORE PUSH1 0x4 ADD PUSH2 0x9E8 SWAP4 SWAP3 SWAP2 SWAP1 PUSH2 0x1AE6 JUMP JUMPDEST PUSH1 0x20 PUSH1 0x40 MLOAD DUP1 DUP4 SUB DUP2 PUSH0 DUP8 GAS CALL ISZERO DUP1 ISZERO PUSH2 0xA04 JUMPI RETURNDATASIZE PUSH0 PUSH0 RETURNDATACOPY RETURNDATASIZE PUSH0 REVERT JUMPDEST POP POP POP POP PUSH1 0x40 MLOAD RETURNDATASIZE PUSH1 0x1F NOT PUSH1 0x1F DUP3 ADD AND DUP3 ADD DUP1 PUSH1 0x40 MSTORE POP DUP2 ADD SWAP1 PUSH2 0xA28 SWAP2 SWAP1 PUSH2 0x1B45 JUMP JUMPDEST POP PUSH2 0xA33 DUP3 DUP5 PUSH2 0x1111 JUMP JUMPDEST DUP2 PUSH20 0xFFFFFFFFFFFFFFFFFFFFFFFFFFFFFFFFFFFFFFFF AND CALLER PUSH20 0xFFFFFFFFFFFFFFFFFFFFFFFFFFFFFFFFFFFFFFFF AND PUSH32 0xDCBC1C05240F31FF3AD067EF1EE35CE4997762752E3A095284754544F4C709D7 DUP4 DUP7 PUSH1 0x40 MLOAD PUSH2 0xA92 SWAP3 SWAP2 SWAP1 PUSH2 0x1B70 JUMP JUMPDEST PUSH1 0x40 MLOAD DUP1 SWAP2 SUB SWAP1 LOG3 SWAP3 SWAP2 POP POP JUMP JUMPDEST PUSH1 0x60 PUSH1 0x4 DUP1 SLOAD PUSH2 0xAAF SWAP1 PUSH2 0x19EB JUMP JUMPDEST DUP1 PUSH1 0x1F ADD PUSH1 0x20 DUP1 SWAP2 DIV MUL PUSH1 0x20 ADD PUSH1 0x40 MLOAD SWAP1 DUP2 ADD PUSH1 0x40 MSTORE DUP1 SWAP3 SWAP2 SWAP1 DUP2 DUP2 MSTORE PUSH1 0x20 ADD DUP3 DUP1 SLOAD PUSH2 0xADB SWAP1 PUSH2 0x19EB JUMP JUMPDEST DUP1 ISZERO PUSH2 0xB26 JUMPI DUP1 PUSH1 0x1F LT PUSH2 0xAFD JUMPI PUSH2 0x100 DUP1 DUP4 SLOAD DIV MUL DUP4 MSTORE SWAP2 PUSH1 0x20 ADD SWAP2 PUSH2 0xB26 JUMP JUMPDEST DUP3 ADD SWAP2 SWAP1 PUSH0 MSTORE PUSH1 0x20 PUSH0 KECCAK256 SWAP1 JUMPDEST DUP2 SLOAD DUP2 MSTORE SWAP1 PUSH1 0x1 ADD SWAP1 PUSH1 0x20 ADD DUP1 DUP4 GT PUSH2 0xB09 JUMPI DUP3 SWAP1 SUB PUSH1 0x1F AND DUP3 ADD SWAP2 JUMPDEST POP POP POP POP POP SWAP1 POP SWAP1 JUMP JUMPDEST PUSH0 PUSH0 PUSH2 0xB3A PUSH2 0xF75 JUMP JUMPDEST SWAP1 POP PUSH2 0xB47 DUP2 DUP6 DUP6 PUSH2 0x1021 JUMP JUMPDEST PUSH1 0x1 SWAP2 POP POP SWAP3 SWAP2 POP POP JUMP JUMPDEST PUSH0 PUSH2 0xB5C DUP3 PUSH2 0x6E7 JUMP JUMPDEST SWAP1 POP SWAP2 SWAP1 POP JUMP JUMPDEST PUSH0 PUSH2 0xB6D DUP5 PUSH2 0x749 JUMP JUMPDEST SWAP1 POP DUP2 PUSH20 0xFFFFFFFFFFFFFFFFFFFFFFFFFFFFFFFFFFFFFFFF AND CALLER PUSH20 0xFFFFFFFFFFFFFFFFFFFFFFFFFFFFFFFFFFFFFFFF AND EQ PUSH2 0xBAE JUMPI PUSH2 0xBAD DUP3 CALLER DUP4 PUSH2 0xF8E JUMP JUMPDEST JUMPDEST PUSH2 0xBB8 DUP3 DUP3 PUSH2 0x1190 JUMP JUMPDEST PUSH32 0x0 PUSH20 0xFFFFFFFFFFFFFFFFFFFFFFFFFFFFFFFFFFFFFFFF AND PUSH4 0xA9059CBB DUP5 DUP7 PUSH1 0x40 MLOAD DUP4 PUSH4 0xFFFFFFFF AND PUSH1 0xE0 SHL DUP2 MSTORE PUSH1 0x4 ADD PUSH2 0xC13 SWAP3 SWAP2 SWAP1 PUSH2 0x1B97 JUMP JUMPDEST PUSH1 0x20 PUSH1 0x40 MLOAD DUP1 DUP4 SUB DUP2 PUSH0 DUP8 GAS CALL ISZERO DUP1 ISZERO PUSH2 0xC2F JUMPI RETURNDATASIZE PUSH0 PUSH0 RETURNDATACOPY RETURNDATASIZE PUSH0 REVERT JUMPDEST POP POP POP POP PUSH1 0x40 MLOAD RETURNDATASIZE PUSH1 0x1F NOT PUSH1 0x1F DUP3 ADD AND DUP3 ADD DUP1 PUSH1 0x40 MSTORE POP DUP2 ADD SWAP1 PUSH2 0xC53 SWAP2 SWAP1 PUSH2 0x1B45 JUMP JUMPDEST POP DUP2 PUSH20 0xFFFFFFFFFFFFFFFFFFFFFFFFFFFFFFFFFFFFFFFF AND DUP4 PUSH20 0xFFFFFFFFFFFFFFFFFFFFFFFFFFFFFFFFFFFFFFFF AND CALLER PUSH20 0xFFFFFFFFFFFFFFFFFFFFFFFFFFFFFFFFFFFFFFFF AND PUSH32 0xFBDE797D201C681B91056529119E0B02407C7BB96A4A2C75C01FC9667232C8DB DUP8 DUP6 PUSH1 0x40 MLOAD PUSH2 0xCCA SWAP3 SWAP2 SWAP1 PUSH2 0x1B70 JUMP JUMPDEST PUSH1 0x40 MLOAD DUP1 SWAP2 SUB SWAP1 LOG4 SWAP4 SWAP3 POP POP POP JUMP JUMPDEST PUSH0 PUSH2 0xCE3 DUP5 PUSH2 0x808 JUMP JUMPDEST SWAP1 POP DUP2 PUSH20 0xFFFFFFFFFFFFFFFFFFFFFFFFFFFFFFFFFFFFFFFF AND CALLER PUSH20 0xFFFFFFFFFFFFFFFFFFFFFFFFFFFFFFFFFFFFFFFF AND EQ PUSH2 0xD24 JUMPI PUSH2 0xD23 DUP3 CALLER DUP7 PUSH2 0xF8E JUMP JUMPDEST JUMPDEST PUSH2 0xD2E DUP3 DUP6 PUSH2 0x1190 JUMP JUMPDEST PUSH32 0x0 PUSH20 0xFFFFFFFFFFFFFFFFFFFFFFFFFFFFFFFFFFFFFFFF AND PUSH4 0xA9059CBB DUP5 DUP4 PUSH1 0x40 MLOAD DUP4 PUSH4 0xFFFFFFFF AND PUSH1 0xE0 SHL DUP2 MSTORE PUSH1 0x4 ADD PUSH2 0xD89 SWAP3 SWAP2 SWAP1 PUSH2 0x1B97 JUMP JUMPDEST PUSH1 0x20 PUSH1 0x40 MLOAD DUP1 DUP4 SUB DUP2 PUSH0 DUP8 GAS CALL ISZERO DUP1 ISZERO PUSH2 0xDA5 JUMPI RETURNDATASIZE PUSH0 PUSH0 RETURNDATACOPY RETURNDATASIZE PUSH0 REVERT JUMPDEST POP POP POP POP PUSH1 0x40 MLOAD RETURNDATASIZE PUSH1 0x1F NOT PUSH1 0x1F DUP3 ADD AND DUP3 ADD DUP1 PUSH1 0x40 MSTORE POP DUP2 ADD SWAP1 PUSH2 0xDC9 SWAP2 SWAP1 PUSH2 0x1B45 JUMP JUMPDEST POP DUP2 PUSH20 0xFFFFFFFFFFFFFFFFFFFFFFFFFFFFFFFFFFFFFFFF AND DUP4 PUSH20 0xFFFFFFFFFFFFFFFFFFFFFFFFFFFFFFFFFFFFFFFF AND CALLER PUSH20 0xFFFFFFFFFFFFFFFFFFFFFFFFFFFFFFFFFFFFFFFF AND PUSH32 0xFBDE797D201C681B91056529119E0B02407C7BB96A4A2C75C01FC9667232C8DB DUP5 DUP9 PUSH1 0x40 MLOAD PUSH2 0xE40 SWAP3 SWAP2 SWAP1 PUSH2 0x1B70 JUMP JUMPDEST PUSH1 0x40 MLOAD DUP1 SWAP2 SUB SWAP1 LOG4 SWAP4 SWAP3 POP POP POP JUMP JUMPDEST PUSH0 PUSH32 0xFFFFFFFFFFFFFFFFFFFFFFFFFFFFFFFFFFFFFFFFFFFFFFFFFFFFFFFFFFFFFFFF SWAP1 POP SWAP2 SWAP1 POP JUMP JUMPDEST PUSH0 PUSH0 PUSH2 0xE82 PUSH2 0x75A JUMP JUMPDEST SWAP1 POP PUSH0 DUP2 EQ PUSH2 0xEAE JUMPI PUSH2 0xE93 PUSH2 0x5B9 JUMP JUMPDEST DUP2 DUP5 PUSH2 0xE9F SWAP2 SWAP1 PUSH2 0x1A48 JUMP JUMPDEST PUSH2 0xEA9 SWAP2 SWAP1 PUSH2 0x1AB6 JUMP JUMPDEST PUSH2 0xEB0 JUMP JUMPDEST DUP3 JUMPDEST SWAP2 POP POP SWAP2 SWAP1 POP JUMP JUMPDEST PUSH0 PUSH2 0xECA PUSH2 0xEC5 DUP4 PUSH2 0x93A JUMP JUMPDEST PUSH2 0x6E7 JUMP JUMPDEST SWAP1 POP SWAP2 SWAP1 POP JUMP JUMPDEST PUSH0 PUSH2 0xEDB DUP3 PUSH2 0x93A JUMP JUMPDEST SWAP1 POP SWAP2 SWAP1 POP JUMP JUMPDEST PUSH0 PUSH1 0x1 PUSH0 DUP5 PUSH20 0xFFFFFFFFFFFFFFFFFFFFFFFFFFFFFFFFFFFFFFFF AND PUSH20 0xFFFFFFFFFFFFFFFFFFFFFFFFFFFFFFFFFFFFFFFF AND DUP2 MSTORE PUSH1 0x20 ADD SWAP1 DUP2 MSTORE PUSH1 0x20 ADD PUSH0 KECCAK256 PUSH0 DUP4 PUSH20 0xFFFFFFFFFFFFFFFFFFFFFFFFFFFFFFFFFFFFFFFF AND PUSH20 0xFFFFFFFFFFFFFFFFFFFFFFFFFFFFFFFFFFFFFFFF AND DUP2 MSTORE PUSH1 0x20 ADD SWAP1 DUP2 MSTORE PUSH1 0x20 ADD PUSH0 KECCAK256 SLOAD SWAP1 POP SWAP3 SWAP2 POP POP JUMP JUMPDEST PUSH0 PUSH2 0xF6E DUP3 PUSH2 0xE78 JUMP JUMPDEST SWAP1 POP SWAP2 SWAP1 POP JUMP JUMPDEST PUSH0 CALLER SWAP1 POP SWAP1 JUMP JUMPDEST PUSH2 0xF89 DUP4 DUP4 DUP4 PUSH1 0x1 PUSH2 0x120F JUMP JUMPDEST POP POP POP JUMP JUMPDEST PUSH0 PUSH2 0xF99 DUP5 DUP5 PUSH2 0xEE2 JUMP JUMPDEST SWAP1 POP PUSH32 0xFFFFFFFFFFFFFFFFFFFFFFFFFFFFFFFFFFFFFFFFFFFFFFFFFFFFFFFFFFFFFFFF DUP2 LT ISZERO PUSH2 0x101B JUMPI DUP2 DUP2 LT ISZERO PUSH2 0x100C JUMPI DUP3 DUP2 DUP4 PUSH1 0x40 MLOAD PUSH32 0xFB8F41B200000000000000000000000000000000000000000000000000000000 DUP2 MSTORE PUSH1 0x4 ADD PUSH2 0x1003 SWAP4 SWAP3 SWAP2 SWAP1 PUSH2 0x1BBE JUMP JUMPDEST PUSH1 0x40 MLOAD DUP1 SWAP2 SUB SWAP1 REVERT JUMPDEST PUSH2 0x101A DUP5 DUP5 DUP5 DUP5 SUB PUSH0 PUSH2 0x120F JUMP JUMPDEST JUMPDEST POP POP POP POP JUMP JUMPDEST PUSH0 PUSH20 0xFFFFFFFFFFFFFFFFFFFFFFFFFFFFFFFFFFFFFFFF AND DUP4 PUSH20 0xFFFFFFFFFFFFFFFFFFFFFFFFFFFFFFFFFFFFFFFF AND SUB PUSH2 0x1091 JUMPI PUSH0 PUSH1 0x40 MLOAD PUSH32 0x96C6FD1E00000000000000000000000000000000000000000000000000000000 DUP2 MSTORE PUSH1 0x4 ADD PUSH2 0x1088 SWAP2 SWAP1 PUSH2 0x186F JUMP JUMPDEST PUSH1 0x40 MLOAD DUP1 SWAP2 SUB SWAP1 REVERT JUMPDEST PUSH0 PUSH20 0xFFFFFFFFFFFFFFFFFFFFFFFFFFFFFFFFFFFFFFFF AND DUP3 PUSH20 0xFFFFFFFFFFFFFFFFFFFFFFFFFFFFFFFFFFFFFFFF AND SUB PUSH2 0x1101 JUMPI PUSH0 PUSH1 0x40 MLOAD PUSH32 0xEC442F0500000000000000000000000000000000000000000000000000000000 DUP2 MSTORE PUSH1 0x4 ADD PUSH2 0x10F8 SWAP2 SWAP1 PUSH2 0x186F JUMP JUMPDEST PUSH1 0x40 MLOAD DUP1 SWAP2 SUB SWAP1 REVERT JUMPDEST PUSH2 0x110C DUP4 DUP4 DUP4 PUSH2 0x13DE JUMP JUMPDEST POP POP POP JUMP JUMPDEST PUSH0 PUSH20 0xFFFFFFFFFFFFFFFFFFFFFFFFFFFFFFFFFFFFFFFF AND DUP3 PUSH20 0xFFFFFFFFFFFFFFFFFFFFFFFFFFFFFFFFFFFFFFFF AND SUB PUSH2 0x1181 JUMPI PUSH0 PUSH1 0x40 MLOAD PUSH32 0xEC442F0500000000000000000000000000000000000000000000000000000000 DUP2 MSTORE PUSH1 0x4 ADD PUSH2 0x1178 SWAP2 SWAP1 PUSH2 0x186F JUMP JUMPDEST PUSH1 0x40 MLOAD DUP1 SWAP2 SUB SWAP1 REVERT JUMPDEST PUSH2 0x118C PUSH0 DUP4 DUP4 PUSH2 0x13DE JUMP JUMPDEST POP POP JUMP JUMPDEST PUSH0 PUSH20 0xFFFFFFFFFFFFFFFFFFFFFFFFFFFFFFFFFFFFFFFF AND DUP3 PUSH20 0xFFFFFFFFFFFFFFFFFFFFFFFFFFFFFFFFFFFFFFFF AND SUB PUSH2 0x1200 JUMPI PUSH0 PUSH1 0x40 MLOAD PUSH32 0x96C6FD1E00000000000000000000000000000000000000000000000000000000 DUP2 MSTORE PUSH1 0x4 ADD PUSH2 0x11F7 SWAP2 SWAP1 PUSH2 0x186F JUMP JUMPDEST PUSH1 0x40 MLOAD DUP1 SWAP2 SUB SWAP1 REVERT JUMPDEST PUSH2 0x120B DUP3 PUSH0 DUP4 PUSH2 0x13DE JUMP JUMPDEST POP POP JUMP JUMPDEST PUSH0 PUSH20 0xFFFFFFFFFFFFFFFFFFFFFFFFFFFFFFFFFFFFFFFF AND DUP5 PUSH20 0xFFFFFFFFFFFFFFFFFFFFFFFFFFFFFFFFFFFFFFFF AND SUB PUSH2 0x127F JUMPI PUSH0 PUSH1 0x40 MLOAD PUSH32 0xE602DF0500000000000000000000000000000000000000000000000000000000 DUP2 MSTORE PUSH1 0x4 ADD PUSH2 0x1276 SWAP2 SWAP1 PUSH2 0x186F JUMP JUMPDEST PUSH1 0x40 MLOAD DUP1 SWAP2 SUB SWAP1 REVERT JUMPDEST PUSH0 PUSH20 0xFFFFFFFFFFFFFFFFFFFFFFFFFFFFFFFFFFFFFFFF AND DUP4 PUSH20 0xFFFFFFFFFFFFFFFFFFFFFFFFFFFFFFFFFFFFFFFF AND SUB PUSH2 0x12EF JUMPI PUSH0 PUSH1 0x40 MLOAD PUSH32 0x94280D6200000000000000000000000000000000000000000000000000000000 DUP2 MSTORE PUSH1 0x4 ADD PUSH2 0x12E6 SWAP2 SWAP1 PUSH2 0x186F JUMP JUMPDEST PUSH1 0x40 MLOAD DUP1 SWAP2 SUB SWAP1 REVERT JUMPDEST DUP2 PUSH1 0x1 PUSH0 DUP7 PUSH20 0xFFFFFFFFFFFFFFFFFFFFFFFFFFFFFFFFFFFFFFFF AND PUSH20 0xFFFFFFFFFFFFFFFFFFFFFFFFFFFFFFFFFFFFFFFF AND DUP2 MSTORE PUSH1 0x20 ADD SWAP1 DUP2 MSTORE PUSH1 0x20 ADD PUSH0 KECCAK256 PUSH0 DUP6 PUSH20 0xFFFFFFFFFFFFFFFFFFFFFFFFFFFFFFFFFFFFFFFF AND PUSH20 0xFFFFFFFFFFFFFFFFFFFFFFFFFFFFFFFFFFFFFFFF AND DUP2 MSTORE PUSH1 0x20 ADD SWAP1 DUP2 MSTORE PUSH1 0x20 ADD PUSH0 KECCAK256 DUP2 SWAP1 SSTORE POP DUP1 ISZERO PUSH2 0x13D8 JUMPI DUP3 PUSH20 0xFFFFFFFFFFFFFFFFFFFFFFFFFFFFFFFFFFFFFFFF AND DUP5 PUSH20 0xFFFFFFFFFFFFFFFFFFFFFFFFFFFFFFFFFFFFFFFF AND PUSH32 0x8C5BE1E5EBEC7D5BD14F71427D1E84F3DD0314C0F7B2291E5B200AC8C7C3B925 DUP5 PUSH1 0x40 MLOAD PUSH2 0x13CF SWAP2 SWAP1 PUSH2 0x160F JUMP JUMPDEST PUSH1 0x40 MLOAD DUP1 SWAP2 SUB SWAP1 LOG3 JUMPDEST POP POP POP POP JUMP JUMPDEST PUSH0 PUSH20 0xFFFFFFFFFFFFFFFFFFFFFFFFFFFFFFFFFFFFFFFF AND DUP4 PUSH20 0xFFFFFFFFFFFFFFFFFFFFFFFFFFFFFFFFFFFFFFFF AND SUB PUSH2 0x142E JUMPI DUP1 PUSH1 0x2 PUSH0 DUP3 DUP3 SLOAD PUSH2 0x1422 SWAP2 SWAP1 PUSH2 0x1BF3 JUMP JUMPDEST SWAP3 POP POP DUP2 SWAP1 SSTORE POP PUSH2 0x14FC JUMP JUMPDEST PUSH0 PUSH0 PUSH0 DUP6 PUSH20 0xFFFFFFFFFFFFFFFFFFFFFFFFFFFFFFFFFFFFFFFF AND PUSH20 0xFFFFFFFFFFFFFFFFFFFFFFFFFFFFFFFFFFFFFFFF AND DUP2 MSTORE PUSH1 0x20 ADD SWAP1 DUP2 MSTORE PUSH1 0x20 ADD PUSH0 KECCAK256 SLOAD SWAP1 POP DUP2 DUP2 LT ISZERO PUSH2 0x14B7 JUMPI DUP4 DUP2 DUP4 PUSH1 0x40 MLOAD PUSH32 0xE450D38C00000000000000000000000000000000000000000000000000000000 DUP2 MSTORE PUSH1 0x4 ADD PUSH2 0x14AE SWAP4 SWAP3 SWAP2 SWAP1 PUSH2 0x1BBE JUMP JUMPDEST PUSH1 0x40 MLOAD DUP1 SWAP2 SUB SWAP1 REVERT JUMPDEST DUP2 DUP2 SUB PUSH0 PUSH0 DUP7 PUSH20 0xFFFFFFFFFFFFFFFFFFFFFFFFFFFFFFFFFFFFFFFF AND PUSH20 0xFFFFFFFFFFFFFFFFFFFFFFFFFFFFFFFFFFFFFFFF AND DUP2 MSTORE PUSH1 0x20 ADD SWAP1 DUP2 MSTORE PUSH1 0x20 ADD PUSH0 KECCAK256 DUP2 SWAP1 SSTORE POP POP JUMPDEST PUSH0 PUSH20 0xFFFFFFFFFFFFFFFFFFFFFFFFFFFFFFFFFFFFFFFF AND DUP3 PUSH20 0xFFFFFFFFFFFFFFFFFFFFFFFFFFFFFFFFFFFFFFFF AND SUB PUSH2 0x1543 JUMPI DUP1 PUSH1 0x2 PUSH0 DUP3 DUP3 SLOAD SUB SWAP3 POP POP DUP2 SWAP1 SSTORE POP PUSH2 0x158D JUMP JUMPDEST DUP1 PUSH0 PUSH0 DUP5 PUSH20 0xFFFFFFFFFFFFFFFFFFFFFFFFFFFFFFFFFFFFFFFF AND PUSH20 0xFFFFFFFFFFFFFFFFFFFFFFFFFFFFFFFFFFFFFFFF AND DUP2 MSTORE PUSH1 0x20 ADD SWAP1 DUP2 MSTORE PUSH1 0x20 ADD PUSH0 KECCAK256 PUSH0 DUP3 DUP3 SLOAD ADD SWAP3 POP POP DUP2 SWAP1 SSTORE POP JUMPDEST DUP2 PUSH20 0xFFFFFFFFFFFFFFFFFFFFFFFFFFFFFFFFFFFFFFFF AND DUP4 PUSH20 0xFFFFFFFFFFFFFFFFFFFFFFFFFFFFFFFFFFFFFFFF AND PUSH32 0xDDF252AD1BE2C89B69C2B068FC378DAA952BA7F163C4A11628F55A4DF523B3EF DUP4 PUSH1 0x40 MLOAD PUSH2 0x15EA SWAP2 SWAP1 PUSH2 0x160F JUMP JUMPDEST PUSH1 0x40 MLOAD DUP1 SWAP2 SUB SWAP1 LOG3 POP POP POP JUMP JUMPDEST PUSH0 DUP2 SWAP1 POP SWAP2 SWAP1 POP JUMP JUMPDEST PUSH2 0x1609 DUP2 PUSH2 0x15F7 JUMP JUMPDEST DUP3 MSTORE POP POP JUMP JUMPDEST PUSH0 PUSH1 0x20 DUP3 ADD SWAP1 POP PUSH2 0x1622 PUSH0 DUP4 ADD DUP5 PUSH2 0x1600 JUMP JUMPDEST SWAP3 SWAP2 POP POP JUMP JUMPDEST PUSH0 DUP2 MLOAD SWAP1 POP SWAP2 SWAP1 POP JUMP JUMPDEST PUSH0 DUP3 DUP3 MSTORE PUSH1 0x20 DUP3 ADD SWAP1 POP SWAP3 SWAP2 POP POP JUMP JUMPDEST DUP3 DUP2 DUP4 MCOPY PUSH0 DUP4 DUP4 ADD MSTORE POP POP POP JUMP JUMPDEST PUSH0 PUSH1 0x1F NOT PUSH1 0x1F DUP4 ADD AND SWAP1 POP SWAP2 SWAP1 POP JUMP JUMPDEST PUSH0 PUSH2 0x166A DUP3 PUSH2 0x1628 JUMP JUMPDEST PUSH2 0x1674 DUP2 DUP6 PUSH2 0x1632 JUMP JUMPDEST SWAP4 POP PUSH2 0x1684 DUP2 DUP6 PUSH1 0x20 DUP7 ADD PUSH2 0x1642 JUMP JUMPDEST PUSH2 0x168D DUP2 PUSH2 0x1650 JUMP JUMPDEST DUP5 ADD SWAP2 POP POP SWAP3 SWAP2 POP POP JUMP JUMPDEST PUSH0 PUSH1 0x20 DUP3 ADD SWAP1 POP DUP2 DUP2 SUB PUSH0 DUP4 ADD MSTORE PUSH2 0x16B0 DUP2 DUP5 PUSH2 0x1660 JUMP JUMPDEST SWAP1 POP SWAP3 SWAP2 POP POP JUMP JUMPDEST PUSH0 PUSH0 REVERT JUMPDEST PUSH2 0x16C5 DUP2 PUSH2 0x15F7 JUMP JUMPDEST DUP2 EQ PUSH2 0x16CF JUMPI PUSH0 PUSH0 REVERT JUMPDEST POP JUMP JUMPDEST PUSH0 DUP2 CALLDATALOAD SWAP1 POP PUSH2 0x16E0 DUP2 PUSH2 0x16BC JUMP JUMPDEST SWAP3 SWAP2 POP POP JUMP JUMPDEST PUSH0 PUSH1 0x20 DUP3 DUP5 SUB SLT ISZERO PUSH2 0x16FB JUMPI PUSH2 0x16FA PUSH2 0x16B8 JUMP JUMPDEST JUMPDEST PUSH0 PUSH2 0x1708 DUP5 DUP3 DUP6 ADD PUSH2 0x16D2 JUMP JUMPDEST SWAP2 POP POP SWAP3 SWAP2 POP POP JUMP JUMPDEST PUSH0 PUSH20 0xFFFFFFFFFFFFFFFFFFFFFFFFFFFFFFFFFFFFFFFF DUP3 AND SWAP1 POP SWAP2 SWAP1 POP JUMP JUMPDEST PUSH0 PUSH2 0x173A DUP3 PUSH2 0x1711 JUMP JUMPDEST SWAP1 POP SWAP2 SWAP1 POP JUMP JUMPDEST PUSH2 0x174A DUP2 PUSH2 0x1730 JUMP JUMPDEST DUP2 EQ PUSH2 0x1754 JUMPI PUSH0 PUSH0 REVERT JUMPDEST POP JUMP JUMPDEST PUSH0 DUP2 CALLDATALOAD SWAP1 POP PUSH2 0x1765 DUP2 PUSH2 0x1741 JUMP JUMPDEST SWAP3 SWAP2 POP POP JUMP JUMPDEST PUSH0 PUSH0 PUSH1 0x40 DUP4 DUP6 SUB SLT ISZERO PUSH2 0x1781 JUMPI PUSH2 0x1780 PUSH2 0x16B8 JUMP JUMPDEST JUMPDEST PUSH0 PUSH2 0x178E DUP6 DUP3 DUP7 ADD PUSH2 0x1757 JUMP JUMPDEST SWAP3 POP POP PUSH1 0x20 PUSH2 0x179F DUP6 DUP3 DUP7 ADD PUSH2 0x16D2 JUMP JUMPDEST SWAP2 POP POP SWAP3 POP SWAP3 SWAP1 POP JUMP JUMPDEST PUSH0 DUP2 ISZERO ISZERO SWAP1 POP SWAP2 SWAP1 POP JUMP JUMPDEST PUSH2 0x17BD DUP2 PUSH2 0x17A9 JUMP JUMPDEST DUP3 MSTORE POP POP JUMP JUMPDEST PUSH0 PUSH1 0x20 DUP3 ADD SWAP1 POP PUSH2 0x17D6 PUSH0 DUP4 ADD DUP5 PUSH2 0x17B4 JUMP JUMPDEST SWAP3 SWAP2 POP POP JUMP JUMPDEST PUSH0 PUSH0 PUSH0 PUSH1 0x60 DUP5 DUP7 SUB SLT ISZERO PUSH2 0x17F3 JUMPI PUSH2 0x17F2 PUSH2 0x16B8 JUMP JUMPDEST JUMPDEST PUSH0 PUSH2 0x1800 DUP7 DUP3 DUP8 ADD PUSH2 0x1757 JUMP JUMPDEST SWAP4 POP POP PUSH1 0x20 PUSH2 0x1811 DUP7 DUP3 DUP8 ADD PUSH2 0x1757 JUMP JUMPDEST SWAP3 POP POP PUSH1 0x40 PUSH2 0x1822 DUP7 DUP3 DUP8 ADD PUSH2 0x16D2 JUMP JUMPDEST SWAP2 POP POP SWAP3 POP SWAP3 POP SWAP3 JUMP JUMPDEST PUSH0 PUSH1 0xFF DUP3 AND SWAP1 POP SWAP2 SWAP1 POP JUMP JUMPDEST PUSH2 0x1841 DUP2 PUSH2 0x182C JUMP JUMPDEST DUP3 MSTORE POP POP JUMP JUMPDEST PUSH0 PUSH1 0x20 DUP3 ADD SWAP1 POP PUSH2 0x185A PUSH0 DUP4 ADD DUP5 PUSH2 0x1838 JUMP JUMPDEST SWAP3 SWAP2 POP POP JUMP JUMPDEST PUSH2 0x1869 DUP2 PUSH2 0x1730 JUMP JUMPDEST DUP3 MSTORE POP POP JUMP JUMPDEST PUSH0 PUSH1 0x20 DUP3 ADD SWAP1 POP PUSH2 0x1882 PUSH0 DUP4 ADD DUP5 PUSH2 0x1860 JUMP JUMPDEST SWAP3 SWAP2 POP POP JUMP JUMPDEST PUSH0 PUSH1 0x20 DUP3 DUP5 SUB SLT ISZERO PUSH2 0x189D JUMPI PUSH2 0x189C PUSH2 0x16B8 JUMP JUMPDEST JUMPDEST PUSH0 PUSH2 0x18AA DUP5 DUP3 DUP6 ADD PUSH2 0x1757 JUMP JUMPDEST SWAP2 POP POP SWAP3 SWAP2 POP POP JUMP JUMPDEST PUSH0 PUSH0 PUSH1 0x40 DUP4 DUP6 SUB SLT ISZERO PUSH2 0x18C9 JUMPI PUSH2 0x18C8 PUSH2 0x16B8 JUMP JUMPDEST JUMPDEST PUSH0 PUSH2 0x18D6 DUP6 DUP3 DUP7 ADD PUSH2 0x16D2 JUMP JUMPDEST SWAP3 POP POP PUSH1 0x20 PUSH2 0x18E7 DUP6 DUP3 DUP7 ADD PUSH2 0x1757 JUMP JUMPDEST SWAP2 POP POP SWAP3 POP SWAP3 SWAP1 POP JUMP JUMPDEST PUSH0 PUSH0 PUSH0 PUSH1 0x60 DUP5 DUP7 SUB SLT ISZERO PUSH2 0x1908 JUMPI PUSH2 0x1907 PUSH2 0x16B8 JUMP JUMPDEST JUMPDEST PUSH0 PUSH2 0x1915 DUP7 DUP3 DUP8 ADD PUSH2 0x16D2 JUMP JUMPDEST SWAP4 POP POP PUSH1 0x20 PUSH2 0x1926 DUP7 DUP3 DUP8 ADD PUSH2 0x1757 JUMP JUMPDEST SWAP3 POP POP PUSH1 0x40 PUSH2 0x1937 DUP7 DUP3 DUP8 ADD PUSH2 0x1757 JUMP JUMPDEST SWAP2 POP POP SWAP3 POP SWAP3 POP SWAP3 JUMP JUMPDEST PUSH0 PUSH0 PUSH1 0x40 DUP4 DUP6 SUB SLT ISZERO PUSH2 0x1957 JUMPI PUSH2 0x1956 PUSH2 0x16B8 JUMP JUMPDEST JUMPDEST PUSH0 PUSH2 0x1964 DUP6 DUP3 DUP7 ADD PUSH2 0x1757 JUMP JUMPDEST SWAP3 POP POP PUSH1 0x20 PUSH2 0x1975 DUP6 DUP3 DUP7 ADD PUSH2 0x1757 JUMP JUMPDEST SWAP2 POP POP SWAP3 POP SWAP3 SWAP1 POP JUMP JUMPDEST PUSH0 DUP2 MLOAD SWAP1 POP PUSH2 0x198D DUP2 PUSH2 0x16BC JUMP JUMPDEST SWAP3 SWAP2 POP POP JUMP JUMPDEST PUSH0 PUSH1 0x20 DUP3 DUP5 SUB SLT ISZERO PUSH2 0x19A8 JUMPI PUSH2 0x19A7 PUSH2 0x16B8 JUMP JUMPDEST JUMPDEST PUSH0 PUSH2 0x19B5 DUP5 DUP3 DUP6 ADD PUSH2 0x197F JUMP JUMPDEST SWAP2 POP POP SWAP3 SWAP2 POP POP JUMP JUMPDEST PUSH32 0x4E487B7100000000000000000000000000000000000000000000000000000000 PUSH0 MSTORE PUSH1 0x22 PUSH1 0x4 MSTORE PUSH1 0x24 PUSH0 REVERT JUMPDEST PUSH0 PUSH1 0x2 DUP3 DIV SWAP1 POP PUSH1 0x1 DUP3 AND DUP1 PUSH2 0x1A02 JUMPI PUSH1 0x7F DUP3 AND SWAP2 POP JUMPDEST PUSH1 0x20 DUP3 LT DUP2 SUB PUSH2 0x1A15 JUMPI PUSH2 0x1A14 PUSH2 0x19BE JUMP JUMPDEST JUMPDEST POP SWAP2 SWAP1 POP JUMP JUMPDEST PUSH32 0x4E487B7100000000000000000000000000000000000000000000000000000000 PUSH0 MSTORE PUSH1 0x11 PUSH1 0x4 MSTORE PUSH1 0x24 PUSH0 REVERT JUMPDEST PUSH0 PUSH2 0x1A52 DUP3 PUSH2 0x15F7 JUMP JUMPDEST SWAP2 POP PUSH2 0x1A5D DUP4 PUSH2 0x15F7 JUMP JUMPDEST SWAP3 POP DUP3 DUP3 MUL PUSH2 0x1A6B DUP2 PUSH2 0x15F7 JUMP JUMPDEST SWAP2 POP DUP3 DUP3 DIV DUP5 EQ DUP4 ISZERO OR PUSH2 0x1A82 JUMPI PUSH2 0x1A81 PUSH2 0x1A1B JUMP JUMPDEST JUMPDEST POP SWAP3 SWAP2 POP POP JUMP JUMPDEST PUSH32 0x4E487B7100000000000000000000000000000000000000000000000000000000 PUSH0 MSTORE PUSH1 0x12 PUSH1 0x4 MSTORE PUSH1 0x24 PUSH0 REVERT JUMPDEST PUSH0 PUSH2 0x1AC0 DUP3 PUSH2 0x15F7 JUMP JUMPDEST SWAP2 POP PUSH2 0x1ACB DUP4 PUSH2 0x15F7 JUMP JUMPDEST SWAP3 POP DUP3 PUSH2 0x1ADB JUMPI PUSH2 0x1ADA PUSH2 0x1A89 JUMP JUMPDEST JUMPDEST DUP3 DUP3 DIV SWAP1 POP SWAP3 SWAP2 POP POP JUMP JUMPDEST PUSH0 PUSH1 0x60 DUP3 ADD SWAP1 POP PUSH2 0x1AF9 PUSH0 DUP4 ADD DUP7 PUSH2 0x1860 JUMP JUMPDEST PUSH2 0x1B06 PUSH1 0x20 DUP4 ADD DUP6 PUSH2 0x1860 JUMP JUMPDEST PUSH2 0x1B13 PUSH1 0x40 DUP4 ADD DUP5 PUSH2 0x1600 JUMP JUMPDEST SWAP5 SWAP4 POP POP POP POP JUMP JUMPDEST PUSH2 0x1B24 DUP2 PUSH2 0x17A9 JUMP JUMPDEST DUP2 EQ PUSH2 0x1B2E JUMPI PUSH0 PUSH0 REVERT JUMPDEST POP JUMP JUMPDEST PUSH0 DUP2 MLOAD SWAP1 POP PUSH2 0x1B3F DUP2 PUSH2 0x1B1B JUMP JUMPDEST SWAP3 SWAP2 POP POP JUMP JUMPDEST PUSH0 PUSH1 0x20 DUP3 DUP5 SUB SLT ISZERO PUSH2 0x1B5A JUMPI PUSH2 0x1B59 PUSH2 0x16B8 JUMP JUMPDEST JUMPDEST PUSH0 PUSH2 0x1B67 DUP5 DUP3 DUP6 ADD PUSH2 0x1B31 JUMP JUMPDEST SWAP2 POP POP SWAP3 SWAP2 POP POP JUMP JUMPDEST PUSH0 PUSH1 0x40 DUP3 ADD SWAP1 POP PUSH2 0x1B83 PUSH0 DUP4 ADD DUP6 PUSH2 0x1600 JUMP JUMPDEST PUSH2 0x1B90 PUSH1 0x20 DUP4 ADD DUP5 PUSH2 0x1600 JUMP JUMPDEST SWAP4 SWAP3 POP POP POP JUMP JUMPDEST PUSH0 PUSH1 0x40 DUP3 ADD SWAP1 POP PUSH2 0x1BAA PUSH0 DUP4 ADD DUP6 PUSH2 0x1860 JUMP JUMPDEST PUSH2 0x1BB7 PUSH1 0x20 DUP4 ADD DUP5 PUSH2 0x1600 JUMP JUMPDEST SWAP4 SWAP3 POP POP POP JUMP JUMPDEST PUSH0 PUSH1 0x60 DUP3 ADD SWAP1 POP PUSH2 0x1BD1 PUSH0 DUP4 ADD DUP7 PUSH2 0x1860 JUMP JUMPDEST PUSH2 0x1BDE PUSH1 0x20 DUP4 ADD DUP6 PUSH2 0x1600 JUMP JUMPDEST PUSH2 0x1BEB PUSH1 0x40 DUP4 ADD DUP5 PUSH2 0x1600 JUMP JUMPDEST SWAP5 SWAP4 POP POP POP POP JUMP JUMPDEST PUSH0 PUSH2 0x1BFD DUP3 PUSH2 0x15F7 JUMP JUMPDEST SWAP2 POP PUSH2 0x1C08 DUP4 PUSH2 0x15F7 JUMP JUMPDEST SWAP3 POP DUP3 DUP3 ADD SWAP1 POP DUP1 DUP3 GT ISZERO PUSH2 0x1C20 JUMPI PUSH2 0x1C1F PUSH2 0x1A1B JUMP JUMPDEST JUMPDEST SWAP3 SWAP2 POP POP JUMP INVALID LOG2 PUSH5 0x6970667358 0x22 SLT KECCAK256 0x1E GASLIMIT 0xBE 0xB9 0xB5 MSTORE8 0x25 EXTCODESIZE REVERT SWAP2 0xFC OR SUB LOG1 0x4F 0x26 ISZERO 0xBB 0xEB PUSH21 0x419C538A5E4D1794E4F567F364736F6C634300081E STOP CALLER "
				},
				"gasEstimates": {
					"creation": {
						"codeDepositCost": "1452000",
						"executionCost": "infinite",
						"totalCost": "infinite"
					},
					"external": {
						"allowance(address,address)": "infinite",
						"approve(address,uint256)": "infinite",
						"asset()": "infinite",
						"balanceOf(address)": "2851",
						"convertToAssets(uint256)": "infinite",
						"convertToShares(uint256)": "infinite",
						"decimals()": "infinite",
						"deposit(uint256,address)": "infinite",
						"maxDeposit(address)": "730",
						"maxMint(address)": "708",
						"maxRedeem(address)": "2936",
						"maxWithdraw(address)": "infinite",
						"mint(uint256,address)": "infinite",
						"name()": "infinite",
						"previewDeposit(uint256)": "infinite",
						"previewMint(uint256)": "infinite",
						"previewRedeem(uint256)": "infinite",
						"previewWithdraw(uint256)": "infinite",
						"redeem(uint256,address,address)": "infinite",
						"symbol()": "infinite",
						"totalAssets()": "infinite",
						"totalSupply()": "2566",
						"transfer(address,uint256)": "infinite",
						"transferFrom(address,address,uint256)": "infinite",
						"withdraw(uint256,address,address)": "infinite"
					}
				},
				"methodIdentifiers": {
					"allowance(address,address)": "dd62ed3e",
					"approve(address,uint256)": "095ea7b3",
					"asset()": "38d52e0f",
					"balanceOf(address)": "70a08231",
					"convertToAssets(uint256)": "07a2d13a",
					"convertToShares(uint256)": "c6e6f592",
					"decimals()": "313ce567",
					"deposit(uint256,address)": "6e553f65",
					"maxDeposit(address)": "402d267d",
					"maxMint(address)": "c63d75b6",
					"maxRedeem(address)": "d905777e",
					"maxWithdraw(address)": "ce96cb77",
					"mint(uint256,address)": "94bf804d",
					"name()": "06fdde03",
					"previewDeposit(uint256)": "ef8b30f7",
					"previewMint(uint256)": "b3d7f6b9",
					"previewRedeem(uint256)": "4cdad506",
					"previewWithdraw(uint256)": "0a28a477",
					"redeem(uint256,address,address)": "ba087652",
					"symbol()": "95d89b41",
					"totalAssets()": "01e1d114",
					"totalSupply()": "18160ddd",
					"transfer(address,uint256)": "a9059cbb",
					"transferFrom(address,address,uint256)": "23b872dd",
					"withdraw(uint256,address,address)": "b460af94"
				}
			},
			"storageLayout": {
				"storage": [
					{
						"astId": 159,
						"contract": "contracts/ERC4626.sol:ERC4626",
						"label": "_balances",
						"offset": 0,
						"slot": "0",
						"type": "t_mapping(t_address,t_uint256)"
					},
					{
						"astId": 165,
						"contract": "contracts/ERC4626.sol:ERC4626",
						"label": "_allowances",
						"offset": 0,
						"slot": "1",
						"type": "t_mapping(t_address,t_mapping(t_address,t_uint256))"
					},
					{
						"astId": 167,
						"contract": "contracts/ERC4626.sol:ERC4626",
						"label": "_totalSupply",
						"offset": 0,
						"slot": "2",
						"type": "t_uint256"
					},
					{
						"astId": 169,
						"contract": "contracts/ERC4626.sol:ERC4626",
						"label": "_name",
						"offset": 0,
						"slot": "3",
						"type": "t_string_storage"
					},
					{
						"astId": 171,
						"contract": "contracts/ERC4626.sol:ERC4626",
						"label": "_symbol",
						"offset": 0,
						"slot": "4",
						"type": "t_string_storage"
					}
				],
				"types": {
					"t_address": {
						"encoding": "inplace",
						"label": "address",
						"numberOfBytes": "20"
					},
					"t_mapping(t_address,t_mapping(t_address,t_uint256))": {
						"encoding": "mapping",
						"key": "t_address",
						"label": "mapping(address => mapping(address => uint256))",
						"numberOfBytes": "32",
						"value": "t_mapping(t_address,t_uint256)"
					},
					"t_mapping(t_address,t_uint256)": {
						"encoding": "mapping",
						"key": "t_address",
						"label": "mapping(address => uint256)",
						"numberOfBytes": "32",
						"value": "t_uint256"
					},
					"t_string_storage": {
						"encoding": "bytes",
						"label": "string",
						"numberOfBytes": "32"
					},
					"t_uint256": {
						"encoding": "inplace",
						"label": "uint256",
						"numberOfBytes": "32"
					}
				}
			},
			"userdoc": {
				"kind": "user",
				"methods": {
					"decimals()": {
						"notice": "See {IERC20Metadata-decimals}. override(IERC20Metadata, ERC20) —— 多重继承冲突解决，全部重写"
					},
					"deposit(uint256,address)": {
						"notice": "存款函数: 用户向金库存入 assets 单位的基础资产，然后合约铸造 shares 单位的金库额度给 receiver 地址 - 必须释放 Deposit 事件. - 如果资产不能存入，必须revert，比如存款数额大大于上限等。"
					},
					"mint(uint256,address)": {
						"notice": "deposit (存款)\t我付 100 USDC (assets)\t能买多少份额算多少\t加油站加油：“加 200 块钱的油。” (加多少升随缘) mint (铸造)\t我要 10 份 (shares)\t需要扣多少 USDC 你来算\t买股票：“我要买 100 股。” (扣多少钱按市价算)"
					},
					"redeem(uint256,address,address)": {
						"notice": "赎回函数: owner 地址销毁 shares 数量的金库额度，然后合约将 assets 单位的基础资产发给 receiver 地址 - 释放 Withdraw 事件 - 如果金库额度不能全部销毁，则revert"
					},
					"totalAssets()": {
						"notice": "返回金库中管理的基础资产代币总额 - 要包含利息 - 要包含费用 - 不能revert"
					}
				},
				"version": 1
			}
		}
	}
}