{
	"contracts/NFTSwap.sol": {
		"NFTSwap": {
			"abi": [
				{
					"anonymous": false,
					"inputs": [
						{
							"indexed": true,
							"internalType": "address",
							"name": "seller",
							"type": "address"
						},
						{
							"indexed": true,
							"internalType": "address",
							"name": "nftAddr",
							"type": "address"
						},
						{
							"indexed": true,
							"internalType": "uint256",
							"name": "tokenId",
							"type": "uint256"
						},
						{
							"indexed": false,
							"internalType": "uint256",
							"name": "price",
							"type": "uint256"
						}
					],
					"name": "List",
					"type": "event"
				},
				{
					"anonymous": false,
					"inputs": [
						{
							"indexed": true,
							"internalType": "address",
							"name": "buyer",
							"type": "address"
						},
						{
							"indexed": true,
							"internalType": "address",
							"name": "nftAddr",
							"type": "address"
						},
						{
							"indexed": true,
							"internalType": "uint256",
							"name": "tokenId",
							"type": "uint256"
						},
						{
							"indexed": false,
							"internalType": "uint256",
							"name": "price",
							"type": "uint256"
						}
					],
					"name": "Purchase",
					"type": "event"
				},
				{
					"anonymous": false,
					"inputs": [
						{
							"indexed": true,
							"internalType": "address",
							"name": "seller",
							"type": "address"
						},
						{
							"indexed": true,
							"internalType": "address",
							"name": "nftAddr",
							"type": "address"
						},
						{
							"indexed": true,
							"internalType": "uint256",
							"name": "tokenId",
							"type": "uint256"
						}
					],
					"name": "Revoke",
					"type": "event"
				},
				{
					"anonymous": false,
					"inputs": [
						{
							"indexed": true,
							"internalType": "address",
							"name": "seller",
							"type": "address"
						},
						{
							"indexed": true,
							"internalType": "address",
							"name": "nftAddr",
							"type": "address"
						},
						{
							"indexed": true,
							"internalType": "uint256",
							"name": "tokenId",
							"type": "uint256"
						},
						{
							"indexed": false,
							"internalType": "uint256",
							"name": "newPrice",
							"type": "uint256"
						}
					],
					"name": "Update",
					"type": "event"
				},
				{
					"stateMutability": "payable",
					"type": "fallback"
				},
				{
					"inputs": [
						{
							"internalType": "address",
							"name": "_nftAddr",
							"type": "address"
						},
						{
							"internalType": "uint256",
							"name": "_tokenId",
							"type": "uint256"
						},
						{
							"internalType": "uint256",
							"name": "_price",
							"type": "uint256"
						}
					],
					"name": "list",
					"outputs": [],
					"stateMutability": "nonpayable",
					"type": "function"
				},
				{
					"inputs": [
						{
							"internalType": "address",
							"name": "",
							"type": "address"
						},
						{
							"internalType": "uint256",
							"name": "",
							"type": "uint256"
						}
					],
					"name": "nftList",
					"outputs": [
						{
							"internalType": "address",
							"name": "owner",
							"type": "address"
						},
						{
							"internalType": "uint256",
							"name": "price",
							"type": "uint256"
						}
					],
					"stateMutability": "view",
					"type": "function"
				},
				{
					"inputs": [
						{
							"internalType": "address",
							"name": "operator",
							"type": "address"
						},
						{
							"internalType": "address",
							"name": "from",
							"type": "address"
						},
						{
							"internalType": "uint256",
							"name": "tokenId",
							"type": "uint256"
						},
						{
							"internalType": "bytes",
							"name": "data",
							"type": "bytes"
						}
					],
					"name": "onERC721Received",
					"outputs": [
						{
							"internalType": "bytes4",
							"name": "",
							"type": "bytes4"
						}
					],
					"stateMutability": "nonpayable",
					"type": "function"
				},
				{
					"inputs": [
						{
							"internalType": "address",
							"name": "_nftAddr",
							"type": "address"
						},
						{
							"internalType": "uint256",
							"name": "_tokenId",
							"type": "uint256"
						}
					],
					"name": "purchase",
					"outputs": [],
					"stateMutability": "payable",
					"type": "function"
				},
				{
					"inputs": [
						{
							"internalType": "address",
							"name": "_nftAddr",
							"type": "address"
						},
						{
							"internalType": "uint256",
							"name": "_tokenId",
							"type": "uint256"
						}
					],
					"name": "revoke",
					"outputs": [],
					"stateMutability": "nonpayable",
					"type": "function"
				},
				{
					"inputs": [
						{
							"internalType": "address",
							"name": "_nftAddr",
							"type": "address"
						},
						{
							"internalType": "uint256",
							"name": "_tokenId",
							"type": "uint256"
						},
						{
							"internalType": "uint256",
							"name": "_newPrice",
							"type": "uint256"
						}
					],
					"name": "update",
					"outputs": [],
					"stateMutability": "nonpayable",
					"type": "function"
				}
			],
			"devdoc": {
				"kind": "dev",
				"methods": {},
				"version": 1
			},
			"evm": {
				"assembly": "    /* \"contracts/NFTSwap.sol\":206:7077  contract NFTSwap is IERC721Receiver {... */\n  mstore(0x40, 0x80)\n  callvalue\n  dup1\n  iszero\n  tag_1\n  jumpi\n  revert(0x00, 0x00)\ntag_1:\n  pop\n  dataSize(sub_0)\n  dup1\n  dataOffset(sub_0)\n  0x00\n  codecopy\n  0x00\n  return\nstop\n\nsub_0: assembly {\n        /* \"contracts/NFTSwap.sol\":206:7077  contract NFTSwap is IERC721Receiver {... */\n      mstore(0x40, 0x80)\n      jumpi(tag_1, lt(calldatasize, 0x04))\n      shr(0xe0, calldataload(0x00))\n      dup1\n      0x150b7a02\n      eq\n      tag_3\n      jumpi\n      dup1\n      0x8de93222\n      eq\n      tag_4\n      jumpi\n      dup1\n      0xba5f4fb2\n      eq\n      tag_5\n      jumpi\n      dup1\n      0xd09b6d43\n      eq\n      tag_6\n      jumpi\n      dup1\n      0xdda342bb\n      eq\n      tag_7\n      jumpi\n      dup1\n      0xeac449d9\n      eq\n      tag_8\n      jumpi\n      jump(tag_2)\n    tag_1:\n    tag_2:\n      stop\n        /* \"contracts/NFTSwap.sol\":641:1385  function onERC721Received(address operator,address from,uint tokenId,bytes calldata data) external override returns (bytes4){... */\n    tag_3:\n      callvalue\n      dup1\n      iszero\n      tag_11\n      jumpi\n      revert(0x00, 0x00)\n    tag_11:\n      pop\n      tag_12\n      0x04\n      dup1\n      calldatasize\n      sub\n      dup2\n      add\n      swap1\n      tag_13\n      swap2\n      swap1\n      tag_14\n      jump\t// in\n    tag_13:\n      tag_15\n      jump\t// in\n    tag_12:\n      mload(0x40)\n      tag_16\n      swap2\n      swap1\n      tag_17\n      jump\t// in\n    tag_16:\n      mload(0x40)\n      dup1\n      swap2\n      sub\n      swap1\n      return\n        /* \"contracts/NFTSwap.sol\":5994:7070  function purchase(address _nftAddr,uint256 _tokenId) public payable {... */\n    tag_4:\n      tag_18\n      0x04\n      dup1\n      calldatasize\n      sub\n      dup2\n      add\n      swap1\n      tag_19\n      swap2\n      swap1\n      tag_20\n      jump\t// in\n    tag_19:\n      tag_21\n      jump\t// in\n    tag_18:\n      stop\n        /* \"contracts/NFTSwap.sol\":2268:2324  mapping(address=>mapping(uint256=>Order)) public nftList */\n    tag_5:\n      callvalue\n      dup1\n      iszero\n      tag_22\n      jumpi\n      revert(0x00, 0x00)\n    tag_22:\n      pop\n      tag_23\n      0x04\n      dup1\n      calldatasize\n      sub\n      dup2\n      add\n      swap1\n      tag_24\n      swap2\n      swap1\n      tag_20\n      jump\t// in\n    tag_24:\n      tag_25\n      jump\t// in\n    tag_23:\n      mload(0x40)\n      tag_26\n      swap3\n      swap2\n      swap1\n      tag_27\n      jump\t// in\n    tag_26:\n      mload(0x40)\n      dup1\n      swap2\n      sub\n      swap1\n      return\n        /* \"contracts/NFTSwap.sol\":5314:5883  function update(address _nftAddr,uint256 _tokenId, uint256 _newPrice) public {... */\n    tag_6:\n      callvalue\n      dup1\n      iszero\n      tag_28\n      jumpi\n      revert(0x00, 0x00)\n    tag_28:\n      pop\n      tag_29\n      0x04\n      dup1\n      calldatasize\n      sub\n      dup2\n      add\n      swap1\n      tag_30\n      swap2\n      swap1\n      tag_31\n      jump\t// in\n    tag_30:\n      tag_32\n      jump\t// in\n    tag_29:\n      stop\n        /* \"contracts/NFTSwap.sol\":3151:4260  function list(address _nftAddr,uint256 _tokenId, uint256 _price) public {... */\n    tag_7:\n      callvalue\n      dup1\n      iszero\n      tag_33\n      jumpi\n      revert(0x00, 0x00)\n    tag_33:\n      pop\n      tag_34\n      0x04\n      dup1\n      calldatasize\n      sub\n      dup2\n      add\n      swap1\n      tag_35\n      swap2\n      swap1\n      tag_31\n      jump\t// in\n    tag_35:\n      tag_36\n      jump\t// in\n    tag_34:\n      stop\n        /* \"contracts/NFTSwap.sol\":4445:5091  function revoke(address _nftAddr,uint256 _tokenId) public {... */\n    tag_8:\n      callvalue\n      dup1\n      iszero\n      tag_37\n      jumpi\n      revert(0x00, 0x00)\n    tag_37:\n      pop\n      tag_38\n      0x04\n      dup1\n      calldatasize\n      sub\n      dup2\n      add\n      swap1\n      tag_39\n      swap2\n      swap1\n      tag_20\n      jump\t// in\n    tag_39:\n      tag_40\n      jump\t// in\n    tag_38:\n      stop\n        /* \"contracts/NFTSwap.sol\":641:1385  function onERC721Received(address operator,address from,uint tokenId,bytes calldata data) external override returns (bytes4){... */\n    tag_15:\n        /* \"contracts/NFTSwap.sol\":758:764  bytes4 */\n      0x00\n        /* \"contracts/NFTSwap.sol\":1336:1377  IERC721Receiver.onERC721Received.selector */\n      shl(0xe0, 0x150b7a02)\n        /* \"contracts/NFTSwap.sol\":1329:1377  return IERC721Receiver.onERC721Received.selector */\n      swap1\n      pop\n        /* \"contracts/NFTSwap.sol\":641:1385  function onERC721Received(address operator,address from,uint tokenId,bytes calldata data) external override returns (bytes4){... */\n      swap6\n      swap5\n      pop\n      pop\n      pop\n      pop\n      pop\n      jump\t// out\n        /* \"contracts/NFTSwap.sol\":5994:7070  function purchase(address _nftAddr,uint256 _tokenId) public payable {... */\n    tag_21:\n        /* \"contracts/NFTSwap.sol\":6117:6129  IERC721 _nft */\n      0x00\n        /* \"contracts/NFTSwap.sol\":6140:6148  _nftAddr */\n      dup3\n        /* \"contracts/NFTSwap.sol\":6117:6149  IERC721 _nft = IERC721(_nftAddr) */\n      swap1\n      pop\n        /* \"contracts/NFTSwap.sol\":6202:6206  this */\n      address\n        /* \"contracts/NFTSwap.sol\":6168:6207  _nft.ownerOf(_tokenId) == address(this) */\n      0xffffffffffffffffffffffffffffffffffffffff\n      and\n        /* \"contracts/NFTSwap.sol\":6168:6172  _nft */\n      dup2\n        /* \"contracts/NFTSwap.sol\":6168:6180  _nft.ownerOf */\n      0xffffffffffffffffffffffffffffffffffffffff\n      and\n      0x6352211e\n        /* \"contracts/NFTSwap.sol\":6181:6189  _tokenId */\n      dup5\n        /* \"contracts/NFTSwap.sol\":6168:6190  _nft.ownerOf(_tokenId) */\n      mload(0x40)\n      dup3\n      0xffffffff\n      and\n      0xe0\n      shl\n      dup2\n      mstore\n      0x04\n      add\n      tag_43\n      swap2\n      swap1\n      tag_44\n      jump\t// in\n    tag_43:\n      0x20\n      mload(0x40)\n      dup1\n      dup4\n      sub\n      dup2\n      dup7\n      gas\n      staticcall\n      iszero\n      dup1\n      iszero\n      tag_46\n      jumpi\n      returndatacopy(0x00, 0x00, returndatasize)\n      revert(0x00, returndatasize)\n    tag_46:\n      pop\n      pop\n      pop\n      pop\n      mload(0x40)\n      returndatasize\n      not(0x1f)\n      0x1f\n      dup3\n      add\n      and\n      dup3\n      add\n      dup1\n      0x40\n      mstore\n      pop\n      dup2\n      add\n      swap1\n      tag_47\n      swap2\n      swap1\n      tag_48\n      jump\t// in\n    tag_47:\n        /* \"contracts/NFTSwap.sol\":6168:6207  _nft.ownerOf(_tokenId) == address(this) */\n      0xffffffffffffffffffffffffffffffffffffffff\n      and\n      eq\n        /* \"contracts/NFTSwap.sol\":6160:6225  require(_nft.ownerOf(_tokenId) == address(this), \"Invalid Order\") */\n      tag_49\n      jumpi\n      mload(0x40)\n      0x08c379a000000000000000000000000000000000000000000000000000000000\n      dup2\n      mstore\n      0x04\n      add\n      tag_50\n      swap1\n      tag_51\n      jump\t// in\n    tag_50:\n      mload(0x40)\n      dup1\n      swap2\n      sub\n      swap1\n      revert\n    tag_49:\n        /* \"contracts/NFTSwap.sol\":6255:6275  Order storage _order */\n      0x00\n        /* \"contracts/NFTSwap.sol\":6278:6285  nftList */\n      0x00\n        /* \"contracts/NFTSwap.sol\":6278:6295  nftList[_nftAddr] */\n      0x00\n        /* \"contracts/NFTSwap.sol\":6286:6294  _nftAddr */\n      dup6\n        /* \"contracts/NFTSwap.sol\":6278:6295  nftList[_nftAddr] */\n      0xffffffffffffffffffffffffffffffffffffffff\n      and\n      0xffffffffffffffffffffffffffffffffffffffff\n      and\n      dup2\n      mstore\n      0x20\n      add\n      swap1\n      dup2\n      mstore\n      0x20\n      add\n      0x00\n      keccak256\n        /* \"contracts/NFTSwap.sol\":6278:6305  nftList[_nftAddr][_tokenId] */\n      0x00\n        /* \"contracts/NFTSwap.sol\":6296:6304  _tokenId */\n      dup5\n        /* \"contracts/NFTSwap.sol\":6278:6305  nftList[_nftAddr][_tokenId] */\n      dup2\n      mstore\n      0x20\n      add\n      swap1\n      dup2\n      mstore\n      0x20\n      add\n      0x00\n      keccak256\n        /* \"contracts/NFTSwap.sol\":6255:6305  Order storage _order = nftList[_nftAddr][_tokenId] */\n      swap1\n      pop\n        /* \"contracts/NFTSwap.sol\":6354:6355  0 */\n      0x00\n        /* \"contracts/NFTSwap.sol\":6339:6345  _order */\n      dup2\n        /* \"contracts/NFTSwap.sol\":6339:6351  _order.price */\n      0x01\n      add\n      sload\n        /* \"contracts/NFTSwap.sol\":6339:6355  _order.price > 0 */\n      gt\n        /* \"contracts/NFTSwap.sol\":6331:6373  require(_order.price > 0, \"Invalid Price\") */\n      tag_52\n      jumpi\n      mload(0x40)\n      0x08c379a000000000000000000000000000000000000000000000000000000000\n      dup2\n      mstore\n      0x04\n      add\n      tag_53\n      swap1\n      tag_54\n      jump\t// in\n    tag_53:\n      mload(0x40)\n      dup1\n      swap2\n      sub\n      swap1\n      revert\n    tag_52:\n        /* \"contracts/NFTSwap.sol\":6425:6431  _order */\n      dup1\n        /* \"contracts/NFTSwap.sol\":6425:6437  _order.price */\n      0x01\n      add\n      sload\n        /* \"contracts/NFTSwap.sol\":6412:6421  msg.value */\n      callvalue\n        /* \"contracts/NFTSwap.sol\":6412:6437  msg.value >= _order.price */\n      lt\n      iszero\n        /* \"contracts/NFTSwap.sol\":6404:6456  require(msg.value >= _order.price, \"Increase price\") */\n      tag_55\n      jumpi\n      mload(0x40)\n      0x08c379a000000000000000000000000000000000000000000000000000000000\n      dup2\n      mstore\n      0x04\n      add\n      tag_56\n      swap1\n      tag_57\n      jump\t// in\n    tag_56:\n      mload(0x40)\n      dup1\n      swap2\n      sub\n      swap1\n      revert\n    tag_55:\n        /* \"contracts/NFTSwap.sol\":6596:6600  _nft */\n      dup2\n        /* \"contracts/NFTSwap.sol\":6596:6617  _nft.safeTransferFrom */\n      0xffffffffffffffffffffffffffffffffffffffff\n      and\n      0x42842e0e\n        /* \"contracts/NFTSwap.sol\":6626:6630  this */\n      address\n        /* \"contracts/NFTSwap.sol\":6632:6642  msg.sender */\n      caller\n        /* \"contracts/NFTSwap.sol\":6643:6651  _tokenId */\n      dup7\n        /* \"contracts/NFTSwap.sol\":6596:6652  _nft.safeTransferFrom(address(this),msg.sender,_tokenId) */\n      mload(0x40)\n      dup5\n      0xffffffff\n      and\n      0xe0\n      shl\n      dup2\n      mstore\n      0x04\n      add\n      tag_58\n      swap4\n      swap3\n      swap2\n      swap1\n      tag_59\n      jump\t// in\n    tag_58:\n      0x00\n      mload(0x40)\n      dup1\n      dup4\n      sub\n      dup2\n      0x00\n      dup8\n      dup1\n      extcodesize\n      iszero\n      dup1\n      iszero\n      tag_60\n      jumpi\n      revert(0x00, 0x00)\n    tag_60:\n      pop\n      gas\n      call\n      iszero\n      dup1\n      iszero\n      tag_62\n      jumpi\n      returndatacopy(0x00, 0x00, returndatasize)\n      revert(0x00, returndatasize)\n    tag_62:\n      pop\n      pop\n      pop\n      pop\n        /* \"contracts/NFTSwap.sol\":6702:6708  _order */\n      dup1\n        /* \"contracts/NFTSwap.sol\":6702:6714  _order.owner */\n      0x00\n      add\n      0x00\n      swap1\n      sload\n      swap1\n      0x0100\n      exp\n      swap1\n      div\n      0xffffffffffffffffffffffffffffffffffffffff\n      and\n        /* \"contracts/NFTSwap.sol\":6694:6724  payable(_order.owner).transfer */\n      0xffffffffffffffffffffffffffffffffffffffff\n      and\n        /* \"contracts/NFTSwap.sol\":6694:6738  payable(_order.owner).transfer(_order.price) */\n      0x08fc\n        /* \"contracts/NFTSwap.sol\":6725:6731  _order */\n      dup3\n        /* \"contracts/NFTSwap.sol\":6725:6737  _order.price */\n      0x01\n      add\n      sload\n        /* \"contracts/NFTSwap.sol\":6694:6738  payable(_order.owner).transfer(_order.price) */\n      swap1\n      dup2\n      iszero\n      mul\n      swap1\n      mload(0x40)\n      0x00\n      mload(0x40)\n      dup1\n      dup4\n      sub\n      dup2\n      dup6\n      dup9\n      dup9\n      call\n      swap4\n      pop\n      pop\n      pop\n      pop\n      iszero\n      dup1\n      iszero\n      tag_64\n      jumpi\n      returndatacopy(0x00, 0x00, returndatasize)\n      revert(0x00, returndatasize)\n    tag_64:\n      pop\n        /* \"contracts/NFTSwap.sol\":6802:6808  _order */\n      dup1\n        /* \"contracts/NFTSwap.sol\":6802:6814  _order.price */\n      0x01\n      add\n      sload\n        /* \"contracts/NFTSwap.sol\":6790:6799  msg.value */\n      callvalue\n        /* \"contracts/NFTSwap.sol\":6790:6814  msg.value > _order.price */\n      gt\n        /* \"contracts/NFTSwap.sol\":6786:6897  if (msg.value > _order.price){... */\n      iszero\n      tag_65\n      jumpi\n        /* \"contracts/NFTSwap.sol\":6839:6849  msg.sender */\n      caller\n        /* \"contracts/NFTSwap.sol\":6831:6859  payable(msg.sender).transfer */\n      0xffffffffffffffffffffffffffffffffffffffff\n      and\n        /* \"contracts/NFTSwap.sol\":6831:6885  payable(msg.sender).transfer(msg.value - _order.price) */\n      0x08fc\n        /* \"contracts/NFTSwap.sol\":6872:6878  _order */\n      dup3\n        /* \"contracts/NFTSwap.sol\":6872:6884  _order.price */\n      0x01\n      add\n      sload\n        /* \"contracts/NFTSwap.sol\":6860:6869  msg.value */\n      callvalue\n        /* \"contracts/NFTSwap.sol\":6860:6884  msg.value - _order.price */\n      tag_66\n      swap2\n      swap1\n      tag_67\n      jump\t// in\n    tag_66:\n        /* \"contracts/NFTSwap.sol\":6831:6885  payable(msg.sender).transfer(msg.value - _order.price) */\n      swap1\n      dup2\n      iszero\n      mul\n      swap1\n      mload(0x40)\n      0x00\n      mload(0x40)\n      dup1\n      dup4\n      sub\n      dup2\n      dup6\n      dup9\n      dup9\n      call\n      swap4\n      pop\n      pop\n      pop\n      pop\n      iszero\n      dup1\n      iszero\n      tag_69\n      jumpi\n      returndatacopy(0x00, 0x00, returndatasize)\n      revert(0x00, returndatasize)\n    tag_69:\n      pop\n        /* \"contracts/NFTSwap.sol\":6786:6897  if (msg.value > _order.price){... */\n    tag_65:\n        /* \"contracts/NFTSwap.sol\":6977:6985  _tokenId */\n      dup3\n        /* \"contracts/NFTSwap.sol\":6967:6975  _nftAddr */\n      dup5\n        /* \"contracts/NFTSwap.sol\":6946:7000  Purchase(msg.sender, _nftAddr, _tokenId, _order.price) */\n      0xffffffffffffffffffffffffffffffffffffffff\n      and\n        /* \"contracts/NFTSwap.sol\":6955:6965  msg.sender */\n      caller\n        /* \"contracts/NFTSwap.sol\":6946:7000  Purchase(msg.sender, _nftAddr, _tokenId, _order.price) */\n      0xffffffffffffffffffffffffffffffffffffffff\n      and\n      0x46661dab58311a6838247afecbee792192b4f27fc8b3e7168c66bc55ec2e404e\n        /* \"contracts/NFTSwap.sol\":6987:6993  _order */\n      dup5\n        /* \"contracts/NFTSwap.sol\":6987:6999  _order.price */\n      0x01\n      add\n      sload\n        /* \"contracts/NFTSwap.sol\":6946:7000  Purchase(msg.sender, _nftAddr, _tokenId, _order.price) */\n      mload(0x40)\n      tag_70\n      swap2\n      swap1\n      tag_44\n      jump\t// in\n    tag_70:\n      mload(0x40)\n      dup1\n      swap2\n      sub\n      swap1\n      log4\n        /* \"contracts/NFTSwap.sol\":7020:7027  nftList */\n      0x00\n        /* \"contracts/NFTSwap.sol\":7020:7037  nftList[_nftAddr] */\n      0x00\n        /* \"contracts/NFTSwap.sol\":7028:7036  _nftAddr */\n      dup6\n        /* \"contracts/NFTSwap.sol\":7020:7037  nftList[_nftAddr] */\n      0xffffffffffffffffffffffffffffffffffffffff\n      and\n      0xffffffffffffffffffffffffffffffffffffffff\n      and\n      dup2\n      mstore\n      0x20\n      add\n      swap1\n      dup2\n      mstore\n      0x20\n      add\n      0x00\n      keccak256\n        /* \"contracts/NFTSwap.sol\":7020:7047  nftList[_nftAddr][_tokenId] */\n      0x00\n        /* \"contracts/NFTSwap.sol\":7038:7046  _tokenId */\n      dup5\n        /* \"contracts/NFTSwap.sol\":7020:7047  nftList[_nftAddr][_tokenId] */\n      dup2\n      mstore\n      0x20\n      add\n      swap1\n      dup2\n      mstore\n      0x20\n      add\n      0x00\n      keccak256\n      0x00\n        /* \"contracts/NFTSwap.sol\":7013:7047  delete nftList[_nftAddr][_tokenId] */\n      0x00\n      dup3\n      add\n      exp(0x0100, 0x00)\n      dup2\n      sload\n      swap1\n      0xffffffffffffffffffffffffffffffffffffffff\n      mul\n      not\n      and\n      swap1\n      sstore\n      0x01\n      dup3\n      add\n      0x00\n      swap1\n      sstore\n      pop\n      pop\n        /* \"contracts/NFTSwap.sol\":6062:7070  {... */\n      pop\n      pop\n        /* \"contracts/NFTSwap.sol\":5994:7070  function purchase(address _nftAddr,uint256 _tokenId) public payable {... */\n      pop\n      pop\n      jump\t// out\n        /* \"contracts/NFTSwap.sol\":2268:2324  mapping(address=>mapping(uint256=>Order)) public nftList */\n    tag_25:\n      mstore(0x20, 0x00)\n      dup2\n      0x00\n      mstore\n      mstore(0x20, keccak256(0x00, 0x40))\n      dup1\n      0x00\n      mstore\n      keccak256(0x00, 0x40)\n      0x00\n      swap2\n      pop\n      swap2\n      pop\n      pop\n      dup1\n      0x00\n      add\n      0x00\n      swap1\n      sload\n      swap1\n      0x0100\n      exp\n      swap1\n      div\n      0xffffffffffffffffffffffffffffffffffffffff\n      and\n      swap1\n      dup1\n      0x01\n      add\n      sload\n      swap1\n      pop\n      dup3\n      jump\t// out\n        /* \"contracts/NFTSwap.sol\":5314:5883  function update(address _nftAddr,uint256 _tokenId, uint256 _newPrice) public {... */\n    tag_32:\n        /* \"contracts/NFTSwap.sol\":5422:5423  0 */\n      0x00\n        /* \"contracts/NFTSwap.sol\":5410:5419  _newPrice */\n      dup2\n        /* \"contracts/NFTSwap.sol\":5410:5423  _newPrice > 0 */\n      gt\n        /* \"contracts/NFTSwap.sol\":5402:5441  require(_newPrice > 0, \"Invalid Price\") */\n      tag_72\n      jumpi\n      mload(0x40)\n      0x08c379a000000000000000000000000000000000000000000000000000000000\n      dup2\n      mstore\n      0x04\n      add\n      tag_73\n      swap1\n      tag_54\n      jump\t// in\n    tag_73:\n      mload(0x40)\n      dup1\n      swap2\n      sub\n      swap1\n      revert\n    tag_72:\n        /* \"contracts/NFTSwap.sol\":5472:5492  Order storage _order */\n      0x00\n        /* \"contracts/NFTSwap.sol\":5495:5502  nftList */\n      0x00\n        /* \"contracts/NFTSwap.sol\":5495:5512  nftList[_nftAddr] */\n      0x00\n        /* \"contracts/NFTSwap.sol\":5503:5511  _nftAddr */\n      dup6\n        /* \"contracts/NFTSwap.sol\":5495:5512  nftList[_nftAddr] */\n      0xffffffffffffffffffffffffffffffffffffffff\n      and\n      0xffffffffffffffffffffffffffffffffffffffff\n      and\n      dup2\n      mstore\n      0x20\n      add\n      swap1\n      dup2\n      mstore\n      0x20\n      add\n      0x00\n      keccak256\n        /* \"contracts/NFTSwap.sol\":5495:5522  nftList[_nftAddr][_tokenId] */\n      0x00\n        /* \"contracts/NFTSwap.sol\":5513:5521  _tokenId */\n      dup5\n        /* \"contracts/NFTSwap.sol\":5495:5522  nftList[_nftAddr][_tokenId] */\n      dup2\n      mstore\n      0x20\n      add\n      swap1\n      dup2\n      mstore\n      0x20\n      add\n      0x00\n      keccak256\n        /* \"contracts/NFTSwap.sol\":5472:5522  Order storage _order = nftList[_nftAddr][_tokenId] */\n      swap1\n      pop\n        /* \"contracts/NFTSwap.sol\":5592:5604  IERC721 _nft */\n      0x00\n        /* \"contracts/NFTSwap.sol\":5615:5623  _nftAddr */\n      dup5\n        /* \"contracts/NFTSwap.sol\":5592:5624  IERC721 _nft = IERC721(_nftAddr) */\n      swap1\n      pop\n        /* \"contracts/NFTSwap.sol\":5677:5681  this */\n      address\n        /* \"contracts/NFTSwap.sol\":5643:5682  _nft.ownerOf(_tokenId) == address(this) */\n      0xffffffffffffffffffffffffffffffffffffffff\n      and\n        /* \"contracts/NFTSwap.sol\":5643:5647  _nft */\n      dup2\n        /* \"contracts/NFTSwap.sol\":5643:5655  _nft.ownerOf */\n      0xffffffffffffffffffffffffffffffffffffffff\n      and\n      0x6352211e\n        /* \"contracts/NFTSwap.sol\":5656:5664  _tokenId */\n      dup7\n        /* \"contracts/NFTSwap.sol\":5643:5665  _nft.ownerOf(_tokenId) */\n      mload(0x40)\n      dup3\n      0xffffffff\n      and\n      0xe0\n      shl\n      dup2\n      mstore\n      0x04\n      add\n      tag_74\n      swap2\n      swap1\n      tag_44\n      jump\t// in\n    tag_74:\n      0x20\n      mload(0x40)\n      dup1\n      dup4\n      sub\n      dup2\n      dup7\n      gas\n      staticcall\n      iszero\n      dup1\n      iszero\n      tag_76\n      jumpi\n      returndatacopy(0x00, 0x00, returndatasize)\n      revert(0x00, returndatasize)\n    tag_76:\n      pop\n      pop\n      pop\n      pop\n      mload(0x40)\n      returndatasize\n      not(0x1f)\n      0x1f\n      dup3\n      add\n      and\n      dup3\n      add\n      dup1\n      0x40\n      mstore\n      pop\n      dup2\n      add\n      swap1\n      tag_77\n      swap2\n      swap1\n      tag_48\n      jump\t// in\n    tag_77:\n        /* \"contracts/NFTSwap.sol\":5643:5682  _nft.ownerOf(_tokenId) == address(this) */\n      0xffffffffffffffffffffffffffffffffffffffff\n      and\n      eq\n        /* \"contracts/NFTSwap.sol\":5635:5700  require(_nft.ownerOf(_tokenId) == address(this), \"Invalid Order\") */\n      tag_78\n      jumpi\n      mload(0x40)\n      0x08c379a000000000000000000000000000000000000000000000000000000000\n      dup2\n      mstore\n      0x04\n      add\n      tag_79\n      swap1\n      tag_51\n      jump\t// in\n    tag_79:\n      mload(0x40)\n      dup1\n      swap2\n      sub\n      swap1\n      revert\n    tag_78:\n        /* \"contracts/NFTSwap.sol\":5747:5756  _newPrice */\n      dup3\n        /* \"contracts/NFTSwap.sol\":5732:5738  _order */\n      dup3\n        /* \"contracts/NFTSwap.sol\":5732:5744  _order.price */\n      0x01\n      add\n        /* \"contracts/NFTSwap.sol\":5732:5756  _order.price = _newPrice */\n      dup2\n      swap1\n      sstore\n      pop\n        /* \"contracts/NFTSwap.sol\":5855:5863  _tokenId */\n      dup4\n        /* \"contracts/NFTSwap.sol\":5845:5853  _nftAddr */\n      dup6\n        /* \"contracts/NFTSwap.sol\":5826:5875  Update(msg.sender, _nftAddr, _tokenId, _newPrice) */\n      0xffffffffffffffffffffffffffffffffffffffff\n      and\n        /* \"contracts/NFTSwap.sol\":5833:5843  msg.sender */\n      caller\n        /* \"contracts/NFTSwap.sol\":5826:5875  Update(msg.sender, _nftAddr, _tokenId, _newPrice) */\n      0xffffffffffffffffffffffffffffffffffffffff\n      and\n      0xb7f0ca7cd5b24651672216886135b99ff40342bcf549009a4c6fc74f059fb9a0\n        /* \"contracts/NFTSwap.sol\":5865:5874  _newPrice */\n      dup7\n        /* \"contracts/NFTSwap.sol\":5826:5875  Update(msg.sender, _nftAddr, _tokenId, _newPrice) */\n      mload(0x40)\n      tag_80\n      swap2\n      swap1\n      tag_44\n      jump\t// in\n    tag_80:\n      mload(0x40)\n      dup1\n      swap2\n      sub\n      swap1\n      log4\n        /* \"contracts/NFTSwap.sol\":5391:5883  {... */\n      pop\n      pop\n        /* \"contracts/NFTSwap.sol\":5314:5883  function update(address _nftAddr,uint256 _tokenId, uint256 _newPrice) public {... */\n      pop\n      pop\n      pop\n      jump\t// out\n        /* \"contracts/NFTSwap.sol\":3151:4260  function list(address _nftAddr,uint256 _tokenId, uint256 _price) public {... */\n    tag_36:\n        /* \"contracts/NFTSwap.sol\":3278:3290  IERC721 _nft */\n      0x00\n        /* \"contracts/NFTSwap.sol\":3301:3309  _nftAddr */\n      dup4\n        /* \"contracts/NFTSwap.sol\":3278:3310  IERC721 _nft = IERC721(_nftAddr) */\n      swap1\n      pop\n        /* \"contracts/NFTSwap.sol\":3626:3630  this */\n      address\n        /* \"contracts/NFTSwap.sol\":3588:3631  _nft.getApproved(_tokenId) == address(this) */\n      0xffffffffffffffffffffffffffffffffffffffff\n      and\n        /* \"contracts/NFTSwap.sol\":3588:3592  _nft */\n      dup2\n        /* \"contracts/NFTSwap.sol\":3588:3604  _nft.getApproved */\n      0xffffffffffffffffffffffffffffffffffffffff\n      and\n      0x081812fc\n        /* \"contracts/NFTSwap.sol\":3605:3613  _tokenId */\n      dup6\n        /* \"contracts/NFTSwap.sol\":3588:3614  _nft.getApproved(_tokenId) */\n      mload(0x40)\n      dup3\n      0xffffffff\n      and\n      0xe0\n      shl\n      dup2\n      mstore\n      0x04\n      add\n      tag_82\n      swap2\n      swap1\n      tag_44\n      jump\t// in\n    tag_82:\n      0x20\n      mload(0x40)\n      dup1\n      dup4\n      sub\n      dup2\n      dup7\n      gas\n      staticcall\n      iszero\n      dup1\n      iszero\n      tag_84\n      jumpi\n      returndatacopy(0x00, 0x00, returndatasize)\n      revert(0x00, returndatasize)\n    tag_84:\n      pop\n      pop\n      pop\n      pop\n      mload(0x40)\n      returndatasize\n      not(0x1f)\n      0x1f\n      dup3\n      add\n      and\n      dup3\n      add\n      dup1\n      0x40\n      mstore\n      pop\n      dup2\n      add\n      swap1\n      tag_85\n      swap2\n      swap1\n      tag_48\n      jump\t// in\n    tag_85:\n        /* \"contracts/NFTSwap.sol\":3588:3631  _nft.getApproved(_tokenId) == address(this) */\n      0xffffffffffffffffffffffffffffffffffffffff\n      and\n      eq\n        /* \"contracts/NFTSwap.sol\":3580:3648  require(_nft.getApproved(_tokenId) == address(this),\"Need Approval\") */\n      tag_86\n      jumpi\n      mload(0x40)\n      0x08c379a000000000000000000000000000000000000000000000000000000000\n      dup2\n      mstore\n      0x04\n      add\n      tag_87\n      swap1\n      tag_88\n      jump\t// in\n    tag_87:\n      mload(0x40)\n      dup1\n      swap2\n      sub\n      swap1\n      revert\n    tag_86:\n        /* \"contracts/NFTSwap.sol\":3676:3677  0 */\n      0x00\n        /* \"contracts/NFTSwap.sol\":3667:3673  _price */\n      dup3\n        /* \"contracts/NFTSwap.sol\":3667:3677  _price > 0 */\n      gt\n        /* \"contracts/NFTSwap.sol\":3659:3678  require(_price > 0) */\n      tag_89\n      jumpi\n      revert(0x00, 0x00)\n    tag_89:\n        /* \"contracts/NFTSwap.sol\":3760:3780  Order storage _order */\n      0x00\n        /* \"contracts/NFTSwap.sol\":3783:3790  nftList */\n      0x00\n        /* \"contracts/NFTSwap.sol\":3783:3800  nftList[_nftAddr] */\n      0x00\n        /* \"contracts/NFTSwap.sol\":3791:3799  _nftAddr */\n      dup7\n        /* \"contracts/NFTSwap.sol\":3783:3800  nftList[_nftAddr] */\n      0xffffffffffffffffffffffffffffffffffffffff\n      and\n      0xffffffffffffffffffffffffffffffffffffffff\n      and\n      dup2\n      mstore\n      0x20\n      add\n      swap1\n      dup2\n      mstore\n      0x20\n      add\n      0x00\n      keccak256\n        /* \"contracts/NFTSwap.sol\":3783:3810  nftList[_nftAddr][_tokenId] */\n      0x00\n        /* \"contracts/NFTSwap.sol\":3801:3809  _tokenId */\n      dup6\n        /* \"contracts/NFTSwap.sol\":3783:3810  nftList[_nftAddr][_tokenId] */\n      dup2\n      mstore\n      0x20\n      add\n      swap1\n      dup2\n      mstore\n      0x20\n      add\n      0x00\n      keccak256\n        /* \"contracts/NFTSwap.sol\":3760:3810  Order storage _order = nftList[_nftAddr][_tokenId] */\n      swap1\n      pop\n        /* \"contracts/NFTSwap.sol\":3961:3971  msg.sender */\n      caller\n        /* \"contracts/NFTSwap.sol\":3946:3952  _order */\n      dup2\n        /* \"contracts/NFTSwap.sol\":3946:3958  _order.owner */\n      0x00\n      add\n      0x00\n        /* \"contracts/NFTSwap.sol\":3946:3971  _order.owner = msg.sender */\n      0x0100\n      exp\n      dup2\n      sload\n      dup2\n      0xffffffffffffffffffffffffffffffffffffffff\n      mul\n      not\n      and\n      swap1\n      dup4\n      0xffffffffffffffffffffffffffffffffffffffff\n      and\n      mul\n      or\n      swap1\n      sstore\n      pop\n        /* \"contracts/NFTSwap.sol\":3997:4003  _price */\n      dup3\n        /* \"contracts/NFTSwap.sol\":3982:3988  _order */\n      dup2\n        /* \"contracts/NFTSwap.sol\":3982:3994  _order.price */\n      0x01\n      add\n        /* \"contracts/NFTSwap.sol\":3982:4003  _order.price = _price */\n      dup2\n      swap1\n      sstore\n      pop\n        /* \"contracts/NFTSwap.sol\":4103:4107  _nft */\n      dup2\n        /* \"contracts/NFTSwap.sol\":4103:4124  _nft.safeTransferFrom */\n      0xffffffffffffffffffffffffffffffffffffffff\n      and\n      0x42842e0e\n        /* \"contracts/NFTSwap.sol\":4125:4135  msg.sender */\n      caller\n        /* \"contracts/NFTSwap.sol\":4145:4149  this */\n      address\n        /* \"contracts/NFTSwap.sol\":4152:4160  _tokenId */\n      dup8\n        /* \"contracts/NFTSwap.sol\":4103:4161  _nft.safeTransferFrom(msg.sender, address(this), _tokenId) */\n      mload(0x40)\n      dup5\n      0xffffffff\n      and\n      0xe0\n      shl\n      dup2\n      mstore\n      0x04\n      add\n      tag_90\n      swap4\n      swap3\n      swap2\n      swap1\n      tag_59\n      jump\t// in\n    tag_90:\n      0x00\n      mload(0x40)\n      dup1\n      dup4\n      sub\n      dup2\n      0x00\n      dup8\n      dup1\n      extcodesize\n      iszero\n      dup1\n      iszero\n      tag_91\n      jumpi\n      revert(0x00, 0x00)\n    tag_91:\n      pop\n      gas\n      call\n      iszero\n      dup1\n      iszero\n      tag_93\n      jumpi\n      returndatacopy(0x00, 0x00, returndatasize)\n      revert(0x00, returndatasize)\n    tag_93:\n      pop\n      pop\n      pop\n      pop\n        /* \"contracts/NFTSwap.sol\":4235:4243  _tokenId */\n      dup4\n        /* \"contracts/NFTSwap.sol\":4225:4233  _nftAddr */\n      dup6\n        /* \"contracts/NFTSwap.sol\":4208:4252  List(msg.sender, _nftAddr, _tokenId, _price) */\n      0xffffffffffffffffffffffffffffffffffffffff\n      and\n        /* \"contracts/NFTSwap.sol\":4213:4223  msg.sender */\n      caller\n        /* \"contracts/NFTSwap.sol\":4208:4252  List(msg.sender, _nftAddr, _tokenId, _price) */\n      0xffffffffffffffffffffffffffffffffffffffff\n      and\n      0xedbdf022944a3291f4b30148903a84720506f48e10478ec5812e5caf30e1fab0\n        /* \"contracts/NFTSwap.sol\":4245:4251  _price */\n      dup7\n        /* \"contracts/NFTSwap.sol\":4208:4252  List(msg.sender, _nftAddr, _tokenId, _price) */\n      mload(0x40)\n      tag_94\n      swap2\n      swap1\n      tag_44\n      jump\t// in\n    tag_94:\n      mload(0x40)\n      dup1\n      swap2\n      sub\n      swap1\n      log4\n        /* \"contracts/NFTSwap.sol\":3223:4260  {... */\n      pop\n      pop\n        /* \"contracts/NFTSwap.sol\":3151:4260  function list(address _nftAddr,uint256 _tokenId, uint256 _price) public {... */\n      pop\n      pop\n      pop\n      jump\t// out\n        /* \"contracts/NFTSwap.sol\":4445:5091  function revoke(address _nftAddr,uint256 _tokenId) public {... */\n    tag_40:\n        /* \"contracts/NFTSwap.sol\":4514:4534  Order storage _order */\n      0x00\n        /* \"contracts/NFTSwap.sol\":4536:4543  nftList */\n      0x00\n        /* \"contracts/NFTSwap.sol\":4536:4553  nftList[_nftAddr] */\n      0x00\n        /* \"contracts/NFTSwap.sol\":4544:4552  _nftAddr */\n      dup5\n        /* \"contracts/NFTSwap.sol\":4536:4553  nftList[_nftAddr] */\n      0xffffffffffffffffffffffffffffffffffffffff\n      and\n      0xffffffffffffffffffffffffffffffffffffffff\n      and\n      dup2\n      mstore\n      0x20\n      add\n      swap1\n      dup2\n      mstore\n      0x20\n      add\n      0x00\n      keccak256\n        /* \"contracts/NFTSwap.sol\":4536:4563  nftList[_nftAddr][_tokenId] */\n      0x00\n        /* \"contracts/NFTSwap.sol\":4554:4562  _tokenId */\n      dup4\n        /* \"contracts/NFTSwap.sol\":4536:4563  nftList[_nftAddr][_tokenId] */\n      dup2\n      mstore\n      0x20\n      add\n      swap1\n      dup2\n      mstore\n      0x20\n      add\n      0x00\n      keccak256\n        /* \"contracts/NFTSwap.sol\":4514:4563  Order storage _order =nftList[_nftAddr][_tokenId] */\n      swap1\n      pop\n        /* \"contracts/NFTSwap.sol\":4618:4628  msg.sender */\n      caller\n        /* \"contracts/NFTSwap.sol\":4602:4628  _order.owner == msg.sender */\n      0xffffffffffffffffffffffffffffffffffffffff\n      and\n        /* \"contracts/NFTSwap.sol\":4602:4608  _order */\n      dup2\n        /* \"contracts/NFTSwap.sol\":4602:4614  _order.owner */\n      0x00\n      add\n      0x00\n      swap1\n      sload\n      swap1\n      0x0100\n      exp\n      swap1\n      div\n      0xffffffffffffffffffffffffffffffffffffffff\n      and\n        /* \"contracts/NFTSwap.sol\":4602:4628  _order.owner == msg.sender */\n      0xffffffffffffffffffffffffffffffffffffffff\n      and\n      eq\n        /* \"contracts/NFTSwap.sol\":4593:4642  require( _order.owner == msg.sender, \"Not Owner\") */\n      tag_96\n      jumpi\n      mload(0x40)\n      0x08c379a000000000000000000000000000000000000000000000000000000000\n      dup2\n      mstore\n      0x04\n      add\n      tag_97\n      swap1\n      tag_98\n      jump\t// in\n    tag_97:\n      mload(0x40)\n      dup1\n      swap2\n      sub\n      swap1\n      revert\n    tag_96:\n        /* \"contracts/NFTSwap.sol\":4726:4738  IERC721 _nft */\n      0x00\n        /* \"contracts/NFTSwap.sol\":4749:4757  _nftAddr */\n      dup4\n        /* \"contracts/NFTSwap.sol\":4726:4758  IERC721 _nft = IERC721(_nftAddr) */\n      swap1\n      pop\n        /* \"contracts/NFTSwap.sol\":4811:4815  this */\n      address\n        /* \"contracts/NFTSwap.sol\":4777:4816  _nft.ownerOf(_tokenId) == address(this) */\n      0xffffffffffffffffffffffffffffffffffffffff\n      and\n        /* \"contracts/NFTSwap.sol\":4777:4781  _nft */\n      dup2\n        /* \"contracts/NFTSwap.sol\":4777:4789  _nft.ownerOf */\n      0xffffffffffffffffffffffffffffffffffffffff\n      and\n      0x6352211e\n        /* \"contracts/NFTSwap.sol\":4790:4798  _tokenId */\n      dup6\n        /* \"contracts/NFTSwap.sol\":4777:4799  _nft.ownerOf(_tokenId) */\n      mload(0x40)\n      dup3\n      0xffffffff\n      and\n      0xe0\n      shl\n      dup2\n      mstore\n      0x04\n      add\n      tag_99\n      swap2\n      swap1\n      tag_44\n      jump\t// in\n    tag_99:\n      0x20\n      mload(0x40)\n      dup1\n      dup4\n      sub\n      dup2\n      dup7\n      gas\n      staticcall\n      iszero\n      dup1\n      iszero\n      tag_101\n      jumpi\n      returndatacopy(0x00, 0x00, returndatasize)\n      revert(0x00, returndatasize)\n    tag_101:\n      pop\n      pop\n      pop\n      pop\n      mload(0x40)\n      returndatasize\n      not(0x1f)\n      0x1f\n      dup3\n      add\n      and\n      dup3\n      add\n      dup1\n      0x40\n      mstore\n      pop\n      dup2\n      add\n      swap1\n      tag_102\n      swap2\n      swap1\n      tag_48\n      jump\t// in\n    tag_102:\n        /* \"contracts/NFTSwap.sol\":4777:4816  _nft.ownerOf(_tokenId) == address(this) */\n      0xffffffffffffffffffffffffffffffffffffffff\n      and\n      eq\n        /* \"contracts/NFTSwap.sol\":4769:4834  require(_nft.ownerOf(_tokenId) == address(this), \"Invalid Order\") */\n      tag_103\n      jumpi\n      mload(0x40)\n      0x08c379a000000000000000000000000000000000000000000000000000000000\n      dup2\n      mstore\n      0x04\n      add\n      tag_104\n      swap1\n      tag_51\n      jump\t// in\n    tag_104:\n      mload(0x40)\n      dup1\n      swap2\n      sub\n      swap1\n      revert\n    tag_103:\n        /* \"contracts/NFTSwap.sol\":4896:4900  _nft */\n      dup1\n        /* \"contracts/NFTSwap.sol\":4896:4917  _nft.safeTransferFrom */\n      0xffffffffffffffffffffffffffffffffffffffff\n      and\n      0x42842e0e\n        /* \"contracts/NFTSwap.sol\":4926:4930  this */\n      address\n        /* \"contracts/NFTSwap.sol\":4932:4942  msg.sender */\n      caller\n        /* \"contracts/NFTSwap.sol\":4943:4951  _tokenId */\n      dup7\n        /* \"contracts/NFTSwap.sol\":4896:4952  _nft.safeTransferFrom(address(this),msg.sender,_tokenId) */\n      mload(0x40)\n      dup5\n      0xffffffff\n      and\n      0xe0\n      shl\n      dup2\n      mstore\n      0x04\n      add\n      tag_105\n      swap4\n      swap3\n      swap2\n      swap1\n      tag_59\n      jump\t// in\n    tag_105:\n      0x00\n      mload(0x40)\n      dup1\n      dup4\n      sub\n      dup2\n      0x00\n      dup8\n      dup1\n      extcodesize\n      iszero\n      dup1\n      iszero\n      tag_106\n      jumpi\n      revert(0x00, 0x00)\n    tag_106:\n      pop\n      gas\n      call\n      iszero\n      dup1\n      iszero\n      tag_108\n      jumpi\n      returndatacopy(0x00, 0x00, returndatasize)\n      revert(0x00, returndatasize)\n    tag_108:\n      pop\n      pop\n      pop\n      pop\n        /* \"contracts/NFTSwap.sol\":4970:4977  nftList */\n      0x00\n        /* \"contracts/NFTSwap.sol\":4970:4987  nftList[_nftAddr] */\n      0x00\n        /* \"contracts/NFTSwap.sol\":4978:4986  _nftAddr */\n      dup6\n        /* \"contracts/NFTSwap.sol\":4970:4987  nftList[_nftAddr] */\n      0xffffffffffffffffffffffffffffffffffffffff\n      and\n      0xffffffffffffffffffffffffffffffffffffffff\n      and\n      dup2\n      mstore\n      0x20\n      add\n      swap1\n      dup2\n      mstore\n      0x20\n      add\n      0x00\n      keccak256\n        /* \"contracts/NFTSwap.sol\":4970:4997  nftList[_nftAddr][_tokenId] */\n      0x00\n        /* \"contracts/NFTSwap.sol\":4988:4996  _tokenId */\n      dup5\n        /* \"contracts/NFTSwap.sol\":4970:4997  nftList[_nftAddr][_tokenId] */\n      dup2\n      mstore\n      0x20\n      add\n      swap1\n      dup2\n      mstore\n      0x20\n      add\n      0x00\n      keccak256\n      0x00\n        /* \"contracts/NFTSwap.sol\":4963:4997  delete nftList[_nftAddr][_tokenId] */\n      0x00\n      dup3\n      add\n      exp(0x0100, 0x00)\n      dup2\n      sload\n      swap1\n      0xffffffffffffffffffffffffffffffffffffffff\n      mul\n      not\n      and\n      swap1\n      sstore\n      0x01\n      dup3\n      add\n      0x00\n      swap1\n      sstore\n      pop\n      pop\n        /* \"contracts/NFTSwap.sol\":5074:5082  _tokenId */\n      dup3\n        /* \"contracts/NFTSwap.sol\":5064:5072  _nftAddr */\n      dup5\n        /* \"contracts/NFTSwap.sol\":5045:5083  Revoke(msg.sender, _nftAddr, _tokenId) */\n      0xffffffffffffffffffffffffffffffffffffffff\n      and\n        /* \"contracts/NFTSwap.sol\":5052:5062  msg.sender */\n      caller\n        /* \"contracts/NFTSwap.sol\":5045:5083  Revoke(msg.sender, _nftAddr, _tokenId) */\n      0xffffffffffffffffffffffffffffffffffffffff\n      and\n      0xb698e31a2abee5824d0d7bcfd2339aead7f9e9ae413fba50bf554ff3fa470b7b\n      mload(0x40)\n      mload(0x40)\n      dup1\n      swap2\n      sub\n      swap1\n      log4\n        /* \"contracts/NFTSwap.sol\":4503:5091  {... */\n      pop\n      pop\n        /* \"contracts/NFTSwap.sol\":4445:5091  function revoke(address _nftAddr,uint256 _tokenId) public {... */\n      pop\n      pop\n      jump\t// out\n        /* \"#utility.yul\":88:205   */\n    tag_110:\n        /* \"#utility.yul\":197:198   */\n      0x00\n        /* \"#utility.yul\":194:195   */\n      0x00\n        /* \"#utility.yul\":187:199   */\n      revert\n        /* \"#utility.yul\":211:328   */\n    tag_111:\n        /* \"#utility.yul\":320:321   */\n      0x00\n        /* \"#utility.yul\":317:318   */\n      0x00\n        /* \"#utility.yul\":310:322   */\n      revert\n        /* \"#utility.yul\":334:460   */\n    tag_112:\n        /* \"#utility.yul\":371:378   */\n      0x00\n        /* \"#utility.yul\":411:453   */\n      0xffffffffffffffffffffffffffffffffffffffff\n        /* \"#utility.yul\":404:409   */\n      dup3\n        /* \"#utility.yul\":400:454   */\n      and\n        /* \"#utility.yul\":389:454   */\n      swap1\n      pop\n        /* \"#utility.yul\":334:460   */\n      swap2\n      swap1\n      pop\n      jump\t// out\n        /* \"#utility.yul\":466:562   */\n    tag_113:\n        /* \"#utility.yul\":503:510   */\n      0x00\n        /* \"#utility.yul\":532:556   */\n      tag_146\n        /* \"#utility.yul\":550:555   */\n      dup3\n        /* \"#utility.yul\":532:556   */\n      tag_112\n      jump\t// in\n    tag_146:\n        /* \"#utility.yul\":521:556   */\n      swap1\n      pop\n        /* \"#utility.yul\":466:562   */\n      swap2\n      swap1\n      pop\n      jump\t// out\n        /* \"#utility.yul\":568:690   */\n    tag_114:\n        /* \"#utility.yul\":641:665   */\n      tag_148\n        /* \"#utility.yul\":659:664   */\n      dup2\n        /* \"#utility.yul\":641:665   */\n      tag_113\n      jump\t// in\n    tag_148:\n        /* \"#utility.yul\":634:639   */\n      dup2\n        /* \"#utility.yul\":631:666   */\n      eq\n        /* \"#utility.yul\":621:684   */\n      tag_149\n      jumpi\n        /* \"#utility.yul\":680:681   */\n      0x00\n        /* \"#utility.yul\":677:678   */\n      0x00\n        /* \"#utility.yul\":670:682   */\n      revert\n        /* \"#utility.yul\":621:684   */\n    tag_149:\n        /* \"#utility.yul\":568:690   */\n      pop\n      jump\t// out\n        /* \"#utility.yul\":696:835   */\n    tag_115:\n        /* \"#utility.yul\":742:747   */\n      0x00\n        /* \"#utility.yul\":780:786   */\n      dup2\n        /* \"#utility.yul\":767:787   */\n      calldataload\n        /* \"#utility.yul\":758:787   */\n      swap1\n      pop\n        /* \"#utility.yul\":796:829   */\n      tag_151\n        /* \"#utility.yul\":823:828   */\n      dup2\n        /* \"#utility.yul\":796:829   */\n      tag_114\n      jump\t// in\n    tag_151:\n        /* \"#utility.yul\":696:835   */\n      swap3\n      swap2\n      pop\n      pop\n      jump\t// out\n        /* \"#utility.yul\":841:918   */\n    tag_116:\n        /* \"#utility.yul\":878:885   */\n      0x00\n        /* \"#utility.yul\":907:912   */\n      dup2\n        /* \"#utility.yul\":896:912   */\n      swap1\n      pop\n        /* \"#utility.yul\":841:918   */\n      swap2\n      swap1\n      pop\n      jump\t// out\n        /* \"#utility.yul\":924:1046   */\n    tag_117:\n        /* \"#utility.yul\":997:1021   */\n      tag_154\n        /* \"#utility.yul\":1015:1020   */\n      dup2\n        /* \"#utility.yul\":997:1021   */\n      tag_116\n      jump\t// in\n    tag_154:\n        /* \"#utility.yul\":990:995   */\n      dup2\n        /* \"#utility.yul\":987:1022   */\n      eq\n        /* \"#utility.yul\":977:1040   */\n      tag_155\n      jumpi\n        /* \"#utility.yul\":1036:1037   */\n      0x00\n        /* \"#utility.yul\":1033:1034   */\n      0x00\n        /* \"#utility.yul\":1026:1038   */\n      revert\n        /* \"#utility.yul\":977:1040   */\n    tag_155:\n        /* \"#utility.yul\":924:1046   */\n      pop\n      jump\t// out\n        /* \"#utility.yul\":1052:1191   */\n    tag_118:\n        /* \"#utility.yul\":1098:1103   */\n      0x00\n        /* \"#utility.yul\":1136:1142   */\n      dup2\n        /* \"#utility.yul\":1123:1143   */\n      calldataload\n        /* \"#utility.yul\":1114:1143   */\n      swap1\n      pop\n        /* \"#utility.yul\":1152:1185   */\n      tag_157\n        /* \"#utility.yul\":1179:1184   */\n      dup2\n        /* \"#utility.yul\":1152:1185   */\n      tag_117\n      jump\t// in\n    tag_157:\n        /* \"#utility.yul\":1052:1191   */\n      swap3\n      swap2\n      pop\n      pop\n      jump\t// out\n        /* \"#utility.yul\":1197:1314   */\n    tag_119:\n        /* \"#utility.yul\":1306:1307   */\n      0x00\n        /* \"#utility.yul\":1303:1304   */\n      0x00\n        /* \"#utility.yul\":1296:1308   */\n      revert\n        /* \"#utility.yul\":1320:1437   */\n    tag_120:\n        /* \"#utility.yul\":1429:1430   */\n      0x00\n        /* \"#utility.yul\":1426:1427   */\n      0x00\n        /* \"#utility.yul\":1419:1431   */\n      revert\n        /* \"#utility.yul\":1443:1560   */\n    tag_121:\n        /* \"#utility.yul\":1552:1553   */\n      0x00\n        /* \"#utility.yul\":1549:1550   */\n      0x00\n        /* \"#utility.yul\":1542:1554   */\n      revert\n        /* \"#utility.yul\":1579:2131   */\n    tag_122:\n        /* \"#utility.yul\":1636:1644   */\n      0x00\n        /* \"#utility.yul\":1646:1652   */\n      0x00\n        /* \"#utility.yul\":1696:1699   */\n      dup4\n        /* \"#utility.yul\":1689:1693   */\n      0x1f\n        /* \"#utility.yul\":1681:1687   */\n      dup5\n        /* \"#utility.yul\":1677:1694   */\n      add\n        /* \"#utility.yul\":1673:1700   */\n      slt\n        /* \"#utility.yul\":1663:1785   */\n      tag_162\n      jumpi\n        /* \"#utility.yul\":1704:1783   */\n      tag_163\n      tag_119\n      jump\t// in\n    tag_163:\n        /* \"#utility.yul\":1663:1785   */\n    tag_162:\n        /* \"#utility.yul\":1817:1823   */\n      dup3\n        /* \"#utility.yul\":1804:1824   */\n      calldataload\n        /* \"#utility.yul\":1794:1824   */\n      swap1\n      pop\n        /* \"#utility.yul\":1847:1865   */\n      0xffffffffffffffff\n        /* \"#utility.yul\":1839:1845   */\n      dup2\n        /* \"#utility.yul\":1836:1866   */\n      gt\n        /* \"#utility.yul\":1833:1950   */\n      iszero\n      tag_164\n      jumpi\n        /* \"#utility.yul\":1869:1948   */\n      tag_165\n      tag_120\n      jump\t// in\n    tag_165:\n        /* \"#utility.yul\":1833:1950   */\n    tag_164:\n        /* \"#utility.yul\":1983:1987   */\n      0x20\n        /* \"#utility.yul\":1975:1981   */\n      dup4\n        /* \"#utility.yul\":1971:1988   */\n      add\n        /* \"#utility.yul\":1959:1988   */\n      swap2\n      pop\n        /* \"#utility.yul\":2037:2040   */\n      dup4\n        /* \"#utility.yul\":2029:2033   */\n      0x01\n        /* \"#utility.yul\":2021:2027   */\n      dup3\n        /* \"#utility.yul\":2017:2034   */\n      mul\n        /* \"#utility.yul\":2007:2015   */\n      dup4\n        /* \"#utility.yul\":2003:2035   */\n      add\n        /* \"#utility.yul\":2000:2041   */\n      gt\n        /* \"#utility.yul\":1997:2125   */\n      iszero\n      tag_166\n      jumpi\n        /* \"#utility.yul\":2044:2123   */\n      tag_167\n      tag_121\n      jump\t// in\n    tag_167:\n        /* \"#utility.yul\":1997:2125   */\n    tag_166:\n        /* \"#utility.yul\":1579:2131   */\n      swap3\n      pop\n      swap3\n      swap1\n      pop\n      jump\t// out\n        /* \"#utility.yul\":2137:3100   */\n    tag_14:\n        /* \"#utility.yul\":2234:2240   */\n      0x00\n        /* \"#utility.yul\":2242:2248   */\n      0x00\n        /* \"#utility.yul\":2250:2256   */\n      0x00\n        /* \"#utility.yul\":2258:2264   */\n      0x00\n        /* \"#utility.yul\":2266:2272   */\n      0x00\n        /* \"#utility.yul\":2315:2318   */\n      0x80\n        /* \"#utility.yul\":2303:2312   */\n      dup7\n        /* \"#utility.yul\":2294:2301   */\n      dup9\n        /* \"#utility.yul\":2290:2313   */\n      sub\n        /* \"#utility.yul\":2286:2319   */\n      slt\n        /* \"#utility.yul\":2283:2403   */\n      iszero\n      tag_169\n      jumpi\n        /* \"#utility.yul\":2322:2401   */\n      tag_170\n      tag_110\n      jump\t// in\n    tag_170:\n        /* \"#utility.yul\":2283:2403   */\n    tag_169:\n        /* \"#utility.yul\":2442:2443   */\n      0x00\n        /* \"#utility.yul\":2467:2520   */\n      tag_171\n        /* \"#utility.yul\":2512:2519   */\n      dup9\n        /* \"#utility.yul\":2503:2509   */\n      dup3\n        /* \"#utility.yul\":2492:2501   */\n      dup10\n        /* \"#utility.yul\":2488:2510   */\n      add\n        /* \"#utility.yul\":2467:2520   */\n      tag_115\n      jump\t// in\n    tag_171:\n        /* \"#utility.yul\":2457:2520   */\n      swap6\n      pop\n        /* \"#utility.yul\":2413:2530   */\n      pop\n        /* \"#utility.yul\":2569:2571   */\n      0x20\n        /* \"#utility.yul\":2595:2648   */\n      tag_172\n        /* \"#utility.yul\":2640:2647   */\n      dup9\n        /* \"#utility.yul\":2631:2637   */\n      dup3\n        /* \"#utility.yul\":2620:2629   */\n      dup10\n        /* \"#utility.yul\":2616:2638   */\n      add\n        /* \"#utility.yul\":2595:2648   */\n      tag_115\n      jump\t// in\n    tag_172:\n        /* \"#utility.yul\":2585:2648   */\n      swap5\n      pop\n        /* \"#utility.yul\":2540:2658   */\n      pop\n        /* \"#utility.yul\":2697:2699   */\n      0x40\n        /* \"#utility.yul\":2723:2776   */\n      tag_173\n        /* \"#utility.yul\":2768:2775   */\n      dup9\n        /* \"#utility.yul\":2759:2765   */\n      dup3\n        /* \"#utility.yul\":2748:2757   */\n      dup10\n        /* \"#utility.yul\":2744:2766   */\n      add\n        /* \"#utility.yul\":2723:2776   */\n      tag_118\n      jump\t// in\n    tag_173:\n        /* \"#utility.yul\":2713:2776   */\n      swap4\n      pop\n        /* \"#utility.yul\":2668:2786   */\n      pop\n        /* \"#utility.yul\":2853:2855   */\n      0x60\n        /* \"#utility.yul\":2842:2851   */\n      dup7\n        /* \"#utility.yul\":2838:2856   */\n      add\n        /* \"#utility.yul\":2825:2857   */\n      calldataload\n        /* \"#utility.yul\":2884:2902   */\n      0xffffffffffffffff\n        /* \"#utility.yul\":2876:2882   */\n      dup2\n        /* \"#utility.yul\":2873:2903   */\n      gt\n        /* \"#utility.yul\":2870:2987   */\n      iszero\n      tag_174\n      jumpi\n        /* \"#utility.yul\":2906:2985   */\n      tag_175\n      tag_111\n      jump\t// in\n    tag_175:\n        /* \"#utility.yul\":2870:2987   */\n    tag_174:\n        /* \"#utility.yul\":3019:3083   */\n      tag_176\n        /* \"#utility.yul\":3075:3082   */\n      dup9\n        /* \"#utility.yul\":3066:3072   */\n      dup3\n        /* \"#utility.yul\":3055:3064   */\n      dup10\n        /* \"#utility.yul\":3051:3073   */\n      add\n        /* \"#utility.yul\":3019:3083   */\n      tag_122\n      jump\t// in\n    tag_176:\n        /* \"#utility.yul\":3001:3083   */\n      swap3\n      pop\n      swap3\n      pop\n        /* \"#utility.yul\":2796:3093   */\n      pop\n        /* \"#utility.yul\":2137:3100   */\n      swap3\n      swap6\n      pop\n      swap3\n      swap6\n      swap1\n      swap4\n      pop\n      jump\t// out\n        /* \"#utility.yul\":3106:3255   */\n    tag_123:\n        /* \"#utility.yul\":3142:3149   */\n      0x00\n        /* \"#utility.yul\":3182:3248   */\n      0xffffffff00000000000000000000000000000000000000000000000000000000\n        /* \"#utility.yul\":3175:3180   */\n      dup3\n        /* \"#utility.yul\":3171:3249   */\n      and\n        /* \"#utility.yul\":3160:3249   */\n      swap1\n      pop\n        /* \"#utility.yul\":3106:3255   */\n      swap2\n      swap1\n      pop\n      jump\t// out\n        /* \"#utility.yul\":3261:3376   */\n    tag_124:\n        /* \"#utility.yul\":3346:3369   */\n      tag_179\n        /* \"#utility.yul\":3363:3368   */\n      dup2\n        /* \"#utility.yul\":3346:3369   */\n      tag_123\n      jump\t// in\n    tag_179:\n        /* \"#utility.yul\":3341:3344   */\n      dup3\n        /* \"#utility.yul\":3334:3370   */\n      mstore\n        /* \"#utility.yul\":3261:3376   */\n      pop\n      pop\n      jump\t// out\n        /* \"#utility.yul\":3382:3600   */\n    tag_17:\n        /* \"#utility.yul\":3473:3477   */\n      0x00\n        /* \"#utility.yul\":3511:3513   */\n      0x20\n        /* \"#utility.yul\":3500:3509   */\n      dup3\n        /* \"#utility.yul\":3496:3514   */\n      add\n        /* \"#utility.yul\":3488:3514   */\n      swap1\n      pop\n        /* \"#utility.yul\":3524:3593   */\n      tag_181\n        /* \"#utility.yul\":3590:3591   */\n      0x00\n        /* \"#utility.yul\":3579:3588   */\n      dup4\n        /* \"#utility.yul\":3575:3592   */\n      add\n        /* \"#utility.yul\":3566:3572   */\n      dup5\n        /* \"#utility.yul\":3524:3593   */\n      tag_124\n      jump\t// in\n    tag_181:\n        /* \"#utility.yul\":3382:3600   */\n      swap3\n      swap2\n      pop\n      pop\n      jump\t// out\n        /* \"#utility.yul\":3606:4080   */\n    tag_20:\n        /* \"#utility.yul\":3674:3680   */\n      0x00\n        /* \"#utility.yul\":3682:3688   */\n      0x00\n        /* \"#utility.yul\":3731:3733   */\n      0x40\n        /* \"#utility.yul\":3719:3728   */\n      dup4\n        /* \"#utility.yul\":3710:3717   */\n      dup6\n        /* \"#utility.yul\":3706:3729   */\n      sub\n        /* \"#utility.yul\":3702:3734   */\n      slt\n        /* \"#utility.yul\":3699:3818   */\n      iszero\n      tag_183\n      jumpi\n        /* \"#utility.yul\":3737:3816   */\n      tag_184\n      tag_110\n      jump\t// in\n    tag_184:\n        /* \"#utility.yul\":3699:3818   */\n    tag_183:\n        /* \"#utility.yul\":3857:3858   */\n      0x00\n        /* \"#utility.yul\":3882:3935   */\n      tag_185\n        /* \"#utility.yul\":3927:3934   */\n      dup6\n        /* \"#utility.yul\":3918:3924   */\n      dup3\n        /* \"#utility.yul\":3907:3916   */\n      dup7\n        /* \"#utility.yul\":3903:3925   */\n      add\n        /* \"#utility.yul\":3882:3935   */\n      tag_115\n      jump\t// in\n    tag_185:\n        /* \"#utility.yul\":3872:3935   */\n      swap3\n      pop\n        /* \"#utility.yul\":3828:3945   */\n      pop\n        /* \"#utility.yul\":3984:3986   */\n      0x20\n        /* \"#utility.yul\":4010:4063   */\n      tag_186\n        /* \"#utility.yul\":4055:4062   */\n      dup6\n        /* \"#utility.yul\":4046:4052   */\n      dup3\n        /* \"#utility.yul\":4035:4044   */\n      dup7\n        /* \"#utility.yul\":4031:4053   */\n      add\n        /* \"#utility.yul\":4010:4063   */\n      tag_118\n      jump\t// in\n    tag_186:\n        /* \"#utility.yul\":4000:4063   */\n      swap2\n      pop\n        /* \"#utility.yul\":3955:4073   */\n      pop\n        /* \"#utility.yul\":3606:4080   */\n      swap3\n      pop\n      swap3\n      swap1\n      pop\n      jump\t// out\n        /* \"#utility.yul\":4086:4204   */\n    tag_125:\n        /* \"#utility.yul\":4173:4197   */\n      tag_188\n        /* \"#utility.yul\":4191:4196   */\n      dup2\n        /* \"#utility.yul\":4173:4197   */\n      tag_113\n      jump\t// in\n    tag_188:\n        /* \"#utility.yul\":4168:4171   */\n      dup3\n        /* \"#utility.yul\":4161:4198   */\n      mstore\n        /* \"#utility.yul\":4086:4204   */\n      pop\n      pop\n      jump\t// out\n        /* \"#utility.yul\":4210:4328   */\n    tag_126:\n        /* \"#utility.yul\":4297:4321   */\n      tag_190\n        /* \"#utility.yul\":4315:4320   */\n      dup2\n        /* \"#utility.yul\":4297:4321   */\n      tag_116\n      jump\t// in\n    tag_190:\n        /* \"#utility.yul\":4292:4295   */\n      dup3\n        /* \"#utility.yul\":4285:4322   */\n      mstore\n        /* \"#utility.yul\":4210:4328   */\n      pop\n      pop\n      jump\t// out\n        /* \"#utility.yul\":4334:4666   */\n    tag_27:\n        /* \"#utility.yul\":4455:4459   */\n      0x00\n        /* \"#utility.yul\":4493:4495   */\n      0x40\n        /* \"#utility.yul\":4482:4491   */\n      dup3\n        /* \"#utility.yul\":4478:4496   */\n      add\n        /* \"#utility.yul\":4470:4496   */\n      swap1\n      pop\n        /* \"#utility.yul\":4506:4577   */\n      tag_192\n        /* \"#utility.yul\":4574:4575   */\n      0x00\n        /* \"#utility.yul\":4563:4572   */\n      dup4\n        /* \"#utility.yul\":4559:4576   */\n      add\n        /* \"#utility.yul\":4550:4556   */\n      dup6\n        /* \"#utility.yul\":4506:4577   */\n      tag_125\n      jump\t// in\n    tag_192:\n        /* \"#utility.yul\":4587:4659   */\n      tag_193\n        /* \"#utility.yul\":4655:4657   */\n      0x20\n        /* \"#utility.yul\":4644:4653   */\n      dup4\n        /* \"#utility.yul\":4640:4658   */\n      add\n        /* \"#utility.yul\":4631:4637   */\n      dup5\n        /* \"#utility.yul\":4587:4659   */\n      tag_126\n      jump\t// in\n    tag_193:\n        /* \"#utility.yul\":4334:4666   */\n      swap4\n      swap3\n      pop\n      pop\n      pop\n      jump\t// out\n        /* \"#utility.yul\":4672:5291   */\n    tag_31:\n        /* \"#utility.yul\":4749:4755   */\n      0x00\n        /* \"#utility.yul\":4757:4763   */\n      0x00\n        /* \"#utility.yul\":4765:4771   */\n      0x00\n        /* \"#utility.yul\":4814:4816   */\n      0x60\n        /* \"#utility.yul\":4802:4811   */\n      dup5\n        /* \"#utility.yul\":4793:4800   */\n      dup7\n        /* \"#utility.yul\":4789:4812   */\n      sub\n        /* \"#utility.yul\":4785:4817   */\n      slt\n        /* \"#utility.yul\":4782:4901   */\n      iszero\n      tag_195\n      jumpi\n        /* \"#utility.yul\":4820:4899   */\n      tag_196\n      tag_110\n      jump\t// in\n    tag_196:\n        /* \"#utility.yul\":4782:4901   */\n    tag_195:\n        /* \"#utility.yul\":4940:4941   */\n      0x00\n        /* \"#utility.yul\":4965:5018   */\n      tag_197\n        /* \"#utility.yul\":5010:5017   */\n      dup7\n        /* \"#utility.yul\":5001:5007   */\n      dup3\n        /* \"#utility.yul\":4990:4999   */\n      dup8\n        /* \"#utility.yul\":4986:5008   */\n      add\n        /* \"#utility.yul\":4965:5018   */\n      tag_115\n      jump\t// in\n    tag_197:\n        /* \"#utility.yul\":4955:5018   */\n      swap4\n      pop\n        /* \"#utility.yul\":4911:5028   */\n      pop\n        /* \"#utility.yul\":5067:5069   */\n      0x20\n        /* \"#utility.yul\":5093:5146   */\n      tag_198\n        /* \"#utility.yul\":5138:5145   */\n      dup7\n        /* \"#utility.yul\":5129:5135   */\n      dup3\n        /* \"#utility.yul\":5118:5127   */\n      dup8\n        /* \"#utility.yul\":5114:5136   */\n      add\n        /* \"#utility.yul\":5093:5146   */\n      tag_118\n      jump\t// in\n    tag_198:\n        /* \"#utility.yul\":5083:5146   */\n      swap3\n      pop\n        /* \"#utility.yul\":5038:5156   */\n      pop\n        /* \"#utility.yul\":5195:5197   */\n      0x40\n        /* \"#utility.yul\":5221:5274   */\n      tag_199\n        /* \"#utility.yul\":5266:5273   */\n      dup7\n        /* \"#utility.yul\":5257:5263   */\n      dup3\n        /* \"#utility.yul\":5246:5255   */\n      dup8\n        /* \"#utility.yul\":5242:5264   */\n      add\n        /* \"#utility.yul\":5221:5274   */\n      tag_118\n      jump\t// in\n    tag_199:\n        /* \"#utility.yul\":5211:5274   */\n      swap2\n      pop\n        /* \"#utility.yul\":5166:5284   */\n      pop\n        /* \"#utility.yul\":4672:5291   */\n      swap3\n      pop\n      swap3\n      pop\n      swap3\n      jump\t// out\n        /* \"#utility.yul\":5297:5519   */\n    tag_44:\n        /* \"#utility.yul\":5390:5394   */\n      0x00\n        /* \"#utility.yul\":5428:5430   */\n      0x20\n        /* \"#utility.yul\":5417:5426   */\n      dup3\n        /* \"#utility.yul\":5413:5431   */\n      add\n        /* \"#utility.yul\":5405:5431   */\n      swap1\n      pop\n        /* \"#utility.yul\":5441:5512   */\n      tag_201\n        /* \"#utility.yul\":5509:5510   */\n      0x00\n        /* \"#utility.yul\":5498:5507   */\n      dup4\n        /* \"#utility.yul\":5494:5511   */\n      add\n        /* \"#utility.yul\":5485:5491   */\n      dup5\n        /* \"#utility.yul\":5441:5512   */\n      tag_126\n      jump\t// in\n    tag_201:\n        /* \"#utility.yul\":5297:5519   */\n      swap3\n      swap2\n      pop\n      pop\n      jump\t// out\n        /* \"#utility.yul\":5525:5668   */\n    tag_127:\n        /* \"#utility.yul\":5582:5587   */\n      0x00\n        /* \"#utility.yul\":5613:5619   */\n      dup2\n        /* \"#utility.yul\":5607:5620   */\n      mload\n        /* \"#utility.yul\":5598:5620   */\n      swap1\n      pop\n        /* \"#utility.yul\":5629:5662   */\n      tag_203\n        /* \"#utility.yul\":5656:5661   */\n      dup2\n        /* \"#utility.yul\":5629:5662   */\n      tag_114\n      jump\t// in\n    tag_203:\n        /* \"#utility.yul\":5525:5668   */\n      swap3\n      swap2\n      pop\n      pop\n      jump\t// out\n        /* \"#utility.yul\":5674:6025   */\n    tag_48:\n        /* \"#utility.yul\":5744:5750   */\n      0x00\n        /* \"#utility.yul\":5793:5795   */\n      0x20\n        /* \"#utility.yul\":5781:5790   */\n      dup3\n        /* \"#utility.yul\":5772:5779   */\n      dup5\n        /* \"#utility.yul\":5768:5791   */\n      sub\n        /* \"#utility.yul\":5764:5796   */\n      slt\n        /* \"#utility.yul\":5761:5880   */\n      iszero\n      tag_205\n      jumpi\n        /* \"#utility.yul\":5799:5878   */\n      tag_206\n      tag_110\n      jump\t// in\n    tag_206:\n        /* \"#utility.yul\":5761:5880   */\n    tag_205:\n        /* \"#utility.yul\":5919:5920   */\n      0x00\n        /* \"#utility.yul\":5944:6008   */\n      tag_207\n        /* \"#utility.yul\":6000:6007   */\n      dup5\n        /* \"#utility.yul\":5991:5997   */\n      dup3\n        /* \"#utility.yul\":5980:5989   */\n      dup6\n        /* \"#utility.yul\":5976:5998   */\n      add\n        /* \"#utility.yul\":5944:6008   */\n      tag_127\n      jump\t// in\n    tag_207:\n        /* \"#utility.yul\":5934:6008   */\n      swap2\n      pop\n        /* \"#utility.yul\":5890:6018   */\n      pop\n        /* \"#utility.yul\":5674:6025   */\n      swap3\n      swap2\n      pop\n      pop\n      jump\t// out\n        /* \"#utility.yul\":6031:6200   */\n    tag_128:\n        /* \"#utility.yul\":6115:6126   */\n      0x00\n        /* \"#utility.yul\":6149:6155   */\n      dup3\n        /* \"#utility.yul\":6144:6147   */\n      dup3\n        /* \"#utility.yul\":6137:6156   */\n      mstore\n        /* \"#utility.yul\":6189:6193   */\n      0x20\n        /* \"#utility.yul\":6184:6187   */\n      dup3\n        /* \"#utility.yul\":6180:6194   */\n      add\n        /* \"#utility.yul\":6165:6194   */\n      swap1\n      pop\n        /* \"#utility.yul\":6031:6200   */\n      swap3\n      swap2\n      pop\n      pop\n      jump\t// out\n        /* \"#utility.yul\":6206:6369   */\n    tag_129:\n        /* \"#utility.yul\":6346:6361   */\n      0x496e76616c6964204f7264657200000000000000000000000000000000000000\n        /* \"#utility.yul\":6342:6343   */\n      0x00\n        /* \"#utility.yul\":6334:6340   */\n      dup3\n        /* \"#utility.yul\":6330:6344   */\n      add\n        /* \"#utility.yul\":6323:6362   */\n      mstore\n        /* \"#utility.yul\":6206:6369   */\n      pop\n      jump\t// out\n        /* \"#utility.yul\":6375:6741   */\n    tag_130:\n        /* \"#utility.yul\":6517:6520   */\n      0x00\n        /* \"#utility.yul\":6538:6605   */\n      tag_211\n        /* \"#utility.yul\":6602:6604   */\n      0x0d\n        /* \"#utility.yul\":6597:6600   */\n      dup4\n        /* \"#utility.yul\":6538:6605   */\n      tag_128\n      jump\t// in\n    tag_211:\n        /* \"#utility.yul\":6531:6605   */\n      swap2\n      pop\n        /* \"#utility.yul\":6614:6707   */\n      tag_212\n        /* \"#utility.yul\":6703:6706   */\n      dup3\n        /* \"#utility.yul\":6614:6707   */\n      tag_129\n      jump\t// in\n    tag_212:\n        /* \"#utility.yul\":6732:6734   */\n      0x20\n        /* \"#utility.yul\":6727:6730   */\n      dup3\n        /* \"#utility.yul\":6723:6735   */\n      add\n        /* \"#utility.yul\":6716:6735   */\n      swap1\n      pop\n        /* \"#utility.yul\":6375:6741   */\n      swap2\n      swap1\n      pop\n      jump\t// out\n        /* \"#utility.yul\":6747:7166   */\n    tag_51:\n        /* \"#utility.yul\":6913:6917   */\n      0x00\n        /* \"#utility.yul\":6951:6953   */\n      0x20\n        /* \"#utility.yul\":6940:6949   */\n      dup3\n        /* \"#utility.yul\":6936:6954   */\n      add\n        /* \"#utility.yul\":6928:6954   */\n      swap1\n      pop\n        /* \"#utility.yul\":7000:7009   */\n      dup2\n        /* \"#utility.yul\":6994:6998   */\n      dup2\n        /* \"#utility.yul\":6990:7010   */\n      sub\n        /* \"#utility.yul\":6986:6987   */\n      0x00\n        /* \"#utility.yul\":6975:6984   */\n      dup4\n        /* \"#utility.yul\":6971:6988   */\n      add\n        /* \"#utility.yul\":6964:7011   */\n      mstore\n        /* \"#utility.yul\":7028:7159   */\n      tag_214\n        /* \"#utility.yul\":7154:7158   */\n      dup2\n        /* \"#utility.yul\":7028:7159   */\n      tag_130\n      jump\t// in\n    tag_214:\n        /* \"#utility.yul\":7020:7159   */\n      swap1\n      pop\n        /* \"#utility.yul\":6747:7166   */\n      swap2\n      swap1\n      pop\n      jump\t// out\n        /* \"#utility.yul\":7172:7335   */\n    tag_131:\n        /* \"#utility.yul\":7312:7327   */\n      0x496e76616c696420507269636500000000000000000000000000000000000000\n        /* \"#utility.yul\":7308:7309   */\n      0x00\n        /* \"#utility.yul\":7300:7306   */\n      dup3\n        /* \"#utility.yul\":7296:7310   */\n      add\n        /* \"#utility.yul\":7289:7328   */\n      mstore\n        /* \"#utility.yul\":7172:7335   */\n      pop\n      jump\t// out\n        /* \"#utility.yul\":7341:7707   */\n    tag_132:\n        /* \"#utility.yul\":7483:7486   */\n      0x00\n        /* \"#utility.yul\":7504:7571   */\n      tag_217\n        /* \"#utility.yul\":7568:7570   */\n      0x0d\n        /* \"#utility.yul\":7563:7566   */\n      dup4\n        /* \"#utility.yul\":7504:7571   */\n      tag_128\n      jump\t// in\n    tag_217:\n        /* \"#utility.yul\":7497:7571   */\n      swap2\n      pop\n        /* \"#utility.yul\":7580:7673   */\n      tag_218\n        /* \"#utility.yul\":7669:7672   */\n      dup3\n        /* \"#utility.yul\":7580:7673   */\n      tag_131\n      jump\t// in\n    tag_218:\n        /* \"#utility.yul\":7698:7700   */\n      0x20\n        /* \"#utility.yul\":7693:7696   */\n      dup3\n        /* \"#utility.yul\":7689:7701   */\n      add\n        /* \"#utility.yul\":7682:7701   */\n      swap1\n      pop\n        /* \"#utility.yul\":7341:7707   */\n      swap2\n      swap1\n      pop\n      jump\t// out\n        /* \"#utility.yul\":7713:8132   */\n    tag_54:\n        /* \"#utility.yul\":7879:7883   */\n      0x00\n        /* \"#utility.yul\":7917:7919   */\n      0x20\n        /* \"#utility.yul\":7906:7915   */\n      dup3\n        /* \"#utility.yul\":7902:7920   */\n      add\n        /* \"#utility.yul\":7894:7920   */\n      swap1\n      pop\n        /* \"#utility.yul\":7966:7975   */\n      dup2\n        /* \"#utility.yul\":7960:7964   */\n      dup2\n        /* \"#utility.yul\":7956:7976   */\n      sub\n        /* \"#utility.yul\":7952:7953   */\n      0x00\n        /* \"#utility.yul\":7941:7950   */\n      dup4\n        /* \"#utility.yul\":7937:7954   */\n      add\n        /* \"#utility.yul\":7930:7977   */\n      mstore\n        /* \"#utility.yul\":7994:8125   */\n      tag_220\n        /* \"#utility.yul\":8120:8124   */\n      dup2\n        /* \"#utility.yul\":7994:8125   */\n      tag_132\n      jump\t// in\n    tag_220:\n        /* \"#utility.yul\":7986:8125   */\n      swap1\n      pop\n        /* \"#utility.yul\":7713:8132   */\n      swap2\n      swap1\n      pop\n      jump\t// out\n        /* \"#utility.yul\":8138:8302   */\n    tag_133:\n        /* \"#utility.yul\":8278:8294   */\n      0x496e637265617365207072696365000000000000000000000000000000000000\n        /* \"#utility.yul\":8274:8275   */\n      0x00\n        /* \"#utility.yul\":8266:8272   */\n      dup3\n        /* \"#utility.yul\":8262:8276   */\n      add\n        /* \"#utility.yul\":8255:8295   */\n      mstore\n        /* \"#utility.yul\":8138:8302   */\n      pop\n      jump\t// out\n        /* \"#utility.yul\":8308:8674   */\n    tag_134:\n        /* \"#utility.yul\":8450:8453   */\n      0x00\n        /* \"#utility.yul\":8471:8538   */\n      tag_223\n        /* \"#utility.yul\":8535:8537   */\n      0x0e\n        /* \"#utility.yul\":8530:8533   */\n      dup4\n        /* \"#utility.yul\":8471:8538   */\n      tag_128\n      jump\t// in\n    tag_223:\n        /* \"#utility.yul\":8464:8538   */\n      swap2\n      pop\n        /* \"#utility.yul\":8547:8640   */\n      tag_224\n        /* \"#utility.yul\":8636:8639   */\n      dup3\n        /* \"#utility.yul\":8547:8640   */\n      tag_133\n      jump\t// in\n    tag_224:\n        /* \"#utility.yul\":8665:8667   */\n      0x20\n        /* \"#utility.yul\":8660:8663   */\n      dup3\n        /* \"#utility.yul\":8656:8668   */\n      add\n        /* \"#utility.yul\":8649:8668   */\n      swap1\n      pop\n        /* \"#utility.yul\":8308:8674   */\n      swap2\n      swap1\n      pop\n      jump\t// out\n        /* \"#utility.yul\":8680:9099   */\n    tag_57:\n        /* \"#utility.yul\":8846:8850   */\n      0x00\n        /* \"#utility.yul\":8884:8886   */\n      0x20\n        /* \"#utility.yul\":8873:8882   */\n      dup3\n        /* \"#utility.yul\":8869:8887   */\n      add\n        /* \"#utility.yul\":8861:8887   */\n      swap1\n      pop\n        /* \"#utility.yul\":8933:8942   */\n      dup2\n        /* \"#utility.yul\":8927:8931   */\n      dup2\n        /* \"#utility.yul\":8923:8943   */\n      sub\n        /* \"#utility.yul\":8919:8920   */\n      0x00\n        /* \"#utility.yul\":8908:8917   */\n      dup4\n        /* \"#utility.yul\":8904:8921   */\n      add\n        /* \"#utility.yul\":8897:8944   */\n      mstore\n        /* \"#utility.yul\":8961:9092   */\n      tag_226\n        /* \"#utility.yul\":9087:9091   */\n      dup2\n        /* \"#utility.yul\":8961:9092   */\n      tag_134\n      jump\t// in\n    tag_226:\n        /* \"#utility.yul\":8953:9092   */\n      swap1\n      pop\n        /* \"#utility.yul\":8680:9099   */\n      swap2\n      swap1\n      pop\n      jump\t// out\n        /* \"#utility.yul\":9105:9547   */\n    tag_59:\n        /* \"#utility.yul\":9254:9258   */\n      0x00\n        /* \"#utility.yul\":9292:9294   */\n      0x60\n        /* \"#utility.yul\":9281:9290   */\n      dup3\n        /* \"#utility.yul\":9277:9295   */\n      add\n        /* \"#utility.yul\":9269:9295   */\n      swap1\n      pop\n        /* \"#utility.yul\":9305:9376   */\n      tag_228\n        /* \"#utility.yul\":9373:9374   */\n      0x00\n        /* \"#utility.yul\":9362:9371   */\n      dup4\n        /* \"#utility.yul\":9358:9375   */\n      add\n        /* \"#utility.yul\":9349:9355   */\n      dup7\n        /* \"#utility.yul\":9305:9376   */\n      tag_125\n      jump\t// in\n    tag_228:\n        /* \"#utility.yul\":9386:9458   */\n      tag_229\n        /* \"#utility.yul\":9454:9456   */\n      0x20\n        /* \"#utility.yul\":9443:9452   */\n      dup4\n        /* \"#utility.yul\":9439:9457   */\n      add\n        /* \"#utility.yul\":9430:9436   */\n      dup6\n        /* \"#utility.yul\":9386:9458   */\n      tag_125\n      jump\t// in\n    tag_229:\n        /* \"#utility.yul\":9468:9540   */\n      tag_230\n        /* \"#utility.yul\":9536:9538   */\n      0x40\n        /* \"#utility.yul\":9525:9534   */\n      dup4\n        /* \"#utility.yul\":9521:9539   */\n      add\n        /* \"#utility.yul\":9512:9518   */\n      dup5\n        /* \"#utility.yul\":9468:9540   */\n      tag_126\n      jump\t// in\n    tag_230:\n        /* \"#utility.yul\":9105:9547   */\n      swap5\n      swap4\n      pop\n      pop\n      pop\n      pop\n      jump\t// out\n        /* \"#utility.yul\":9553:9733   */\n    tag_135:\n        /* \"#utility.yul\":9601:9678   */\n      0x4e487b7100000000000000000000000000000000000000000000000000000000\n        /* \"#utility.yul\":9598:9599   */\n      0x00\n        /* \"#utility.yul\":9591:9679   */\n      mstore\n        /* \"#utility.yul\":9698:9702   */\n      0x11\n        /* \"#utility.yul\":9695:9696   */\n      0x04\n        /* \"#utility.yul\":9688:9703   */\n      mstore\n        /* \"#utility.yul\":9722:9726   */\n      0x24\n        /* \"#utility.yul\":9719:9720   */\n      0x00\n        /* \"#utility.yul\":9712:9727   */\n      revert\n        /* \"#utility.yul\":9739:9933   */\n    tag_67:\n        /* \"#utility.yul\":9779:9783   */\n      0x00\n        /* \"#utility.yul\":9799:9819   */\n      tag_233\n        /* \"#utility.yul\":9817:9818   */\n      dup3\n        /* \"#utility.yul\":9799:9819   */\n      tag_116\n      jump\t// in\n    tag_233:\n        /* \"#utility.yul\":9794:9819   */\n      swap2\n      pop\n        /* \"#utility.yul\":9833:9853   */\n      tag_234\n        /* \"#utility.yul\":9851:9852   */\n      dup4\n        /* \"#utility.yul\":9833:9853   */\n      tag_116\n      jump\t// in\n    tag_234:\n        /* \"#utility.yul\":9828:9853   */\n      swap3\n      pop\n        /* \"#utility.yul\":9877:9878   */\n      dup3\n        /* \"#utility.yul\":9874:9875   */\n      dup3\n        /* \"#utility.yul\":9870:9879   */\n      sub\n        /* \"#utility.yul\":9862:9879   */\n      swap1\n      pop\n        /* \"#utility.yul\":9901:9902   */\n      dup2\n        /* \"#utility.yul\":9895:9899   */\n      dup2\n        /* \"#utility.yul\":9892:9903   */\n      gt\n        /* \"#utility.yul\":9889:9926   */\n      iszero\n      tag_235\n      jumpi\n        /* \"#utility.yul\":9906:9924   */\n      tag_236\n      tag_135\n      jump\t// in\n    tag_236:\n        /* \"#utility.yul\":9889:9926   */\n    tag_235:\n        /* \"#utility.yul\":9739:9933   */\n      swap3\n      swap2\n      pop\n      pop\n      jump\t// out\n        /* \"#utility.yul\":9939:10102   */\n    tag_136:\n        /* \"#utility.yul\":10079:10094   */\n      0x4e65656420417070726f76616c00000000000000000000000000000000000000\n        /* \"#utility.yul\":10075:10076   */\n      0x00\n        /* \"#utility.yul\":10067:10073   */\n      dup3\n        /* \"#utility.yul\":10063:10077   */\n      add\n        /* \"#utility.yul\":10056:10095   */\n      mstore\n        /* \"#utility.yul\":9939:10102   */\n      pop\n      jump\t// out\n        /* \"#utility.yul\":10108:10474   */\n    tag_137:\n        /* \"#utility.yul\":10250:10253   */\n      0x00\n        /* \"#utility.yul\":10271:10338   */\n      tag_239\n        /* \"#utility.yul\":10335:10337   */\n      0x0d\n        /* \"#utility.yul\":10330:10333   */\n      dup4\n        /* \"#utility.yul\":10271:10338   */\n      tag_128\n      jump\t// in\n    tag_239:\n        /* \"#utility.yul\":10264:10338   */\n      swap2\n      pop\n        /* \"#utility.yul\":10347:10440   */\n      tag_240\n        /* \"#utility.yul\":10436:10439   */\n      dup3\n        /* \"#utility.yul\":10347:10440   */\n      tag_136\n      jump\t// in\n    tag_240:\n        /* \"#utility.yul\":10465:10467   */\n      0x20\n        /* \"#utility.yul\":10460:10463   */\n      dup3\n        /* \"#utility.yul\":10456:10468   */\n      add\n        /* \"#utility.yul\":10449:10468   */\n      swap1\n      pop\n        /* \"#utility.yul\":10108:10474   */\n      swap2\n      swap1\n      pop\n      jump\t// out\n        /* \"#utility.yul\":10480:10899   */\n    tag_88:\n        /* \"#utility.yul\":10646:10650   */\n      0x00\n        /* \"#utility.yul\":10684:10686   */\n      0x20\n        /* \"#utility.yul\":10673:10682   */\n      dup3\n        /* \"#utility.yul\":10669:10687   */\n      add\n        /* \"#utility.yul\":10661:10687   */\n      swap1\n      pop\n        /* \"#utility.yul\":10733:10742   */\n      dup2\n        /* \"#utility.yul\":10727:10731   */\n      dup2\n        /* \"#utility.yul\":10723:10743   */\n      sub\n        /* \"#utility.yul\":10719:10720   */\n      0x00\n        /* \"#utility.yul\":10708:10717   */\n      dup4\n        /* \"#utility.yul\":10704:10721   */\n      add\n        /* \"#utility.yul\":10697:10744   */\n      mstore\n        /* \"#utility.yul\":10761:10892   */\n      tag_242\n        /* \"#utility.yul\":10887:10891   */\n      dup2\n        /* \"#utility.yul\":10761:10892   */\n      tag_137\n      jump\t// in\n    tag_242:\n        /* \"#utility.yul\":10753:10892   */\n      swap1\n      pop\n        /* \"#utility.yul\":10480:10899   */\n      swap2\n      swap1\n      pop\n      jump\t// out\n        /* \"#utility.yul\":10905:11064   */\n    tag_138:\n        /* \"#utility.yul\":11045:11056   */\n      0x4e6f74204f776e65720000000000000000000000000000000000000000000000\n        /* \"#utility.yul\":11041:11042   */\n      0x00\n        /* \"#utility.yul\":11033:11039   */\n      dup3\n        /* \"#utility.yul\":11029:11043   */\n      add\n        /* \"#utility.yul\":11022:11057   */\n      mstore\n        /* \"#utility.yul\":10905:11064   */\n      pop\n      jump\t// out\n        /* \"#utility.yul\":11070:11435   */\n    tag_139:\n        /* \"#utility.yul\":11212:11215   */\n      0x00\n        /* \"#utility.yul\":11233:11299   */\n      tag_245\n        /* \"#utility.yul\":11297:11298   */\n      0x09\n        /* \"#utility.yul\":11292:11295   */\n      dup4\n        /* \"#utility.yul\":11233:11299   */\n      tag_128\n      jump\t// in\n    tag_245:\n        /* \"#utility.yul\":11226:11299   */\n      swap2\n      pop\n        /* \"#utility.yul\":11308:11401   */\n      tag_246\n        /* \"#utility.yul\":11397:11400   */\n      dup3\n        /* \"#utility.yul\":11308:11401   */\n      tag_138\n      jump\t// in\n    tag_246:\n        /* \"#utility.yul\":11426:11428   */\n      0x20\n        /* \"#utility.yul\":11421:11424   */\n      dup3\n        /* \"#utility.yul\":11417:11429   */\n      add\n        /* \"#utility.yul\":11410:11429   */\n      swap1\n      pop\n        /* \"#utility.yul\":11070:11435   */\n      swap2\n      swap1\n      pop\n      jump\t// out\n        /* \"#utility.yul\":11441:11860   */\n    tag_98:\n        /* \"#utility.yul\":11607:11611   */\n      0x00\n        /* \"#utility.yul\":11645:11647   */\n      0x20\n        /* \"#utility.yul\":11634:11643   */\n      dup3\n        /* \"#utility.yul\":11630:11648   */\n      add\n        /* \"#utility.yul\":11622:11648   */\n      swap1\n      pop\n        /* \"#utility.yul\":11694:11703   */\n      dup2\n        /* \"#utility.yul\":11688:11692   */\n      dup2\n        /* \"#utility.yul\":11684:11704   */\n      sub\n        /* \"#utility.yul\":11680:11681   */\n      0x00\n        /* \"#utility.yul\":11669:11678   */\n      dup4\n        /* \"#utility.yul\":11665:11682   */\n      add\n        /* \"#utility.yul\":11658:11705   */\n      mstore\n        /* \"#utility.yul\":11722:11853   */\n      tag_248\n        /* \"#utility.yul\":11848:11852   */\n      dup2\n        /* \"#utility.yul\":11722:11853   */\n      tag_139\n      jump\t// in\n    tag_248:\n        /* \"#utility.yul\":11714:11853   */\n      swap1\n      pop\n        /* \"#utility.yul\":11441:11860   */\n      swap2\n      swap1\n      pop\n      jump\t// out\n\n    auxdata: 0xa2646970667358221220ff12ff6426fd0c5c02e4dfe887e071e92afa30e439394e200a2cea89b6100abb64736f6c634300081e0033\n}\n",
				"bytecode": {
					"linkReferences": {},
					"object": "6080604052348015600e575f5ffd5b506112e08061001c5f395ff3fe608060405260043610610058575f3560e01c8063150b7a021461005b5780638de9322214610097578063ba5f4fb2146100b3578063d09b6d43146100f0578063dda342bb14610118578063eac449d91461014057610059565b5b005b348015610066575f5ffd5b50610081600480360381019061007c9190610dfb565b610168565b60405161008e9190610eb9565b60405180910390f35b6100b160048036038101906100ac9190610ed2565b61017c565b005b3480156100be575f5ffd5b506100d960048036038101906100d49190610ed2565b61055e565b6040516100e7929190610f2e565b60405180910390f35b3480156100fb575f5ffd5b5061011660048036038101906101119190610f55565b6105a7565b005b348015610123575f5ffd5b5061013e60048036038101906101399190610f55565b610796565b005b34801561014b575f5ffd5b5061016660048036038101906101619190610ed2565b6109f9565b005b5f63150b7a0260e01b905095945050505050565b5f8290503073ffffffffffffffffffffffffffffffffffffffff168173ffffffffffffffffffffffffffffffffffffffff16636352211e846040518263ffffffff1660e01b81526004016101d09190610fa5565b602060405180830381865afa1580156101eb573d5f5f3e3d5ffd5b505050506040513d601f19601f8201168201806040525081019061020f9190610fd2565b73ffffffffffffffffffffffffffffffffffffffff1614610265576040517f08c379a000000000000000000000000000000000000000000000000000000000815260040161025c90611057565b60405180910390fd5b5f5f5f8573ffffffffffffffffffffffffffffffffffffffff1673ffffffffffffffffffffffffffffffffffffffff1681526020019081526020015f205f8481526020019081526020015f2090505f8160010154116102f9576040517f08c379a00000000000000000000000000000000000000000000000000000000081526004016102f0906110bf565b60405180910390fd5b8060010154341015610340576040517f08c379a000000000000000000000000000000000000000000000000000000000815260040161033790611127565b60405180910390fd5b8173ffffffffffffffffffffffffffffffffffffffff166342842e0e3033866040518463ffffffff1660e01b815260040161037d93929190611145565b5f604051808303815f87803b158015610394575f5ffd5b505af11580156103a6573d5f5f3e3d5ffd5b50505050805f015f9054906101000a900473ffffffffffffffffffffffffffffffffffffffff1673ffffffffffffffffffffffffffffffffffffffff166108fc826001015490811502906040515f60405180830381858888f19350505050158015610413573d5f5f3e3d5ffd5b508060010154341115610474573373ffffffffffffffffffffffffffffffffffffffff166108fc82600101543461044a91906111a7565b90811502906040515f60405180830381858888f19350505050158015610472573d5f5f3e3d5ffd5b505b828473ffffffffffffffffffffffffffffffffffffffff163373ffffffffffffffffffffffffffffffffffffffff167f46661dab58311a6838247afecbee792192b4f27fc8b3e7168c66bc55ec2e404e84600101546040516104d69190610fa5565b60405180910390a45f5f8573ffffffffffffffffffffffffffffffffffffffff1673ffffffffffffffffffffffffffffffffffffffff1681526020019081526020015f205f8481526020019081526020015f205f5f82015f6101000a81549073ffffffffffffffffffffffffffffffffffffffff0219169055600182015f9055505050505050565b5f602052815f5260405f20602052805f5260405f205f9150915050805f015f9054906101000a900473ffffffffffffffffffffffffffffffffffffffff16908060010154905082565b5f81116105e9576040517f08c379a00000000000000000000000000000000000000000000000000000000081526004016105e0906110bf565b60405180910390fd5b5f5f5f8573ffffffffffffffffffffffffffffffffffffffff1673ffffffffffffffffffffffffffffffffffffffff1681526020019081526020015f205f8481526020019081526020015f2090505f8490503073ffffffffffffffffffffffffffffffffffffffff168173ffffffffffffffffffffffffffffffffffffffff16636352211e866040518263ffffffff1660e01b815260040161068b9190610fa5565b602060405180830381865afa1580156106a6573d5f5f3e3d5ffd5b505050506040513d601f19601f820116820180604052508101906106ca9190610fd2565b73ffffffffffffffffffffffffffffffffffffffff1614610720576040517f08c379a000000000000000000000000000000000000000000000000000000000815260040161071790611057565b60405180910390fd5b828260010181905550838573ffffffffffffffffffffffffffffffffffffffff163373ffffffffffffffffffffffffffffffffffffffff167fb7f0ca7cd5b24651672216886135b99ff40342bcf549009a4c6fc74f059fb9a0866040516107879190610fa5565b60405180910390a45050505050565b5f8390503073ffffffffffffffffffffffffffffffffffffffff168173ffffffffffffffffffffffffffffffffffffffff1663081812fc856040518263ffffffff1660e01b81526004016107ea9190610fa5565b602060405180830381865afa158015610805573d5f5f3e3d5ffd5b505050506040513d601f19601f820116820180604052508101906108299190610fd2565b73ffffffffffffffffffffffffffffffffffffffff161461087f576040517f08c379a000000000000000000000000000000000000000000000000000000000815260040161087690611224565b60405180910390fd5b5f821161088a575f5ffd5b5f5f5f8673ffffffffffffffffffffffffffffffffffffffff1673ffffffffffffffffffffffffffffffffffffffff1681526020019081526020015f205f8581526020019081526020015f20905033815f015f6101000a81548173ffffffffffffffffffffffffffffffffffffffff021916908373ffffffffffffffffffffffffffffffffffffffff1602179055508281600101819055508173ffffffffffffffffffffffffffffffffffffffff166342842e0e3330876040518463ffffffff1660e01b815260040161095f93929190611145565b5f604051808303815f87803b158015610976575f5ffd5b505af1158015610988573d5f5f3e3d5ffd5b50505050838573ffffffffffffffffffffffffffffffffffffffff163373ffffffffffffffffffffffffffffffffffffffff167fedbdf022944a3291f4b30148903a84720506f48e10478ec5812e5caf30e1fab0866040516109ea9190610fa5565b60405180910390a45050505050565b5f5f5f8473ffffffffffffffffffffffffffffffffffffffff1673ffffffffffffffffffffffffffffffffffffffff1681526020019081526020015f205f8381526020019081526020015f2090503373ffffffffffffffffffffffffffffffffffffffff16815f015f9054906101000a900473ffffffffffffffffffffffffffffffffffffffff1673ffffffffffffffffffffffffffffffffffffffff1614610ad7576040517f08c379a0000000000000000000000000000000000000000000000000000000008152600401610ace9061128c565b60405180910390fd5b5f8390503073ffffffffffffffffffffffffffffffffffffffff168173ffffffffffffffffffffffffffffffffffffffff16636352211e856040518263ffffffff1660e01b8152600401610b2b9190610fa5565b602060405180830381865afa158015610b46573d5f5f3e3d5ffd5b505050506040513d601f19601f82011682018060405250810190610b6a9190610fd2565b73ffffffffffffffffffffffffffffffffffffffff1614610bc0576040517f08c379a0000000000000000000000000000000000000000000000000000000008152600401610bb790611057565b60405180910390fd5b8073ffffffffffffffffffffffffffffffffffffffff166342842e0e3033866040518463ffffffff1660e01b8152600401610bfd93929190611145565b5f604051808303815f87803b158015610c14575f5ffd5b505af1158015610c26573d5f5f3e3d5ffd5b505050505f5f8573ffffffffffffffffffffffffffffffffffffffff1673ffffffffffffffffffffffffffffffffffffffff1681526020019081526020015f205f8481526020019081526020015f205f5f82015f6101000a81549073ffffffffffffffffffffffffffffffffffffffff0219169055600182015f90555050828473ffffffffffffffffffffffffffffffffffffffff163373ffffffffffffffffffffffffffffffffffffffff167fb698e31a2abee5824d0d7bcfd2339aead7f9e9ae413fba50bf554ff3fa470b7b60405160405180910390a450505050565b5f5ffd5b5f5ffd5b5f73ffffffffffffffffffffffffffffffffffffffff82169050919050565b5f610d3682610d0d565b9050919050565b610d4681610d2c565b8114610d50575f5ffd5b50565b5f81359050610d6181610d3d565b92915050565b5f819050919050565b610d7981610d67565b8114610d83575f5ffd5b50565b5f81359050610d9481610d70565b92915050565b5f5ffd5b5f5ffd5b5f5ffd5b5f5f83601f840112610dbb57610dba610d9a565b5b8235905067ffffffffffffffff811115610dd857610dd7610d9e565b5b602083019150836001820283011115610df457610df3610da2565b5b9250929050565b5f5f5f5f5f60808688031215610e1457610e13610d05565b5b5f610e2188828901610d53565b9550506020610e3288828901610d53565b9450506040610e4388828901610d86565b935050606086013567ffffffffffffffff811115610e6457610e63610d09565b5b610e7088828901610da6565b92509250509295509295909350565b5f7fffffffff0000000000000000000000000000000000000000000000000000000082169050919050565b610eb381610e7f565b82525050565b5f602082019050610ecc5f830184610eaa565b92915050565b5f5f60408385031215610ee857610ee7610d05565b5b5f610ef585828601610d53565b9250506020610f0685828601610d86565b9150509250929050565b610f1981610d2c565b82525050565b610f2881610d67565b82525050565b5f604082019050610f415f830185610f10565b610f4e6020830184610f1f565b9392505050565b5f5f5f60608486031215610f6c57610f6b610d05565b5b5f610f7986828701610d53565b9350506020610f8a86828701610d86565b9250506040610f9b86828701610d86565b9150509250925092565b5f602082019050610fb85f830184610f1f565b92915050565b5f81519050610fcc81610d3d565b92915050565b5f60208284031215610fe757610fe6610d05565b5b5f610ff484828501610fbe565b91505092915050565b5f82825260208201905092915050565b7f496e76616c6964204f72646572000000000000000000000000000000000000005f82015250565b5f611041600d83610ffd565b915061104c8261100d565b602082019050919050565b5f6020820190508181035f83015261106e81611035565b9050919050565b7f496e76616c6964205072696365000000000000000000000000000000000000005f82015250565b5f6110a9600d83610ffd565b91506110b482611075565b602082019050919050565b5f6020820190508181035f8301526110d68161109d565b9050919050565b7f496e6372656173652070726963650000000000000000000000000000000000005f82015250565b5f611111600e83610ffd565b915061111c826110dd565b602082019050919050565b5f6020820190508181035f83015261113e81611105565b9050919050565b5f6060820190506111585f830186610f10565b6111656020830185610f10565b6111726040830184610f1f565b949350505050565b7f4e487b71000000000000000000000000000000000000000000000000000000005f52601160045260245ffd5b5f6111b182610d67565b91506111bc83610d67565b92508282039050818111156111d4576111d361117a565b5b92915050565b7f4e65656420417070726f76616c000000000000000000000000000000000000005f82015250565b5f61120e600d83610ffd565b9150611219826111da565b602082019050919050565b5f6020820190508181035f83015261123b81611202565b9050919050565b7f4e6f74204f776e657200000000000000000000000000000000000000000000005f82015250565b5f611276600983610ffd565b915061128182611242565b602082019050919050565b5f6020820190508181035f8301526112a38161126a565b905091905056fea2646970667358221220ff12ff6426fd0c5c02e4dfe887e071e92afa30e439394e200a2cea89b6100abb64736f6c634300081e0033",
					"opcodes": "PUSH1 0x80 PUSH1 0x40 MSTORE CALLVALUE DUP1 ISZERO PUSH1 0xE JUMPI PUSH0 PUSH0 REVERT JUMPDEST POP PUSH2 0x12E0 DUP1 PUSH2 0x1C PUSH0 CODECOPY PUSH0 RETURN INVALID PUSH1 0x80 PUSH1 0x40 MSTORE PUSH1 0x4 CALLDATASIZE LT PUSH2 0x58 JUMPI PUSH0 CALLDATALOAD PUSH1 0xE0 SHR DUP1 PUSH4 0x150B7A02 EQ PUSH2 0x5B JUMPI DUP1 PUSH4 0x8DE93222 EQ PUSH2 0x97 JUMPI DUP1 PUSH4 0xBA5F4FB2 EQ PUSH2 0xB3 JUMPI DUP1 PUSH4 0xD09B6D43 EQ PUSH2 0xF0 JUMPI DUP1 PUSH4 0xDDA342BB EQ PUSH2 0x118 JUMPI DUP1 PUSH4 0xEAC449D9 EQ PUSH2 0x140 JUMPI PUSH2 0x59 JUMP JUMPDEST JUMPDEST STOP JUMPDEST CALLVALUE DUP1 ISZERO PUSH2 0x66 JUMPI PUSH0 PUSH0 REVERT JUMPDEST POP PUSH2 0x81 PUSH1 0x4 DUP1 CALLDATASIZE SUB DUP2 ADD SWAP1 PUSH2 0x7C SWAP2 SWAP1 PUSH2 0xDFB JUMP JUMPDEST PUSH2 0x168 JUMP JUMPDEST PUSH1 0x40 MLOAD PUSH2 0x8E SWAP2 SWAP1 PUSH2 0xEB9 JUMP JUMPDEST PUSH1 0x40 MLOAD DUP1 SWAP2 SUB SWAP1 RETURN JUMPDEST PUSH2 0xB1 PUSH1 0x4 DUP1 CALLDATASIZE SUB DUP2 ADD SWAP1 PUSH2 0xAC SWAP2 SWAP1 PUSH2 0xED2 JUMP JUMPDEST PUSH2 0x17C JUMP JUMPDEST STOP JUMPDEST CALLVALUE DUP1 ISZERO PUSH2 0xBE JUMPI PUSH0 PUSH0 REVERT JUMPDEST POP PUSH2 0xD9 PUSH1 0x4 DUP1 CALLDATASIZE SUB DUP2 ADD SWAP1 PUSH2 0xD4 SWAP2 SWAP1 PUSH2 0xED2 JUMP JUMPDEST PUSH2 0x55E JUMP JUMPDEST PUSH1 0x40 MLOAD PUSH2 0xE7 SWAP3 SWAP2 SWAP1 PUSH2 0xF2E JUMP JUMPDEST PUSH1 0x40 MLOAD DUP1 SWAP2 SUB SWAP1 RETURN JUMPDEST CALLVALUE DUP1 ISZERO PUSH2 0xFB JUMPI PUSH0 PUSH0 REVERT JUMPDEST POP PUSH2 0x116 PUSH1 0x4 DUP1 CALLDATASIZE SUB DUP2 ADD SWAP1 PUSH2 0x111 SWAP2 SWAP1 PUSH2 0xF55 JUMP JUMPDEST PUSH2 0x5A7 JUMP JUMPDEST STOP JUMPDEST CALLVALUE DUP1 ISZERO PUSH2 0x123 JUMPI PUSH0 PUSH0 REVERT JUMPDEST POP PUSH2 0x13E PUSH1 0x4 DUP1 CALLDATASIZE SUB DUP2 ADD SWAP1 PUSH2 0x139 SWAP2 SWAP1 PUSH2 0xF55 JUMP JUMPDEST PUSH2 0x796 JUMP JUMPDEST STOP JUMPDEST CALLVALUE DUP1 ISZERO PUSH2 0x14B JUMPI PUSH0 PUSH0 REVERT JUMPDEST POP PUSH2 0x166 PUSH1 0x4 DUP1 CALLDATASIZE SUB DUP2 ADD SWAP1 PUSH2 0x161 SWAP2 SWAP1 PUSH2 0xED2 JUMP JUMPDEST PUSH2 0x9F9 JUMP JUMPDEST STOP JUMPDEST PUSH0 PUSH4 0x150B7A02 PUSH1 0xE0 SHL SWAP1 POP SWAP6 SWAP5 POP POP POP POP POP JUMP JUMPDEST PUSH0 DUP3 SWAP1 POP ADDRESS PUSH20 0xFFFFFFFFFFFFFFFFFFFFFFFFFFFFFFFFFFFFFFFF AND DUP2 PUSH20 0xFFFFFFFFFFFFFFFFFFFFFFFFFFFFFFFFFFFFFFFF AND PUSH4 0x6352211E DUP5 PUSH1 0x40 MLOAD DUP3 PUSH4 0xFFFFFFFF AND PUSH1 0xE0 SHL DUP2 MSTORE PUSH1 0x4 ADD PUSH2 0x1D0 SWAP2 SWAP1 PUSH2 0xFA5 JUMP JUMPDEST PUSH1 0x20 PUSH1 0x40 MLOAD DUP1 DUP4 SUB DUP2 DUP7 GAS STATICCALL ISZERO DUP1 ISZERO PUSH2 0x1EB JUMPI RETURNDATASIZE PUSH0 PUSH0 RETURNDATACOPY RETURNDATASIZE PUSH0 REVERT JUMPDEST POP POP POP POP PUSH1 0x40 MLOAD RETURNDATASIZE PUSH1 0x1F NOT PUSH1 0x1F DUP3 ADD AND DUP3 ADD DUP1 PUSH1 0x40 MSTORE POP DUP2 ADD SWAP1 PUSH2 0x20F SWAP2 SWAP1 PUSH2 0xFD2 JUMP JUMPDEST PUSH20 0xFFFFFFFFFFFFFFFFFFFFFFFFFFFFFFFFFFFFFFFF AND EQ PUSH2 0x265 JUMPI PUSH1 0x40 MLOAD PUSH32 0x8C379A000000000000000000000000000000000000000000000000000000000 DUP2 MSTORE PUSH1 0x4 ADD PUSH2 0x25C SWAP1 PUSH2 0x1057 JUMP JUMPDEST PUSH1 0x40 MLOAD DUP1 SWAP2 SUB SWAP1 REVERT JUMPDEST PUSH0 PUSH0 PUSH0 DUP6 PUSH20 0xFFFFFFFFFFFFFFFFFFFFFFFFFFFFFFFFFFFFFFFF AND PUSH20 0xFFFFFFFFFFFFFFFFFFFFFFFFFFFFFFFFFFFFFFFF AND DUP2 MSTORE PUSH1 0x20 ADD SWAP1 DUP2 MSTORE PUSH1 0x20 ADD PUSH0 KECCAK256 PUSH0 DUP5 DUP2 MSTORE PUSH1 0x20 ADD SWAP1 DUP2 MSTORE PUSH1 0x20 ADD PUSH0 KECCAK256 SWAP1 POP PUSH0 DUP2 PUSH1 0x1 ADD SLOAD GT PUSH2 0x2F9 JUMPI PUSH1 0x40 MLOAD PUSH32 0x8C379A000000000000000000000000000000000000000000000000000000000 DUP2 MSTORE PUSH1 0x4 ADD PUSH2 0x2F0 SWAP1 PUSH2 0x10BF JUMP JUMPDEST PUSH1 0x40 MLOAD DUP1 SWAP2 SUB SWAP1 REVERT JUMPDEST DUP1 PUSH1 0x1 ADD SLOAD CALLVALUE LT ISZERO PUSH2 0x340 JUMPI PUSH1 0x40 MLOAD PUSH32 0x8C379A000000000000000000000000000000000000000000000000000000000 DUP2 MSTORE PUSH1 0x4 ADD PUSH2 0x337 SWAP1 PUSH2 0x1127 JUMP JUMPDEST PUSH1 0x40 MLOAD DUP1 SWAP2 SUB SWAP1 REVERT JUMPDEST DUP2 PUSH20 0xFFFFFFFFFFFFFFFFFFFFFFFFFFFFFFFFFFFFFFFF AND PUSH4 0x42842E0E ADDRESS CALLER DUP7 PUSH1 0x40 MLOAD DUP5 PUSH4 0xFFFFFFFF AND PUSH1 0xE0 SHL DUP2 MSTORE PUSH1 0x4 ADD PUSH2 0x37D SWAP4 SWAP3 SWAP2 SWAP1 PUSH2 0x1145 JUMP JUMPDEST PUSH0 PUSH1 0x40 MLOAD DUP1 DUP4 SUB DUP2 PUSH0 DUP8 DUP1 EXTCODESIZE ISZERO DUP1 ISZERO PUSH2 0x394 JUMPI PUSH0 PUSH0 REVERT JUMPDEST POP GAS CALL ISZERO DUP1 ISZERO PUSH2 0x3A6 JUMPI RETURNDATASIZE PUSH0 PUSH0 RETURNDATACOPY RETURNDATASIZE PUSH0 REVERT JUMPDEST POP POP POP POP DUP1 PUSH0 ADD PUSH0 SWAP1 SLOAD SWAP1 PUSH2 0x100 EXP SWAP1 DIV PUSH20 0xFFFFFFFFFFFFFFFFFFFFFFFFFFFFFFFFFFFFFFFF AND PUSH20 0xFFFFFFFFFFFFFFFFFFFFFFFFFFFFFFFFFFFFFFFF AND PUSH2 0x8FC DUP3 PUSH1 0x1 ADD SLOAD SWAP1 DUP2 ISZERO MUL SWAP1 PUSH1 0x40 MLOAD PUSH0 PUSH1 0x40 MLOAD DUP1 DUP4 SUB DUP2 DUP6 DUP9 DUP9 CALL SWAP4 POP POP POP POP ISZERO DUP1 ISZERO PUSH2 0x413 JUMPI RETURNDATASIZE PUSH0 PUSH0 RETURNDATACOPY RETURNDATASIZE PUSH0 REVERT JUMPDEST POP DUP1 PUSH1 0x1 ADD SLOAD CALLVALUE GT ISZERO PUSH2 0x474 JUMPI CALLER PUSH20 0xFFFFFFFFFFFFFFFFFFFFFFFFFFFFFFFFFFFFFFFF AND PUSH2 0x8FC DUP3 PUSH1 0x1 ADD SLOAD CALLVALUE PUSH2 0x44A SWAP2 SWAP1 PUSH2 0x11A7 JUMP JUMPDEST SWAP1 DUP2 ISZERO MUL SWAP1 PUSH1 0x40 MLOAD PUSH0 PUSH1 0x40 MLOAD DUP1 DUP4 SUB DUP2 DUP6 DUP9 DUP9 CALL SWAP4 POP POP POP POP ISZERO DUP1 ISZERO PUSH2 0x472 JUMPI RETURNDATASIZE PUSH0 PUSH0 RETURNDATACOPY RETURNDATASIZE PUSH0 REVERT JUMPDEST POP JUMPDEST DUP3 DUP5 PUSH20 0xFFFFFFFFFFFFFFFFFFFFFFFFFFFFFFFFFFFFFFFF AND CALLER PUSH20 0xFFFFFFFFFFFFFFFFFFFFFFFFFFFFFFFFFFFFFFFF AND PUSH32 0x46661DAB58311A6838247AFECBEE792192B4F27FC8B3E7168C66BC55EC2E404E DUP5 PUSH1 0x1 ADD SLOAD PUSH1 0x40 MLOAD PUSH2 0x4D6 SWAP2 SWAP1 PUSH2 0xFA5 JUMP JUMPDEST PUSH1 0x40 MLOAD DUP1 SWAP2 SUB SWAP1 LOG4 PUSH0 PUSH0 DUP6 PUSH20 0xFFFFFFFFFFFFFFFFFFFFFFFFFFFFFFFFFFFFFFFF AND PUSH20 0xFFFFFFFFFFFFFFFFFFFFFFFFFFFFFFFFFFFFFFFF AND DUP2 MSTORE PUSH1 0x20 ADD SWAP1 DUP2 MSTORE PUSH1 0x20 ADD PUSH0 KECCAK256 PUSH0 DUP5 DUP2 MSTORE PUSH1 0x20 ADD SWAP1 DUP2 MSTORE PUSH1 0x20 ADD PUSH0 KECCAK256 PUSH0 PUSH0 DUP3 ADD PUSH0 PUSH2 0x100 EXP DUP2 SLOAD SWAP1 PUSH20 0xFFFFFFFFFFFFFFFFFFFFFFFFFFFFFFFFFFFFFFFF MUL NOT AND SWAP1 SSTORE PUSH1 0x1 DUP3 ADD PUSH0 SWAP1 SSTORE POP POP POP POP POP POP JUMP JUMPDEST PUSH0 PUSH1 0x20 MSTORE DUP2 PUSH0 MSTORE PUSH1 0x40 PUSH0 KECCAK256 PUSH1 0x20 MSTORE DUP1 PUSH0 MSTORE PUSH1 0x40 PUSH0 KECCAK256 PUSH0 SWAP2 POP SWAP2 POP POP DUP1 PUSH0 ADD PUSH0 SWAP1 SLOAD SWAP1 PUSH2 0x100 EXP SWAP1 DIV PUSH20 0xFFFFFFFFFFFFFFFFFFFFFFFFFFFFFFFFFFFFFFFF AND SWAP1 DUP1 PUSH1 0x1 ADD SLOAD SWAP1 POP DUP3 JUMP JUMPDEST PUSH0 DUP2 GT PUSH2 0x5E9 JUMPI PUSH1 0x40 MLOAD PUSH32 0x8C379A000000000000000000000000000000000000000000000000000000000 DUP2 MSTORE PUSH1 0x4 ADD PUSH2 0x5E0 SWAP1 PUSH2 0x10BF JUMP JUMPDEST PUSH1 0x40 MLOAD DUP1 SWAP2 SUB SWAP1 REVERT JUMPDEST PUSH0 PUSH0 PUSH0 DUP6 PUSH20 0xFFFFFFFFFFFFFFFFFFFFFFFFFFFFFFFFFFFFFFFF AND PUSH20 0xFFFFFFFFFFFFFFFFFFFFFFFFFFFFFFFFFFFFFFFF AND DUP2 MSTORE PUSH1 0x20 ADD SWAP1 DUP2 MSTORE PUSH1 0x20 ADD PUSH0 KECCAK256 PUSH0 DUP5 DUP2 MSTORE PUSH1 0x20 ADD SWAP1 DUP2 MSTORE PUSH1 0x20 ADD PUSH0 KECCAK256 SWAP1 POP PUSH0 DUP5 SWAP1 POP ADDRESS PUSH20 0xFFFFFFFFFFFFFFFFFFFFFFFFFFFFFFFFFFFFFFFF AND DUP2 PUSH20 0xFFFFFFFFFFFFFFFFFFFFFFFFFFFFFFFFFFFFFFFF AND PUSH4 0x6352211E DUP7 PUSH1 0x40 MLOAD DUP3 PUSH4 0xFFFFFFFF AND PUSH1 0xE0 SHL DUP2 MSTORE PUSH1 0x4 ADD PUSH2 0x68B SWAP2 SWAP1 PUSH2 0xFA5 JUMP JUMPDEST PUSH1 0x20 PUSH1 0x40 MLOAD DUP1 DUP4 SUB DUP2 DUP7 GAS STATICCALL ISZERO DUP1 ISZERO PUSH2 0x6A6 JUMPI RETURNDATASIZE PUSH0 PUSH0 RETURNDATACOPY RETURNDATASIZE PUSH0 REVERT JUMPDEST POP POP POP POP PUSH1 0x40 MLOAD RETURNDATASIZE PUSH1 0x1F NOT PUSH1 0x1F DUP3 ADD AND DUP3 ADD DUP1 PUSH1 0x40 MSTORE POP DUP2 ADD SWAP1 PUSH2 0x6CA SWAP2 SWAP1 PUSH2 0xFD2 JUMP JUMPDEST PUSH20 0xFFFFFFFFFFFFFFFFFFFFFFFFFFFFFFFFFFFFFFFF AND EQ PUSH2 0x720 JUMPI PUSH1 0x40 MLOAD PUSH32 0x8C379A000000000000000000000000000000000000000000000000000000000 DUP2 MSTORE PUSH1 0x4 ADD PUSH2 0x717 SWAP1 PUSH2 0x1057 JUMP JUMPDEST PUSH1 0x40 MLOAD DUP1 SWAP2 SUB SWAP1 REVERT JUMPDEST DUP3 DUP3 PUSH1 0x1 ADD DUP2 SWAP1 SSTORE POP DUP4 DUP6 PUSH20 0xFFFFFFFFFFFFFFFFFFFFFFFFFFFFFFFFFFFFFFFF AND CALLER PUSH20 0xFFFFFFFFFFFFFFFFFFFFFFFFFFFFFFFFFFFFFFFF AND PUSH32 0xB7F0CA7CD5B24651672216886135B99FF40342BCF549009A4C6FC74F059FB9A0 DUP7 PUSH1 0x40 MLOAD PUSH2 0x787 SWAP2 SWAP1 PUSH2 0xFA5 JUMP JUMPDEST PUSH1 0x40 MLOAD DUP1 SWAP2 SUB SWAP1 LOG4 POP POP POP POP POP JUMP JUMPDEST PUSH0 DUP4 SWAP1 POP ADDRESS PUSH20 0xFFFFFFFFFFFFFFFFFFFFFFFFFFFFFFFFFFFFFFFF AND DUP2 PUSH20 0xFFFFFFFFFFFFFFFFFFFFFFFFFFFFFFFFFFFFFFFF AND PUSH4 0x81812FC DUP6 PUSH1 0x40 MLOAD DUP3 PUSH4 0xFFFFFFFF AND PUSH1 0xE0 SHL DUP2 MSTORE PUSH1 0x4 ADD PUSH2 0x7EA SWAP2 SWAP1 PUSH2 0xFA5 JUMP JUMPDEST PUSH1 0x20 PUSH1 0x40 MLOAD DUP1 DUP4 SUB DUP2 DUP7 GAS STATICCALL ISZERO DUP1 ISZERO PUSH2 0x805 JUMPI RETURNDATASIZE PUSH0 PUSH0 RETURNDATACOPY RETURNDATASIZE PUSH0 REVERT JUMPDEST POP POP POP POP PUSH1 0x40 MLOAD RETURNDATASIZE PUSH1 0x1F NOT PUSH1 0x1F DUP3 ADD AND DUP3 ADD DUP1 PUSH1 0x40 MSTORE POP DUP2 ADD SWAP1 PUSH2 0x829 SWAP2 SWAP1 PUSH2 0xFD2 JUMP JUMPDEST PUSH20 0xFFFFFFFFFFFFFFFFFFFFFFFFFFFFFFFFFFFFFFFF AND EQ PUSH2 0x87F JUMPI PUSH1 0x40 MLOAD PUSH32 0x8C379A000000000000000000000000000000000000000000000000000000000 DUP2 MSTORE PUSH1 0x4 ADD PUSH2 0x876 SWAP1 PUSH2 0x1224 JUMP JUMPDEST PUSH1 0x40 MLOAD DUP1 SWAP2 SUB SWAP1 REVERT JUMPDEST PUSH0 DUP3 GT PUSH2 0x88A JUMPI PUSH0 PUSH0 REVERT JUMPDEST PUSH0 PUSH0 PUSH0 DUP7 PUSH20 0xFFFFFFFFFFFFFFFFFFFFFFFFFFFFFFFFFFFFFFFF AND PUSH20 0xFFFFFFFFFFFFFFFFFFFFFFFFFFFFFFFFFFFFFFFF AND DUP2 MSTORE PUSH1 0x20 ADD SWAP1 DUP2 MSTORE PUSH1 0x20 ADD PUSH0 KECCAK256 PUSH0 DUP6 DUP2 MSTORE PUSH1 0x20 ADD SWAP1 DUP2 MSTORE PUSH1 0x20 ADD PUSH0 KECCAK256 SWAP1 POP CALLER DUP2 PUSH0 ADD PUSH0 PUSH2 0x100 EXP DUP2 SLOAD DUP2 PUSH20 0xFFFFFFFFFFFFFFFFFFFFFFFFFFFFFFFFFFFFFFFF MUL NOT AND SWAP1 DUP4 PUSH20 0xFFFFFFFFFFFFFFFFFFFFFFFFFFFFFFFFFFFFFFFF AND MUL OR SWAP1 SSTORE POP DUP3 DUP2 PUSH1 0x1 ADD DUP2 SWAP1 SSTORE POP DUP2 PUSH20 0xFFFFFFFFFFFFFFFFFFFFFFFFFFFFFFFFFFFFFFFF AND PUSH4 0x42842E0E CALLER ADDRESS DUP8 PUSH1 0x40 MLOAD DUP5 PUSH4 0xFFFFFFFF AND PUSH1 0xE0 SHL DUP2 MSTORE PUSH1 0x4 ADD PUSH2 0x95F SWAP4 SWAP3 SWAP2 SWAP1 PUSH2 0x1145 JUMP JUMPDEST PUSH0 PUSH1 0x40 MLOAD DUP1 DUP4 SUB DUP2 PUSH0 DUP8 DUP1 EXTCODESIZE ISZERO DUP1 ISZERO PUSH2 0x976 JUMPI PUSH0 PUSH0 REVERT JUMPDEST POP GAS CALL ISZERO DUP1 ISZERO PUSH2 0x988 JUMPI RETURNDATASIZE PUSH0 PUSH0 RETURNDATACOPY RETURNDATASIZE PUSH0 REVERT JUMPDEST POP POP POP POP DUP4 DUP6 PUSH20 0xFFFFFFFFFFFFFFFFFFFFFFFFFFFFFFFFFFFFFFFF AND CALLER PUSH20 0xFFFFFFFFFFFFFFFFFFFFFFFFFFFFFFFFFFFFFFFF AND PUSH32 0xEDBDF022944A3291F4B30148903A84720506F48E10478EC5812E5CAF30E1FAB0 DUP7 PUSH1 0x40 MLOAD PUSH2 0x9EA SWAP2 SWAP1 PUSH2 0xFA5 JUMP JUMPDEST PUSH1 0x40 MLOAD DUP1 SWAP2 SUB SWAP1 LOG4 POP POP POP POP POP JUMP JUMPDEST PUSH0 PUSH0 PUSH0 DUP5 PUSH20 0xFFFFFFFFFFFFFFFFFFFFFFFFFFFFFFFFFFFFFFFF AND PUSH20 0xFFFFFFFFFFFFFFFFFFFFFFFFFFFFFFFFFFFFFFFF AND DUP2 MSTORE PUSH1 0x20 ADD SWAP1 DUP2 MSTORE PUSH1 0x20 ADD PUSH0 KECCAK256 PUSH0 DUP4 DUP2 MSTORE PUSH1 0x20 ADD SWAP1 DUP2 MSTORE PUSH1 0x20 ADD PUSH0 KECCAK256 SWAP1 POP CALLER PUSH20 0xFFFFFFFFFFFFFFFFFFFFFFFFFFFFFFFFFFFFFFFF AND DUP2 PUSH0 ADD PUSH0 SWAP1 SLOAD SWAP1 PUSH2 0x100 EXP SWAP1 DIV PUSH20 0xFFFFFFFFFFFFFFFFFFFFFFFFFFFFFFFFFFFFFFFF AND PUSH20 0xFFFFFFFFFFFFFFFFFFFFFFFFFFFFFFFFFFFFFFFF AND EQ PUSH2 0xAD7 JUMPI PUSH1 0x40 MLOAD PUSH32 0x8C379A000000000000000000000000000000000000000000000000000000000 DUP2 MSTORE PUSH1 0x4 ADD PUSH2 0xACE SWAP1 PUSH2 0x128C JUMP JUMPDEST PUSH1 0x40 MLOAD DUP1 SWAP2 SUB SWAP1 REVERT JUMPDEST PUSH0 DUP4 SWAP1 POP ADDRESS PUSH20 0xFFFFFFFFFFFFFFFFFFFFFFFFFFFFFFFFFFFFFFFF AND DUP2 PUSH20 0xFFFFFFFFFFFFFFFFFFFFFFFFFFFFFFFFFFFFFFFF AND PUSH4 0x6352211E DUP6 PUSH1 0x40 MLOAD DUP3 PUSH4 0xFFFFFFFF AND PUSH1 0xE0 SHL DUP2 MSTORE PUSH1 0x4 ADD PUSH2 0xB2B SWAP2 SWAP1 PUSH2 0xFA5 JUMP JUMPDEST PUSH1 0x20 PUSH1 0x40 MLOAD DUP1 DUP4 SUB DUP2 DUP7 GAS STATICCALL ISZERO DUP1 ISZERO PUSH2 0xB46 JUMPI RETURNDATASIZE PUSH0 PUSH0 RETURNDATACOPY RETURNDATASIZE PUSH0 REVERT JUMPDEST POP POP POP POP PUSH1 0x40 MLOAD RETURNDATASIZE PUSH1 0x1F NOT PUSH1 0x1F DUP3 ADD AND DUP3 ADD DUP1 PUSH1 0x40 MSTORE POP DUP2 ADD SWAP1 PUSH2 0xB6A SWAP2 SWAP1 PUSH2 0xFD2 JUMP JUMPDEST PUSH20 0xFFFFFFFFFFFFFFFFFFFFFFFFFFFFFFFFFFFFFFFF AND EQ PUSH2 0xBC0 JUMPI PUSH1 0x40 MLOAD PUSH32 0x8C379A000000000000000000000000000000000000000000000000000000000 DUP2 MSTORE PUSH1 0x4 ADD PUSH2 0xBB7 SWAP1 PUSH2 0x1057 JUMP JUMPDEST PUSH1 0x40 MLOAD DUP1 SWAP2 SUB SWAP1 REVERT JUMPDEST DUP1 PUSH20 0xFFFFFFFFFFFFFFFFFFFFFFFFFFFFFFFFFFFFFFFF AND PUSH4 0x42842E0E ADDRESS CALLER DUP7 PUSH1 0x40 MLOAD DUP5 PUSH4 0xFFFFFFFF AND PUSH1 0xE0 SHL DUP2 MSTORE PUSH1 0x4 ADD PUSH2 0xBFD SWAP4 SWAP3 SWAP2 SWAP1 PUSH2 0x1145 JUMP JUMPDEST PUSH0 PUSH1 0x40 MLOAD DUP1 DUP4 SUB DUP2 PUSH0 DUP8 DUP1 EXTCODESIZE ISZERO DUP1 ISZERO PUSH2 0xC14 JUMPI PUSH0 PUSH0 REVERT JUMPDEST POP GAS CALL ISZERO DUP1 ISZERO PUSH2 0xC26 JUMPI RETURNDATASIZE PUSH0 PUSH0 RETURNDATACOPY RETURNDATASIZE PUSH0 REVERT JUMPDEST POP POP POP POP PUSH0 PUSH0 DUP6 PUSH20 0xFFFFFFFFFFFFFFFFFFFFFFFFFFFFFFFFFFFFFFFF AND PUSH20 0xFFFFFFFFFFFFFFFFFFFFFFFFFFFFFFFFFFFFFFFF AND DUP2 MSTORE PUSH1 0x20 ADD SWAP1 DUP2 MSTORE PUSH1 0x20 ADD PUSH0 KECCAK256 PUSH0 DUP5 DUP2 MSTORE PUSH1 0x20 ADD SWAP1 DUP2 MSTORE PUSH1 0x20 ADD PUSH0 KECCAK256 PUSH0 PUSH0 DUP3 ADD PUSH0 PUSH2 0x100 EXP DUP2 SLOAD SWAP1 PUSH20 0xFFFFFFFFFFFFFFFFFFFFFFFFFFFFFFFFFFFFFFFF MUL NOT AND SWAP1 SSTORE PUSH1 0x1 DUP3 ADD PUSH0 SWAP1 SSTORE POP POP DUP3 DUP5 PUSH20 0xFFFFFFFFFFFFFFFFFFFFFFFFFFFFFFFFFFFFFFFF AND CALLER PUSH20 0xFFFFFFFFFFFFFFFFFFFFFFFFFFFFFFFFFFFFFFFF AND PUSH32 0xB698E31A2ABEE5824D0D7BCFD2339AEAD7F9E9AE413FBA50BF554FF3FA470B7B PUSH1 0x40 MLOAD PUSH1 0x40 MLOAD DUP1 SWAP2 SUB SWAP1 LOG4 POP POP POP POP JUMP JUMPDEST PUSH0 PUSH0 REVERT JUMPDEST PUSH0 PUSH0 REVERT JUMPDEST PUSH0 PUSH20 0xFFFFFFFFFFFFFFFFFFFFFFFFFFFFFFFFFFFFFFFF DUP3 AND SWAP1 POP SWAP2 SWAP1 POP JUMP JUMPDEST PUSH0 PUSH2 0xD36 DUP3 PUSH2 0xD0D JUMP JUMPDEST SWAP1 POP SWAP2 SWAP1 POP JUMP JUMPDEST PUSH2 0xD46 DUP2 PUSH2 0xD2C JUMP JUMPDEST DUP2 EQ PUSH2 0xD50 JUMPI PUSH0 PUSH0 REVERT JUMPDEST POP JUMP JUMPDEST PUSH0 DUP2 CALLDATALOAD SWAP1 POP PUSH2 0xD61 DUP2 PUSH2 0xD3D JUMP JUMPDEST SWAP3 SWAP2 POP POP JUMP JUMPDEST PUSH0 DUP2 SWAP1 POP SWAP2 SWAP1 POP JUMP JUMPDEST PUSH2 0xD79 DUP2 PUSH2 0xD67 JUMP JUMPDEST DUP2 EQ PUSH2 0xD83 JUMPI PUSH0 PUSH0 REVERT JUMPDEST POP JUMP JUMPDEST PUSH0 DUP2 CALLDATALOAD SWAP1 POP PUSH2 0xD94 DUP2 PUSH2 0xD70 JUMP JUMPDEST SWAP3 SWAP2 POP POP JUMP JUMPDEST PUSH0 PUSH0 REVERT JUMPDEST PUSH0 PUSH0 REVERT JUMPDEST PUSH0 PUSH0 REVERT JUMPDEST PUSH0 PUSH0 DUP4 PUSH1 0x1F DUP5 ADD SLT PUSH2 0xDBB JUMPI PUSH2 0xDBA PUSH2 0xD9A JUMP JUMPDEST JUMPDEST DUP3 CALLDATALOAD SWAP1 POP PUSH8 0xFFFFFFFFFFFFFFFF DUP2 GT ISZERO PUSH2 0xDD8 JUMPI PUSH2 0xDD7 PUSH2 0xD9E JUMP JUMPDEST JUMPDEST PUSH1 0x20 DUP4 ADD SWAP2 POP DUP4 PUSH1 0x1 DUP3 MUL DUP4 ADD GT ISZERO PUSH2 0xDF4 JUMPI PUSH2 0xDF3 PUSH2 0xDA2 JUMP JUMPDEST JUMPDEST SWAP3 POP SWAP3 SWAP1 POP JUMP JUMPDEST PUSH0 PUSH0 PUSH0 PUSH0 PUSH0 PUSH1 0x80 DUP7 DUP9 SUB SLT ISZERO PUSH2 0xE14 JUMPI PUSH2 0xE13 PUSH2 0xD05 JUMP JUMPDEST JUMPDEST PUSH0 PUSH2 0xE21 DUP9 DUP3 DUP10 ADD PUSH2 0xD53 JUMP JUMPDEST SWAP6 POP POP PUSH1 0x20 PUSH2 0xE32 DUP9 DUP3 DUP10 ADD PUSH2 0xD53 JUMP JUMPDEST SWAP5 POP POP PUSH1 0x40 PUSH2 0xE43 DUP9 DUP3 DUP10 ADD PUSH2 0xD86 JUMP JUMPDEST SWAP4 POP POP PUSH1 0x60 DUP7 ADD CALLDATALOAD PUSH8 0xFFFFFFFFFFFFFFFF DUP2 GT ISZERO PUSH2 0xE64 JUMPI PUSH2 0xE63 PUSH2 0xD09 JUMP JUMPDEST JUMPDEST PUSH2 0xE70 DUP9 DUP3 DUP10 ADD PUSH2 0xDA6 JUMP JUMPDEST SWAP3 POP SWAP3 POP POP SWAP3 SWAP6 POP SWAP3 SWAP6 SWAP1 SWAP4 POP JUMP JUMPDEST PUSH0 PUSH32 0xFFFFFFFF00000000000000000000000000000000000000000000000000000000 DUP3 AND SWAP1 POP SWAP2 SWAP1 POP JUMP JUMPDEST PUSH2 0xEB3 DUP2 PUSH2 0xE7F JUMP JUMPDEST DUP3 MSTORE POP POP JUMP JUMPDEST PUSH0 PUSH1 0x20 DUP3 ADD SWAP1 POP PUSH2 0xECC PUSH0 DUP4 ADD DUP5 PUSH2 0xEAA JUMP JUMPDEST SWAP3 SWAP2 POP POP JUMP JUMPDEST PUSH0 PUSH0 PUSH1 0x40 DUP4 DUP6 SUB SLT ISZERO PUSH2 0xEE8 JUMPI PUSH2 0xEE7 PUSH2 0xD05 JUMP JUMPDEST JUMPDEST PUSH0 PUSH2 0xEF5 DUP6 DUP3 DUP7 ADD PUSH2 0xD53 JUMP JUMPDEST SWAP3 POP POP PUSH1 0x20 PUSH2 0xF06 DUP6 DUP3 DUP7 ADD PUSH2 0xD86 JUMP JUMPDEST SWAP2 POP POP SWAP3 POP SWAP3 SWAP1 POP JUMP JUMPDEST PUSH2 0xF19 DUP2 PUSH2 0xD2C JUMP JUMPDEST DUP3 MSTORE POP POP JUMP JUMPDEST PUSH2 0xF28 DUP2 PUSH2 0xD67 JUMP JUMPDEST DUP3 MSTORE POP POP JUMP JUMPDEST PUSH0 PUSH1 0x40 DUP3 ADD SWAP1 POP PUSH2 0xF41 PUSH0 DUP4 ADD DUP6 PUSH2 0xF10 JUMP JUMPDEST PUSH2 0xF4E PUSH1 0x20 DUP4 ADD DUP5 PUSH2 0xF1F JUMP JUMPDEST SWAP4 SWAP3 POP POP POP JUMP JUMPDEST PUSH0 PUSH0 PUSH0 PUSH1 0x60 DUP5 DUP7 SUB SLT ISZERO PUSH2 0xF6C JUMPI PUSH2 0xF6B PUSH2 0xD05 JUMP JUMPDEST JUMPDEST PUSH0 PUSH2 0xF79 DUP7 DUP3 DUP8 ADD PUSH2 0xD53 JUMP JUMPDEST SWAP4 POP POP PUSH1 0x20 PUSH2 0xF8A DUP7 DUP3 DUP8 ADD PUSH2 0xD86 JUMP JUMPDEST SWAP3 POP POP PUSH1 0x40 PUSH2 0xF9B DUP7 DUP3 DUP8 ADD PUSH2 0xD86 JUMP JUMPDEST SWAP2 POP POP SWAP3 POP SWAP3 POP SWAP3 JUMP JUMPDEST PUSH0 PUSH1 0x20 DUP3 ADD SWAP1 POP PUSH2 0xFB8 PUSH0 DUP4 ADD DUP5 PUSH2 0xF1F JUMP JUMPDEST SWAP3 SWAP2 POP POP JUMP JUMPDEST PUSH0 DUP2 MLOAD SWAP1 POP PUSH2 0xFCC DUP2 PUSH2 0xD3D JUMP JUMPDEST SWAP3 SWAP2 POP POP JUMP JUMPDEST PUSH0 PUSH1 0x20 DUP3 DUP5 SUB SLT ISZERO PUSH2 0xFE7 JUMPI PUSH2 0xFE6 PUSH2 0xD05 JUMP JUMPDEST JUMPDEST PUSH0 PUSH2 0xFF4 DUP5 DUP3 DUP6 ADD PUSH2 0xFBE JUMP JUMPDEST SWAP2 POP POP SWAP3 SWAP2 POP POP JUMP JUMPDEST PUSH0 DUP3 DUP3 MSTORE PUSH1 0x20 DUP3 ADD SWAP1 POP SWAP3 SWAP2 POP POP JUMP JUMPDEST PUSH32 0x496E76616C6964204F7264657200000000000000000000000000000000000000 PUSH0 DUP3 ADD MSTORE POP JUMP JUMPDEST PUSH0 PUSH2 0x1041 PUSH1 0xD DUP4 PUSH2 0xFFD JUMP JUMPDEST SWAP2 POP PUSH2 0x104C DUP3 PUSH2 0x100D JUMP JUMPDEST PUSH1 0x20 DUP3 ADD SWAP1 POP SWAP2 SWAP1 POP JUMP JUMPDEST PUSH0 PUSH1 0x20 DUP3 ADD SWAP1 POP DUP2 DUP2 SUB PUSH0 DUP4 ADD MSTORE PUSH2 0x106E DUP2 PUSH2 0x1035 JUMP JUMPDEST SWAP1 POP SWAP2 SWAP1 POP JUMP JUMPDEST PUSH32 0x496E76616C696420507269636500000000000000000000000000000000000000 PUSH0 DUP3 ADD MSTORE POP JUMP JUMPDEST PUSH0 PUSH2 0x10A9 PUSH1 0xD DUP4 PUSH2 0xFFD JUMP JUMPDEST SWAP2 POP PUSH2 0x10B4 DUP3 PUSH2 0x1075 JUMP JUMPDEST PUSH1 0x20 DUP3 ADD SWAP1 POP SWAP2 SWAP1 POP JUMP JUMPDEST PUSH0 PUSH1 0x20 DUP3 ADD SWAP1 POP DUP2 DUP2 SUB PUSH0 DUP4 ADD MSTORE PUSH2 0x10D6 DUP2 PUSH2 0x109D JUMP JUMPDEST SWAP1 POP SWAP2 SWAP1 POP JUMP JUMPDEST PUSH32 0x496E637265617365207072696365000000000000000000000000000000000000 PUSH0 DUP3 ADD MSTORE POP JUMP JUMPDEST PUSH0 PUSH2 0x1111 PUSH1 0xE DUP4 PUSH2 0xFFD JUMP JUMPDEST SWAP2 POP PUSH2 0x111C DUP3 PUSH2 0x10DD JUMP JUMPDEST PUSH1 0x20 DUP3 ADD SWAP1 POP SWAP2 SWAP1 POP JUMP JUMPDEST PUSH0 PUSH1 0x20 DUP3 ADD SWAP1 POP DUP2 DUP2 SUB PUSH0 DUP4 ADD MSTORE PUSH2 0x113E DUP2 PUSH2 0x1105 JUMP JUMPDEST SWAP1 POP SWAP2 SWAP1 POP JUMP JUMPDEST PUSH0 PUSH1 0x60 DUP3 ADD SWAP1 POP PUSH2 0x1158 PUSH0 DUP4 ADD DUP7 PUSH2 0xF10 JUMP JUMPDEST PUSH2 0x1165 PUSH1 0x20 DUP4 ADD DUP6 PUSH2 0xF10 JUMP JUMPDEST PUSH2 0x1172 PUSH1 0x40 DUP4 ADD DUP5 PUSH2 0xF1F JUMP JUMPDEST SWAP5 SWAP4 POP POP POP POP JUMP JUMPDEST PUSH32 0x4E487B7100000000000000000000000000000000000000000000000000000000 PUSH0 MSTORE PUSH1 0x11 PUSH1 0x4 MSTORE PUSH1 0x24 PUSH0 REVERT JUMPDEST PUSH0 PUSH2 0x11B1 DUP3 PUSH2 0xD67 JUMP JUMPDEST SWAP2 POP PUSH2 0x11BC DUP4 PUSH2 0xD67 JUMP JUMPDEST SWAP3 POP DUP3 DUP3 SUB SWAP1 POP DUP2 DUP2 GT ISZERO PUSH2 0x11D4 JUMPI PUSH2 0x11D3 PUSH2 0x117A JUMP JUMPDEST JUMPDEST SWAP3 SWAP2 POP POP JUMP JUMPDEST PUSH32 0x4E65656420417070726F76616C00000000000000000000000000000000000000 PUSH0 DUP3 ADD MSTORE POP JUMP JUMPDEST PUSH0 PUSH2 0x120E PUSH1 0xD DUP4 PUSH2 0xFFD JUMP JUMPDEST SWAP2 POP PUSH2 0x1219 DUP3 PUSH2 0x11DA JUMP JUMPDEST PUSH1 0x20 DUP3 ADD SWAP1 POP SWAP2 SWAP1 POP JUMP JUMPDEST PUSH0 PUSH1 0x20 DUP3 ADD SWAP1 POP DUP2 DUP2 SUB PUSH0 DUP4 ADD MSTORE PUSH2 0x123B DUP2 PUSH2 0x1202 JUMP JUMPDEST SWAP1 POP SWAP2 SWAP1 POP JUMP JUMPDEST PUSH32 0x4E6F74204F776E65720000000000000000000000000000000000000000000000 PUSH0 DUP3 ADD MSTORE POP JUMP JUMPDEST PUSH0 PUSH2 0x1276 PUSH1 0x9 DUP4 PUSH2 0xFFD JUMP JUMPDEST SWAP2 POP PUSH2 0x1281 DUP3 PUSH2 0x1242 JUMP JUMPDEST PUSH1 0x20 DUP3 ADD SWAP1 POP SWAP2 SWAP1 POP JUMP JUMPDEST PUSH0 PUSH1 0x20 DUP3 ADD SWAP1 POP DUP2 DUP2 SUB PUSH0 DUP4 ADD MSTORE PUSH2 0x12A3 DUP2 PUSH2 0x126A JUMP JUMPDEST SWAP1 POP SWAP2 SWAP1 POP JUMP INVALID LOG2 PUSH5 0x6970667358 0x22 SLT KECCAK256 SELFDESTRUCT SLT SELFDESTRUCT PUSH5 0x26FD0C5C02 RETF 0xDF 0xE8 DUP8 RJUMP 0x71E9 0x2A STATICCALL ADDRESS RETF CODECOPY CODECOPY 0x4E KECCAK256 EXP 0x2C 0xEA DUP10 0xB6 LT EXP 0xBB PUSH5 0x736F6C6343 STOP ADDMOD 0x1E STOP CALLER "
				},
				"gasEstimates": {
					"creation": {
						"codeDepositCost": "966400",
						"executionCost": "999",
						"totalCost": "967399"
					},
					"external": {
						"": "194",
						"list(address,uint256,uint256)": "infinite",
						"nftList(address,uint256)": "infinite",
						"onERC721Received(address,address,uint256,bytes)": "infinite",
						"purchase(address,uint256)": "infinite",
						"revoke(address,uint256)": "infinite",
						"update(address,uint256,uint256)": "infinite"
					}
				},
				"methodIdentifiers": {
					"list(address,uint256,uint256)": "dda342bb",
					"nftList(address,uint256)": "ba5f4fb2",
					"onERC721Received(address,address,uint256,bytes)": "150b7a02",
					"purchase(address,uint256)": "8de93222",
					"revoke(address,uint256)": "eac449d9",
					"update(address,uint256,uint256)": "d09b6d43"
				}
			},
			"storageLayout": {
				"storage": [
					{
						"astId": 208,
						"contract": "contracts/NFTSwap.sol:NFTSwap",
						"label": "nftList",
						"offset": 0,
						"slot": "0",
						"type": "t_mapping(t_address,t_mapping(t_uint256,t_struct(Order)201_storage))"
					}
				],
				"types": {
					"t_address": {
						"encoding": "inplace",
						"label": "address",
						"numberOfBytes": "20"
					},
					"t_mapping(t_address,t_mapping(t_uint256,t_struct(Order)201_storage))": {
						"encoding": "mapping",
						"key": "t_address",
						"label": "mapping(address => mapping(uint256 => struct NFTSwap.Order))",
						"numberOfBytes": "32",
						"value": "t_mapping(t_uint256,t_struct(Order)201_storage)"
					},
					"t_mapping(t_uint256,t_struct(Order)201_storage)": {
						"encoding": "mapping",
						"key": "t_uint256",
						"label": "mapping(uint256 => struct NFTSwap.Order)",
						"numberOfBytes": "32",
						"value": "t_struct(Order)201_storage"
					},
					"t_struct(Order)201_storage": {
						"encoding": "inplace",
						"label": "struct NFTSwap.Order",
						"members": [
							{
								"astId": 198,
								"contract": "contracts/NFTSwap.sol:NFTSwap",
								"label": "owner",
								"offset": 0,
								"slot": "0",
								"type": "t_address"
							},
							{
								"astId": 200,
								"contract": "contracts/NFTSwap.sol:NFTSwap",
								"label": "price",
								"offset": 0,
								"slot": "1",
								"type": "t_uint256"
							}
						],
						"numberOfBytes": "64"
					},
					"t_uint256": {
						"encoding": "inplace",
						"label": "uint256",
						"numberOfBytes": "32"
					}
				}
			},
			"userdoc": {
				"kind": "user",
				"methods": {
					"onERC721Received(address,address,uint256,bytes)": {
						"notice": "如果合约能正确返回 selector（0x150b7a02），表示：我知道你给我转 NFT，我能处理。 一个合约如果没有这个函数，NFT 无法通过 safeTransferFrom 转进去 有这个函数，就能通过 safeTransferFrom 转进去 IERC721Receiver 只是防呆机制，防止 NFT 被锁死。它不是安全认证，也不是信任标识"
					}
				},
				"version": 1
			}
		}
	}
}