{
	"contracts/Faucet.sol": {
		"Faucet": {
			"abi": [
				{
					"inputs": [
						{
							"internalType": "address",
							"name": "_contractAddress",
							"type": "address"
						}
					],
					"stateMutability": "nonpayable",
					"type": "constructor"
				},
				{
					"anonymous": false,
					"inputs": [
						{
							"indexed": true,
							"internalType": "address",
							"name": "Receiver",
							"type": "address"
						},
						{
							"indexed": true,
							"internalType": "uint256",
							"name": "Amount",
							"type": "uint256"
						}
					],
					"name": "sendToken",
					"type": "event"
				},
				{
					"inputs": [],
					"name": "amountAllowed",
					"outputs": [
						{
							"internalType": "uint256",
							"name": "",
							"type": "uint256"
						}
					],
					"stateMutability": "view",
					"type": "function"
				},
				{
					"inputs": [],
					"name": "requestToken",
					"outputs": [],
					"stateMutability": "nonpayable",
					"type": "function"
				},
				{
					"inputs": [
						{
							"internalType": "address",
							"name": "",
							"type": "address"
						}
					],
					"name": "requestedAddress",
					"outputs": [
						{
							"internalType": "bool",
							"name": "",
							"type": "bool"
						}
					],
					"stateMutability": "view",
					"type": "function"
				},
				{
					"inputs": [],
					"name": "tokenContract",
					"outputs": [
						{
							"internalType": "address",
							"name": "",
							"type": "address"
						}
					],
					"stateMutability": "view",
					"type": "function"
				}
			],
			"devdoc": {
				"kind": "dev",
				"methods": {},
				"version": 1
			},
			"evm": {
				"assembly": "    /* \"contracts/Faucet.sol\":201:1723  contract Faucet{... */\n  mstore(0x40, 0x80)\n    /* \"contracts/Faucet.sol\":280:283  100 */\n  0x64\n    /* \"contracts/Faucet.sol\":249:283  uint256 public amountAllowed = 100 */\n  0x00\n  sstore\n    /* \"contracts/Faucet.sol\":637:726  constructor(address _contractAddress) {... */\n  callvalue\n  dup1\n  iszero\n  tag_1\n  jumpi\n  revert(0x00, 0x00)\ntag_1:\n  pop\n  mload(0x40)\n  sub(codesize, bytecodeSize)\n  dup1\n  bytecodeSize\n  dup4\n  codecopy\n  dup2\n  dup2\n  add\n  0x40\n  mstore\n  dup2\n  add\n  swap1\n  tag_2\n  swap2\n  swap1\n  tag_3\n  jump\t// in\ntag_2:\n    /* \"contracts/Faucet.sol\":702:718  _contractAddress */\n  dup1\n    /* \"contracts/Faucet.sol\":686:699  tokenContract */\n  0x01\n  0x00\n    /* \"contracts/Faucet.sol\":686:718  tokenContract = _contractAddress */\n  0x0100\n  exp\n  dup2\n  sload\n  dup2\n  0xffffffffffffffffffffffffffffffffffffffff\n  mul\n  not\n  and\n  swap1\n  dup4\n  0xffffffffffffffffffffffffffffffffffffffff\n  and\n  mul\n  or\n  swap1\n  sstore\n  pop\n    /* \"contracts/Faucet.sol\":637:726  constructor(address _contractAddress) {... */\n  pop\n    /* \"contracts/Faucet.sol\":201:1723  contract Faucet{... */\n  jump(tag_6)\n    /* \"#utility.yul\":88:205   */\ntag_8:\n    /* \"#utility.yul\":197:198   */\n  0x00\n    /* \"#utility.yul\":194:195   */\n  0x00\n    /* \"#utility.yul\":187:199   */\n  revert\n    /* \"#utility.yul\":334:460   */\ntag_10:\n    /* \"#utility.yul\":371:378   */\n  0x00\n    /* \"#utility.yul\":411:453   */\n  0xffffffffffffffffffffffffffffffffffffffff\n    /* \"#utility.yul\":404:409   */\n  dup3\n    /* \"#utility.yul\":400:454   */\n  and\n    /* \"#utility.yul\":389:454   */\n  swap1\n  pop\n    /* \"#utility.yul\":334:460   */\n  swap2\n  swap1\n  pop\n  jump\t// out\n    /* \"#utility.yul\":466:562   */\ntag_11:\n    /* \"#utility.yul\":503:510   */\n  0x00\n    /* \"#utility.yul\":532:556   */\n  tag_20\n    /* \"#utility.yul\":550:555   */\n  dup3\n    /* \"#utility.yul\":532:556   */\n  tag_10\n  jump\t// in\ntag_20:\n    /* \"#utility.yul\":521:556   */\n  swap1\n  pop\n    /* \"#utility.yul\":466:562   */\n  swap2\n  swap1\n  pop\n  jump\t// out\n    /* \"#utility.yul\":568:690   */\ntag_12:\n    /* \"#utility.yul\":641:665   */\n  tag_22\n    /* \"#utility.yul\":659:664   */\n  dup2\n    /* \"#utility.yul\":641:665   */\n  tag_11\n  jump\t// in\ntag_22:\n    /* \"#utility.yul\":634:639   */\n  dup2\n    /* \"#utility.yul\":631:666   */\n  eq\n    /* \"#utility.yul\":621:684   */\n  tag_23\n  jumpi\n    /* \"#utility.yul\":680:681   */\n  0x00\n    /* \"#utility.yul\":677:678   */\n  0x00\n    /* \"#utility.yul\":670:682   */\n  revert\n    /* \"#utility.yul\":621:684   */\ntag_23:\n    /* \"#utility.yul\":568:690   */\n  pop\n  jump\t// out\n    /* \"#utility.yul\":696:839   */\ntag_13:\n    /* \"#utility.yul\":753:758   */\n  0x00\n    /* \"#utility.yul\":784:790   */\n  dup2\n    /* \"#utility.yul\":778:791   */\n  mload\n    /* \"#utility.yul\":769:791   */\n  swap1\n  pop\n    /* \"#utility.yul\":800:833   */\n  tag_25\n    /* \"#utility.yul\":827:832   */\n  dup2\n    /* \"#utility.yul\":800:833   */\n  tag_12\n  jump\t// in\ntag_25:\n    /* \"#utility.yul\":696:839   */\n  swap3\n  swap2\n  pop\n  pop\n  jump\t// out\n    /* \"#utility.yul\":845:1196   */\ntag_3:\n    /* \"#utility.yul\":915:921   */\n  0x00\n    /* \"#utility.yul\":964:966   */\n  0x20\n    /* \"#utility.yul\":952:961   */\n  dup3\n    /* \"#utility.yul\":943:950   */\n  dup5\n    /* \"#utility.yul\":939:962   */\n  sub\n    /* \"#utility.yul\":935:967   */\n  slt\n    /* \"#utility.yul\":932:1051   */\n  iszero\n  tag_27\n  jumpi\n    /* \"#utility.yul\":970:1049   */\n  tag_28\n  tag_8\n  jump\t// in\ntag_28:\n    /* \"#utility.yul\":932:1051   */\ntag_27:\n    /* \"#utility.yul\":1090:1091   */\n  0x00\n    /* \"#utility.yul\":1115:1179   */\n  tag_29\n    /* \"#utility.yul\":1171:1178   */\n  dup5\n    /* \"#utility.yul\":1162:1168   */\n  dup3\n    /* \"#utility.yul\":1151:1160   */\n  dup6\n    /* \"#utility.yul\":1147:1169   */\n  add\n    /* \"#utility.yul\":1115:1179   */\n  tag_13\n  jump\t// in\ntag_29:\n    /* \"#utility.yul\":1105:1179   */\n  swap2\n  pop\n    /* \"#utility.yul\":1061:1189   */\n  pop\n    /* \"#utility.yul\":845:1196   */\n  swap3\n  swap2\n  pop\n  pop\n  jump\t// out\n    /* \"contracts/Faucet.sol\":201:1723  contract Faucet{... */\ntag_6:\n  dataSize(sub_0)\n  dup1\n  dataOffset(sub_0)\n  0x00\n  codecopy\n  0x00\n  return\nstop\n\nsub_0: assembly {\n        /* \"contracts/Faucet.sol\":201:1723  contract Faucet{... */\n      mstore(0x40, 0x80)\n      callvalue\n      dup1\n      iszero\n      tag_1\n      jumpi\n      revert(0x00, 0x00)\n    tag_1:\n      pop\n      jumpi(tag_2, lt(calldatasize, 0x04))\n      shr(0xe0, calldataload(0x00))\n      dup1\n      0x4d7ec628\n      eq\n      tag_3\n      jumpi\n      dup1\n      0x55a373d6\n      eq\n      tag_4\n      jumpi\n      dup1\n      0x5e33dba9\n      eq\n      tag_5\n      jumpi\n      dup1\n      0x9ad2cd14\n      eq\n      tag_6\n      jumpi\n    tag_2:\n      revert(0x00, 0x00)\n        /* \"contracts/Faucet.sol\":760:1716  function requestToken() external  {... */\n    tag_3:\n      tag_7\n      tag_8\n      jump\t// in\n    tag_7:\n      stop\n        /* \"contracts/Faucet.sol\":321:349  address public tokenContract */\n    tag_4:\n      tag_9\n      tag_10\n      jump\t// in\n    tag_9:\n      mload(0x40)\n      tag_11\n      swap2\n      swap1\n      tag_12\n      jump\t// in\n    tag_11:\n      mload(0x40)\n      dup1\n      swap2\n      sub\n      swap1\n      return\n        /* \"contracts/Faucet.sol\":387:433  mapping(address=>bool) public requestedAddress */\n    tag_5:\n      tag_13\n      0x04\n      dup1\n      calldatasize\n      sub\n      dup2\n      add\n      swap1\n      tag_14\n      swap2\n      swap1\n      tag_15\n      jump\t// in\n    tag_14:\n      tag_16\n      jump\t// in\n    tag_13:\n      mload(0x40)\n      tag_17\n      swap2\n      swap1\n      tag_18\n      jump\t// in\n    tag_17:\n      mload(0x40)\n      dup1\n      swap2\n      sub\n      swap1\n      return\n        /* \"contracts/Faucet.sol\":249:283  uint256 public amountAllowed = 100 */\n    tag_6:\n      tag_19\n      tag_20\n      jump\t// in\n    tag_19:\n      mload(0x40)\n      tag_21\n      swap2\n      swap1\n      tag_22\n      jump\t// in\n    tag_21:\n      mload(0x40)\n      dup1\n      swap2\n      sub\n      swap1\n      return\n        /* \"contracts/Faucet.sol\":760:1716  function requestToken() external  {... */\n    tag_8:\n        /* \"contracts/Faucet.sol\":927:943  requestedAddress */\n      0x02\n        /* \"contracts/Faucet.sol\":927:955  requestedAddress[msg.sender] */\n      0x00\n        /* \"contracts/Faucet.sol\":944:954  msg.sender */\n      caller\n        /* \"contracts/Faucet.sol\":927:955  requestedAddress[msg.sender] */\n      0xffffffffffffffffffffffffffffffffffffffff\n      and\n      0xffffffffffffffffffffffffffffffffffffffff\n      and\n      dup2\n      mstore\n      0x20\n      add\n      swap1\n      dup2\n      mstore\n      0x20\n      add\n      0x00\n      keccak256\n      0x00\n      swap1\n      sload\n      swap1\n      0x0100\n      exp\n      swap1\n      div\n      0xff\n      and\n        /* \"contracts/Faucet.sol\":926:955  !requestedAddress[msg.sender] */\n      iszero\n        /* \"contracts/Faucet.sol\":918:988  require(!requestedAddress[msg.sender],\"Can't Request Multiple Times!\") */\n      tag_24\n      jumpi\n      mload(0x40)\n      0x08c379a000000000000000000000000000000000000000000000000000000000\n      dup2\n      mstore\n      0x04\n      add\n      tag_25\n      swap1\n      tag_26\n      jump\t// in\n    tag_25:\n      mload(0x40)\n      dup1\n      swap2\n      sub\n      swap1\n      revert\n    tag_24:\n        /* \"contracts/Faucet.sol\":1042:1054  IERC20 token */\n      0x00\n        /* \"contracts/Faucet.sol\":1064:1077  tokenContract */\n      0x01\n      0x00\n      swap1\n      sload\n      swap1\n      0x0100\n      exp\n      swap1\n      div\n      0xffffffffffffffffffffffffffffffffffffffff\n      and\n        /* \"contracts/Faucet.sol\":1042:1078  IERC20 token = IERC20(tokenContract) */\n      swap1\n      pop\n        /* \"contracts/Faucet.sol\":1472:1485  amountAllowed */\n      sload(0x00)\n        /* \"contracts/Faucet.sol\":1440:1445  token */\n      dup2\n        /* \"contracts/Faucet.sol\":1440:1455  token.balanceOf */\n      0xffffffffffffffffffffffffffffffffffffffff\n      and\n      0x70a08231\n        /* \"contracts/Faucet.sol\":1464:1468  this */\n      address\n        /* \"contracts/Faucet.sol\":1440:1470  token.balanceOf(address(this)) */\n      mload(0x40)\n      dup3\n      0xffffffff\n      and\n      0xe0\n      shl\n      dup2\n      mstore\n      0x04\n      add\n      tag_27\n      swap2\n      swap1\n      tag_12\n      jump\t// in\n    tag_27:\n      0x20\n      mload(0x40)\n      dup1\n      dup4\n      sub\n      dup2\n      dup7\n      gas\n      staticcall\n      iszero\n      dup1\n      iszero\n      tag_29\n      jumpi\n      returndatacopy(0x00, 0x00, returndatasize)\n      revert(0x00, returndatasize)\n    tag_29:\n      pop\n      pop\n      pop\n      pop\n      mload(0x40)\n      returndatasize\n      not(0x1f)\n      0x1f\n      dup3\n      add\n      and\n      dup3\n      add\n      dup1\n      0x40\n      mstore\n      pop\n      dup2\n      add\n      swap1\n      tag_30\n      swap2\n      swap1\n      tag_31\n      jump\t// in\n    tag_30:\n        /* \"contracts/Faucet.sol\":1440:1485  token.balanceOf(address(this))>=amountAllowed */\n      lt\n      iszero\n        /* \"contracts/Faucet.sol\":1432:1502  require(token.balanceOf(address(this))>=amountAllowed,\"Faucet Empty!\") */\n      tag_32\n      jumpi\n      mload(0x40)\n      0x08c379a000000000000000000000000000000000000000000000000000000000\n      dup2\n      mstore\n      0x04\n      add\n      tag_33\n      swap1\n      tag_34\n      jump\t// in\n    tag_33:\n      mload(0x40)\n      dup1\n      swap2\n      sub\n      swap1\n      revert\n    tag_32:\n        /* \"contracts/Faucet.sol\":1515:1520  token */\n      dup1\n        /* \"contracts/Faucet.sol\":1515:1529  token.transfer */\n      0xffffffffffffffffffffffffffffffffffffffff\n      and\n      0xa9059cbb\n        /* \"contracts/Faucet.sol\":1530:1540  msg.sender */\n      caller\n        /* \"contracts/Faucet.sol\":1541:1554  amountAllowed */\n      sload(0x00)\n        /* \"contracts/Faucet.sol\":1515:1555  token.transfer(msg.sender,amountAllowed) */\n      mload(0x40)\n      dup4\n      0xffffffff\n      and\n      0xe0\n      shl\n      dup2\n      mstore\n      0x04\n      add\n      tag_35\n      swap3\n      swap2\n      swap1\n      tag_36\n      jump\t// in\n    tag_35:\n      0x20\n      mload(0x40)\n      dup1\n      dup4\n      sub\n      dup2\n      0x00\n      dup8\n      gas\n      call\n      iszero\n      dup1\n      iszero\n      tag_38\n      jumpi\n      returndatacopy(0x00, 0x00, returndatasize)\n      revert(0x00, returndatasize)\n    tag_38:\n      pop\n      pop\n      pop\n      pop\n      mload(0x40)\n      returndatasize\n      not(0x1f)\n      0x1f\n      dup3\n      add\n      and\n      dup3\n      add\n      dup1\n      0x40\n      mstore\n      pop\n      dup2\n      add\n      swap1\n      tag_39\n      swap2\n      swap1\n      tag_40\n      jump\t// in\n    tag_39:\n      pop\n        /* \"contracts/Faucet.sol\":1597:1601  true */\n      0x01\n        /* \"contracts/Faucet.sol\":1566:1582  requestedAddress */\n      0x02\n        /* \"contracts/Faucet.sol\":1566:1594  requestedAddress[msg.sender] */\n      0x00\n        /* \"contracts/Faucet.sol\":1583:1593  msg.sender */\n      caller\n        /* \"contracts/Faucet.sol\":1566:1594  requestedAddress[msg.sender] */\n      0xffffffffffffffffffffffffffffffffffffffff\n      and\n      0xffffffffffffffffffffffffffffffffffffffff\n      and\n      dup2\n      mstore\n      0x20\n      add\n      swap1\n      dup2\n      mstore\n      0x20\n      add\n      0x00\n      keccak256\n      0x00\n        /* \"contracts/Faucet.sol\":1566:1601  requestedAddress[msg.sender] = true */\n      0x0100\n      exp\n      dup2\n      sload\n      dup2\n      0xff\n      mul\n      not\n      and\n      swap1\n      dup4\n      iszero\n      iszero\n      mul\n      or\n      swap1\n      sstore\n      pop\n        /* \"contracts/Faucet.sol\":1694:1707  amountAllowed */\n      sload(0x00)\n        /* \"contracts/Faucet.sol\":1683:1693  msg.sender */\n      caller\n        /* \"contracts/Faucet.sol\":1673:1708  sendToken(msg.sender,amountAllowed) */\n      0xffffffffffffffffffffffffffffffffffffffff\n      and\n      0x412664ae8c1956d6b33733fca284ce973b9b9ebcc700e5fc113233a262ddcf9f\n      mload(0x40)\n      mload(0x40)\n      dup1\n      swap2\n      sub\n      swap1\n      log3\n        /* \"contracts/Faucet.sol\":794:1716  {... */\n      pop\n        /* \"contracts/Faucet.sol\":760:1716  function requestToken() external  {... */\n      jump\t// out\n        /* \"contracts/Faucet.sol\":321:349  address public tokenContract */\n    tag_10:\n      0x01\n      0x00\n      swap1\n      sload\n      swap1\n      0x0100\n      exp\n      swap1\n      div\n      0xffffffffffffffffffffffffffffffffffffffff\n      and\n      dup2\n      jump\t// out\n        /* \"contracts/Faucet.sol\":387:433  mapping(address=>bool) public requestedAddress */\n    tag_16:\n      mstore(0x20, 0x02)\n      dup1\n      0x00\n      mstore\n      keccak256(0x00, 0x40)\n      0x00\n      swap2\n      pop\n      sload\n      swap1\n      0x0100\n      exp\n      swap1\n      div\n      0xff\n      and\n      dup2\n      jump\t// out\n        /* \"contracts/Faucet.sol\":249:283  uint256 public amountAllowed = 100 */\n    tag_20:\n      sload(0x00)\n      dup2\n      jump\t// out\n        /* \"#utility.yul\":7:133   */\n    tag_41:\n        /* \"#utility.yul\":44:51   */\n      0x00\n        /* \"#utility.yul\":84:126   */\n      0xffffffffffffffffffffffffffffffffffffffff\n        /* \"#utility.yul\":77:82   */\n      dup3\n        /* \"#utility.yul\":73:127   */\n      and\n        /* \"#utility.yul\":62:127   */\n      swap1\n      pop\n        /* \"#utility.yul\":7:133   */\n      swap2\n      swap1\n      pop\n      jump\t// out\n        /* \"#utility.yul\":139:235   */\n    tag_42:\n        /* \"#utility.yul\":176:183   */\n      0x00\n        /* \"#utility.yul\":205:229   */\n      tag_65\n        /* \"#utility.yul\":223:228   */\n      dup3\n        /* \"#utility.yul\":205:229   */\n      tag_41\n      jump\t// in\n    tag_65:\n        /* \"#utility.yul\":194:229   */\n      swap1\n      pop\n        /* \"#utility.yul\":139:235   */\n      swap2\n      swap1\n      pop\n      jump\t// out\n        /* \"#utility.yul\":241:359   */\n    tag_43:\n        /* \"#utility.yul\":328:352   */\n      tag_67\n        /* \"#utility.yul\":346:351   */\n      dup2\n        /* \"#utility.yul\":328:352   */\n      tag_42\n      jump\t// in\n    tag_67:\n        /* \"#utility.yul\":323:326   */\n      dup3\n        /* \"#utility.yul\":316:353   */\n      mstore\n        /* \"#utility.yul\":241:359   */\n      pop\n      pop\n      jump\t// out\n        /* \"#utility.yul\":365:587   */\n    tag_12:\n        /* \"#utility.yul\":458:462   */\n      0x00\n        /* \"#utility.yul\":496:498   */\n      0x20\n        /* \"#utility.yul\":485:494   */\n      dup3\n        /* \"#utility.yul\":481:499   */\n      add\n        /* \"#utility.yul\":473:499   */\n      swap1\n      pop\n        /* \"#utility.yul\":509:580   */\n      tag_69\n        /* \"#utility.yul\":577:578   */\n      0x00\n        /* \"#utility.yul\":566:575   */\n      dup4\n        /* \"#utility.yul\":562:579   */\n      add\n        /* \"#utility.yul\":553:559   */\n      dup5\n        /* \"#utility.yul\":509:580   */\n      tag_43\n      jump\t// in\n    tag_69:\n        /* \"#utility.yul\":365:587   */\n      swap3\n      swap2\n      pop\n      pop\n      jump\t// out\n        /* \"#utility.yul\":674:791   */\n    tag_45:\n        /* \"#utility.yul\":783:784   */\n      0x00\n        /* \"#utility.yul\":780:781   */\n      0x00\n        /* \"#utility.yul\":773:785   */\n      revert\n        /* \"#utility.yul\":920:1042   */\n    tag_47:\n        /* \"#utility.yul\":993:1017   */\n      tag_74\n        /* \"#utility.yul\":1011:1016   */\n      dup2\n        /* \"#utility.yul\":993:1017   */\n      tag_42\n      jump\t// in\n    tag_74:\n        /* \"#utility.yul\":986:991   */\n      dup2\n        /* \"#utility.yul\":983:1018   */\n      eq\n        /* \"#utility.yul\":973:1036   */\n      tag_75\n      jumpi\n        /* \"#utility.yul\":1032:1033   */\n      0x00\n        /* \"#utility.yul\":1029:1030   */\n      0x00\n        /* \"#utility.yul\":1022:1034   */\n      revert\n        /* \"#utility.yul\":973:1036   */\n    tag_75:\n        /* \"#utility.yul\":920:1042   */\n      pop\n      jump\t// out\n        /* \"#utility.yul\":1048:1187   */\n    tag_48:\n        /* \"#utility.yul\":1094:1099   */\n      0x00\n        /* \"#utility.yul\":1132:1138   */\n      dup2\n        /* \"#utility.yul\":1119:1139   */\n      calldataload\n        /* \"#utility.yul\":1110:1139   */\n      swap1\n      pop\n        /* \"#utility.yul\":1148:1181   */\n      tag_77\n        /* \"#utility.yul\":1175:1180   */\n      dup2\n        /* \"#utility.yul\":1148:1181   */\n      tag_47\n      jump\t// in\n    tag_77:\n        /* \"#utility.yul\":1048:1187   */\n      swap3\n      swap2\n      pop\n      pop\n      jump\t// out\n        /* \"#utility.yul\":1193:1522   */\n    tag_15:\n        /* \"#utility.yul\":1252:1258   */\n      0x00\n        /* \"#utility.yul\":1301:1303   */\n      0x20\n        /* \"#utility.yul\":1289:1298   */\n      dup3\n        /* \"#utility.yul\":1280:1287   */\n      dup5\n        /* \"#utility.yul\":1276:1299   */\n      sub\n        /* \"#utility.yul\":1272:1304   */\n      slt\n        /* \"#utility.yul\":1269:1388   */\n      iszero\n      tag_79\n      jumpi\n        /* \"#utility.yul\":1307:1386   */\n      tag_80\n      tag_45\n      jump\t// in\n    tag_80:\n        /* \"#utility.yul\":1269:1388   */\n    tag_79:\n        /* \"#utility.yul\":1427:1428   */\n      0x00\n        /* \"#utility.yul\":1452:1505   */\n      tag_81\n        /* \"#utility.yul\":1497:1504   */\n      dup5\n        /* \"#utility.yul\":1488:1494   */\n      dup3\n        /* \"#utility.yul\":1477:1486   */\n      dup6\n        /* \"#utility.yul\":1473:1495   */\n      add\n        /* \"#utility.yul\":1452:1505   */\n      tag_48\n      jump\t// in\n    tag_81:\n        /* \"#utility.yul\":1442:1505   */\n      swap2\n      pop\n        /* \"#utility.yul\":1398:1515   */\n      pop\n        /* \"#utility.yul\":1193:1522   */\n      swap3\n      swap2\n      pop\n      pop\n      jump\t// out\n        /* \"#utility.yul\":1528:1618   */\n    tag_49:\n        /* \"#utility.yul\":1562:1569   */\n      0x00\n        /* \"#utility.yul\":1605:1610   */\n      dup2\n        /* \"#utility.yul\":1598:1611   */\n      iszero\n        /* \"#utility.yul\":1591:1612   */\n      iszero\n        /* \"#utility.yul\":1580:1612   */\n      swap1\n      pop\n        /* \"#utility.yul\":1528:1618   */\n      swap2\n      swap1\n      pop\n      jump\t// out\n        /* \"#utility.yul\":1624:1733   */\n    tag_50:\n        /* \"#utility.yul\":1705:1726   */\n      tag_84\n        /* \"#utility.yul\":1720:1725   */\n      dup2\n        /* \"#utility.yul\":1705:1726   */\n      tag_49\n      jump\t// in\n    tag_84:\n        /* \"#utility.yul\":1700:1703   */\n      dup3\n        /* \"#utility.yul\":1693:1727   */\n      mstore\n        /* \"#utility.yul\":1624:1733   */\n      pop\n      pop\n      jump\t// out\n        /* \"#utility.yul\":1739:1949   */\n    tag_18:\n        /* \"#utility.yul\":1826:1830   */\n      0x00\n        /* \"#utility.yul\":1864:1866   */\n      0x20\n        /* \"#utility.yul\":1853:1862   */\n      dup3\n        /* \"#utility.yul\":1849:1867   */\n      add\n        /* \"#utility.yul\":1841:1867   */\n      swap1\n      pop\n        /* \"#utility.yul\":1877:1942   */\n      tag_86\n        /* \"#utility.yul\":1939:1940   */\n      0x00\n        /* \"#utility.yul\":1928:1937   */\n      dup4\n        /* \"#utility.yul\":1924:1941   */\n      add\n        /* \"#utility.yul\":1915:1921   */\n      dup5\n        /* \"#utility.yul\":1877:1942   */\n      tag_50\n      jump\t// in\n    tag_86:\n        /* \"#utility.yul\":1739:1949   */\n      swap3\n      swap2\n      pop\n      pop\n      jump\t// out\n        /* \"#utility.yul\":1955:2032   */\n    tag_51:\n        /* \"#utility.yul\":1992:1999   */\n      0x00\n        /* \"#utility.yul\":2021:2026   */\n      dup2\n        /* \"#utility.yul\":2010:2026   */\n      swap1\n      pop\n        /* \"#utility.yul\":1955:2032   */\n      swap2\n      swap1\n      pop\n      jump\t// out\n        /* \"#utility.yul\":2038:2156   */\n    tag_52:\n        /* \"#utility.yul\":2125:2149   */\n      tag_89\n        /* \"#utility.yul\":2143:2148   */\n      dup2\n        /* \"#utility.yul\":2125:2149   */\n      tag_51\n      jump\t// in\n    tag_89:\n        /* \"#utility.yul\":2120:2123   */\n      dup3\n        /* \"#utility.yul\":2113:2150   */\n      mstore\n        /* \"#utility.yul\":2038:2156   */\n      pop\n      pop\n      jump\t// out\n        /* \"#utility.yul\":2162:2384   */\n    tag_22:\n        /* \"#utility.yul\":2255:2259   */\n      0x00\n        /* \"#utility.yul\":2293:2295   */\n      0x20\n        /* \"#utility.yul\":2282:2291   */\n      dup3\n        /* \"#utility.yul\":2278:2296   */\n      add\n        /* \"#utility.yul\":2270:2296   */\n      swap1\n      pop\n        /* \"#utility.yul\":2306:2377   */\n      tag_91\n        /* \"#utility.yul\":2374:2375   */\n      0x00\n        /* \"#utility.yul\":2363:2372   */\n      dup4\n        /* \"#utility.yul\":2359:2376   */\n      add\n        /* \"#utility.yul\":2350:2356   */\n      dup5\n        /* \"#utility.yul\":2306:2377   */\n      tag_52\n      jump\t// in\n    tag_91:\n        /* \"#utility.yul\":2162:2384   */\n      swap3\n      swap2\n      pop\n      pop\n      jump\t// out\n        /* \"#utility.yul\":2390:2559   */\n    tag_53:\n        /* \"#utility.yul\":2474:2485   */\n      0x00\n        /* \"#utility.yul\":2508:2514   */\n      dup3\n        /* \"#utility.yul\":2503:2506   */\n      dup3\n        /* \"#utility.yul\":2496:2515   */\n      mstore\n        /* \"#utility.yul\":2548:2552   */\n      0x20\n        /* \"#utility.yul\":2543:2546   */\n      dup3\n        /* \"#utility.yul\":2539:2553   */\n      add\n        /* \"#utility.yul\":2524:2553   */\n      swap1\n      pop\n        /* \"#utility.yul\":2390:2559   */\n      swap3\n      swap2\n      pop\n      pop\n      jump\t// out\n        /* \"#utility.yul\":2565:2744   */\n    tag_54:\n        /* \"#utility.yul\":2705:2736   */\n      0x43616e27742052657175657374204d756c7469706c652054696d657321000000\n        /* \"#utility.yul\":2701:2702   */\n      0x00\n        /* \"#utility.yul\":2693:2699   */\n      dup3\n        /* \"#utility.yul\":2689:2703   */\n      add\n        /* \"#utility.yul\":2682:2737   */\n      mstore\n        /* \"#utility.yul\":2565:2744   */\n      pop\n      jump\t// out\n        /* \"#utility.yul\":2750:3116   */\n    tag_55:\n        /* \"#utility.yul\":2892:2895   */\n      0x00\n        /* \"#utility.yul\":2913:2980   */\n      tag_95\n        /* \"#utility.yul\":2977:2979   */\n      0x1d\n        /* \"#utility.yul\":2972:2975   */\n      dup4\n        /* \"#utility.yul\":2913:2980   */\n      tag_53\n      jump\t// in\n    tag_95:\n        /* \"#utility.yul\":2906:2980   */\n      swap2\n      pop\n        /* \"#utility.yul\":2989:3082   */\n      tag_96\n        /* \"#utility.yul\":3078:3081   */\n      dup3\n        /* \"#utility.yul\":2989:3082   */\n      tag_54\n      jump\t// in\n    tag_96:\n        /* \"#utility.yul\":3107:3109   */\n      0x20\n        /* \"#utility.yul\":3102:3105   */\n      dup3\n        /* \"#utility.yul\":3098:3110   */\n      add\n        /* \"#utility.yul\":3091:3110   */\n      swap1\n      pop\n        /* \"#utility.yul\":2750:3116   */\n      swap2\n      swap1\n      pop\n      jump\t// out\n        /* \"#utility.yul\":3122:3541   */\n    tag_26:\n        /* \"#utility.yul\":3288:3292   */\n      0x00\n        /* \"#utility.yul\":3326:3328   */\n      0x20\n        /* \"#utility.yul\":3315:3324   */\n      dup3\n        /* \"#utility.yul\":3311:3329   */\n      add\n        /* \"#utility.yul\":3303:3329   */\n      swap1\n      pop\n        /* \"#utility.yul\":3375:3384   */\n      dup2\n        /* \"#utility.yul\":3369:3373   */\n      dup2\n        /* \"#utility.yul\":3365:3385   */\n      sub\n        /* \"#utility.yul\":3361:3362   */\n      0x00\n        /* \"#utility.yul\":3350:3359   */\n      dup4\n        /* \"#utility.yul\":3346:3363   */\n      add\n        /* \"#utility.yul\":3339:3386   */\n      mstore\n        /* \"#utility.yul\":3403:3534   */\n      tag_98\n        /* \"#utility.yul\":3529:3533   */\n      dup2\n        /* \"#utility.yul\":3403:3534   */\n      tag_55\n      jump\t// in\n    tag_98:\n        /* \"#utility.yul\":3395:3534   */\n      swap1\n      pop\n        /* \"#utility.yul\":3122:3541   */\n      swap2\n      swap1\n      pop\n      jump\t// out\n        /* \"#utility.yul\":3547:3669   */\n    tag_56:\n        /* \"#utility.yul\":3620:3644   */\n      tag_100\n        /* \"#utility.yul\":3638:3643   */\n      dup2\n        /* \"#utility.yul\":3620:3644   */\n      tag_51\n      jump\t// in\n    tag_100:\n        /* \"#utility.yul\":3613:3618   */\n      dup2\n        /* \"#utility.yul\":3610:3645   */\n      eq\n        /* \"#utility.yul\":3600:3663   */\n      tag_101\n      jumpi\n        /* \"#utility.yul\":3659:3660   */\n      0x00\n        /* \"#utility.yul\":3656:3657   */\n      0x00\n        /* \"#utility.yul\":3649:3661   */\n      revert\n        /* \"#utility.yul\":3600:3663   */\n    tag_101:\n        /* \"#utility.yul\":3547:3669   */\n      pop\n      jump\t// out\n        /* \"#utility.yul\":3675:3818   */\n    tag_57:\n        /* \"#utility.yul\":3732:3737   */\n      0x00\n        /* \"#utility.yul\":3763:3769   */\n      dup2\n        /* \"#utility.yul\":3757:3770   */\n      mload\n        /* \"#utility.yul\":3748:3770   */\n      swap1\n      pop\n        /* \"#utility.yul\":3779:3812   */\n      tag_103\n        /* \"#utility.yul\":3806:3811   */\n      dup2\n        /* \"#utility.yul\":3779:3812   */\n      tag_56\n      jump\t// in\n    tag_103:\n        /* \"#utility.yul\":3675:3818   */\n      swap3\n      swap2\n      pop\n      pop\n      jump\t// out\n        /* \"#utility.yul\":3824:4175   */\n    tag_31:\n        /* \"#utility.yul\":3894:3900   */\n      0x00\n        /* \"#utility.yul\":3943:3945   */\n      0x20\n        /* \"#utility.yul\":3931:3940   */\n      dup3\n        /* \"#utility.yul\":3922:3929   */\n      dup5\n        /* \"#utility.yul\":3918:3941   */\n      sub\n        /* \"#utility.yul\":3914:3946   */\n      slt\n        /* \"#utility.yul\":3911:4030   */\n      iszero\n      tag_105\n      jumpi\n        /* \"#utility.yul\":3949:4028   */\n      tag_106\n      tag_45\n      jump\t// in\n    tag_106:\n        /* \"#utility.yul\":3911:4030   */\n    tag_105:\n        /* \"#utility.yul\":4069:4070   */\n      0x00\n        /* \"#utility.yul\":4094:4158   */\n      tag_107\n        /* \"#utility.yul\":4150:4157   */\n      dup5\n        /* \"#utility.yul\":4141:4147   */\n      dup3\n        /* \"#utility.yul\":4130:4139   */\n      dup6\n        /* \"#utility.yul\":4126:4148   */\n      add\n        /* \"#utility.yul\":4094:4158   */\n      tag_57\n      jump\t// in\n    tag_107:\n        /* \"#utility.yul\":4084:4158   */\n      swap2\n      pop\n        /* \"#utility.yul\":4040:4168   */\n      pop\n        /* \"#utility.yul\":3824:4175   */\n      swap3\n      swap2\n      pop\n      pop\n      jump\t// out\n        /* \"#utility.yul\":4181:4344   */\n    tag_58:\n        /* \"#utility.yul\":4321:4336   */\n      0x46617563657420456d7074792100000000000000000000000000000000000000\n        /* \"#utility.yul\":4317:4318   */\n      0x00\n        /* \"#utility.yul\":4309:4315   */\n      dup3\n        /* \"#utility.yul\":4305:4319   */\n      add\n        /* \"#utility.yul\":4298:4337   */\n      mstore\n        /* \"#utility.yul\":4181:4344   */\n      pop\n      jump\t// out\n        /* \"#utility.yul\":4350:4716   */\n    tag_59:\n        /* \"#utility.yul\":4492:4495   */\n      0x00\n        /* \"#utility.yul\":4513:4580   */\n      tag_110\n        /* \"#utility.yul\":4577:4579   */\n      0x0d\n        /* \"#utility.yul\":4572:4575   */\n      dup4\n        /* \"#utility.yul\":4513:4580   */\n      tag_53\n      jump\t// in\n    tag_110:\n        /* \"#utility.yul\":4506:4580   */\n      swap2\n      pop\n        /* \"#utility.yul\":4589:4682   */\n      tag_111\n        /* \"#utility.yul\":4678:4681   */\n      dup3\n        /* \"#utility.yul\":4589:4682   */\n      tag_58\n      jump\t// in\n    tag_111:\n        /* \"#utility.yul\":4707:4709   */\n      0x20\n        /* \"#utility.yul\":4702:4705   */\n      dup3\n        /* \"#utility.yul\":4698:4710   */\n      add\n        /* \"#utility.yul\":4691:4710   */\n      swap1\n      pop\n        /* \"#utility.yul\":4350:4716   */\n      swap2\n      swap1\n      pop\n      jump\t// out\n        /* \"#utility.yul\":4722:5141   */\n    tag_34:\n        /* \"#utility.yul\":4888:4892   */\n      0x00\n        /* \"#utility.yul\":4926:4928   */\n      0x20\n        /* \"#utility.yul\":4915:4924   */\n      dup3\n        /* \"#utility.yul\":4911:4929   */\n      add\n        /* \"#utility.yul\":4903:4929   */\n      swap1\n      pop\n        /* \"#utility.yul\":4975:4984   */\n      dup2\n        /* \"#utility.yul\":4969:4973   */\n      dup2\n        /* \"#utility.yul\":4965:4985   */\n      sub\n        /* \"#utility.yul\":4961:4962   */\n      0x00\n        /* \"#utility.yul\":4950:4959   */\n      dup4\n        /* \"#utility.yul\":4946:4963   */\n      add\n        /* \"#utility.yul\":4939:4986   */\n      mstore\n        /* \"#utility.yul\":5003:5134   */\n      tag_113\n        /* \"#utility.yul\":5129:5133   */\n      dup2\n        /* \"#utility.yul\":5003:5134   */\n      tag_59\n      jump\t// in\n    tag_113:\n        /* \"#utility.yul\":4995:5134   */\n      swap1\n      pop\n        /* \"#utility.yul\":4722:5141   */\n      swap2\n      swap1\n      pop\n      jump\t// out\n        /* \"#utility.yul\":5147:5479   */\n    tag_36:\n        /* \"#utility.yul\":5268:5272   */\n      0x00\n        /* \"#utility.yul\":5306:5308   */\n      0x40\n        /* \"#utility.yul\":5295:5304   */\n      dup3\n        /* \"#utility.yul\":5291:5309   */\n      add\n        /* \"#utility.yul\":5283:5309   */\n      swap1\n      pop\n        /* \"#utility.yul\":5319:5390   */\n      tag_115\n        /* \"#utility.yul\":5387:5388   */\n      0x00\n        /* \"#utility.yul\":5376:5385   */\n      dup4\n        /* \"#utility.yul\":5372:5389   */\n      add\n        /* \"#utility.yul\":5363:5369   */\n      dup6\n        /* \"#utility.yul\":5319:5390   */\n      tag_43\n      jump\t// in\n    tag_115:\n        /* \"#utility.yul\":5400:5472   */\n      tag_116\n        /* \"#utility.yul\":5468:5470   */\n      0x20\n        /* \"#utility.yul\":5457:5466   */\n      dup4\n        /* \"#utility.yul\":5453:5471   */\n      add\n        /* \"#utility.yul\":5444:5450   */\n      dup5\n        /* \"#utility.yul\":5400:5472   */\n      tag_52\n      jump\t// in\n    tag_116:\n        /* \"#utility.yul\":5147:5479   */\n      swap4\n      swap3\n      pop\n      pop\n      pop\n      jump\t// out\n        /* \"#utility.yul\":5485:5601   */\n    tag_60:\n        /* \"#utility.yul\":5555:5576   */\n      tag_118\n        /* \"#utility.yul\":5570:5575   */\n      dup2\n        /* \"#utility.yul\":5555:5576   */\n      tag_49\n      jump\t// in\n    tag_118:\n        /* \"#utility.yul\":5548:5553   */\n      dup2\n        /* \"#utility.yul\":5545:5577   */\n      eq\n        /* \"#utility.yul\":5535:5595   */\n      tag_119\n      jumpi\n        /* \"#utility.yul\":5591:5592   */\n      0x00\n        /* \"#utility.yul\":5588:5589   */\n      0x00\n        /* \"#utility.yul\":5581:5593   */\n      revert\n        /* \"#utility.yul\":5535:5595   */\n    tag_119:\n        /* \"#utility.yul\":5485:5601   */\n      pop\n      jump\t// out\n        /* \"#utility.yul\":5607:5744   */\n    tag_61:\n        /* \"#utility.yul\":5661:5666   */\n      0x00\n        /* \"#utility.yul\":5692:5698   */\n      dup2\n        /* \"#utility.yul\":5686:5699   */\n      mload\n        /* \"#utility.yul\":5677:5699   */\n      swap1\n      pop\n        /* \"#utility.yul\":5708:5738   */\n      tag_121\n        /* \"#utility.yul\":5732:5737   */\n      dup2\n        /* \"#utility.yul\":5708:5738   */\n      tag_60\n      jump\t// in\n    tag_121:\n        /* \"#utility.yul\":5607:5744   */\n      swap3\n      swap2\n      pop\n      pop\n      jump\t// out\n        /* \"#utility.yul\":5750:6095   */\n    tag_40:\n        /* \"#utility.yul\":5817:5823   */\n      0x00\n        /* \"#utility.yul\":5866:5868   */\n      0x20\n        /* \"#utility.yul\":5854:5863   */\n      dup3\n        /* \"#utility.yul\":5845:5852   */\n      dup5\n        /* \"#utility.yul\":5841:5864   */\n      sub\n        /* \"#utility.yul\":5837:5869   */\n      slt\n        /* \"#utility.yul\":5834:5953   */\n      iszero\n      tag_123\n      jumpi\n        /* \"#utility.yul\":5872:5951   */\n      tag_124\n      tag_45\n      jump\t// in\n    tag_124:\n        /* \"#utility.yul\":5834:5953   */\n    tag_123:\n        /* \"#utility.yul\":5992:5993   */\n      0x00\n        /* \"#utility.yul\":6017:6078   */\n      tag_125\n        /* \"#utility.yul\":6070:6077   */\n      dup5\n        /* \"#utility.yul\":6061:6067   */\n      dup3\n        /* \"#utility.yul\":6050:6059   */\n      dup6\n        /* \"#utility.yul\":6046:6068   */\n      add\n        /* \"#utility.yul\":6017:6078   */\n      tag_61\n      jump\t// in\n    tag_125:\n        /* \"#utility.yul\":6007:6078   */\n      swap2\n      pop\n        /* \"#utility.yul\":5963:6088   */\n      pop\n        /* \"#utility.yul\":5750:6095   */\n      swap3\n      swap2\n      pop\n      pop\n      jump\t// out\n\n    auxdata: 0xa26469706673582212203bfcbde41d586a5f4349426456bc548f9b04aed75adf1d2326e9201d7bdc814964736f6c634300081e0033\n}\n",
				"bytecode": {
					"linkReferences": {},
					"object": "608060405260645f55348015610013575f5ffd5b5060405161079c38038061079c833981810160405281019061003591906100d9565b8060015f6101000a81548173ffffffffffffffffffffffffffffffffffffffff021916908373ffffffffffffffffffffffffffffffffffffffff16021790555050610104565b5f5ffd5b5f73ffffffffffffffffffffffffffffffffffffffff82169050919050565b5f6100a88261007f565b9050919050565b6100b88161009e565b81146100c2575f5ffd5b50565b5f815190506100d3816100af565b92915050565b5f602082840312156100ee576100ed61007b565b5b5f6100fb848285016100c5565b91505092915050565b61068b806101115f395ff3fe608060405234801561000f575f5ffd5b506004361061004a575f3560e01c80634d7ec6281461004e57806355a373d6146100585780635e33dba9146100765780639ad2cd14146100a6575b5f5ffd5b6100566100c4565b005b610060610348565b60405161006d91906103ce565b60405180910390f35b610090600480360381019061008b9190610415565b61036d565b60405161009d919061045a565b60405180910390f35b6100ae61038a565b6040516100bb919061048b565b60405180910390f35b60025f3373ffffffffffffffffffffffffffffffffffffffff1673ffffffffffffffffffffffffffffffffffffffff1681526020019081526020015f205f9054906101000a900460ff161561014e576040517f08c379a0000000000000000000000000000000000000000000000000000000008152600401610145906104fe565b60405180910390fd5b5f60015f9054906101000a900473ffffffffffffffffffffffffffffffffffffffff1690505f548173ffffffffffffffffffffffffffffffffffffffff166370a08231306040518263ffffffff1660e01b81526004016101ae91906103ce565b602060405180830381865afa1580156101c9573d5f5f3e3d5ffd5b505050506040513d601f19601f820116820180604052508101906101ed9190610546565b101561022e576040517f08c379a0000000000000000000000000000000000000000000000000000000008152600401610225906105bb565b60405180910390fd5b8073ffffffffffffffffffffffffffffffffffffffff1663a9059cbb335f546040518363ffffffff1660e01b815260040161026a9291906105d9565b6020604051808303815f875af1158015610286573d5f5f3e3d5ffd5b505050506040513d601f19601f820116820180604052508101906102aa919061062a565b50600160025f3373ffffffffffffffffffffffffffffffffffffffff1673ffffffffffffffffffffffffffffffffffffffff1681526020019081526020015f205f6101000a81548160ff0219169083151502179055505f543373ffffffffffffffffffffffffffffffffffffffff167f412664ae8c1956d6b33733fca284ce973b9b9ebcc700e5fc113233a262ddcf9f60405160405180910390a350565b60015f9054906101000a900473ffffffffffffffffffffffffffffffffffffffff1681565b6002602052805f5260405f205f915054906101000a900460ff1681565b5f5481565b5f73ffffffffffffffffffffffffffffffffffffffff82169050919050565b5f6103b88261038f565b9050919050565b6103c8816103ae565b82525050565b5f6020820190506103e15f8301846103bf565b92915050565b5f5ffd5b6103f4816103ae565b81146103fe575f5ffd5b50565b5f8135905061040f816103eb565b92915050565b5f6020828403121561042a576104296103e7565b5b5f61043784828501610401565b91505092915050565b5f8115159050919050565b61045481610440565b82525050565b5f60208201905061046d5f83018461044b565b92915050565b5f819050919050565b61048581610473565b82525050565b5f60208201905061049e5f83018461047c565b92915050565b5f82825260208201905092915050565b7f43616e27742052657175657374204d756c7469706c652054696d6573210000005f82015250565b5f6104e8601d836104a4565b91506104f3826104b4565b602082019050919050565b5f6020820190508181035f830152610515816104dc565b9050919050565b61052581610473565b811461052f575f5ffd5b50565b5f815190506105408161051c565b92915050565b5f6020828403121561055b5761055a6103e7565b5b5f61056884828501610532565b91505092915050565b7f46617563657420456d70747921000000000000000000000000000000000000005f82015250565b5f6105a5600d836104a4565b91506105b082610571565b602082019050919050565b5f6020820190508181035f8301526105d281610599565b9050919050565b5f6040820190506105ec5f8301856103bf565b6105f9602083018461047c565b9392505050565b61060981610440565b8114610613575f5ffd5b50565b5f8151905061062481610600565b92915050565b5f6020828403121561063f5761063e6103e7565b5b5f61064c84828501610616565b9150509291505056fea26469706673582212203bfcbde41d586a5f4349426456bc548f9b04aed75adf1d2326e9201d7bdc814964736f6c634300081e0033",
					"opcodes": "PUSH1 0x80 PUSH1 0x40 MSTORE PUSH1 0x64 PUSH0 SSTORE CALLVALUE DUP1 ISZERO PUSH2 0x13 JUMPI PUSH0 PUSH0 REVERT JUMPDEST POP PUSH1 0x40 MLOAD PUSH2 0x79C CODESIZE SUB DUP1 PUSH2 0x79C DUP4 CODECOPY DUP2 DUP2 ADD PUSH1 0x40 MSTORE DUP2 ADD SWAP1 PUSH2 0x35 SWAP2 SWAP1 PUSH2 0xD9 JUMP JUMPDEST DUP1 PUSH1 0x1 PUSH0 PUSH2 0x100 EXP DUP2 SLOAD DUP2 PUSH20 0xFFFFFFFFFFFFFFFFFFFFFFFFFFFFFFFFFFFFFFFF MUL NOT AND SWAP1 DUP4 PUSH20 0xFFFFFFFFFFFFFFFFFFFFFFFFFFFFFFFFFFFFFFFF AND MUL OR SWAP1 SSTORE POP POP PUSH2 0x104 JUMP JUMPDEST PUSH0 PUSH0 REVERT JUMPDEST PUSH0 PUSH20 0xFFFFFFFFFFFFFFFFFFFFFFFFFFFFFFFFFFFFFFFF DUP3 AND SWAP1 POP SWAP2 SWAP1 POP JUMP JUMPDEST PUSH0 PUSH2 0xA8 DUP3 PUSH2 0x7F JUMP JUMPDEST SWAP1 POP SWAP2 SWAP1 POP JUMP JUMPDEST PUSH2 0xB8 DUP2 PUSH2 0x9E JUMP JUMPDEST DUP2 EQ PUSH2 0xC2 JUMPI PUSH0 PUSH0 REVERT JUMPDEST POP JUMP JUMPDEST PUSH0 DUP2 MLOAD SWAP1 POP PUSH2 0xD3 DUP2 PUSH2 0xAF JUMP JUMPDEST SWAP3 SWAP2 POP POP JUMP JUMPDEST PUSH0 PUSH1 0x20 DUP3 DUP5 SUB SLT ISZERO PUSH2 0xEE JUMPI PUSH2 0xED PUSH2 0x7B JUMP JUMPDEST JUMPDEST PUSH0 PUSH2 0xFB DUP5 DUP3 DUP6 ADD PUSH2 0xC5 JUMP JUMPDEST SWAP2 POP POP SWAP3 SWAP2 POP POP JUMP JUMPDEST PUSH2 0x68B DUP1 PUSH2 0x111 PUSH0 CODECOPY PUSH0 RETURN INVALID PUSH1 0x80 PUSH1 0x40 MSTORE CALLVALUE DUP1 ISZERO PUSH2 0xF JUMPI PUSH0 PUSH0 REVERT JUMPDEST POP PUSH1 0x4 CALLDATASIZE LT PUSH2 0x4A JUMPI PUSH0 CALLDATALOAD PUSH1 0xE0 SHR DUP1 PUSH4 0x4D7EC628 EQ PUSH2 0x4E JUMPI DUP1 PUSH4 0x55A373D6 EQ PUSH2 0x58 JUMPI DUP1 PUSH4 0x5E33DBA9 EQ PUSH2 0x76 JUMPI DUP1 PUSH4 0x9AD2CD14 EQ PUSH2 0xA6 JUMPI JUMPDEST PUSH0 PUSH0 REVERT JUMPDEST PUSH2 0x56 PUSH2 0xC4 JUMP JUMPDEST STOP JUMPDEST PUSH2 0x60 PUSH2 0x348 JUMP JUMPDEST PUSH1 0x40 MLOAD PUSH2 0x6D SWAP2 SWAP1 PUSH2 0x3CE JUMP JUMPDEST PUSH1 0x40 MLOAD DUP1 SWAP2 SUB SWAP1 RETURN JUMPDEST PUSH2 0x90 PUSH1 0x4 DUP1 CALLDATASIZE SUB DUP2 ADD SWAP1 PUSH2 0x8B SWAP2 SWAP1 PUSH2 0x415 JUMP JUMPDEST PUSH2 0x36D JUMP JUMPDEST PUSH1 0x40 MLOAD PUSH2 0x9D SWAP2 SWAP1 PUSH2 0x45A JUMP JUMPDEST PUSH1 0x40 MLOAD DUP1 SWAP2 SUB SWAP1 RETURN JUMPDEST PUSH2 0xAE PUSH2 0x38A JUMP JUMPDEST PUSH1 0x40 MLOAD PUSH2 0xBB SWAP2 SWAP1 PUSH2 0x48B JUMP JUMPDEST PUSH1 0x40 MLOAD DUP1 SWAP2 SUB SWAP1 RETURN JUMPDEST PUSH1 0x2 PUSH0 CALLER PUSH20 0xFFFFFFFFFFFFFFFFFFFFFFFFFFFFFFFFFFFFFFFF AND PUSH20 0xFFFFFFFFFFFFFFFFFFFFFFFFFFFFFFFFFFFFFFFF AND DUP2 MSTORE PUSH1 0x20 ADD SWAP1 DUP2 MSTORE PUSH1 0x20 ADD PUSH0 KECCAK256 PUSH0 SWAP1 SLOAD SWAP1 PUSH2 0x100 EXP SWAP1 DIV PUSH1 0xFF AND ISZERO PUSH2 0x14E JUMPI PUSH1 0x40 MLOAD PUSH32 0x8C379A000000000000000000000000000000000000000000000000000000000 DUP2 MSTORE PUSH1 0x4 ADD PUSH2 0x145 SWAP1 PUSH2 0x4FE JUMP JUMPDEST PUSH1 0x40 MLOAD DUP1 SWAP2 SUB SWAP1 REVERT JUMPDEST PUSH0 PUSH1 0x1 PUSH0 SWAP1 SLOAD SWAP1 PUSH2 0x100 EXP SWAP1 DIV PUSH20 0xFFFFFFFFFFFFFFFFFFFFFFFFFFFFFFFFFFFFFFFF AND SWAP1 POP PUSH0 SLOAD DUP2 PUSH20 0xFFFFFFFFFFFFFFFFFFFFFFFFFFFFFFFFFFFFFFFF AND PUSH4 0x70A08231 ADDRESS PUSH1 0x40 MLOAD DUP3 PUSH4 0xFFFFFFFF AND PUSH1 0xE0 SHL DUP2 MSTORE PUSH1 0x4 ADD PUSH2 0x1AE SWAP2 SWAP1 PUSH2 0x3CE JUMP JUMPDEST PUSH1 0x20 PUSH1 0x40 MLOAD DUP1 DUP4 SUB DUP2 DUP7 GAS STATICCALL ISZERO DUP1 ISZERO PUSH2 0x1C9 JUMPI RETURNDATASIZE PUSH0 PUSH0 RETURNDATACOPY RETURNDATASIZE PUSH0 REVERT JUMPDEST POP POP POP POP PUSH1 0x40 MLOAD RETURNDATASIZE PUSH1 0x1F NOT PUSH1 0x1F DUP3 ADD AND DUP3 ADD DUP1 PUSH1 0x40 MSTORE POP DUP2 ADD SWAP1 PUSH2 0x1ED SWAP2 SWAP1 PUSH2 0x546 JUMP JUMPDEST LT ISZERO PUSH2 0x22E JUMPI PUSH1 0x40 MLOAD PUSH32 0x8C379A000000000000000000000000000000000000000000000000000000000 DUP2 MSTORE PUSH1 0x4 ADD PUSH2 0x225 SWAP1 PUSH2 0x5BB JUMP JUMPDEST PUSH1 0x40 MLOAD DUP1 SWAP2 SUB SWAP1 REVERT JUMPDEST DUP1 PUSH20 0xFFFFFFFFFFFFFFFFFFFFFFFFFFFFFFFFFFFFFFFF AND PUSH4 0xA9059CBB CALLER PUSH0 SLOAD PUSH1 0x40 MLOAD DUP4 PUSH4 0xFFFFFFFF AND PUSH1 0xE0 SHL DUP2 MSTORE PUSH1 0x4 ADD PUSH2 0x26A SWAP3 SWAP2 SWAP1 PUSH2 0x5D9 JUMP JUMPDEST PUSH1 0x20 PUSH1 0x40 MLOAD DUP1 DUP4 SUB DUP2 PUSH0 DUP8 GAS CALL ISZERO DUP1 ISZERO PUSH2 0x286 JUMPI RETURNDATASIZE PUSH0 PUSH0 RETURNDATACOPY RETURNDATASIZE PUSH0 REVERT JUMPDEST POP POP POP POP PUSH1 0x40 MLOAD RETURNDATASIZE PUSH1 0x1F NOT PUSH1 0x1F DUP3 ADD AND DUP3 ADD DUP1 PUSH1 0x40 MSTORE POP DUP2 ADD SWAP1 PUSH2 0x2AA SWAP2 SWAP1 PUSH2 0x62A JUMP JUMPDEST POP PUSH1 0x1 PUSH1 0x2 PUSH0 CALLER PUSH20 0xFFFFFFFFFFFFFFFFFFFFFFFFFFFFFFFFFFFFFFFF AND PUSH20 0xFFFFFFFFFFFFFFFFFFFFFFFFFFFFFFFFFFFFFFFF AND DUP2 MSTORE PUSH1 0x20 ADD SWAP1 DUP2 MSTORE PUSH1 0x20 ADD PUSH0 KECCAK256 PUSH0 PUSH2 0x100 EXP DUP2 SLOAD DUP2 PUSH1 0xFF MUL NOT AND SWAP1 DUP4 ISZERO ISZERO MUL OR SWAP1 SSTORE POP PUSH0 SLOAD CALLER PUSH20 0xFFFFFFFFFFFFFFFFFFFFFFFFFFFFFFFFFFFFFFFF AND PUSH32 0x412664AE8C1956D6B33733FCA284CE973B9B9EBCC700E5FC113233A262DDCF9F PUSH1 0x40 MLOAD PUSH1 0x40 MLOAD DUP1 SWAP2 SUB SWAP1 LOG3 POP JUMP JUMPDEST PUSH1 0x1 PUSH0 SWAP1 SLOAD SWAP1 PUSH2 0x100 EXP SWAP1 DIV PUSH20 0xFFFFFFFFFFFFFFFFFFFFFFFFFFFFFFFFFFFFFFFF AND DUP2 JUMP JUMPDEST PUSH1 0x2 PUSH1 0x20 MSTORE DUP1 PUSH0 MSTORE PUSH1 0x40 PUSH0 KECCAK256 PUSH0 SWAP2 POP SLOAD SWAP1 PUSH2 0x100 EXP SWAP1 DIV PUSH1 0xFF AND DUP2 JUMP JUMPDEST PUSH0 SLOAD DUP2 JUMP JUMPDEST PUSH0 PUSH20 0xFFFFFFFFFFFFFFFFFFFFFFFFFFFFFFFFFFFFFFFF DUP3 AND SWAP1 POP SWAP2 SWAP1 POP JUMP JUMPDEST PUSH0 PUSH2 0x3B8 DUP3 PUSH2 0x38F JUMP JUMPDEST SWAP1 POP SWAP2 SWAP1 POP JUMP JUMPDEST PUSH2 0x3C8 DUP2 PUSH2 0x3AE JUMP JUMPDEST DUP3 MSTORE POP POP JUMP JUMPDEST PUSH0 PUSH1 0x20 DUP3 ADD SWAP1 POP PUSH2 0x3E1 PUSH0 DUP4 ADD DUP5 PUSH2 0x3BF JUMP JUMPDEST SWAP3 SWAP2 POP POP JUMP JUMPDEST PUSH0 PUSH0 REVERT JUMPDEST PUSH2 0x3F4 DUP2 PUSH2 0x3AE JUMP JUMPDEST DUP2 EQ PUSH2 0x3FE JUMPI PUSH0 PUSH0 REVERT JUMPDEST POP JUMP JUMPDEST PUSH0 DUP2 CALLDATALOAD SWAP1 POP PUSH2 0x40F DUP2 PUSH2 0x3EB JUMP JUMPDEST SWAP3 SWAP2 POP POP JUMP JUMPDEST PUSH0 PUSH1 0x20 DUP3 DUP5 SUB SLT ISZERO PUSH2 0x42A JUMPI PUSH2 0x429 PUSH2 0x3E7 JUMP JUMPDEST JUMPDEST PUSH0 PUSH2 0x437 DUP5 DUP3 DUP6 ADD PUSH2 0x401 JUMP JUMPDEST SWAP2 POP POP SWAP3 SWAP2 POP POP JUMP JUMPDEST PUSH0 DUP2 ISZERO ISZERO SWAP1 POP SWAP2 SWAP1 POP JUMP JUMPDEST PUSH2 0x454 DUP2 PUSH2 0x440 JUMP JUMPDEST DUP3 MSTORE POP POP JUMP JUMPDEST PUSH0 PUSH1 0x20 DUP3 ADD SWAP1 POP PUSH2 0x46D PUSH0 DUP4 ADD DUP5 PUSH2 0x44B JUMP JUMPDEST SWAP3 SWAP2 POP POP JUMP JUMPDEST PUSH0 DUP2 SWAP1 POP SWAP2 SWAP1 POP JUMP JUMPDEST PUSH2 0x485 DUP2 PUSH2 0x473 JUMP JUMPDEST DUP3 MSTORE POP POP JUMP JUMPDEST PUSH0 PUSH1 0x20 DUP3 ADD SWAP1 POP PUSH2 0x49E PUSH0 DUP4 ADD DUP5 PUSH2 0x47C JUMP JUMPDEST SWAP3 SWAP2 POP POP JUMP JUMPDEST PUSH0 DUP3 DUP3 MSTORE PUSH1 0x20 DUP3 ADD SWAP1 POP SWAP3 SWAP2 POP POP JUMP JUMPDEST PUSH32 0x43616E27742052657175657374204D756C7469706C652054696D657321000000 PUSH0 DUP3 ADD MSTORE POP JUMP JUMPDEST PUSH0 PUSH2 0x4E8 PUSH1 0x1D DUP4 PUSH2 0x4A4 JUMP JUMPDEST SWAP2 POP PUSH2 0x4F3 DUP3 PUSH2 0x4B4 JUMP JUMPDEST PUSH1 0x20 DUP3 ADD SWAP1 POP SWAP2 SWAP1 POP JUMP JUMPDEST PUSH0 PUSH1 0x20 DUP3 ADD SWAP1 POP DUP2 DUP2 SUB PUSH0 DUP4 ADD MSTORE PUSH2 0x515 DUP2 PUSH2 0x4DC JUMP JUMPDEST SWAP1 POP SWAP2 SWAP1 POP JUMP JUMPDEST PUSH2 0x525 DUP2 PUSH2 0x473 JUMP JUMPDEST DUP2 EQ PUSH2 0x52F JUMPI PUSH0 PUSH0 REVERT JUMPDEST POP JUMP JUMPDEST PUSH0 DUP2 MLOAD SWAP1 POP PUSH2 0x540 DUP2 PUSH2 0x51C JUMP JUMPDEST SWAP3 SWAP2 POP POP JUMP JUMPDEST PUSH0 PUSH1 0x20 DUP3 DUP5 SUB SLT ISZERO PUSH2 0x55B JUMPI PUSH2 0x55A PUSH2 0x3E7 JUMP JUMPDEST JUMPDEST PUSH0 PUSH2 0x568 DUP5 DUP3 DUP6 ADD PUSH2 0x532 JUMP JUMPDEST SWAP2 POP POP SWAP3 SWAP2 POP POP JUMP JUMPDEST PUSH32 0x46617563657420456D7074792100000000000000000000000000000000000000 PUSH0 DUP3 ADD MSTORE POP JUMP JUMPDEST PUSH0 PUSH2 0x5A5 PUSH1 0xD DUP4 PUSH2 0x4A4 JUMP JUMPDEST SWAP2 POP PUSH2 0x5B0 DUP3 PUSH2 0x571 JUMP JUMPDEST PUSH1 0x20 DUP3 ADD SWAP1 POP SWAP2 SWAP1 POP JUMP JUMPDEST PUSH0 PUSH1 0x20 DUP3 ADD SWAP1 POP DUP2 DUP2 SUB PUSH0 DUP4 ADD MSTORE PUSH2 0x5D2 DUP2 PUSH2 0x599 JUMP JUMPDEST SWAP1 POP SWAP2 SWAP1 POP JUMP JUMPDEST PUSH0 PUSH1 0x40 DUP3 ADD SWAP1 POP PUSH2 0x5EC PUSH0 DUP4 ADD DUP6 PUSH2 0x3BF JUMP JUMPDEST PUSH2 0x5F9 PUSH1 0x20 DUP4 ADD DUP5 PUSH2 0x47C JUMP JUMPDEST SWAP4 SWAP3 POP POP POP JUMP JUMPDEST PUSH2 0x609 DUP2 PUSH2 0x440 JUMP JUMPDEST DUP2 EQ PUSH2 0x613 JUMPI PUSH0 PUSH0 REVERT JUMPDEST POP JUMP JUMPDEST PUSH0 DUP2 MLOAD SWAP1 POP PUSH2 0x624 DUP2 PUSH2 0x600 JUMP JUMPDEST SWAP3 SWAP2 POP POP JUMP JUMPDEST PUSH0 PUSH1 0x20 DUP3 DUP5 SUB SLT ISZERO PUSH2 0x63F JUMPI PUSH2 0x63E PUSH2 0x3E7 JUMP JUMPDEST JUMPDEST PUSH0 PUSH2 0x64C DUP5 DUP3 DUP6 ADD PUSH2 0x616 JUMP JUMPDEST SWAP2 POP POP SWAP3 SWAP2 POP POP JUMP INVALID LOG2 PUSH5 0x6970667358 0x22 SLT KECCAK256 EXTCODESIZE 0xFC 0xBD RETF SAR PC PUSH11 0x5F4349426456BC548F9B04 0xAE 0xD7 GAS 0xDF SAR 0x23 0x26 0xE9 KECCAK256 SAR PUSH28 0xDC814964736F6C634300081E00330000000000000000000000000000 "
				},
				"gasEstimates": {
					"creation": {
						"codeDepositCost": "335000",
						"executionCost": "infinite",
						"totalCost": "infinite"
					},
					"external": {
						"amountAllowed()": "2468",
						"requestToken()": "infinite",
						"requestedAddress(address)": "2855",
						"tokenContract()": "2508"
					}
				},
				"methodIdentifiers": {
					"amountAllowed()": "9ad2cd14",
					"requestToken()": "4d7ec628",
					"requestedAddress(address)": "5e33dba9",
					"tokenContract()": "55a373d6"
				}
			},
			"storageLayout": {
				"storage": [
					{
						"astId": 5,
						"contract": "contracts/Faucet.sol:Faucet",
						"label": "amountAllowed",
						"offset": 0,
						"slot": "0",
						"type": "t_uint256"
					},
					{
						"astId": 7,
						"contract": "contracts/Faucet.sol:Faucet",
						"label": "tokenContract",
						"offset": 0,
						"slot": "1",
						"type": "t_address"
					},
					{
						"astId": 11,
						"contract": "contracts/Faucet.sol:Faucet",
						"label": "requestedAddress",
						"offset": 0,
						"slot": "2",
						"type": "t_mapping(t_address,t_bool)"
					}
				],
				"types": {
					"t_address": {
						"encoding": "inplace",
						"label": "address",
						"numberOfBytes": "20"
					},
					"t_bool": {
						"encoding": "inplace",
						"label": "bool",
						"numberOfBytes": "1"
					},
					"t_mapping(t_address,t_bool)": {
						"encoding": "mapping",
						"key": "t_address",
						"label": "mapping(address => bool)",
						"numberOfBytes": "32",
						"value": "t_bool"
					},
					"t_uint256": {
						"encoding": "inplace",
						"label": "uint256",
						"numberOfBytes": "32"
					}
				}
			},
			"userdoc": {
				"kind": "user",
				"methods": {},
				"version": 1
			}
		}
	}
}