{
	"data": {
		"bytecode": {
			"linkReferences": {},
			"object": "608060405234801561000f575f5ffd5b506040518060400160405280601181526020017f5754462044757463682041756374696f6e0000000000000000000000000000008152506040518060400160405280601181526020017f5754462044757463682041756374696f6e000000000000000000000000000000815250335f73ffffffffffffffffffffffffffffffffffffffff168173ffffffffffffffffffffffffffffffffffffffff16036100ed575f6040517f1e4fbdf70000000000000000000000000000000000000000000000000000000081526004016100e4919061022b565b60405180910390fd5b6100fc8161012b60201b60201c565b50816001908161010c9190610481565b50806002908161011c9190610481565b50505042600781905550610550565b5f5f5f9054906101000a900473ffffffffffffffffffffffffffffffffffffffff169050815f5f6101000a81548173ffffffffffffffffffffffffffffffffffffffff021916908373ffffffffffffffffffffffffffffffffffffffff1602179055508173ffffffffffffffffffffffffffffffffffffffff168173ffffffffffffffffffffffffffffffffffffffff167f8be0079c531659141344cd1fd0a4f28419497f9722a3daafe3b4186f6b6457e060405160405180910390a35050565b5f73ffffffffffffffffffffffffffffffffffffffff82169050919050565b5f610215826101ec565b9050919050565b6102258161020b565b82525050565b5f60208201905061023e5f83018461021c565b92915050565b5f81519050919050565b7f4e487b71000000000000000000000000000000000000000000000000000000005f52604160045260245ffd5b7f4e487b71000000000000000000000000000000000000000000000000000000005f52602260045260245ffd5b5f60028204905060018216806102bf57607f821691505b6020821081036102d2576102d161027b565b5b50919050565b5f819050815f5260205f209050919050565b5f6020601f8301049050919050565b5f82821b905092915050565b5f600883026103347fffffffffffffffffffffffffffffffffffffffffffffffffffffffffffffffff826102f9565b61033e86836102f9565b95508019841693508086168417925050509392505050565b5f819050919050565b5f819050919050565b5f61038261037d61037884610356565b61035f565b610356565b9050919050565b5f819050919050565b61039b83610368565b6103af6103a782610389565b848454610305565b825550505050565b5f5f905090565b6103c66103b7565b6103d1818484610392565b505050565b5b818110156103f4576103e95f826103be565b6001810190506103d7565b5050565b601f8211156104395761040a816102d8565b610413846102ea565b81016020851015610422578190505b61043661042e856102ea565b8301826103d6565b50505b505050565b5f82821c905092915050565b5f6104595f198460080261043e565b1980831691505092915050565b5f610471838361044a565b9150826002028217905092915050565b61048a82610244565b67ffffffffffffffff8111156104a3576104a261024e565b5b6104ad82546102a8565b6104b88282856103f8565b5f60209050601f8311600181146104e9575f84156104d7578287015190505b6104e18582610466565b865550610548565b601f1984166104f7866102d8565b5f5b8281101561051e578489015182556001820191506020850194506020810190506104f9565b8683101561053b5784890151610537601f89168261044a565b8355505b6001600288020188555050505b505050505050565b612e398061055d5f395ff3fe6080604052600436106101b6575f3560e01c8063715018a6116100eb578063c87b56dd11610089578063e592301a11610063578063e592301a146105c2578063e985e9c5146105ec578063eb54f9ec14610628578063f2fde38b14610652576101b6565b8063c87b56dd14610532578063caf8a6d11461056e578063d8258d9514610598576101b6565b806395d89b41116100c557806395d89b41146104a2578063a22cb465146104cc578063ac446002146104f4578063b88d4fde1461050a576101b6565b8063715018a6146104385780637a1c4a561461044e5780638da5cb5b14610478576101b6565b806342842e0e1161015857806359f369fe1161013257806359f369fe1461036c5780635cae01d3146103965780636352211e146103c057806370a08231146103fc576101b6565b806342842e0e146102fe5780634bd25c6f146103265780634d3554c314610350576101b6565b8063081812fc11610194578063081812fc14610248578063095ea7b31461028457806318160ddd146102ac57806323b872dd146102d6576101b6565b806301ffc9a7146101ba5780630697346f146101f657806306fdde031461021e575b5f5ffd5b3480156101c5575f5ffd5b506101e060048036038101906101db9190611f39565b61067a565b6040516101ed9190611f7e565b60405180910390f35b348015610201575f5ffd5b5061021c60048036038101906102179190611fd0565b6107b3565b005b348015610229575f5ffd5b506102326107cb565b60405161023f919061206b565b60405180910390f35b348015610253575f5ffd5b5061026e600480360381019061026991906120be565b610857565b60405161027b9190612128565b60405180910390f35b34801561028f575f5ffd5b506102aa60048036038101906102a5919061216b565b61092e565b005b3480156102b7575f5ffd5b506102c0610a6c565b6040516102cd91906121b8565b60405180910390f35b3480156102e1575f5ffd5b506102fc60048036038101906102f791906121d1565b610a78565b005b348015610309575f5ffd5b50610324600480360381019061031f91906121d1565b610ae0565b005b348015610331575f5ffd5b5061033a610aff565b60405161034791906121b8565b60405180910390f35b61036a600480360381019061036591906120be565b610bb7565b005b348015610377575f5ffd5b50610380610d52565b60405161038d91906121b8565b60405180910390f35b3480156103a1575f5ffd5b506103aa610d8a565b6040516103b791906121b8565b60405180910390f35b3480156103cb575f5ffd5b506103e660048036038101906103e191906120be565b610d8f565b6040516103f39190612128565b60405180910390f35b348015610407575f5ffd5b50610422600480360381019061041d9190612221565b610e36565b60405161042f91906121b8565b60405180910390f35b348015610443575f5ffd5b5061044c610eea565b005b348015610459575f5ffd5b50610462610efd565b60405161046f91906121b8565b60405180910390f35b348015610483575f5ffd5b5061048c610f09565b6040516104999190612128565b60405180910390f35b3480156104ad575f5ffd5b506104b6610f30565b6040516104c3919061206b565b60405180910390f35b3480156104d7575f5ffd5b506104f260048036038101906104ed9190612276565b610fbc565b005b3480156104ff575f5ffd5b506105086110b4565b005b348015610515575f5ffd5b50610530600480360381019061052b91906123e0565b611167565b005b34801561053d575f5ffd5b50610558600480360381019061055391906120be565b6111d1565b604051610565919061206b565b60405180910390f35b348015610579575f5ffd5b506105826112cb565b60405161058f91906121b8565b60405180910390f35b3480156105a3575f5ffd5b506105ac6112d7565b6040516105b991906121b8565b60405180910390f35b3480156105cd575f5ffd5b506105d66112dd565b6040516105e391906121b8565b60405180910390f35b3480156105f7575f5ffd5b50610612600480360381019061060d9190612460565b6112e3565b60405161061f9190611f7e565b60405180910390f35b348015610633575f5ffd5b5061063c611371565b60405161064991906121b8565b60405180910390f35b34801561065d575f5ffd5b5061067860048036038101906106739190612221565b611377565b005b5f7f80ac58cd000000000000000000000000000000000000000000000000000000007bffffffffffffffffffffffffffffffffffffffffffffffffffffffff1916827bffffffffffffffffffffffffffffffffffffffffffffffffffffffff1916148061074457507f01ffc9a7000000000000000000000000000000000000000000000000000000007bffffffffffffffffffffffffffffffffffffffffffffffffffffffff1916827bffffffffffffffffffffffffffffffffffffffffffffffffffffffff1916145b806107ac57507f5b5e139f000000000000000000000000000000000000000000000000000000007bffffffffffffffffffffffffffffffffffffffffffffffffffffffff1916827bffffffffffffffffffffffffffffffffffffffffffffffffffffffff1916145b9050919050565b6107bb6113fb565b8063ffffffff1660078190555050565b600180546107d8906124cb565b80601f0160208091040260200160405190810160405280929190818152602001828054610804906124cb565b801561084f5780601f106108265761010080835404028352916020019161084f565b820191905f5260205f20905b81548152906001019060200180831161083257829003601f168201915b505050505081565b5f5f73ffffffffffffffffffffffffffffffffffffffff1660035f8481526020019081526020015f205f9054906101000a900473ffffffffffffffffffffffffffffffffffffffff1673ffffffffffffffffffffffffffffffffffffffff16036108f6576040517f08c379a00000000000000000000000000000000000000000000000000000000081526004016108ed90612545565b60405180910390fd5b60055f8381526020019081526020015f205f9054906101000a900473ffffffffffffffffffffffffffffffffffffffff169050919050565b5f60035f8381526020019081526020015f205f9054906101000a900473ffffffffffffffffffffffffffffffffffffffff1690508073ffffffffffffffffffffffffffffffffffffffff163373ffffffffffffffffffffffffffffffffffffffff161480610a1d575060065f8273ffffffffffffffffffffffffffffffffffffffff1673ffffffffffffffffffffffffffffffffffffffff1681526020019081526020015f205f3373ffffffffffffffffffffffffffffffffffffffff1673ffffffffffffffffffffffffffffffffffffffff1681526020019081526020015f205f9054906101000a900460ff165b610a5c576040517f08c379a0000000000000000000000000000000000000000000000000000000008152600401610a53906125ad565b60405180910390fd5b610a67818484611482565b505050565b5f600980549050905090565b5f610a8282610d8f565b9050610a8f813384611531565b610ace576040517f08c379a0000000000000000000000000000000000000000000000000000000008152600401610ac590612615565b60405180910390fd5b610ada8185858561165c565b50505050565b610afa83838360405180602001604052805f815250611167565b505050565b5f600754421015610b1a57670de0b6b3a76400009050610bb4565b61025860075442610b2b9190612660565b10610b405767016345785d8a00009050610bb4565b5f603c60075442610b519190612660565b610b5b91906126c0565b9050603c610258610b6c91906126c0565b67016345785d8a0000670de0b6b3a7640000610b889190612660565b610b9291906126c0565b81610b9d91906126f0565b670de0b6b3a7640000610bb09190612660565b9150505b90565b5f60075490505f8114158015610bcc57508042115b610c0b576040517f08c379a0000000000000000000000000000000000000000000000000000000008152600401610c029061277b565b60405180910390fd5b6103e882610c17610a6c565b610c219190612799565b1115610c62576040517f08c379a0000000000000000000000000000000000000000000000000000000008152600401610c5990612862565b60405180910390fd5b5f82610c6c610aff565b610c7691906126f0565b905034811115610cbb576040517f08c379a0000000000000000000000000000000000000000000000000000000008152600401610cb2906128f0565b60405180910390fd5b5f5f90505b83811015610cf4575f610cd1610a6c565b9050610cdd338261189b565b610ce681611aa9565b508080600101915050610cc0565b5080341115610d4d573373ffffffffffffffffffffffffffffffffffffffff166108fc8234610d239190612660565b90811502906040515f60405180830381858888f19350505050158015610d4b573d5f5f3e3d5ffd5b505b505050565b603c610258610d6191906126c0565b67016345785d8a0000670de0b6b3a7640000610d7d9190612660565b610d8791906126c0565b81565b603c81565b5f60035f8381526020019081526020015f205f9054906101000a900473ffffffffffffffffffffffffffffffffffffffff1690505f73ffffffffffffffffffffffffffffffffffffffff168173ffffffffffffffffffffffffffffffffffffffff1603610e31576040517f08c379a0000000000000000000000000000000000000000000000000000000008152600401610e2890612545565b60405180910390fd5b919050565b5f5f73ffffffffffffffffffffffffffffffffffffffff168273ffffffffffffffffffffffffffffffffffffffff1603610ea5576040517f08c379a0000000000000000000000000000000000000000000000000000000008152600401610e9c90612958565b60405180910390fd5b60045f8373ffffffffffffffffffffffffffffffffffffffff1673ffffffffffffffffffffffffffffffffffffffff1681526020019081526020015f20549050919050565b610ef26113fb565b610efb5f611ad2565b565b670de0b6b3a764000081565b5f5f5f9054906101000a900473ffffffffffffffffffffffffffffffffffffffff16905090565b60028054610f3d906124cb565b80601f0160208091040260200160405190810160405280929190818152602001828054610f69906124cb565b8015610fb45780601f10610f8b57610100808354040283529160200191610fb4565b820191905f5260205f20905b815481529060010190602001808311610f9757829003601f168201915b505050505081565b8060065f3373ffffffffffffffffffffffffffffffffffffffff1673ffffffffffffffffffffffffffffffffffffffff1681526020019081526020015f205f8473ffffffffffffffffffffffffffffffffffffffff1673ffffffffffffffffffffffffffffffffffffffff1681526020019081526020015f205f6101000a81548160ff0219169083151502179055508173ffffffffffffffffffffffffffffffffffffffff163373ffffffffffffffffffffffffffffffffffffffff167f17307eab39ab6107e8899845ad3d59bd9653f200f220920489ca2b5937696c31836040516110a89190611f7e565b60405180910390a35050565b6110bc6113fb565b5f3373ffffffffffffffffffffffffffffffffffffffff16476040516110e1906129a3565b5f6040518083038185875af1925050503d805f811461111b576040519150601f19603f3d011682016040523d82523d5f602084013e611120565b606091505b5050905080611164576040517f08c379a000000000000000000000000000000000000000000000000000000000815260040161115b90612a01565b60405180910390fd5b50565b5f61117183610d8f565b905061117e813385611531565b6111bd576040517f08c379a00000000000000000000000000000000000000000000000000000000081526004016111b490612615565b60405180910390fd5b6111ca8186868686611b93565b5050505050565b60605f73ffffffffffffffffffffffffffffffffffffffff1660035f8481526020019081526020015f205f9054906101000a900473ffffffffffffffffffffffffffffffffffffffff1673ffffffffffffffffffffffffffffffffffffffff1603611271576040517f08c379a000000000000000000000000000000000000000000000000000000000815260040161126890612a69565b60405180910390fd5b5f61127a611bb2565b90505f8151116112985760405180602001604052805f8152506112c3565b806112a284611bc8565b6040516020016112b3929190612ac1565b6040516020818303038152906040525b915050919050565b67016345785d8a000081565b6103e881565b61025881565b5f60065f8473ffffffffffffffffffffffffffffffffffffffff1673ffffffffffffffffffffffffffffffffffffffff1681526020019081526020015f205f8373ffffffffffffffffffffffffffffffffffffffff1673ffffffffffffffffffffffffffffffffffffffff1681526020019081526020015f205f9054906101000a900460ff16905092915050565b60075481565b61137f6113fb565b5f73ffffffffffffffffffffffffffffffffffffffff168173ffffffffffffffffffffffffffffffffffffffff16036113ef575f6040517f1e4fbdf70000000000000000000000000000000000000000000000000000000081526004016113e69190612128565b60405180910390fd5b6113f881611ad2565b50565b611403611d21565b73ffffffffffffffffffffffffffffffffffffffff16611421610f09565b73ffffffffffffffffffffffffffffffffffffffff161461148057611444611d21565b6040517f118cdaa70000000000000000000000000000000000000000000000000000000081526004016114779190612128565b60405180910390fd5b565b8160055f8381526020019081526020015f205f6101000a81548173ffffffffffffffffffffffffffffffffffffffff021916908373ffffffffffffffffffffffffffffffffffffffff160217905550808273ffffffffffffffffffffffffffffffffffffffff168473ffffffffffffffffffffffffffffffffffffffff167f8c5be1e5ebec7d5bd14f71427d1e84f3dd0314c0f7b2291e5b200ac8c7c3b92560405160405180910390a4505050565b5f8373ffffffffffffffffffffffffffffffffffffffff168373ffffffffffffffffffffffffffffffffffffffff1614806115c757508273ffffffffffffffffffffffffffffffffffffffff1660055f8481526020019081526020015f205f9054906101000a900473ffffffffffffffffffffffffffffffffffffffff1673ffffffffffffffffffffffffffffffffffffffff16145b80611653575060065f8573ffffffffffffffffffffffffffffffffffffffff1673ffffffffffffffffffffffffffffffffffffffff1681526020019081526020015f205f8473ffffffffffffffffffffffffffffffffffffffff1673ffffffffffffffffffffffffffffffffffffffff1681526020019081526020015f205f9054906101000a900460ff165b90509392505050565b8373ffffffffffffffffffffffffffffffffffffffff168373ffffffffffffffffffffffffffffffffffffffff16146116ca576040517f08c379a00000000000000000000000000000000000000000000000000000000081526004016116c190612b2e565b60405180910390fd5b5f73ffffffffffffffffffffffffffffffffffffffff168273ffffffffffffffffffffffffffffffffffffffff1603611738576040517f08c379a000000000000000000000000000000000000000000000000000000000815260040161172f90612b96565b60405180910390fd5b611743845f83611482565b600160045f8573ffffffffffffffffffffffffffffffffffffffff1673ffffffffffffffffffffffffffffffffffffffff1681526020019081526020015f205f8282546117909190612660565b92505081905550600160045f8473ffffffffffffffffffffffffffffffffffffffff1673ffffffffffffffffffffffffffffffffffffffff1681526020019081526020015f205f8282546117e49190612799565b925050819055508160035f8381526020019081526020015f205f6101000a81548173ffffffffffffffffffffffffffffffffffffffff021916908373ffffffffffffffffffffffffffffffffffffffff160217905550808273ffffffffffffffffffffffffffffffffffffffff168473ffffffffffffffffffffffffffffffffffffffff167fddf252ad1be2c89b69c2b068fc378daa952ba7f163c4a11628f55a4df523b3ef60405160405180910390a450505050565b5f73ffffffffffffffffffffffffffffffffffffffff168273ffffffffffffffffffffffffffffffffffffffff1603611909576040517f08c379a000000000000000000000000000000000000000000000000000000000815260040161190090612bfe565b60405180910390fd5b5f73ffffffffffffffffffffffffffffffffffffffff1660035f8381526020019081526020015f205f9054906101000a900473ffffffffffffffffffffffffffffffffffffffff1673ffffffffffffffffffffffffffffffffffffffff16146119a7576040517f08c379a000000000000000000000000000000000000000000000000000000000815260040161199e90612c66565b60405180910390fd5b600160045f8473ffffffffffffffffffffffffffffffffffffffff1673ffffffffffffffffffffffffffffffffffffffff1681526020019081526020015f205f8282546119f49190612799565b925050819055508160035f8381526020019081526020015f205f6101000a81548173ffffffffffffffffffffffffffffffffffffffff021916908373ffffffffffffffffffffffffffffffffffffffff160217905550808273ffffffffffffffffffffffffffffffffffffffff165f73ffffffffffffffffffffffffffffffffffffffff167fddf252ad1be2c89b69c2b068fc378daa952ba7f163c4a11628f55a4df523b3ef60405160405180910390a45050565b600981908060018154018082558091505060019003905f5260205f20015f909190919091505550565b5f5f5f9054906101000a900473ffffffffffffffffffffffffffffffffffffffff169050815f5f6101000a81548173ffffffffffffffffffffffffffffffffffffffff021916908373ffffffffffffffffffffffffffffffffffffffff1602179055508173ffffffffffffffffffffffffffffffffffffffff168173ffffffffffffffffffffffffffffffffffffffff167f8be0079c531659141344cd1fd0a4f28419497f9722a3daafe3b4186f6b6457e060405160405180910390a35050565b611b9f8585858561165c565b611bab84848484611d28565b5050505050565b606060405180602001604052805f815250905090565b60605f8203611c0e576040518060400160405280600181526020017f30000000000000000000000000000000000000000000000000000000000000008152509050611d1c565b5f8290505f5b5f8214611c3d578080611c2690612c84565b915050600a82611c3691906126c0565b9150611c14565b5f8167ffffffffffffffff811115611c5857611c576122bc565b5b6040519080825280601f01601f191660200182016040528015611c8a5781602001600182028036833780820191505090505b5090505b5f8514611d1557600182611ca29190612660565b9150600a85611cb19190612ccb565b6030611cbd9190612799565b60f81b818381518110611cd357611cd2612cfb565b5b60200101907effffffffffffffffffffffffffffffffffffffffffffffffffffffffffffff191690815f1a905350600a85611d0e91906126c0565b9450611c8e565b8093505050505b919050565b5f33905090565b5f8373ffffffffffffffffffffffffffffffffffffffff163b1115611ecd578273ffffffffffffffffffffffffffffffffffffffff1663150b7a02338685856040518563ffffffff1660e01b8152600401611d869493929190612d7a565b6020604051808303815f875af1925050508015611dc157506040513d601f19601f82011682018060405250810190611dbe9190612dd8565b60015b611e42573d805f8114611def576040519150601f19603f3d011682016040523d82523d5f602084013e611df4565b606091505b505f815103611e3a57836040517f64a0ae92000000000000000000000000000000000000000000000000000000008152600401611e319190612128565b60405180910390fd5b805181602001fd5b63150b7a0260e01b7bffffffffffffffffffffffffffffffffffffffffffffffffffffffff1916817bffffffffffffffffffffffffffffffffffffffffffffffffffffffff191614611ecb57836040517f64a0ae92000000000000000000000000000000000000000000000000000000008152600401611ec29190612128565b60405180910390fd5b505b50505050565b5f604051905090565b5f5ffd5b5f5ffd5b5f7fffffffff0000000000000000000000000000000000000000000000000000000082169050919050565b611f1881611ee4565b8114611f22575f5ffd5b50565b5f81359050611f3381611f0f565b92915050565b5f60208284031215611f4e57611f4d611edc565b5b5f611f5b84828501611f25565b91505092915050565b5f8115159050919050565b611f7881611f64565b82525050565b5f602082019050611f915f830184611f6f565b92915050565b5f63ffffffff82169050919050565b611faf81611f97565b8114611fb9575f5ffd5b50565b5f81359050611fca81611fa6565b92915050565b5f60208284031215611fe557611fe4611edc565b5b5f611ff284828501611fbc565b91505092915050565b5f81519050919050565b5f82825260208201905092915050565b8281835e5f83830152505050565b5f601f19601f8301169050919050565b5f61203d82611ffb565b6120478185612005565b9350612057818560208601612015565b61206081612023565b840191505092915050565b5f6020820190508181035f8301526120838184612033565b905092915050565b5f819050919050565b61209d8161208b565b81146120a7575f5ffd5b50565b5f813590506120b881612094565b92915050565b5f602082840312156120d3576120d2611edc565b5b5f6120e0848285016120aa565b91505092915050565b5f73ffffffffffffffffffffffffffffffffffffffff82169050919050565b5f612112826120e9565b9050919050565b61212281612108565b82525050565b5f60208201905061213b5f830184612119565b92915050565b61214a81612108565b8114612154575f5ffd5b50565b5f8135905061216581612141565b92915050565b5f5f6040838503121561218157612180611edc565b5b5f61218e85828601612157565b925050602061219f858286016120aa565b9150509250929050565b6121b28161208b565b82525050565b5f6020820190506121cb5f8301846121a9565b92915050565b5f5f5f606084860312156121e8576121e7611edc565b5b5f6121f586828701612157565b935050602061220686828701612157565b9250506040612217868287016120aa565b9150509250925092565b5f6020828403121561223657612235611edc565b5b5f61224384828501612157565b91505092915050565b61225581611f64565b811461225f575f5ffd5b50565b5f813590506122708161224c565b92915050565b5f5f6040838503121561228c5761228b611edc565b5b5f61229985828601612157565b92505060206122aa85828601612262565b9150509250929050565b5f5ffd5b5f5ffd5b7f4e487b71000000000000000000000000000000000000000000000000000000005f52604160045260245ffd5b6122f282612023565b810181811067ffffffffffffffff82111715612311576123106122bc565b5b80604052505050565b5f612323611ed3565b905061232f82826122e9565b919050565b5f67ffffffffffffffff82111561234e5761234d6122bc565b5b61235782612023565b9050602081019050919050565b828183375f83830152505050565b5f61238461237f84612334565b61231a565b9050828152602081018484840111156123a05761239f6122b8565b5b6123ab848285612364565b509392505050565b5f82601f8301126123c7576123c66122b4565b5b81356123d7848260208601612372565b91505092915050565b5f5f5f5f608085870312156123f8576123f7611edc565b5b5f61240587828801612157565b945050602061241687828801612157565b9350506040612427878288016120aa565b925050606085013567ffffffffffffffff81111561244857612447611ee0565b5b612454878288016123b3565b91505092959194509250565b5f5f6040838503121561247657612475611edc565b5b5f61248385828601612157565b925050602061249485828601612157565b9150509250929050565b7f4e487b71000000000000000000000000000000000000000000000000000000005f52602260045260245ffd5b5f60028204905060018216806124e257607f821691505b6020821081036124f5576124f461249e565b5b50919050565b7f746f6b656e20646f65736e2774206578697374000000000000000000000000005f82015250565b5f61252f601383612005565b915061253a826124fb565b602082019050919050565b5f6020820190508181035f83015261255c81612523565b9050919050565b7f6e6f74206f776e6572206e6f7220617070726f76656420666f7220616c6c00005f82015250565b5f612597601e83612005565b91506125a282612563565b602082019050919050565b5f6020820190508181035f8301526125c48161258b565b9050919050565b7f6e6f74206f776e6572206e6f7220617070726f766564000000000000000000005f82015250565b5f6125ff601683612005565b915061260a826125cb565b602082019050919050565b5f6020820190508181035f83015261262c816125f3565b9050919050565b7f4e487b71000000000000000000000000000000000000000000000000000000005f52601160045260245ffd5b5f61266a8261208b565b91506126758361208b565b925082820390508181111561268d5761268c612633565b5b92915050565b7f4e487b71000000000000000000000000000000000000000000000000000000005f52601260045260245ffd5b5f6126ca8261208b565b91506126d58361208b565b9250826126e5576126e4612693565b5b828204905092915050565b5f6126fa8261208b565b91506127058361208b565b92508282026127138161208b565b9150828204841483151761272a57612729612633565b5b5092915050565b7f73616c6520686173206e6f7420737461727465642079657400000000000000005f82015250565b5f612765601883612005565b915061277082612731565b602082019050919050565b5f6020820190508181035f83015261279281612759565b9050919050565b5f6127a38261208b565b91506127ae8361208b565b92508282019050808211156127c6576127c5612633565b5b92915050565b7f6e6f7420656e6f7567682072656d61696e696e6720726573657276656420666f5f8201527f722061756374696f6e20746f20737570706f72742064657369726564206d696e60208201527f7420616d6f756e74000000000000000000000000000000000000000000000000604082015250565b5f61284c604883612005565b9150612857826127cc565b606082019050919050565b5f6020820190508181035f83015261287981612840565b9050919050565b7f6e6f7420656e6f7567682045544820746f206d696e74206465736972656420615f8201527f6d6f756e74000000000000000000000000000000000000000000000000000000602082015250565b5f6128da602583612005565b91506128e582612880565b604082019050919050565b5f6020820190508181035f830152612907816128ce565b9050919050565b7f6f776e6572203d207a65726f20616464726573730000000000000000000000005f82015250565b5f612942601483612005565b915061294d8261290e565b602082019050919050565b5f6020820190508181035f83015261296f81612936565b9050919050565b5f81905092915050565b50565b5f61298e5f83612976565b915061299982612980565b5f82019050919050565b5f6129ad82612983565b9150819050919050565b7f5472616e73666572206661696c65642e000000000000000000000000000000005f82015250565b5f6129eb601083612005565b91506129f6826129b7565b602082019050919050565b5f6020820190508181035f830152612a18816129df565b9050919050565b7f546f6b656e204e6f7420457869737400000000000000000000000000000000005f82015250565b5f612a53600f83612005565b9150612a5e82612a1f565b602082019050919050565b5f6020820190508181035f830152612a8081612a47565b9050919050565b5f81905092915050565b5f612a9b82611ffb565b612aa58185612a87565b9350612ab5818560208601612015565b80840191505092915050565b5f612acc8285612a91565b9150612ad88284612a91565b91508190509392505050565b7f6e6f74206f776e657200000000000000000000000000000000000000000000005f82015250565b5f612b18600983612005565b9150612b2382612ae4565b602082019050919050565b5f6020820190508181035f830152612b4581612b0c565b9050919050565b7f7472616e7366657220746f20746865207a65726f2061646472657373000000005f82015250565b5f612b80601c83612005565b9150612b8b82612b4c565b602082019050919050565b5f6020820190508181035f830152612bad81612b74565b9050919050565b7f6d696e7420746f207a65726f20616464726573730000000000000000000000005f82015250565b5f612be8601483612005565b9150612bf382612bb4565b602082019050919050565b5f6020820190508181035f830152612c1581612bdc565b9050919050565b7f746f6b656e20616c7265616479206d696e7465640000000000000000000000005f82015250565b5f612c50601483612005565b9150612c5b82612c1c565b602082019050919050565b5f6020820190508181035f830152612c7d81612c44565b9050919050565b5f612c8e8261208b565b91507fffffffffffffffffffffffffffffffffffffffffffffffffffffffffffffffff8203612cc057612cbf612633565b5b600182019050919050565b5f612cd58261208b565b9150612ce08361208b565b925082612cf057612cef612693565b5b828206905092915050565b7f4e487b71000000000000000000000000000000000000000000000000000000005f52603260045260245ffd5b5f81519050919050565b5f82825260208201905092915050565b5f612d4c82612d28565b612d568185612d32565b9350612d66818560208601612015565b612d6f81612023565b840191505092915050565b5f608082019050612d8d5f830187612119565b612d9a6020830186612119565b612da760408301856121a9565b8181036060830152612db98184612d42565b905095945050505050565b5f81519050612dd281611f0f565b92915050565b5f60208284031215612ded57612dec611edc565b5b5f612dfa84828501612dc4565b9150509291505056fea2646970667358221220ceae296fd22b50c4a3e6789cc1b0b06cb7cdb73f776d2726cda27598687409d364736f6c634300081e0033",
			"opcodes": "PUSH1 0x80 PUSH1 0x40 MSTORE CALLVALUE DUP1 ISZERO PUSH2 0xF JUMPI PUSH0 PUSH0 REVERT JUMPDEST POP PUSH1 0x40 MLOAD DUP1 PUSH1 0x40 ADD PUSH1 0x40 MSTORE DUP1 PUSH1 0x11 DUP2 MSTORE PUSH1 0x20 ADD PUSH32 0x5754462044757463682041756374696F6E000000000000000000000000000000 DUP2 MSTORE POP PUSH1 0x40 MLOAD DUP1 PUSH1 0x40 ADD PUSH1 0x40 MSTORE DUP1 PUSH1 0x11 DUP2 MSTORE PUSH1 0x20 ADD PUSH32 0x5754462044757463682041756374696F6E000000000000000000000000000000 DUP2 MSTORE POP CALLER PUSH0 PUSH20 0xFFFFFFFFFFFFFFFFFFFFFFFFFFFFFFFFFFFFFFFF AND DUP2 PUSH20 0xFFFFFFFFFFFFFFFFFFFFFFFFFFFFFFFFFFFFFFFF AND SUB PUSH2 0xED JUMPI PUSH0 PUSH1 0x40 MLOAD PUSH32 0x1E4FBDF700000000000000000000000000000000000000000000000000000000 DUP2 MSTORE PUSH1 0x4 ADD PUSH2 0xE4 SWAP2 SWAP1 PUSH2 0x22B JUMP JUMPDEST PUSH1 0x40 MLOAD DUP1 SWAP2 SUB SWAP1 REVERT JUMPDEST PUSH2 0xFC DUP2 PUSH2 0x12B PUSH1 0x20 SHL PUSH1 0x20 SHR JUMP JUMPDEST POP DUP2 PUSH1 0x1 SWAP1 DUP2 PUSH2 0x10C SWAP2 SWAP1 PUSH2 0x481 JUMP JUMPDEST POP DUP1 PUSH1 0x2 SWAP1 DUP2 PUSH2 0x11C SWAP2 SWAP1 PUSH2 0x481 JUMP JUMPDEST POP POP POP TIMESTAMP PUSH1 0x7 DUP2 SWAP1 SSTORE POP PUSH2 0x550 JUMP JUMPDEST PUSH0 PUSH0 PUSH0 SWAP1 SLOAD SWAP1 PUSH2 0x100 EXP SWAP1 DIV PUSH20 0xFFFFFFFFFFFFFFFFFFFFFFFFFFFFFFFFFFFFFFFF AND SWAP1 POP DUP2 PUSH0 PUSH0 PUSH2 0x100 EXP DUP2 SLOAD DUP2 PUSH20 0xFFFFFFFFFFFFFFFFFFFFFFFFFFFFFFFFFFFFFFFF MUL NOT AND SWAP1 DUP4 PUSH20 0xFFFFFFFFFFFFFFFFFFFFFFFFFFFFFFFFFFFFFFFF AND MUL OR SWAP1 SSTORE POP DUP2 PUSH20 0xFFFFFFFFFFFFFFFFFFFFFFFFFFFFFFFFFFFFFFFF AND DUP2 PUSH20 0xFFFFFFFFFFFFFFFFFFFFFFFFFFFFFFFFFFFFFFFF AND PUSH32 0x8BE0079C531659141344CD1FD0A4F28419497F9722A3DAAFE3B4186F6B6457E0 PUSH1 0x40 MLOAD PUSH1 0x40 MLOAD DUP1 SWAP2 SUB SWAP1 LOG3 POP POP JUMP JUMPDEST PUSH0 PUSH20 0xFFFFFFFFFFFFFFFFFFFFFFFFFFFFFFFFFFFFFFFF DUP3 AND SWAP1 POP SWAP2 SWAP1 POP JUMP JUMPDEST PUSH0 PUSH2 0x215 DUP3 PUSH2 0x1EC JUMP JUMPDEST SWAP1 POP SWAP2 SWAP1 POP JUMP JUMPDEST PUSH2 0x225 DUP2 PUSH2 0x20B JUMP JUMPDEST DUP3 MSTORE POP POP JUMP JUMPDEST PUSH0 PUSH1 0x20 DUP3 ADD SWAP1 POP PUSH2 0x23E PUSH0 DUP4 ADD DUP5 PUSH2 0x21C JUMP JUMPDEST SWAP3 SWAP2 POP POP JUMP JUMPDEST PUSH0 DUP2 MLOAD SWAP1 POP SWAP2 SWAP1 POP JUMP JUMPDEST PUSH32 0x4E487B7100000000000000000000000000000000000000000000000000000000 PUSH0 MSTORE PUSH1 0x41 PUSH1 0x4 MSTORE PUSH1 0x24 PUSH0 REVERT JUMPDEST PUSH32 0x4E487B7100000000000000000000000000000000000000000000000000000000 PUSH0 MSTORE PUSH1 0x22 PUSH1 0x4 MSTORE PUSH1 0x24 PUSH0 REVERT JUMPDEST PUSH0 PUSH1 0x2 DUP3 DIV SWAP1 POP PUSH1 0x1 DUP3 AND DUP1 PUSH2 0x2BF JUMPI PUSH1 0x7F DUP3 AND SWAP2 POP JUMPDEST PUSH1 0x20 DUP3 LT DUP2 SUB PUSH2 0x2D2 JUMPI PUSH2 0x2D1 PUSH2 0x27B JUMP JUMPDEST JUMPDEST POP SWAP2 SWAP1 POP JUMP JUMPDEST PUSH0 DUP2 SWAP1 POP DUP2 PUSH0 MSTORE PUSH1 0x20 PUSH0 KECCAK256 SWAP1 POP SWAP2 SWAP1 POP JUMP JUMPDEST PUSH0 PUSH1 0x20 PUSH1 0x1F DUP4 ADD DIV SWAP1 POP SWAP2 SWAP1 POP JUMP JUMPDEST PUSH0 DUP3 DUP3 SHL SWAP1 POP SWAP3 SWAP2 POP POP JUMP JUMPDEST PUSH0 PUSH1 0x8 DUP4 MUL PUSH2 0x334 PUSH32 0xFFFFFFFFFFFFFFFFFFFFFFFFFFFFFFFFFFFFFFFFFFFFFFFFFFFFFFFFFFFFFFFF DUP3 PUSH2 0x2F9 JUMP JUMPDEST PUSH2 0x33E DUP7 DUP4 PUSH2 0x2F9 JUMP JUMPDEST SWAP6 POP DUP1 NOT DUP5 AND SWAP4 POP DUP1 DUP7 AND DUP5 OR SWAP3 POP POP POP SWAP4 SWAP3 POP POP POP JUMP JUMPDEST PUSH0 DUP2 SWAP1 POP SWAP2 SWAP1 POP JUMP JUMPDEST PUSH0 DUP2 SWAP1 POP SWAP2 SWAP1 POP JUMP JUMPDEST PUSH0 PUSH2 0x382 PUSH2 0x37D PUSH2 0x378 DUP5 PUSH2 0x356 JUMP JUMPDEST PUSH2 0x35F JUMP JUMPDEST PUSH2 0x356 JUMP JUMPDEST SWAP1 POP SWAP2 SWAP1 POP JUMP JUMPDEST PUSH0 DUP2 SWAP1 POP SWAP2 SWAP1 POP JUMP JUMPDEST PUSH2 0x39B DUP4 PUSH2 0x368 JUMP JUMPDEST PUSH2 0x3AF PUSH2 0x3A7 DUP3 PUSH2 0x389 JUMP JUMPDEST DUP5 DUP5 SLOAD PUSH2 0x305 JUMP JUMPDEST DUP3 SSTORE POP POP POP POP JUMP JUMPDEST PUSH0 PUSH0 SWAP1 POP SWAP1 JUMP JUMPDEST PUSH2 0x3C6 PUSH2 0x3B7 JUMP JUMPDEST PUSH2 0x3D1 DUP2 DUP5 DUP5 PUSH2 0x392 JUMP JUMPDEST POP POP POP JUMP JUMPDEST JUMPDEST DUP2 DUP2 LT ISZERO PUSH2 0x3F4 JUMPI PUSH2 0x3E9 PUSH0 DUP3 PUSH2 0x3BE JUMP JUMPDEST PUSH1 0x1 DUP2 ADD SWAP1 POP PUSH2 0x3D7 JUMP JUMPDEST POP POP JUMP JUMPDEST PUSH1 0x1F DUP3 GT ISZERO PUSH2 0x439 JUMPI PUSH2 0x40A DUP2 PUSH2 0x2D8 JUMP JUMPDEST PUSH2 0x413 DUP5 PUSH2 0x2EA JUMP JUMPDEST DUP2 ADD PUSH1 0x20 DUP6 LT ISZERO PUSH2 0x422 JUMPI DUP2 SWAP1 POP JUMPDEST PUSH2 0x436 PUSH2 0x42E DUP6 PUSH2 0x2EA JUMP JUMPDEST DUP4 ADD DUP3 PUSH2 0x3D6 JUMP JUMPDEST POP POP JUMPDEST POP POP POP JUMP JUMPDEST PUSH0 DUP3 DUP3 SHR SWAP1 POP SWAP3 SWAP2 POP POP JUMP JUMPDEST PUSH0 PUSH2 0x459 PUSH0 NOT DUP5 PUSH1 0x8 MUL PUSH2 0x43E JUMP JUMPDEST NOT DUP1 DUP4 AND SWAP2 POP POP SWAP3 SWAP2 POP POP JUMP JUMPDEST PUSH0 PUSH2 0x471 DUP4 DUP4 PUSH2 0x44A JUMP JUMPDEST SWAP2 POP DUP3 PUSH1 0x2 MUL DUP3 OR SWAP1 POP SWAP3 SWAP2 POP POP JUMP JUMPDEST PUSH2 0x48A DUP3 PUSH2 0x244 JUMP JUMPDEST PUSH8 0xFFFFFFFFFFFFFFFF DUP2 GT ISZERO PUSH2 0x4A3 JUMPI PUSH2 0x4A2 PUSH2 0x24E JUMP JUMPDEST JUMPDEST PUSH2 0x4AD DUP3 SLOAD PUSH2 0x2A8 JUMP JUMPDEST PUSH2 0x4B8 DUP3 DUP3 DUP6 PUSH2 0x3F8 JUMP JUMPDEST PUSH0 PUSH1 0x20 SWAP1 POP PUSH1 0x1F DUP4 GT PUSH1 0x1 DUP2 EQ PUSH2 0x4E9 JUMPI PUSH0 DUP5 ISZERO PUSH2 0x4D7 JUMPI DUP3 DUP8 ADD MLOAD SWAP1 POP JUMPDEST PUSH2 0x4E1 DUP6 DUP3 PUSH2 0x466 JUMP JUMPDEST DUP7 SSTORE POP PUSH2 0x548 JUMP JUMPDEST PUSH1 0x1F NOT DUP5 AND PUSH2 0x4F7 DUP7 PUSH2 0x2D8 JUMP JUMPDEST PUSH0 JUMPDEST DUP3 DUP2 LT ISZERO PUSH2 0x51E JUMPI DUP5 DUP10 ADD MLOAD DUP3 SSTORE PUSH1 0x1 DUP3 ADD SWAP2 POP PUSH1 0x20 DUP6 ADD SWAP5 POP PUSH1 0x20 DUP2 ADD SWAP1 POP PUSH2 0x4F9 JUMP JUMPDEST DUP7 DUP4 LT ISZERO PUSH2 0x53B JUMPI DUP5 DUP10 ADD MLOAD PUSH2 0x537 PUSH1 0x1F DUP10 AND DUP3 PUSH2 0x44A JUMP JUMPDEST DUP4 SSTORE POP JUMPDEST PUSH1 0x1 PUSH1 0x2 DUP9 MUL ADD DUP9 SSTORE POP POP POP JUMPDEST POP POP POP POP POP POP JUMP JUMPDEST PUSH2 0x2E39 DUP1 PUSH2 0x55D PUSH0 CODECOPY PUSH0 RETURN INVALID PUSH1 0x80 PUSH1 0x40 MSTORE PUSH1 0x4 CALLDATASIZE LT PUSH2 0x1B6 JUMPI PUSH0 CALLDATALOAD PUSH1 0xE0 SHR DUP1 PUSH4 0x715018A6 GT PUSH2 0xEB JUMPI DUP1 PUSH4 0xC87B56DD GT PUSH2 0x89 JUMPI DUP1 PUSH4 0xE592301A GT PUSH2 0x63 JUMPI DUP1 PUSH4 0xE592301A EQ PUSH2 0x5C2 JUMPI DUP1 PUSH4 0xE985E9C5 EQ PUSH2 0x5EC JUMPI DUP1 PUSH4 0xEB54F9EC EQ PUSH2 0x628 JUMPI DUP1 PUSH4 0xF2FDE38B EQ PUSH2 0x652 JUMPI PUSH2 0x1B6 JUMP JUMPDEST DUP1 PUSH4 0xC87B56DD EQ PUSH2 0x532 JUMPI DUP1 PUSH4 0xCAF8A6D1 EQ PUSH2 0x56E JUMPI DUP1 PUSH4 0xD8258D95 EQ PUSH2 0x598 JUMPI PUSH2 0x1B6 JUMP JUMPDEST DUP1 PUSH4 0x95D89B41 GT PUSH2 0xC5 JUMPI DUP1 PUSH4 0x95D89B41 EQ PUSH2 0x4A2 JUMPI DUP1 PUSH4 0xA22CB465 EQ PUSH2 0x4CC JUMPI DUP1 PUSH4 0xAC446002 EQ PUSH2 0x4F4 JUMPI DUP1 PUSH4 0xB88D4FDE EQ PUSH2 0x50A JUMPI PUSH2 0x1B6 JUMP JUMPDEST DUP1 PUSH4 0x715018A6 EQ PUSH2 0x438 JUMPI DUP1 PUSH4 0x7A1C4A56 EQ PUSH2 0x44E JUMPI DUP1 PUSH4 0x8DA5CB5B EQ PUSH2 0x478 JUMPI PUSH2 0x1B6 JUMP JUMPDEST DUP1 PUSH4 0x42842E0E GT PUSH2 0x158 JUMPI DUP1 PUSH4 0x59F369FE GT PUSH2 0x132 JUMPI DUP1 PUSH4 0x59F369FE EQ PUSH2 0x36C JUMPI DUP1 PUSH4 0x5CAE01D3 EQ PUSH2 0x396 JUMPI DUP1 PUSH4 0x6352211E EQ PUSH2 0x3C0 JUMPI DUP1 PUSH4 0x70A08231 EQ PUSH2 0x3FC JUMPI PUSH2 0x1B6 JUMP JUMPDEST DUP1 PUSH4 0x42842E0E EQ PUSH2 0x2FE JUMPI DUP1 PUSH4 0x4BD25C6F EQ PUSH2 0x326 JUMPI DUP1 PUSH4 0x4D3554C3 EQ PUSH2 0x350 JUMPI PUSH2 0x1B6 JUMP JUMPDEST DUP1 PUSH4 0x81812FC GT PUSH2 0x194 JUMPI DUP1 PUSH4 0x81812FC EQ PUSH2 0x248 JUMPI DUP1 PUSH4 0x95EA7B3 EQ PUSH2 0x284 JUMPI DUP1 PUSH4 0x18160DDD EQ PUSH2 0x2AC JUMPI DUP1 PUSH4 0x23B872DD EQ PUSH2 0x2D6 JUMPI PUSH2 0x1B6 JUMP JUMPDEST DUP1 PUSH4 0x1FFC9A7 EQ PUSH2 0x1BA JUMPI DUP1 PUSH4 0x697346F EQ PUSH2 0x1F6 JUMPI DUP1 PUSH4 0x6FDDE03 EQ PUSH2 0x21E JUMPI JUMPDEST PUSH0 PUSH0 REVERT JUMPDEST CALLVALUE DUP1 ISZERO PUSH2 0x1C5 JUMPI PUSH0 PUSH0 REVERT JUMPDEST POP PUSH2 0x1E0 PUSH1 0x4 DUP1 CALLDATASIZE SUB DUP2 ADD SWAP1 PUSH2 0x1DB SWAP2 SWAP1 PUSH2 0x1F39 JUMP JUMPDEST PUSH2 0x67A JUMP JUMPDEST PUSH1 0x40 MLOAD PUSH2 0x1ED SWAP2 SWAP1 PUSH2 0x1F7E JUMP JUMPDEST PUSH1 0x40 MLOAD DUP1 SWAP2 SUB SWAP1 RETURN JUMPDEST CALLVALUE DUP1 ISZERO PUSH2 0x201 JUMPI PUSH0 PUSH0 REVERT JUMPDEST POP PUSH2 0x21C PUSH1 0x4 DUP1 CALLDATASIZE SUB DUP2 ADD SWAP1 PUSH2 0x217 SWAP2 SWAP1 PUSH2 0x1FD0 JUMP JUMPDEST PUSH2 0x7B3 JUMP JUMPDEST STOP JUMPDEST CALLVALUE DUP1 ISZERO PUSH2 0x229 JUMPI PUSH0 PUSH0 REVERT JUMPDEST POP PUSH2 0x232 PUSH2 0x7CB JUMP JUMPDEST PUSH1 0x40 MLOAD PUSH2 0x23F SWAP2 SWAP1 PUSH2 0x206B JUMP JUMPDEST PUSH1 0x40 MLOAD DUP1 SWAP2 SUB SWAP1 RETURN JUMPDEST CALLVALUE DUP1 ISZERO PUSH2 0x253 JUMPI PUSH0 PUSH0 REVERT JUMPDEST POP PUSH2 0x26E PUSH1 0x4 DUP1 CALLDATASIZE SUB DUP2 ADD SWAP1 PUSH2 0x269 SWAP2 SWAP1 PUSH2 0x20BE JUMP JUMPDEST PUSH2 0x857 JUMP JUMPDEST PUSH1 0x40 MLOAD PUSH2 0x27B SWAP2 SWAP1 PUSH2 0x2128 JUMP JUMPDEST PUSH1 0x40 MLOAD DUP1 SWAP2 SUB SWAP1 RETURN JUMPDEST CALLVALUE DUP1 ISZERO PUSH2 0x28F JUMPI PUSH0 PUSH0 REVERT JUMPDEST POP PUSH2 0x2AA PUSH1 0x4 DUP1 CALLDATASIZE SUB DUP2 ADD SWAP1 PUSH2 0x2A5 SWAP2 SWAP1 PUSH2 0x216B JUMP JUMPDEST PUSH2 0x92E JUMP JUMPDEST STOP JUMPDEST CALLVALUE DUP1 ISZERO PUSH2 0x2B7 JUMPI PUSH0 PUSH0 REVERT JUMPDEST POP PUSH2 0x2C0 PUSH2 0xA6C JUMP JUMPDEST PUSH1 0x40 MLOAD PUSH2 0x2CD SWAP2 SWAP1 PUSH2 0x21B8 JUMP JUMPDEST PUSH1 0x40 MLOAD DUP1 SWAP2 SUB SWAP1 RETURN JUMPDEST CALLVALUE DUP1 ISZERO PUSH2 0x2E1 JUMPI PUSH0 PUSH0 REVERT JUMPDEST POP PUSH2 0x2FC PUSH1 0x4 DUP1 CALLDATASIZE SUB DUP2 ADD SWAP1 PUSH2 0x2F7 SWAP2 SWAP1 PUSH2 0x21D1 JUMP JUMPDEST PUSH2 0xA78 JUMP JUMPDEST STOP JUMPDEST CALLVALUE DUP1 ISZERO PUSH2 0x309 JUMPI PUSH0 PUSH0 REVERT JUMPDEST POP PUSH2 0x324 PUSH1 0x4 DUP1 CALLDATASIZE SUB DUP2 ADD SWAP1 PUSH2 0x31F SWAP2 SWAP1 PUSH2 0x21D1 JUMP JUMPDEST PUSH2 0xAE0 JUMP JUMPDEST STOP JUMPDEST CALLVALUE DUP1 ISZERO PUSH2 0x331 JUMPI PUSH0 PUSH0 REVERT JUMPDEST POP PUSH2 0x33A PUSH2 0xAFF JUMP JUMPDEST PUSH1 0x40 MLOAD PUSH2 0x347 SWAP2 SWAP1 PUSH2 0x21B8 JUMP JUMPDEST PUSH1 0x40 MLOAD DUP1 SWAP2 SUB SWAP1 RETURN JUMPDEST PUSH2 0x36A PUSH1 0x4 DUP1 CALLDATASIZE SUB DUP2 ADD SWAP1 PUSH2 0x365 SWAP2 SWAP1 PUSH2 0x20BE JUMP JUMPDEST PUSH2 0xBB7 JUMP JUMPDEST STOP JUMPDEST CALLVALUE DUP1 ISZERO PUSH2 0x377 JUMPI PUSH0 PUSH0 REVERT JUMPDEST POP PUSH2 0x380 PUSH2 0xD52 JUMP JUMPDEST PUSH1 0x40 MLOAD PUSH2 0x38D SWAP2 SWAP1 PUSH2 0x21B8 JUMP JUMPDEST PUSH1 0x40 MLOAD DUP1 SWAP2 SUB SWAP1 RETURN JUMPDEST CALLVALUE DUP1 ISZERO PUSH2 0x3A1 JUMPI PUSH0 PUSH0 REVERT JUMPDEST POP PUSH2 0x3AA PUSH2 0xD8A JUMP JUMPDEST PUSH1 0x40 MLOAD PUSH2 0x3B7 SWAP2 SWAP1 PUSH2 0x21B8 JUMP JUMPDEST PUSH1 0x40 MLOAD DUP1 SWAP2 SUB SWAP1 RETURN JUMPDEST CALLVALUE DUP1 ISZERO PUSH2 0x3CB JUMPI PUSH0 PUSH0 REVERT JUMPDEST POP PUSH2 0x3E6 PUSH1 0x4 DUP1 CALLDATASIZE SUB DUP2 ADD SWAP1 PUSH2 0x3E1 SWAP2 SWAP1 PUSH2 0x20BE JUMP JUMPDEST PUSH2 0xD8F JUMP JUMPDEST PUSH1 0x40 MLOAD PUSH2 0x3F3 SWAP2 SWAP1 PUSH2 0x2128 JUMP JUMPDEST PUSH1 0x40 MLOAD DUP1 SWAP2 SUB SWAP1 RETURN JUMPDEST CALLVALUE DUP1 ISZERO PUSH2 0x407 JUMPI PUSH0 PUSH0 REVERT JUMPDEST POP PUSH2 0x422 PUSH1 0x4 DUP1 CALLDATASIZE SUB DUP2 ADD SWAP1 PUSH2 0x41D SWAP2 SWAP1 PUSH2 0x2221 JUMP JUMPDEST PUSH2 0xE36 JUMP JUMPDEST PUSH1 0x40 MLOAD PUSH2 0x42F SWAP2 SWAP1 PUSH2 0x21B8 JUMP JUMPDEST PUSH1 0x40 MLOAD DUP1 SWAP2 SUB SWAP1 RETURN JUMPDEST CALLVALUE DUP1 ISZERO PUSH2 0x443 JUMPI PUSH0 PUSH0 REVERT JUMPDEST POP PUSH2 0x44C PUSH2 0xEEA JUMP JUMPDEST STOP JUMPDEST CALLVALUE DUP1 ISZERO PUSH2 0x459 JUMPI PUSH0 PUSH0 REVERT JUMPDEST POP PUSH2 0x462 PUSH2 0xEFD JUMP JUMPDEST PUSH1 0x40 MLOAD PUSH2 0x46F SWAP2 SWAP1 PUSH2 0x21B8 JUMP JUMPDEST PUSH1 0x40 MLOAD DUP1 SWAP2 SUB SWAP1 RETURN JUMPDEST CALLVALUE DUP1 ISZERO PUSH2 0x483 JUMPI PUSH0 PUSH0 REVERT JUMPDEST POP PUSH2 0x48C PUSH2 0xF09 JUMP JUMPDEST PUSH1 0x40 MLOAD PUSH2 0x499 SWAP2 SWAP1 PUSH2 0x2128 JUMP JUMPDEST PUSH1 0x40 MLOAD DUP1 SWAP2 SUB SWAP1 RETURN JUMPDEST CALLVALUE DUP1 ISZERO PUSH2 0x4AD JUMPI PUSH0 PUSH0 REVERT JUMPDEST POP PUSH2 0x4B6 PUSH2 0xF30 JUMP JUMPDEST PUSH1 0x40 MLOAD PUSH2 0x4C3 SWAP2 SWAP1 PUSH2 0x206B JUMP JUMPDEST PUSH1 0x40 MLOAD DUP1 SWAP2 SUB SWAP1 RETURN JUMPDEST CALLVALUE DUP1 ISZERO PUSH2 0x4D7 JUMPI PUSH0 PUSH0 REVERT JUMPDEST POP PUSH2 0x4F2 PUSH1 0x4 DUP1 CALLDATASIZE SUB DUP2 ADD SWAP1 PUSH2 0x4ED SWAP2 SWAP1 PUSH2 0x2276 JUMP JUMPDEST PUSH2 0xFBC JUMP JUMPDEST STOP JUMPDEST CALLVALUE DUP1 ISZERO PUSH2 0x4FF JUMPI PUSH0 PUSH0 REVERT JUMPDEST POP PUSH2 0x508 PUSH2 0x10B4 JUMP JUMPDEST STOP JUMPDEST CALLVALUE DUP1 ISZERO PUSH2 0x515 JUMPI PUSH0 PUSH0 REVERT JUMPDEST POP PUSH2 0x530 PUSH1 0x4 DUP1 CALLDATASIZE SUB DUP2 ADD SWAP1 PUSH2 0x52B SWAP2 SWAP1 PUSH2 0x23E0 JUMP JUMPDEST PUSH2 0x1167 JUMP JUMPDEST STOP JUMPDEST CALLVALUE DUP1 ISZERO PUSH2 0x53D JUMPI PUSH0 PUSH0 REVERT JUMPDEST POP PUSH2 0x558 PUSH1 0x4 DUP1 CALLDATASIZE SUB DUP2 ADD SWAP1 PUSH2 0x553 SWAP2 SWAP1 PUSH2 0x20BE JUMP JUMPDEST PUSH2 0x11D1 JUMP JUMPDEST PUSH1 0x40 MLOAD PUSH2 0x565 SWAP2 SWAP1 PUSH2 0x206B JUMP JUMPDEST PUSH1 0x40 MLOAD DUP1 SWAP2 SUB SWAP1 RETURN JUMPDEST CALLVALUE DUP1 ISZERO PUSH2 0x579 JUMPI PUSH0 PUSH0 REVERT JUMPDEST POP PUSH2 0x582 PUSH2 0x12CB JUMP JUMPDEST PUSH1 0x40 MLOAD PUSH2 0x58F SWAP2 SWAP1 PUSH2 0x21B8 JUMP JUMPDEST PUSH1 0x40 MLOAD DUP1 SWAP2 SUB SWAP1 RETURN JUMPDEST CALLVALUE DUP1 ISZERO PUSH2 0x5A3 JUMPI PUSH0 PUSH0 REVERT JUMPDEST POP PUSH2 0x5AC PUSH2 0x12D7 JUMP JUMPDEST PUSH1 0x40 MLOAD PUSH2 0x5B9 SWAP2 SWAP1 PUSH2 0x21B8 JUMP JUMPDEST PUSH1 0x40 MLOAD DUP1 SWAP2 SUB SWAP1 RETURN JUMPDEST CALLVALUE DUP1 ISZERO PUSH2 0x5CD JUMPI PUSH0 PUSH0 REVERT JUMPDEST POP PUSH2 0x5D6 PUSH2 0x12DD JUMP JUMPDEST PUSH1 0x40 MLOAD PUSH2 0x5E3 SWAP2 SWAP1 PUSH2 0x21B8 JUMP JUMPDEST PUSH1 0x40 MLOAD DUP1 SWAP2 SUB SWAP1 RETURN JUMPDEST CALLVALUE DUP1 ISZERO PUSH2 0x5F7 JUMPI PUSH0 PUSH0 REVERT JUMPDEST POP PUSH2 0x612 PUSH1 0x4 DUP1 CALLDATASIZE SUB DUP2 ADD SWAP1 PUSH2 0x60D SWAP2 SWAP1 PUSH2 0x2460 JUMP JUMPDEST PUSH2 0x12E3 JUMP JUMPDEST PUSH1 0x40 MLOAD PUSH2 0x61F SWAP2 SWAP1 PUSH2 0x1F7E JUMP JUMPDEST PUSH1 0x40 MLOAD DUP1 SWAP2 SUB SWAP1 RETURN JUMPDEST CALLVALUE DUP1 ISZERO PUSH2 0x633 JUMPI PUSH0 PUSH0 REVERT JUMPDEST POP PUSH2 0x63C PUSH2 0x1371 JUMP JUMPDEST PUSH1 0x40 MLOAD PUSH2 0x649 SWAP2 SWAP1 PUSH2 0x21B8 JUMP JUMPDEST PUSH1 0x40 MLOAD DUP1 SWAP2 SUB SWAP1 RETURN JUMPDEST CALLVALUE DUP1 ISZERO PUSH2 0x65D JUMPI PUSH0 PUSH0 REVERT JUMPDEST POP PUSH2 0x678 PUSH1 0x4 DUP1 CALLDATASIZE SUB DUP2 ADD SWAP1 PUSH2 0x673 SWAP2 SWAP1 PUSH2 0x2221 JUMP JUMPDEST PUSH2 0x1377 JUMP JUMPDEST STOP JUMPDEST PUSH0 PUSH32 0x80AC58CD00000000000000000000000000000000000000000000000000000000 PUSH28 0xFFFFFFFFFFFFFFFFFFFFFFFFFFFFFFFFFFFFFFFFFFFFFFFFFFFFFFFF NOT AND DUP3 PUSH28 0xFFFFFFFFFFFFFFFFFFFFFFFFFFFFFFFFFFFFFFFFFFFFFFFFFFFFFFFF NOT AND EQ DUP1 PUSH2 0x744 JUMPI POP PUSH32 0x1FFC9A700000000000000000000000000000000000000000000000000000000 PUSH28 0xFFFFFFFFFFFFFFFFFFFFFFFFFFFFFFFFFFFFFFFFFFFFFFFFFFFFFFFF NOT AND DUP3 PUSH28 0xFFFFFFFFFFFFFFFFFFFFFFFFFFFFFFFFFFFFFFFFFFFFFFFFFFFFFFFF NOT AND EQ JUMPDEST DUP1 PUSH2 0x7AC JUMPI POP PUSH32 0x5B5E139F00000000000000000000000000000000000000000000000000000000 PUSH28 0xFFFFFFFFFFFFFFFFFFFFFFFFFFFFFFFFFFFFFFFFFFFFFFFFFFFFFFFF NOT AND DUP3 PUSH28 0xFFFFFFFFFFFFFFFFFFFFFFFFFFFFFFFFFFFFFFFFFFFFFFFFFFFFFFFF NOT AND EQ JUMPDEST SWAP1 POP SWAP2 SWAP1 POP JUMP JUMPDEST PUSH2 0x7BB PUSH2 0x13FB JUMP JUMPDEST DUP1 PUSH4 0xFFFFFFFF AND PUSH1 0x7 DUP2 SWAP1 SSTORE POP POP JUMP JUMPDEST PUSH1 0x1 DUP1 SLOAD PUSH2 0x7D8 SWAP1 PUSH2 0x24CB JUMP JUMPDEST DUP1 PUSH1 0x1F ADD PUSH1 0x20 DUP1 SWAP2 DIV MUL PUSH1 0x20 ADD PUSH1 0x40 MLOAD SWAP1 DUP2 ADD PUSH1 0x40 MSTORE DUP1 SWAP3 SWAP2 SWAP1 DUP2 DUP2 MSTORE PUSH1 0x20 ADD DUP3 DUP1 SLOAD PUSH2 0x804 SWAP1 PUSH2 0x24CB JUMP JUMPDEST DUP1 ISZERO PUSH2 0x84F JUMPI DUP1 PUSH1 0x1F LT PUSH2 0x826 JUMPI PUSH2 0x100 DUP1 DUP4 SLOAD DIV MUL DUP4 MSTORE SWAP2 PUSH1 0x20 ADD SWAP2 PUSH2 0x84F JUMP JUMPDEST DUP3 ADD SWAP2 SWAP1 PUSH0 MSTORE PUSH1 0x20 PUSH0 KECCAK256 SWAP1 JUMPDEST DUP2 SLOAD DUP2 MSTORE SWAP1 PUSH1 0x1 ADD SWAP1 PUSH1 0x20 ADD DUP1 DUP4 GT PUSH2 0x832 JUMPI DUP3 SWAP1 SUB PUSH1 0x1F AND DUP3 ADD SWAP2 JUMPDEST POP POP POP POP POP DUP2 JUMP JUMPDEST PUSH0 PUSH0 PUSH20 0xFFFFFFFFFFFFFFFFFFFFFFFFFFFFFFFFFFFFFFFF AND PUSH1 0x3 PUSH0 DUP5 DUP2 MSTORE PUSH1 0x20 ADD SWAP1 DUP2 MSTORE PUSH1 0x20 ADD PUSH0 KECCAK256 PUSH0 SWAP1 SLOAD SWAP1 PUSH2 0x100 EXP SWAP1 DIV PUSH20 0xFFFFFFFFFFFFFFFFFFFFFFFFFFFFFFFFFFFFFFFF AND PUSH20 0xFFFFFFFFFFFFFFFFFFFFFFFFFFFFFFFFFFFFFFFF AND SUB PUSH2 0x8F6 JUMPI PUSH1 0x40 MLOAD PUSH32 0x8C379A000000000000000000000000000000000000000000000000000000000 DUP2 MSTORE PUSH1 0x4 ADD PUSH2 0x8ED SWAP1 PUSH2 0x2545 JUMP JUMPDEST PUSH1 0x40 MLOAD DUP1 SWAP2 SUB SWAP1 REVERT JUMPDEST PUSH1 0x5 PUSH0 DUP4 DUP2 MSTORE PUSH1 0x20 ADD SWAP1 DUP2 MSTORE PUSH1 0x20 ADD PUSH0 KECCAK256 PUSH0 SWAP1 SLOAD SWAP1 PUSH2 0x100 EXP SWAP1 DIV PUSH20 0xFFFFFFFFFFFFFFFFFFFFFFFFFFFFFFFFFFFFFFFF AND SWAP1 POP SWAP2 SWAP1 POP JUMP JUMPDEST PUSH0 PUSH1 0x3 PUSH0 DUP4 DUP2 MSTORE PUSH1 0x20 ADD SWAP1 DUP2 MSTORE PUSH1 0x20 ADD PUSH0 KECCAK256 PUSH0 SWAP1 SLOAD SWAP1 PUSH2 0x100 EXP SWAP1 DIV PUSH20 0xFFFFFFFFFFFFFFFFFFFFFFFFFFFFFFFFFFFFFFFF AND SWAP1 POP DUP1 PUSH20 0xFFFFFFFFFFFFFFFFFFFFFFFFFFFFFFFFFFFFFFFF AND CALLER PUSH20 0xFFFFFFFFFFFFFFFFFFFFFFFFFFFFFFFFFFFFFFFF AND EQ DUP1 PUSH2 0xA1D JUMPI POP PUSH1 0x6 PUSH0 DUP3 PUSH20 0xFFFFFFFFFFFFFFFFFFFFFFFFFFFFFFFFFFFFFFFF AND PUSH20 0xFFFFFFFFFFFFFFFFFFFFFFFFFFFFFFFFFFFFFFFF AND DUP2 MSTORE PUSH1 0x20 ADD SWAP1 DUP2 MSTORE PUSH1 0x20 ADD PUSH0 KECCAK256 PUSH0 CALLER PUSH20 0xFFFFFFFFFFFFFFFFFFFFFFFFFFFFFFFFFFFFFFFF AND PUSH20 0xFFFFFFFFFFFFFFFFFFFFFFFFFFFFFFFFFFFFFFFF AND DUP2 MSTORE PUSH1 0x20 ADD SWAP1 DUP2 MSTORE PUSH1 0x20 ADD PUSH0 KECCAK256 PUSH0 SWAP1 SLOAD SWAP1 PUSH2 0x100 EXP SWAP1 DIV PUSH1 0xFF AND JUMPDEST PUSH2 0xA5C JUMPI PUSH1 0x40 MLOAD PUSH32 0x8C379A000000000000000000000000000000000000000000000000000000000 DUP2 MSTORE PUSH1 0x4 ADD PUSH2 0xA53 SWAP1 PUSH2 0x25AD JUMP JUMPDEST PUSH1 0x40 MLOAD DUP1 SWAP2 SUB SWAP1 REVERT JUMPDEST PUSH2 0xA67 DUP2 DUP5 DUP5 PUSH2 0x1482 JUMP JUMPDEST POP POP POP JUMP JUMPDEST PUSH0 PUSH1 0x9 DUP1 SLOAD SWAP1 POP SWAP1 POP SWAP1 JUMP JUMPDEST PUSH0 PUSH2 0xA82 DUP3 PUSH2 0xD8F JUMP JUMPDEST SWAP1 POP PUSH2 0xA8F DUP2 CALLER DUP5 PUSH2 0x1531 JUMP JUMPDEST PUSH2 0xACE JUMPI PUSH1 0x40 MLOAD PUSH32 0x8C379A000000000000000000000000000000000000000000000000000000000 DUP2 MSTORE PUSH1 0x4 ADD PUSH2 0xAC5 SWAP1 PUSH2 0x2615 JUMP JUMPDEST PUSH1 0x40 MLOAD DUP1 SWAP2 SUB SWAP1 REVERT JUMPDEST PUSH2 0xADA DUP2 DUP6 DUP6 DUP6 PUSH2 0x165C JUMP JUMPDEST POP POP POP POP JUMP JUMPDEST PUSH2 0xAFA DUP4 DUP4 DUP4 PUSH1 0x40 MLOAD DUP1 PUSH1 0x20 ADD PUSH1 0x40 MSTORE DUP1 PUSH0 DUP2 MSTORE POP PUSH2 0x1167 JUMP JUMPDEST POP POP POP JUMP JUMPDEST PUSH0 PUSH1 0x7 SLOAD TIMESTAMP LT ISZERO PUSH2 0xB1A JUMPI PUSH8 0xDE0B6B3A7640000 SWAP1 POP PUSH2 0xBB4 JUMP JUMPDEST PUSH2 0x258 PUSH1 0x7 SLOAD TIMESTAMP PUSH2 0xB2B SWAP2 SWAP1 PUSH2 0x2660 JUMP JUMPDEST LT PUSH2 0xB40 JUMPI PUSH8 0x16345785D8A0000 SWAP1 POP PUSH2 0xBB4 JUMP JUMPDEST PUSH0 PUSH1 0x3C PUSH1 0x7 SLOAD TIMESTAMP PUSH2 0xB51 SWAP2 SWAP1 PUSH2 0x2660 JUMP JUMPDEST PUSH2 0xB5B SWAP2 SWAP1 PUSH2 0x26C0 JUMP JUMPDEST SWAP1 POP PUSH1 0x3C PUSH2 0x258 PUSH2 0xB6C SWAP2 SWAP1 PUSH2 0x26C0 JUMP JUMPDEST PUSH8 0x16345785D8A0000 PUSH8 0xDE0B6B3A7640000 PUSH2 0xB88 SWAP2 SWAP1 PUSH2 0x2660 JUMP JUMPDEST PUSH2 0xB92 SWAP2 SWAP1 PUSH2 0x26C0 JUMP JUMPDEST DUP2 PUSH2 0xB9D SWAP2 SWAP1 PUSH2 0x26F0 JUMP JUMPDEST PUSH8 0xDE0B6B3A7640000 PUSH2 0xBB0 SWAP2 SWAP1 PUSH2 0x2660 JUMP JUMPDEST SWAP2 POP POP JUMPDEST SWAP1 JUMP JUMPDEST PUSH0 PUSH1 0x7 SLOAD SWAP1 POP PUSH0 DUP2 EQ ISZERO DUP1 ISZERO PUSH2 0xBCC JUMPI POP DUP1 TIMESTAMP GT JUMPDEST PUSH2 0xC0B JUMPI PUSH1 0x40 MLOAD PUSH32 0x8C379A000000000000000000000000000000000000000000000000000000000 DUP2 MSTORE PUSH1 0x4 ADD PUSH2 0xC02 SWAP1 PUSH2 0x277B JUMP JUMPDEST PUSH1 0x40 MLOAD DUP1 SWAP2 SUB SWAP1 REVERT JUMPDEST PUSH2 0x3E8 DUP3 PUSH2 0xC17 PUSH2 0xA6C JUMP JUMPDEST PUSH2 0xC21 SWAP2 SWAP1 PUSH2 0x2799 JUMP JUMPDEST GT ISZERO PUSH2 0xC62 JUMPI PUSH1 0x40 MLOAD PUSH32 0x8C379A000000000000000000000000000000000000000000000000000000000 DUP2 MSTORE PUSH1 0x4 ADD PUSH2 0xC59 SWAP1 PUSH2 0x2862 JUMP JUMPDEST PUSH1 0x40 MLOAD DUP1 SWAP2 SUB SWAP1 REVERT JUMPDEST PUSH0 DUP3 PUSH2 0xC6C PUSH2 0xAFF JUMP JUMPDEST PUSH2 0xC76 SWAP2 SWAP1 PUSH2 0x26F0 JUMP JUMPDEST SWAP1 POP CALLVALUE DUP2 GT ISZERO PUSH2 0xCBB JUMPI PUSH1 0x40 MLOAD PUSH32 0x8C379A000000000000000000000000000000000000000000000000000000000 DUP2 MSTORE PUSH1 0x4 ADD PUSH2 0xCB2 SWAP1 PUSH2 0x28F0 JUMP JUMPDEST PUSH1 0x40 MLOAD DUP1 SWAP2 SUB SWAP1 REVERT JUMPDEST PUSH0 PUSH0 SWAP1 POP JUMPDEST DUP4 DUP2 LT ISZERO PUSH2 0xCF4 JUMPI PUSH0 PUSH2 0xCD1 PUSH2 0xA6C JUMP JUMPDEST SWAP1 POP PUSH2 0xCDD CALLER DUP3 PUSH2 0x189B JUMP JUMPDEST PUSH2 0xCE6 DUP2 PUSH2 0x1AA9 JUMP JUMPDEST POP DUP1 DUP1 PUSH1 0x1 ADD SWAP2 POP POP PUSH2 0xCC0 JUMP JUMPDEST POP DUP1 CALLVALUE GT ISZERO PUSH2 0xD4D JUMPI CALLER PUSH20 0xFFFFFFFFFFFFFFFFFFFFFFFFFFFFFFFFFFFFFFFF AND PUSH2 0x8FC DUP3 CALLVALUE PUSH2 0xD23 SWAP2 SWAP1 PUSH2 0x2660 JUMP JUMPDEST SWAP1 DUP2 ISZERO MUL SWAP1 PUSH1 0x40 MLOAD PUSH0 PUSH1 0x40 MLOAD DUP1 DUP4 SUB DUP2 DUP6 DUP9 DUP9 CALL SWAP4 POP POP POP POP ISZERO DUP1 ISZERO PUSH2 0xD4B JUMPI RETURNDATASIZE PUSH0 PUSH0 RETURNDATACOPY RETURNDATASIZE PUSH0 REVERT JUMPDEST POP JUMPDEST POP POP POP JUMP JUMPDEST PUSH1 0x3C PUSH2 0x258 PUSH2 0xD61 SWAP2 SWAP1 PUSH2 0x26C0 JUMP JUMPDEST PUSH8 0x16345785D8A0000 PUSH8 0xDE0B6B3A7640000 PUSH2 0xD7D SWAP2 SWAP1 PUSH2 0x2660 JUMP JUMPDEST PUSH2 0xD87 SWAP2 SWAP1 PUSH2 0x26C0 JUMP JUMPDEST DUP2 JUMP JUMPDEST PUSH1 0x3C DUP2 JUMP JUMPDEST PUSH0 PUSH1 0x3 PUSH0 DUP4 DUP2 MSTORE PUSH1 0x20 ADD SWAP1 DUP2 MSTORE PUSH1 0x20 ADD PUSH0 KECCAK256 PUSH0 SWAP1 SLOAD SWAP1 PUSH2 0x100 EXP SWAP1 DIV PUSH20 0xFFFFFFFFFFFFFFFFFFFFFFFFFFFFFFFFFFFFFFFF AND SWAP1 POP PUSH0 PUSH20 0xFFFFFFFFFFFFFFFFFFFFFFFFFFFFFFFFFFFFFFFF AND DUP2 PUSH20 0xFFFFFFFFFFFFFFFFFFFFFFFFFFFFFFFFFFFFFFFF AND SUB PUSH2 0xE31 JUMPI PUSH1 0x40 MLOAD PUSH32 0x8C379A000000000000000000000000000000000000000000000000000000000 DUP2 MSTORE PUSH1 0x4 ADD PUSH2 0xE28 SWAP1 PUSH2 0x2545 JUMP JUMPDEST PUSH1 0x40 MLOAD DUP1 SWAP2 SUB SWAP1 REVERT JUMPDEST SWAP2 SWAP1 POP JUMP JUMPDEST PUSH0 PUSH0 PUSH20 0xFFFFFFFFFFFFFFFFFFFFFFFFFFFFFFFFFFFFFFFF AND DUP3 PUSH20 0xFFFFFFFFFFFFFFFFFFFFFFFFFFFFFFFFFFFFFFFF AND SUB PUSH2 0xEA5 JUMPI PUSH1 0x40 MLOAD PUSH32 0x8C379A000000000000000000000000000000000000000000000000000000000 DUP2 MSTORE PUSH1 0x4 ADD PUSH2 0xE9C SWAP1 PUSH2 0x2958 JUMP JUMPDEST PUSH1 0x40 MLOAD DUP1 SWAP2 SUB SWAP1 REVERT JUMPDEST PUSH1 0x4 PUSH0 DUP4 PUSH20 0xFFFFFFFFFFFFFFFFFFFFFFFFFFFFFFFFFFFFFFFF AND PUSH20 0xFFFFFFFFFFFFFFFFFFFFFFFFFFFFFFFFFFFFFFFF AND DUP2 MSTORE PUSH1 0x20 ADD SWAP1 DUP2 MSTORE PUSH1 0x20 ADD PUSH0 KECCAK256 SLOAD SWAP1 POP SWAP2 SWAP1 POP JUMP JUMPDEST PUSH2 0xEF2 PUSH2 0x13FB JUMP JUMPDEST PUSH2 0xEFB PUSH0 PUSH2 0x1AD2 JUMP JUMPDEST JUMP JUMPDEST PUSH8 0xDE0B6B3A7640000 DUP2 JUMP JUMPDEST PUSH0 PUSH0 PUSH0 SWAP1 SLOAD SWAP1 PUSH2 0x100 EXP SWAP1 DIV PUSH20 0xFFFFFFFFFFFFFFFFFFFFFFFFFFFFFFFFFFFFFFFF AND SWAP1 POP SWAP1 JUMP JUMPDEST PUSH1 0x2 DUP1 SLOAD PUSH2 0xF3D SWAP1 PUSH2 0x24CB JUMP JUMPDEST DUP1 PUSH1 0x1F ADD PUSH1 0x20 DUP1 SWAP2 DIV MUL PUSH1 0x20 ADD PUSH1 0x40 MLOAD SWAP1 DUP2 ADD PUSH1 0x40 MSTORE DUP1 SWAP3 SWAP2 SWAP1 DUP2 DUP2 MSTORE PUSH1 0x20 ADD DUP3 DUP1 SLOAD PUSH2 0xF69 SWAP1 PUSH2 0x24CB JUMP JUMPDEST DUP1 ISZERO PUSH2 0xFB4 JUMPI DUP1 PUSH1 0x1F LT PUSH2 0xF8B JUMPI PUSH2 0x100 DUP1 DUP4 SLOAD DIV MUL DUP4 MSTORE SWAP2 PUSH1 0x20 ADD SWAP2 PUSH2 0xFB4 JUMP JUMPDEST DUP3 ADD SWAP2 SWAP1 PUSH0 MSTORE PUSH1 0x20 PUSH0 KECCAK256 SWAP1 JUMPDEST DUP2 SLOAD DUP2 MSTORE SWAP1 PUSH1 0x1 ADD SWAP1 PUSH1 0x20 ADD DUP1 DUP4 GT PUSH2 0xF97 JUMPI DUP3 SWAP1 SUB PUSH1 0x1F AND DUP3 ADD SWAP2 JUMPDEST POP POP POP POP POP DUP2 JUMP JUMPDEST DUP1 PUSH1 0x6 PUSH0 CALLER PUSH20 0xFFFFFFFFFFFFFFFFFFFFFFFFFFFFFFFFFFFFFFFF AND PUSH20 0xFFFFFFFFFFFFFFFFFFFFFFFFFFFFFFFFFFFFFFFF AND DUP2 MSTORE PUSH1 0x20 ADD SWAP1 DUP2 MSTORE PUSH1 0x20 ADD PUSH0 KECCAK256 PUSH0 DUP5 PUSH20 0xFFFFFFFFFFFFFFFFFFFFFFFFFFFFFFFFFFFFFFFF AND PUSH20 0xFFFFFFFFFFFFFFFFFFFFFFFFFFFFFFFFFFFFFFFF AND DUP2 MSTORE PUSH1 0x20 ADD SWAP1 DUP2 MSTORE PUSH1 0x20 ADD PUSH0 KECCAK256 PUSH0 PUSH2 0x100 EXP DUP2 SLOAD DUP2 PUSH1 0xFF MUL NOT AND SWAP1 DUP4 ISZERO ISZERO MUL OR SWAP1 SSTORE POP DUP2 PUSH20 0xFFFFFFFFFFFFFFFFFFFFFFFFFFFFFFFFFFFFFFFF AND CALLER PUSH20 0xFFFFFFFFFFFFFFFFFFFFFFFFFFFFFFFFFFFFFFFF AND PUSH32 0x17307EAB39AB6107E8899845AD3D59BD9653F200F220920489CA2B5937696C31 DUP4 PUSH1 0x40 MLOAD PUSH2 0x10A8 SWAP2 SWAP1 PUSH2 0x1F7E JUMP JUMPDEST PUSH1 0x40 MLOAD DUP1 SWAP2 SUB SWAP1 LOG3 POP POP JUMP JUMPDEST PUSH2 0x10BC PUSH2 0x13FB JUMP JUMPDEST PUSH0 CALLER PUSH20 0xFFFFFFFFFFFFFFFFFFFFFFFFFFFFFFFFFFFFFFFF AND SELFBALANCE PUSH1 0x40 MLOAD PUSH2 0x10E1 SWAP1 PUSH2 0x29A3 JUMP JUMPDEST PUSH0 PUSH1 0x40 MLOAD DUP1 DUP4 SUB DUP2 DUP6 DUP8 GAS CALL SWAP3 POP POP POP RETURNDATASIZE DUP1 PUSH0 DUP2 EQ PUSH2 0x111B JUMPI PUSH1 0x40 MLOAD SWAP2 POP PUSH1 0x1F NOT PUSH1 0x3F RETURNDATASIZE ADD AND DUP3 ADD PUSH1 0x40 MSTORE RETURNDATASIZE DUP3 MSTORE RETURNDATASIZE PUSH0 PUSH1 0x20 DUP5 ADD RETURNDATACOPY PUSH2 0x1120 JUMP JUMPDEST PUSH1 0x60 SWAP2 POP JUMPDEST POP POP SWAP1 POP DUP1 PUSH2 0x1164 JUMPI PUSH1 0x40 MLOAD PUSH32 0x8C379A000000000000000000000000000000000000000000000000000000000 DUP2 MSTORE PUSH1 0x4 ADD PUSH2 0x115B SWAP1 PUSH2 0x2A01 JUMP JUMPDEST PUSH1 0x40 MLOAD DUP1 SWAP2 SUB SWAP1 REVERT JUMPDEST POP JUMP JUMPDEST PUSH0 PUSH2 0x1171 DUP4 PUSH2 0xD8F JUMP JUMPDEST SWAP1 POP PUSH2 0x117E DUP2 CALLER DUP6 PUSH2 0x1531 JUMP JUMPDEST PUSH2 0x11BD JUMPI PUSH1 0x40 MLOAD PUSH32 0x8C379A000000000000000000000000000000000000000000000000000000000 DUP2 MSTORE PUSH1 0x4 ADD PUSH2 0x11B4 SWAP1 PUSH2 0x2615 JUMP JUMPDEST PUSH1 0x40 MLOAD DUP1 SWAP2 SUB SWAP1 REVERT JUMPDEST PUSH2 0x11CA DUP2 DUP7 DUP7 DUP7 DUP7 PUSH2 0x1B93 JUMP JUMPDEST POP POP POP POP POP JUMP JUMPDEST PUSH1 0x60 PUSH0 PUSH20 0xFFFFFFFFFFFFFFFFFFFFFFFFFFFFFFFFFFFFFFFF AND PUSH1 0x3 PUSH0 DUP5 DUP2 MSTORE PUSH1 0x20 ADD SWAP1 DUP2 MSTORE PUSH1 0x20 ADD PUSH0 KECCAK256 PUSH0 SWAP1 SLOAD SWAP1 PUSH2 0x100 EXP SWAP1 DIV PUSH20 0xFFFFFFFFFFFFFFFFFFFFFFFFFFFFFFFFFFFFFFFF AND PUSH20 0xFFFFFFFFFFFFFFFFFFFFFFFFFFFFFFFFFFFFFFFF AND SUB PUSH2 0x1271 JUMPI PUSH1 0x40 MLOAD PUSH32 0x8C379A000000000000000000000000000000000000000000000000000000000 DUP2 MSTORE PUSH1 0x4 ADD PUSH2 0x1268 SWAP1 PUSH2 0x2A69 JUMP JUMPDEST PUSH1 0x40 MLOAD DUP1 SWAP2 SUB SWAP1 REVERT JUMPDEST PUSH0 PUSH2 0x127A PUSH2 0x1BB2 JUMP JUMPDEST SWAP1 POP PUSH0 DUP2 MLOAD GT PUSH2 0x1298 JUMPI PUSH1 0x40 MLOAD DUP1 PUSH1 0x20 ADD PUSH1 0x40 MSTORE DUP1 PUSH0 DUP2 MSTORE POP PUSH2 0x12C3 JUMP JUMPDEST DUP1 PUSH2 0x12A2 DUP5 PUSH2 0x1BC8 JUMP JUMPDEST PUSH1 0x40 MLOAD PUSH1 0x20 ADD PUSH2 0x12B3 SWAP3 SWAP2 SWAP1 PUSH2 0x2AC1 JUMP JUMPDEST PUSH1 0x40 MLOAD PUSH1 0x20 DUP2 DUP4 SUB SUB DUP2 MSTORE SWAP1 PUSH1 0x40 MSTORE JUMPDEST SWAP2 POP POP SWAP2 SWAP1 POP JUMP JUMPDEST PUSH8 0x16345785D8A0000 DUP2 JUMP JUMPDEST PUSH2 0x3E8 DUP2 JUMP JUMPDEST PUSH2 0x258 DUP2 JUMP JUMPDEST PUSH0 PUSH1 0x6 PUSH0 DUP5 PUSH20 0xFFFFFFFFFFFFFFFFFFFFFFFFFFFFFFFFFFFFFFFF AND PUSH20 0xFFFFFFFFFFFFFFFFFFFFFFFFFFFFFFFFFFFFFFFF AND DUP2 MSTORE PUSH1 0x20 ADD SWAP1 DUP2 MSTORE PUSH1 0x20 ADD PUSH0 KECCAK256 PUSH0 DUP4 PUSH20 0xFFFFFFFFFFFFFFFFFFFFFFFFFFFFFFFFFFFFFFFF AND PUSH20 0xFFFFFFFFFFFFFFFFFFFFFFFFFFFFFFFFFFFFFFFF AND DUP2 MSTORE PUSH1 0x20 ADD SWAP1 DUP2 MSTORE PUSH1 0x20 ADD PUSH0 KECCAK256 PUSH0 SWAP1 SLOAD SWAP1 PUSH2 0x100 EXP SWAP1 DIV PUSH1 0xFF AND SWAP1 POP SWAP3 SWAP2 POP POP JUMP JUMPDEST PUSH1 0x7 SLOAD DUP2 JUMP JUMPDEST PUSH2 0x137F PUSH2 0x13FB JUMP JUMPDEST PUSH0 PUSH20 0xFFFFFFFFFFFFFFFFFFFFFFFFFFFFFFFFFFFFFFFF AND DUP2 PUSH20 0xFFFFFFFFFFFFFFFFFFFFFFFFFFFFFFFFFFFFFFFF AND SUB PUSH2 0x13EF JUMPI PUSH0 PUSH1 0x40 MLOAD PUSH32 0x1E4FBDF700000000000000000000000000000000000000000000000000000000 DUP2 MSTORE PUSH1 0x4 ADD PUSH2 0x13E6 SWAP2 SWAP1 PUSH2 0x2128 JUMP JUMPDEST PUSH1 0x40 MLOAD DUP1 SWAP2 SUB SWAP1 REVERT JUMPDEST PUSH2 0x13F8 DUP2 PUSH2 0x1AD2 JUMP JUMPDEST POP JUMP JUMPDEST PUSH2 0x1403 PUSH2 0x1D21 JUMP JUMPDEST PUSH20 0xFFFFFFFFFFFFFFFFFFFFFFFFFFFFFFFFFFFFFFFF AND PUSH2 0x1421 PUSH2 0xF09 JUMP JUMPDEST PUSH20 0xFFFFFFFFFFFFFFFFFFFFFFFFFFFFFFFFFFFFFFFF AND EQ PUSH2 0x1480 JUMPI PUSH2 0x1444 PUSH2 0x1D21 JUMP JUMPDEST PUSH1 0x40 MLOAD PUSH32 0x118CDAA700000000000000000000000000000000000000000000000000000000 DUP2 MSTORE PUSH1 0x4 ADD PUSH2 0x1477 SWAP2 SWAP1 PUSH2 0x2128 JUMP JUMPDEST PUSH1 0x40 MLOAD DUP1 SWAP2 SUB SWAP1 REVERT JUMPDEST JUMP JUMPDEST DUP2 PUSH1 0x5 PUSH0 DUP4 DUP2 MSTORE PUSH1 0x20 ADD SWAP1 DUP2 MSTORE PUSH1 0x20 ADD PUSH0 KECCAK256 PUSH0 PUSH2 0x100 EXP DUP2 SLOAD DUP2 PUSH20 0xFFFFFFFFFFFFFFFFFFFFFFFFFFFFFFFFFFFFFFFF MUL NOT AND SWAP1 DUP4 PUSH20 0xFFFFFFFFFFFFFFFFFFFFFFFFFFFFFFFFFFFFFFFF AND MUL OR SWAP1 SSTORE POP DUP1 DUP3 PUSH20 0xFFFFFFFFFFFFFFFFFFFFFFFFFFFFFFFFFFFFFFFF AND DUP5 PUSH20 0xFFFFFFFFFFFFFFFFFFFFFFFFFFFFFFFFFFFFFFFF AND PUSH32 0x8C5BE1E5EBEC7D5BD14F71427D1E84F3DD0314C0F7B2291E5B200AC8C7C3B925 PUSH1 0x40 MLOAD PUSH1 0x40 MLOAD DUP1 SWAP2 SUB SWAP1 LOG4 POP POP POP JUMP JUMPDEST PUSH0 DUP4 PUSH20 0xFFFFFFFFFFFFFFFFFFFFFFFFFFFFFFFFFFFFFFFF AND DUP4 PUSH20 0xFFFFFFFFFFFFFFFFFFFFFFFFFFFFFFFFFFFFFFFF AND EQ DUP1 PUSH2 0x15C7 JUMPI POP DUP3 PUSH20 0xFFFFFFFFFFFFFFFFFFFFFFFFFFFFFFFFFFFFFFFF AND PUSH1 0x5 PUSH0 DUP5 DUP2 MSTORE PUSH1 0x20 ADD SWAP1 DUP2 MSTORE PUSH1 0x20 ADD PUSH0 KECCAK256 PUSH0 SWAP1 SLOAD SWAP1 PUSH2 0x100 EXP SWAP1 DIV PUSH20 0xFFFFFFFFFFFFFFFFFFFFFFFFFFFFFFFFFFFFFFFF AND PUSH20 0xFFFFFFFFFFFFFFFFFFFFFFFFFFFFFFFFFFFFFFFF AND EQ JUMPDEST DUP1 PUSH2 0x1653 JUMPI POP PUSH1 0x6 PUSH0 DUP6 PUSH20 0xFFFFFFFFFFFFFFFFFFFFFFFFFFFFFFFFFFFFFFFF AND PUSH20 0xFFFFFFFFFFFFFFFFFFFFFFFFFFFFFFFFFFFFFFFF AND DUP2 MSTORE PUSH1 0x20 ADD SWAP1 DUP2 MSTORE PUSH1 0x20 ADD PUSH0 KECCAK256 PUSH0 DUP5 PUSH20 0xFFFFFFFFFFFFFFFFFFFFFFFFFFFFFFFFFFFFFFFF AND PUSH20 0xFFFFFFFFFFFFFFFFFFFFFFFFFFFFFFFFFFFFFFFF AND DUP2 MSTORE PUSH1 0x20 ADD SWAP1 DUP2 MSTORE PUSH1 0x20 ADD PUSH0 KECCAK256 PUSH0 SWAP1 SLOAD SWAP1 PUSH2 0x100 EXP SWAP1 DIV PUSH1 0xFF AND JUMPDEST SWAP1 POP SWAP4 SWAP3 POP POP POP JUMP JUMPDEST DUP4 PUSH20 0xFFFFFFFFFFFFFFFFFFFFFFFFFFFFFFFFFFFFFFFF AND DUP4 PUSH20 0xFFFFFFFFFFFFFFFFFFFFFFFFFFFFFFFFFFFFFFFF AND EQ PUSH2 0x16CA JUMPI PUSH1 0x40 MLOAD PUSH32 0x8C379A000000000000000000000000000000000000000000000000000000000 DUP2 MSTORE PUSH1 0x4 ADD PUSH2 0x16C1 SWAP1 PUSH2 0x2B2E JUMP JUMPDEST PUSH1 0x40 MLOAD DUP1 SWAP2 SUB SWAP1 REVERT JUMPDEST PUSH0 PUSH20 0xFFFFFFFFFFFFFFFFFFFFFFFFFFFFFFFFFFFFFFFF AND DUP3 PUSH20 0xFFFFFFFFFFFFFFFFFFFFFFFFFFFFFFFFFFFFFFFF AND SUB PUSH2 0x1738 JUMPI PUSH1 0x40 MLOAD PUSH32 0x8C379A000000000000000000000000000000000000000000000000000000000 DUP2 MSTORE PUSH1 0x4 ADD PUSH2 0x172F SWAP1 PUSH2 0x2B96 JUMP JUMPDEST PUSH1 0x40 MLOAD DUP1 SWAP2 SUB SWAP1 REVERT JUMPDEST PUSH2 0x1743 DUP5 PUSH0 DUP4 PUSH2 0x1482 JUMP JUMPDEST PUSH1 0x1 PUSH1 0x4 PUSH0 DUP6 PUSH20 0xFFFFFFFFFFFFFFFFFFFFFFFFFFFFFFFFFFFFFFFF AND PUSH20 0xFFFFFFFFFFFFFFFFFFFFFFFFFFFFFFFFFFFFFFFF AND DUP2 MSTORE PUSH1 0x20 ADD SWAP1 DUP2 MSTORE PUSH1 0x20 ADD PUSH0 KECCAK256 PUSH0 DUP3 DUP3 SLOAD PUSH2 0x1790 SWAP2 SWAP1 PUSH2 0x2660 JUMP JUMPDEST SWAP3 POP POP DUP2 SWAP1 SSTORE POP PUSH1 0x1 PUSH1 0x4 PUSH0 DUP5 PUSH20 0xFFFFFFFFFFFFFFFFFFFFFFFFFFFFFFFFFFFFFFFF AND PUSH20 0xFFFFFFFFFFFFFFFFFFFFFFFFFFFFFFFFFFFFFFFF AND DUP2 MSTORE PUSH1 0x20 ADD SWAP1 DUP2 MSTORE PUSH1 0x20 ADD PUSH0 KECCAK256 PUSH0 DUP3 DUP3 SLOAD PUSH2 0x17E4 SWAP2 SWAP1 PUSH2 0x2799 JUMP JUMPDEST SWAP3 POP POP DUP2 SWAP1 SSTORE POP DUP2 PUSH1 0x3 PUSH0 DUP4 DUP2 MSTORE PUSH1 0x20 ADD SWAP1 DUP2 MSTORE PUSH1 0x20 ADD PUSH0 KECCAK256 PUSH0 PUSH2 0x100 EXP DUP2 SLOAD DUP2 PUSH20 0xFFFFFFFFFFFFFFFFFFFFFFFFFFFFFFFFFFFFFFFF MUL NOT AND SWAP1 DUP4 PUSH20 0xFFFFFFFFFFFFFFFFFFFFFFFFFFFFFFFFFFFFFFFF AND MUL OR SWAP1 SSTORE POP DUP1 DUP3 PUSH20 0xFFFFFFFFFFFFFFFFFFFFFFFFFFFFFFFFFFFFFFFF AND DUP5 PUSH20 0xFFFFFFFFFFFFFFFFFFFFFFFFFFFFFFFFFFFFFFFF AND PUSH32 0xDDF252AD1BE2C89B69C2B068FC378DAA952BA7F163C4A11628F55A4DF523B3EF PUSH1 0x40 MLOAD PUSH1 0x40 MLOAD DUP1 SWAP2 SUB SWAP1 LOG4 POP POP POP POP JUMP JUMPDEST PUSH0 PUSH20 0xFFFFFFFFFFFFFFFFFFFFFFFFFFFFFFFFFFFFFFFF AND DUP3 PUSH20 0xFFFFFFFFFFFFFFFFFFFFFFFFFFFFFFFFFFFFFFFF AND SUB PUSH2 0x1909 JUMPI PUSH1 0x40 MLOAD PUSH32 0x8C379A000000000000000000000000000000000000000000000000000000000 DUP2 MSTORE PUSH1 0x4 ADD PUSH2 0x1900 SWAP1 PUSH2 0x2BFE JUMP JUMPDEST PUSH1 0x40 MLOAD DUP1 SWAP2 SUB SWAP1 REVERT JUMPDEST PUSH0 PUSH20 0xFFFFFFFFFFFFFFFFFFFFFFFFFFFFFFFFFFFFFFFF AND PUSH1 0x3 PUSH0 DUP4 DUP2 MSTORE PUSH1 0x20 ADD SWAP1 DUP2 MSTORE PUSH1 0x20 ADD PUSH0 KECCAK256 PUSH0 SWAP1 SLOAD SWAP1 PUSH2 0x100 EXP SWAP1 DIV PUSH20 0xFFFFFFFFFFFFFFFFFFFFFFFFFFFFFFFFFFFFFFFF AND PUSH20 0xFFFFFFFFFFFFFFFFFFFFFFFFFFFFFFFFFFFFFFFF AND EQ PUSH2 0x19A7 JUMPI PUSH1 0x40 MLOAD PUSH32 0x8C379A000000000000000000000000000000000000000000000000000000000 DUP2 MSTORE PUSH1 0x4 ADD PUSH2 0x199E SWAP1 PUSH2 0x2C66 JUMP JUMPDEST PUSH1 0x40 MLOAD DUP1 SWAP2 SUB SWAP1 REVERT JUMPDEST PUSH1 0x1 PUSH1 0x4 PUSH0 DUP5 PUSH20 0xFFFFFFFFFFFFFFFFFFFFFFFFFFFFFFFFFFFFFFFF AND PUSH20 0xFFFFFFFFFFFFFFFFFFFFFFFFFFFFFFFFFFFFFFFF AND DUP2 MSTORE PUSH1 0x20 ADD SWAP1 DUP2 MSTORE PUSH1 0x20 ADD PUSH0 KECCAK256 PUSH0 DUP3 DUP3 SLOAD PUSH2 0x19F4 SWAP2 SWAP1 PUSH2 0x2799 JUMP JUMPDEST SWAP3 POP POP DUP2 SWAP1 SSTORE POP DUP2 PUSH1 0x3 PUSH0 DUP4 DUP2 MSTORE PUSH1 0x20 ADD SWAP1 DUP2 MSTORE PUSH1 0x20 ADD PUSH0 KECCAK256 PUSH0 PUSH2 0x100 EXP DUP2 SLOAD DUP2 PUSH20 0xFFFFFFFFFFFFFFFFFFFFFFFFFFFFFFFFFFFFFFFF MUL NOT AND SWAP1 DUP4 PUSH20 0xFFFFFFFFFFFFFFFFFFFFFFFFFFFFFFFFFFFFFFFF AND MUL OR SWAP1 SSTORE POP DUP1 DUP3 PUSH20 0xFFFFFFFFFFFFFFFFFFFFFFFFFFFFFFFFFFFFFFFF AND PUSH0 PUSH20 0xFFFFFFFFFFFFFFFFFFFFFFFFFFFFFFFFFFFFFFFF AND PUSH32 0xDDF252AD1BE2C89B69C2B068FC378DAA952BA7F163C4A11628F55A4DF523B3EF PUSH1 0x40 MLOAD PUSH1 0x40 MLOAD DUP1 SWAP2 SUB SWAP1 LOG4 POP POP JUMP JUMPDEST PUSH1 0x9 DUP2 SWAP1 DUP1 PUSH1 0x1 DUP2 SLOAD ADD DUP1 DUP3 SSTORE DUP1 SWAP2 POP POP PUSH1 0x1 SWAP1 SUB SWAP1 PUSH0 MSTORE PUSH1 0x20 PUSH0 KECCAK256 ADD PUSH0 SWAP1 SWAP2 SWAP1 SWAP2 SWAP1 SWAP2 POP SSTORE POP JUMP JUMPDEST PUSH0 PUSH0 PUSH0 SWAP1 SLOAD SWAP1 PUSH2 0x100 EXP SWAP1 DIV PUSH20 0xFFFFFFFFFFFFFFFFFFFFFFFFFFFFFFFFFFFFFFFF AND SWAP1 POP DUP2 PUSH0 PUSH0 PUSH2 0x100 EXP DUP2 SLOAD DUP2 PUSH20 0xFFFFFFFFFFFFFFFFFFFFFFFFFFFFFFFFFFFFFFFF MUL NOT AND SWAP1 DUP4 PUSH20 0xFFFFFFFFFFFFFFFFFFFFFFFFFFFFFFFFFFFFFFFF AND MUL OR SWAP1 SSTORE POP DUP2 PUSH20 0xFFFFFFFFFFFFFFFFFFFFFFFFFFFFFFFFFFFFFFFF AND DUP2 PUSH20 0xFFFFFFFFFFFFFFFFFFFFFFFFFFFFFFFFFFFFFFFF AND PUSH32 0x8BE0079C531659141344CD1FD0A4F28419497F9722A3DAAFE3B4186F6B6457E0 PUSH1 0x40 MLOAD PUSH1 0x40 MLOAD DUP1 SWAP2 SUB SWAP1 LOG3 POP POP JUMP JUMPDEST PUSH2 0x1B9F DUP6 DUP6 DUP6 DUP6 PUSH2 0x165C JUMP JUMPDEST PUSH2 0x1BAB DUP5 DUP5 DUP5 DUP5 PUSH2 0x1D28 JUMP JUMPDEST POP POP POP POP POP JUMP JUMPDEST PUSH1 0x60 PUSH1 0x40 MLOAD DUP1 PUSH1 0x20 ADD PUSH1 0x40 MSTORE DUP1 PUSH0 DUP2 MSTORE POP SWAP1 POP SWAP1 JUMP JUMPDEST PUSH1 0x60 PUSH0 DUP3 SUB PUSH2 0x1C0E JUMPI PUSH1 0x40 MLOAD DUP1 PUSH1 0x40 ADD PUSH1 0x40 MSTORE DUP1 PUSH1 0x1 DUP2 MSTORE PUSH1 0x20 ADD PUSH32 0x3000000000000000000000000000000000000000000000000000000000000000 DUP2 MSTORE POP SWAP1 POP PUSH2 0x1D1C JUMP JUMPDEST PUSH0 DUP3 SWAP1 POP PUSH0 JUMPDEST PUSH0 DUP3 EQ PUSH2 0x1C3D JUMPI DUP1 DUP1 PUSH2 0x1C26 SWAP1 PUSH2 0x2C84 JUMP JUMPDEST SWAP2 POP POP PUSH1 0xA DUP3 PUSH2 0x1C36 SWAP2 SWAP1 PUSH2 0x26C0 JUMP JUMPDEST SWAP2 POP PUSH2 0x1C14 JUMP JUMPDEST PUSH0 DUP2 PUSH8 0xFFFFFFFFFFFFFFFF DUP2 GT ISZERO PUSH2 0x1C58 JUMPI PUSH2 0x1C57 PUSH2 0x22BC JUMP JUMPDEST JUMPDEST PUSH1 0x40 MLOAD SWAP1 DUP1 DUP3 MSTORE DUP1 PUSH1 0x1F ADD PUSH1 0x1F NOT AND PUSH1 0x20 ADD DUP3 ADD PUSH1 0x40 MSTORE DUP1 ISZERO PUSH2 0x1C8A JUMPI DUP2 PUSH1 0x20 ADD PUSH1 0x1 DUP3 MUL DUP1 CALLDATASIZE DUP4 CALLDATACOPY DUP1 DUP3 ADD SWAP2 POP POP SWAP1 POP JUMPDEST POP SWAP1 POP JUMPDEST PUSH0 DUP6 EQ PUSH2 0x1D15 JUMPI PUSH1 0x1 DUP3 PUSH2 0x1CA2 SWAP2 SWAP1 PUSH2 0x2660 JUMP JUMPDEST SWAP2 POP PUSH1 0xA DUP6 PUSH2 0x1CB1 SWAP2 SWAP1 PUSH2 0x2CCB JUMP JUMPDEST PUSH1 0x30 PUSH2 0x1CBD SWAP2 SWAP1 PUSH2 0x2799 JUMP JUMPDEST PUSH1 0xF8 SHL DUP2 DUP4 DUP2 MLOAD DUP2 LT PUSH2 0x1CD3 JUMPI PUSH2 0x1CD2 PUSH2 0x2CFB JUMP JUMPDEST JUMPDEST PUSH1 0x20 ADD ADD SWAP1 PUSH31 0xFFFFFFFFFFFFFFFFFFFFFFFFFFFFFFFFFFFFFFFFFFFFFFFFFFFFFFFFFFFFFF NOT AND SWAP1 DUP2 PUSH0 BYTE SWAP1 MSTORE8 POP PUSH1 0xA DUP6 PUSH2 0x1D0E SWAP2 SWAP1 PUSH2 0x26C0 JUMP JUMPDEST SWAP5 POP PUSH2 0x1C8E JUMP JUMPDEST DUP1 SWAP4 POP POP POP POP JUMPDEST SWAP2 SWAP1 POP JUMP JUMPDEST PUSH0 CALLER SWAP1 POP SWAP1 JUMP JUMPDEST PUSH0 DUP4 PUSH20 0xFFFFFFFFFFFFFFFFFFFFFFFFFFFFFFFFFFFFFFFF AND EXTCODESIZE GT ISZERO PUSH2 0x1ECD JUMPI DUP3 PUSH20 0xFFFFFFFFFFFFFFFFFFFFFFFFFFFFFFFFFFFFFFFF AND PUSH4 0x150B7A02 CALLER DUP7 DUP6 DUP6 PUSH1 0x40 MLOAD DUP6 PUSH4 0xFFFFFFFF AND PUSH1 0xE0 SHL DUP2 MSTORE PUSH1 0x4 ADD PUSH2 0x1D86 SWAP5 SWAP4 SWAP3 SWAP2 SWAP1 PUSH2 0x2D7A JUMP JUMPDEST PUSH1 0x20 PUSH1 0x40 MLOAD DUP1 DUP4 SUB DUP2 PUSH0 DUP8 GAS CALL SWAP3 POP POP POP DUP1 ISZERO PUSH2 0x1DC1 JUMPI POP PUSH1 0x40 MLOAD RETURNDATASIZE PUSH1 0x1F NOT PUSH1 0x1F DUP3 ADD AND DUP3 ADD DUP1 PUSH1 0x40 MSTORE POP DUP2 ADD SWAP1 PUSH2 0x1DBE SWAP2 SWAP1 PUSH2 0x2DD8 JUMP JUMPDEST PUSH1 0x1 JUMPDEST PUSH2 0x1E42 JUMPI RETURNDATASIZE DUP1 PUSH0 DUP2 EQ PUSH2 0x1DEF JUMPI PUSH1 0x40 MLOAD SWAP2 POP PUSH1 0x1F NOT PUSH1 0x3F RETURNDATASIZE ADD AND DUP3 ADD PUSH1 0x40 MSTORE RETURNDATASIZE DUP3 MSTORE RETURNDATASIZE PUSH0 PUSH1 0x20 DUP5 ADD RETURNDATACOPY PUSH2 0x1DF4 JUMP JUMPDEST PUSH1 0x60 SWAP2 POP JUMPDEST POP PUSH0 DUP2 MLOAD SUB PUSH2 0x1E3A JUMPI DUP4 PUSH1 0x40 MLOAD PUSH32 0x64A0AE9200000000000000000000000000000000000000000000000000000000 DUP2 MSTORE PUSH1 0x4 ADD PUSH2 0x1E31 SWAP2 SWAP1 PUSH2 0x2128 JUMP JUMPDEST PUSH1 0x40 MLOAD DUP1 SWAP2 SUB SWAP1 REVERT JUMPDEST DUP1 MLOAD DUP2 PUSH1 0x20 ADD REVERT JUMPDEST PUSH4 0x150B7A02 PUSH1 0xE0 SHL PUSH28 0xFFFFFFFFFFFFFFFFFFFFFFFFFFFFFFFFFFFFFFFFFFFFFFFFFFFFFFFF NOT AND DUP2 PUSH28 0xFFFFFFFFFFFFFFFFFFFFFFFFFFFFFFFFFFFFFFFFFFFFFFFFFFFFFFFF NOT AND EQ PUSH2 0x1ECB JUMPI DUP4 PUSH1 0x40 MLOAD PUSH32 0x64A0AE9200000000000000000000000000000000000000000000000000000000 DUP2 MSTORE PUSH1 0x4 ADD PUSH2 0x1EC2 SWAP2 SWAP1 PUSH2 0x2128 JUMP JUMPDEST PUSH1 0x40 MLOAD DUP1 SWAP2 SUB SWAP1 REVERT JUMPDEST POP JUMPDEST POP POP POP POP JUMP JUMPDEST PUSH0 PUSH1 0x40 MLOAD SWAP1 POP SWAP1 JUMP JUMPDEST PUSH0 PUSH0 REVERT JUMPDEST PUSH0 PUSH0 REVERT JUMPDEST PUSH0 PUSH32 0xFFFFFFFF00000000000000000000000000000000000000000000000000000000 DUP3 AND SWAP1 POP SWAP2 SWAP1 POP JUMP JUMPDEST PUSH2 0x1F18 DUP2 PUSH2 0x1EE4 JUMP JUMPDEST DUP2 EQ PUSH2 0x1F22 JUMPI PUSH0 PUSH0 REVERT JUMPDEST POP JUMP JUMPDEST PUSH0 DUP2 CALLDATALOAD SWAP1 POP PUSH2 0x1F33 DUP2 PUSH2 0x1F0F JUMP JUMPDEST SWAP3 SWAP2 POP POP JUMP JUMPDEST PUSH0 PUSH1 0x20 DUP3 DUP5 SUB SLT ISZERO PUSH2 0x1F4E JUMPI PUSH2 0x1F4D PUSH2 0x1EDC JUMP JUMPDEST JUMPDEST PUSH0 PUSH2 0x1F5B DUP5 DUP3 DUP6 ADD PUSH2 0x1F25 JUMP JUMPDEST SWAP2 POP POP SWAP3 SWAP2 POP POP JUMP JUMPDEST PUSH0 DUP2 ISZERO ISZERO SWAP1 POP SWAP2 SWAP1 POP JUMP JUMPDEST PUSH2 0x1F78 DUP2 PUSH2 0x1F64 JUMP JUMPDEST DUP3 MSTORE POP POP JUMP JUMPDEST PUSH0 PUSH1 0x20 DUP3 ADD SWAP1 POP PUSH2 0x1F91 PUSH0 DUP4 ADD DUP5 PUSH2 0x1F6F JUMP JUMPDEST SWAP3 SWAP2 POP POP JUMP JUMPDEST PUSH0 PUSH4 0xFFFFFFFF DUP3 AND SWAP1 POP SWAP2 SWAP1 POP JUMP JUMPDEST PUSH2 0x1FAF DUP2 PUSH2 0x1F97 JUMP JUMPDEST DUP2 EQ PUSH2 0x1FB9 JUMPI PUSH0 PUSH0 REVERT JUMPDEST POP JUMP JUMPDEST PUSH0 DUP2 CALLDATALOAD SWAP1 POP PUSH2 0x1FCA DUP2 PUSH2 0x1FA6 JUMP JUMPDEST SWAP3 SWAP2 POP POP JUMP JUMPDEST PUSH0 PUSH1 0x20 DUP3 DUP5 SUB SLT ISZERO PUSH2 0x1FE5 JUMPI PUSH2 0x1FE4 PUSH2 0x1EDC JUMP JUMPDEST JUMPDEST PUSH0 PUSH2 0x1FF2 DUP5 DUP3 DUP6 ADD PUSH2 0x1FBC JUMP JUMPDEST SWAP2 POP POP SWAP3 SWAP2 POP POP JUMP JUMPDEST PUSH0 DUP2 MLOAD SWAP1 POP SWAP2 SWAP1 POP JUMP JUMPDEST PUSH0 DUP3 DUP3 MSTORE PUSH1 0x20 DUP3 ADD SWAP1 POP SWAP3 SWAP2 POP POP JUMP JUMPDEST DUP3 DUP2 DUP4 MCOPY PUSH0 DUP4 DUP4 ADD MSTORE POP POP POP JUMP JUMPDEST PUSH0 PUSH1 0x1F NOT PUSH1 0x1F DUP4 ADD AND SWAP1 POP SWAP2 SWAP1 POP JUMP JUMPDEST PUSH0 PUSH2 0x203D DUP3 PUSH2 0x1FFB JUMP JUMPDEST PUSH2 0x2047 DUP2 DUP6 PUSH2 0x2005 JUMP JUMPDEST SWAP4 POP PUSH2 0x2057 DUP2 DUP6 PUSH1 0x20 DUP7 ADD PUSH2 0x2015 JUMP JUMPDEST PUSH2 0x2060 DUP2 PUSH2 0x2023 JUMP JUMPDEST DUP5 ADD SWAP2 POP POP SWAP3 SWAP2 POP POP JUMP JUMPDEST PUSH0 PUSH1 0x20 DUP3 ADD SWAP1 POP DUP2 DUP2 SUB PUSH0 DUP4 ADD MSTORE PUSH2 0x2083 DUP2 DUP5 PUSH2 0x2033 JUMP JUMPDEST SWAP1 POP SWAP3 SWAP2 POP POP JUMP JUMPDEST PUSH0 DUP2 SWAP1 POP SWAP2 SWAP1 POP JUMP JUMPDEST PUSH2 0x209D DUP2 PUSH2 0x208B JUMP JUMPDEST DUP2 EQ PUSH2 0x20A7 JUMPI PUSH0 PUSH0 REVERT JUMPDEST POP JUMP JUMPDEST PUSH0 DUP2 CALLDATALOAD SWAP1 POP PUSH2 0x20B8 DUP2 PUSH2 0x2094 JUMP JUMPDEST SWAP3 SWAP2 POP POP JUMP JUMPDEST PUSH0 PUSH1 0x20 DUP3 DUP5 SUB SLT ISZERO PUSH2 0x20D3 JUMPI PUSH2 0x20D2 PUSH2 0x1EDC JUMP JUMPDEST JUMPDEST PUSH0 PUSH2 0x20E0 DUP5 DUP3 DUP6 ADD PUSH2 0x20AA JUMP JUMPDEST SWAP2 POP POP SWAP3 SWAP2 POP POP JUMP JUMPDEST PUSH0 PUSH20 0xFFFFFFFFFFFFFFFFFFFFFFFFFFFFFFFFFFFFFFFF DUP3 AND SWAP1 POP SWAP2 SWAP1 POP JUMP JUMPDEST PUSH0 PUSH2 0x2112 DUP3 PUSH2 0x20E9 JUMP JUMPDEST SWAP1 POP SWAP2 SWAP1 POP JUMP JUMPDEST PUSH2 0x2122 DUP2 PUSH2 0x2108 JUMP JUMPDEST DUP3 MSTORE POP POP JUMP JUMPDEST PUSH0 PUSH1 0x20 DUP3 ADD SWAP1 POP PUSH2 0x213B PUSH0 DUP4 ADD DUP5 PUSH2 0x2119 JUMP JUMPDEST SWAP3 SWAP2 POP POP JUMP JUMPDEST PUSH2 0x214A DUP2 PUSH2 0x2108 JUMP JUMPDEST DUP2 EQ PUSH2 0x2154 JUMPI PUSH0 PUSH0 REVERT JUMPDEST POP JUMP JUMPDEST PUSH0 DUP2 CALLDATALOAD SWAP1 POP PUSH2 0x2165 DUP2 PUSH2 0x2141 JUMP JUMPDEST SWAP3 SWAP2 POP POP JUMP JUMPDEST PUSH0 PUSH0 PUSH1 0x40 DUP4 DUP6 SUB SLT ISZERO PUSH2 0x2181 JUMPI PUSH2 0x2180 PUSH2 0x1EDC JUMP JUMPDEST JUMPDEST PUSH0 PUSH2 0x218E DUP6 DUP3 DUP7 ADD PUSH2 0x2157 JUMP JUMPDEST SWAP3 POP POP PUSH1 0x20 PUSH2 0x219F DUP6 DUP3 DUP7 ADD PUSH2 0x20AA JUMP JUMPDEST SWAP2 POP POP SWAP3 POP SWAP3 SWAP1 POP JUMP JUMPDEST PUSH2 0x21B2 DUP2 PUSH2 0x208B JUMP JUMPDEST DUP3 MSTORE POP POP JUMP JUMPDEST PUSH0 PUSH1 0x20 DUP3 ADD SWAP1 POP PUSH2 0x21CB PUSH0 DUP4 ADD DUP5 PUSH2 0x21A9 JUMP JUMPDEST SWAP3 SWAP2 POP POP JUMP JUMPDEST PUSH0 PUSH0 PUSH0 PUSH1 0x60 DUP5 DUP7 SUB SLT ISZERO PUSH2 0x21E8 JUMPI PUSH2 0x21E7 PUSH2 0x1EDC JUMP JUMPDEST JUMPDEST PUSH0 PUSH2 0x21F5 DUP7 DUP3 DUP8 ADD PUSH2 0x2157 JUMP JUMPDEST SWAP4 POP POP PUSH1 0x20 PUSH2 0x2206 DUP7 DUP3 DUP8 ADD PUSH2 0x2157 JUMP JUMPDEST SWAP3 POP POP PUSH1 0x40 PUSH2 0x2217 DUP7 DUP3 DUP8 ADD PUSH2 0x20AA JUMP JUMPDEST SWAP2 POP POP SWAP3 POP SWAP3 POP SWAP3 JUMP JUMPDEST PUSH0 PUSH1 0x20 DUP3 DUP5 SUB SLT ISZERO PUSH2 0x2236 JUMPI PUSH2 0x2235 PUSH2 0x1EDC JUMP JUMPDEST JUMPDEST PUSH0 PUSH2 0x2243 DUP5 DUP3 DUP6 ADD PUSH2 0x2157 JUMP JUMPDEST SWAP2 POP POP SWAP3 SWAP2 POP POP JUMP JUMPDEST PUSH2 0x2255 DUP2 PUSH2 0x1F64 JUMP JUMPDEST DUP2 EQ PUSH2 0x225F JUMPI PUSH0 PUSH0 REVERT JUMPDEST POP JUMP JUMPDEST PUSH0 DUP2 CALLDATALOAD SWAP1 POP PUSH2 0x2270 DUP2 PUSH2 0x224C JUMP JUMPDEST SWAP3 SWAP2 POP POP JUMP JUMPDEST PUSH0 PUSH0 PUSH1 0x40 DUP4 DUP6 SUB SLT ISZERO PUSH2 0x228C JUMPI PUSH2 0x228B PUSH2 0x1EDC JUMP JUMPDEST JUMPDEST PUSH0 PUSH2 0x2299 DUP6 DUP3 DUP7 ADD PUSH2 0x2157 JUMP JUMPDEST SWAP3 POP POP PUSH1 0x20 PUSH2 0x22AA DUP6 DUP3 DUP7 ADD PUSH2 0x2262 JUMP JUMPDEST SWAP2 POP POP SWAP3 POP SWAP3 SWAP1 POP JUMP JUMPDEST PUSH0 PUSH0 REVERT JUMPDEST PUSH0 PUSH0 REVERT JUMPDEST PUSH32 0x4E487B7100000000000000000000000000000000000000000000000000000000 PUSH0 MSTORE PUSH1 0x41 PUSH1 0x4 MSTORE PUSH1 0x24 PUSH0 REVERT JUMPDEST PUSH2 0x22F2 DUP3 PUSH2 0x2023 JUMP JUMPDEST DUP2 ADD DUP2 DUP2 LT PUSH8 0xFFFFFFFFFFFFFFFF DUP3 GT OR ISZERO PUSH2 0x2311 JUMPI PUSH2 0x2310 PUSH2 0x22BC JUMP JUMPDEST JUMPDEST DUP1 PUSH1 0x40 MSTORE POP POP POP JUMP JUMPDEST PUSH0 PUSH2 0x2323 PUSH2 0x1ED3 JUMP JUMPDEST SWAP1 POP PUSH2 0x232F DUP3 DUP3 PUSH2 0x22E9 JUMP JUMPDEST SWAP2 SWAP1 POP JUMP JUMPDEST PUSH0 PUSH8 0xFFFFFFFFFFFFFFFF DUP3 GT ISZERO PUSH2 0x234E JUMPI PUSH2 0x234D PUSH2 0x22BC JUMP JUMPDEST JUMPDEST PUSH2 0x2357 DUP3 PUSH2 0x2023 JUMP JUMPDEST SWAP1 POP PUSH1 0x20 DUP2 ADD SWAP1 POP SWAP2 SWAP1 POP JUMP JUMPDEST DUP3 DUP2 DUP4 CALLDATACOPY PUSH0 DUP4 DUP4 ADD MSTORE POP POP POP JUMP JUMPDEST PUSH0 PUSH2 0x2384 PUSH2 0x237F DUP5 PUSH2 0x2334 JUMP JUMPDEST PUSH2 0x231A JUMP JUMPDEST SWAP1 POP DUP3 DUP2 MSTORE PUSH1 0x20 DUP2 ADD DUP5 DUP5 DUP5 ADD GT ISZERO PUSH2 0x23A0 JUMPI PUSH2 0x239F PUSH2 0x22B8 JUMP JUMPDEST JUMPDEST PUSH2 0x23AB DUP5 DUP3 DUP6 PUSH2 0x2364 JUMP JUMPDEST POP SWAP4 SWAP3 POP POP POP JUMP JUMPDEST PUSH0 DUP3 PUSH1 0x1F DUP4 ADD SLT PUSH2 0x23C7 JUMPI PUSH2 0x23C6 PUSH2 0x22B4 JUMP JUMPDEST JUMPDEST DUP2 CALLDATALOAD PUSH2 0x23D7 DUP5 DUP3 PUSH1 0x20 DUP7 ADD PUSH2 0x2372 JUMP JUMPDEST SWAP2 POP POP SWAP3 SWAP2 POP POP JUMP JUMPDEST PUSH0 PUSH0 PUSH0 PUSH0 PUSH1 0x80 DUP6 DUP8 SUB SLT ISZERO PUSH2 0x23F8 JUMPI PUSH2 0x23F7 PUSH2 0x1EDC JUMP JUMPDEST JUMPDEST PUSH0 PUSH2 0x2405 DUP8 DUP3 DUP9 ADD PUSH2 0x2157 JUMP JUMPDEST SWAP5 POP POP PUSH1 0x20 PUSH2 0x2416 DUP8 DUP3 DUP9 ADD PUSH2 0x2157 JUMP JUMPDEST SWAP4 POP POP PUSH1 0x40 PUSH2 0x2427 DUP8 DUP3 DUP9 ADD PUSH2 0x20AA JUMP JUMPDEST SWAP3 POP POP PUSH1 0x60 DUP6 ADD CALLDATALOAD PUSH8 0xFFFFFFFFFFFFFFFF DUP2 GT ISZERO PUSH2 0x2448 JUMPI PUSH2 0x2447 PUSH2 0x1EE0 JUMP JUMPDEST JUMPDEST PUSH2 0x2454 DUP8 DUP3 DUP9 ADD PUSH2 0x23B3 JUMP JUMPDEST SWAP2 POP POP SWAP3 SWAP6 SWAP2 SWAP5 POP SWAP3 POP JUMP JUMPDEST PUSH0 PUSH0 PUSH1 0x40 DUP4 DUP6 SUB SLT ISZERO PUSH2 0x2476 JUMPI PUSH2 0x2475 PUSH2 0x1EDC JUMP JUMPDEST JUMPDEST PUSH0 PUSH2 0x2483 DUP6 DUP3 DUP7 ADD PUSH2 0x2157 JUMP JUMPDEST SWAP3 POP POP PUSH1 0x20 PUSH2 0x2494 DUP6 DUP3 DUP7 ADD PUSH2 0x2157 JUMP JUMPDEST SWAP2 POP POP SWAP3 POP SWAP3 SWAP1 POP JUMP JUMPDEST PUSH32 0x4E487B7100000000000000000000000000000000000000000000000000000000 PUSH0 MSTORE PUSH1 0x22 PUSH1 0x4 MSTORE PUSH1 0x24 PUSH0 REVERT JUMPDEST PUSH0 PUSH1 0x2 DUP3 DIV SWAP1 POP PUSH1 0x1 DUP3 AND DUP1 PUSH2 0x24E2 JUMPI PUSH1 0x7F DUP3 AND SWAP2 POP JUMPDEST PUSH1 0x20 DUP3 LT DUP2 SUB PUSH2 0x24F5 JUMPI PUSH2 0x24F4 PUSH2 0x249E JUMP JUMPDEST JUMPDEST POP SWAP2 SWAP1 POP JUMP JUMPDEST PUSH32 0x746F6B656E20646F65736E277420657869737400000000000000000000000000 PUSH0 DUP3 ADD MSTORE POP JUMP JUMPDEST PUSH0 PUSH2 0x252F PUSH1 0x13 DUP4 PUSH2 0x2005 JUMP JUMPDEST SWAP2 POP PUSH2 0x253A DUP3 PUSH2 0x24FB JUMP JUMPDEST PUSH1 0x20 DUP3 ADD SWAP1 POP SWAP2 SWAP1 POP JUMP JUMPDEST PUSH0 PUSH1 0x20 DUP3 ADD SWAP1 POP DUP2 DUP2 SUB PUSH0 DUP4 ADD MSTORE PUSH2 0x255C DUP2 PUSH2 0x2523 JUMP JUMPDEST SWAP1 POP SWAP2 SWAP1 POP JUMP JUMPDEST PUSH32 0x6E6F74206F776E6572206E6F7220617070726F76656420666F7220616C6C0000 PUSH0 DUP3 ADD MSTORE POP JUMP JUMPDEST PUSH0 PUSH2 0x2597 PUSH1 0x1E DUP4 PUSH2 0x2005 JUMP JUMPDEST SWAP2 POP PUSH2 0x25A2 DUP3 PUSH2 0x2563 JUMP JUMPDEST PUSH1 0x20 DUP3 ADD SWAP1 POP SWAP2 SWAP1 POP JUMP JUMPDEST PUSH0 PUSH1 0x20 DUP3 ADD SWAP1 POP DUP2 DUP2 SUB PUSH0 DUP4 ADD MSTORE PUSH2 0x25C4 DUP2 PUSH2 0x258B JUMP JUMPDEST SWAP1 POP SWAP2 SWAP1 POP JUMP JUMPDEST PUSH32 0x6E6F74206F776E6572206E6F7220617070726F76656400000000000000000000 PUSH0 DUP3 ADD MSTORE POP JUMP JUMPDEST PUSH0 PUSH2 0x25FF PUSH1 0x16 DUP4 PUSH2 0x2005 JUMP JUMPDEST SWAP2 POP PUSH2 0x260A DUP3 PUSH2 0x25CB JUMP JUMPDEST PUSH1 0x20 DUP3 ADD SWAP1 POP SWAP2 SWAP1 POP JUMP JUMPDEST PUSH0 PUSH1 0x20 DUP3 ADD SWAP1 POP DUP2 DUP2 SUB PUSH0 DUP4 ADD MSTORE PUSH2 0x262C DUP2 PUSH2 0x25F3 JUMP JUMPDEST SWAP1 POP SWAP2 SWAP1 POP JUMP JUMPDEST PUSH32 0x4E487B7100000000000000000000000000000000000000000000000000000000 PUSH0 MSTORE PUSH1 0x11 PUSH1 0x4 MSTORE PUSH1 0x24 PUSH0 REVERT JUMPDEST PUSH0 PUSH2 0x266A DUP3 PUSH2 0x208B JUMP JUMPDEST SWAP2 POP PUSH2 0x2675 DUP4 PUSH2 0x208B JUMP JUMPDEST SWAP3 POP DUP3 DUP3 SUB SWAP1 POP DUP2 DUP2 GT ISZERO PUSH2 0x268D JUMPI PUSH2 0x268C PUSH2 0x2633 JUMP JUMPDEST JUMPDEST SWAP3 SWAP2 POP POP JUMP JUMPDEST PUSH32 0x4E487B7100000000000000000000000000000000000000000000000000000000 PUSH0 MSTORE PUSH1 0x12 PUSH1 0x4 MSTORE PUSH1 0x24 PUSH0 REVERT JUMPDEST PUSH0 PUSH2 0x26CA DUP3 PUSH2 0x208B JUMP JUMPDEST SWAP2 POP PUSH2 0x26D5 DUP4 PUSH2 0x208B JUMP JUMPDEST SWAP3 POP DUP3 PUSH2 0x26E5 JUMPI PUSH2 0x26E4 PUSH2 0x2693 JUMP JUMPDEST JUMPDEST DUP3 DUP3 DIV SWAP1 POP SWAP3 SWAP2 POP POP JUMP JUMPDEST PUSH0 PUSH2 0x26FA DUP3 PUSH2 0x208B JUMP JUMPDEST SWAP2 POP PUSH2 0x2705 DUP4 PUSH2 0x208B JUMP JUMPDEST SWAP3 POP DUP3 DUP3 MUL PUSH2 0x2713 DUP2 PUSH2 0x208B JUMP JUMPDEST SWAP2 POP DUP3 DUP3 DIV DUP5 EQ DUP4 ISZERO OR PUSH2 0x272A JUMPI PUSH2 0x2729 PUSH2 0x2633 JUMP JUMPDEST JUMPDEST POP SWAP3 SWAP2 POP POP JUMP JUMPDEST PUSH32 0x73616C6520686173206E6F742073746172746564207965740000000000000000 PUSH0 DUP3 ADD MSTORE POP JUMP JUMPDEST PUSH0 PUSH2 0x2765 PUSH1 0x18 DUP4 PUSH2 0x2005 JUMP JUMPDEST SWAP2 POP PUSH2 0x2770 DUP3 PUSH2 0x2731 JUMP JUMPDEST PUSH1 0x20 DUP3 ADD SWAP1 POP SWAP2 SWAP1 POP JUMP JUMPDEST PUSH0 PUSH1 0x20 DUP3 ADD SWAP1 POP DUP2 DUP2 SUB PUSH0 DUP4 ADD MSTORE PUSH2 0x2792 DUP2 PUSH2 0x2759 JUMP JUMPDEST SWAP1 POP SWAP2 SWAP1 POP JUMP JUMPDEST PUSH0 PUSH2 0x27A3 DUP3 PUSH2 0x208B JUMP JUMPDEST SWAP2 POP PUSH2 0x27AE DUP4 PUSH2 0x208B JUMP JUMPDEST SWAP3 POP DUP3 DUP3 ADD SWAP1 POP DUP1 DUP3 GT ISZERO PUSH2 0x27C6 JUMPI PUSH2 0x27C5 PUSH2 0x2633 JUMP JUMPDEST JUMPDEST SWAP3 SWAP2 POP POP JUMP JUMPDEST PUSH32 0x6E6F7420656E6F7567682072656D61696E696E6720726573657276656420666F PUSH0 DUP3 ADD MSTORE PUSH32 0x722061756374696F6E20746F20737570706F72742064657369726564206D696E PUSH1 0x20 DUP3 ADD MSTORE PUSH32 0x7420616D6F756E74000000000000000000000000000000000000000000000000 PUSH1 0x40 DUP3 ADD MSTORE POP JUMP JUMPDEST PUSH0 PUSH2 0x284C PUSH1 0x48 DUP4 PUSH2 0x2005 JUMP JUMPDEST SWAP2 POP PUSH2 0x2857 DUP3 PUSH2 0x27CC JUMP JUMPDEST PUSH1 0x60 DUP3 ADD SWAP1 POP SWAP2 SWAP1 POP JUMP JUMPDEST PUSH0 PUSH1 0x20 DUP3 ADD SWAP1 POP DUP2 DUP2 SUB PUSH0 DUP4 ADD MSTORE PUSH2 0x2879 DUP2 PUSH2 0x2840 JUMP JUMPDEST SWAP1 POP SWAP2 SWAP1 POP JUMP JUMPDEST PUSH32 0x6E6F7420656E6F7567682045544820746F206D696E7420646573697265642061 PUSH0 DUP3 ADD MSTORE PUSH32 0x6D6F756E74000000000000000000000000000000000000000000000000000000 PUSH1 0x20 DUP3 ADD MSTORE POP JUMP JUMPDEST PUSH0 PUSH2 0x28DA PUSH1 0x25 DUP4 PUSH2 0x2005 JUMP JUMPDEST SWAP2 POP PUSH2 0x28E5 DUP3 PUSH2 0x2880 JUMP JUMPDEST PUSH1 0x40 DUP3 ADD SWAP1 POP SWAP2 SWAP1 POP JUMP JUMPDEST PUSH0 PUSH1 0x20 DUP3 ADD SWAP1 POP DUP2 DUP2 SUB PUSH0 DUP4 ADD MSTORE PUSH2 0x2907 DUP2 PUSH2 0x28CE JUMP JUMPDEST SWAP1 POP SWAP2 SWAP1 POP JUMP JUMPDEST PUSH32 0x6F776E6572203D207A65726F2061646472657373000000000000000000000000 PUSH0 DUP3 ADD MSTORE POP JUMP JUMPDEST PUSH0 PUSH2 0x2942 PUSH1 0x14 DUP4 PUSH2 0x2005 JUMP JUMPDEST SWAP2 POP PUSH2 0x294D DUP3 PUSH2 0x290E JUMP JUMPDEST PUSH1 0x20 DUP3 ADD SWAP1 POP SWAP2 SWAP1 POP JUMP JUMPDEST PUSH0 PUSH1 0x20 DUP3 ADD SWAP1 POP DUP2 DUP2 SUB PUSH0 DUP4 ADD MSTORE PUSH2 0x296F DUP2 PUSH2 0x2936 JUMP JUMPDEST SWAP1 POP SWAP2 SWAP1 POP JUMP JUMPDEST PUSH0 DUP2 SWAP1 POP SWAP3 SWAP2 POP POP JUMP JUMPDEST POP JUMP JUMPDEST PUSH0 PUSH2 0x298E PUSH0 DUP4 PUSH2 0x2976 JUMP JUMPDEST SWAP2 POP PUSH2 0x2999 DUP3 PUSH2 0x2980 JUMP JUMPDEST PUSH0 DUP3 ADD SWAP1 POP SWAP2 SWAP1 POP JUMP JUMPDEST PUSH0 PUSH2 0x29AD DUP3 PUSH2 0x2983 JUMP JUMPDEST SWAP2 POP DUP2 SWAP1 POP SWAP2 SWAP1 POP JUMP JUMPDEST PUSH32 0x5472616E73666572206661696C65642E00000000000000000000000000000000 PUSH0 DUP3 ADD MSTORE POP JUMP JUMPDEST PUSH0 PUSH2 0x29EB PUSH1 0x10 DUP4 PUSH2 0x2005 JUMP JUMPDEST SWAP2 POP PUSH2 0x29F6 DUP3 PUSH2 0x29B7 JUMP JUMPDEST PUSH1 0x20 DUP3 ADD SWAP1 POP SWAP2 SWAP1 POP JUMP JUMPDEST PUSH0 PUSH1 0x20 DUP3 ADD SWAP1 POP DUP2 DUP2 SUB PUSH0 DUP4 ADD MSTORE PUSH2 0x2A18 DUP2 PUSH2 0x29DF JUMP JUMPDEST SWAP1 POP SWAP2 SWAP1 POP JUMP JUMPDEST PUSH32 0x546F6B656E204E6F742045786973740000000000000000000000000000000000 PUSH0 DUP3 ADD MSTORE POP JUMP JUMPDEST PUSH0 PUSH2 0x2A53 PUSH1 0xF DUP4 PUSH2 0x2005 JUMP JUMPDEST SWAP2 POP PUSH2 0x2A5E DUP3 PUSH2 0x2A1F JUMP JUMPDEST PUSH1 0x20 DUP3 ADD SWAP1 POP SWAP2 SWAP1 POP JUMP JUMPDEST PUSH0 PUSH1 0x20 DUP3 ADD SWAP1 POP DUP2 DUP2 SUB PUSH0 DUP4 ADD MSTORE PUSH2 0x2A80 DUP2 PUSH2 0x2A47 JUMP JUMPDEST SWAP1 POP SWAP2 SWAP1 POP JUMP JUMPDEST PUSH0 DUP2 SWAP1 POP SWAP3 SWAP2 POP POP JUMP JUMPDEST PUSH0 PUSH2 0x2A9B DUP3 PUSH2 0x1FFB JUMP JUMPDEST PUSH2 0x2AA5 DUP2 DUP6 PUSH2 0x2A87 JUMP JUMPDEST SWAP4 POP PUSH2 0x2AB5 DUP2 DUP6 PUSH1 0x20 DUP7 ADD PUSH2 0x2015 JUMP JUMPDEST DUP1 DUP5 ADD SWAP2 POP POP SWAP3 SWAP2 POP POP JUMP JUMPDEST PUSH0 PUSH2 0x2ACC DUP3 DUP6 PUSH2 0x2A91 JUMP JUMPDEST SWAP2 POP PUSH2 0x2AD8 DUP3 DUP5 PUSH2 0x2A91 JUMP JUMPDEST SWAP2 POP DUP2 SWAP1 POP SWAP4 SWAP3 POP POP POP JUMP JUMPDEST PUSH32 0x6E6F74206F776E65720000000000000000000000000000000000000000000000 PUSH0 DUP3 ADD MSTORE POP JUMP JUMPDEST PUSH0 PUSH2 0x2B18 PUSH1 0x9 DUP4 PUSH2 0x2005 JUMP JUMPDEST SWAP2 POP PUSH2 0x2B23 DUP3 PUSH2 0x2AE4 JUMP JUMPDEST PUSH1 0x20 DUP3 ADD SWAP1 POP SWAP2 SWAP1 POP JUMP JUMPDEST PUSH0 PUSH1 0x20 DUP3 ADD SWAP1 POP DUP2 DUP2 SUB PUSH0 DUP4 ADD MSTORE PUSH2 0x2B45 DUP2 PUSH2 0x2B0C JUMP JUMPDEST SWAP1 POP SWAP2 SWAP1 POP JUMP JUMPDEST PUSH32 0x7472616E7366657220746F20746865207A65726F206164647265737300000000 PUSH0 DUP3 ADD MSTORE POP JUMP JUMPDEST PUSH0 PUSH2 0x2B80 PUSH1 0x1C DUP4 PUSH2 0x2005 JUMP JUMPDEST SWAP2 POP PUSH2 0x2B8B DUP3 PUSH2 0x2B4C JUMP JUMPDEST PUSH1 0x20 DUP3 ADD SWAP1 POP SWAP2 SWAP1 POP JUMP JUMPDEST PUSH0 PUSH1 0x20 DUP3 ADD SWAP1 POP DUP2 DUP2 SUB PUSH0 DUP4 ADD MSTORE PUSH2 0x2BAD DUP2 PUSH2 0x2B74 JUMP JUMPDEST SWAP1 POP SWAP2 SWAP1 POP JUMP JUMPDEST PUSH32 0x6D696E7420746F207A65726F2061646472657373000000000000000000000000 PUSH0 DUP3 ADD MSTORE POP JUMP JUMPDEST PUSH0 PUSH2 0x2BE8 PUSH1 0x14 DUP4 PUSH2 0x2005 JUMP JUMPDEST SWAP2 POP PUSH2 0x2BF3 DUP3 PUSH2 0x2BB4 JUMP JUMPDEST PUSH1 0x20 DUP3 ADD SWAP1 POP SWAP2 SWAP1 POP JUMP JUMPDEST PUSH0 PUSH1 0x20 DUP3 ADD SWAP1 POP DUP2 DUP2 SUB PUSH0 DUP4 ADD MSTORE PUSH2 0x2C15 DUP2 PUSH2 0x2BDC JUMP JUMPDEST SWAP1 POP SWAP2 SWAP1 POP JUMP JUMPDEST PUSH32 0x746F6B656E20616C7265616479206D696E746564000000000000000000000000 PUSH0 DUP3 ADD MSTORE POP JUMP JUMPDEST PUSH0 PUSH2 0x2C50 PUSH1 0x14 DUP4 PUSH2 0x2005 JUMP JUMPDEST SWAP2 POP PUSH2 0x2C5B DUP3 PUSH2 0x2C1C JUMP JUMPDEST PUSH1 0x20 DUP3 ADD SWAP1 POP SWAP2 SWAP1 POP JUMP JUMPDEST PUSH0 PUSH1 0x20 DUP3 ADD SWAP1 POP DUP2 DUP2 SUB PUSH0 DUP4 ADD MSTORE PUSH2 0x2C7D DUP2 PUSH2 0x2C44 JUMP JUMPDEST SWAP1 POP SWAP2 SWAP1 POP JUMP JUMPDEST PUSH0 PUSH2 0x2C8E DUP3 PUSH2 0x208B JUMP JUMPDEST SWAP2 POP PUSH32 0xFFFFFFFFFFFFFFFFFFFFFFFFFFFFFFFFFFFFFFFFFFFFFFFFFFFFFFFFFFFFFFFF DUP3 SUB PUSH2 0x2CC0 JUMPI PUSH2 0x2CBF PUSH2 0x2633 JUMP JUMPDEST JUMPDEST PUSH1 0x1 DUP3 ADD SWAP1 POP SWAP2 SWAP1 POP JUMP JUMPDEST PUSH0 PUSH2 0x2CD5 DUP3 PUSH2 0x208B JUMP JUMPDEST SWAP2 POP PUSH2 0x2CE0 DUP4 PUSH2 0x208B JUMP JUMPDEST SWAP3 POP DUP3 PUSH2 0x2CF0 JUMPI PUSH2 0x2CEF PUSH2 0x2693 JUMP JUMPDEST JUMPDEST DUP3 DUP3 MOD SWAP1 POP SWAP3 SWAP2 POP POP JUMP JUMPDEST PUSH32 0x4E487B7100000000000000000000000000000000000000000000000000000000 PUSH0 MSTORE PUSH1 0x32 PUSH1 0x4 MSTORE PUSH1 0x24 PUSH0 REVERT JUMPDEST PUSH0 DUP2 MLOAD SWAP1 POP SWAP2 SWAP1 POP JUMP JUMPDEST PUSH0 DUP3 DUP3 MSTORE PUSH1 0x20 DUP3 ADD SWAP1 POP SWAP3 SWAP2 POP POP JUMP JUMPDEST PUSH0 PUSH2 0x2D4C DUP3 PUSH2 0x2D28 JUMP JUMPDEST PUSH2 0x2D56 DUP2 DUP6 PUSH2 0x2D32 JUMP JUMPDEST SWAP4 POP PUSH2 0x2D66 DUP2 DUP6 PUSH1 0x20 DUP7 ADD PUSH2 0x2015 JUMP JUMPDEST PUSH2 0x2D6F DUP2 PUSH2 0x2023 JUMP JUMPDEST DUP5 ADD SWAP2 POP POP SWAP3 SWAP2 POP POP JUMP JUMPDEST PUSH0 PUSH1 0x80 DUP3 ADD SWAP1 POP PUSH2 0x2D8D PUSH0 DUP4 ADD DUP8 PUSH2 0x2119 JUMP JUMPDEST PUSH2 0x2D9A PUSH1 0x20 DUP4 ADD DUP7 PUSH2 0x2119 JUMP JUMPDEST PUSH2 0x2DA7 PUSH1 0x40 DUP4 ADD DUP6 PUSH2 0x21A9 JUMP JUMPDEST DUP2 DUP2 SUB PUSH1 0x60 DUP4 ADD MSTORE PUSH2 0x2DB9 DUP2 DUP5 PUSH2 0x2D42 JUMP JUMPDEST SWAP1 POP SWAP6 SWAP5 POP POP POP POP POP JUMP JUMPDEST PUSH0 DUP2 MLOAD SWAP1 POP PUSH2 0x2DD2 DUP2 PUSH2 0x1F0F JUMP JUMPDEST SWAP3 SWAP2 POP POP JUMP JUMPDEST PUSH0 PUSH1 0x20 DUP3 DUP5 SUB SLT ISZERO PUSH2 0x2DED JUMPI PUSH2 0x2DEC PUSH2 0x1EDC JUMP JUMPDEST JUMPDEST PUSH0 PUSH2 0x2DFA DUP5 DUP3 DUP6 ADD PUSH2 0x2DC4 JUMP JUMPDEST SWAP2 POP POP SWAP3 SWAP2 POP POP JUMP INVALID LOG2 PUSH5 0x6970667358 0x22 SLT KECCAK256 0xCE 0xAE 0x29 PUSH16 0xD22B50C4A3E6789CC1B0B06CB7CDB73F PUSH24 0x6D2726CDA27598687409D364736F6C634300081E00330000 "
		},
		"gasEstimates": {
			"creation": {
				"codeDepositCost": "2366600",
				"executionCost": "infinite",
				"totalCost": "infinite"
			},
			"external": {
				"AUCTION_DROP_INTERVAL()": "392",
				"AUCTION_DROP_PER_STEP()": "infinite",
				"AUCTION_END_PRICE()": "392",
				"AUCTION_START_PRICE()": "393",
				"AUCTION_TIME()": "369",
				"COLLECTION_SIZE()": "414",
				"approve(address,uint256)": "31580",
				"auctionMint(uint256)": "infinite",
				"auctionStartTime()": "2513",
				"balanceOf(address)": "2974",
				"getApproved(uint256)": "5143",
				"getAuctionPrice()": "infinite",
				"isApprovedForAll(address,address)": "infinite",
				"name()": "infinite",
				"owner()": "2604",
				"ownerOf(uint256)": "3027",
				"renounceOwnership()": "infinite",
				"safeTransferFrom(address,address,uint256)": "infinite",
				"safeTransferFrom(address,address,uint256,bytes)": "infinite",
				"setApprovalForAll(address,bool)": "infinite",
				"setAuctionStartTime(uint32)": "infinite",
				"supportsInterface(bytes4)": "768",
				"symbol()": "infinite",
				"tokenURI(uint256)": "infinite",
				"totalSupply()": "2530",
				"transferFrom(address,address,uint256)": "infinite",
				"transferOwnership(address)": "infinite",
				"withdrawMoney()": "infinite"
			},
			"internal": {
				"_addTokenToAllTokensEnumeration(uint256)": "46434"
			}
		},
		"methodIdentifiers": {
			"AUCTION_DROP_INTERVAL()": "5cae01d3",
			"AUCTION_DROP_PER_STEP()": "59f369fe",
			"AUCTION_END_PRICE()": "caf8a6d1",
			"AUCTION_START_PRICE()": "7a1c4a56",
			"AUCTION_TIME()": "e592301a",
			"COLLECTION_SIZE()": "d8258d95",
			"approve(address,uint256)": "095ea7b3",
			"auctionMint(uint256)": "4d3554c3",
			"auctionStartTime()": "eb54f9ec",
			"balanceOf(address)": "70a08231",
			"getApproved(uint256)": "081812fc",
			"getAuctionPrice()": "4bd25c6f",
			"isApprovedForAll(address,address)": "e985e9c5",
			"name()": "06fdde03",
			"owner()": "8da5cb5b",
			"ownerOf(uint256)": "6352211e",
			"renounceOwnership()": "715018a6",
			"safeTransferFrom(address,address,uint256)": "42842e0e",
			"safeTransferFrom(address,address,uint256,bytes)": "b88d4fde",
			"setApprovalForAll(address,bool)": "a22cb465",
			"setAuctionStartTime(uint32)": "0697346f",
			"supportsInterface(bytes4)": "01ffc9a7",
			"symbol()": "95d89b41",
			"tokenURI(uint256)": "c87b56dd",
			"totalSupply()": "18160ddd",
			"transferFrom(address,address,uint256)": "23b872dd",
			"transferOwnership(address)": "f2fde38b",
			"withdrawMoney()": "ac446002"
		}
	},
	"abi": [
		{
			"inputs": [],
			"stateMutability": "nonpayable",
			"type": "constructor"
		},
		{
			"inputs": [
				{
					"internalType": "address",
					"name": "receiver",
					"type": "address"
				}
			],
			"name": "ERC721InvalidReceiver",
			"type": "error"
		},
		{
			"inputs": [
				{
					"internalType": "address",
					"name": "owner",
					"type": "address"
				}
			],
			"name": "OwnableInvalidOwner",
			"type": "error"
		},
		{
			"inputs": [
				{
					"internalType": "address",
					"name": "account",
					"type": "address"
				}
			],
			"name": "OwnableUnauthorizedAccount",
			"type": "error"
		},
		{
			"anonymous": false,
			"inputs": [
				{
					"indexed": true,
					"internalType": "address",
					"name": "owner",
					"type": "address"
				},
				{
					"indexed": true,
					"internalType": "address",
					"name": "approved",
					"type": "address"
				},
				{
					"indexed": true,
					"internalType": "uint256",
					"name": "tokenId",
					"type": "uint256"
				}
			],
			"name": "Approval",
			"type": "event"
		},
		{
			"anonymous": false,
			"inputs": [
				{
					"indexed": true,
					"internalType": "address",
					"name": "owner",
					"type": "address"
				},
				{
					"indexed": true,
					"internalType": "address",
					"name": "operator",
					"type": "address"
				},
				{
					"indexed": false,
					"internalType": "bool",
					"name": "approved",
					"type": "bool"
				}
			],
			"name": "ApprovalForAll",
			"type": "event"
		},
		{
			"anonymous": false,
			"inputs": [
				{
					"indexed": true,
					"internalType": "address",
					"name": "previousOwner",
					"type": "address"
				},
				{
					"indexed": true,
					"internalType": "address",
					"name": "newOwner",
					"type": "address"
				}
			],
			"name": "OwnershipTransferred",
			"type": "event"
		},
		{
			"anonymous": false,
			"inputs": [
				{
					"indexed": true,
					"internalType": "address",
					"name": "from",
					"type": "address"
				},
				{
					"indexed": true,
					"internalType": "address",
					"name": "to",
					"type": "address"
				},
				{
					"indexed": true,
					"internalType": "uint256",
					"name": "tokenId",
					"type": "uint256"
				}
			],
			"name": "Transfer",
			"type": "event"
		},
		{
			"inputs": [],
			"name": "AUCTION_DROP_INTERVAL",
			"outputs": [
				{
					"internalType": "uint256",
					"name": "",
					"type": "uint256"
				}
			],
			"stateMutability": "view",
			"type": "function"
		},
		{
			"inputs": [],
			"name": "AUCTION_DROP_PER_STEP",
			"outputs": [
				{
					"internalType": "uint256",
					"name": "",
					"type": "uint256"
				}
			],
			"stateMutability": "view",
			"type": "function"
		},
		{
			"inputs": [],
			"name": "AUCTION_END_PRICE",
			"outputs": [
				{
					"internalType": "uint256",
					"name": "",
					"type": "uint256"
				}
			],
			"stateMutability": "view",
			"type": "function"
		},
		{
			"inputs": [],
			"name": "AUCTION_START_PRICE",
			"outputs": [
				{
					"internalType": "uint256",
					"name": "",
					"type": "uint256"
				}
			],
			"stateMutability": "view",
			"type": "function"
		},
		{
			"inputs": [],
			"name": "AUCTION_TIME",
			"outputs": [
				{
					"internalType": "uint256",
					"name": "",
					"type": "uint256"
				}
			],
			"stateMutability": "view",
			"type": "function"
		},
		{
			"inputs": [],
			"name": "COLLECTION_SIZE",
			"outputs": [
				{
					"internalType": "uint256",
					"name": "",
					"type": "uint256"
				}
			],
			"stateMutability": "view",
			"type": "function"
		},
		{
			"inputs": [
				{
					"internalType": "address",
					"name": "to",
					"type": "address"
				},
				{
					"internalType": "uint256",
					"name": "tokenId",
					"type": "uint256"
				}
			],
			"name": "approve",
			"outputs": [],
			"stateMutability": "nonpayable",
			"type": "function"
		},
		{
			"inputs": [
				{
					"internalType": "uint256",
					"name": "quantity",
					"type": "uint256"
				}
			],
			"name": "auctionMint",
			"outputs": [],
			"stateMutability": "payable",
			"type": "function"
		},
		{
			"inputs": [],
			"name": "auctionStartTime",
			"outputs": [
				{
					"internalType": "uint256",
					"name": "",
					"type": "uint256"
				}
			],
			"stateMutability": "view",
			"type": "function"
		},
		{
			"inputs": [
				{
					"internalType": "address",
					"name": "owner",
					"type": "address"
				}
			],
			"name": "balanceOf",
			"outputs": [
				{
					"internalType": "uint256",
					"name": "",
					"type": "uint256"
				}
			],
			"stateMutability": "view",
			"type": "function"
		},
		{
			"inputs": [
				{
					"internalType": "uint256",
					"name": "tokenId",
					"type": "uint256"
				}
			],
			"name": "getApproved",
			"outputs": [
				{
					"internalType": "address",
					"name": "",
					"type": "address"
				}
			],
			"stateMutability": "view",
			"type": "function"
		},
		{
			"inputs": [],
			"name": "getAuctionPrice",
			"outputs": [
				{
					"internalType": "uint256",
					"name": "",
					"type": "uint256"
				}
			],
			"stateMutability": "view",
			"type": "function"
		},
		{
			"inputs": [
				{
					"internalType": "address",
					"name": "owner",
					"type": "address"
				},
				{
					"internalType": "address",
					"name": "operator",
					"type": "address"
				}
			],
			"name": "isApprovedForAll",
			"outputs": [
				{
					"internalType": "bool",
					"name": "",
					"type": "bool"
				}
			],
			"stateMutability": "view",
			"type": "function"
		},
		{
			"inputs": [],
			"name": "name",
			"outputs": [
				{
					"internalType": "string",
					"name": "",
					"type": "string"
				}
			],
			"stateMutability": "view",
			"type": "function"
		},
		{
			"inputs": [],
			"name": "owner",
			"outputs": [
				{
					"internalType": "address",
					"name": "",
					"type": "address"
				}
			],
			"stateMutability": "view",
			"type": "function"
		},
		{
			"inputs": [
				{
					"internalType": "uint256",
					"name": "tokenId",
					"type": "uint256"
				}
			],
			"name": "ownerOf",
			"outputs": [
				{
					"internalType": "address",
					"name": "owner",
					"type": "address"
				}
			],
			"stateMutability": "view",
			"type": "function"
		},
		{
			"inputs": [],
			"name": "renounceOwnership",
			"outputs": [],
			"stateMutability": "nonpayable",
			"type": "function"
		},
		{
			"inputs": [
				{
					"internalType": "address",
					"name": "from",
					"type": "address"
				},
				{
					"internalType": "address",
					"name": "to",
					"type": "address"
				},
				{
					"internalType": "uint256",
					"name": "tokenId",
					"type": "uint256"
				}
			],
			"name": "safeTransferFrom",
			"outputs": [],
			"stateMutability": "nonpayable",
			"type": "function"
		},
		{
			"inputs": [
				{
					"internalType": "address",
					"name": "from",
					"type": "address"
				},
				{
					"internalType": "address",
					"name": "to",
					"type": "address"
				},
				{
					"internalType": "uint256",
					"name": "tokenId",
					"type": "uint256"
				},
				{
					"internalType": "bytes",
					"name": "_data",
					"type": "bytes"
				}
			],
			"name": "safeTransferFrom",
			"outputs": [],
			"stateMutability": "nonpayable",
			"type": "function"
		},
		{
			"inputs": [
				{
					"internalType": "address",
					"name": "operator",
					"type": "address"
				},
				{
					"internalType": "bool",
					"name": "approved",
					"type": "bool"
				}
			],
			"name": "setApprovalForAll",
			"outputs": [],
			"stateMutability": "nonpayable",
			"type": "function"
		},
		{
			"inputs": [
				{
					"internalType": "uint32",
					"name": "timestamp",
					"type": "uint32"
				}
			],
			"name": "setAuctionStartTime",
			"outputs": [],
			"stateMutability": "nonpayable",
			"type": "function"
		},
		{
			"inputs": [
				{
					"internalType": "bytes4",
					"name": "interfaceId",
					"type": "bytes4"
				}
			],
			"name": "supportsInterface",
			"outputs": [
				{
					"internalType": "bool",
					"name": "",
					"type": "bool"
				}
			],
			"stateMutability": "pure",
			"type": "function"
		},
		{
			"inputs": [],
			"name": "symbol",
			"outputs": [
				{
					"internalType": "string",
					"name": "",
					"type": "string"
				}
			],
			"stateMutability": "view",
			"type": "function"
		},
		{
			"inputs": [
				{
					"internalType": "uint256",
					"name": "tokenId",
					"type": "uint256"
				}
			],
			"name": "tokenURI",
			"outputs": [
				{
					"internalType": "string",
					"name": "",
					"type": "string"
				}
			],
			"stateMutability": "view",
			"type": "function"
		},
		{
			"inputs": [],
			"name": "totalSupply",
			"outputs": [
				{
					"internalType": "uint256",
					"name": "",
					"type": "uint256"
				}
			],
			"stateMutability": "view",
			"type": "function"
		},
		{
			"inputs": [
				{
					"internalType": "address",
					"name": "from",
					"type": "address"
				},
				{
					"internalType": "address",
					"name": "to",
					"type": "address"
				},
				{
					"internalType": "uint256",
					"name": "tokenId",
					"type": "uint256"
				}
			],
			"name": "transferFrom",
			"outputs": [],
			"stateMutability": "nonpayable",
			"type": "function"
		},
		{
			"inputs": [
				{
					"internalType": "address",
					"name": "newOwner",
					"type": "address"
				}
			],
			"name": "transferOwnership",
			"outputs": [],
			"stateMutability": "nonpayable",
			"type": "function"
		},
		{
			"inputs": [],
			"name": "withdrawMoney",
			"outputs": [],
			"stateMutability": "nonpayable",
			"type": "function"
		}
	]
}