{
	"data": {
		"bytecode": {
			"linkReferences": {
				"contracts/SignatureNFT.sol": {
					"ECDSA": [
						{
							"length": 20,
							"start": 4089
						}
					]
				}
			},
			"object": "60a060405234801561000f575f5ffd5b50604051612f92380380612f9283398181016040528101906100319190610237565b8282815f908161004191906104cf565b50806001908161005191906104cf565b5050508073ffffffffffffffffffffffffffffffffffffffff1660808173ffffffffffffffffffffffffffffffffffffffff168152505050505061059e565b5f604051905090565b5f5ffd5b5f5ffd5b5f5ffd5b5f5ffd5b5f601f19601f8301169050919050565b7f4e487b71000000000000000000000000000000000000000000000000000000005f52604160045260245ffd5b6100ef826100a9565b810181811067ffffffffffffffff8211171561010e5761010d6100b9565b5b80604052505050565b5f610120610090565b905061012c82826100e6565b919050565b5f67ffffffffffffffff82111561014b5761014a6100b9565b5b610154826100a9565b9050602081019050919050565b8281835e5f83830152505050565b5f61018161017c84610131565b610117565b90508281526020810184848401111561019d5761019c6100a5565b5b6101a8848285610161565b509392505050565b5f82601f8301126101c4576101c36100a1565b5b81516101d484826020860161016f565b91505092915050565b5f73ffffffffffffffffffffffffffffffffffffffff82169050919050565b5f610206826101dd565b9050919050565b610216816101fc565b8114610220575f5ffd5b50565b5f815190506102318161020d565b92915050565b5f5f5f6060848603121561024e5761024d610099565b5b5f84015167ffffffffffffffff81111561026b5761026a61009d565b5b610277868287016101b0565b935050602084015167ffffffffffffffff8111156102985761029761009d565b5b6102a4868287016101b0565b92505060406102b586828701610223565b9150509250925092565b5f81519050919050565b7f4e487b71000000000000000000000000000000000000000000000000000000005f52602260045260245ffd5b5f600282049050600182168061030d57607f821691505b6020821081036103205761031f6102c9565b5b50919050565b5f819050815f5260205f209050919050565b5f6020601f8301049050919050565b5f82821b905092915050565b5f600883026103827fffffffffffffffffffffffffffffffffffffffffffffffffffffffffffffffff82610347565b61038c8683610347565b95508019841693508086168417925050509392505050565b5f819050919050565b5f819050919050565b5f6103d06103cb6103c6846103a4565b6103ad565b6103a4565b9050919050565b5f819050919050565b6103e9836103b6565b6103fd6103f5826103d7565b848454610353565b825550505050565b5f5f905090565b610414610405565b61041f8184846103e0565b505050565b5b81811015610442576104375f8261040c565b600181019050610425565b5050565b601f8211156104875761045881610326565b61046184610338565b81016020851015610470578190505b61048461047c85610338565b830182610424565b50505b505050565b5f82821c905092915050565b5f6104a75f198460080261048c565b1980831691505092915050565b5f6104bf8383610498565b9150826002028217905092915050565b6104d8826102bf565b67ffffffffffffffff8111156104f1576104f06100b9565b5b6104fb82546102f6565b610506828285610446565b5f60209050601f831160018114610537575f8415610525578287015190505b61052f85826104b4565b865550610596565b601f19841661054586610326565b5f5b8281101561056c57848901518255600182019150602085019450602081019050610547565b868310156105895784890151610585601f891682610498565b8355505b6001600288020188555050505b505050505050565b6080516129d56105bd5f395f81816107a5015261083701526129d55ff3fe608060405234801561000f575f5ffd5b5060043610610114575f3560e01c8063630303c6116100a057806395d89b411161006f57806395d89b4114610314578063a22cb46514610332578063b88d4fde1461034e578063c87b56dd1461036a578063e985e9c51461039a57610114565b8063630303c6146102685780636352211e1461029857806370a08231146102c857806394d008ef146102f857610114565b8063238ac933116100e7578063238ac933146101b257806323b872dd146101d0578063258ae582146101ec57806342842e0e1461021c578063512c91df1461023857610114565b806301ffc9a71461011857806306fdde0314610148578063081812fc14610166578063095ea7b314610196575b5f5ffd5b610132600480360381019061012d9190611a1f565b6103ca565b60405161013f9190611a64565b60405180910390f35b610150610503565b60405161015d9190611aed565b60405180910390f35b610180600480360381019061017b9190611b40565b61058e565b60405161018d9190611baa565b60405180910390f35b6101b060048036038101906101ab9190611bed565b610665565b005b6101ba6107a3565b6040516101c79190611baa565b60405180910390f35b6101ea60048036038101906101e59190611c2b565b6107c7565b005b61020660048036038101906102019190611dda565b61082f565b6040516102139190611a64565b60405180910390f35b61023660048036038101906102319190611c2b565b610863565b005b610252600480360381019061024d9190611bed565b610882565b60405161025f9190611e43565b60405180910390f35b610282600480360381019061027d9190611e5c565b6108b4565b60405161028f9190611a64565b60405180910390f35b6102b260048036038101906102ad9190611b40565b6108d1565b6040516102bf9190611baa565b60405180910390f35b6102e260048036038101906102dd9190611e5c565b610978565b6040516102ef9190611e96565b60405180910390f35b610312600480360381019061030d9190611eaf565b610a2c565b005b61031c610beb565b6040516103299190611aed565b60405180910390f35b61034c60048036038101906103479190611f45565b610c77565b005b61036860048036038101906103639190611f83565b610d6f565b005b610384600480360381019061037f9190611b40565b610dd9565b6040516103919190611aed565b60405180910390f35b6103b460048036038101906103af9190612003565b610ed3565b6040516103c19190611a64565b60405180910390f35b5f7f80ac58cd000000000000000000000000000000000000000000000000000000007bffffffffffffffffffffffffffffffffffffffffffffffffffffffff1916827bffffffffffffffffffffffffffffffffffffffffffffffffffffffff1916148061049457507f01ffc9a7000000000000000000000000000000000000000000000000000000007bffffffffffffffffffffffffffffffffffffffffffffffffffffffff1916827bffffffffffffffffffffffffffffffffffffffffffffffffffffffff1916145b806104fc57507f5b5e139f000000000000000000000000000000000000000000000000000000007bffffffffffffffffffffffffffffffffffffffffffffffffffffffff1916827bffffffffffffffffffffffffffffffffffffffffffffffffffffffff1916145b9050919050565b5f805461050f9061206e565b80601f016020809104026020016040519081016040528092919081815260200182805461053b9061206e565b80156105865780601f1061055d57610100808354040283529160200191610586565b820191905f5260205f20905b81548152906001019060200180831161056957829003601f168201915b505050505081565b5f5f73ffffffffffffffffffffffffffffffffffffffff1660025f8481526020019081526020015f205f9054906101000a900473ffffffffffffffffffffffffffffffffffffffff1673ffffffffffffffffffffffffffffffffffffffff160361062d576040517f08c379a0000000000000000000000000000000000000000000000000000000008152600401610624906120e8565b60405180910390fd5b60045f8381526020019081526020015f205f9054906101000a900473ffffffffffffffffffffffffffffffffffffffff169050919050565b5f60025f8381526020019081526020015f205f9054906101000a900473ffffffffffffffffffffffffffffffffffffffff1690508073ffffffffffffffffffffffffffffffffffffffff163373ffffffffffffffffffffffffffffffffffffffff161480610754575060055f8273ffffffffffffffffffffffffffffffffffffffff1673ffffffffffffffffffffffffffffffffffffffff1681526020019081526020015f205f3373ffffffffffffffffffffffffffffffffffffffff1673ffffffffffffffffffffffffffffffffffffffff1681526020019081526020015f205f9054906101000a900460ff165b610793576040517f08c379a000000000000000000000000000000000000000000000000000000000815260040161078a90612150565b60405180910390fd5b61079e818484610f61565b505050565b7f000000000000000000000000000000000000000000000000000000000000000081565b5f6107d1826108d1565b90506107de813384611010565b61081d576040517f08c379a0000000000000000000000000000000000000000000000000000000008152600401610814906121b8565b60405180910390fd5b6108298185858561113b565b50505050565b5f61085b83837f000000000000000000000000000000000000000000000000000000000000000061137a565b905092915050565b61087d83838360405180602001604052805f815250610d6f565b505050565b5f828260405160200161089692919061223b565b60405160208183030381529060405280519060200120905092915050565b6006602052805f5260405f205f915054906101000a900460ff1681565b5f60025f8381526020019081526020015f205f9054906101000a900473ffffffffffffffffffffffffffffffffffffffff1690505f73ffffffffffffffffffffffffffffffffffffffff168173ffffffffffffffffffffffffffffffffffffffff1603610973576040517f08c379a000000000000000000000000000000000000000000000000000000000815260040161096a906120e8565b60405180910390fd5b919050565b5f5f73ffffffffffffffffffffffffffffffffffffffff168273ffffffffffffffffffffffffffffffffffffffff16036109e7576040517f08c379a00000000000000000000000000000000000000000000000000000000081526004016109de906122b0565b60405180910390fd5b60035f8373ffffffffffffffffffffffffffffffffffffffff1673ffffffffffffffffffffffffffffffffffffffff1681526020019081526020015f20549050919050565b5f610a378484610882565b90505f73__$a45711a0e754c5f0a97d07d1ffe96df9ea$__63918a15cf836040518263ffffffff1660e01b8152600401610a7191906122dd565b602060405180830381865af4158015610a8c573d5f5f3e3d5ffd5b505050506040513d601f19601f82011682018060405250810190610ab0919061230a565b9050610abc818461082f565b610afb576040517f08c379a0000000000000000000000000000000000000000000000000000000008152600401610af29061237f565b60405180910390fd5b60065f8673ffffffffffffffffffffffffffffffffffffffff1673ffffffffffffffffffffffffffffffffffffffff1681526020019081526020015f205f9054906101000a900460ff1615610b85576040517f08c379a0000000000000000000000000000000000000000000000000000000008152600401610b7c906123e7565b60405180910390fd5b610b8f85856113bc565b600160065f8773ffffffffffffffffffffffffffffffffffffffff1673ffffffffffffffffffffffffffffffffffffffff1681526020019081526020015f205f6101000a81548160ff0219169083151502179055505050505050565b60018054610bf89061206e565b80601f0160208091040260200160405190810160405280929190818152602001828054610c249061206e565b8015610c6f5780601f10610c4657610100808354040283529160200191610c6f565b820191905f5260205f20905b815481529060010190602001808311610c5257829003601f168201915b505050505081565b8060055f3373ffffffffffffffffffffffffffffffffffffffff1673ffffffffffffffffffffffffffffffffffffffff1681526020019081526020015f205f8473ffffffffffffffffffffffffffffffffffffffff1673ffffffffffffffffffffffffffffffffffffffff1681526020019081526020015f205f6101000a81548160ff0219169083151502179055508173ffffffffffffffffffffffffffffffffffffffff163373ffffffffffffffffffffffffffffffffffffffff167f17307eab39ab6107e8899845ad3d59bd9653f200f220920489ca2b5937696c3183604051610d639190611a64565b60405180910390a35050565b5f610d79836108d1565b9050610d86813385611010565b610dc5576040517f08c379a0000000000000000000000000000000000000000000000000000000008152600401610dbc906121b8565b60405180910390fd5b610dd281868686866115ca565b5050505050565b60605f73ffffffffffffffffffffffffffffffffffffffff1660025f8481526020019081526020015f205f9054906101000a900473ffffffffffffffffffffffffffffffffffffffff1673ffffffffffffffffffffffffffffffffffffffff1603610e79576040517f08c379a0000000000000000000000000000000000000000000000000000000008152600401610e709061244f565b60405180910390fd5b5f610e826115e9565b90505f815111610ea05760405180602001604052805f815250610ecb565b80610eaa846115ff565b604051602001610ebb9291906124a7565b6040516020818303038152906040525b915050919050565b5f60055f8473ffffffffffffffffffffffffffffffffffffffff1673ffffffffffffffffffffffffffffffffffffffff1681526020019081526020015f205f8373ffffffffffffffffffffffffffffffffffffffff1673ffffffffffffffffffffffffffffffffffffffff1681526020019081526020015f205f9054906101000a900460ff16905092915050565b8160045f8381526020019081526020015f205f6101000a81548173ffffffffffffffffffffffffffffffffffffffff021916908373ffffffffffffffffffffffffffffffffffffffff160217905550808273ffffffffffffffffffffffffffffffffffffffff168473ffffffffffffffffffffffffffffffffffffffff167f8c5be1e5ebec7d5bd14f71427d1e84f3dd0314c0f7b2291e5b200ac8c7c3b92560405160405180910390a4505050565b5f8373ffffffffffffffffffffffffffffffffffffffff168373ffffffffffffffffffffffffffffffffffffffff1614806110a657508273ffffffffffffffffffffffffffffffffffffffff1660045f8481526020019081526020015f205f9054906101000a900473ffffffffffffffffffffffffffffffffffffffff1673ffffffffffffffffffffffffffffffffffffffff16145b80611132575060055f8573ffffffffffffffffffffffffffffffffffffffff1673ffffffffffffffffffffffffffffffffffffffff1681526020019081526020015f205f8473ffffffffffffffffffffffffffffffffffffffff1673ffffffffffffffffffffffffffffffffffffffff1681526020019081526020015f205f9054906101000a900460ff165b90509392505050565b8373ffffffffffffffffffffffffffffffffffffffff168373ffffffffffffffffffffffffffffffffffffffff16146111a9576040517f08c379a00000000000000000000000000000000000000000000000000000000081526004016111a090612514565b60405180910390fd5b5f73ffffffffffffffffffffffffffffffffffffffff168273ffffffffffffffffffffffffffffffffffffffff1603611217576040517f08c379a000000000000000000000000000000000000000000000000000000000815260040161120e9061257c565b60405180910390fd5b611222845f83610f61565b600160035f8573ffffffffffffffffffffffffffffffffffffffff1673ffffffffffffffffffffffffffffffffffffffff1681526020019081526020015f205f82825461126f91906125c7565b92505081905550600160035f8473ffffffffffffffffffffffffffffffffffffffff1673ffffffffffffffffffffffffffffffffffffffff1681526020019081526020015f205f8282546112c391906125fa565b925050819055508160025f8381526020019081526020015f205f6101000a81548173ffffffffffffffffffffffffffffffffffffffff021916908373ffffffffffffffffffffffffffffffffffffffff160217905550808273ffffffffffffffffffffffffffffffffffffffff168473ffffffffffffffffffffffffffffffffffffffff167fddf252ad1be2c89b69c2b068fc378daa952ba7f163c4a11628f55a4df523b3ef60405160405180910390a450505050565b5f8173ffffffffffffffffffffffffffffffffffffffff1661139c8585611758565b73ffffffffffffffffffffffffffffffffffffffff161490509392505050565b5f73ffffffffffffffffffffffffffffffffffffffff168273ffffffffffffffffffffffffffffffffffffffff160361142a576040517f08c379a000000000000000000000000000000000000000000000000000000000815260040161142190612677565b60405180910390fd5b5f73ffffffffffffffffffffffffffffffffffffffff1660025f8381526020019081526020015f205f9054906101000a900473ffffffffffffffffffffffffffffffffffffffff1673ffffffffffffffffffffffffffffffffffffffff16146114c8576040517f08c379a00000000000000000000000000000000000000000000000000000000081526004016114bf906126df565b60405180910390fd5b600160035f8473ffffffffffffffffffffffffffffffffffffffff1673ffffffffffffffffffffffffffffffffffffffff1681526020019081526020015f205f82825461151591906125fa565b925050819055508160025f8381526020019081526020015f205f6101000a81548173ffffffffffffffffffffffffffffffffffffffff021916908373ffffffffffffffffffffffffffffffffffffffff160217905550808273ffffffffffffffffffffffffffffffffffffffff165f73ffffffffffffffffffffffffffffffffffffffff167fddf252ad1be2c89b69c2b068fc378daa952ba7f163c4a11628f55a4df523b3ef60405160405180910390a45050565b6115d68585858561113b565b6115e28484848461180e565b5050505050565b606060405180602001604052805f815250905090565b60605f8203611645576040518060400160405280600181526020017f30000000000000000000000000000000000000000000000000000000000000008152509050611753565b5f8290505f5b5f821461167457808061165d906126fd565b915050600a8261166d9190612771565b915061164b565b5f8167ffffffffffffffff81111561168f5761168e611cb6565b5b6040519080825280601f01601f1916602001820160405280156116c15781602001600182028036833780820191505090505b5090505b5f851461174c576001826116d991906125c7565b9150600a856116e891906127a1565b60306116f491906125fa565b60f81b81838151811061170a576117096127d1565b5b60200101907effffffffffffffffffffffffffffffffffffffffffffffffffffffffffffff191690815f1a905350600a856117459190612771565b94506116c5565b8093505050505b919050565b5f604182511461179d576040517f08c379a000000000000000000000000000000000000000000000000000000000815260040161179490612848565b60405180910390fd5b5f5f5f602085015192506040850151915060608501515f1a90506001868285856040515f81526020016040526040516117d99493929190612881565b6020604051602081039080840390855afa1580156117f9573d5f5f3e3d5ffd5b50505060206040510351935050505092915050565b5f8373ffffffffffffffffffffffffffffffffffffffff163b11156119b3578273ffffffffffffffffffffffffffffffffffffffff1663150b7a02338685856040518563ffffffff1660e01b815260040161186c9493929190612916565b6020604051808303815f875af19250505080156118a757506040513d601f19601f820116820180604052508101906118a49190612974565b60015b611928573d805f81146118d5576040519150601f19603f3d011682016040523d82523d5f602084013e6118da565b606091505b505f81510361192057836040517f64a0ae920000000000000000000000000000000000000000000000000000000081526004016119179190611baa565b60405180910390fd5b805181602001fd5b63150b7a0260e01b7bffffffffffffffffffffffffffffffffffffffffffffffffffffffff1916817bffffffffffffffffffffffffffffffffffffffffffffffffffffffff1916146119b157836040517f64a0ae920000000000000000000000000000000000000000000000000000000081526004016119a89190611baa565b60405180910390fd5b505b50505050565b5f604051905090565b5f5ffd5b5f5ffd5b5f7fffffffff0000000000000000000000000000000000000000000000000000000082169050919050565b6119fe816119ca565b8114611a08575f5ffd5b50565b5f81359050611a19816119f5565b92915050565b5f60208284031215611a3457611a336119c2565b5b5f611a4184828501611a0b565b91505092915050565b5f8115159050919050565b611a5e81611a4a565b82525050565b5f602082019050611a775f830184611a55565b92915050565b5f81519050919050565b5f82825260208201905092915050565b8281835e5f83830152505050565b5f601f19601f8301169050919050565b5f611abf82611a7d565b611ac98185611a87565b9350611ad9818560208601611a97565b611ae281611aa5565b840191505092915050565b5f6020820190508181035f830152611b058184611ab5565b905092915050565b5f819050919050565b611b1f81611b0d565b8114611b29575f5ffd5b50565b5f81359050611b3a81611b16565b92915050565b5f60208284031215611b5557611b546119c2565b5b5f611b6284828501611b2c565b91505092915050565b5f73ffffffffffffffffffffffffffffffffffffffff82169050919050565b5f611b9482611b6b565b9050919050565b611ba481611b8a565b82525050565b5f602082019050611bbd5f830184611b9b565b92915050565b611bcc81611b8a565b8114611bd6575f5ffd5b50565b5f81359050611be781611bc3565b92915050565b5f5f60408385031215611c0357611c026119c2565b5b5f611c1085828601611bd9565b9250506020611c2185828601611b2c565b9150509250929050565b5f5f5f60608486031215611c4257611c416119c2565b5b5f611c4f86828701611bd9565b9350506020611c6086828701611bd9565b9250506040611c7186828701611b2c565b9150509250925092565b5f819050919050565b611c8d81611c7b565b8114611c97575f5ffd5b50565b5f81359050611ca881611c84565b92915050565b5f5ffd5b5f5ffd5b7f4e487b71000000000000000000000000000000000000000000000000000000005f52604160045260245ffd5b611cec82611aa5565b810181811067ffffffffffffffff82111715611d0b57611d0a611cb6565b5b80604052505050565b5f611d1d6119b9565b9050611d298282611ce3565b919050565b5f67ffffffffffffffff821115611d4857611d47611cb6565b5b611d5182611aa5565b9050602081019050919050565b828183375f83830152505050565b5f611d7e611d7984611d2e565b611d14565b905082815260208101848484011115611d9a57611d99611cb2565b5b611da5848285611d5e565b509392505050565b5f82601f830112611dc157611dc0611cae565b5b8135611dd1848260208601611d6c565b91505092915050565b5f5f60408385031215611df057611def6119c2565b5b5f611dfd85828601611c9a565b925050602083013567ffffffffffffffff811115611e1e57611e1d6119c6565b5b611e2a85828601611dad565b9150509250929050565b611e3d81611c7b565b82525050565b5f602082019050611e565f830184611e34565b92915050565b5f60208284031215611e7157611e706119c2565b5b5f611e7e84828501611bd9565b91505092915050565b611e9081611b0d565b82525050565b5f602082019050611ea95f830184611e87565b92915050565b5f5f5f60608486031215611ec657611ec56119c2565b5b5f611ed386828701611bd9565b9350506020611ee486828701611b2c565b925050604084013567ffffffffffffffff811115611f0557611f046119c6565b5b611f1186828701611dad565b9150509250925092565b611f2481611a4a565b8114611f2e575f5ffd5b50565b5f81359050611f3f81611f1b565b92915050565b5f5f60408385031215611f5b57611f5a6119c2565b5b5f611f6885828601611bd9565b9250506020611f7985828601611f31565b9150509250929050565b5f5f5f5f60808587031215611f9b57611f9a6119c2565b5b5f611fa887828801611bd9565b9450506020611fb987828801611bd9565b9350506040611fca87828801611b2c565b925050606085013567ffffffffffffffff811115611feb57611fea6119c6565b5b611ff787828801611dad565b91505092959194509250565b5f5f60408385031215612019576120186119c2565b5b5f61202685828601611bd9565b925050602061203785828601611bd9565b9150509250929050565b7f4e487b71000000000000000000000000000000000000000000000000000000005f52602260045260245ffd5b5f600282049050600182168061208557607f821691505b60208210810361209857612097612041565b5b50919050565b7f746f6b656e20646f65736e2774206578697374000000000000000000000000005f82015250565b5f6120d2601383611a87565b91506120dd8261209e565b602082019050919050565b5f6020820190508181035f8301526120ff816120c6565b9050919050565b7f6e6f74206f776e6572206e6f7220617070726f76656420666f7220616c6c00005f82015250565b5f61213a601e83611a87565b915061214582612106565b602082019050919050565b5f6020820190508181035f8301526121678161212e565b9050919050565b7f6e6f74206f776e6572206e6f7220617070726f766564000000000000000000005f82015250565b5f6121a2601683611a87565b91506121ad8261216e565b602082019050919050565b5f6020820190508181035f8301526121cf81612196565b9050919050565b5f8160601b9050919050565b5f6121ec826121d6565b9050919050565b5f6121fd826121e2565b9050919050565b61221561221082611b8a565b6121f3565b82525050565b5f819050919050565b61223561223082611b0d565b61221b565b82525050565b5f6122468285612204565b6014820191506122568284612224565b6020820191508190509392505050565b7f6f776e6572203d207a65726f20616464726573730000000000000000000000005f82015250565b5f61229a601483611a87565b91506122a582612266565b602082019050919050565b5f6020820190508181035f8301526122c78161228e565b9050919050565b6122d781611c7b565b82525050565b5f6020820190506122f05f8301846122ce565b92915050565b5f8151905061230481611c84565b92915050565b5f6020828403121561231f5761231e6119c2565b5b5f61232c848285016122f6565b91505092915050565b7f496e76616c6964207369676e61747572650000000000000000000000000000005f82015250565b5f612369601183611a87565b915061237482612335565b602082019050919050565b5f6020820190508181035f8301526123968161235d565b9050919050565b7f416c7265616479206d696e7465642100000000000000000000000000000000005f82015250565b5f6123d1600f83611a87565b91506123dc8261239d565b602082019050919050565b5f6020820190508181035f8301526123fe816123c5565b9050919050565b7f546f6b656e204e6f7420457869737400000000000000000000000000000000005f82015250565b5f612439600f83611a87565b915061244482612405565b602082019050919050565b5f6020820190508181035f8301526124668161242d565b9050919050565b5f81905092915050565b5f61248182611a7d565b61248b818561246d565b935061249b818560208601611a97565b80840191505092915050565b5f6124b28285612477565b91506124be8284612477565b91508190509392505050565b7f6e6f74206f776e657200000000000000000000000000000000000000000000005f82015250565b5f6124fe600983611a87565b9150612509826124ca565b602082019050919050565b5f6020820190508181035f83015261252b816124f2565b9050919050565b7f7472616e7366657220746f20746865207a65726f2061646472657373000000005f82015250565b5f612566601c83611a87565b915061257182612532565b602082019050919050565b5f6020820190508181035f8301526125938161255a565b9050919050565b7f4e487b71000000000000000000000000000000000000000000000000000000005f52601160045260245ffd5b5f6125d182611b0d565b91506125dc83611b0d565b92508282039050818111156125f4576125f361259a565b5b92915050565b5f61260482611b0d565b915061260f83611b0d565b92508282019050808211156126275761262661259a565b5b92915050565b7f6d696e7420746f207a65726f20616464726573730000000000000000000000005f82015250565b5f612661601483611a87565b915061266c8261262d565b602082019050919050565b5f6020820190508181035f83015261268e81612655565b9050919050565b7f746f6b656e20616c7265616479206d696e7465640000000000000000000000005f82015250565b5f6126c9601483611a87565b91506126d482612695565b602082019050919050565b5f6020820190508181035f8301526126f6816126bd565b9050919050565b5f61270782611b0d565b91507fffffffffffffffffffffffffffffffffffffffffffffffffffffffffffffffff82036127395761273861259a565b5b600182019050919050565b7f4e487b71000000000000000000000000000000000000000000000000000000005f52601260045260245ffd5b5f61277b82611b0d565b915061278683611b0d565b92508261279657612795612744565b5b828204905092915050565b5f6127ab82611b0d565b91506127b683611b0d565b9250826127c6576127c5612744565b5b828206905092915050565b7f4e487b71000000000000000000000000000000000000000000000000000000005f52603260045260245ffd5b7f696e76616c6964207369676e6174757265206c656e67746800000000000000005f82015250565b5f612832601883611a87565b915061283d826127fe565b602082019050919050565b5f6020820190508181035f83015261285f81612826565b9050919050565b5f60ff82169050919050565b61287b81612866565b82525050565b5f6080820190506128945f830187611e34565b6128a16020830186612872565b6128ae6040830185611e34565b6128bb6060830184611e34565b95945050505050565b5f81519050919050565b5f82825260208201905092915050565b5f6128e8826128c4565b6128f281856128ce565b9350612902818560208601611a97565b61290b81611aa5565b840191505092915050565b5f6080820190506129295f830187611b9b565b6129366020830186611b9b565b6129436040830185611e87565b818103606083015261295581846128de565b905095945050505050565b5f8151905061296e816119f5565b92915050565b5f60208284031215612989576129886119c2565b5b5f61299684828501612960565b9150509291505056fea264697066735822122012a585f1848024233012d90d14afa334d5b8aba959885dd69b2339786506068464736f6c634300081e0033",
			"opcodes": "PUSH1 0xA0 PUSH1 0x40 MSTORE CALLVALUE DUP1 ISZERO PUSH2 0xF JUMPI PUSH0 PUSH0 REVERT JUMPDEST POP PUSH1 0x40 MLOAD PUSH2 0x2F92 CODESIZE SUB DUP1 PUSH2 0x2F92 DUP4 CODECOPY DUP2 DUP2 ADD PUSH1 0x40 MSTORE DUP2 ADD SWAP1 PUSH2 0x31 SWAP2 SWAP1 PUSH2 0x237 JUMP JUMPDEST DUP3 DUP3 DUP2 PUSH0 SWAP1 DUP2 PUSH2 0x41 SWAP2 SWAP1 PUSH2 0x4CF JUMP JUMPDEST POP DUP1 PUSH1 0x1 SWAP1 DUP2 PUSH2 0x51 SWAP2 SWAP1 PUSH2 0x4CF JUMP JUMPDEST POP POP POP DUP1 PUSH20 0xFFFFFFFFFFFFFFFFFFFFFFFFFFFFFFFFFFFFFFFF AND PUSH1 0x80 DUP2 PUSH20 0xFFFFFFFFFFFFFFFFFFFFFFFFFFFFFFFFFFFFFFFF AND DUP2 MSTORE POP POP POP POP POP PUSH2 0x59E JUMP JUMPDEST PUSH0 PUSH1 0x40 MLOAD SWAP1 POP SWAP1 JUMP JUMPDEST PUSH0 PUSH0 REVERT JUMPDEST PUSH0 PUSH0 REVERT JUMPDEST PUSH0 PUSH0 REVERT JUMPDEST PUSH0 PUSH0 REVERT JUMPDEST PUSH0 PUSH1 0x1F NOT PUSH1 0x1F DUP4 ADD AND SWAP1 POP SWAP2 SWAP1 POP JUMP JUMPDEST PUSH32 0x4E487B7100000000000000000000000000000000000000000000000000000000 PUSH0 MSTORE PUSH1 0x41 PUSH1 0x4 MSTORE PUSH1 0x24 PUSH0 REVERT JUMPDEST PUSH2 0xEF DUP3 PUSH2 0xA9 JUMP JUMPDEST DUP2 ADD DUP2 DUP2 LT PUSH8 0xFFFFFFFFFFFFFFFF DUP3 GT OR ISZERO PUSH2 0x10E JUMPI PUSH2 0x10D PUSH2 0xB9 JUMP JUMPDEST JUMPDEST DUP1 PUSH1 0x40 MSTORE POP POP POP JUMP JUMPDEST PUSH0 PUSH2 0x120 PUSH2 0x90 JUMP JUMPDEST SWAP1 POP PUSH2 0x12C DUP3 DUP3 PUSH2 0xE6 JUMP JUMPDEST SWAP2 SWAP1 POP JUMP JUMPDEST PUSH0 PUSH8 0xFFFFFFFFFFFFFFFF DUP3 GT ISZERO PUSH2 0x14B JUMPI PUSH2 0x14A PUSH2 0xB9 JUMP JUMPDEST JUMPDEST PUSH2 0x154 DUP3 PUSH2 0xA9 JUMP JUMPDEST SWAP1 POP PUSH1 0x20 DUP2 ADD SWAP1 POP SWAP2 SWAP1 POP JUMP JUMPDEST DUP3 DUP2 DUP4 MCOPY PUSH0 DUP4 DUP4 ADD MSTORE POP POP POP JUMP JUMPDEST PUSH0 PUSH2 0x181 PUSH2 0x17C DUP5 PUSH2 0x131 JUMP JUMPDEST PUSH2 0x117 JUMP JUMPDEST SWAP1 POP DUP3 DUP2 MSTORE PUSH1 0x20 DUP2 ADD DUP5 DUP5 DUP5 ADD GT ISZERO PUSH2 0x19D JUMPI PUSH2 0x19C PUSH2 0xA5 JUMP JUMPDEST JUMPDEST PUSH2 0x1A8 DUP5 DUP3 DUP6 PUSH2 0x161 JUMP JUMPDEST POP SWAP4 SWAP3 POP POP POP JUMP JUMPDEST PUSH0 DUP3 PUSH1 0x1F DUP4 ADD SLT PUSH2 0x1C4 JUMPI PUSH2 0x1C3 PUSH2 0xA1 JUMP JUMPDEST JUMPDEST DUP2 MLOAD PUSH2 0x1D4 DUP5 DUP3 PUSH1 0x20 DUP7 ADD PUSH2 0x16F JUMP JUMPDEST SWAP2 POP POP SWAP3 SWAP2 POP POP JUMP JUMPDEST PUSH0 PUSH20 0xFFFFFFFFFFFFFFFFFFFFFFFFFFFFFFFFFFFFFFFF DUP3 AND SWAP1 POP SWAP2 SWAP1 POP JUMP JUMPDEST PUSH0 PUSH2 0x206 DUP3 PUSH2 0x1DD JUMP JUMPDEST SWAP1 POP SWAP2 SWAP1 POP JUMP JUMPDEST PUSH2 0x216 DUP2 PUSH2 0x1FC JUMP JUMPDEST DUP2 EQ PUSH2 0x220 JUMPI PUSH0 PUSH0 REVERT JUMPDEST POP JUMP JUMPDEST PUSH0 DUP2 MLOAD SWAP1 POP PUSH2 0x231 DUP2 PUSH2 0x20D JUMP JUMPDEST SWAP3 SWAP2 POP POP JUMP JUMPDEST PUSH0 PUSH0 PUSH0 PUSH1 0x60 DUP5 DUP7 SUB SLT ISZERO PUSH2 0x24E JUMPI PUSH2 0x24D PUSH2 0x99 JUMP JUMPDEST JUMPDEST PUSH0 DUP5 ADD MLOAD PUSH8 0xFFFFFFFFFFFFFFFF DUP2 GT ISZERO PUSH2 0x26B JUMPI PUSH2 0x26A PUSH2 0x9D JUMP JUMPDEST JUMPDEST PUSH2 0x277 DUP7 DUP3 DUP8 ADD PUSH2 0x1B0 JUMP JUMPDEST SWAP4 POP POP PUSH1 0x20 DUP5 ADD MLOAD PUSH8 0xFFFFFFFFFFFFFFFF DUP2 GT ISZERO PUSH2 0x298 JUMPI PUSH2 0x297 PUSH2 0x9D JUMP JUMPDEST JUMPDEST PUSH2 0x2A4 DUP7 DUP3 DUP8 ADD PUSH2 0x1B0 JUMP JUMPDEST SWAP3 POP POP PUSH1 0x40 PUSH2 0x2B5 DUP7 DUP3 DUP8 ADD PUSH2 0x223 JUMP JUMPDEST SWAP2 POP POP SWAP3 POP SWAP3 POP SWAP3 JUMP JUMPDEST PUSH0 DUP2 MLOAD SWAP1 POP SWAP2 SWAP1 POP JUMP JUMPDEST PUSH32 0x4E487B7100000000000000000000000000000000000000000000000000000000 PUSH0 MSTORE PUSH1 0x22 PUSH1 0x4 MSTORE PUSH1 0x24 PUSH0 REVERT JUMPDEST PUSH0 PUSH1 0x2 DUP3 DIV SWAP1 POP PUSH1 0x1 DUP3 AND DUP1 PUSH2 0x30D JUMPI PUSH1 0x7F DUP3 AND SWAP2 POP JUMPDEST PUSH1 0x20 DUP3 LT DUP2 SUB PUSH2 0x320 JUMPI PUSH2 0x31F PUSH2 0x2C9 JUMP JUMPDEST JUMPDEST POP SWAP2 SWAP1 POP JUMP JUMPDEST PUSH0 DUP2 SWAP1 POP DUP2 PUSH0 MSTORE PUSH1 0x20 PUSH0 KECCAK256 SWAP1 POP SWAP2 SWAP1 POP JUMP JUMPDEST PUSH0 PUSH1 0x20 PUSH1 0x1F DUP4 ADD DIV SWAP1 POP SWAP2 SWAP1 POP JUMP JUMPDEST PUSH0 DUP3 DUP3 SHL SWAP1 POP SWAP3 SWAP2 POP POP JUMP JUMPDEST PUSH0 PUSH1 0x8 DUP4 MUL PUSH2 0x382 PUSH32 0xFFFFFFFFFFFFFFFFFFFFFFFFFFFFFFFFFFFFFFFFFFFFFFFFFFFFFFFFFFFFFFFF DUP3 PUSH2 0x347 JUMP JUMPDEST PUSH2 0x38C DUP7 DUP4 PUSH2 0x347 JUMP JUMPDEST SWAP6 POP DUP1 NOT DUP5 AND SWAP4 POP DUP1 DUP7 AND DUP5 OR SWAP3 POP POP POP SWAP4 SWAP3 POP POP POP JUMP JUMPDEST PUSH0 DUP2 SWAP1 POP SWAP2 SWAP1 POP JUMP JUMPDEST PUSH0 DUP2 SWAP1 POP SWAP2 SWAP1 POP JUMP JUMPDEST PUSH0 PUSH2 0x3D0 PUSH2 0x3CB PUSH2 0x3C6 DUP5 PUSH2 0x3A4 JUMP JUMPDEST PUSH2 0x3AD JUMP JUMPDEST PUSH2 0x3A4 JUMP JUMPDEST SWAP1 POP SWAP2 SWAP1 POP JUMP JUMPDEST PUSH0 DUP2 SWAP1 POP SWAP2 SWAP1 POP JUMP JUMPDEST PUSH2 0x3E9 DUP4 PUSH2 0x3B6 JUMP JUMPDEST PUSH2 0x3FD PUSH2 0x3F5 DUP3 PUSH2 0x3D7 JUMP JUMPDEST DUP5 DUP5 SLOAD PUSH2 0x353 JUMP JUMPDEST DUP3 SSTORE POP POP POP POP JUMP JUMPDEST PUSH0 PUSH0 SWAP1 POP SWAP1 JUMP JUMPDEST PUSH2 0x414 PUSH2 0x405 JUMP JUMPDEST PUSH2 0x41F DUP2 DUP5 DUP5 PUSH2 0x3E0 JUMP JUMPDEST POP POP POP JUMP JUMPDEST JUMPDEST DUP2 DUP2 LT ISZERO PUSH2 0x442 JUMPI PUSH2 0x437 PUSH0 DUP3 PUSH2 0x40C JUMP JUMPDEST PUSH1 0x1 DUP2 ADD SWAP1 POP PUSH2 0x425 JUMP JUMPDEST POP POP JUMP JUMPDEST PUSH1 0x1F DUP3 GT ISZERO PUSH2 0x487 JUMPI PUSH2 0x458 DUP2 PUSH2 0x326 JUMP JUMPDEST PUSH2 0x461 DUP5 PUSH2 0x338 JUMP JUMPDEST DUP2 ADD PUSH1 0x20 DUP6 LT ISZERO PUSH2 0x470 JUMPI DUP2 SWAP1 POP JUMPDEST PUSH2 0x484 PUSH2 0x47C DUP6 PUSH2 0x338 JUMP JUMPDEST DUP4 ADD DUP3 PUSH2 0x424 JUMP JUMPDEST POP POP JUMPDEST POP POP POP JUMP JUMPDEST PUSH0 DUP3 DUP3 SHR SWAP1 POP SWAP3 SWAP2 POP POP JUMP JUMPDEST PUSH0 PUSH2 0x4A7 PUSH0 NOT DUP5 PUSH1 0x8 MUL PUSH2 0x48C JUMP JUMPDEST NOT DUP1 DUP4 AND SWAP2 POP POP SWAP3 SWAP2 POP POP JUMP JUMPDEST PUSH0 PUSH2 0x4BF DUP4 DUP4 PUSH2 0x498 JUMP JUMPDEST SWAP2 POP DUP3 PUSH1 0x2 MUL DUP3 OR SWAP1 POP SWAP3 SWAP2 POP POP JUMP JUMPDEST PUSH2 0x4D8 DUP3 PUSH2 0x2BF JUMP JUMPDEST PUSH8 0xFFFFFFFFFFFFFFFF DUP2 GT ISZERO PUSH2 0x4F1 JUMPI PUSH2 0x4F0 PUSH2 0xB9 JUMP JUMPDEST JUMPDEST PUSH2 0x4FB DUP3 SLOAD PUSH2 0x2F6 JUMP JUMPDEST PUSH2 0x506 DUP3 DUP3 DUP6 PUSH2 0x446 JUMP JUMPDEST PUSH0 PUSH1 0x20 SWAP1 POP PUSH1 0x1F DUP4 GT PUSH1 0x1 DUP2 EQ PUSH2 0x537 JUMPI PUSH0 DUP5 ISZERO PUSH2 0x525 JUMPI DUP3 DUP8 ADD MLOAD SWAP1 POP JUMPDEST PUSH2 0x52F DUP6 DUP3 PUSH2 0x4B4 JUMP JUMPDEST DUP7 SSTORE POP PUSH2 0x596 JUMP JUMPDEST PUSH1 0x1F NOT DUP5 AND PUSH2 0x545 DUP7 PUSH2 0x326 JUMP JUMPDEST PUSH0 JUMPDEST DUP3 DUP2 LT ISZERO PUSH2 0x56C JUMPI DUP5 DUP10 ADD MLOAD DUP3 SSTORE PUSH1 0x1 DUP3 ADD SWAP2 POP PUSH1 0x20 DUP6 ADD SWAP5 POP PUSH1 0x20 DUP2 ADD SWAP1 POP PUSH2 0x547 JUMP JUMPDEST DUP7 DUP4 LT ISZERO PUSH2 0x589 JUMPI DUP5 DUP10 ADD MLOAD PUSH2 0x585 PUSH1 0x1F DUP10 AND DUP3 PUSH2 0x498 JUMP JUMPDEST DUP4 SSTORE POP JUMPDEST PUSH1 0x1 PUSH1 0x2 DUP9 MUL ADD DUP9 SSTORE POP POP POP JUMPDEST POP POP POP POP POP POP JUMP JUMPDEST PUSH1 0x80 MLOAD PUSH2 0x29D5 PUSH2 0x5BD PUSH0 CODECOPY PUSH0 DUP2 DUP2 PUSH2 0x7A5 ADD MSTORE PUSH2 0x837 ADD MSTORE PUSH2 0x29D5 PUSH0 RETURN INVALID PUSH1 0x80 PUSH1 0x40 MSTORE CALLVALUE DUP1 ISZERO PUSH2 0xF JUMPI PUSH0 PUSH0 REVERT JUMPDEST POP PUSH1 0x4 CALLDATASIZE LT PUSH2 0x114 JUMPI PUSH0 CALLDATALOAD PUSH1 0xE0 SHR DUP1 PUSH4 0x630303C6 GT PUSH2 0xA0 JUMPI DUP1 PUSH4 0x95D89B41 GT PUSH2 0x6F JUMPI DUP1 PUSH4 0x95D89B41 EQ PUSH2 0x314 JUMPI DUP1 PUSH4 0xA22CB465 EQ PUSH2 0x332 JUMPI DUP1 PUSH4 0xB88D4FDE EQ PUSH2 0x34E JUMPI DUP1 PUSH4 0xC87B56DD EQ PUSH2 0x36A JUMPI DUP1 PUSH4 0xE985E9C5 EQ PUSH2 0x39A JUMPI PUSH2 0x114 JUMP JUMPDEST DUP1 PUSH4 0x630303C6 EQ PUSH2 0x268 JUMPI DUP1 PUSH4 0x6352211E EQ PUSH2 0x298 JUMPI DUP1 PUSH4 0x70A08231 EQ PUSH2 0x2C8 JUMPI DUP1 PUSH4 0x94D008EF EQ PUSH2 0x2F8 JUMPI PUSH2 0x114 JUMP JUMPDEST DUP1 PUSH4 0x238AC933 GT PUSH2 0xE7 JUMPI DUP1 PUSH4 0x238AC933 EQ PUSH2 0x1B2 JUMPI DUP1 PUSH4 0x23B872DD EQ PUSH2 0x1D0 JUMPI DUP1 PUSH4 0x258AE582 EQ PUSH2 0x1EC JUMPI DUP1 PUSH4 0x42842E0E EQ PUSH2 0x21C JUMPI DUP1 PUSH4 0x512C91DF EQ PUSH2 0x238 JUMPI PUSH2 0x114 JUMP JUMPDEST DUP1 PUSH4 0x1FFC9A7 EQ PUSH2 0x118 JUMPI DUP1 PUSH4 0x6FDDE03 EQ PUSH2 0x148 JUMPI DUP1 PUSH4 0x81812FC EQ PUSH2 0x166 JUMPI DUP1 PUSH4 0x95EA7B3 EQ PUSH2 0x196 JUMPI JUMPDEST PUSH0 PUSH0 REVERT JUMPDEST PUSH2 0x132 PUSH1 0x4 DUP1 CALLDATASIZE SUB DUP2 ADD SWAP1 PUSH2 0x12D SWAP2 SWAP1 PUSH2 0x1A1F JUMP JUMPDEST PUSH2 0x3CA JUMP JUMPDEST PUSH1 0x40 MLOAD PUSH2 0x13F SWAP2 SWAP1 PUSH2 0x1A64 JUMP JUMPDEST PUSH1 0x40 MLOAD DUP1 SWAP2 SUB SWAP1 RETURN JUMPDEST PUSH2 0x150 PUSH2 0x503 JUMP JUMPDEST PUSH1 0x40 MLOAD PUSH2 0x15D SWAP2 SWAP1 PUSH2 0x1AED JUMP JUMPDEST PUSH1 0x40 MLOAD DUP1 SWAP2 SUB SWAP1 RETURN JUMPDEST PUSH2 0x180 PUSH1 0x4 DUP1 CALLDATASIZE SUB DUP2 ADD SWAP1 PUSH2 0x17B SWAP2 SWAP1 PUSH2 0x1B40 JUMP JUMPDEST PUSH2 0x58E JUMP JUMPDEST PUSH1 0x40 MLOAD PUSH2 0x18D SWAP2 SWAP1 PUSH2 0x1BAA JUMP JUMPDEST PUSH1 0x40 MLOAD DUP1 SWAP2 SUB SWAP1 RETURN JUMPDEST PUSH2 0x1B0 PUSH1 0x4 DUP1 CALLDATASIZE SUB DUP2 ADD SWAP1 PUSH2 0x1AB SWAP2 SWAP1 PUSH2 0x1BED JUMP JUMPDEST PUSH2 0x665 JUMP JUMPDEST STOP JUMPDEST PUSH2 0x1BA PUSH2 0x7A3 JUMP JUMPDEST PUSH1 0x40 MLOAD PUSH2 0x1C7 SWAP2 SWAP1 PUSH2 0x1BAA JUMP JUMPDEST PUSH1 0x40 MLOAD DUP1 SWAP2 SUB SWAP1 RETURN JUMPDEST PUSH2 0x1EA PUSH1 0x4 DUP1 CALLDATASIZE SUB DUP2 ADD SWAP1 PUSH2 0x1E5 SWAP2 SWAP1 PUSH2 0x1C2B JUMP JUMPDEST PUSH2 0x7C7 JUMP JUMPDEST STOP JUMPDEST PUSH2 0x206 PUSH1 0x4 DUP1 CALLDATASIZE SUB DUP2 ADD SWAP1 PUSH2 0x201 SWAP2 SWAP1 PUSH2 0x1DDA JUMP JUMPDEST PUSH2 0x82F JUMP JUMPDEST PUSH1 0x40 MLOAD PUSH2 0x213 SWAP2 SWAP1 PUSH2 0x1A64 JUMP JUMPDEST PUSH1 0x40 MLOAD DUP1 SWAP2 SUB SWAP1 RETURN JUMPDEST PUSH2 0x236 PUSH1 0x4 DUP1 CALLDATASIZE SUB DUP2 ADD SWAP1 PUSH2 0x231 SWAP2 SWAP1 PUSH2 0x1C2B JUMP JUMPDEST PUSH2 0x863 JUMP JUMPDEST STOP JUMPDEST PUSH2 0x252 PUSH1 0x4 DUP1 CALLDATASIZE SUB DUP2 ADD SWAP1 PUSH2 0x24D SWAP2 SWAP1 PUSH2 0x1BED JUMP JUMPDEST PUSH2 0x882 JUMP JUMPDEST PUSH1 0x40 MLOAD PUSH2 0x25F SWAP2 SWAP1 PUSH2 0x1E43 JUMP JUMPDEST PUSH1 0x40 MLOAD DUP1 SWAP2 SUB SWAP1 RETURN JUMPDEST PUSH2 0x282 PUSH1 0x4 DUP1 CALLDATASIZE SUB DUP2 ADD SWAP1 PUSH2 0x27D SWAP2 SWAP1 PUSH2 0x1E5C JUMP JUMPDEST PUSH2 0x8B4 JUMP JUMPDEST PUSH1 0x40 MLOAD PUSH2 0x28F SWAP2 SWAP1 PUSH2 0x1A64 JUMP JUMPDEST PUSH1 0x40 MLOAD DUP1 SWAP2 SUB SWAP1 RETURN JUMPDEST PUSH2 0x2B2 PUSH1 0x4 DUP1 CALLDATASIZE SUB DUP2 ADD SWAP1 PUSH2 0x2AD SWAP2 SWAP1 PUSH2 0x1B40 JUMP JUMPDEST PUSH2 0x8D1 JUMP JUMPDEST PUSH1 0x40 MLOAD PUSH2 0x2BF SWAP2 SWAP1 PUSH2 0x1BAA JUMP JUMPDEST PUSH1 0x40 MLOAD DUP1 SWAP2 SUB SWAP1 RETURN JUMPDEST PUSH2 0x2E2 PUSH1 0x4 DUP1 CALLDATASIZE SUB DUP2 ADD SWAP1 PUSH2 0x2DD SWAP2 SWAP1 PUSH2 0x1E5C JUMP JUMPDEST PUSH2 0x978 JUMP JUMPDEST PUSH1 0x40 MLOAD PUSH2 0x2EF SWAP2 SWAP1 PUSH2 0x1E96 JUMP JUMPDEST PUSH1 0x40 MLOAD DUP1 SWAP2 SUB SWAP1 RETURN JUMPDEST PUSH2 0x312 PUSH1 0x4 DUP1 CALLDATASIZE SUB DUP2 ADD SWAP1 PUSH2 0x30D SWAP2 SWAP1 PUSH2 0x1EAF JUMP JUMPDEST PUSH2 0xA2C JUMP JUMPDEST STOP JUMPDEST PUSH2 0x31C PUSH2 0xBEB JUMP JUMPDEST PUSH1 0x40 MLOAD PUSH2 0x329 SWAP2 SWAP1 PUSH2 0x1AED JUMP JUMPDEST PUSH1 0x40 MLOAD DUP1 SWAP2 SUB SWAP1 RETURN JUMPDEST PUSH2 0x34C PUSH1 0x4 DUP1 CALLDATASIZE SUB DUP2 ADD SWAP1 PUSH2 0x347 SWAP2 SWAP1 PUSH2 0x1F45 JUMP JUMPDEST PUSH2 0xC77 JUMP JUMPDEST STOP JUMPDEST PUSH2 0x368 PUSH1 0x4 DUP1 CALLDATASIZE SUB DUP2 ADD SWAP1 PUSH2 0x363 SWAP2 SWAP1 PUSH2 0x1F83 JUMP JUMPDEST PUSH2 0xD6F JUMP JUMPDEST STOP JUMPDEST PUSH2 0x384 PUSH1 0x4 DUP1 CALLDATASIZE SUB DUP2 ADD SWAP1 PUSH2 0x37F SWAP2 SWAP1 PUSH2 0x1B40 JUMP JUMPDEST PUSH2 0xDD9 JUMP JUMPDEST PUSH1 0x40 MLOAD PUSH2 0x391 SWAP2 SWAP1 PUSH2 0x1AED JUMP JUMPDEST PUSH1 0x40 MLOAD DUP1 SWAP2 SUB SWAP1 RETURN JUMPDEST PUSH2 0x3B4 PUSH1 0x4 DUP1 CALLDATASIZE SUB DUP2 ADD SWAP1 PUSH2 0x3AF SWAP2 SWAP1 PUSH2 0x2003 JUMP JUMPDEST PUSH2 0xED3 JUMP JUMPDEST PUSH1 0x40 MLOAD PUSH2 0x3C1 SWAP2 SWAP1 PUSH2 0x1A64 JUMP JUMPDEST PUSH1 0x40 MLOAD DUP1 SWAP2 SUB SWAP1 RETURN JUMPDEST PUSH0 PUSH32 0x80AC58CD00000000000000000000000000000000000000000000000000000000 PUSH28 0xFFFFFFFFFFFFFFFFFFFFFFFFFFFFFFFFFFFFFFFFFFFFFFFFFFFFFFFF NOT AND DUP3 PUSH28 0xFFFFFFFFFFFFFFFFFFFFFFFFFFFFFFFFFFFFFFFFFFFFFFFFFFFFFFFF NOT AND EQ DUP1 PUSH2 0x494 JUMPI POP PUSH32 0x1FFC9A700000000000000000000000000000000000000000000000000000000 PUSH28 0xFFFFFFFFFFFFFFFFFFFFFFFFFFFFFFFFFFFFFFFFFFFFFFFFFFFFFFFF NOT AND DUP3 PUSH28 0xFFFFFFFFFFFFFFFFFFFFFFFFFFFFFFFFFFFFFFFFFFFFFFFFFFFFFFFF NOT AND EQ JUMPDEST DUP1 PUSH2 0x4FC JUMPI POP PUSH32 0x5B5E139F00000000000000000000000000000000000000000000000000000000 PUSH28 0xFFFFFFFFFFFFFFFFFFFFFFFFFFFFFFFFFFFFFFFFFFFFFFFFFFFFFFFF NOT AND DUP3 PUSH28 0xFFFFFFFFFFFFFFFFFFFFFFFFFFFFFFFFFFFFFFFFFFFFFFFFFFFFFFFF NOT AND EQ JUMPDEST SWAP1 POP SWAP2 SWAP1 POP JUMP JUMPDEST PUSH0 DUP1 SLOAD PUSH2 0x50F SWAP1 PUSH2 0x206E JUMP JUMPDEST DUP1 PUSH1 0x1F ADD PUSH1 0x20 DUP1 SWAP2 DIV MUL PUSH1 0x20 ADD PUSH1 0x40 MLOAD SWAP1 DUP2 ADD PUSH1 0x40 MSTORE DUP1 SWAP3 SWAP2 SWAP1 DUP2 DUP2 MSTORE PUSH1 0x20 ADD DUP3 DUP1 SLOAD PUSH2 0x53B SWAP1 PUSH2 0x206E JUMP JUMPDEST DUP1 ISZERO PUSH2 0x586 JUMPI DUP1 PUSH1 0x1F LT PUSH2 0x55D JUMPI PUSH2 0x100 DUP1 DUP4 SLOAD DIV MUL DUP4 MSTORE SWAP2 PUSH1 0x20 ADD SWAP2 PUSH2 0x586 JUMP JUMPDEST DUP3 ADD SWAP2 SWAP1 PUSH0 MSTORE PUSH1 0x20 PUSH0 KECCAK256 SWAP1 JUMPDEST DUP2 SLOAD DUP2 MSTORE SWAP1 PUSH1 0x1 ADD SWAP1 PUSH1 0x20 ADD DUP1 DUP4 GT PUSH2 0x569 JUMPI DUP3 SWAP1 SUB PUSH1 0x1F AND DUP3 ADD SWAP2 JUMPDEST POP POP POP POP POP DUP2 JUMP JUMPDEST PUSH0 PUSH0 PUSH20 0xFFFFFFFFFFFFFFFFFFFFFFFFFFFFFFFFFFFFFFFF AND PUSH1 0x2 PUSH0 DUP5 DUP2 MSTORE PUSH1 0x20 ADD SWAP1 DUP2 MSTORE PUSH1 0x20 ADD PUSH0 KECCAK256 PUSH0 SWAP1 SLOAD SWAP1 PUSH2 0x100 EXP SWAP1 DIV PUSH20 0xFFFFFFFFFFFFFFFFFFFFFFFFFFFFFFFFFFFFFFFF AND PUSH20 0xFFFFFFFFFFFFFFFFFFFFFFFFFFFFFFFFFFFFFFFF AND SUB PUSH2 0x62D JUMPI PUSH1 0x40 MLOAD PUSH32 0x8C379A000000000000000000000000000000000000000000000000000000000 DUP2 MSTORE PUSH1 0x4 ADD PUSH2 0x624 SWAP1 PUSH2 0x20E8 JUMP JUMPDEST PUSH1 0x40 MLOAD DUP1 SWAP2 SUB SWAP1 REVERT JUMPDEST PUSH1 0x4 PUSH0 DUP4 DUP2 MSTORE PUSH1 0x20 ADD SWAP1 DUP2 MSTORE PUSH1 0x20 ADD PUSH0 KECCAK256 PUSH0 SWAP1 SLOAD SWAP1 PUSH2 0x100 EXP SWAP1 DIV PUSH20 0xFFFFFFFFFFFFFFFFFFFFFFFFFFFFFFFFFFFFFFFF AND SWAP1 POP SWAP2 SWAP1 POP JUMP JUMPDEST PUSH0 PUSH1 0x2 PUSH0 DUP4 DUP2 MSTORE PUSH1 0x20 ADD SWAP1 DUP2 MSTORE PUSH1 0x20 ADD PUSH0 KECCAK256 PUSH0 SWAP1 SLOAD SWAP1 PUSH2 0x100 EXP SWAP1 DIV PUSH20 0xFFFFFFFFFFFFFFFFFFFFFFFFFFFFFFFFFFFFFFFF AND SWAP1 POP DUP1 PUSH20 0xFFFFFFFFFFFFFFFFFFFFFFFFFFFFFFFFFFFFFFFF AND CALLER PUSH20 0xFFFFFFFFFFFFFFFFFFFFFFFFFFFFFFFFFFFFFFFF AND EQ DUP1 PUSH2 0x754 JUMPI POP PUSH1 0x5 PUSH0 DUP3 PUSH20 0xFFFFFFFFFFFFFFFFFFFFFFFFFFFFFFFFFFFFFFFF AND PUSH20 0xFFFFFFFFFFFFFFFFFFFFFFFFFFFFFFFFFFFFFFFF AND DUP2 MSTORE PUSH1 0x20 ADD SWAP1 DUP2 MSTORE PUSH1 0x20 ADD PUSH0 KECCAK256 PUSH0 CALLER PUSH20 0xFFFFFFFFFFFFFFFFFFFFFFFFFFFFFFFFFFFFFFFF AND PUSH20 0xFFFFFFFFFFFFFFFFFFFFFFFFFFFFFFFFFFFFFFFF AND DUP2 MSTORE PUSH1 0x20 ADD SWAP1 DUP2 MSTORE PUSH1 0x20 ADD PUSH0 KECCAK256 PUSH0 SWAP1 SLOAD SWAP1 PUSH2 0x100 EXP SWAP1 DIV PUSH1 0xFF AND JUMPDEST PUSH2 0x793 JUMPI PUSH1 0x40 MLOAD PUSH32 0x8C379A000000000000000000000000000000000000000000000000000000000 DUP2 MSTORE PUSH1 0x4 ADD PUSH2 0x78A SWAP1 PUSH2 0x2150 JUMP JUMPDEST PUSH1 0x40 MLOAD DUP1 SWAP2 SUB SWAP1 REVERT JUMPDEST PUSH2 0x79E DUP2 DUP5 DUP5 PUSH2 0xF61 JUMP JUMPDEST POP POP POP JUMP JUMPDEST PUSH32 0x0 DUP2 JUMP JUMPDEST PUSH0 PUSH2 0x7D1 DUP3 PUSH2 0x8D1 JUMP JUMPDEST SWAP1 POP PUSH2 0x7DE DUP2 CALLER DUP5 PUSH2 0x1010 JUMP JUMPDEST PUSH2 0x81D JUMPI PUSH1 0x40 MLOAD PUSH32 0x8C379A000000000000000000000000000000000000000000000000000000000 DUP2 MSTORE PUSH1 0x4 ADD PUSH2 0x814 SWAP1 PUSH2 0x21B8 JUMP JUMPDEST PUSH1 0x40 MLOAD DUP1 SWAP2 SUB SWAP1 REVERT JUMPDEST PUSH2 0x829 DUP2 DUP6 DUP6 DUP6 PUSH2 0x113B JUMP JUMPDEST POP POP POP POP JUMP JUMPDEST PUSH0 PUSH2 0x85B DUP4 DUP4 PUSH32 0x0 PUSH2 0x137A JUMP JUMPDEST SWAP1 POP SWAP3 SWAP2 POP POP JUMP JUMPDEST PUSH2 0x87D DUP4 DUP4 DUP4 PUSH1 0x40 MLOAD DUP1 PUSH1 0x20 ADD PUSH1 0x40 MSTORE DUP1 PUSH0 DUP2 MSTORE POP PUSH2 0xD6F JUMP JUMPDEST POP POP POP JUMP JUMPDEST PUSH0 DUP3 DUP3 PUSH1 0x40 MLOAD PUSH1 0x20 ADD PUSH2 0x896 SWAP3 SWAP2 SWAP1 PUSH2 0x223B JUMP JUMPDEST PUSH1 0x40 MLOAD PUSH1 0x20 DUP2 DUP4 SUB SUB DUP2 MSTORE SWAP1 PUSH1 0x40 MSTORE DUP1 MLOAD SWAP1 PUSH1 0x20 ADD KECCAK256 SWAP1 POP SWAP3 SWAP2 POP POP JUMP JUMPDEST PUSH1 0x6 PUSH1 0x20 MSTORE DUP1 PUSH0 MSTORE PUSH1 0x40 PUSH0 KECCAK256 PUSH0 SWAP2 POP SLOAD SWAP1 PUSH2 0x100 EXP SWAP1 DIV PUSH1 0xFF AND DUP2 JUMP JUMPDEST PUSH0 PUSH1 0x2 PUSH0 DUP4 DUP2 MSTORE PUSH1 0x20 ADD SWAP1 DUP2 MSTORE PUSH1 0x20 ADD PUSH0 KECCAK256 PUSH0 SWAP1 SLOAD SWAP1 PUSH2 0x100 EXP SWAP1 DIV PUSH20 0xFFFFFFFFFFFFFFFFFFFFFFFFFFFFFFFFFFFFFFFF AND SWAP1 POP PUSH0 PUSH20 0xFFFFFFFFFFFFFFFFFFFFFFFFFFFFFFFFFFFFFFFF AND DUP2 PUSH20 0xFFFFFFFFFFFFFFFFFFFFFFFFFFFFFFFFFFFFFFFF AND SUB PUSH2 0x973 JUMPI PUSH1 0x40 MLOAD PUSH32 0x8C379A000000000000000000000000000000000000000000000000000000000 DUP2 MSTORE PUSH1 0x4 ADD PUSH2 0x96A SWAP1 PUSH2 0x20E8 JUMP JUMPDEST PUSH1 0x40 MLOAD DUP1 SWAP2 SUB SWAP1 REVERT JUMPDEST SWAP2 SWAP1 POP JUMP JUMPDEST PUSH0 PUSH0 PUSH20 0xFFFFFFFFFFFFFFFFFFFFFFFFFFFFFFFFFFFFFFFF AND DUP3 PUSH20 0xFFFFFFFFFFFFFFFFFFFFFFFFFFFFFFFFFFFFFFFF AND SUB PUSH2 0x9E7 JUMPI PUSH1 0x40 MLOAD PUSH32 0x8C379A000000000000000000000000000000000000000000000000000000000 DUP2 MSTORE PUSH1 0x4 ADD PUSH2 0x9DE SWAP1 PUSH2 0x22B0 JUMP JUMPDEST PUSH1 0x40 MLOAD DUP1 SWAP2 SUB SWAP1 REVERT JUMPDEST PUSH1 0x3 PUSH0 DUP4 PUSH20 0xFFFFFFFFFFFFFFFFFFFFFFFFFFFFFFFFFFFFFFFF AND PUSH20 0xFFFFFFFFFFFFFFFFFFFFFFFFFFFFFFFFFFFFFFFF AND DUP2 MSTORE PUSH1 0x20 ADD SWAP1 DUP2 MSTORE PUSH1 0x20 ADD PUSH0 KECCAK256 SLOAD SWAP1 POP SWAP2 SWAP1 POP JUMP JUMPDEST PUSH0 PUSH2 0xA37 DUP5 DUP5 PUSH2 0x882 JUMP JUMPDEST SWAP1 POP PUSH0 PUSH20 0x0 PUSH4 0x918A15CF DUP4 PUSH1 0x40 MLOAD DUP3 PUSH4 0xFFFFFFFF AND PUSH1 0xE0 SHL DUP2 MSTORE PUSH1 0x4 ADD PUSH2 0xA71 SWAP2 SWAP1 PUSH2 0x22DD JUMP JUMPDEST PUSH1 0x20 PUSH1 0x40 MLOAD DUP1 DUP4 SUB DUP2 DUP7 GAS DELEGATECALL ISZERO DUP1 ISZERO PUSH2 0xA8C JUMPI RETURNDATASIZE PUSH0 PUSH0 RETURNDATACOPY RETURNDATASIZE PUSH0 REVERT JUMPDEST POP POP POP POP PUSH1 0x40 MLOAD RETURNDATASIZE PUSH1 0x1F NOT PUSH1 0x1F DUP3 ADD AND DUP3 ADD DUP1 PUSH1 0x40 MSTORE POP DUP2 ADD SWAP1 PUSH2 0xAB0 SWAP2 SWAP1 PUSH2 0x230A JUMP JUMPDEST SWAP1 POP PUSH2 0xABC DUP2 DUP5 PUSH2 0x82F JUMP JUMPDEST PUSH2 0xAFB JUMPI PUSH1 0x40 MLOAD PUSH32 0x8C379A000000000000000000000000000000000000000000000000000000000 DUP2 MSTORE PUSH1 0x4 ADD PUSH2 0xAF2 SWAP1 PUSH2 0x237F JUMP JUMPDEST PUSH1 0x40 MLOAD DUP1 SWAP2 SUB SWAP1 REVERT JUMPDEST PUSH1 0x6 PUSH0 DUP7 PUSH20 0xFFFFFFFFFFFFFFFFFFFFFFFFFFFFFFFFFFFFFFFF AND PUSH20 0xFFFFFFFFFFFFFFFFFFFFFFFFFFFFFFFFFFFFFFFF AND DUP2 MSTORE PUSH1 0x20 ADD SWAP1 DUP2 MSTORE PUSH1 0x20 ADD PUSH0 KECCAK256 PUSH0 SWAP1 SLOAD SWAP1 PUSH2 0x100 EXP SWAP1 DIV PUSH1 0xFF AND ISZERO PUSH2 0xB85 JUMPI PUSH1 0x40 MLOAD PUSH32 0x8C379A000000000000000000000000000000000000000000000000000000000 DUP2 MSTORE PUSH1 0x4 ADD PUSH2 0xB7C SWAP1 PUSH2 0x23E7 JUMP JUMPDEST PUSH1 0x40 MLOAD DUP1 SWAP2 SUB SWAP1 REVERT JUMPDEST PUSH2 0xB8F DUP6 DUP6 PUSH2 0x13BC JUMP JUMPDEST PUSH1 0x1 PUSH1 0x6 PUSH0 DUP8 PUSH20 0xFFFFFFFFFFFFFFFFFFFFFFFFFFFFFFFFFFFFFFFF AND PUSH20 0xFFFFFFFFFFFFFFFFFFFFFFFFFFFFFFFFFFFFFFFF AND DUP2 MSTORE PUSH1 0x20 ADD SWAP1 DUP2 MSTORE PUSH1 0x20 ADD PUSH0 KECCAK256 PUSH0 PUSH2 0x100 EXP DUP2 SLOAD DUP2 PUSH1 0xFF MUL NOT AND SWAP1 DUP4 ISZERO ISZERO MUL OR SWAP1 SSTORE POP POP POP POP POP POP JUMP JUMPDEST PUSH1 0x1 DUP1 SLOAD PUSH2 0xBF8 SWAP1 PUSH2 0x206E JUMP JUMPDEST DUP1 PUSH1 0x1F ADD PUSH1 0x20 DUP1 SWAP2 DIV MUL PUSH1 0x20 ADD PUSH1 0x40 MLOAD SWAP1 DUP2 ADD PUSH1 0x40 MSTORE DUP1 SWAP3 SWAP2 SWAP1 DUP2 DUP2 MSTORE PUSH1 0x20 ADD DUP3 DUP1 SLOAD PUSH2 0xC24 SWAP1 PUSH2 0x206E JUMP JUMPDEST DUP1 ISZERO PUSH2 0xC6F JUMPI DUP1 PUSH1 0x1F LT PUSH2 0xC46 JUMPI PUSH2 0x100 DUP1 DUP4 SLOAD DIV MUL DUP4 MSTORE SWAP2 PUSH1 0x20 ADD SWAP2 PUSH2 0xC6F JUMP JUMPDEST DUP3 ADD SWAP2 SWAP1 PUSH0 MSTORE PUSH1 0x20 PUSH0 KECCAK256 SWAP1 JUMPDEST DUP2 SLOAD DUP2 MSTORE SWAP1 PUSH1 0x1 ADD SWAP1 PUSH1 0x20 ADD DUP1 DUP4 GT PUSH2 0xC52 JUMPI DUP3 SWAP1 SUB PUSH1 0x1F AND DUP3 ADD SWAP2 JUMPDEST POP POP POP POP POP DUP2 JUMP JUMPDEST DUP1 PUSH1 0x5 PUSH0 CALLER PUSH20 0xFFFFFFFFFFFFFFFFFFFFFFFFFFFFFFFFFFFFFFFF AND PUSH20 0xFFFFFFFFFFFFFFFFFFFFFFFFFFFFFFFFFFFFFFFF AND DUP2 MSTORE PUSH1 0x20 ADD SWAP1 DUP2 MSTORE PUSH1 0x20 ADD PUSH0 KECCAK256 PUSH0 DUP5 PUSH20 0xFFFFFFFFFFFFFFFFFFFFFFFFFFFFFFFFFFFFFFFF AND PUSH20 0xFFFFFFFFFFFFFFFFFFFFFFFFFFFFFFFFFFFFFFFF AND DUP2 MSTORE PUSH1 0x20 ADD SWAP1 DUP2 MSTORE PUSH1 0x20 ADD PUSH0 KECCAK256 PUSH0 PUSH2 0x100 EXP DUP2 SLOAD DUP2 PUSH1 0xFF MUL NOT AND SWAP1 DUP4 ISZERO ISZERO MUL OR SWAP1 SSTORE POP DUP2 PUSH20 0xFFFFFFFFFFFFFFFFFFFFFFFFFFFFFFFFFFFFFFFF AND CALLER PUSH20 0xFFFFFFFFFFFFFFFFFFFFFFFFFFFFFFFFFFFFFFFF AND PUSH32 0x17307EAB39AB6107E8899845AD3D59BD9653F200F220920489CA2B5937696C31 DUP4 PUSH1 0x40 MLOAD PUSH2 0xD63 SWAP2 SWAP1 PUSH2 0x1A64 JUMP JUMPDEST PUSH1 0x40 MLOAD DUP1 SWAP2 SUB SWAP1 LOG3 POP POP JUMP JUMPDEST PUSH0 PUSH2 0xD79 DUP4 PUSH2 0x8D1 JUMP JUMPDEST SWAP1 POP PUSH2 0xD86 DUP2 CALLER DUP6 PUSH2 0x1010 JUMP JUMPDEST PUSH2 0xDC5 JUMPI PUSH1 0x40 MLOAD PUSH32 0x8C379A000000000000000000000000000000000000000000000000000000000 DUP2 MSTORE PUSH1 0x4 ADD PUSH2 0xDBC SWAP1 PUSH2 0x21B8 JUMP JUMPDEST PUSH1 0x40 MLOAD DUP1 SWAP2 SUB SWAP1 REVERT JUMPDEST PUSH2 0xDD2 DUP2 DUP7 DUP7 DUP7 DUP7 PUSH2 0x15CA JUMP JUMPDEST POP POP POP POP POP JUMP JUMPDEST PUSH1 0x60 PUSH0 PUSH20 0xFFFFFFFFFFFFFFFFFFFFFFFFFFFFFFFFFFFFFFFF AND PUSH1 0x2 PUSH0 DUP5 DUP2 MSTORE PUSH1 0x20 ADD SWAP1 DUP2 MSTORE PUSH1 0x20 ADD PUSH0 KECCAK256 PUSH0 SWAP1 SLOAD SWAP1 PUSH2 0x100 EXP SWAP1 DIV PUSH20 0xFFFFFFFFFFFFFFFFFFFFFFFFFFFFFFFFFFFFFFFF AND PUSH20 0xFFFFFFFFFFFFFFFFFFFFFFFFFFFFFFFFFFFFFFFF AND SUB PUSH2 0xE79 JUMPI PUSH1 0x40 MLOAD PUSH32 0x8C379A000000000000000000000000000000000000000000000000000000000 DUP2 MSTORE PUSH1 0x4 ADD PUSH2 0xE70 SWAP1 PUSH2 0x244F JUMP JUMPDEST PUSH1 0x40 MLOAD DUP1 SWAP2 SUB SWAP1 REVERT JUMPDEST PUSH0 PUSH2 0xE82 PUSH2 0x15E9 JUMP JUMPDEST SWAP1 POP PUSH0 DUP2 MLOAD GT PUSH2 0xEA0 JUMPI PUSH1 0x40 MLOAD DUP1 PUSH1 0x20 ADD PUSH1 0x40 MSTORE DUP1 PUSH0 DUP2 MSTORE POP PUSH2 0xECB JUMP JUMPDEST DUP1 PUSH2 0xEAA DUP5 PUSH2 0x15FF JUMP JUMPDEST PUSH1 0x40 MLOAD PUSH1 0x20 ADD PUSH2 0xEBB SWAP3 SWAP2 SWAP1 PUSH2 0x24A7 JUMP JUMPDEST PUSH1 0x40 MLOAD PUSH1 0x20 DUP2 DUP4 SUB SUB DUP2 MSTORE SWAP1 PUSH1 0x40 MSTORE JUMPDEST SWAP2 POP POP SWAP2 SWAP1 POP JUMP JUMPDEST PUSH0 PUSH1 0x5 PUSH0 DUP5 PUSH20 0xFFFFFFFFFFFFFFFFFFFFFFFFFFFFFFFFFFFFFFFF AND PUSH20 0xFFFFFFFFFFFFFFFFFFFFFFFFFFFFFFFFFFFFFFFF AND DUP2 MSTORE PUSH1 0x20 ADD SWAP1 DUP2 MSTORE PUSH1 0x20 ADD PUSH0 KECCAK256 PUSH0 DUP4 PUSH20 0xFFFFFFFFFFFFFFFFFFFFFFFFFFFFFFFFFFFFFFFF AND PUSH20 0xFFFFFFFFFFFFFFFFFFFFFFFFFFFFFFFFFFFFFFFF AND DUP2 MSTORE PUSH1 0x20 ADD SWAP1 DUP2 MSTORE PUSH1 0x20 ADD PUSH0 KECCAK256 PUSH0 SWAP1 SLOAD SWAP1 PUSH2 0x100 EXP SWAP1 DIV PUSH1 0xFF AND SWAP1 POP SWAP3 SWAP2 POP POP JUMP JUMPDEST DUP2 PUSH1 0x4 PUSH0 DUP4 DUP2 MSTORE PUSH1 0x20 ADD SWAP1 DUP2 MSTORE PUSH1 0x20 ADD PUSH0 KECCAK256 PUSH0 PUSH2 0x100 EXP DUP2 SLOAD DUP2 PUSH20 0xFFFFFFFFFFFFFFFFFFFFFFFFFFFFFFFFFFFFFFFF MUL NOT AND SWAP1 DUP4 PUSH20 0xFFFFFFFFFFFFFFFFFFFFFFFFFFFFFFFFFFFFFFFF AND MUL OR SWAP1 SSTORE POP DUP1 DUP3 PUSH20 0xFFFFFFFFFFFFFFFFFFFFFFFFFFFFFFFFFFFFFFFF AND DUP5 PUSH20 0xFFFFFFFFFFFFFFFFFFFFFFFFFFFFFFFFFFFFFFFF AND PUSH32 0x8C5BE1E5EBEC7D5BD14F71427D1E84F3DD0314C0F7B2291E5B200AC8C7C3B925 PUSH1 0x40 MLOAD PUSH1 0x40 MLOAD DUP1 SWAP2 SUB SWAP1 LOG4 POP POP POP JUMP JUMPDEST PUSH0 DUP4 PUSH20 0xFFFFFFFFFFFFFFFFFFFFFFFFFFFFFFFFFFFFFFFF AND DUP4 PUSH20 0xFFFFFFFFFFFFFFFFFFFFFFFFFFFFFFFFFFFFFFFF AND EQ DUP1 PUSH2 0x10A6 JUMPI POP DUP3 PUSH20 0xFFFFFFFFFFFFFFFFFFFFFFFFFFFFFFFFFFFFFFFF AND PUSH1 0x4 PUSH0 DUP5 DUP2 MSTORE PUSH1 0x20 ADD SWAP1 DUP2 MSTORE PUSH1 0x20 ADD PUSH0 KECCAK256 PUSH0 SWAP1 SLOAD SWAP1 PUSH2 0x100 EXP SWAP1 DIV PUSH20 0xFFFFFFFFFFFFFFFFFFFFFFFFFFFFFFFFFFFFFFFF AND PUSH20 0xFFFFFFFFFFFFFFFFFFFFFFFFFFFFFFFFFFFFFFFF AND EQ JUMPDEST DUP1 PUSH2 0x1132 JUMPI POP PUSH1 0x5 PUSH0 DUP6 PUSH20 0xFFFFFFFFFFFFFFFFFFFFFFFFFFFFFFFFFFFFFFFF AND PUSH20 0xFFFFFFFFFFFFFFFFFFFFFFFFFFFFFFFFFFFFFFFF AND DUP2 MSTORE PUSH1 0x20 ADD SWAP1 DUP2 MSTORE PUSH1 0x20 ADD PUSH0 KECCAK256 PUSH0 DUP5 PUSH20 0xFFFFFFFFFFFFFFFFFFFFFFFFFFFFFFFFFFFFFFFF AND PUSH20 0xFFFFFFFFFFFFFFFFFFFFFFFFFFFFFFFFFFFFFFFF AND DUP2 MSTORE PUSH1 0x20 ADD SWAP1 DUP2 MSTORE PUSH1 0x20 ADD PUSH0 KECCAK256 PUSH0 SWAP1 SLOAD SWAP1 PUSH2 0x100 EXP SWAP1 DIV PUSH1 0xFF AND JUMPDEST SWAP1 POP SWAP4 SWAP3 POP POP POP JUMP JUMPDEST DUP4 PUSH20 0xFFFFFFFFFFFFFFFFFFFFFFFFFFFFFFFFFFFFFFFF AND DUP4 PUSH20 0xFFFFFFFFFFFFFFFFFFFFFFFFFFFFFFFFFFFFFFFF AND EQ PUSH2 0x11A9 JUMPI PUSH1 0x40 MLOAD PUSH32 0x8C379A000000000000000000000000000000000000000000000000000000000 DUP2 MSTORE PUSH1 0x4 ADD PUSH2 0x11A0 SWAP1 PUSH2 0x2514 JUMP JUMPDEST PUSH1 0x40 MLOAD DUP1 SWAP2 SUB SWAP1 REVERT JUMPDEST PUSH0 PUSH20 0xFFFFFFFFFFFFFFFFFFFFFFFFFFFFFFFFFFFFFFFF AND DUP3 PUSH20 0xFFFFFFFFFFFFFFFFFFFFFFFFFFFFFFFFFFFFFFFF AND SUB PUSH2 0x1217 JUMPI PUSH1 0x40 MLOAD PUSH32 0x8C379A000000000000000000000000000000000000000000000000000000000 DUP2 MSTORE PUSH1 0x4 ADD PUSH2 0x120E SWAP1 PUSH2 0x257C JUMP JUMPDEST PUSH1 0x40 MLOAD DUP1 SWAP2 SUB SWAP1 REVERT JUMPDEST PUSH2 0x1222 DUP5 PUSH0 DUP4 PUSH2 0xF61 JUMP JUMPDEST PUSH1 0x1 PUSH1 0x3 PUSH0 DUP6 PUSH20 0xFFFFFFFFFFFFFFFFFFFFFFFFFFFFFFFFFFFFFFFF AND PUSH20 0xFFFFFFFFFFFFFFFFFFFFFFFFFFFFFFFFFFFFFFFF AND DUP2 MSTORE PUSH1 0x20 ADD SWAP1 DUP2 MSTORE PUSH1 0x20 ADD PUSH0 KECCAK256 PUSH0 DUP3 DUP3 SLOAD PUSH2 0x126F SWAP2 SWAP1 PUSH2 0x25C7 JUMP JUMPDEST SWAP3 POP POP DUP2 SWAP1 SSTORE POP PUSH1 0x1 PUSH1 0x3 PUSH0 DUP5 PUSH20 0xFFFFFFFFFFFFFFFFFFFFFFFFFFFFFFFFFFFFFFFF AND PUSH20 0xFFFFFFFFFFFFFFFFFFFFFFFFFFFFFFFFFFFFFFFF AND DUP2 MSTORE PUSH1 0x20 ADD SWAP1 DUP2 MSTORE PUSH1 0x20 ADD PUSH0 KECCAK256 PUSH0 DUP3 DUP3 SLOAD PUSH2 0x12C3 SWAP2 SWAP1 PUSH2 0x25FA JUMP JUMPDEST SWAP3 POP POP DUP2 SWAP1 SSTORE POP DUP2 PUSH1 0x2 PUSH0 DUP4 DUP2 MSTORE PUSH1 0x20 ADD SWAP1 DUP2 MSTORE PUSH1 0x20 ADD PUSH0 KECCAK256 PUSH0 PUSH2 0x100 EXP DUP2 SLOAD DUP2 PUSH20 0xFFFFFFFFFFFFFFFFFFFFFFFFFFFFFFFFFFFFFFFF MUL NOT AND SWAP1 DUP4 PUSH20 0xFFFFFFFFFFFFFFFFFFFFFFFFFFFFFFFFFFFFFFFF AND MUL OR SWAP1 SSTORE POP DUP1 DUP3 PUSH20 0xFFFFFFFFFFFFFFFFFFFFFFFFFFFFFFFFFFFFFFFF AND DUP5 PUSH20 0xFFFFFFFFFFFFFFFFFFFFFFFFFFFFFFFFFFFFFFFF AND PUSH32 0xDDF252AD1BE2C89B69C2B068FC378DAA952BA7F163C4A11628F55A4DF523B3EF PUSH1 0x40 MLOAD PUSH1 0x40 MLOAD DUP1 SWAP2 SUB SWAP1 LOG4 POP POP POP POP JUMP JUMPDEST PUSH0 DUP2 PUSH20 0xFFFFFFFFFFFFFFFFFFFFFFFFFFFFFFFFFFFFFFFF AND PUSH2 0x139C DUP6 DUP6 PUSH2 0x1758 JUMP JUMPDEST PUSH20 0xFFFFFFFFFFFFFFFFFFFFFFFFFFFFFFFFFFFFFFFF AND EQ SWAP1 POP SWAP4 SWAP3 POP POP POP JUMP JUMPDEST PUSH0 PUSH20 0xFFFFFFFFFFFFFFFFFFFFFFFFFFFFFFFFFFFFFFFF AND DUP3 PUSH20 0xFFFFFFFFFFFFFFFFFFFFFFFFFFFFFFFFFFFFFFFF AND SUB PUSH2 0x142A JUMPI PUSH1 0x40 MLOAD PUSH32 0x8C379A000000000000000000000000000000000000000000000000000000000 DUP2 MSTORE PUSH1 0x4 ADD PUSH2 0x1421 SWAP1 PUSH2 0x2677 JUMP JUMPDEST PUSH1 0x40 MLOAD DUP1 SWAP2 SUB SWAP1 REVERT JUMPDEST PUSH0 PUSH20 0xFFFFFFFFFFFFFFFFFFFFFFFFFFFFFFFFFFFFFFFF AND PUSH1 0x2 PUSH0 DUP4 DUP2 MSTORE PUSH1 0x20 ADD SWAP1 DUP2 MSTORE PUSH1 0x20 ADD PUSH0 KECCAK256 PUSH0 SWAP1 SLOAD SWAP1 PUSH2 0x100 EXP SWAP1 DIV PUSH20 0xFFFFFFFFFFFFFFFFFFFFFFFFFFFFFFFFFFFFFFFF AND PUSH20 0xFFFFFFFFFFFFFFFFFFFFFFFFFFFFFFFFFFFFFFFF AND EQ PUSH2 0x14C8 JUMPI PUSH1 0x40 MLOAD PUSH32 0x8C379A000000000000000000000000000000000000000000000000000000000 DUP2 MSTORE PUSH1 0x4 ADD PUSH2 0x14BF SWAP1 PUSH2 0x26DF JUMP JUMPDEST PUSH1 0x40 MLOAD DUP1 SWAP2 SUB SWAP1 REVERT JUMPDEST PUSH1 0x1 PUSH1 0x3 PUSH0 DUP5 PUSH20 0xFFFFFFFFFFFFFFFFFFFFFFFFFFFFFFFFFFFFFFFF AND PUSH20 0xFFFFFFFFFFFFFFFFFFFFFFFFFFFFFFFFFFFFFFFF AND DUP2 MSTORE PUSH1 0x20 ADD SWAP1 DUP2 MSTORE PUSH1 0x20 ADD PUSH0 KECCAK256 PUSH0 DUP3 DUP3 SLOAD PUSH2 0x1515 SWAP2 SWAP1 PUSH2 0x25FA JUMP JUMPDEST SWAP3 POP POP DUP2 SWAP1 SSTORE POP DUP2 PUSH1 0x2 PUSH0 DUP4 DUP2 MSTORE PUSH1 0x20 ADD SWAP1 DUP2 MSTORE PUSH1 0x20 ADD PUSH0 KECCAK256 PUSH0 PUSH2 0x100 EXP DUP2 SLOAD DUP2 PUSH20 0xFFFFFFFFFFFFFFFFFFFFFFFFFFFFFFFFFFFFFFFF MUL NOT AND SWAP1 DUP4 PUSH20 0xFFFFFFFFFFFFFFFFFFFFFFFFFFFFFFFFFFFFFFFF AND MUL OR SWAP1 SSTORE POP DUP1 DUP3 PUSH20 0xFFFFFFFFFFFFFFFFFFFFFFFFFFFFFFFFFFFFFFFF AND PUSH0 PUSH20 0xFFFFFFFFFFFFFFFFFFFFFFFFFFFFFFFFFFFFFFFF AND PUSH32 0xDDF252AD1BE2C89B69C2B068FC378DAA952BA7F163C4A11628F55A4DF523B3EF PUSH1 0x40 MLOAD PUSH1 0x40 MLOAD DUP1 SWAP2 SUB SWAP1 LOG4 POP POP JUMP JUMPDEST PUSH2 0x15D6 DUP6 DUP6 DUP6 DUP6 PUSH2 0x113B JUMP JUMPDEST PUSH2 0x15E2 DUP5 DUP5 DUP5 DUP5 PUSH2 0x180E JUMP JUMPDEST POP POP POP POP POP JUMP JUMPDEST PUSH1 0x60 PUSH1 0x40 MLOAD DUP1 PUSH1 0x20 ADD PUSH1 0x40 MSTORE DUP1 PUSH0 DUP2 MSTORE POP SWAP1 POP SWAP1 JUMP JUMPDEST PUSH1 0x60 PUSH0 DUP3 SUB PUSH2 0x1645 JUMPI PUSH1 0x40 MLOAD DUP1 PUSH1 0x40 ADD PUSH1 0x40 MSTORE DUP1 PUSH1 0x1 DUP2 MSTORE PUSH1 0x20 ADD PUSH32 0x3000000000000000000000000000000000000000000000000000000000000000 DUP2 MSTORE POP SWAP1 POP PUSH2 0x1753 JUMP JUMPDEST PUSH0 DUP3 SWAP1 POP PUSH0 JUMPDEST PUSH0 DUP3 EQ PUSH2 0x1674 JUMPI DUP1 DUP1 PUSH2 0x165D SWAP1 PUSH2 0x26FD JUMP JUMPDEST SWAP2 POP POP PUSH1 0xA DUP3 PUSH2 0x166D SWAP2 SWAP1 PUSH2 0x2771 JUMP JUMPDEST SWAP2 POP PUSH2 0x164B JUMP JUMPDEST PUSH0 DUP2 PUSH8 0xFFFFFFFFFFFFFFFF DUP2 GT ISZERO PUSH2 0x168F JUMPI PUSH2 0x168E PUSH2 0x1CB6 JUMP JUMPDEST JUMPDEST PUSH1 0x40 MLOAD SWAP1 DUP1 DUP3 MSTORE DUP1 PUSH1 0x1F ADD PUSH1 0x1F NOT AND PUSH1 0x20 ADD DUP3 ADD PUSH1 0x40 MSTORE DUP1 ISZERO PUSH2 0x16C1 JUMPI DUP2 PUSH1 0x20 ADD PUSH1 0x1 DUP3 MUL DUP1 CALLDATASIZE DUP4 CALLDATACOPY DUP1 DUP3 ADD SWAP2 POP POP SWAP1 POP JUMPDEST POP SWAP1 POP JUMPDEST PUSH0 DUP6 EQ PUSH2 0x174C JUMPI PUSH1 0x1 DUP3 PUSH2 0x16D9 SWAP2 SWAP1 PUSH2 0x25C7 JUMP JUMPDEST SWAP2 POP PUSH1 0xA DUP6 PUSH2 0x16E8 SWAP2 SWAP1 PUSH2 0x27A1 JUMP JUMPDEST PUSH1 0x30 PUSH2 0x16F4 SWAP2 SWAP1 PUSH2 0x25FA JUMP JUMPDEST PUSH1 0xF8 SHL DUP2 DUP4 DUP2 MLOAD DUP2 LT PUSH2 0x170A JUMPI PUSH2 0x1709 PUSH2 0x27D1 JUMP JUMPDEST JUMPDEST PUSH1 0x20 ADD ADD SWAP1 PUSH31 0xFFFFFFFFFFFFFFFFFFFFFFFFFFFFFFFFFFFFFFFFFFFFFFFFFFFFFFFFFFFFFF NOT AND SWAP1 DUP2 PUSH0 BYTE SWAP1 MSTORE8 POP PUSH1 0xA DUP6 PUSH2 0x1745 SWAP2 SWAP1 PUSH2 0x2771 JUMP JUMPDEST SWAP5 POP PUSH2 0x16C5 JUMP JUMPDEST DUP1 SWAP4 POP POP POP POP JUMPDEST SWAP2 SWAP1 POP JUMP JUMPDEST PUSH0 PUSH1 0x41 DUP3 MLOAD EQ PUSH2 0x179D JUMPI PUSH1 0x40 MLOAD PUSH32 0x8C379A000000000000000000000000000000000000000000000000000000000 DUP2 MSTORE PUSH1 0x4 ADD PUSH2 0x1794 SWAP1 PUSH2 0x2848 JUMP JUMPDEST PUSH1 0x40 MLOAD DUP1 SWAP2 SUB SWAP1 REVERT JUMPDEST PUSH0 PUSH0 PUSH0 PUSH1 0x20 DUP6 ADD MLOAD SWAP3 POP PUSH1 0x40 DUP6 ADD MLOAD SWAP2 POP PUSH1 0x60 DUP6 ADD MLOAD PUSH0 BYTE SWAP1 POP PUSH1 0x1 DUP7 DUP3 DUP6 DUP6 PUSH1 0x40 MLOAD PUSH0 DUP2 MSTORE PUSH1 0x20 ADD PUSH1 0x40 MSTORE PUSH1 0x40 MLOAD PUSH2 0x17D9 SWAP5 SWAP4 SWAP3 SWAP2 SWAP1 PUSH2 0x2881 JUMP JUMPDEST PUSH1 0x20 PUSH1 0x40 MLOAD PUSH1 0x20 DUP2 SUB SWAP1 DUP1 DUP5 SUB SWAP1 DUP6 GAS STATICCALL ISZERO DUP1 ISZERO PUSH2 0x17F9 JUMPI RETURNDATASIZE PUSH0 PUSH0 RETURNDATACOPY RETURNDATASIZE PUSH0 REVERT JUMPDEST POP POP POP PUSH1 0x20 PUSH1 0x40 MLOAD SUB MLOAD SWAP4 POP POP POP POP SWAP3 SWAP2 POP POP JUMP JUMPDEST PUSH0 DUP4 PUSH20 0xFFFFFFFFFFFFFFFFFFFFFFFFFFFFFFFFFFFFFFFF AND EXTCODESIZE GT ISZERO PUSH2 0x19B3 JUMPI DUP3 PUSH20 0xFFFFFFFFFFFFFFFFFFFFFFFFFFFFFFFFFFFFFFFF AND PUSH4 0x150B7A02 CALLER DUP7 DUP6 DUP6 PUSH1 0x40 MLOAD DUP6 PUSH4 0xFFFFFFFF AND PUSH1 0xE0 SHL DUP2 MSTORE PUSH1 0x4 ADD PUSH2 0x186C SWAP5 SWAP4 SWAP3 SWAP2 SWAP1 PUSH2 0x2916 JUMP JUMPDEST PUSH1 0x20 PUSH1 0x40 MLOAD DUP1 DUP4 SUB DUP2 PUSH0 DUP8 GAS CALL SWAP3 POP POP POP DUP1 ISZERO PUSH2 0x18A7 JUMPI POP PUSH1 0x40 MLOAD RETURNDATASIZE PUSH1 0x1F NOT PUSH1 0x1F DUP3 ADD AND DUP3 ADD DUP1 PUSH1 0x40 MSTORE POP DUP2 ADD SWAP1 PUSH2 0x18A4 SWAP2 SWAP1 PUSH2 0x2974 JUMP JUMPDEST PUSH1 0x1 JUMPDEST PUSH2 0x1928 JUMPI RETURNDATASIZE DUP1 PUSH0 DUP2 EQ PUSH2 0x18D5 JUMPI PUSH1 0x40 MLOAD SWAP2 POP PUSH1 0x1F NOT PUSH1 0x3F RETURNDATASIZE ADD AND DUP3 ADD PUSH1 0x40 MSTORE RETURNDATASIZE DUP3 MSTORE RETURNDATASIZE PUSH0 PUSH1 0x20 DUP5 ADD RETURNDATACOPY PUSH2 0x18DA JUMP JUMPDEST PUSH1 0x60 SWAP2 POP JUMPDEST POP PUSH0 DUP2 MLOAD SUB PUSH2 0x1920 JUMPI DUP4 PUSH1 0x40 MLOAD PUSH32 0x64A0AE9200000000000000000000000000000000000000000000000000000000 DUP2 MSTORE PUSH1 0x4 ADD PUSH2 0x1917 SWAP2 SWAP1 PUSH2 0x1BAA JUMP JUMPDEST PUSH1 0x40 MLOAD DUP1 SWAP2 SUB SWAP1 REVERT JUMPDEST DUP1 MLOAD DUP2 PUSH1 0x20 ADD REVERT JUMPDEST PUSH4 0x150B7A02 PUSH1 0xE0 SHL PUSH28 0xFFFFFFFFFFFFFFFFFFFFFFFFFFFFFFFFFFFFFFFFFFFFFFFFFFFFFFFF NOT AND DUP2 PUSH28 0xFFFFFFFFFFFFFFFFFFFFFFFFFFFFFFFFFFFFFFFFFFFFFFFFFFFFFFFF NOT AND EQ PUSH2 0x19B1 JUMPI DUP4 PUSH1 0x40 MLOAD PUSH32 0x64A0AE9200000000000000000000000000000000000000000000000000000000 DUP2 MSTORE PUSH1 0x4 ADD PUSH2 0x19A8 SWAP2 SWAP1 PUSH2 0x1BAA JUMP JUMPDEST PUSH1 0x40 MLOAD DUP1 SWAP2 SUB SWAP1 REVERT JUMPDEST POP JUMPDEST POP POP POP POP JUMP JUMPDEST PUSH0 PUSH1 0x40 MLOAD SWAP1 POP SWAP1 JUMP JUMPDEST PUSH0 PUSH0 REVERT JUMPDEST PUSH0 PUSH0 REVERT JUMPDEST PUSH0 PUSH32 0xFFFFFFFF00000000000000000000000000000000000000000000000000000000 DUP3 AND SWAP1 POP SWAP2 SWAP1 POP JUMP JUMPDEST PUSH2 0x19FE DUP2 PUSH2 0x19CA JUMP JUMPDEST DUP2 EQ PUSH2 0x1A08 JUMPI PUSH0 PUSH0 REVERT JUMPDEST POP JUMP JUMPDEST PUSH0 DUP2 CALLDATALOAD SWAP1 POP PUSH2 0x1A19 DUP2 PUSH2 0x19F5 JUMP JUMPDEST SWAP3 SWAP2 POP POP JUMP JUMPDEST PUSH0 PUSH1 0x20 DUP3 DUP5 SUB SLT ISZERO PUSH2 0x1A34 JUMPI PUSH2 0x1A33 PUSH2 0x19C2 JUMP JUMPDEST JUMPDEST PUSH0 PUSH2 0x1A41 DUP5 DUP3 DUP6 ADD PUSH2 0x1A0B JUMP JUMPDEST SWAP2 POP POP SWAP3 SWAP2 POP POP JUMP JUMPDEST PUSH0 DUP2 ISZERO ISZERO SWAP1 POP SWAP2 SWAP1 POP JUMP JUMPDEST PUSH2 0x1A5E DUP2 PUSH2 0x1A4A JUMP JUMPDEST DUP3 MSTORE POP POP JUMP JUMPDEST PUSH0 PUSH1 0x20 DUP3 ADD SWAP1 POP PUSH2 0x1A77 PUSH0 DUP4 ADD DUP5 PUSH2 0x1A55 JUMP JUMPDEST SWAP3 SWAP2 POP POP JUMP JUMPDEST PUSH0 DUP2 MLOAD SWAP1 POP SWAP2 SWAP1 POP JUMP JUMPDEST PUSH0 DUP3 DUP3 MSTORE PUSH1 0x20 DUP3 ADD SWAP1 POP SWAP3 SWAP2 POP POP JUMP JUMPDEST DUP3 DUP2 DUP4 MCOPY PUSH0 DUP4 DUP4 ADD MSTORE POP POP POP JUMP JUMPDEST PUSH0 PUSH1 0x1F NOT PUSH1 0x1F DUP4 ADD AND SWAP1 POP SWAP2 SWAP1 POP JUMP JUMPDEST PUSH0 PUSH2 0x1ABF DUP3 PUSH2 0x1A7D JUMP JUMPDEST PUSH2 0x1AC9 DUP2 DUP6 PUSH2 0x1A87 JUMP JUMPDEST SWAP4 POP PUSH2 0x1AD9 DUP2 DUP6 PUSH1 0x20 DUP7 ADD PUSH2 0x1A97 JUMP JUMPDEST PUSH2 0x1AE2 DUP2 PUSH2 0x1AA5 JUMP JUMPDEST DUP5 ADD SWAP2 POP POP SWAP3 SWAP2 POP POP JUMP JUMPDEST PUSH0 PUSH1 0x20 DUP3 ADD SWAP1 POP DUP2 DUP2 SUB PUSH0 DUP4 ADD MSTORE PUSH2 0x1B05 DUP2 DUP5 PUSH2 0x1AB5 JUMP JUMPDEST SWAP1 POP SWAP3 SWAP2 POP POP JUMP JUMPDEST PUSH0 DUP2 SWAP1 POP SWAP2 SWAP1 POP JUMP JUMPDEST PUSH2 0x1B1F DUP2 PUSH2 0x1B0D JUMP JUMPDEST DUP2 EQ PUSH2 0x1B29 JUMPI PUSH0 PUSH0 REVERT JUMPDEST POP JUMP JUMPDEST PUSH0 DUP2 CALLDATALOAD SWAP1 POP PUSH2 0x1B3A DUP2 PUSH2 0x1B16 JUMP JUMPDEST SWAP3 SWAP2 POP POP JUMP JUMPDEST PUSH0 PUSH1 0x20 DUP3 DUP5 SUB SLT ISZERO PUSH2 0x1B55 JUMPI PUSH2 0x1B54 PUSH2 0x19C2 JUMP JUMPDEST JUMPDEST PUSH0 PUSH2 0x1B62 DUP5 DUP3 DUP6 ADD PUSH2 0x1B2C JUMP JUMPDEST SWAP2 POP POP SWAP3 SWAP2 POP POP JUMP JUMPDEST PUSH0 PUSH20 0xFFFFFFFFFFFFFFFFFFFFFFFFFFFFFFFFFFFFFFFF DUP3 AND SWAP1 POP SWAP2 SWAP1 POP JUMP JUMPDEST PUSH0 PUSH2 0x1B94 DUP3 PUSH2 0x1B6B JUMP JUMPDEST SWAP1 POP SWAP2 SWAP1 POP JUMP JUMPDEST PUSH2 0x1BA4 DUP2 PUSH2 0x1B8A JUMP JUMPDEST DUP3 MSTORE POP POP JUMP JUMPDEST PUSH0 PUSH1 0x20 DUP3 ADD SWAP1 POP PUSH2 0x1BBD PUSH0 DUP4 ADD DUP5 PUSH2 0x1B9B JUMP JUMPDEST SWAP3 SWAP2 POP POP JUMP JUMPDEST PUSH2 0x1BCC DUP2 PUSH2 0x1B8A JUMP JUMPDEST DUP2 EQ PUSH2 0x1BD6 JUMPI PUSH0 PUSH0 REVERT JUMPDEST POP JUMP JUMPDEST PUSH0 DUP2 CALLDATALOAD SWAP1 POP PUSH2 0x1BE7 DUP2 PUSH2 0x1BC3 JUMP JUMPDEST SWAP3 SWAP2 POP POP JUMP JUMPDEST PUSH0 PUSH0 PUSH1 0x40 DUP4 DUP6 SUB SLT ISZERO PUSH2 0x1C03 JUMPI PUSH2 0x1C02 PUSH2 0x19C2 JUMP JUMPDEST JUMPDEST PUSH0 PUSH2 0x1C10 DUP6 DUP3 DUP7 ADD PUSH2 0x1BD9 JUMP JUMPDEST SWAP3 POP POP PUSH1 0x20 PUSH2 0x1C21 DUP6 DUP3 DUP7 ADD PUSH2 0x1B2C JUMP JUMPDEST SWAP2 POP POP SWAP3 POP SWAP3 SWAP1 POP JUMP JUMPDEST PUSH0 PUSH0 PUSH0 PUSH1 0x60 DUP5 DUP7 SUB SLT ISZERO PUSH2 0x1C42 JUMPI PUSH2 0x1C41 PUSH2 0x19C2 JUMP JUMPDEST JUMPDEST PUSH0 PUSH2 0x1C4F DUP7 DUP3 DUP8 ADD PUSH2 0x1BD9 JUMP JUMPDEST SWAP4 POP POP PUSH1 0x20 PUSH2 0x1C60 DUP7 DUP3 DUP8 ADD PUSH2 0x1BD9 JUMP JUMPDEST SWAP3 POP POP PUSH1 0x40 PUSH2 0x1C71 DUP7 DUP3 DUP8 ADD PUSH2 0x1B2C JUMP JUMPDEST SWAP2 POP POP SWAP3 POP SWAP3 POP SWAP3 JUMP JUMPDEST PUSH0 DUP2 SWAP1 POP SWAP2 SWAP1 POP JUMP JUMPDEST PUSH2 0x1C8D DUP2 PUSH2 0x1C7B JUMP JUMPDEST DUP2 EQ PUSH2 0x1C97 JUMPI PUSH0 PUSH0 REVERT JUMPDEST POP JUMP JUMPDEST PUSH0 DUP2 CALLDATALOAD SWAP1 POP PUSH2 0x1CA8 DUP2 PUSH2 0x1C84 JUMP JUMPDEST SWAP3 SWAP2 POP POP JUMP JUMPDEST PUSH0 PUSH0 REVERT JUMPDEST PUSH0 PUSH0 REVERT JUMPDEST PUSH32 0x4E487B7100000000000000000000000000000000000000000000000000000000 PUSH0 MSTORE PUSH1 0x41 PUSH1 0x4 MSTORE PUSH1 0x24 PUSH0 REVERT JUMPDEST PUSH2 0x1CEC DUP3 PUSH2 0x1AA5 JUMP JUMPDEST DUP2 ADD DUP2 DUP2 LT PUSH8 0xFFFFFFFFFFFFFFFF DUP3 GT OR ISZERO PUSH2 0x1D0B JUMPI PUSH2 0x1D0A PUSH2 0x1CB6 JUMP JUMPDEST JUMPDEST DUP1 PUSH1 0x40 MSTORE POP POP POP JUMP JUMPDEST PUSH0 PUSH2 0x1D1D PUSH2 0x19B9 JUMP JUMPDEST SWAP1 POP PUSH2 0x1D29 DUP3 DUP3 PUSH2 0x1CE3 JUMP JUMPDEST SWAP2 SWAP1 POP JUMP JUMPDEST PUSH0 PUSH8 0xFFFFFFFFFFFFFFFF DUP3 GT ISZERO PUSH2 0x1D48 JUMPI PUSH2 0x1D47 PUSH2 0x1CB6 JUMP JUMPDEST JUMPDEST PUSH2 0x1D51 DUP3 PUSH2 0x1AA5 JUMP JUMPDEST SWAP1 POP PUSH1 0x20 DUP2 ADD SWAP1 POP SWAP2 SWAP1 POP JUMP JUMPDEST DUP3 DUP2 DUP4 CALLDATACOPY PUSH0 DUP4 DUP4 ADD MSTORE POP POP POP JUMP JUMPDEST PUSH0 PUSH2 0x1D7E PUSH2 0x1D79 DUP5 PUSH2 0x1D2E JUMP JUMPDEST PUSH2 0x1D14 JUMP JUMPDEST SWAP1 POP DUP3 DUP2 MSTORE PUSH1 0x20 DUP2 ADD DUP5 DUP5 DUP5 ADD GT ISZERO PUSH2 0x1D9A JUMPI PUSH2 0x1D99 PUSH2 0x1CB2 JUMP JUMPDEST JUMPDEST PUSH2 0x1DA5 DUP5 DUP3 DUP6 PUSH2 0x1D5E JUMP JUMPDEST POP SWAP4 SWAP3 POP POP POP JUMP JUMPDEST PUSH0 DUP3 PUSH1 0x1F DUP4 ADD SLT PUSH2 0x1DC1 JUMPI PUSH2 0x1DC0 PUSH2 0x1CAE JUMP JUMPDEST JUMPDEST DUP2 CALLDATALOAD PUSH2 0x1DD1 DUP5 DUP3 PUSH1 0x20 DUP7 ADD PUSH2 0x1D6C JUMP JUMPDEST SWAP2 POP POP SWAP3 SWAP2 POP POP JUMP JUMPDEST PUSH0 PUSH0 PUSH1 0x40 DUP4 DUP6 SUB SLT ISZERO PUSH2 0x1DF0 JUMPI PUSH2 0x1DEF PUSH2 0x19C2 JUMP JUMPDEST JUMPDEST PUSH0 PUSH2 0x1DFD DUP6 DUP3 DUP7 ADD PUSH2 0x1C9A JUMP JUMPDEST SWAP3 POP POP PUSH1 0x20 DUP4 ADD CALLDATALOAD PUSH8 0xFFFFFFFFFFFFFFFF DUP2 GT ISZERO PUSH2 0x1E1E JUMPI PUSH2 0x1E1D PUSH2 0x19C6 JUMP JUMPDEST JUMPDEST PUSH2 0x1E2A DUP6 DUP3 DUP7 ADD PUSH2 0x1DAD JUMP JUMPDEST SWAP2 POP POP SWAP3 POP SWAP3 SWAP1 POP JUMP JUMPDEST PUSH2 0x1E3D DUP2 PUSH2 0x1C7B JUMP JUMPDEST DUP3 MSTORE POP POP JUMP JUMPDEST PUSH0 PUSH1 0x20 DUP3 ADD SWAP1 POP PUSH2 0x1E56 PUSH0 DUP4 ADD DUP5 PUSH2 0x1E34 JUMP JUMPDEST SWAP3 SWAP2 POP POP JUMP JUMPDEST PUSH0 PUSH1 0x20 DUP3 DUP5 SUB SLT ISZERO PUSH2 0x1E71 JUMPI PUSH2 0x1E70 PUSH2 0x19C2 JUMP JUMPDEST JUMPDEST PUSH0 PUSH2 0x1E7E DUP5 DUP3 DUP6 ADD PUSH2 0x1BD9 JUMP JUMPDEST SWAP2 POP POP SWAP3 SWAP2 POP POP JUMP JUMPDEST PUSH2 0x1E90 DUP2 PUSH2 0x1B0D JUMP JUMPDEST DUP3 MSTORE POP POP JUMP JUMPDEST PUSH0 PUSH1 0x20 DUP3 ADD SWAP1 POP PUSH2 0x1EA9 PUSH0 DUP4 ADD DUP5 PUSH2 0x1E87 JUMP JUMPDEST SWAP3 SWAP2 POP POP JUMP JUMPDEST PUSH0 PUSH0 PUSH0 PUSH1 0x60 DUP5 DUP7 SUB SLT ISZERO PUSH2 0x1EC6 JUMPI PUSH2 0x1EC5 PUSH2 0x19C2 JUMP JUMPDEST JUMPDEST PUSH0 PUSH2 0x1ED3 DUP7 DUP3 DUP8 ADD PUSH2 0x1BD9 JUMP JUMPDEST SWAP4 POP POP PUSH1 0x20 PUSH2 0x1EE4 DUP7 DUP3 DUP8 ADD PUSH2 0x1B2C JUMP JUMPDEST SWAP3 POP POP PUSH1 0x40 DUP5 ADD CALLDATALOAD PUSH8 0xFFFFFFFFFFFFFFFF DUP2 GT ISZERO PUSH2 0x1F05 JUMPI PUSH2 0x1F04 PUSH2 0x19C6 JUMP JUMPDEST JUMPDEST PUSH2 0x1F11 DUP7 DUP3 DUP8 ADD PUSH2 0x1DAD JUMP JUMPDEST SWAP2 POP POP SWAP3 POP SWAP3 POP SWAP3 JUMP JUMPDEST PUSH2 0x1F24 DUP2 PUSH2 0x1A4A JUMP JUMPDEST DUP2 EQ PUSH2 0x1F2E JUMPI PUSH0 PUSH0 REVERT JUMPDEST POP JUMP JUMPDEST PUSH0 DUP2 CALLDATALOAD SWAP1 POP PUSH2 0x1F3F DUP2 PUSH2 0x1F1B JUMP JUMPDEST SWAP3 SWAP2 POP POP JUMP JUMPDEST PUSH0 PUSH0 PUSH1 0x40 DUP4 DUP6 SUB SLT ISZERO PUSH2 0x1F5B JUMPI PUSH2 0x1F5A PUSH2 0x19C2 JUMP JUMPDEST JUMPDEST PUSH0 PUSH2 0x1F68 DUP6 DUP3 DUP7 ADD PUSH2 0x1BD9 JUMP JUMPDEST SWAP3 POP POP PUSH1 0x20 PUSH2 0x1F79 DUP6 DUP3 DUP7 ADD PUSH2 0x1F31 JUMP JUMPDEST SWAP2 POP POP SWAP3 POP SWAP3 SWAP1 POP JUMP JUMPDEST PUSH0 PUSH0 PUSH0 PUSH0 PUSH1 0x80 DUP6 DUP8 SUB SLT ISZERO PUSH2 0x1F9B JUMPI PUSH2 0x1F9A PUSH2 0x19C2 JUMP JUMPDEST JUMPDEST PUSH0 PUSH2 0x1FA8 DUP8 DUP3 DUP9 ADD PUSH2 0x1BD9 JUMP JUMPDEST SWAP5 POP POP PUSH1 0x20 PUSH2 0x1FB9 DUP8 DUP3 DUP9 ADD PUSH2 0x1BD9 JUMP JUMPDEST SWAP4 POP POP PUSH1 0x40 PUSH2 0x1FCA DUP8 DUP3 DUP9 ADD PUSH2 0x1B2C JUMP JUMPDEST SWAP3 POP POP PUSH1 0x60 DUP6 ADD CALLDATALOAD PUSH8 0xFFFFFFFFFFFFFFFF DUP2 GT ISZERO PUSH2 0x1FEB JUMPI PUSH2 0x1FEA PUSH2 0x19C6 JUMP JUMPDEST JUMPDEST PUSH2 0x1FF7 DUP8 DUP3 DUP9 ADD PUSH2 0x1DAD JUMP JUMPDEST SWAP2 POP POP SWAP3 SWAP6 SWAP2 SWAP5 POP SWAP3 POP JUMP JUMPDEST PUSH0 PUSH0 PUSH1 0x40 DUP4 DUP6 SUB SLT ISZERO PUSH2 0x2019 JUMPI PUSH2 0x2018 PUSH2 0x19C2 JUMP JUMPDEST JUMPDEST PUSH0 PUSH2 0x2026 DUP6 DUP3 DUP7 ADD PUSH2 0x1BD9 JUMP JUMPDEST SWAP3 POP POP PUSH1 0x20 PUSH2 0x2037 DUP6 DUP3 DUP7 ADD PUSH2 0x1BD9 JUMP JUMPDEST SWAP2 POP POP SWAP3 POP SWAP3 SWAP1 POP JUMP JUMPDEST PUSH32 0x4E487B7100000000000000000000000000000000000000000000000000000000 PUSH0 MSTORE PUSH1 0x22 PUSH1 0x4 MSTORE PUSH1 0x24 PUSH0 REVERT JUMPDEST PUSH0 PUSH1 0x2 DUP3 DIV SWAP1 POP PUSH1 0x1 DUP3 AND DUP1 PUSH2 0x2085 JUMPI PUSH1 0x7F DUP3 AND SWAP2 POP JUMPDEST PUSH1 0x20 DUP3 LT DUP2 SUB PUSH2 0x2098 JUMPI PUSH2 0x2097 PUSH2 0x2041 JUMP JUMPDEST JUMPDEST POP SWAP2 SWAP1 POP JUMP JUMPDEST PUSH32 0x746F6B656E20646F65736E277420657869737400000000000000000000000000 PUSH0 DUP3 ADD MSTORE POP JUMP JUMPDEST PUSH0 PUSH2 0x20D2 PUSH1 0x13 DUP4 PUSH2 0x1A87 JUMP JUMPDEST SWAP2 POP PUSH2 0x20DD DUP3 PUSH2 0x209E JUMP JUMPDEST PUSH1 0x20 DUP3 ADD SWAP1 POP SWAP2 SWAP1 POP JUMP JUMPDEST PUSH0 PUSH1 0x20 DUP3 ADD SWAP1 POP DUP2 DUP2 SUB PUSH0 DUP4 ADD MSTORE PUSH2 0x20FF DUP2 PUSH2 0x20C6 JUMP JUMPDEST SWAP1 POP SWAP2 SWAP1 POP JUMP JUMPDEST PUSH32 0x6E6F74206F776E6572206E6F7220617070726F76656420666F7220616C6C0000 PUSH0 DUP3 ADD MSTORE POP JUMP JUMPDEST PUSH0 PUSH2 0x213A PUSH1 0x1E DUP4 PUSH2 0x1A87 JUMP JUMPDEST SWAP2 POP PUSH2 0x2145 DUP3 PUSH2 0x2106 JUMP JUMPDEST PUSH1 0x20 DUP3 ADD SWAP1 POP SWAP2 SWAP1 POP JUMP JUMPDEST PUSH0 PUSH1 0x20 DUP3 ADD SWAP1 POP DUP2 DUP2 SUB PUSH0 DUP4 ADD MSTORE PUSH2 0x2167 DUP2 PUSH2 0x212E JUMP JUMPDEST SWAP1 POP SWAP2 SWAP1 POP JUMP JUMPDEST PUSH32 0x6E6F74206F776E6572206E6F7220617070726F76656400000000000000000000 PUSH0 DUP3 ADD MSTORE POP JUMP JUMPDEST PUSH0 PUSH2 0x21A2 PUSH1 0x16 DUP4 PUSH2 0x1A87 JUMP JUMPDEST SWAP2 POP PUSH2 0x21AD DUP3 PUSH2 0x216E JUMP JUMPDEST PUSH1 0x20 DUP3 ADD SWAP1 POP SWAP2 SWAP1 POP JUMP JUMPDEST PUSH0 PUSH1 0x20 DUP3 ADD SWAP1 POP DUP2 DUP2 SUB PUSH0 DUP4 ADD MSTORE PUSH2 0x21CF DUP2 PUSH2 0x2196 JUMP JUMPDEST SWAP1 POP SWAP2 SWAP1 POP JUMP JUMPDEST PUSH0 DUP2 PUSH1 0x60 SHL SWAP1 POP SWAP2 SWAP1 POP JUMP JUMPDEST PUSH0 PUSH2 0x21EC DUP3 PUSH2 0x21D6 JUMP JUMPDEST SWAP1 POP SWAP2 SWAP1 POP JUMP JUMPDEST PUSH0 PUSH2 0x21FD DUP3 PUSH2 0x21E2 JUMP JUMPDEST SWAP1 POP SWAP2 SWAP1 POP JUMP JUMPDEST PUSH2 0x2215 PUSH2 0x2210 DUP3 PUSH2 0x1B8A JUMP JUMPDEST PUSH2 0x21F3 JUMP JUMPDEST DUP3 MSTORE POP POP JUMP JUMPDEST PUSH0 DUP2 SWAP1 POP SWAP2 SWAP1 POP JUMP JUMPDEST PUSH2 0x2235 PUSH2 0x2230 DUP3 PUSH2 0x1B0D JUMP JUMPDEST PUSH2 0x221B JUMP JUMPDEST DUP3 MSTORE POP POP JUMP JUMPDEST PUSH0 PUSH2 0x2246 DUP3 DUP6 PUSH2 0x2204 JUMP JUMPDEST PUSH1 0x14 DUP3 ADD SWAP2 POP PUSH2 0x2256 DUP3 DUP5 PUSH2 0x2224 JUMP JUMPDEST PUSH1 0x20 DUP3 ADD SWAP2 POP DUP2 SWAP1 POP SWAP4 SWAP3 POP POP POP JUMP JUMPDEST PUSH32 0x6F776E6572203D207A65726F2061646472657373000000000000000000000000 PUSH0 DUP3 ADD MSTORE POP JUMP JUMPDEST PUSH0 PUSH2 0x229A PUSH1 0x14 DUP4 PUSH2 0x1A87 JUMP JUMPDEST SWAP2 POP PUSH2 0x22A5 DUP3 PUSH2 0x2266 JUMP JUMPDEST PUSH1 0x20 DUP3 ADD SWAP1 POP SWAP2 SWAP1 POP JUMP JUMPDEST PUSH0 PUSH1 0x20 DUP3 ADD SWAP1 POP DUP2 DUP2 SUB PUSH0 DUP4 ADD MSTORE PUSH2 0x22C7 DUP2 PUSH2 0x228E JUMP JUMPDEST SWAP1 POP SWAP2 SWAP1 POP JUMP JUMPDEST PUSH2 0x22D7 DUP2 PUSH2 0x1C7B JUMP JUMPDEST DUP3 MSTORE POP POP JUMP JUMPDEST PUSH0 PUSH1 0x20 DUP3 ADD SWAP1 POP PUSH2 0x22F0 PUSH0 DUP4 ADD DUP5 PUSH2 0x22CE JUMP JUMPDEST SWAP3 SWAP2 POP POP JUMP JUMPDEST PUSH0 DUP2 MLOAD SWAP1 POP PUSH2 0x2304 DUP2 PUSH2 0x1C84 JUMP JUMPDEST SWAP3 SWAP2 POP POP JUMP JUMPDEST PUSH0 PUSH1 0x20 DUP3 DUP5 SUB SLT ISZERO PUSH2 0x231F JUMPI PUSH2 0x231E PUSH2 0x19C2 JUMP JUMPDEST JUMPDEST PUSH0 PUSH2 0x232C DUP5 DUP3 DUP6 ADD PUSH2 0x22F6 JUMP JUMPDEST SWAP2 POP POP SWAP3 SWAP2 POP POP JUMP JUMPDEST PUSH32 0x496E76616C6964207369676E6174757265000000000000000000000000000000 PUSH0 DUP3 ADD MSTORE POP JUMP JUMPDEST PUSH0 PUSH2 0x2369 PUSH1 0x11 DUP4 PUSH2 0x1A87 JUMP JUMPDEST SWAP2 POP PUSH2 0x2374 DUP3 PUSH2 0x2335 JUMP JUMPDEST PUSH1 0x20 DUP3 ADD SWAP1 POP SWAP2 SWAP1 POP JUMP JUMPDEST PUSH0 PUSH1 0x20 DUP3 ADD SWAP1 POP DUP2 DUP2 SUB PUSH0 DUP4 ADD MSTORE PUSH2 0x2396 DUP2 PUSH2 0x235D JUMP JUMPDEST SWAP1 POP SWAP2 SWAP1 POP JUMP JUMPDEST PUSH32 0x416C7265616479206D696E746564210000000000000000000000000000000000 PUSH0 DUP3 ADD MSTORE POP JUMP JUMPDEST PUSH0 PUSH2 0x23D1 PUSH1 0xF DUP4 PUSH2 0x1A87 JUMP JUMPDEST SWAP2 POP PUSH2 0x23DC DUP3 PUSH2 0x239D JUMP JUMPDEST PUSH1 0x20 DUP3 ADD SWAP1 POP SWAP2 SWAP1 POP JUMP JUMPDEST PUSH0 PUSH1 0x20 DUP3 ADD SWAP1 POP DUP2 DUP2 SUB PUSH0 DUP4 ADD MSTORE PUSH2 0x23FE DUP2 PUSH2 0x23C5 JUMP JUMPDEST SWAP1 POP SWAP2 SWAP1 POP JUMP JUMPDEST PUSH32 0x546F6B656E204E6F742045786973740000000000000000000000000000000000 PUSH0 DUP3 ADD MSTORE POP JUMP JUMPDEST PUSH0 PUSH2 0x2439 PUSH1 0xF DUP4 PUSH2 0x1A87 JUMP JUMPDEST SWAP2 POP PUSH2 0x2444 DUP3 PUSH2 0x2405 JUMP JUMPDEST PUSH1 0x20 DUP3 ADD SWAP1 POP SWAP2 SWAP1 POP JUMP JUMPDEST PUSH0 PUSH1 0x20 DUP3 ADD SWAP1 POP DUP2 DUP2 SUB PUSH0 DUP4 ADD MSTORE PUSH2 0x2466 DUP2 PUSH2 0x242D JUMP JUMPDEST SWAP1 POP SWAP2 SWAP1 POP JUMP JUMPDEST PUSH0 DUP2 SWAP1 POP SWAP3 SWAP2 POP POP JUMP JUMPDEST PUSH0 PUSH2 0x2481 DUP3 PUSH2 0x1A7D JUMP JUMPDEST PUSH2 0x248B DUP2 DUP6 PUSH2 0x246D JUMP JUMPDEST SWAP4 POP PUSH2 0x249B DUP2 DUP6 PUSH1 0x20 DUP7 ADD PUSH2 0x1A97 JUMP JUMPDEST DUP1 DUP5 ADD SWAP2 POP POP SWAP3 SWAP2 POP POP JUMP JUMPDEST PUSH0 PUSH2 0x24B2 DUP3 DUP6 PUSH2 0x2477 JUMP JUMPDEST SWAP2 POP PUSH2 0x24BE DUP3 DUP5 PUSH2 0x2477 JUMP JUMPDEST SWAP2 POP DUP2 SWAP1 POP SWAP4 SWAP3 POP POP POP JUMP JUMPDEST PUSH32 0x6E6F74206F776E65720000000000000000000000000000000000000000000000 PUSH0 DUP3 ADD MSTORE POP JUMP JUMPDEST PUSH0 PUSH2 0x24FE PUSH1 0x9 DUP4 PUSH2 0x1A87 JUMP JUMPDEST SWAP2 POP PUSH2 0x2509 DUP3 PUSH2 0x24CA JUMP JUMPDEST PUSH1 0x20 DUP3 ADD SWAP1 POP SWAP2 SWAP1 POP JUMP JUMPDEST PUSH0 PUSH1 0x20 DUP3 ADD SWAP1 POP DUP2 DUP2 SUB PUSH0 DUP4 ADD MSTORE PUSH2 0x252B DUP2 PUSH2 0x24F2 JUMP JUMPDEST SWAP1 POP SWAP2 SWAP1 POP JUMP JUMPDEST PUSH32 0x7472616E7366657220746F20746865207A65726F206164647265737300000000 PUSH0 DUP3 ADD MSTORE POP JUMP JUMPDEST PUSH0 PUSH2 0x2566 PUSH1 0x1C DUP4 PUSH2 0x1A87 JUMP JUMPDEST SWAP2 POP PUSH2 0x2571 DUP3 PUSH2 0x2532 JUMP JUMPDEST PUSH1 0x20 DUP3 ADD SWAP1 POP SWAP2 SWAP1 POP JUMP JUMPDEST PUSH0 PUSH1 0x20 DUP3 ADD SWAP1 POP DUP2 DUP2 SUB PUSH0 DUP4 ADD MSTORE PUSH2 0x2593 DUP2 PUSH2 0x255A JUMP JUMPDEST SWAP1 POP SWAP2 SWAP1 POP JUMP JUMPDEST PUSH32 0x4E487B7100000000000000000000000000000000000000000000000000000000 PUSH0 MSTORE PUSH1 0x11 PUSH1 0x4 MSTORE PUSH1 0x24 PUSH0 REVERT JUMPDEST PUSH0 PUSH2 0x25D1 DUP3 PUSH2 0x1B0D JUMP JUMPDEST SWAP2 POP PUSH2 0x25DC DUP4 PUSH2 0x1B0D JUMP JUMPDEST SWAP3 POP DUP3 DUP3 SUB SWAP1 POP DUP2 DUP2 GT ISZERO PUSH2 0x25F4 JUMPI PUSH2 0x25F3 PUSH2 0x259A JUMP JUMPDEST JUMPDEST SWAP3 SWAP2 POP POP JUMP JUMPDEST PUSH0 PUSH2 0x2604 DUP3 PUSH2 0x1B0D JUMP JUMPDEST SWAP2 POP PUSH2 0x260F DUP4 PUSH2 0x1B0D JUMP JUMPDEST SWAP3 POP DUP3 DUP3 ADD SWAP1 POP DUP1 DUP3 GT ISZERO PUSH2 0x2627 JUMPI PUSH2 0x2626 PUSH2 0x259A JUMP JUMPDEST JUMPDEST SWAP3 SWAP2 POP POP JUMP JUMPDEST PUSH32 0x6D696E7420746F207A65726F2061646472657373000000000000000000000000 PUSH0 DUP3 ADD MSTORE POP JUMP JUMPDEST PUSH0 PUSH2 0x2661 PUSH1 0x14 DUP4 PUSH2 0x1A87 JUMP JUMPDEST SWAP2 POP PUSH2 0x266C DUP3 PUSH2 0x262D JUMP JUMPDEST PUSH1 0x20 DUP3 ADD SWAP1 POP SWAP2 SWAP1 POP JUMP JUMPDEST PUSH0 PUSH1 0x20 DUP3 ADD SWAP1 POP DUP2 DUP2 SUB PUSH0 DUP4 ADD MSTORE PUSH2 0x268E DUP2 PUSH2 0x2655 JUMP JUMPDEST SWAP1 POP SWAP2 SWAP1 POP JUMP JUMPDEST PUSH32 0x746F6B656E20616C7265616479206D696E746564000000000000000000000000 PUSH0 DUP3 ADD MSTORE POP JUMP JUMPDEST PUSH0 PUSH2 0x26C9 PUSH1 0x14 DUP4 PUSH2 0x1A87 JUMP JUMPDEST SWAP2 POP PUSH2 0x26D4 DUP3 PUSH2 0x2695 JUMP JUMPDEST PUSH1 0x20 DUP3 ADD SWAP1 POP SWAP2 SWAP1 POP JUMP JUMPDEST PUSH0 PUSH1 0x20 DUP3 ADD SWAP1 POP DUP2 DUP2 SUB PUSH0 DUP4 ADD MSTORE PUSH2 0x26F6 DUP2 PUSH2 0x26BD JUMP JUMPDEST SWAP1 POP SWAP2 SWAP1 POP JUMP JUMPDEST PUSH0 PUSH2 0x2707 DUP3 PUSH2 0x1B0D JUMP JUMPDEST SWAP2 POP PUSH32 0xFFFFFFFFFFFFFFFFFFFFFFFFFFFFFFFFFFFFFFFFFFFFFFFFFFFFFFFFFFFFFFFF DUP3 SUB PUSH2 0x2739 JUMPI PUSH2 0x2738 PUSH2 0x259A JUMP JUMPDEST JUMPDEST PUSH1 0x1 DUP3 ADD SWAP1 POP SWAP2 SWAP1 POP JUMP JUMPDEST PUSH32 0x4E487B7100000000000000000000000000000000000000000000000000000000 PUSH0 MSTORE PUSH1 0x12 PUSH1 0x4 MSTORE PUSH1 0x24 PUSH0 REVERT JUMPDEST PUSH0 PUSH2 0x277B DUP3 PUSH2 0x1B0D JUMP JUMPDEST SWAP2 POP PUSH2 0x2786 DUP4 PUSH2 0x1B0D JUMP JUMPDEST SWAP3 POP DUP3 PUSH2 0x2796 JUMPI PUSH2 0x2795 PUSH2 0x2744 JUMP JUMPDEST JUMPDEST DUP3 DUP3 DIV SWAP1 POP SWAP3 SWAP2 POP POP JUMP JUMPDEST PUSH0 PUSH2 0x27AB DUP3 PUSH2 0x1B0D JUMP JUMPDEST SWAP2 POP PUSH2 0x27B6 DUP4 PUSH2 0x1B0D JUMP JUMPDEST SWAP3 POP DUP3 PUSH2 0x27C6 JUMPI PUSH2 0x27C5 PUSH2 0x2744 JUMP JUMPDEST JUMPDEST DUP3 DUP3 MOD SWAP1 POP SWAP3 SWAP2 POP POP JUMP JUMPDEST PUSH32 0x4E487B7100000000000000000000000000000000000000000000000000000000 PUSH0 MSTORE PUSH1 0x32 PUSH1 0x4 MSTORE PUSH1 0x24 PUSH0 REVERT JUMPDEST PUSH32 0x696E76616C6964207369676E6174757265206C656E6774680000000000000000 PUSH0 DUP3 ADD MSTORE POP JUMP JUMPDEST PUSH0 PUSH2 0x2832 PUSH1 0x18 DUP4 PUSH2 0x1A87 JUMP JUMPDEST SWAP2 POP PUSH2 0x283D DUP3 PUSH2 0x27FE JUMP JUMPDEST PUSH1 0x20 DUP3 ADD SWAP1 POP SWAP2 SWAP1 POP JUMP JUMPDEST PUSH0 PUSH1 0x20 DUP3 ADD SWAP1 POP DUP2 DUP2 SUB PUSH0 DUP4 ADD MSTORE PUSH2 0x285F DUP2 PUSH2 0x2826 JUMP JUMPDEST SWAP1 POP SWAP2 SWAP1 POP JUMP JUMPDEST PUSH0 PUSH1 0xFF DUP3 AND SWAP1 POP SWAP2 SWAP1 POP JUMP JUMPDEST PUSH2 0x287B DUP2 PUSH2 0x2866 JUMP JUMPDEST DUP3 MSTORE POP POP JUMP JUMPDEST PUSH0 PUSH1 0x80 DUP3 ADD SWAP1 POP PUSH2 0x2894 PUSH0 DUP4 ADD DUP8 PUSH2 0x1E34 JUMP JUMPDEST PUSH2 0x28A1 PUSH1 0x20 DUP4 ADD DUP7 PUSH2 0x2872 JUMP JUMPDEST PUSH2 0x28AE PUSH1 0x40 DUP4 ADD DUP6 PUSH2 0x1E34 JUMP JUMPDEST PUSH2 0x28BB PUSH1 0x60 DUP4 ADD DUP5 PUSH2 0x1E34 JUMP JUMPDEST SWAP6 SWAP5 POP POP POP POP POP JUMP JUMPDEST PUSH0 DUP2 MLOAD SWAP1 POP SWAP2 SWAP1 POP JUMP JUMPDEST PUSH0 DUP3 DUP3 MSTORE PUSH1 0x20 DUP3 ADD SWAP1 POP SWAP3 SWAP2 POP POP JUMP JUMPDEST PUSH0 PUSH2 0x28E8 DUP3 PUSH2 0x28C4 JUMP JUMPDEST PUSH2 0x28F2 DUP2 DUP6 PUSH2 0x28CE JUMP JUMPDEST SWAP4 POP PUSH2 0x2902 DUP2 DUP6 PUSH1 0x20 DUP7 ADD PUSH2 0x1A97 JUMP JUMPDEST PUSH2 0x290B DUP2 PUSH2 0x1AA5 JUMP JUMPDEST DUP5 ADD SWAP2 POP POP SWAP3 SWAP2 POP POP JUMP JUMPDEST PUSH0 PUSH1 0x80 DUP3 ADD SWAP1 POP PUSH2 0x2929 PUSH0 DUP4 ADD DUP8 PUSH2 0x1B9B JUMP JUMPDEST PUSH2 0x2936 PUSH1 0x20 DUP4 ADD DUP7 PUSH2 0x1B9B JUMP JUMPDEST PUSH2 0x2943 PUSH1 0x40 DUP4 ADD DUP6 PUSH2 0x1E87 JUMP JUMPDEST DUP2 DUP2 SUB PUSH1 0x60 DUP4 ADD MSTORE PUSH2 0x2955 DUP2 DUP5 PUSH2 0x28DE JUMP JUMPDEST SWAP1 POP SWAP6 SWAP5 POP POP POP POP POP JUMP JUMPDEST PUSH0 DUP2 MLOAD SWAP1 POP PUSH2 0x296E DUP2 PUSH2 0x19F5 JUMP JUMPDEST SWAP3 SWAP2 POP POP JUMP JUMPDEST PUSH0 PUSH1 0x20 DUP3 DUP5 SUB SLT ISZERO PUSH2 0x2989 JUMPI PUSH2 0x2988 PUSH2 0x19C2 JUMP JUMPDEST JUMPDEST PUSH0 PUSH2 0x2996 DUP5 DUP3 DUP6 ADD PUSH2 0x2960 JUMP JUMPDEST SWAP2 POP POP SWAP3 SWAP2 POP POP JUMP INVALID LOG2 PUSH5 0x6970667358 0x22 SLT KECCAK256 SLT 0xA5 DUP6 CALL DUP5 DUP1 0x24 0x23 ADDRESS SLT 0xD9 0xD EQ 0xAF LOG3 CALLVALUE 0xD5 0xB8 0xAB 0xA9 MSIZE DUP9 TSTORE 0xD6 SWAP12 0x23 CODECOPY PUSH25 0x6506068464736F6C634300081E003300000000000000000000 "
		},
		"gasEstimates": {
			"creation": {
				"codeDepositCost": "2141800",
				"executionCost": "infinite",
				"totalCost": "infinite"
			},
			"external": {
				"approve(address,uint256)": "31602",
				"balanceOf(address)": "2930",
				"getApproved(uint256)": "5165",
				"getMessageHash(address,uint256)": "infinite",
				"isApprovedForAll(address,address)": "infinite",
				"mint(address,uint256,bytes)": "infinite",
				"mintedAddress(address)": "2856",
				"name()": "infinite",
				"ownerOf(uint256)": "2983",
				"safeTransferFrom(address,address,uint256)": "infinite",
				"safeTransferFrom(address,address,uint256,bytes)": "infinite",
				"setApprovalForAll(address,bool)": "infinite",
				"signer()": "infinite",
				"supportsInterface(bytes4)": "745",
				"symbol()": "infinite",
				"tokenURI(uint256)": "infinite",
				"transferFrom(address,address,uint256)": "infinite",
				"verify(bytes32,bytes)": "infinite"
			}
		},
		"methodIdentifiers": {
			"approve(address,uint256)": "095ea7b3",
			"balanceOf(address)": "70a08231",
			"getApproved(uint256)": "081812fc",
			"getMessageHash(address,uint256)": "512c91df",
			"isApprovedForAll(address,address)": "e985e9c5",
			"mint(address,uint256,bytes)": "94d008ef",
			"mintedAddress(address)": "630303c6",
			"name()": "06fdde03",
			"ownerOf(uint256)": "6352211e",
			"safeTransferFrom(address,address,uint256)": "42842e0e",
			"safeTransferFrom(address,address,uint256,bytes)": "b88d4fde",
			"setApprovalForAll(address,bool)": "a22cb465",
			"signer()": "238ac933",
			"supportsInterface(bytes4)": "01ffc9a7",
			"symbol()": "95d89b41",
			"tokenURI(uint256)": "c87b56dd",
			"transferFrom(address,address,uint256)": "23b872dd",
			"verify(bytes32,bytes)": "258ae582"
		}
	},
	"abi": [
		{
			"inputs": [
				{
					"internalType": "string",
					"name": "_name",
					"type": "string"
				},
				{
					"internalType": "string",
					"name": "_symbol",
					"type": "string"
				},
				{
					"internalType": "address",
					"name": "_signer",
					"type": "address"
				}
			],
			"stateMutability": "nonpayable",
			"type": "constructor"
		},
		{
			"inputs": [
				{
					"internalType": "address",
					"name": "receiver",
					"type": "address"
				}
			],
			"name": "ERC721InvalidReceiver",
			"type": "error"
		},
		{
			"anonymous": false,
			"inputs": [
				{
					"indexed": true,
					"internalType": "address",
					"name": "owner",
					"type": "address"
				},
				{
					"indexed": true,
					"internalType": "address",
					"name": "approved",
					"type": "address"
				},
				{
					"indexed": true,
					"internalType": "uint256",
					"name": "tokenId",
					"type": "uint256"
				}
			],
			"name": "Approval",
			"type": "event"
		},
		{
			"anonymous": false,
			"inputs": [
				{
					"indexed": true,
					"internalType": "address",
					"name": "owner",
					"type": "address"
				},
				{
					"indexed": true,
					"internalType": "address",
					"name": "operator",
					"type": "address"
				},
				{
					"indexed": false,
					"internalType": "bool",
					"name": "approved",
					"type": "bool"
				}
			],
			"name": "ApprovalForAll",
			"type": "event"
		},
		{
			"anonymous": false,
			"inputs": [
				{
					"indexed": true,
					"internalType": "address",
					"name": "from",
					"type": "address"
				},
				{
					"indexed": true,
					"internalType": "address",
					"name": "to",
					"type": "address"
				},
				{
					"indexed": true,
					"internalType": "uint256",
					"name": "tokenId",
					"type": "uint256"
				}
			],
			"name": "Transfer",
			"type": "event"
		},
		{
			"inputs": [
				{
					"internalType": "address",
					"name": "to",
					"type": "address"
				},
				{
					"internalType": "uint256",
					"name": "tokenId",
					"type": "uint256"
				}
			],
			"name": "approve",
			"outputs": [],
			"stateMutability": "nonpayable",
			"type": "function"
		},
		{
			"inputs": [
				{
					"internalType": "address",
					"name": "owner",
					"type": "address"
				}
			],
			"name": "balanceOf",
			"outputs": [
				{
					"internalType": "uint256",
					"name": "balance",
					"type": "uint256"
				}
			],
			"stateMutability": "view",
			"type": "function"
		},
		{
			"inputs": [
				{
					"internalType": "uint256",
					"name": "tokenId",
					"type": "uint256"
				}
			],
			"name": "getApproved",
			"outputs": [
				{
					"internalType": "address",
					"name": "operator",
					"type": "address"
				}
			],
			"stateMutability": "view",
			"type": "function"
		},
		{
			"inputs": [
				{
					"internalType": "address",
					"name": "_account",
					"type": "address"
				},
				{
					"internalType": "uint256",
					"name": "_tokenId",
					"type": "uint256"
				}
			],
			"name": "getMessageHash",
			"outputs": [
				{
					"internalType": "bytes32",
					"name": "",
					"type": "bytes32"
				}
			],
			"stateMutability": "pure",
			"type": "function"
		},
		{
			"inputs": [
				{
					"internalType": "address",
					"name": "owner",
					"type": "address"
				},
				{
					"internalType": "address",
					"name": "operator",
					"type": "address"
				}
			],
			"name": "isApprovedForAll",
			"outputs": [
				{
					"internalType": "bool",
					"name": "",
					"type": "bool"
				}
			],
			"stateMutability": "view",
			"type": "function"
		},
		{
			"inputs": [
				{
					"internalType": "address",
					"name": "_account",
					"type": "address"
				},
				{
					"internalType": "uint256",
					"name": "_tokenId",
					"type": "uint256"
				},
				{
					"internalType": "bytes",
					"name": "_signature",
					"type": "bytes"
				}
			],
			"name": "mint",
			"outputs": [],
			"stateMutability": "nonpayable",
			"type": "function"
		},
		{
			"inputs": [
				{
					"internalType": "address",
					"name": "",
					"type": "address"
				}
			],
			"name": "mintedAddress",
			"outputs": [
				{
					"internalType": "bool",
					"name": "",
					"type": "bool"
				}
			],
			"stateMutability": "view",
			"type": "function"
		},
		{
			"inputs": [],
			"name": "name",
			"outputs": [
				{
					"internalType": "string",
					"name": "",
					"type": "string"
				}
			],
			"stateMutability": "view",
			"type": "function"
		},
		{
			"inputs": [
				{
					"internalType": "uint256",
					"name": "tokenId",
					"type": "uint256"
				}
			],
			"name": "ownerOf",
			"outputs": [
				{
					"internalType": "address",
					"name": "owner",
					"type": "address"
				}
			],
			"stateMutability": "view",
			"type": "function"
		},
		{
			"inputs": [
				{
					"internalType": "address",
					"name": "from",
					"type": "address"
				},
				{
					"internalType": "address",
					"name": "to",
					"type": "address"
				},
				{
					"internalType": "uint256",
					"name": "tokenId",
					"type": "uint256"
				}
			],
			"name": "safeTransferFrom",
			"outputs": [],
			"stateMutability": "nonpayable",
			"type": "function"
		},
		{
			"inputs": [
				{
					"internalType": "address",
					"name": "from",
					"type": "address"
				},
				{
					"internalType": "address",
					"name": "to",
					"type": "address"
				},
				{
					"internalType": "uint256",
					"name": "tokenId",
					"type": "uint256"
				},
				{
					"internalType": "bytes",
					"name": "_data",
					"type": "bytes"
				}
			],
			"name": "safeTransferFrom",
			"outputs": [],
			"stateMutability": "nonpayable",
			"type": "function"
		},
		{
			"inputs": [
				{
					"internalType": "address",
					"name": "operator",
					"type": "address"
				},
				{
					"internalType": "bool",
					"name": "approved",
					"type": "bool"
				}
			],
			"name": "setApprovalForAll",
			"outputs": [],
			"stateMutability": "nonpayable",
			"type": "function"
		},
		{
			"inputs": [],
			"name": "signer",
			"outputs": [
				{
					"internalType": "address",
					"name": "",
					"type": "address"
				}
			],
			"stateMutability": "view",
			"type": "function"
		},
		{
			"inputs": [
				{
					"internalType": "bytes4",
					"name": "interfaceId",
					"type": "bytes4"
				}
			],
			"name": "supportsInterface",
			"outputs": [
				{
					"internalType": "bool",
					"name": "",
					"type": "bool"
				}
			],
			"stateMutability": "pure",
			"type": "function"
		},
		{
			"inputs": [],
			"name": "symbol",
			"outputs": [
				{
					"internalType": "string",
					"name": "",
					"type": "string"
				}
			],
			"stateMutability": "view",
			"type": "function"
		},
		{
			"inputs": [
				{
					"internalType": "uint256",
					"name": "tokenId",
					"type": "uint256"
				}
			],
			"name": "tokenURI",
			"outputs": [
				{
					"internalType": "string",
					"name": "",
					"type": "string"
				}
			],
			"stateMutability": "view",
			"type": "function"
		},
		{
			"inputs": [
				{
					"internalType": "address",
					"name": "from",
					"type": "address"
				},
				{
					"internalType": "address",
					"name": "to",
					"type": "address"
				},
				{
					"internalType": "uint256",
					"name": "tokenId",
					"type": "uint256"
				}
			],
			"name": "transferFrom",
			"outputs": [],
			"stateMutability": "nonpayable",
			"type": "function"
		},
		{
			"inputs": [
				{
					"internalType": "bytes32",
					"name": "_msgHash",
					"type": "bytes32"
				},
				{
					"internalType": "bytes",
					"name": "_signature",
					"type": "bytes"
				}
			],
			"name": "verify",
			"outputs": [
				{
					"internalType": "bool",
					"name": "",
					"type": "bool"
				}
			],
			"stateMutability": "view",
			"type": "function"
		}
	]
}