{
	"data": {
		"bytecode": {
			"linkReferences": {},
			"object": "6080604052348015600e575f5ffd5b506107aa8061001c5f395ff3fe60806040526004361061002c575f3560e01c8063b7c763b5146100ab578063e65eac98146100e75761006c565b3661006c577f88a5966d370b9919b20f3e2c13ff65706f196a4e32cc2c12bf57088f885258743334604051610062929190610493565b60405180910390a1005b7f7bf8121d238f1338d4842c396807cbe93f5a2396e2b3cad1639735997867b1f533345f366040516100a19493929190610514565b60405180910390a1005b3480156100b6575f5ffd5b506100d160048036038101906100cc9190610580565b610123565b6040516100de919061060b565b60405180910390f35b3480156100f2575f5ffd5b5061010d60048036038101906101089190610580565b610135565b60405161011a919061060b565b60405180910390f35b606061012e82610147565b9050919050565b606061014082610147565b9050919050565b606061015e82600161015885610165565b016101f3565b9050919050565b5f60076101836fffffffffffffffffffffffffffffffff8411610431565b901b9050600661019f67ffffffffffffffff8385901c11610431565b901b8117905060056101b963ffffffff8385901c11610431565b901b8117905060046101d161ffff8385901c11610431565b901b811790506101e660ff8284901c11610431565b600382901c179050919050565b60605f8390505f60028460026102099190610658565b6102139190610699565b67ffffffffffffffff81111561022c5761022b6106cc565b5b6040519080825280601f01601f19166020018201604052801561025e5781602001600182028036833780820191505090505b5090507f3000000000000000000000000000000000000000000000000000000000000000815f81518110610295576102946106f9565b5b60200101907effffffffffffffffffffffffffffffffffffffffffffffffffffffffffffff191690815f1a9053507f7800000000000000000000000000000000000000000000000000000000000000816001815181106102f8576102f76106f9565b5b60200101907effffffffffffffffffffffffffffffffffffffffffffffffffffffffffffff191690815f1a9053505f60018560026103369190610658565b6103409190610699565b90505b60018111156103df577f3031323334353637383961626364656600000000000000000000000000000000600f841660108110610382576103816106f9565b5b1a60f81b828281518110610399576103986106f9565b5b60200101907effffffffffffffffffffffffffffffffffffffffffffffffffffffffffffff191690815f1a905350600483901c9250806103d890610726565b9050610343565b505f82146104265784846040517fe22e27eb00000000000000000000000000000000000000000000000000000000815260040161041d92919061074d565b60405180910390fd5b809250505092915050565b5f8115159050919050565b5f73ffffffffffffffffffffffffffffffffffffffff82169050919050565b5f6104658261043c565b9050919050565b6104758161045b565b82525050565b5f819050919050565b61048d8161047b565b82525050565b5f6040820190506104a65f83018561046c565b6104b36020830184610484565b9392505050565b5f82825260208201905092915050565b828183375f83830152505050565b5f601f19601f8301169050919050565b5f6104f383856104ba565b93506105008385846104ca565b610509836104d8565b840190509392505050565b5f6060820190506105275f83018761046c565b6105346020830186610484565b81810360408301526105478184866104e8565b905095945050505050565b5f5ffd5b61055f8161047b565b8114610569575f5ffd5b50565b5f8135905061057a81610556565b92915050565b5f6020828403121561059557610594610552565b5b5f6105a28482850161056c565b91505092915050565b5f81519050919050565b5f82825260208201905092915050565b8281835e5f83830152505050565b5f6105dd826105ab565b6105e781856105b5565b93506105f78185602086016105c5565b610600816104d8565b840191505092915050565b5f6020820190508181035f83015261062381846105d3565b905092915050565b7f4e487b71000000000000000000000000000000000000000000000000000000005f52601160045260245ffd5b5f6106628261047b565b915061066d8361047b565b925082820261067b8161047b565b915082820484148315176106925761069161062b565b5b5092915050565b5f6106a38261047b565b91506106ae8361047b565b92508282019050808211156106c6576106c561062b565b5b92915050565b7f4e487b71000000000000000000000000000000000000000000000000000000005f52604160045260245ffd5b7f4e487b71000000000000000000000000000000000000000000000000000000005f52603260045260245ffd5b5f6107308261047b565b91505f82036107425761074161062b565b5b600182039050919050565b5f6040820190506107605f830185610484565b61076d6020830184610484565b939250505056fea2646970667358221220c98783a53fe1df2457146b59c0b7170dce2655fb920ddd8bcc124ae434817d7f64736f6c634300081e0033",
			"opcodes": "PUSH1 0x80 PUSH1 0x40 MSTORE CALLVALUE DUP1 ISZERO PUSH1 0xE JUMPI PUSH0 PUSH0 REVERT JUMPDEST POP PUSH2 0x7AA DUP1 PUSH2 0x1C PUSH0 CODECOPY PUSH0 RETURN INVALID PUSH1 0x80 PUSH1 0x40 MSTORE PUSH1 0x4 CALLDATASIZE LT PUSH2 0x2C JUMPI PUSH0 CALLDATALOAD PUSH1 0xE0 SHR DUP1 PUSH4 0xB7C763B5 EQ PUSH2 0xAB JUMPI DUP1 PUSH4 0xE65EAC98 EQ PUSH2 0xE7 JUMPI PUSH2 0x6C JUMP JUMPDEST CALLDATASIZE PUSH2 0x6C JUMPI PUSH32 0x88A5966D370B9919B20F3E2C13FF65706F196A4E32CC2C12BF57088F88525874 CALLER CALLVALUE PUSH1 0x40 MLOAD PUSH2 0x62 SWAP3 SWAP2 SWAP1 PUSH2 0x493 JUMP JUMPDEST PUSH1 0x40 MLOAD DUP1 SWAP2 SUB SWAP1 LOG1 STOP JUMPDEST PUSH32 0x7BF8121D238F1338D4842C396807CBE93F5A2396E2B3CAD1639735997867B1F5 CALLER CALLVALUE PUSH0 CALLDATASIZE PUSH1 0x40 MLOAD PUSH2 0xA1 SWAP5 SWAP4 SWAP3 SWAP2 SWAP1 PUSH2 0x514 JUMP JUMPDEST PUSH1 0x40 MLOAD DUP1 SWAP2 SUB SWAP1 LOG1 STOP JUMPDEST CALLVALUE DUP1 ISZERO PUSH2 0xB6 JUMPI PUSH0 PUSH0 REVERT JUMPDEST POP PUSH2 0xD1 PUSH1 0x4 DUP1 CALLDATASIZE SUB DUP2 ADD SWAP1 PUSH2 0xCC SWAP2 SWAP1 PUSH2 0x580 JUMP JUMPDEST PUSH2 0x123 JUMP JUMPDEST PUSH1 0x40 MLOAD PUSH2 0xDE SWAP2 SWAP1 PUSH2 0x60B JUMP JUMPDEST PUSH1 0x40 MLOAD DUP1 SWAP2 SUB SWAP1 RETURN JUMPDEST CALLVALUE DUP1 ISZERO PUSH2 0xF2 JUMPI PUSH0 PUSH0 REVERT JUMPDEST POP PUSH2 0x10D PUSH1 0x4 DUP1 CALLDATASIZE SUB DUP2 ADD SWAP1 PUSH2 0x108 SWAP2 SWAP1 PUSH2 0x580 JUMP JUMPDEST PUSH2 0x135 JUMP JUMPDEST PUSH1 0x40 MLOAD PUSH2 0x11A SWAP2 SWAP1 PUSH2 0x60B JUMP JUMPDEST PUSH1 0x40 MLOAD DUP1 SWAP2 SUB SWAP1 RETURN JUMPDEST PUSH1 0x60 PUSH2 0x12E DUP3 PUSH2 0x147 JUMP JUMPDEST SWAP1 POP SWAP2 SWAP1 POP JUMP JUMPDEST PUSH1 0x60 PUSH2 0x140 DUP3 PUSH2 0x147 JUMP JUMPDEST SWAP1 POP SWAP2 SWAP1 POP JUMP JUMPDEST PUSH1 0x60 PUSH2 0x15E DUP3 PUSH1 0x1 PUSH2 0x158 DUP6 PUSH2 0x165 JUMP JUMPDEST ADD PUSH2 0x1F3 JUMP JUMPDEST SWAP1 POP SWAP2 SWAP1 POP JUMP JUMPDEST PUSH0 PUSH1 0x7 PUSH2 0x183 PUSH16 0xFFFFFFFFFFFFFFFFFFFFFFFFFFFFFFFF DUP5 GT PUSH2 0x431 JUMP JUMPDEST SWAP1 SHL SWAP1 POP PUSH1 0x6 PUSH2 0x19F PUSH8 0xFFFFFFFFFFFFFFFF DUP4 DUP6 SWAP1 SHR GT PUSH2 0x431 JUMP JUMPDEST SWAP1 SHL DUP2 OR SWAP1 POP PUSH1 0x5 PUSH2 0x1B9 PUSH4 0xFFFFFFFF DUP4 DUP6 SWAP1 SHR GT PUSH2 0x431 JUMP JUMPDEST SWAP1 SHL DUP2 OR SWAP1 POP PUSH1 0x4 PUSH2 0x1D1 PUSH2 0xFFFF DUP4 DUP6 SWAP1 SHR GT PUSH2 0x431 JUMP JUMPDEST SWAP1 SHL DUP2 OR SWAP1 POP PUSH2 0x1E6 PUSH1 0xFF DUP3 DUP5 SWAP1 SHR GT PUSH2 0x431 JUMP JUMPDEST PUSH1 0x3 DUP3 SWAP1 SHR OR SWAP1 POP SWAP2 SWAP1 POP JUMP JUMPDEST PUSH1 0x60 PUSH0 DUP4 SWAP1 POP PUSH0 PUSH1 0x2 DUP5 PUSH1 0x2 PUSH2 0x209 SWAP2 SWAP1 PUSH2 0x658 JUMP JUMPDEST PUSH2 0x213 SWAP2 SWAP1 PUSH2 0x699 JUMP JUMPDEST PUSH8 0xFFFFFFFFFFFFFFFF DUP2 GT ISZERO PUSH2 0x22C JUMPI PUSH2 0x22B PUSH2 0x6CC JUMP JUMPDEST JUMPDEST PUSH1 0x40 MLOAD SWAP1 DUP1 DUP3 MSTORE DUP1 PUSH1 0x1F ADD PUSH1 0x1F NOT AND PUSH1 0x20 ADD DUP3 ADD PUSH1 0x40 MSTORE DUP1 ISZERO PUSH2 0x25E JUMPI DUP2 PUSH1 0x20 ADD PUSH1 0x1 DUP3 MUL DUP1 CALLDATASIZE DUP4 CALLDATACOPY DUP1 DUP3 ADD SWAP2 POP POP SWAP1 POP JUMPDEST POP SWAP1 POP PUSH32 0x3000000000000000000000000000000000000000000000000000000000000000 DUP2 PUSH0 DUP2 MLOAD DUP2 LT PUSH2 0x295 JUMPI PUSH2 0x294 PUSH2 0x6F9 JUMP JUMPDEST JUMPDEST PUSH1 0x20 ADD ADD SWAP1 PUSH31 0xFFFFFFFFFFFFFFFFFFFFFFFFFFFFFFFFFFFFFFFFFFFFFFFFFFFFFFFFFFFFFF NOT AND SWAP1 DUP2 PUSH0 BYTE SWAP1 MSTORE8 POP PUSH32 0x7800000000000000000000000000000000000000000000000000000000000000 DUP2 PUSH1 0x1 DUP2 MLOAD DUP2 LT PUSH2 0x2F8 JUMPI PUSH2 0x2F7 PUSH2 0x6F9 JUMP JUMPDEST JUMPDEST PUSH1 0x20 ADD ADD SWAP1 PUSH31 0xFFFFFFFFFFFFFFFFFFFFFFFFFFFFFFFFFFFFFFFFFFFFFFFFFFFFFFFFFFFFFF NOT AND SWAP1 DUP2 PUSH0 BYTE SWAP1 MSTORE8 POP PUSH0 PUSH1 0x1 DUP6 PUSH1 0x2 PUSH2 0x336 SWAP2 SWAP1 PUSH2 0x658 JUMP JUMPDEST PUSH2 0x340 SWAP2 SWAP1 PUSH2 0x699 JUMP JUMPDEST SWAP1 POP JUMPDEST PUSH1 0x1 DUP2 GT ISZERO PUSH2 0x3DF JUMPI PUSH32 0x3031323334353637383961626364656600000000000000000000000000000000 PUSH1 0xF DUP5 AND PUSH1 0x10 DUP2 LT PUSH2 0x382 JUMPI PUSH2 0x381 PUSH2 0x6F9 JUMP JUMPDEST JUMPDEST BYTE PUSH1 0xF8 SHL DUP3 DUP3 DUP2 MLOAD DUP2 LT PUSH2 0x399 JUMPI PUSH2 0x398 PUSH2 0x6F9 JUMP JUMPDEST JUMPDEST PUSH1 0x20 ADD ADD SWAP1 PUSH31 0xFFFFFFFFFFFFFFFFFFFFFFFFFFFFFFFFFFFFFFFFFFFFFFFFFFFFFFFFFFFFFF NOT AND SWAP1 DUP2 PUSH0 BYTE SWAP1 MSTORE8 POP PUSH1 0x4 DUP4 SWAP1 SHR SWAP3 POP DUP1 PUSH2 0x3D8 SWAP1 PUSH2 0x726 JUMP JUMPDEST SWAP1 POP PUSH2 0x343 JUMP JUMPDEST POP PUSH0 DUP3 EQ PUSH2 0x426 JUMPI DUP5 DUP5 PUSH1 0x40 MLOAD PUSH32 0xE22E27EB00000000000000000000000000000000000000000000000000000000 DUP2 MSTORE PUSH1 0x4 ADD PUSH2 0x41D SWAP3 SWAP2 SWAP1 PUSH2 0x74D JUMP JUMPDEST PUSH1 0x40 MLOAD DUP1 SWAP2 SUB SWAP1 REVERT JUMPDEST DUP1 SWAP3 POP POP POP SWAP3 SWAP2 POP POP JUMP JUMPDEST PUSH0 DUP2 ISZERO ISZERO SWAP1 POP SWAP2 SWAP1 POP JUMP JUMPDEST PUSH0 PUSH20 0xFFFFFFFFFFFFFFFFFFFFFFFFFFFFFFFFFFFFFFFF DUP3 AND SWAP1 POP SWAP2 SWAP1 POP JUMP JUMPDEST PUSH0 PUSH2 0x465 DUP3 PUSH2 0x43C JUMP JUMPDEST SWAP1 POP SWAP2 SWAP1 POP JUMP JUMPDEST PUSH2 0x475 DUP2 PUSH2 0x45B JUMP JUMPDEST DUP3 MSTORE POP POP JUMP JUMPDEST PUSH0 DUP2 SWAP1 POP SWAP2 SWAP1 POP JUMP JUMPDEST PUSH2 0x48D DUP2 PUSH2 0x47B JUMP JUMPDEST DUP3 MSTORE POP POP JUMP JUMPDEST PUSH0 PUSH1 0x40 DUP3 ADD SWAP1 POP PUSH2 0x4A6 PUSH0 DUP4 ADD DUP6 PUSH2 0x46C JUMP JUMPDEST PUSH2 0x4B3 PUSH1 0x20 DUP4 ADD DUP5 PUSH2 0x484 JUMP JUMPDEST SWAP4 SWAP3 POP POP POP JUMP JUMPDEST PUSH0 DUP3 DUP3 MSTORE PUSH1 0x20 DUP3 ADD SWAP1 POP SWAP3 SWAP2 POP POP JUMP JUMPDEST DUP3 DUP2 DUP4 CALLDATACOPY PUSH0 DUP4 DUP4 ADD MSTORE POP POP POP JUMP JUMPDEST PUSH0 PUSH1 0x1F NOT PUSH1 0x1F DUP4 ADD AND SWAP1 POP SWAP2 SWAP1 POP JUMP JUMPDEST PUSH0 PUSH2 0x4F3 DUP4 DUP6 PUSH2 0x4BA JUMP JUMPDEST SWAP4 POP PUSH2 0x500 DUP4 DUP6 DUP5 PUSH2 0x4CA JUMP JUMPDEST PUSH2 0x509 DUP4 PUSH2 0x4D8 JUMP JUMPDEST DUP5 ADD SWAP1 POP SWAP4 SWAP3 POP POP POP JUMP JUMPDEST PUSH0 PUSH1 0x60 DUP3 ADD SWAP1 POP PUSH2 0x527 PUSH0 DUP4 ADD DUP8 PUSH2 0x46C JUMP JUMPDEST PUSH2 0x534 PUSH1 0x20 DUP4 ADD DUP7 PUSH2 0x484 JUMP JUMPDEST DUP2 DUP2 SUB PUSH1 0x40 DUP4 ADD MSTORE PUSH2 0x547 DUP2 DUP5 DUP7 PUSH2 0x4E8 JUMP JUMPDEST SWAP1 POP SWAP6 SWAP5 POP POP POP POP POP JUMP JUMPDEST PUSH0 PUSH0 REVERT JUMPDEST PUSH2 0x55F DUP2 PUSH2 0x47B JUMP JUMPDEST DUP2 EQ PUSH2 0x569 JUMPI PUSH0 PUSH0 REVERT JUMPDEST POP JUMP JUMPDEST PUSH0 DUP2 CALLDATALOAD SWAP1 POP PUSH2 0x57A DUP2 PUSH2 0x556 JUMP JUMPDEST SWAP3 SWAP2 POP POP JUMP JUMPDEST PUSH0 PUSH1 0x20 DUP3 DUP5 SUB SLT ISZERO PUSH2 0x595 JUMPI PUSH2 0x594 PUSH2 0x552 JUMP JUMPDEST JUMPDEST PUSH0 PUSH2 0x5A2 DUP5 DUP3 DUP6 ADD PUSH2 0x56C JUMP JUMPDEST SWAP2 POP POP SWAP3 SWAP2 POP POP JUMP JUMPDEST PUSH0 DUP2 MLOAD SWAP1 POP SWAP2 SWAP1 POP JUMP JUMPDEST PUSH0 DUP3 DUP3 MSTORE PUSH1 0x20 DUP3 ADD SWAP1 POP SWAP3 SWAP2 POP POP JUMP JUMPDEST DUP3 DUP2 DUP4 MCOPY PUSH0 DUP4 DUP4 ADD MSTORE POP POP POP JUMP JUMPDEST PUSH0 PUSH2 0x5DD DUP3 PUSH2 0x5AB JUMP JUMPDEST PUSH2 0x5E7 DUP2 DUP6 PUSH2 0x5B5 JUMP JUMPDEST SWAP4 POP PUSH2 0x5F7 DUP2 DUP6 PUSH1 0x20 DUP7 ADD PUSH2 0x5C5 JUMP JUMPDEST PUSH2 0x600 DUP2 PUSH2 0x4D8 JUMP JUMPDEST DUP5 ADD SWAP2 POP POP SWAP3 SWAP2 POP POP JUMP JUMPDEST PUSH0 PUSH1 0x20 DUP3 ADD SWAP1 POP DUP2 DUP2 SUB PUSH0 DUP4 ADD MSTORE PUSH2 0x623 DUP2 DUP5 PUSH2 0x5D3 JUMP JUMPDEST SWAP1 POP SWAP3 SWAP2 POP POP JUMP JUMPDEST PUSH32 0x4E487B7100000000000000000000000000000000000000000000000000000000 PUSH0 MSTORE PUSH1 0x11 PUSH1 0x4 MSTORE PUSH1 0x24 PUSH0 REVERT JUMPDEST PUSH0 PUSH2 0x662 DUP3 PUSH2 0x47B JUMP JUMPDEST SWAP2 POP PUSH2 0x66D DUP4 PUSH2 0x47B JUMP JUMPDEST SWAP3 POP DUP3 DUP3 MUL PUSH2 0x67B DUP2 PUSH2 0x47B JUMP JUMPDEST SWAP2 POP DUP3 DUP3 DIV DUP5 EQ DUP4 ISZERO OR PUSH2 0x692 JUMPI PUSH2 0x691 PUSH2 0x62B JUMP JUMPDEST JUMPDEST POP SWAP3 SWAP2 POP POP JUMP JUMPDEST PUSH0 PUSH2 0x6A3 DUP3 PUSH2 0x47B JUMP JUMPDEST SWAP2 POP PUSH2 0x6AE DUP4 PUSH2 0x47B JUMP JUMPDEST SWAP3 POP DUP3 DUP3 ADD SWAP1 POP DUP1 DUP3 GT ISZERO PUSH2 0x6C6 JUMPI PUSH2 0x6C5 PUSH2 0x62B JUMP JUMPDEST JUMPDEST SWAP3 SWAP2 POP POP JUMP JUMPDEST PUSH32 0x4E487B7100000000000000000000000000000000000000000000000000000000 PUSH0 MSTORE PUSH1 0x41 PUSH1 0x4 MSTORE PUSH1 0x24 PUSH0 REVERT JUMPDEST PUSH32 0x4E487B7100000000000000000000000000000000000000000000000000000000 PUSH0 MSTORE PUSH1 0x32 PUSH1 0x4 MSTORE PUSH1 0x24 PUSH0 REVERT JUMPDEST PUSH0 PUSH2 0x730 DUP3 PUSH2 0x47B JUMP JUMPDEST SWAP2 POP PUSH0 DUP3 SUB PUSH2 0x742 JUMPI PUSH2 0x741 PUSH2 0x62B JUMP JUMPDEST JUMPDEST PUSH1 0x1 DUP3 SUB SWAP1 POP SWAP2 SWAP1 POP JUMP JUMPDEST PUSH0 PUSH1 0x40 DUP3 ADD SWAP1 POP PUSH2 0x760 PUSH0 DUP4 ADD DUP6 PUSH2 0x484 JUMP JUMPDEST PUSH2 0x76D PUSH1 0x20 DUP4 ADD DUP5 PUSH2 0x484 JUMP JUMPDEST SWAP4 SWAP3 POP POP POP JUMP INVALID LOG2 PUSH5 0x6970667358 0x22 SLT KECCAK256 0xC9 DUP8 DUP4 0xA5 EXTCODEHASH RJUMPI 0xDF24 JUMPI EQ PUSH12 0x59C0B7170DCE2655FB920DDD DUP12 0xCC SLT BLOBBASEFEE RETF CALLVALUE DUP2 PUSH30 0x7F64736F6C634300081E0033000000000000000000000000000000000000 "
		},
		"gasEstimates": {
			"creation": {
				"codeDepositCost": "392400",
				"executionCost": "428",
				"totalCost": "392828"
			},
			"external": {
				"": "infinite",
				"getString(uint256)": "infinite",
				"getString2(uint256)": "infinite"
			}
		},
		"methodIdentifiers": {
			"getString(uint256)": "b7c763b5",
			"getString2(uint256)": "e65eac98"
		}
	},
	"abi": [
		{
			"inputs": [
				{
					"internalType": "uint256",
					"name": "value",
					"type": "uint256"
				},
				{
					"internalType": "uint256",
					"name": "length",
					"type": "uint256"
				}
			],
			"name": "StringsInsufficientHexLength",
			"type": "error"
		},
		{
			"anonymous": false,
			"inputs": [
				{
					"indexed": false,
					"internalType": "address",
					"name": "Sender",
					"type": "address"
				},
				{
					"indexed": false,
					"internalType": "uint256",
					"name": "Value",
					"type": "uint256"
				}
			],
			"name": "Received",
			"type": "event"
		},
		{
			"anonymous": false,
			"inputs": [
				{
					"indexed": false,
					"internalType": "address",
					"name": "Sender",
					"type": "address"
				},
				{
					"indexed": false,
					"internalType": "uint256",
					"name": "Value",
					"type": "uint256"
				},
				{
					"indexed": false,
					"internalType": "bytes",
					"name": "Data",
					"type": "bytes"
				}
			],
			"name": "fallbackCalled",
			"type": "event"
		},
		{
			"stateMutability": "payable",
			"type": "fallback"
		},
		{
			"inputs": [
				{
					"internalType": "uint256",
					"name": "num",
					"type": "uint256"
				}
			],
			"name": "getString",
			"outputs": [
				{
					"internalType": "string",
					"name": "result",
					"type": "string"
				}
			],
			"stateMutability": "pure",
			"type": "function"
		},
		{
			"inputs": [
				{
					"internalType": "uint256",
					"name": "_number",
					"type": "uint256"
				}
			],
			"name": "getString2",
			"outputs": [
				{
					"internalType": "string",
					"name": "",
					"type": "string"
				}
			],
			"stateMutability": "pure",
			"type": "function"
		},
		{
			"stateMutability": "payable",
			"type": "receive"
		}
	]
}